{
  "contractName": "CardShop",
  "abi": [
    {
      "inputs": [
        {
          "internalType": "address",
          "name": "auth_",
          "type": "address"
        }
      ],
      "stateMutability": "nonpayable",
      "type": "constructor"
    },
    {
      "anonymous": false,
      "inputs": [
        {
          "indexed": true,
          "internalType": "address",
          "name": "previousOwner",
          "type": "address"
        },
        {
          "indexed": true,
          "internalType": "address",
          "name": "newOwner",
          "type": "address"
        }
      ],
      "name": "OwnershipTransferred",
      "type": "event"
    },
    {
      "inputs": [
        {
          "internalType": "uint256",
          "name": "",
          "type": "uint256"
        },
        {
          "internalType": "uint256",
          "name": "",
          "type": "uint256"
        }
      ],
      "name": "_heros",
      "outputs": [
        {
          "internalType": "uint256",
          "name": "",
          "type": "uint256"
        }
      ],
      "stateMutability": "view",
      "type": "function"
    },
    {
      "inputs": [
        {
          "internalType": "address",
          "name": "",
          "type": "address"
        }
      ],
      "name": "_tokens",
      "outputs": [
        {
          "internalType": "uint256",
          "name": "",
          "type": "uint256"
        }
      ],
      "stateMutability": "view",
      "type": "function"
    },
    {
      "inputs": [],
      "name": "authority",
      "outputs": [
        {
          "internalType": "contract Authority",
          "name": "",
          "type": "address"
        }
      ],
      "stateMutability": "view",
      "type": "function"
    },
    {
      "inputs": [],
      "name": "owner",
      "outputs": [
        {
          "internalType": "address",
          "name": "",
          "type": "address"
        }
      ],
      "stateMutability": "view",
      "type": "function"
    },
    {
      "inputs": [],
      "name": "renounceOwnership",
      "outputs": [],
      "stateMutability": "nonpayable",
      "type": "function"
    },
    {
      "inputs": [
        {
          "internalType": "address",
          "name": "authority_",
          "type": "address"
        }
      ],
      "name": "setAuthority",
      "outputs": [],
      "stateMutability": "nonpayable",
      "type": "function"
    },
    {
      "inputs": [
        {
          "internalType": "address",
          "name": "newOwner",
          "type": "address"
        }
      ],
      "name": "transferOwnership",
      "outputs": [],
      "stateMutability": "nonpayable",
      "type": "function"
    },
    {
      "inputs": [
        {
          "internalType": "uint256",
          "name": "quality_",
          "type": "uint256"
        },
        {
          "internalType": "uint256",
          "name": "heroId_",
          "type": "uint256"
        }
      ],
      "name": "freshExchange",
      "outputs": [],
      "stateMutability": "nonpayable",
      "type": "function"
    },
    {
      "inputs": [
        {
          "internalType": "string",
          "name": "name_",
          "type": "string"
        }
      ],
      "name": "buy",
      "outputs": [],
      "stateMutability": "nonpayable",
      "type": "function"
    }
  ],
  "bytecode": "0x608060405260018060146101000a81548160ff02191690831515021790555034801561002a57600080fd5b5060405161186c38038061186c8339818101604052602081101561004d57600080fd5b810190808051906020019092919050505080600061006f61015560201b60201c565b9050806000806101000a81548173ffffffffffffffffffffffffffffffffffffffff021916908373ffffffffffffffffffffffffffffffffffffffff1602179055508073ffffffffffffffffffffffffffffffffffffffff16600073ffffffffffffffffffffffffffffffffffffffff167f8be0079c531659141344cd1fd0a4f28419497f9722a3daafe3b4186f6b6457e060405160405180910390a35080600160006101000a81548173ffffffffffffffffffffffffffffffffffffffff021916908373ffffffffffffffffffffffffffffffffffffffff160217905550505061015d565b600033905090565b6117008061016c6000396000f3fe608060405234801561001057600080fd5b50600436106100935760003560e01c80637a9e5e4b116100665780637a9e5e4b146101ed5780638da5cb5b14610231578063bf7e214f14610265578063f190903d14610299578063f2fde38b146102e557610093565b806303847f1a1461009857806306f41646146100d0578063492cc76914610128578063715018a6146101e3575b600080fd5b6100ce600480360360408110156100ae57600080fd5b810190808035906020019092919080359060200190929190505050610329565b005b610112600480360360208110156100e657600080fd5b81019080803573ffffffffffffffffffffffffffffffffffffffff1690602001909291905050506104f6565b6040518082815260200191505060405180910390f35b6101e16004803603602081101561013e57600080fd5b810190808035906020019064010000000081111561015b57600080fd5b82018360208201111561016d57600080fd5b8035906020019184600183028401116401000000008311171561018f57600080fd5b91908080601f016020809104026020016040519081016040528093929190818152602001838380828437600081840152601f19601f82011690508083019250505050505050919291929050505061050e565b005b6101eb610c26565b005b61022f6004803603602081101561020357600080fd5b81019080803573ffffffffffffffffffffffffffffffffffffffff169060200190929190505050610d93565b005b610239610e86565b604051808273ffffffffffffffffffffffffffffffffffffffff16815260200191505060405180910390f35b61026d610eaf565b604051808273ffffffffffffffffffffffffffffffffffffffff16815260200191505060405180910390f35b6102cf600480360360408110156102af57600080fd5b810190808035906020019092919080359060200190929190505050610ed5565b6040518082815260200191505060405180910390f35b610327600480360360208110156102fb57600080fd5b81019080803573ffffffffffffffffffffffffffffffffffffffff169060200190929190505050610f06565b005b6040518060400160405280600881526020017f45584348414e4745000000000000000000000000000000000000000000000000815250600160009054906101000a900473ffffffffffffffffffffffffffffffffffffffff1673ffffffffffffffffffffffffffffffffffffffff1663f5e65c7233836040518363ffffffff1660e01b8152600401808373ffffffffffffffffffffffffffffffffffffffff16815260200180602001828103825283818151815260200191508051906020019080838360005b8381101561040a5780820151818401526020810190506103ef565b50505050905090810190601f1680156104375780820380516001836020036101000a031916815260200191505b50935050505060206040518083038186803b15801561045557600080fd5b505afa158015610469573d6000803e3d6000fd5b505050506040513d602081101561047f57600080fd5b81019080805190602001909291905050506104e5576040517f08c379a00000000000000000000000000000000000000000000000000000000081526004018080602001828103825260248152602001806116a76024913960400191505060405180910390fd5b6104f1838360016110f8565b505050565b60026020528060005260406000206000915090505481565b600160149054906101000a900460ff16610590576040517f08c379a000000000000000000000000000000000000000000000000000000000815260040180806020018281038252601b8152602001807f4341524453484f503a2053686f70206973206e6f74206f70656e2e000000000081525060200191505060405180910390fd5b6000600160009054906101000a900473ffffffffffffffffffffffffffffffffffffffff1673ffffffffffffffffffffffffffffffffffffffff16636957a0b2836040518263ffffffff1660e01b81526004018080602001828103825283818151815260200191508051906020019080838360005b83811015610620578082015181840152602081019050610605565b50505050905090810190601f16801561064d5780820380516001836020036101000a031916815260200191505b509250505060206040518083038186803b15801561066a57600080fd5b505afa15801561067e573d6000803e3d6000fd5b505050506040513d602081101561069457600080fd5b8101908080519060200190929190505050905060008173ffffffffffffffffffffffffffffffffffffffff1663a9059cbb600160009054906101000a900473ffffffffffffffffffffffffffffffffffffffff1673ffffffffffffffffffffffffffffffffffffffff16636957a0b26040518163ffffffff1660e01b81526004018080602001828103825260098152602001807f524543495049454e54000000000000000000000000000000000000000000000081525060200191505060206040518083038186803b15801561076957600080fd5b505afa15801561077d573d6000803e3d6000fd5b505050506040513d602081101561079357600080fd5b8101908080519060200190929190505050600260008673ffffffffffffffffffffffffffffffffffffffff1673ffffffffffffffffffffffffffffffffffffffff168152602001908152602001600020546040518363ffffffff1660e01b8152600401808373ffffffffffffffffffffffffffffffffffffffff16815260200182815260200192505050602060405180830381600087803b15801561083757600080fd5b505af115801561084b573d6000803e3d6000fd5b505050506040513d602081101561086157600080fd5b81019080805190602001909291905050509050806108e7576040517f08c379a000000000000000000000000000000000000000000000000000000000815260040180806020018281038252601c8152602001807f4341524453484f503a205472616e73616374696f6e206661696c65640000000081525060200191505060405180910390fd5b6000610954600360006064815260200190815260200160002080548060200260200160405190810160405280929190818152602001828054801561094a57602002820191906000526020600020905b815481526020019060010190808311610936575b50505050506112ad565b905060006109c2600360008481526020019081526020016000208054806020026020016040519081016040528092919081815260200182805480156109b857602002820191906000526020600020905b8154815260200190600101908083116109a4575b50505050506112ad565b9050600073__Helper________________________________639310527d8484600260008a73ffffffffffffffffffffffffffffffffffffffff1673ffffffffffffffffffffffffffffffffffffffff168152602001908152602001600020546040518463ffffffff1660e01b815260040180848152602001838152602001828152602001935050505060206040518083038186803b158015610a6457600080fd5b505af4158015610a78573d6000803e3d6000fd5b505050506040513d6020811015610a8e57600080fd5b81019080805190602001909291905050509050600160009054906101000a900473ffffffffffffffffffffffffffffffffffffffff1673ffffffffffffffffffffffffffffffffffffffff16636957a0b26040518163ffffffff1660e01b81526004018080602001828103825260078152602001807f464947485445520000000000000000000000000000000000000000000000000081525060200191505060206040518083038186803b158015610b4557600080fd5b505afa158015610b59573d6000803e3d6000fd5b505050506040513d6020811015610b6f57600080fd5b810190808051906020019092919050505073ffffffffffffffffffffffffffffffffffffffff16639a5caf5933836040518363ffffffff1660e01b8152600401808373ffffffffffffffffffffffffffffffffffffffff1681526020018267ffffffffffffffff16815260200192505050600060405180830381600087803b158015610bfa57600080fd5b505af1158015610c0e573d6000803e3d6000fd5b50505050610c1e838360006110f8565b505050505050565b610c2e61143d565b73ffffffffffffffffffffffffffffffffffffffff16610c4c610e86565b73ffffffffffffffffffffffffffffffffffffffff1614610cd5576040517f08c379a00000000000000000000000000000000000000000000000000000000081526004018080602001828103825260208152602001807f4f776e61626c653a2063616c6c6572206973206e6f7420746865206f776e657281525060200191505060405180910390fd5b600073ffffffffffffffffffffffffffffffffffffffff1660008054906101000a900473ffffffffffffffffffffffffffffffffffffffff1673ffffffffffffffffffffffffffffffffffffffff167f8be0079c531659141344cd1fd0a4f28419497f9722a3daafe3b4186f6b6457e060405160405180910390a360008060006101000a81548173ffffffffffffffffffffffffffffffffffffffff021916908373ffffffffffffffffffffffffffffffffffffffff160217905550565b610d9b61143d565b73ffffffffffffffffffffffffffffffffffffffff16610db9610e86565b73ffffffffffffffffffffffffffffffffffffffff1614610e42576040517f08c379a00000000000000000000000000000000000000000000000000000000081526004018080602001828103825260208152602001807f4f776e61626c653a2063616c6c6572206973206e6f7420746865206f776e657281525060200191505060405180910390fd5b80600160006101000a81548173ffffffffffffffffffffffffffffffffffffffff021916908373ffffffffffffffffffffffffffffffffffffffff16021790555050565b60008060009054906101000a900473ffffffffffffffffffffffffffffffffffffffff16905090565b600160009054906101000a900473ffffffffffffffffffffffffffffffffffffffff1681565b60036020528160005260406000208181548110610ef157600080fd5b90600052602060002001600091509150505481565b610f0e61143d565b73ffffffffffffffffffffffffffffffffffffffff16610f2c610e86565b73ffffffffffffffffffffffffffffffffffffffff1614610fb5576040517f08c379a00000000000000000000000000000000000000000000000000000000081526004018080602001828103825260208152602001807f4f776e61626c653a2063616c6c6572206973206e6f7420746865206f776e657281525060200191505060405180910390fd5b600073ffffffffffffffffffffffffffffffffffffffff168173ffffffffffffffffffffffffffffffffffffffff16141561103b576040517f08c379a00000000000000000000000000000000000000000000000000000000081526004018080602001828103825260268152602001806116606026913960400191505060405180910390fd5b8073ffffffffffffffffffffffffffffffffffffffff1660008054906101000a900473ffffffffffffffffffffffffffffffffffffffff1673ffffffffffffffffffffffffffffffffffffffff167f8be0079c531659141344cd1fd0a4f28419497f9722a3daafe3b4186f6b6457e060405160405180910390a3806000806101000a81548173ffffffffffffffffffffffffffffffffffffffff021916908373ffffffffffffffffffffffffffffffffffffffff16021790555050565b80156111d55761113b60016003600060648152602001908152602001600020858154811061112257fe5b906000526020600020015461144590919063ffffffff16565b6003600060648152602001908152602001600020848154811061115a57fe5b90600052602060002001819055506111a4600160036000868152602001908152602001600020848154811061118b57fe5b906000526020600020015461144590919063ffffffff16565b6003600085815260200190815260200160002083815481106111c257fe5b90600052602060002001819055506112a8565b6112126001600360006064815260200190815260200160002085815481106111f957fe5b90600052602060002001546114cd90919063ffffffff16565b6003600060648152602001908152602001600020848154811061123157fe5b906000526020600020018190555061127b600160036000868152602001908152602001600020848154811061126257fe5b90600052602060002001546114cd90919063ffffffff16565b60036000858152602001908152602001600020838154811061129957fe5b90600052602060002001819055505b505050565b600080600090506000805b84518110156112f6576112e78582815181106112d057fe5b60200260200101518461144590919063ffffffff16565b925080806001019150506112b8565b50600073__Helper________________________________63b863bd376127106040518263ffffffff1660e01b81526004018082815260200191505060206040518083038186803b15801561134a57600080fd5b505af415801561135e573d6000803e3d6000fd5b505050506040513d602081101561137457600080fd5b8101908080519060200190929190505050905060005b85518110156114345760008682815181106113a157fe5b6020026020010151116113b357611427565b60008682815181106113c157fe5b6020026020010151905060006113e26127108361155090919063ffffffff16565b90506113f786826115d690919063ffffffff16565b905060008585119050600082870186111590508180156114145750805b1561141d578498505b8287019650505050505b808060010191505061138a565b50505050919050565b600033905090565b6000808284019050838110156114c3576040517f08c379a000000000000000000000000000000000000000000000000000000000815260040180806020018281038252601b8152602001807f536166654d6174683a206164646974696f6e206f766572666c6f77000000000081525060200191505060405180910390fd5b8091505092915050565b600082821115611545576040517f08c379a000000000000000000000000000000000000000000000000000000000815260040180806020018281038252601e8152602001807f536166654d6174683a207375627472616374696f6e206f766572666c6f77000081525060200191505060405180910390fd5b818303905092915050565b60008083141561156357600090506115d0565b600082840290508284828161157457fe5b04146115cb576040517f08c379a00000000000000000000000000000000000000000000000000000000081526004018080602001828103825260218152602001806116866021913960400191505060405180910390fd5b809150505b92915050565b600080821161164d576040517f08c379a000000000000000000000000000000000000000000000000000000000815260040180806020018281038252601a8152602001807f536166654d6174683a206469766973696f6e206279207a65726f00000000000081525060200191505060405180910390fd5b81838161165657fe5b0490509291505056fe4f776e61626c653a206e6577206f776e657220697320746865207a65726f2061646472657373536166654d6174683a206d756c7469706c69636174696f6e206f766572666c6f774d656d6265723a20546865206f7065726174696f6e206973206e6f7420616c6c6f776564a2646970667358221220849475922fc73e32d102ae5d392f0e4a8180ce50609288cc2add412daaa4ee9764736f6c63430007060033",
  "immutableReferences": {},
  "source": "// SPDX-License-Identifier: SimPL-2.0\n\npragma solidity ^0.7.0;\n\nimport \"../utlis/Helper.sol\";\nimport \"../token/Fighter.sol\";\nimport \"../authority/Member.sol\";\n\nimport \"@openzeppelin/contracts/math/SafeMath.sol\";\nimport \"@openzeppelin/contracts/token/ERC20/IERC20.sol\";\n\n/**\n * @title Fighter Z Token Card Shop\n *\n * It's mainly used for pledge to get M3T Token\n * QUANTITIES: 2 MILLION | DECIMALS: 18\n *\n * @author Bit Lighthouse. Ace\n * AT: 2021-3-28 | VERSION: v1.0.2\n */\n\ncontract CardShop is Member {\n    using SafeMath for uint256;\n\n    bool private _open = true;\n    mapping (address => uint256) public _tokens;\n    mapping(uint256 => uint256[]) public _heros;\n\n    constructor(address auth_) Member(auth_) {\n\n    }\n\n    function _calculation(uint256[] memory _arrays)\n        private view returns (uint256 result) {\n\n        uint256 quantities = 0; uint256 total = 0;\n        for (uint256 i = 0; i < _arrays.length; i++) {\n            quantities = quantities.add(_arrays[i]);\n        }\n\n        uint256 _random = Helper.random(10000);\n        for (uint256 i = 0; i < _arrays.length; i++) {\n            if (_arrays[i] <= 0) continue;\n\n            uint256 quality = _arrays[i];\n            uint256 percent = quality.mul(10000);\n            percent = percent.div(quantities);\n\n            bool start = _random > total;\n            bool end = _random <= total + percent;\n            if (start && end) result = i;\n\n            total = total + percent;\n        }\n    }\n\n    function _fresh(uint256 quality_, uint256 heroId_, bool type_)\n        private {\n\n        if (type_) {\n            _heros[100][quality_] = _heros[100][quality_].add(1);\n            _heros[quality_][heroId_] = _heros[quality_][heroId_].add(1);\n        } else {\n            _heros[100][quality_] = _heros[100][quality_].sub(1);\n            _heros[quality_][heroId_] = _heros[quality_][heroId_].sub(1);\n        }\n    }\n\n    function freshExchange(uint256 quality_, uint256 heroId_)\n        external CheckPermit(\"EXCHANGE\") {\n\n        _fresh(quality_, heroId_, true);\n    }\n \n    function buy(string memory name_) public {\n        require(_open, \"CARDSHOP: Shop is not open.\");\n\n        address token = authority.members(name_);\n\n        bool success = IERC20(token).transfer(\n            authority.members(\"RECIPIENT\"), _tokens[token]\n        );\n\n        require(success, \"CARDSHOP: Transaction failed\");\n\n        uint256 quality = _calculation(_heros[100]);\n        uint256 heroId = _calculation(_heros[quality]);\n\n        uint64 tokenId = Helper.generate(quality, heroId, _tokens[token]);\n        Fighter(authority.members(\"FIGHTER\")).doMint(msg.sender, tokenId);\n\n        _fresh(quality, heroId, false);\n    }\n}",
  "sourcePath": "/home/ace/Projects/eth/other/dragon-ball/contracts/core/CardShop.sol",
  "compiler": {
    "name": "solc",
    "version": "0.7.6+commit.7338295f.Emscripten.clang"
  },
  "schemaVersion": "3.3.4",
  "updatedAt": "2021-08-13T03:59:38.111Z",
  "devdoc": {
    "author": "Bit Lighthouse. Ace AT: 2021-3-28 | VERSION: v1.0.2",
    "kind": "dev",
    "methods": {
      "owner()": {
        "details": "Returns the address of the current owner."
      },
      "renounceOwnership()": {
        "details": "Leaves the contract without owner. It will not be possible to call `onlyOwner` functions anymore. Can only be called by the current owner. NOTE: Renouncing ownership will leave the contract without an owner, thereby removing any functionality that is only available to the owner."
      },
      "setAuthority(address)": {
        "params": {
          "authority_": "address of manager This function is onwer only"
        }
      },
      "transferOwnership(address)": {
        "details": "Transfers ownership of the contract to a new account (`newOwner`). Can only be called by the current owner."
      }
    },
    "title": "Fighter Z Token Card Shop It's mainly used for pledge to get M3T Token QUANTITIES: 2 MILLION | DECIMALS: 18",
    "version": 1
  },
  "userdoc": {
    "kind": "user",
    "methods": {
      "setAuthority(address)": {
        "notice": "Set new manager"
      }
    },
    "version": 1
  }
}