{
  "contractName": "Exchange",
  "abi": [
    {
      "inputs": [
        {
          "internalType": "address",
          "name": "auth_",
          "type": "address"
        }
      ],
      "stateMutability": "nonpayable",
      "type": "constructor"
    },
    {
      "anonymous": false,
      "inputs": [
        {
          "indexed": false,
          "internalType": "uint16",
          "name": "rate",
          "type": "uint16"
        },
        {
          "indexed": false,
          "internalType": "uint256",
          "name": "reward",
          "type": "uint256"
        },
        {
          "indexed": false,
          "internalType": "uint256",
          "name": "surpls",
          "type": "uint256"
        }
      ],
      "name": "DoExchange",
      "type": "event"
    },
    {
      "anonymous": false,
      "inputs": [
        {
          "indexed": true,
          "internalType": "address",
          "name": "previousOwner",
          "type": "address"
        },
        {
          "indexed": true,
          "internalType": "address",
          "name": "newOwner",
          "type": "address"
        }
      ],
      "name": "OwnershipTransferred",
      "type": "event"
    },
    {
      "anonymous": false,
      "inputs": [
        {
          "indexed": false,
          "internalType": "uint256",
          "name": "reward",
          "type": "uint256"
        },
        {
          "indexed": false,
          "internalType": "uint256",
          "name": "surpls",
          "type": "uint256"
        }
      ],
      "name": "Redeemed",
      "type": "event"
    },
    {
      "inputs": [],
      "name": "authority",
      "outputs": [
        {
          "internalType": "contract Authority",
          "name": "",
          "type": "address"
        }
      ],
      "stateMutability": "view",
      "type": "function",
      "constant": true
    },
    {
      "inputs": [],
      "name": "owner",
      "outputs": [
        {
          "internalType": "address",
          "name": "",
          "type": "address"
        }
      ],
      "stateMutability": "view",
      "type": "function",
      "constant": true
    },
    {
      "inputs": [],
      "name": "renounceOwnership",
      "outputs": [],
      "stateMutability": "nonpayable",
      "type": "function"
    },
    {
      "inputs": [
        {
          "internalType": "address",
          "name": "authority_",
          "type": "address"
        }
      ],
      "name": "setAuthority",
      "outputs": [],
      "stateMutability": "nonpayable",
      "type": "function"
    },
    {
      "inputs": [
        {
          "internalType": "address",
          "name": "newOwner",
          "type": "address"
        }
      ],
      "name": "transferOwnership",
      "outputs": [],
      "stateMutability": "nonpayable",
      "type": "function"
    },
    {
      "inputs": [
        {
          "internalType": "uint104",
          "name": "tokenId_",
          "type": "uint104"
        }
      ],
      "name": "redeemed",
      "outputs": [],
      "stateMutability": "nonpayable",
      "type": "function"
    },
    {
      "inputs": [
        {
          "internalType": "uint8",
          "name": "quality_",
          "type": "uint8"
        }
      ],
      "name": "exchange",
      "outputs": [],
      "stateMutability": "nonpayable",
      "type": "function"
    }
  ],
  "bytecode": "0x60806040523480156200001157600080fd5b506040516200341a3803806200341a833981810160405281019062000037919062000150565b8060006200004a6200013160201b60201c565b9050806000806101000a81548173ffffffffffffffffffffffffffffffffffffffff021916908373ffffffffffffffffffffffffffffffffffffffff1602179055508073ffffffffffffffffffffffffffffffffffffffff16600073ffffffffffffffffffffffffffffffffffffffff167f8be0079c531659141344cd1fd0a4f28419497f9722a3daafe3b4186f6b6457e060405160405180910390a35080600160006101000a81548173ffffffffffffffffffffffffffffffffffffffff021916908373ffffffffffffffffffffffffffffffffffffffff1602179055505050620001d5565b600033905090565b6000815190506200014a81620001bb565b92915050565b600060208284031215620001695762000168620001b6565b5b6000620001798482850162000139565b91505092915050565b60006200018f8262000196565b9050919050565b600073ffffffffffffffffffffffffffffffffffffffff82169050919050565b600080fd5b620001c68162000182565b8114620001d257600080fd5b50565b61323580620001e56000396000f3fe608060405234801561001057600080fd5b506004361061007d5760003560e01c80637a9e5e4b1161005b5780637a9e5e4b146100c45780638da5cb5b146100e0578063bf7e214f146100fe578063f2fde38b1461011c5761007d565b806315f42ce914610082578063351256a81461009e578063715018a6146100ba575b600080fd5b61009c60048036038101906100979190612338565b610138565b005b6100b860048036038101906100b391906122de565b611069565b005b6100c2611b8f565b005b6100de60048036038101906100d991906121d0565b611cc9565b005b6100e8611d89565b6040516100f59190612655565b60405180910390f35b610106611db2565b604051610113919061279c565b60405180910390f35b610136600480360381019061013191906121d0565b611dd8565b005b6040518060400160405280600881526020017f45584348414e4745000000000000000000000000000000000000000000000000815250600160009054906101000a900473ffffffffffffffffffffffffffffffffffffffff1673ffffffffffffffffffffffffffffffffffffffff1663466f98e860006040518263ffffffff1660e01b81526004016101ca91906126d7565b60206040518083038186803b1580156101e257600080fd5b505afa1580156101f6573d6000803e3d6000fd5b505050506040513d601f19601f8201168201806040525081019061021a919061222a565b1561025a576040517f08c379a0000000000000000000000000000000000000000000000000000000008152600401610251906127f7565b60405180910390fd5b600160009054906101000a900473ffffffffffffffffffffffffffffffffffffffff1673ffffffffffffffffffffffffffffffffffffffff1663466f98e86000836040518363ffffffff1660e01b81526004016102b89291906126a7565b60206040518083038186803b1580156102d057600080fd5b505afa1580156102e4573d6000803e3d6000fd5b505050506040513d601f19601f82011682018060405250810190610308919061222a565b15610348576040517f08c379a000000000000000000000000000000000000000000000000000000000815260040161033f90612857565b60405180910390fd5b600160009054906101000a900473ffffffffffffffffffffffffffffffffffffffff1673ffffffffffffffffffffffffffffffffffffffff1663466f98e8336040518263ffffffff1660e01b81526004016103a391906126d7565b60206040518083038186803b1580156103bb57600080fd5b505afa1580156103cf573d6000803e3d6000fd5b505050506040513d601f19601f820116820180604052508101906103f3919061222a565b15610433576040517f08c379a000000000000000000000000000000000000000000000000000000000815260040161042a90612977565b60405180910390fd5b600160009054906101000a900473ffffffffffffffffffffffffffffffffffffffff1673ffffffffffffffffffffffffffffffffffffffff1663466f98e833836040518363ffffffff1660e01b81526004016104909291906126a7565b60206040518083038186803b1580156104a857600080fd5b505afa1580156104bc573d6000803e3d6000fd5b505050506040513d601f19601f820116820180604052508101906104e0919061222a565b15610520576040517f08c379a000000000000000000000000000000000000000000000000000000000815260040161051790612977565b60405180910390fd5b6000600160009054906101000a900473ffffffffffffffffffffffffffffffffffffffff1673ffffffffffffffffffffffffffffffffffffffff16636957a0b26040518163ffffffff1660e01b815260040161057b90612957565b60206040518083038186803b15801561059357600080fd5b505afa1580156105a7573d6000803e3d6000fd5b505050506040513d601f19601f820116820180604052508101906105cb91906121fd565b90506000808273ffffffffffffffffffffffffffffffffffffffff166370a08231336040518263ffffffff1660e01b81526004016106099190612655565b60206040518083038186803b15801561062157600080fd5b505afa158015610635573d6000803e3d6000fd5b505050506040513d601f19601f82011682018060405250810190610659919061230b565b905060008167ffffffffffffffff81111561067757610676612db7565b5b6040519080825280602002602001820160405280156106a55781602001602082028036833780820191505090505b50905060005b828110156108465760008573ffffffffffffffffffffffffffffffffffffffff1663cfdc352233846040518363ffffffff1660e01b81526004016106f0929190612705565b60206040518083038186803b15801561070857600080fd5b505afa15801561071c573d6000803e3d6000fd5b505050506040513d601f19601f82011682018060405250810190610740919061230b565b905061074a611fb5565b73__NftLibrary____________________________63d6ebbcfb836040518263ffffffff1660e01b81526004016107819190612997565b60806040518083038186803b15801561079957600080fd5b505af41580156107ad573d6000803e3d6000fd5b505050506040513d601f19601f820116820180604052508101906107d19190612257565b90508860ff16816000015160ff16146107eb575050610833565b6001866107f89190612ab2565b95508184848151811061080e5761080d612d88565b5b602002602001019067ffffffffffffffff16908167ffffffffffffffff168152505050505b808061083e90612ce1565b9150506106ab565b5060008473ffffffffffffffffffffffffffffffffffffffff1663d9465f4a886040518263ffffffff1660e01b81526004016108829190612a2d565b60606040518083038186803b15801561089a57600080fd5b505afa1580156108ae573d6000803e3d6000fd5b505050506040513d601f19601f820116820180604052508101906108d29190612284565b90506000816000015161ffff161180156108f45750806000015161ffff168410155b610933576040517f08c379a000000000000000000000000000000000000000000000000000000000815260040161092a90612877565b60405180910390fd5b60008573ffffffffffffffffffffffffffffffffffffffff1663604e3706336040518263ffffffff1660e01b815260040161096e9190612655565b60606040518083038186803b15801561098657600080fd5b505afa15801561099a573d6000803e3d6000fd5b505050506040513d601f19601f820116820180604052508101906109be91906122b1565b90508060400151826000015161ffff16866109d99190612b08565b10610a19576040517f08c379a0000000000000000000000000000000000000000000000000000000008152600401610a1090612917565b60405180910390fd5b6000600160009054906101000a900473ffffffffffffffffffffffffffffffffffffffff1673ffffffffffffffffffffffffffffffffffffffff16636957a0b26040518163ffffffff1660e01b8152600401610a7490612837565b60206040518083038186803b158015610a8c57600080fd5b505afa158015610aa0573d6000803e3d6000fd5b505050506040513d601f19601f82011682018060405250810190610ac491906121fd565b90506000600160009054906101000a900473ffffffffffffffffffffffffffffffffffffffff1673ffffffffffffffffffffffffffffffffffffffff16636957a0b26040518163ffffffff1660e01b8152600401610b2190612897565b60206040518083038186803b158015610b3957600080fd5b505afa158015610b4d573d6000803e3d6000fd5b505050506040513d601f19601f82011682018060405250810190610b7191906121fd565b905060008173ffffffffffffffffffffffffffffffffffffffff166370a08231846040518263ffffffff1660e01b8152600401610bae9190612655565b60206040518083038186803b158015610bc657600080fd5b505afa158015610bda573d6000803e3d6000fd5b505050506040513d601f19601f82011682018060405250810190610bfe919061230b565b90506000610c306064610c22886020015161ffff1685611f8190919063ffffffff16565b611f9790919063ffffffff16565b905060008373ffffffffffffffffffffffffffffffffffffffff166323b872dd8633856040518463ffffffff1660e01b8152600401610c7193929190612670565b602060405180830381600087803b158015610c8b57600080fd5b505af1158015610c9f573d6000803e3d6000fd5b505050506040513d601f19601f82011682018060405250810190610cc3919061222a565b905080610d05576040517f08c379a0000000000000000000000000000000000000000000000000000000008152600401610cfc906127b7565b60405180910390fd5b8a73ffffffffffffffffffffffffffffffffffffffff1663aa10ce22336040518263ffffffff1660e01b8152600401610d3e9190612655565b600060405180830381600087803b158015610d5857600080fd5b505af1158015610d6c573d6000803e3d6000fd5b5050505060008d90506000600160009054906101000a900473ffffffffffffffffffffffffffffffffffffffff1673ffffffffffffffffffffffffffffffffffffffff16636957a0b26040518163ffffffff1660e01b8152600401610dd0906128f7565b60206040518083038186803b158015610de857600080fd5b505afa158015610dfc573d6000803e3d6000fd5b505050506040513d601f19601f82011682018060405250810190610e2091906121fd565b905060005b8b811015610f905760008b8281518110610e4257610e41612d88565b5b602002602001015167ffffffffffffffff1611610e5e57610f7d565b8d73ffffffffffffffffffffffffffffffffffffffff166394637d9533858e8581518110610e8f57610e8e612d88565b5b60200260200101516040518463ffffffff1660e01b8152600401610eb593929190612765565b600060405180830381600087803b158015610ecf57600080fd5b505af1158015610ee3573d6000803e3d6000fd5b505050508173ffffffffffffffffffffffffffffffffffffffff16632c74ee4f84602f8e8581518110610f1957610f18612d88565b5b602002602001015167ffffffffffffffff16901c6040518363ffffffff1660e01b8152600401610f4a929190612a48565b600060405180830381600087803b158015610f6457600080fd5b505af1158015610f78573d6000803e3d6000fd5b505050505b8080610f8890612ce1565b915050610e25565b507f608df846e407cc9ba823f6935a74fbeeeba9387d9dc7a1d0531f837189a416b98960200151858873ffffffffffffffffffffffffffffffffffffffff166370a082318b6040518263ffffffff1660e01b8152600401610ff19190612655565b60206040518083038186803b15801561100957600080fd5b505afa15801561101d573d6000803e3d6000fd5b505050506040513d601f19601f82011682018060405250810190611041919061230b565b604051611050939291906129cd565b60405180910390a1505050505050505050505050505050565b6040518060400160405280600881526020017f52454445454d4544000000000000000000000000000000000000000000000000815250600160009054906101000a900473ffffffffffffffffffffffffffffffffffffffff1673ffffffffffffffffffffffffffffffffffffffff1663466f98e860006040518263ffffffff1660e01b81526004016110fb91906126d7565b60206040518083038186803b15801561111357600080fd5b505afa158015611127573d6000803e3d6000fd5b505050506040513d601f19601f8201168201806040525081019061114b919061222a565b1561118b576040517f08c379a0000000000000000000000000000000000000000000000000000000008152600401611182906127f7565b60405180910390fd5b600160009054906101000a900473ffffffffffffffffffffffffffffffffffffffff1673ffffffffffffffffffffffffffffffffffffffff1663466f98e86000836040518363ffffffff1660e01b81526004016111e99291906126a7565b60206040518083038186803b15801561120157600080fd5b505afa158015611215573d6000803e3d6000fd5b505050506040513d601f19601f82011682018060405250810190611239919061222a565b15611279576040517f08c379a000000000000000000000000000000000000000000000000000000000815260040161127090612857565b60405180910390fd5b600160009054906101000a900473ffffffffffffffffffffffffffffffffffffffff1673ffffffffffffffffffffffffffffffffffffffff1663466f98e8336040518263ffffffff1660e01b81526004016112d491906126d7565b60206040518083038186803b1580156112ec57600080fd5b505afa158015611300573d6000803e3d6000fd5b505050506040513d601f19601f82011682018060405250810190611324919061222a565b15611364576040517f08c379a000000000000000000000000000000000000000000000000000000000815260040161135b90612977565b60405180910390fd5b600160009054906101000a900473ffffffffffffffffffffffffffffffffffffffff1673ffffffffffffffffffffffffffffffffffffffff1663466f98e833836040518363ffffffff1660e01b81526004016113c19291906126a7565b60206040518083038186803b1580156113d957600080fd5b505afa1580156113ed573d6000803e3d6000fd5b505050506040513d601f19601f82011682018060405250810190611411919061222a565b15611451576040517f08c379a000000000000000000000000000000000000000000000000000000000815260040161144890612977565b60405180910390fd5b6000600160009054906101000a900473ffffffffffffffffffffffffffffffffffffffff1673ffffffffffffffffffffffffffffffffffffffff16636957a0b26040518163ffffffff1660e01b81526004016114ac90612957565b60206040518083038186803b1580156114c457600080fd5b505afa1580156114d8573d6000803e3d6000fd5b505050506040513d601f19601f820116820180604052508101906114fc91906121fd565b90508073ffffffffffffffffffffffffffffffffffffffff16636352211e846040518263ffffffff1660e01b815260040161153791906129b2565b60206040518083038186803b15801561154f57600080fd5b505afa158015611563573d6000803e3d6000fd5b505050506040513d601f19601f8201168201806040525081019061158791906121fd565b73ffffffffffffffffffffffffffffffffffffffff163373ffffffffffffffffffffffffffffffffffffffff16146115f4576040517f08c379a00000000000000000000000000000000000000000000000000000000081526004016115eb906128d7565b60405180910390fd5b6000600160009054906101000a900473ffffffffffffffffffffffffffffffffffffffff1673ffffffffffffffffffffffffffffffffffffffff16636957a0b26040518163ffffffff1660e01b815260040161164f90612837565b60206040518083038186803b15801561166757600080fd5b505afa15801561167b573d6000803e3d6000fd5b505050506040513d601f19601f8201168201806040525081019061169f91906121fd565b90506000600160009054906101000a900473ffffffffffffffffffffffffffffffffffffffff1673ffffffffffffffffffffffffffffffffffffffff16636957a0b26040518163ffffffff1660e01b81526004016116fc90612897565b60206040518083038186803b15801561171457600080fd5b505afa158015611728573d6000803e3d6000fd5b505050506040513d601f19601f8201168201806040525081019061174c91906121fd565b9050611756611fb5565b73__NftLibrary____________________________63d6ebbcfb876040518263ffffffff1660e01b815260040161178d9190612997565b60806040518083038186803b1580156117a557600080fd5b505af41580156117b9573d6000803e3d6000fd5b505050506040513d601f19601f820116820180604052508101906117dd9190612257565b90506000816060015190506118166064611808846040015161ffff1684611f8190919063ffffffff16565b611f9790919063ffffffff16565b90506000811161185b576040517f08c379a000000000000000000000000000000000000000000000000000000000815260040161185290612937565b60405180910390fd5b60008373ffffffffffffffffffffffffffffffffffffffff166323b872dd8633856040518463ffffffff1660e01b815260040161189a93929190612670565b602060405180830381600087803b1580156118b457600080fd5b505af11580156118c8573d6000803e3d6000fd5b505050506040513d601f19601f820116820180604052508101906118ec919061222a565b90508061192e576040517f08c379a000000000000000000000000000000000000000000000000000000000815260040161192590612817565b60405180910390fd5b6000600160009054906101000a900473ffffffffffffffffffffffffffffffffffffffff1673ffffffffffffffffffffffffffffffffffffffff16636957a0b26040518163ffffffff1660e01b8152600401611989906128f7565b60206040518083038186803b1580156119a157600080fd5b505afa1580156119b5573d6000803e3d6000fd5b505050506040513d601f19601f820116820180604052508101906119d991906121fd565b90508073ffffffffffffffffffffffffffffffffffffffff16632c74ee4f856000015186602001516040518363ffffffff1660e01b8152600401611a1e929190612a48565b600060405180830381600087803b158015611a3857600080fd5b505af1158015611a4c573d6000803e3d6000fd5b505050508673ffffffffffffffffffffffffffffffffffffffff166394637d953386600001518c6040518463ffffffff1660e01b8152600401611a919392919061272e565b600060405180830381600087803b158015611aab57600080fd5b505af1158015611abf573d6000803e3d6000fd5b505050507f6f73b7b8d37df32ea60a45eadc8fc3d2d716d705ee099bd506817482ce847316838673ffffffffffffffffffffffffffffffffffffffff166370a08231896040518263ffffffff1660e01b8152600401611b1e9190612655565b60206040518083038186803b158015611b3657600080fd5b505afa158015611b4a573d6000803e3d6000fd5b505050506040513d601f19601f82011682018060405250810190611b6e919061230b565b604051611b7c929190612a04565b60405180910390a1505050505050505050565b611b97611fad565b73ffffffffffffffffffffffffffffffffffffffff16611bb5611d89565b73ffffffffffffffffffffffffffffffffffffffff1614611c0b576040517f08c379a0000000000000000000000000000000000000000000000000000000008152600401611c02906128b7565b60405180910390fd5b600073ffffffffffffffffffffffffffffffffffffffff1660008054906101000a900473ffffffffffffffffffffffffffffffffffffffff1673ffffffffffffffffffffffffffffffffffffffff167f8be0079c531659141344cd1fd0a4f28419497f9722a3daafe3b4186f6b6457e060405160405180910390a360008060006101000a81548173ffffffffffffffffffffffffffffffffffffffff021916908373ffffffffffffffffffffffffffffffffffffffff160217905550565b611cd1611fad565b73ffffffffffffffffffffffffffffffffffffffff16611cef611d89565b73ffffffffffffffffffffffffffffffffffffffff1614611d45576040517f08c379a0000000000000000000000000000000000000000000000000000000008152600401611d3c906128b7565b60405180910390fd5b80600160006101000a81548173ffffffffffffffffffffffffffffffffffffffff021916908373ffffffffffffffffffffffffffffffffffffffff16021790555050565b60008060009054906101000a900473ffffffffffffffffffffffffffffffffffffffff16905090565b600160009054906101000a900473ffffffffffffffffffffffffffffffffffffffff1681565b611de0611fad565b73ffffffffffffffffffffffffffffffffffffffff16611dfe611d89565b73ffffffffffffffffffffffffffffffffffffffff1614611e54576040517f08c379a0000000000000000000000000000000000000000000000000000000008152600401611e4b906128b7565b60405180910390fd5b600073ffffffffffffffffffffffffffffffffffffffff168173ffffffffffffffffffffffffffffffffffffffff161415611ec4576040517f08c379a0000000000000000000000000000000000000000000000000000000008152600401611ebb906127d7565b60405180910390fd5b8073ffffffffffffffffffffffffffffffffffffffff1660008054906101000a900473ffffffffffffffffffffffffffffffffffffffff1673ffffffffffffffffffffffffffffffffffffffff167f8be0079c531659141344cd1fd0a4f28419497f9722a3daafe3b4186f6b6457e060405160405180910390a3806000806101000a81548173ffffffffffffffffffffffffffffffffffffffff021916908373ffffffffffffffffffffffffffffffffffffffff16021790555050565b60008183611f8f9190612b39565b905092915050565b60008183611fa59190612b08565b905092915050565b600033905090565b6040518060800160405280600060ff168152602001600061ffff168152602001600061ffff168152602001600081525090565b600081359050611ff781613175565b92915050565b60008151905061200c81613175565b92915050565b6000815190506120218161318c565b92915050565b60006080828403121561203d5761203c612de6565b5b6120476080612a71565b90506000612057848285016121bb565b600083015250602061206b8482850161217c565b602083015250604061207f8482850161217c565b604083015250606061209384828501612191565b60608301525092915050565b6000606082840312156120b5576120b4612de6565b5b6120bf6060612a71565b905060006120cf8482850161217c565b60008301525060206120e38482850161217c565b60208301525060406120f7848285016121bb565b60408301525092915050565b60006060828403121561211957612118612de6565b5b6121236060612a71565b9050600061213384828501612191565b600083015250602061214784828501612191565b602083015250604061215b84828501612191565b60408301525092915050565b600081359050612176816131a3565b92915050565b60008151905061218b816131ba565b92915050565b6000815190506121a0816131d1565b92915050565b6000813590506121b5816131e8565b92915050565b6000815190506121ca816131e8565b92915050565b6000602082840312156121e6576121e5612deb565b5b60006121f484828501611fe8565b91505092915050565b60006020828403121561221357612212612deb565b5b600061222184828501611ffd565b91505092915050565b6000602082840312156122405761223f612deb565b5b600061224e84828501612012565b91505092915050565b60006080828403121561226d5761226c612deb565b5b600061227b84828501612027565b91505092915050565b60006060828403121561229a57612299612deb565b5b60006122a88482850161209f565b91505092915050565b6000606082840312156122c7576122c6612deb565b5b60006122d584828501612103565b91505092915050565b6000602082840312156122f4576122f3612deb565b5b600061230284828501612167565b91505092915050565b60006020828403121561232157612320612deb565b5b600061232f84828501612191565b91505092915050565b60006020828403121561234e5761234d612deb565b5b600061235c848285016121a6565b91505092915050565b61236e81612b93565b82525050565b61237d81612c23565b82525050565b600061238e82612a96565b6123988185612aa1565b93506123a8818560208601612c7d565b6123b181612df0565b840191505092915050565b60006123c9602083612aa1565b91506123d482612e01565b602082019050919050565b60006123ec602683612aa1565b91506123f782612e2a565b604082019050919050565b600061240f602783612aa1565b915061241a82612e79565b604082019050919050565b6000612432601f83612aa1565b915061243d82612ec8565b602082019050919050565b6000612455600583612aa1565b915061246082612ef1565b602082019050919050565b6000612478602a83612aa1565b915061248382612f1a565b604082019050919050565b600061249b602683612aa1565b91506124a682612f69565b604082019050919050565b60006124be600583612aa1565b91506124c982612fb8565b602082019050919050565b60006124e1602083612aa1565b91506124ec82612fe1565b602082019050919050565b6000612504601583612aa1565b915061250f8261300a565b602082019050919050565b6000612527600883612aa1565b915061253282613033565b602082019050919050565b600061254a600383612aa1565b91506125558261305c565b602082019050919050565b600061256d602583612aa1565b915061257882613085565b604082019050919050565b6000612590601883612aa1565b915061259b826130d4565b602082019050919050565b60006125b3600783612aa1565b91506125be826130fd565b602082019050919050565b60006125d6602483612aa1565b91506125e182613126565b604082019050919050565b6125f581612bb1565b82525050565b61260481612bb1565b82525050565b61261381612c35565b82525050565b61262281612bca565b82525050565b61263181612bf8565b82525050565b61264081612c6b565b82525050565b61264f81612c16565b82525050565b600060208201905061266a6000830184612365565b92915050565b60006060820190506126856000830186612365565b6126926020830185612365565b61269f6040830184612628565b949350505050565b60006040820190506126bc6000830185612365565b81810360208301526126ce8184612383565b90509392505050565b60006040820190506126ec6000830184612365565b81810360208301526126fd8161253d565b905092915050565b600060408201905061271a6000830185612365565b6127276020830184612628565b9392505050565b60006060820190506127436000830186612365565b6127506020830185612646565b61275d60408301846125ec565b949350505050565b600060608201905061277a6000830186612365565b6127876020830185612646565b6127946040830184612637565b949350505050565b60006020820190506127b16000830184612374565b92915050565b600060208201905081810360008301526127d0816123bc565b9050919050565b600060208201905081810360008301526127f0816123df565b9050919050565b6000602082019050818103600083015261281081612402565b9050919050565b6000602082019050818103600083015261283081612425565b9050919050565b6000602082019050818103600083015261285081612448565b9050919050565b600060208201905081810360008301526128708161246b565b9050919050565b600060208201905081810360008301526128908161248e565b9050919050565b600060208201905081810360008301526128b0816124b1565b9050919050565b600060208201905081810360008301526128d0816124d4565b9050919050565b600060208201905081810360008301526128f0816124f7565b9050919050565b600060208201905081810360008301526129108161251a565b9050919050565b6000602082019050818103600083015261293081612560565b9050919050565b6000602082019050818103600083015261295081612583565b9050919050565b60006020820190508181036000830152612970816125a6565b9050919050565b60006020820190508181036000830152612990816125c9565b9050919050565b60006020820190506129ac60008301846125fb565b92915050565b60006020820190506129c7600083018461260a565b92915050565b60006060820190506129e26000830186612619565b6129ef6020830185612628565b6129fc6040830184612628565b949350505050565b6000604082019050612a196000830185612628565b612a266020830184612628565b9392505050565b6000602082019050612a426000830184612646565b92915050565b6000604082019050612a5d6000830185612646565b612a6a6020830184612619565b9392505050565b6000612a7b612a8c565b9050612a878282612cb0565b919050565b6000604051905090565b600081519050919050565b600082825260208201905092915050565b6000612abd82612bf8565b9150612ac883612bf8565b9250827fffffffffffffffffffffffffffffffffffffffffffffffffffffffffffffffff03821115612afd57612afc612d2a565b5b828201905092915050565b6000612b1382612bf8565b9150612b1e83612bf8565b925082612b2e57612b2d612d59565b5b828204905092915050565b6000612b4482612bf8565b9150612b4f83612bf8565b9250817fffffffffffffffffffffffffffffffffffffffffffffffffffffffffffffffff0483118215151615612b8857612b87612d2a565b5b828202905092915050565b6000612b9e82612bd8565b9050919050565b60008115159050919050565b60006cffffffffffffffffffffffffff82169050919050565b600061ffff82169050919050565b600073ffffffffffffffffffffffffffffffffffffffff82169050919050565b6000819050919050565b600067ffffffffffffffff82169050919050565b600060ff82169050919050565b6000612c2e82612c47565b9050919050565b6000612c4082612bb1565b9050919050565b6000612c5282612c59565b9050919050565b6000612c6482612bd8565b9050919050565b6000612c7682612c02565b9050919050565b60005b83811015612c9b578082015181840152602081019050612c80565b83811115612caa576000848401525b50505050565b612cb982612df0565b810181811067ffffffffffffffff82111715612cd857612cd7612db7565b5b80604052505050565b6000612cec82612bf8565b91507fffffffffffffffffffffffffffffffffffffffffffffffffffffffffffffffff821415612d1f57612d1e612d2a565b5b600182019050919050565b7f4e487b7100000000000000000000000000000000000000000000000000000000600052601160045260246000fd5b7f4e487b7100000000000000000000000000000000000000000000000000000000600052601260045260246000fd5b7f4e487b7100000000000000000000000000000000000000000000000000000000600052603260045260246000fd5b7f4e487b7100000000000000000000000000000000000000000000000000000000600052604160045260246000fd5b600080fd5b600080fd5b6000601f19601f8301169050919050565b7f45584348414e47453a20526577617264207472616e73666572206669616c642e600082015250565b7f4f776e61626c653a206e6577206f776e657220697320746865207a65726f206160008201527f6464726573730000000000000000000000000000000000000000000000000000602082015250565b7f4d656d6265723a204d61696e74656e616e6365207570677261646520696e207060008201527f726f677265737300000000000000000000000000000000000000000000000000602082015250565b7f464947485445523a20526577617264207472616e73666572206669616c642e00600082015250565b7f464f554e44000000000000000000000000000000000000000000000000000000600082015250565b7f4d656d6265723a20546865206f7065726174696f6e20697320756e646572206d60008201527f61696e74656e616e636500000000000000000000000000000000000000000000602082015250565b7f45584348414e47453a20496e73756666696369656e74206e756d626572206f6660008201527f204e4654732e0000000000000000000000000000000000000000000000000000602082015250565b7f544f4b454e000000000000000000000000000000000000000000000000000000600082015250565b7f4f776e61626c653a2063616c6c6572206973206e6f7420746865206f776e6572600082015250565b7f45584348414e47453a204f6e6c79206f6e7765722e0000000000000000000000600082015250565b7f4341524453484f50000000000000000000000000000000000000000000000000600082015250565b7f414c4c0000000000000000000000000000000000000000000000000000000000600082015250565b7f45584348414e47453a2048617665206e6f2072657761726420746f206578636860008201527f616e67652e000000000000000000000000000000000000000000000000000000602082015250565b7f464947485445523a20526577617264206973207a65726f2e0000000000000000600082015250565b7f4649474854455200000000000000000000000000000000000000000000000000600082015250565b7f4d656d6265723a20546865206f7065726174696f6e206973206e6f7420616c6c60008201527f6f77656400000000000000000000000000000000000000000000000000000000602082015250565b61317e81612b93565b811461318957600080fd5b50565b61319581612ba5565b81146131a057600080fd5b50565b6131ac81612bb1565b81146131b757600080fd5b50565b6131c381612bca565b81146131ce57600080fd5b50565b6131da81612bf8565b81146131e557600080fd5b50565b6131f181612c16565b81146131fc57600080fd5b5056fea26469706673582212204292a631479bedbc27acc78f2a9bc18cdc98b0f26911d3f9c5e5f03e393f0b0164736f6c63430008070033",
  "immutableReferences": {},
  "source": "// SPDX-License-Identifier: SimPL-2.0\n\npragma solidity ^0.8.0;\n\nimport \"../token/Fighter.sol\";\nimport \"../core/CardShop.sol\";\nimport \"../authority/Member.sol\";\n\nimport \"@openzeppelin/contracts/token/ERC20/IERC20.sol\";\nimport \"@openzeppelin/contracts/token/ERC721/IERC721.sol\";\nimport \"@openzeppelin/contracts/utils/math/SafeMath.sol\";\n\n/**\n * @title Fighter Z Token Card Shop\n *\n * @author Bit Lighthouse. Ace\n * AT: 2021-3-28 | VERSION: v1.0.2\n */\n\ncontract Exchange is Member {\n    using SafeMath for uint256;\n\n    event Redeemed(uint256 reward, uint256 surpls);\n    event DoExchange(uint16 rate, uint256 reward, uint256 surpls);\n\n    constructor(address auth_) Member(auth_) {\n\n    }\n\n    function redeemed(uint104 tokenId_) public CheckStatus(\"REDEEMED\") {\n        Fighter figh = Fighter(authority.members(\"FIGHTER\"));\n\n        require(\n            msg.sender == figh.ownerOf(tokenId_),\n            \"EXCHANGE: Only onwer.\"\n        );\n\n        address sender = authority.members(\"FOUND\");\n        IERC20 token = IERC20(authority.members(\"TOKEN\"));\n\n        NftLibrary.DetailStruct memory cs;\n        cs = NftLibrary.tRight(tokenId_);\n\n        uint256 reward = uint256(cs.amount);\n        reward = reward.mul(uint256(cs.rate)).div(100);\n        require(reward > 0, \"FIGHTER: Reward is zero.\");\n        bool success = token.transferFrom(sender, msg.sender, reward);\n        require(success, \"FIGHTER: Reward transfer fiald.\");\n\n        address shop = authority.members(\"CARDSHOP\");\n        CardShop(shop).fresh(cs.quality, cs.heroId);\n        figh.burn(msg.sender, cs.quality, tokenId_);\n        \n        emit Redeemed(reward, token.balanceOf(sender));\n    }\n\n    function exchange(uint8 quality_) public CheckStatus(\"EXCHANGE\") {\n        Fighter figh = Fighter(authority.members(\"FIGHTER\"));\n        uint256 total = 0;\n        \n        uint256 length = figh.balanceOf(msg.sender);\n        uint64[] memory tokens = new uint64[](length);\n\n        for (uint256 i = 0; i < length; i++) {\n            uint256 tokenId = figh.getUserTokens(msg.sender, i);\n            NftLibrary.DetailStruct memory cs;\n            cs = NftLibrary.tRight(uint104(tokenId));\n\n            if (cs.quality != quality_) continue;\n\n            total = total + 1;\n            tokens[i] = uint64(tokenId);\n        }\n\n        Fighter.RateStruct memory rs = figh.getRateStruct(quality_);\n        require(\n            rs.number > 0 && total >= rs.number,\n            \"EXCHANGE: Insufficient number of NFTs.\"\n        );\n\n        NftLibrary.UserStruct memory us = figh.getUserStruct(msg.sender);\n        require(\n            total / rs.number < us.exchange,\n            \"EXCHANGE: Have no reward to exchange.\"\n        );\n\n        address sender = authority.members(\"FOUND\");\n        IERC20 token = IERC20(authority.members(\"TOKEN\"));\n\n        uint256 balance = token.balanceOf(sender);\n        uint256 reward = balance.mul(rs.rate).div(100);\n\n        bool success = token.transferFrom(sender, msg.sender, reward);\n        require(success, \"EXCHANGE: Reward transfer fiald.\");\n        figh.addExchange(msg.sender); uint8 quality = quality_;\n\n        CardShop shop = CardShop(authority.members(\"CARDSHOP\"));\n        \n        for (uint256 i = 0; i < length; i++) {\n            if (tokens[i] <= 0) continue;\n\n            figh.burn(msg.sender, quality, tokens[i]);\n            shop.fresh(quality, uint16(tokens[i] >> 47));\n        }\n\n        emit DoExchange(rs.rate, reward, token.balanceOf(sender));\n    }\n}",
  "sourcePath": "/home/ace/Projects/eth/other/dragon-ball/contracts/core/Exchange.sol",
  "compiler": {
    "name": "solc",
    "version": "0.8.7+commit.e28d00a7.Emscripten.clang"
  },
  "schemaVersion": "3.3.4",
  "updatedAt": "2021-08-17T13:18:31.039Z",
  "networkType": "ethereum",
  "devdoc": {
    "author": "Bit Lighthouse. Ace AT: 2021-3-28 | VERSION: v1.0.2",
    "kind": "dev",
    "methods": {
      "owner()": {
        "details": "Returns the address of the current owner."
      },
      "renounceOwnership()": {
        "details": "Leaves the contract without owner. It will not be possible to call `onlyOwner` functions anymore. Can only be called by the current owner. NOTE: Renouncing ownership will leave the contract without an owner, thereby removing any functionality that is only available to the owner."
      },
      "setAuthority(address)": {
        "params": {
          "authority_": "address of manager This function is onwer only"
        }
      },
      "transferOwnership(address)": {
        "details": "Transfers ownership of the contract to a new account (`newOwner`). Can only be called by the current owner."
      }
    },
    "title": "Fighter Z Token Card Shop",
    "version": 1
  },
  "userdoc": {
    "kind": "user",
    "methods": {
      "setAuthority(address)": {
        "notice": "Set new manager"
      }
    },
    "version": 1
  }
}