{
  "contractName": "Exchange",
  "abi": [
    {
      "inputs": [
        {
          "internalType": "address",
          "name": "auth_",
          "type": "address"
        }
      ],
      "stateMutability": "nonpayable",
      "type": "constructor"
    },
    {
      "anonymous": false,
      "inputs": [
        {
          "indexed": true,
          "internalType": "address",
          "name": "previousOwner",
          "type": "address"
        },
        {
          "indexed": true,
          "internalType": "address",
          "name": "newOwner",
          "type": "address"
        }
      ],
      "name": "OwnershipTransferred",
      "type": "event"
    },
    {
      "anonymous": false,
      "inputs": [
        {
          "indexed": false,
          "internalType": "uint8",
          "name": "quality",
          "type": "uint8"
        },
        {
          "indexed": false,
          "internalType": "uint256",
          "name": "amount",
          "type": "uint256"
        }
      ],
      "name": "Redeemed",
      "type": "event"
    },
    {
      "inputs": [
        {
          "internalType": "uint8",
          "name": "",
          "type": "uint8"
        },
        {
          "internalType": "uint256",
          "name": "",
          "type": "uint256"
        }
      ],
      "name": "_groups",
      "outputs": [
        {
          "internalType": "uint256",
          "name": "",
          "type": "uint256"
        }
      ],
      "stateMutability": "view",
      "type": "function"
    },
    {
      "inputs": [
        {
          "internalType": "uint64",
          "name": "",
          "type": "uint64"
        }
      ],
      "name": "_owners",
      "outputs": [
        {
          "internalType": "address",
          "name": "",
          "type": "address"
        }
      ],
      "stateMutability": "view",
      "type": "function"
    },
    {
      "inputs": [
        {
          "internalType": "uint8",
          "name": "",
          "type": "uint8"
        },
        {
          "internalType": "uint256",
          "name": "",
          "type": "uint256"
        }
      ],
      "name": "_rates",
      "outputs": [
        {
          "internalType": "uint256",
          "name": "",
          "type": "uint256"
        }
      ],
      "stateMutability": "view",
      "type": "function"
    },
    {
      "inputs": [
        {
          "internalType": "address",
          "name": "",
          "type": "address"
        }
      ],
      "name": "_receives",
      "outputs": [
        {
          "internalType": "uint256",
          "name": "",
          "type": "uint256"
        }
      ],
      "stateMutability": "view",
      "type": "function"
    },
    {
      "inputs": [
        {
          "internalType": "uint64",
          "name": "",
          "type": "uint64"
        }
      ],
      "name": "_redeemeds",
      "outputs": [
        {
          "internalType": "uint256",
          "name": "",
          "type": "uint256"
        }
      ],
      "stateMutability": "view",
      "type": "function"
    },
    {
      "inputs": [],
      "name": "authority",
      "outputs": [
        {
          "internalType": "contract Authority",
          "name": "",
          "type": "address"
        }
      ],
      "stateMutability": "view",
      "type": "function"
    },
    {
      "inputs": [],
      "name": "owner",
      "outputs": [
        {
          "internalType": "address",
          "name": "",
          "type": "address"
        }
      ],
      "stateMutability": "view",
      "type": "function"
    },
    {
      "inputs": [],
      "name": "renounceOwnership",
      "outputs": [],
      "stateMutability": "nonpayable",
      "type": "function"
    },
    {
      "inputs": [
        {
          "internalType": "address",
          "name": "authority_",
          "type": "address"
        }
      ],
      "name": "setAuthority",
      "outputs": [],
      "stateMutability": "nonpayable",
      "type": "function"
    },
    {
      "inputs": [
        {
          "internalType": "address",
          "name": "newOwner",
          "type": "address"
        }
      ],
      "name": "transferOwnership",
      "outputs": [],
      "stateMutability": "nonpayable",
      "type": "function"
    },
    {
      "inputs": [
        {
          "internalType": "uint64",
          "name": "tokenId_",
          "type": "uint64"
        }
      ],
      "name": "redeemed",
      "outputs": [],
      "stateMutability": "nonpayable",
      "type": "function"
    },
    {
      "inputs": [
        {
          "internalType": "uint8",
          "name": "quality_",
          "type": "uint8"
        }
      ],
      "name": "received",
      "outputs": [],
      "stateMutability": "nonpayable",
      "type": "function"
    },
    {
      "inputs": [
        {
          "internalType": "uint64",
          "name": "tokenId_",
          "type": "uint64"
        }
      ],
      "name": "deposit",
      "outputs": [],
      "stateMutability": "nonpayable",
      "type": "function"
    }
  ],
  "bytecode": "0x608060405234801561001057600080fd5b506040516124633803806124638339818101604052602081101561003357600080fd5b810190808051906020019092919050505080600061005561013b60201b60201c565b9050806000806101000a81548173ffffffffffffffffffffffffffffffffffffffff021916908373ffffffffffffffffffffffffffffffffffffffff1602179055508073ffffffffffffffffffffffffffffffffffffffff16600073ffffffffffffffffffffffffffffffffffffffff167f8be0079c531659141344cd1fd0a4f28419497f9722a3daafe3b4186f6b6457e060405160405180910390a35080600160006101000a81548173ffffffffffffffffffffffffffffffffffffffff021916908373ffffffffffffffffffffffffffffffffffffffff1602179055505050610143565b600033905090565b612311806101526000396000f3fe608060405234801561001057600080fd5b50600436106100cf5760003560e01c80638da5cb5b1161008c578063bf7e214f11610066578063bf7e214f14610332578063ef8c652914610366578063f19a4aa814610397578063f2fde38b146103cf576100cf565b80638da5cb5b14610257578063b8bf99f81461028b578063bc223421146102da576100cf565b806313765838146100d45780632ff2077d1461010c57806365fca3501461015b578063715018a6146101bd57806371a068e7146101c75780637a9e5e4b14610213575b600080fd5b61010a600480360360208110156100ea57600080fd5b81019080803567ffffffffffffffff169060200190929190505050610413565b005b6101456004803603604081101561012257600080fd5b81019080803560ff16906020019092919080359060200190929190505050610747565b6040518082815260200191505060405180910390f35b6101916004803603602081101561017157600080fd5b81019080803567ffffffffffffffff169060200190929190505050610778565b604051808273ffffffffffffffffffffffffffffffffffffffff16815260200191505060405180910390f35b6101c56107ab565b005b6101fd600480360360208110156101dd57600080fd5b81019080803567ffffffffffffffff169060200190929190505050610918565b6040518082815260200191505060405180910390f35b6102556004803603602081101561022957600080fd5b81019080803573ffffffffffffffffffffffffffffffffffffffff169060200190929190505050610930565b005b61025f610a23565b604051808273ffffffffffffffffffffffffffffffffffffffff16815260200191505060405180910390f35b6102c4600480360360408110156102a157600080fd5b81019080803560ff16906020019092919080359060200190929190505050610a4c565b6040518082815260200191505060405180910390f35b61031c600480360360208110156102f057600080fd5b81019080803573ffffffffffffffffffffffffffffffffffffffff169060200190929190505050610a7d565b6040518082815260200191505060405180910390f35b61033a610a95565b604051808273ffffffffffffffffffffffffffffffffffffffff16815260200191505060405180910390f35b6103956004803603602081101561037c57600080fd5b81019080803560ff169060200190929190505050610abb565b005b6103cd600480360360208110156103ad57600080fd5b81019080803567ffffffffffffffff1690602001909291905050506116b2565b005b610411600480360360208110156103e557600080fd5b81019080803573ffffffffffffffffffffffffffffffffffffffff169060200190929190505050611eb9565b005b6000600160009054906101000a900473ffffffffffffffffffffffffffffffffffffffff1673ffffffffffffffffffffffffffffffffffffffff16636957a0b26040518163ffffffff1660e01b81526004018080602001828103825260078152602001807f464947485445520000000000000000000000000000000000000000000000000081525060200191505060206040518083038186803b1580156104b957600080fd5b505afa1580156104cd573d6000803e3d6000fd5b505050506040513d60208110156104e357600080fd5b810190808051906020019092919050505090508073ffffffffffffffffffffffffffffffffffffffff16636352211e836040518263ffffffff1660e01b8152600401808267ffffffffffffffff16815260200191505060206040518083038186803b15801561055157600080fd5b505afa158015610565573d6000803e3d6000fd5b505050506040513d602081101561057b57600080fd5b810190808051906020019092919050505073ffffffffffffffffffffffffffffffffffffffff163373ffffffffffffffffffffffffffffffffffffffff161461062c576040517f08c379a00000000000000000000000000000000000000000000000000000000081526004018080602001828103825260158152602001807f45584348414e47453a204f6e6c79206f6e7765722e000000000000000000000081525060200191505060405180910390fd5b8073ffffffffffffffffffffffffffffffffffffffff166323b872dd3330856040518463ffffffff1660e01b8152600401808473ffffffffffffffffffffffffffffffffffffffff1681526020018373ffffffffffffffffffffffffffffffffffffffff1681526020018267ffffffffffffffff1681526020019350505050600060405180830381600087803b1580156106c557600080fd5b505af11580156106d9573d6000803e3d6000fd5b5050505033600560008467ffffffffffffffff1667ffffffffffffffff16815260200190815260200160002060006101000a81548173ffffffffffffffffffffffffffffffffffffffff021916908373ffffffffffffffffffffffffffffffffffffffff1602179055505050565b6002602052816000526040600020818154811061076357600080fd5b90600052602060002001600091509150505481565b60056020528060005260406000206000915054906101000a900473ffffffffffffffffffffffffffffffffffffffff1681565b6107b36120ab565b73ffffffffffffffffffffffffffffffffffffffff166107d1610a23565b73ffffffffffffffffffffffffffffffffffffffff161461085a576040517f08c379a00000000000000000000000000000000000000000000000000000000081526004018080602001828103825260208152602001807f4f776e61626c653a2063616c6c6572206973206e6f7420746865206f776e657281525060200191505060405180910390fd5b600073ffffffffffffffffffffffffffffffffffffffff1660008054906101000a900473ffffffffffffffffffffffffffffffffffffffff1673ffffffffffffffffffffffffffffffffffffffff167f8be0079c531659141344cd1fd0a4f28419497f9722a3daafe3b4186f6b6457e060405160405180910390a360008060006101000a81548173ffffffffffffffffffffffffffffffffffffffff021916908373ffffffffffffffffffffffffffffffffffffffff160217905550565b60046020528060005260406000206000915090505481565b6109386120ab565b73ffffffffffffffffffffffffffffffffffffffff16610956610a23565b73ffffffffffffffffffffffffffffffffffffffff16146109df576040517f08c379a00000000000000000000000000000000000000000000000000000000081526004018080602001828103825260208152602001807f4f776e61626c653a2063616c6c6572206973206e6f7420746865206f776e657281525060200191505060405180910390fd5b80600160006101000a81548173ffffffffffffffffffffffffffffffffffffffff021916908373ffffffffffffffffffffffffffffffffffffffff16021790555050565b60008060009054906101000a900473ffffffffffffffffffffffffffffffffffffffff16905090565b60036020528160005260406000208181548110610a6857600080fd5b90600052602060002001600091509150505481565b60066020528060005260406000206000915090505481565b600160009054906101000a900473ffffffffffffffffffffffffffffffffffffffff1681565b6000600160009054906101000a900473ffffffffffffffffffffffffffffffffffffffff1673ffffffffffffffffffffffffffffffffffffffff16636957a0b26040518163ffffffff1660e01b81526004018080602001828103825260078152602001807f464947485445520000000000000000000000000000000000000000000000000081525060200191505060206040518083038186803b158015610b6157600080fd5b505afa158015610b75573d6000803e3d6000fd5b505050506040513d6020811015610b8b57600080fd5b8101908080519060200190929190505050905060008173ffffffffffffffffffffffffffffffffffffffff166370a08231336040518263ffffffff1660e01b8152600401808273ffffffffffffffffffffffffffffffffffffffff16815260200191505060206040518083038186803b158015610c0757600080fd5b505afa158015610c1b573d6000803e3d6000fd5b505050506040513d6020811015610c3157600080fd5b810190808051906020019092919050505090506000808267ffffffffffffffff81118015610c5e57600080fd5b50604051908082528060200260200182016040528015610c8d5781602001602082028036833780820191505090505b50905060008367ffffffffffffffff81118015610ca957600080fd5b50604051908082528060200260200182016040528015610cd85781602001602082028036833780820191505090505b50905060005b84811015610ed25760006032905060008773ffffffffffffffffffffffffffffffffffffffff16632f745c5933856040518363ffffffff1660e01b8152600401808373ffffffffffffffffffffffffffffffffffffffff1681526020018281526020019250505060206040518083038186803b158015610d5d57600080fd5b505afa158015610d71573d6000803e3d6000fd5b505050506040513d6020811015610d8757600080fd5b8101908080519060200190929190505050905073__Helper________________________________636d08be6e826040518263ffffffff1660e01b8152600401808267ffffffffffffffff16815260200191505060606040518083038186803b158015610df357600080fd5b505af4158015610e07573d6000803e3d6000fd5b505050506040513d6060811015610e1d57600080fd5b810190808051906020019092919080519060200190929190805190602001909291905050508160ff16915050858581518110610e5557fe5b602002602001018167ffffffffffffffff1667ffffffffffffffff1681525081935050508860ff168260ff1614610e8d575050610ec5565b60018601955080858481518110610ea057fe5b602002602001019067ffffffffffffffff16908167ffffffffffffffff168152505050505b8080600101915050610cde565b50600360008760ff1660ff168152602001908152602001600020600081548110610ef857fe5b9060005260206000200154831015610f5b576040517f08c379a00000000000000000000000000000000000000000000000000000000081526004018080602001828103825260268152602001806122926026913960400191505060405180910390fd5b6000600360008860ff1660ff168152602001908152602001600020600081548110610f8257fe5b90600052602060002001548481610f9557fe5b049050600660003373ffffffffffffffffffffffffffffffffffffffff1673ffffffffffffffffffffffffffffffffffffffff16815260200190815260200160002054811061104c576040517f08c379a000000000000000000000000000000000000000000000000000000000815260040180806020018281038252601a8152602001807f45584348414e47453a205265776172642072656365697665642e00000000000081525060200191505060405180910390fd5b6000600160009054906101000a900473ffffffffffffffffffffffffffffffffffffffff1673ffffffffffffffffffffffffffffffffffffffff16636957a0b26040518163ffffffff1660e01b81526004018080602001828103825260058152602001807f544f4b454e00000000000000000000000000000000000000000000000000000081525060200191505060206040518083038186803b1580156110f257600080fd5b505afa158015611106573d6000803e3d6000fd5b505050506040513d602081101561111c57600080fd5b810190808051906020019092919050505090506000600160009054906101000a900473ffffffffffffffffffffffffffffffffffffffff1673ffffffffffffffffffffffffffffffffffffffff16636957a0b26040518163ffffffff1660e01b81526004018080602001828103825260058152602001807f464f554e4400000000000000000000000000000000000000000000000000000081525060200191505060206040518083038186803b1580156111d557600080fd5b505afa1580156111e9573d6000803e3d6000fd5b505050506040513d60208110156111ff57600080fd5b8101908080519060200190929190505050905060008273ffffffffffffffffffffffffffffffffffffffff166370a08231836040518263ffffffff1660e01b8152600401808273ffffffffffffffffffffffffffffffffffffffff16815260200191505060206040518083038186803b15801561127b57600080fd5b505afa15801561128f573d6000803e3d6000fd5b505050506040513d60208110156112a557600080fd5b8101908080519060200190929190505050905060006112fc600360008d60ff1660ff1681526020019081526020016000206001815481106112e257fe5b9060005260206000200154836120b390919063ffffffff16565b90508373ffffffffffffffffffffffffffffffffffffffff166323b872dd843361133060648661213990919063ffffffff16565b6040518463ffffffff1660e01b8152600401808473ffffffffffffffffffffffffffffffffffffffff1681526020018373ffffffffffffffffffffffffffffffffffffffff1681526020018281526020019350505050602060405180830381600087803b1580156113a057600080fd5b505af11580156113b4573d6000803e3d6000fd5b505050506040513d60208110156113ca57600080fd5b8101908080519060200190929190505050506001600660003373ffffffffffffffffffffffffffffffffffffffff1673ffffffffffffffffffffffffffffffffffffffff1681526020019081526020016000205401600660003373ffffffffffffffffffffffffffffffffffffffff1673ffffffffffffffffffffffffffffffffffffffff168152602001908152602001600020819055506000600160009054906101000a900473ffffffffffffffffffffffffffffffffffffffff1673ffffffffffffffffffffffffffffffffffffffff16636957a0b26040518163ffffffff1660e01b81526004018080602001828103825260088152602001807f4341524453484f5000000000000000000000000000000000000000000000000081525060200191505060206040518083038186803b15801561150857600080fd5b505afa15801561151c573d6000803e3d6000fd5b505050506040513d602081101561153257600080fd5b8101908080519060200190929190505050905060005b8a8110156116a357600089828151811061155e57fe5b602002602001015167ffffffffffffffff161161157a57611696565b8b73ffffffffffffffffffffffffffffffffffffffff16638d7570fc8a83815181106115a257fe5b60200260200101516040518263ffffffff1660e01b8152600401808267ffffffffffffffff168152602001915050600060405180830381600087803b1580156115ea57600080fd5b505af11580156115fe573d6000803e3d6000fd5b505050508173ffffffffffffffffffffffffffffffffffffffff166303847f1a8e8a848151811061162b57fe5b60200260200101516040518363ffffffff1660e01b8152600401808360ff1681526020018267ffffffffffffffff16815260200192505050600060405180830381600087803b15801561167d57600080fd5b505af1158015611691573d6000803e3d6000fd5b505050505b8080600101915050611548565b50505050505050505050505050565b6000600460008367ffffffffffffffff1667ffffffffffffffff168152602001908152602001600020541115611733576040517f08c379a00000000000000000000000000000000000000000000000000000000081526004018080602001828103825260248152602001806122b86024913960400191505060405180910390fd5b6000600160009054906101000a900473ffffffffffffffffffffffffffffffffffffffff1673ffffffffffffffffffffffffffffffffffffffff16636957a0b26040518163ffffffff1660e01b81526004018080602001828103825260078152602001807f464947485445520000000000000000000000000000000000000000000000000081525060200191505060206040518083038186803b1580156117d957600080fd5b505afa1580156117ed573d6000803e3d6000fd5b505050506040513d602081101561180357600080fd5b810190808051906020019092919050505090508073ffffffffffffffffffffffffffffffffffffffff16636352211e836040518263ffffffff1660e01b8152600401808267ffffffffffffffff16815260200191505060206040518083038186803b15801561187157600080fd5b505afa158015611885573d6000803e3d6000fd5b505050506040513d602081101561189b57600080fd5b810190808051906020019092919050505073ffffffffffffffffffffffffffffffffffffffff163373ffffffffffffffffffffffffffffffffffffffff161461194c576040517f08c379a00000000000000000000000000000000000000000000000000000000081526004018080602001828103825260158152602001807f45584348414e47453a204f6e6c79206f6e7765722e000000000000000000000081525060200191505060405180910390fd5b600080600073__Helper________________________________636d08be6e866040518263ffffffff1660e01b8152600401808267ffffffffffffffff16815260200191505060606040518083038186803b1580156119aa57600080fd5b505af41580156119be573d6000803e3d6000fd5b505050506040513d60608110156119d457600080fd5b81019080805190602001909291908051906020019092919080519060200190929190505050809350819450829550505050600073__Helper________________________________63b863bd37600260008760ff1660ff168152602001908152602001600020600181548110611a4657fe5b90600052602060002001546040518263ffffffff1660e01b81526004018082815260200191505060206040518083038186803b158015611a8557600080fd5b505af4158015611a99573d6000803e3d6000fd5b505050506040513d6020811015611aaf57600080fd5b81019080805190602001909291905050509050611b04600260008660ff1660ff168152602001908152602001600020600081548110611aea57fe5b9060005260206000200154826121c290919063ffffffff16565b905060008190506000600160009054906101000a900473ffffffffffffffffffffffffffffffffffffffff1673ffffffffffffffffffffffffffffffffffffffff16636957a0b26040518163ffffffff1660e01b81526004018080602001828103825260058152602001807f544f4b454e00000000000000000000000000000000000000000000000000000081525060200191505060206040518083038186803b158015611bb157600080fd5b505afa158015611bc5573d6000803e3d6000fd5b505050506040513d6020811015611bdb57600080fd5b810190808051906020019092919050505090508073ffffffffffffffffffffffffffffffffffffffff1663a9059cbb30846040518363ffffffff1660e01b8152600401808373ffffffffffffffffffffffffffffffffffffffff16815260200182815260200192505050602060405180830381600087803b158015611c5f57600080fd5b505af1158015611c73573d6000803e3d6000fd5b505050506040513d6020811015611c8957600080fd5b8101908080519060200190929190505050508673ffffffffffffffffffffffffffffffffffffffff16638d7570fc896040518263ffffffff1660e01b8152600401808267ffffffffffffffff168152602001915050600060405180830381600087803b158015611cf857600080fd5b505af1158015611d0c573d6000803e3d6000fd5b505050506000600160009054906101000a900473ffffffffffffffffffffffffffffffffffffffff1673ffffffffffffffffffffffffffffffffffffffff16636957a0b26040518163ffffffff1660e01b81526004018080602001828103825260088152602001807f4341524453484f5000000000000000000000000000000000000000000000000081525060200191505060206040518083038186803b158015611db657600080fd5b505afa158015611dca573d6000803e3d6000fd5b505050506040513d6020811015611de057600080fd5b810190808051906020019092919050505090508073ffffffffffffffffffffffffffffffffffffffff166303847f1a88886040518363ffffffff1660e01b8152600401808360ff1681526020018260ff16815260200192505050600060405180830381600087803b158015611e5457600080fd5b505af1158015611e68573d6000803e3d6000fd5b505050507f0c83c2c312c55557ce805de9551f82b90e102e8da821f601d9b25e5a3ad53af98784604051808360ff1681526020018281526020019250505060405180910390a1505050505050505050565b611ec16120ab565b73ffffffffffffffffffffffffffffffffffffffff16611edf610a23565b73ffffffffffffffffffffffffffffffffffffffff1614611f68576040517f08c379a00000000000000000000000000000000000000000000000000000000081526004018080602001828103825260208152602001807f4f776e61626c653a2063616c6c6572206973206e6f7420746865206f776e657281525060200191505060405180910390fd5b600073ffffffffffffffffffffffffffffffffffffffff168173ffffffffffffffffffffffffffffffffffffffff161415611fee576040517f08c379a000000000000000000000000000000000000000000000000000000000815260040180806020018281038252602681526020018061224b6026913960400191505060405180910390fd5b8073ffffffffffffffffffffffffffffffffffffffff1660008054906101000a900473ffffffffffffffffffffffffffffffffffffffff1673ffffffffffffffffffffffffffffffffffffffff167f8be0079c531659141344cd1fd0a4f28419497f9722a3daafe3b4186f6b6457e060405160405180910390a3806000806101000a81548173ffffffffffffffffffffffffffffffffffffffff021916908373ffffffffffffffffffffffffffffffffffffffff16021790555050565b600033905090565b6000808314156120c65760009050612133565b60008284029050828482816120d757fe5b041461212e576040517f08c379a00000000000000000000000000000000000000000000000000000000081526004018080602001828103825260218152602001806122716021913960400191505060405180910390fd5b809150505b92915050565b60008082116121b0576040517f08c379a000000000000000000000000000000000000000000000000000000000815260040180806020018281038252601a8152602001807f536166654d6174683a206469766973696f6e206279207a65726f00000000000081525060200191505060405180910390fd5b8183816121b957fe5b04905092915050565b600080828401905083811015612240576040517f08c379a000000000000000000000000000000000000000000000000000000000815260040180806020018281038252601b8152602001807f536166654d6174683a206164646974696f6e206f766572666c6f77000000000081525060200191505060405180910390fd5b809150509291505056fe4f776e61626c653a206e6577206f776e657220697320746865207a65726f2061646472657373536166654d6174683a206d756c7469706c69636174696f6e206f766572666c6f7745584348414e47453a20496e73756666696369656e74206e756d626572206f66204e4654732e45584348414e47453a20546865204e465420686173206265656e2072656465656d65642ea264697066735822122012c78a1b8311cf74af9670098c8c27b9190c81ce4cd99d62edf3394dccf7a30864736f6c63430007060033",
  "immutableReferences": {},
  "source": "// SPDX-License-Identifier: SimPL-2.0\n\npragma solidity ^0.7.0;\n\nimport \"../utlis/Helper.sol\";\nimport \"../token/Fighter.sol\";\nimport \"../core/CardShop.sol\";\nimport \"../authority/Member.sol\";\n\nimport \"@openzeppelin/contracts/math/SafeMath.sol\";\nimport \"@openzeppelin/contracts/token/ERC20/IERC20.sol\";\nimport \"@openzeppelin/contracts/token/ERC721/IERC721.sol\";\n\n/**\n * @title Fighter Z Token Card Shop\n *\n * It's mainly used for pledge to get M3T Token\n * QUANTITIES: 2 MILLION | DECIMALS: 18\n *\n * @author Bit Lighthouse. Ace\n * AT: 2021-3-28 | VERSION: v1.0.2\n */\n\ncontract Exchange is Member {\n    using SafeMath for uint256;\n\n    mapping (uint8 => uint256[]) public _rates;\n    mapping (uint8 => uint256[]) public _groups;\n    mapping (uint64 => uint256) public _redeemeds;\n    mapping (uint64 => address) public _owners;\n    mapping (address => uint256) public _receives;\n\n    event Redeemed(uint8 quality, uint256 amount);\n\n    constructor(address auth_) Member(auth_) {\n\n    }\n\n    function redeemed(uint64 tokenId_) public {\n        require(\n            _redeemeds[tokenId_] <= 0,\n            \"EXCHANGE: The NFT has been redeemed.\"\n        );\n\n        Fighter figh = Fighter(authority.members(\"FIGHTER\"));\n\n        require(\n            msg.sender == figh.ownerOf(tokenId_),\n            \"EXCHANGE: Only onwer.\"\n        );\n\n        uint8 quality; uint8 heroId; uint32 timestamp;\n        (quality, heroId, timestamp) = Helper.analysis(tokenId_);\n\n        uint256 random = Helper.random(_rates[quality][1]);\n        random = random.add(_rates[quality][0]);\n\n        uint256 amount = random;\n        address token = authority.members(\"TOKEN\");\n        IERC20(token).transfer(address(this), amount);\n\n        figh.doBurn(tokenId_);\n        CardShop cd = CardShop(authority.members(\"CARDSHOP\"));\n        cd.freshExchange(quality, heroId);\n\n        emit Redeemed(quality, amount);\n    }\n\n    function received(uint8 quality_) public {\n        Fighter figh = Fighter(authority.members(\"FIGHTER\"));\n        uint256 length = figh.balanceOf(msg.sender);\n\n        uint256 total = 0;\n        uint64[] memory tokens = new uint64[](length);\n        uint64[] memory heroIds = new uint64[](length);\n\n        for (uint256 i = 0; i < length; i++) {\n            uint8 quality = 50;\n            uint256 tokenId = figh.tokenOfOwnerByIndex(\n                msg.sender, i\n            );\n\n            (quality, heroIds[i],) = Helper.analysis(\n                uint64(tokenId)\n            );\n            if (quality != quality_) continue;\n            total = total + 1;\n            tokens[i] = uint64(tokenId);\n        }\n\n        require(\n            total >= _groups[quality_][0],\n            \"EXCHANGE: Insufficient number of NFTs.\"\n        );\n\n        uint256 times = total / _groups[quality_][0];\n        require(\n            times < _receives[msg.sender],\n            \"EXCHANGE: Reward received.\"\n        );\n\n        IERC20 token = IERC20(authority.members(\"TOKEN\"));\n        address account = authority.members(\"FOUND\");\n        uint256 balance = token.balanceOf(account);\n\n        uint256 reward = balance.mul(_groups[quality_][1]);\n        token.transferFrom(account, msg.sender, reward.div(100));\n\n        _receives[msg.sender] = _receives[msg.sender] + 1;\n        \n        CardShop cd = CardShop(authority.members(\"CARDSHOP\"));\n\n        for (uint i = 0; i < length; i++) {\n            if (tokens[i] <= 0) continue;\n\n            figh.doBurn(tokens[i]);\n            cd.freshExchange(quality_, heroIds[i]);\n        }\n    }\n\n    function deposit(uint64 tokenId_) public {\n        IERC721 figh = IERC721(authority.members(\"FIGHTER\"));\n        require(\n            msg.sender == figh.ownerOf(tokenId_),\n            \"EXCHANGE: Only onwer.\"\n        );\n\n        figh.transferFrom(msg.sender, address(this), tokenId_);\n        _owners[tokenId_] = msg.sender;\n    }\n}",
  "sourcePath": "/home/ace/Projects/eth/other/dragon-ball/contracts/core/Exchange.sol",
  "compiler": {
    "name": "solc",
    "version": "0.7.6+commit.7338295f.Emscripten.clang"
  },
  "schemaVersion": "3.3.4",
  "updatedAt": "2021-08-13T03:59:38.121Z",
  "devdoc": {
    "author": "Bit Lighthouse. Ace AT: 2021-3-28 | VERSION: v1.0.2",
    "kind": "dev",
    "methods": {
      "owner()": {
        "details": "Returns the address of the current owner."
      },
      "renounceOwnership()": {
        "details": "Leaves the contract without owner. It will not be possible to call `onlyOwner` functions anymore. Can only be called by the current owner. NOTE: Renouncing ownership will leave the contract without an owner, thereby removing any functionality that is only available to the owner."
      },
      "setAuthority(address)": {
        "params": {
          "authority_": "address of manager This function is onwer only"
        }
      },
      "transferOwnership(address)": {
        "details": "Transfers ownership of the contract to a new account (`newOwner`). Can only be called by the current owner."
      }
    },
    "title": "Fighter Z Token Card Shop It's mainly used for pledge to get M3T Token QUANTITIES: 2 MILLION | DECIMALS: 18",
    "version": 1
  },
  "userdoc": {
    "kind": "user",
    "methods": {
      "setAuthority(address)": {
        "notice": "Set new manager"
      }
    },
    "version": 1
  }
}