{
  "contractName": "Fighter",
  "abi": [
    {
      "inputs": [
        {
          "internalType": "address",
          "name": "auth_",
          "type": "address"
        }
      ],
      "stateMutability": "nonpayable",
      "type": "constructor"
    },
    {
      "anonymous": false,
      "inputs": [
        {
          "indexed": true,
          "internalType": "address",
          "name": "owner",
          "type": "address"
        },
        {
          "indexed": true,
          "internalType": "address",
          "name": "approved",
          "type": "address"
        },
        {
          "indexed": true,
          "internalType": "uint256",
          "name": "tokenId",
          "type": "uint256"
        }
      ],
      "name": "Approval",
      "type": "event"
    },
    {
      "anonymous": false,
      "inputs": [
        {
          "indexed": true,
          "internalType": "address",
          "name": "owner",
          "type": "address"
        },
        {
          "indexed": true,
          "internalType": "address",
          "name": "operator",
          "type": "address"
        },
        {
          "indexed": false,
          "internalType": "bool",
          "name": "approved",
          "type": "bool"
        }
      ],
      "name": "ApprovalForAll",
      "type": "event"
    },
    {
      "anonymous": false,
      "inputs": [
        {
          "indexed": false,
          "internalType": "address",
          "name": "account",
          "type": "address"
        },
        {
          "indexed": false,
          "internalType": "uint256",
          "name": "reward",
          "type": "uint256"
        }
      ],
      "name": "Claim",
      "type": "event"
    },
    {
      "anonymous": false,
      "inputs": [
        {
          "indexed": true,
          "internalType": "address",
          "name": "previousOwner",
          "type": "address"
        },
        {
          "indexed": true,
          "internalType": "address",
          "name": "newOwner",
          "type": "address"
        }
      ],
      "name": "OwnershipTransferred",
      "type": "event"
    },
    {
      "anonymous": false,
      "inputs": [
        {
          "indexed": true,
          "internalType": "address",
          "name": "from",
          "type": "address"
        },
        {
          "indexed": true,
          "internalType": "address",
          "name": "to",
          "type": "address"
        },
        {
          "indexed": true,
          "internalType": "uint256",
          "name": "tokenId",
          "type": "uint256"
        }
      ],
      "name": "Transfer",
      "type": "event"
    },
    {
      "inputs": [],
      "name": "SPECIAL_PERIOD",
      "outputs": [
        {
          "internalType": "uint256",
          "name": "",
          "type": "uint256"
        }
      ],
      "stateMutability": "view",
      "type": "function"
    },
    {
      "inputs": [
        {
          "internalType": "address",
          "name": "",
          "type": "address"
        }
      ],
      "name": "_periods",
      "outputs": [
        {
          "internalType": "uint256",
          "name": "",
          "type": "uint256"
        }
      ],
      "stateMutability": "view",
      "type": "function"
    },
    {
      "inputs": [
        {
          "internalType": "address",
          "name": "",
          "type": "address"
        }
      ],
      "name": "_powers",
      "outputs": [
        {
          "internalType": "uint256",
          "name": "",
          "type": "uint256"
        }
      ],
      "stateMutability": "view",
      "type": "function"
    },
    {
      "inputs": [
        {
          "internalType": "uint256",
          "name": "",
          "type": "uint256"
        }
      ],
      "name": "_special",
      "outputs": [
        {
          "internalType": "uint64",
          "name": "",
          "type": "uint64"
        }
      ],
      "stateMutability": "view",
      "type": "function"
    },
    {
      "inputs": [],
      "name": "_total_powers",
      "outputs": [
        {
          "internalType": "uint256",
          "name": "",
          "type": "uint256"
        }
      ],
      "stateMutability": "view",
      "type": "function"
    },
    {
      "inputs": [],
      "name": "_total_reward",
      "outputs": [
        {
          "internalType": "uint256",
          "name": "",
          "type": "uint256"
        }
      ],
      "stateMutability": "view",
      "type": "function"
    },
    {
      "inputs": [
        {
          "internalType": "address",
          "name": "to",
          "type": "address"
        },
        {
          "internalType": "uint256",
          "name": "tokenId",
          "type": "uint256"
        }
      ],
      "name": "approve",
      "outputs": [],
      "stateMutability": "nonpayable",
      "type": "function"
    },
    {
      "inputs": [],
      "name": "authority",
      "outputs": [
        {
          "internalType": "contract Authority",
          "name": "",
          "type": "address"
        }
      ],
      "stateMutability": "view",
      "type": "function"
    },
    {
      "inputs": [
        {
          "internalType": "address",
          "name": "owner",
          "type": "address"
        }
      ],
      "name": "balanceOf",
      "outputs": [
        {
          "internalType": "uint256",
          "name": "",
          "type": "uint256"
        }
      ],
      "stateMutability": "view",
      "type": "function"
    },
    {
      "inputs": [],
      "name": "baseURI",
      "outputs": [
        {
          "internalType": "string",
          "name": "",
          "type": "string"
        }
      ],
      "stateMutability": "view",
      "type": "function"
    },
    {
      "inputs": [
        {
          "internalType": "uint256",
          "name": "tokenId",
          "type": "uint256"
        }
      ],
      "name": "getApproved",
      "outputs": [
        {
          "internalType": "address",
          "name": "",
          "type": "address"
        }
      ],
      "stateMutability": "view",
      "type": "function"
    },
    {
      "inputs": [
        {
          "internalType": "address",
          "name": "owner",
          "type": "address"
        },
        {
          "internalType": "address",
          "name": "operator",
          "type": "address"
        }
      ],
      "name": "isApprovedForAll",
      "outputs": [
        {
          "internalType": "bool",
          "name": "",
          "type": "bool"
        }
      ],
      "stateMutability": "view",
      "type": "function"
    },
    {
      "inputs": [],
      "name": "name",
      "outputs": [
        {
          "internalType": "string",
          "name": "",
          "type": "string"
        }
      ],
      "stateMutability": "view",
      "type": "function"
    },
    {
      "inputs": [],
      "name": "owner",
      "outputs": [
        {
          "internalType": "address",
          "name": "",
          "type": "address"
        }
      ],
      "stateMutability": "view",
      "type": "function"
    },
    {
      "inputs": [
        {
          "internalType": "uint256",
          "name": "tokenId",
          "type": "uint256"
        }
      ],
      "name": "ownerOf",
      "outputs": [
        {
          "internalType": "address",
          "name": "",
          "type": "address"
        }
      ],
      "stateMutability": "view",
      "type": "function"
    },
    {
      "inputs": [],
      "name": "renounceOwnership",
      "outputs": [],
      "stateMutability": "nonpayable",
      "type": "function"
    },
    {
      "inputs": [
        {
          "internalType": "address",
          "name": "from",
          "type": "address"
        },
        {
          "internalType": "address",
          "name": "to",
          "type": "address"
        },
        {
          "internalType": "uint256",
          "name": "tokenId",
          "type": "uint256"
        }
      ],
      "name": "safeTransferFrom",
      "outputs": [],
      "stateMutability": "nonpayable",
      "type": "function"
    },
    {
      "inputs": [
        {
          "internalType": "address",
          "name": "from",
          "type": "address"
        },
        {
          "internalType": "address",
          "name": "to",
          "type": "address"
        },
        {
          "internalType": "uint256",
          "name": "tokenId",
          "type": "uint256"
        },
        {
          "internalType": "bytes",
          "name": "_data",
          "type": "bytes"
        }
      ],
      "name": "safeTransferFrom",
      "outputs": [],
      "stateMutability": "nonpayable",
      "type": "function"
    },
    {
      "inputs": [
        {
          "internalType": "address",
          "name": "operator",
          "type": "address"
        },
        {
          "internalType": "bool",
          "name": "approved",
          "type": "bool"
        }
      ],
      "name": "setApprovalForAll",
      "outputs": [],
      "stateMutability": "nonpayable",
      "type": "function"
    },
    {
      "inputs": [
        {
          "internalType": "address",
          "name": "authority_",
          "type": "address"
        }
      ],
      "name": "setAuthority",
      "outputs": [],
      "stateMutability": "nonpayable",
      "type": "function"
    },
    {
      "inputs": [
        {
          "internalType": "bytes4",
          "name": "interfaceId",
          "type": "bytes4"
        }
      ],
      "name": "supportsInterface",
      "outputs": [
        {
          "internalType": "bool",
          "name": "",
          "type": "bool"
        }
      ],
      "stateMutability": "view",
      "type": "function"
    },
    {
      "inputs": [],
      "name": "symbol",
      "outputs": [
        {
          "internalType": "string",
          "name": "",
          "type": "string"
        }
      ],
      "stateMutability": "view",
      "type": "function"
    },
    {
      "inputs": [
        {
          "internalType": "uint256",
          "name": "index",
          "type": "uint256"
        }
      ],
      "name": "tokenByIndex",
      "outputs": [
        {
          "internalType": "uint256",
          "name": "",
          "type": "uint256"
        }
      ],
      "stateMutability": "view",
      "type": "function"
    },
    {
      "inputs": [
        {
          "internalType": "address",
          "name": "owner",
          "type": "address"
        },
        {
          "internalType": "uint256",
          "name": "index",
          "type": "uint256"
        }
      ],
      "name": "tokenOfOwnerByIndex",
      "outputs": [
        {
          "internalType": "uint256",
          "name": "",
          "type": "uint256"
        }
      ],
      "stateMutability": "view",
      "type": "function"
    },
    {
      "inputs": [
        {
          "internalType": "uint256",
          "name": "tokenId",
          "type": "uint256"
        }
      ],
      "name": "tokenURI",
      "outputs": [
        {
          "internalType": "string",
          "name": "",
          "type": "string"
        }
      ],
      "stateMutability": "view",
      "type": "function"
    },
    {
      "inputs": [],
      "name": "totalSupply",
      "outputs": [
        {
          "internalType": "uint256",
          "name": "",
          "type": "uint256"
        }
      ],
      "stateMutability": "view",
      "type": "function"
    },
    {
      "inputs": [
        {
          "internalType": "address",
          "name": "from",
          "type": "address"
        },
        {
          "internalType": "address",
          "name": "to",
          "type": "address"
        },
        {
          "internalType": "uint256",
          "name": "tokenId",
          "type": "uint256"
        }
      ],
      "name": "transferFrom",
      "outputs": [],
      "stateMutability": "nonpayable",
      "type": "function"
    },
    {
      "inputs": [
        {
          "internalType": "address",
          "name": "newOwner",
          "type": "address"
        }
      ],
      "name": "transferOwnership",
      "outputs": [],
      "stateMutability": "nonpayable",
      "type": "function"
    },
    {
      "inputs": [
        {
          "internalType": "address",
          "name": "to_",
          "type": "address"
        },
        {
          "internalType": "uint64",
          "name": "tokenId_",
          "type": "uint64"
        }
      ],
      "name": "doMint",
      "outputs": [],
      "stateMutability": "nonpayable",
      "type": "function"
    },
    {
      "inputs": [
        {
          "internalType": "uint256",
          "name": "tokenId_",
          "type": "uint256"
        }
      ],
      "name": "doBurn",
      "outputs": [],
      "stateMutability": "nonpayable",
      "type": "function"
    },
    {
      "inputs": [
        {
          "internalType": "address",
          "name": "account_",
          "type": "address"
        }
      ],
      "name": "getReward",
      "outputs": [
        {
          "internalType": "uint256",
          "name": "reward",
          "type": "uint256"
        }
      ],
      "stateMutability": "view",
      "type": "function"
    },
    {
      "inputs": [],
      "name": "claim",
      "outputs": [],
      "stateMutability": "nonpayable",
      "type": "function"
    }
  ],
  "bytecode": "0x60806040523480156200001157600080fd5b506040516200498538038062004985833981810160405260208110156200003757600080fd5b81019080805190602001909291905050506040518060400160405280600981526020017f46696768746572205a00000000000000000000000000000000000000000000008152506040518060400160405280600581526020017f44424e4654000000000000000000000000000000000000000000000000000000815250826000620000c76200025460201b60201c565b9050806000806101000a81548173ffffffffffffffffffffffffffffffffffffffff021916908373ffffffffffffffffffffffffffffffffffffffff1602179055508073ffffffffffffffffffffffffffffffffffffffff16600073ffffffffffffffffffffffffffffffffffffffff167f8be0079c531659141344cd1fd0a4f28419497f9722a3daafe3b4186f6b6457e060405160405180910390a35080600160006101000a81548173ffffffffffffffffffffffffffffffffffffffff021916908373ffffffffffffffffffffffffffffffffffffffff16021790555050620001bf6301ffc9a760e01b6200025c60201b60201c565b8160089080519060200190620001d792919062000366565b508060099080519060200190620001f092919062000366565b50620002096380ac58cd60e01b6200025c60201b60201c565b62000221635b5e139f60e01b6200025c60201b60201c565b6200023963780e9d6360e01b6200025c60201b60201c565b50506a084595161401484a000000600e81905550506200041c565b600033905090565b63ffffffff60e01b817bffffffffffffffffffffffffffffffffffffffffffffffffffffffff19161415620002f9576040517f08c379a000000000000000000000000000000000000000000000000000000000815260040180806020018281038252601c8152602001807f4552433136353a20696e76616c696420696e746572666163652069640000000081525060200191505060405180910390fd5b600160026000837bffffffffffffffffffffffffffffffffffffffffffffffffffffffff19167bffffffffffffffffffffffffffffffffffffffffffffffffffffffff1916815260200190815260200160002060006101000a81548160ff02191690831515021790555050565b828054600181600116156101000203166002900490600052602060002090601f0160209004810192826200039e5760008555620003ea565b82601f10620003b957805160ff1916838001178555620003ea565b82800160010185558215620003ea579182015b82811115620003e9578251825591602001919060010190620003cc565b5b509050620003f99190620003fd565b5090565b5b8082111562000418576000816000905550600101620003fe565b5090565b614559806200042c6000396000f3fe608060405234801561001057600080fd5b50600436106101f05760003560e01c80636c0360eb1161010f5780639a5caf59116100a2578063c00007b011610071578063c00007b014610ac6578063c87b56dd14610b1e578063e985e9c514610bc5578063f2fde38b14610c3f576101f0565b80639a5caf59146108e5578063a22cb4651461093d578063b88d4fde1461098d578063bf7e214f14610a92576101f0565b80637a9e5e4b116100de5780637a9e5e4b146107bc5780638d7570fc146108005780638da5cb5b1461082e57806395d89b4114610862576101f0565b80636c0360eb146106b957806370a082311461073c578063715018a6146107945780637863bf801461079e576101f0565b80632f745c591161018757806357b7abbe1161015657806357b7abbe14610593578063603ec476146105b15780636352211e1461060957806368b6046214610661576101f0565b80632f745c591461047757806342842e0e146104d95780634e71d92d146105475780634f6ccce714610551576101f0565b806318160ddd116101c357806318160ddd146103815780631c7baa2b1461039f5780632080b757146103bd57806323b872dd14610409576101f0565b806301ffc9a7146101f557806306fdde0314610258578063081812fc146102db578063095ea7b314610333575b600080fd5b6102406004803603602081101561020b57600080fd5b8101908080357bffffffffffffffffffffffffffffffffffffffffffffffffffffffff19169060200190929190505050610c83565b60405180821515815260200191505060405180910390f35b610260610ceb565b6040518080602001828103825283818151815260200191508051906020019080838360005b838110156102a0578082015181840152602081019050610285565b50505050905090810190601f1680156102cd5780820380516001836020036101000a031916815260200191505b509250505060405180910390f35b610307600480360360208110156102f157600080fd5b8101908080359060200190929190505050610d8d565b604051808273ffffffffffffffffffffffffffffffffffffffff16815260200191505060405180910390f35b61037f6004803603604081101561034957600080fd5b81019080803573ffffffffffffffffffffffffffffffffffffffff16906020019092919080359060200190929190505050610e28565b005b610389610f6c565b6040518082815260200191505060405180910390f35b6103a7610f7d565b6040518082815260200191505060405180910390f35b6103e9600480360360208110156103d357600080fd5b8101908080359060200190929190505050610f83565b604051808267ffffffffffffffff16815260200191505060405180910390f35b6104756004803603606081101561041f57600080fd5b81019080803573ffffffffffffffffffffffffffffffffffffffff169060200190929190803573ffffffffffffffffffffffffffffffffffffffff16906020019092919080359060200190929190505050610fc1565b005b6104c36004803603604081101561048d57600080fd5b81019080803573ffffffffffffffffffffffffffffffffffffffff16906020019092919080359060200190929190505050611037565b6040518082815260200191505060405180910390f35b610545600480360360608110156104ef57600080fd5b81019080803573ffffffffffffffffffffffffffffffffffffffff169060200190929190803573ffffffffffffffffffffffffffffffffffffffff16906020019092919080359060200190929190505050611092565b005b61054f6110b2565b005b61057d6004803603602081101561056757600080fd5b8101908080359060200190929190505050611458565b6040518082815260200191505060405180910390f35b61059b61147b565b6040518082815260200191505060405180910390f35b6105f3600480360360208110156105c757600080fd5b81019080803573ffffffffffffffffffffffffffffffffffffffff169060200190929190505050611481565b6040518082815260200191505060405180910390f35b6106356004803603602081101561061f57600080fd5b8101908080359060200190929190505050611499565b604051808273ffffffffffffffffffffffffffffffffffffffff16815260200191505060405180910390f35b6106a36004803603602081101561067757600080fd5b81019080803573ffffffffffffffffffffffffffffffffffffffff1690602001909291905050506114d0565b6040518082815260200191505060405180910390f35b6106c16114e8565b6040518080602001828103825283818151815260200191508051906020019080838360005b838110156107015780820151818401526020810190506106e6565b50505050905090810190601f16801561072e5780820380516001836020036101000a031916815260200191505b509250505060405180910390f35b61077e6004803603602081101561075257600080fd5b81019080803573ffffffffffffffffffffffffffffffffffffffff16906020019092919050505061158a565b6040518082815260200191505060405180910390f35b61079c61165f565b005b6107a66117cc565b6040518082815260200191505060405180910390f35b6107fe600480360360208110156107d257600080fd5b81019080803573ffffffffffffffffffffffffffffffffffffffff1690602001909291905050506117d3565b005b61082c6004803603602081101561081657600080fd5b81019080803590602001909291905050506118c6565b005b610836611c02565b604051808273ffffffffffffffffffffffffffffffffffffffff16815260200191505060405180910390f35b61086a611c2b565b6040518080602001828103825283818151815260200191508051906020019080838360005b838110156108aa57808201518184015260208101905061088f565b50505050905090810190601f1680156108d75780820380516001836020036101000a031916815260200191505b509250505060405180910390f35b61093b600480360360408110156108fb57600080fd5b81019080803573ffffffffffffffffffffffffffffffffffffffff169060200190929190803567ffffffffffffffff169060200190929190505050611ccd565b005b61098b6004803603604081101561095357600080fd5b81019080803573ffffffffffffffffffffffffffffffffffffffff169060200190929190803515159060200190929190505050612190565b005b610a90600480360360808110156109a357600080fd5b81019080803573ffffffffffffffffffffffffffffffffffffffff169060200190929190803573ffffffffffffffffffffffffffffffffffffffff1690602001909291908035906020019092919080359060200190640100000000811115610a0a57600080fd5b820183602082011115610a1c57600080fd5b80359060200191846001830284011164010000000083111715610a3e57600080fd5b91908080601f016020809104026020016040519081016040528093929190818152602001838380828437600081840152601f19601f820116905080830192505050505050509192919290505050612346565b005b610a9a6123be565b604051808273ffffffffffffffffffffffffffffffffffffffff16815260200191505060405180910390f35b610b0860048036036020811015610adc57600080fd5b81019080803573ffffffffffffffffffffffffffffffffffffffff1690602001909291905050506123e4565b6040518082815260200191505060405180910390f35b610b4a60048036036020811015610b3457600080fd5b8101908080359060200190929190505050612500565b6040518080602001828103825283818151815260200191508051906020019080838360005b83811015610b8a578082015181840152602081019050610b6f565b50505050905090810190601f168015610bb75780820380516001836020036101000a031916815260200191505b509250505060405180910390f35b610c2760048036036040811015610bdb57600080fd5b81019080803573ffffffffffffffffffffffffffffffffffffffff169060200190929190803573ffffffffffffffffffffffffffffffffffffffff1690602001909291905050506127d1565b60405180821515815260200191505060405180910390f35b610c8160048036036020811015610c5557600080fd5b81019080803573ffffffffffffffffffffffffffffffffffffffff169060200190929190505050612865565b005b600060026000837bffffffffffffffffffffffffffffffffffffffffffffffffffffffff19167bffffffffffffffffffffffffffffffffffffffffffffffffffffffff1916815260200190815260200160002060009054906101000a900460ff169050919050565b606060088054600181600116156101000203166002900480601f016020809104026020016040519081016040528092919081815260200182805460018160011615610100020316600290048015610d835780601f10610d5857610100808354040283529160200191610d83565b820191906000526020600020905b815481529060010190602001808311610d6657829003601f168201915b5050505050905090565b6000610d9882612a57565b610ded576040517f08c379a000000000000000000000000000000000000000000000000000000000815260040180806020018281038252602c81526020018061442a602c913960400191505060405180910390fd5b6006600083815260200190815260200160002060009054906101000a900473ffffffffffffffffffffffffffffffffffffffff169050919050565b6000610e3382611499565b90508073ffffffffffffffffffffffffffffffffffffffff168373ffffffffffffffffffffffffffffffffffffffff161415610eba576040517f08c379a00000000000000000000000000000000000000000000000000000000081526004018080602001828103825260218152602001806144ae6021913960400191505060405180910390fd5b8073ffffffffffffffffffffffffffffffffffffffff16610ed9612a74565b73ffffffffffffffffffffffffffffffffffffffff161480610f085750610f0781610f02612a74565b6127d1565b5b610f5d576040517f08c379a000000000000000000000000000000000000000000000000000000000815260040180806020018281038252603881526020018061435c6038913960400191505060405180910390fd5b610f678383612a7c565b505050565b6000610f786004612b35565b905090565b600e5481565b600c8181548110610f9357600080fd5b9060005260206000209060049182820401919006600802915054906101000a900467ffffffffffffffff1681565b610fd2610fcc612a74565b82612b4a565b611027576040517f08c379a00000000000000000000000000000000000000000000000000000000081526004018080602001828103825260318152602001806144cf6031913960400191505060405180910390fd5b611032838383612c3e565b505050565b600061108a82600360008673ffffffffffffffffffffffffffffffffffffffff1673ffffffffffffffffffffffffffffffffffffffff168152602001908152602001600020612e8190919063ffffffff16565b905092915050565b6110ad83838360405180602001604052806000815250612346565b505050565b60006110bd336123e4565b905060008111611135576040517f08c379a000000000000000000000000000000000000000000000000000000000815260040180806020018281038252601c8152602001807f464947485445523a2054686520726577617264206973207a65726f2e0000000081525060200191505060405180910390fd5b42601060003373ffffffffffffffffffffffffffffffffffffffff1673ffffffffffffffffffffffffffffffffffffffff16815260200190815260200160002081905550600160009054906101000a900473ffffffffffffffffffffffffffffffffffffffff1673ffffffffffffffffffffffffffffffffffffffff16636957a0b26040518163ffffffff1660e01b81526004018080602001828103825260058152602001807f544f4b454e00000000000000000000000000000000000000000000000000000081525060200191505060206040518083038186803b15801561121d57600080fd5b505afa158015611231573d6000803e3d6000fd5b505050506040513d602081101561124757600080fd5b810190808051906020019092919050505073ffffffffffffffffffffffffffffffffffffffff166323b872dd600160009054906101000a900473ffffffffffffffffffffffffffffffffffffffff1673ffffffffffffffffffffffffffffffffffffffff16636957a0b26040518163ffffffff1660e01b81526004018080602001828103825260068152602001807f524557415244000000000000000000000000000000000000000000000000000081525060200191505060206040518083038186803b15801561131757600080fd5b505afa15801561132b573d6000803e3d6000fd5b505050506040513d602081101561134157600080fd5b810190808051906020019092919050505033846040518463ffffffff1660e01b8152600401808473ffffffffffffffffffffffffffffffffffffffff1681526020018373ffffffffffffffffffffffffffffffffffffffff1681526020018281526020019350505050602060405180830381600087803b1580156113c457600080fd5b505af11580156113d8573d6000803e3d6000fd5b505050506040513d60208110156113ee57600080fd5b8101908080519060200190929190505050507f47cee97cb7acd717b3c0aa1435d004cd5b3c8c57d70dbceb4e4458bbd60e39d43382604051808373ffffffffffffffffffffffffffffffffffffffff1681526020018281526020019250505060405180910390a150565b60008061146f836004612e9b90919063ffffffff16565b50905080915050919050565b600d5481565b600f6020528060005260406000206000915090505481565b60006114c9826040518060600160405280602981526020016143be602991396004612ec79092919063ffffffff16565b9050919050565b60106020528060005260406000206000915090505481565b6060600b8054600181600116156101000203166002900480601f0160208091040260200160405190810160405280929190818152602001828054600181600116156101000203166002900480156115805780601f1061155557610100808354040283529160200191611580565b820191906000526020600020905b81548152906001019060200180831161156357829003601f168201915b5050505050905090565b60008073ffffffffffffffffffffffffffffffffffffffff168273ffffffffffffffffffffffffffffffffffffffff161415611611576040517f08c379a000000000000000000000000000000000000000000000000000000000815260040180806020018281038252602a815260200180614394602a913960400191505060405180910390fd5b611658600360008473ffffffffffffffffffffffffffffffffffffffff1673ffffffffffffffffffffffffffffffffffffffff168152602001908152602001600020612ee6565b9050919050565b611667612a74565b73ffffffffffffffffffffffffffffffffffffffff16611685611c02565b73ffffffffffffffffffffffffffffffffffffffff161461170e576040517f08c379a00000000000000000000000000000000000000000000000000000000081526004018080602001828103825260208152602001807f4f776e61626c653a2063616c6c6572206973206e6f7420746865206f776e657281525060200191505060405180910390fd5b600073ffffffffffffffffffffffffffffffffffffffff1660008054906101000a900473ffffffffffffffffffffffffffffffffffffffff1673ffffffffffffffffffffffffffffffffffffffff167f8be0079c531659141344cd1fd0a4f28419497f9722a3daafe3b4186f6b6457e060405160405180910390a360008060006101000a81548173ffffffffffffffffffffffffffffffffffffffff021916908373ffffffffffffffffffffffffffffffffffffffff160217905550565b62093a8081565b6117db612a74565b73ffffffffffffffffffffffffffffffffffffffff166117f9611c02565b73ffffffffffffffffffffffffffffffffffffffff1614611882576040517f08c379a00000000000000000000000000000000000000000000000000000000081526004018080602001828103825260208152602001807f4f776e61626c653a2063616c6c6572206973206e6f7420746865206f776e657281525060200191505060405180910390fd5b80600160006101000a81548173ffffffffffffffffffffffffffffffffffffffff021916908373ffffffffffffffffffffffffffffffffffffffff16021790555050565b6040518060400160405280600881526020017f45584348414e4745000000000000000000000000000000000000000000000000815250600160009054906101000a900473ffffffffffffffffffffffffffffffffffffffff1673ffffffffffffffffffffffffffffffffffffffff1663f5e65c7233836040518363ffffffff1660e01b8152600401808373ffffffffffffffffffffffffffffffffffffffff16815260200180602001828103825283818151815260200191508051906020019080838360005b838110156119a757808201518184015260208101905061198c565b50505050905090810190601f1680156119d45780820380516001836020036101000a031916815260200191505b50935050505060206040518083038186803b1580156119f257600080fd5b505afa158015611a06573d6000803e3d6000fd5b505050506040513d6020811015611a1c57600080fd5b8101908080519060200190929190505050611a82576040517f08c379a00000000000000000000000000000000000000000000000000000000081526004018080602001828103825260248152602001806145006024913960400191505060405180910390fd5b6000611a8d83611499565b9050600073__Helper________________________________636d08be6e856040518263ffffffff1660e01b8152600401808267ffffffffffffffff16815260200191505060606040518083038186803b158015611aea57600080fd5b505af4158015611afe573d6000803e3d6000fd5b505050506040513d6060811015611b1457600080fd5b8101908080519060200190929190805190602001909291908051906020019092919050505050509050611b4684612efb565b611b9b8160ff16600f60008573ffffffffffffffffffffffffffffffffffffffff1673ffffffffffffffffffffffffffffffffffffffff1681526020019081526020016000205461303590919063ffffffff16565b600f60008473ffffffffffffffffffffffffffffffffffffffff1673ffffffffffffffffffffffffffffffffffffffff16815260200190815260200160002081905550611bf68160ff16600d5461303590919063ffffffff16565b600d8190555050505050565b60008060009054906101000a900473ffffffffffffffffffffffffffffffffffffffff16905090565b606060098054600181600116156101000203166002900480601f016020809104026020016040519081016040528092919081815260200182805460018160011615610100020316600290048015611cc35780601f10611c9857610100808354040283529160200191611cc3565b820191906000526020600020905b815481529060010190602001808311611ca657829003601f168201915b5050505050905090565b6040518060400160405280600881526020017f4341524453484f50000000000000000000000000000000000000000000000000815250600160009054906101000a900473ffffffffffffffffffffffffffffffffffffffff1673ffffffffffffffffffffffffffffffffffffffff1663f5e65c7233836040518363ffffffff1660e01b8152600401808373ffffffffffffffffffffffffffffffffffffffff16815260200180602001828103825283818151815260200191508051906020019080838360005b83811015611dae578082015181840152602081019050611d93565b50505050905090810190601f168015611ddb5780820380516001836020036101000a031916815260200191505b50935050505060206040518083038186803b158015611df957600080fd5b505afa158015611e0d573d6000803e3d6000fd5b505050506040513d6020811015611e2357600080fd5b8101908080519060200190929190505050611e89576040517f08c379a00000000000000000000000000000000000000000000000000000000081526004018080602001828103825260248152602001806145006024913960400191505060405180910390fd5b600073__Helper________________________________636d08be6e846040518263ffffffff1660e01b8152600401808267ffffffffffffffff16815260200191505060606040518083038186803b158015611ee457600080fd5b505af4158015611ef8573d6000803e3d6000fd5b505050506040513d6060811015611f0e57600080fd5b810190808051906020019092919080519060200190929190805190602001909291905050505050905060008160ff161415611f9a57600c8390806001815401808255809150506001900390600052602060002090600491828204019190066008029091909190916101000a81548167ffffffffffffffff021916908367ffffffffffffffff1602179055505b611fae848467ffffffffffffffff166130b8565b6120038160ff16600f60008773ffffffffffffffffffffffffffffffffffffffff1673ffffffffffffffffffffffffffffffffffffffff168152602001908152602001600020546130d690919063ffffffff16565b600f60008673ffffffffffffffffffffffffffffffffffffffff1673ffffffffffffffffffffffffffffffffffffffff1681526020019081526020016000208190555061205e8160ff16600d546130d690919063ffffffff16565b600d819055506000601060008673ffffffffffffffffffffffffffffffffffffffff1673ffffffffffffffffffffffffffffffffffffffff16815260200190815260200160002054116120f05742601060008673ffffffffffffffffffffffffffffffffffffffff1673ffffffffffffffffffffffffffffffffffffffff168152602001908152602001600020819055505b60005b600c80549050811015612189576000600c828154811061210f57fe5b90600052602060002090600491828204019190066008029054906101000a900467ffffffffffffffff1690506000600c8267ffffffffffffffff16901c63ffffffff169050600062093a8082019050428110612179576121788367ffffffffffffffff16612efb565b5b50505080806001019150506120f3565b5050505050565b612198612a74565b73ffffffffffffffffffffffffffffffffffffffff168273ffffffffffffffffffffffffffffffffffffffff161415612239576040517f08c379a00000000000000000000000000000000000000000000000000000000081526004018080602001828103825260198152602001807f4552433732313a20617070726f766520746f2063616c6c65720000000000000081525060200191505060405180910390fd5b8060076000612246612a74565b73ffffffffffffffffffffffffffffffffffffffff1673ffffffffffffffffffffffffffffffffffffffff16815260200190815260200160002060008473ffffffffffffffffffffffffffffffffffffffff1673ffffffffffffffffffffffffffffffffffffffff16815260200190815260200160002060006101000a81548160ff0219169083151502179055508173ffffffffffffffffffffffffffffffffffffffff166122f3612a74565b73ffffffffffffffffffffffffffffffffffffffff167f17307eab39ab6107e8899845ad3d59bd9653f200f220920489ca2b5937696c318360405180821515815260200191505060405180910390a35050565b612357612351612a74565b83612b4a565b6123ac576040517f08c379a00000000000000000000000000000000000000000000000000000000081526004018080602001828103825260318152602001806144cf6031913960400191505060405180910390fd5b6123b88484848461315e565b50505050565b600160009054906101000a900473ffffffffffffffffffffffffffffffffffffffff1681565b6000806123ef6131d0565b905060006124496305f5e100600f60008773ffffffffffffffffffffffffffffffffffffffff1673ffffffffffffffffffffffffffffffffffffffff1681526020019081526020016000205461322a90919063ffffffff16565b90506124766305f5e100612468600d54846132b090919063ffffffff16565b6132b090919063ffffffff16565b9050600042601060008773ffffffffffffffffffffffffffffffffffffffff1673ffffffffffffffffffffffffffffffffffffffff168152602001908152602001600020540390506124f660646124e8846124da858861322a90919063ffffffff16565b61322a90919063ffffffff16565b6132b090919063ffffffff16565b9350505050919050565b606061250b82612a57565b612560576040517f08c379a000000000000000000000000000000000000000000000000000000000815260040180806020018281038252602f81526020018061447f602f913960400191505060405180910390fd5b6000600a60008481526020019081526020016000208054600181600116156101000203166002900480601f0160208091040260200160405190810160405280929190818152602001828054600181600116156101000203166002900480156126095780601f106125de57610100808354040283529160200191612609565b820191906000526020600020905b8154815290600101906020018083116125ec57829003601f168201915b50505050509050600061261a6114e8565b90506000815114156126305781925050506127cc565b6000825111156127015780826040516020018083805190602001908083835b60208310612672578051825260208201915060208101905060208303925061264f565b6001836020036101000a03801982511681845116808217855250505050505090500182805190602001908083835b602083106126c357805182526020820191506020810190506020830392506126a0565b6001836020036101000a03801982511681845116808217855250505050505090500192505050604051602081830303815290604052925050506127cc565b8061270b85613339565b6040516020018083805190602001908083835b60208310612741578051825260208201915060208101905060208303925061271e565b6001836020036101000a03801982511681845116808217855250505050505090500182805190602001908083835b60208310612792578051825260208201915060208101905060208303925061276f565b6001836020036101000a03801982511681845116808217855250505050505090500192505050604051602081830303815290604052925050505b919050565b6000600760008473ffffffffffffffffffffffffffffffffffffffff1673ffffffffffffffffffffffffffffffffffffffff16815260200190815260200160002060008373ffffffffffffffffffffffffffffffffffffffff1673ffffffffffffffffffffffffffffffffffffffff16815260200190815260200160002060009054906101000a900460ff16905092915050565b61286d612a74565b73ffffffffffffffffffffffffffffffffffffffff1661288b611c02565b73ffffffffffffffffffffffffffffffffffffffff1614612914576040517f08c379a00000000000000000000000000000000000000000000000000000000081526004018080602001828103825260208152602001807f4f776e61626c653a2063616c6c6572206973206e6f7420746865206f776e657281525060200191505060405180910390fd5b600073ffffffffffffffffffffffffffffffffffffffff168173ffffffffffffffffffffffffffffffffffffffff16141561299a576040517f08c379a00000000000000000000000000000000000000000000000000000000081526004018080602001828103825260268152602001806142c06026913960400191505060405180910390fd5b8073ffffffffffffffffffffffffffffffffffffffff1660008054906101000a900473ffffffffffffffffffffffffffffffffffffffff1673ffffffffffffffffffffffffffffffffffffffff167f8be0079c531659141344cd1fd0a4f28419497f9722a3daafe3b4186f6b6457e060405160405180910390a3806000806101000a81548173ffffffffffffffffffffffffffffffffffffffff021916908373ffffffffffffffffffffffffffffffffffffffff16021790555050565b6000612a6d82600461348090919063ffffffff16565b9050919050565b600033905090565b816006600083815260200190815260200160002060006101000a81548173ffffffffffffffffffffffffffffffffffffffff021916908373ffffffffffffffffffffffffffffffffffffffff160217905550808273ffffffffffffffffffffffffffffffffffffffff16612aef83611499565b73ffffffffffffffffffffffffffffffffffffffff167f8c5be1e5ebec7d5bd14f71427d1e84f3dd0314c0f7b2291e5b200ac8c7c3b92560405160405180910390a45050565b6000612b438260000161349a565b9050919050565b6000612b5582612a57565b612baa576040517f08c379a000000000000000000000000000000000000000000000000000000000815260040180806020018281038252602c815260200180614330602c913960400191505060405180910390fd5b6000612bb583611499565b90508073ffffffffffffffffffffffffffffffffffffffff168473ffffffffffffffffffffffffffffffffffffffff161480612c2457508373ffffffffffffffffffffffffffffffffffffffff16612c0c84610d8d565b73ffffffffffffffffffffffffffffffffffffffff16145b80612c355750612c3481856127d1565b5b91505092915050565b8273ffffffffffffffffffffffffffffffffffffffff16612c5e82611499565b73ffffffffffffffffffffffffffffffffffffffff1614612cca576040517f08c379a00000000000000000000000000000000000000000000000000000000081526004018080602001828103825260298152602001806144566029913960400191505060405180910390fd5b600073ffffffffffffffffffffffffffffffffffffffff168273ffffffffffffffffffffffffffffffffffffffff161415612d50576040517f08c379a00000000000000000000000000000000000000000000000000000000081526004018080602001828103825260248152602001806142e66024913960400191505060405180910390fd5b612d5b8383836134ab565b612d66600082612a7c565b612db781600360008673ffffffffffffffffffffffffffffffffffffffff1673ffffffffffffffffffffffffffffffffffffffff1681526020019081526020016000206134b090919063ffffffff16565b50612e0981600360008573ffffffffffffffffffffffffffffffffffffffff1673ffffffffffffffffffffffffffffffffffffffff1681526020019081526020016000206134ca90919063ffffffff16565b50612e20818360046134e49092919063ffffffff16565b50808273ffffffffffffffffffffffffffffffffffffffff168473ffffffffffffffffffffffffffffffffffffffff167fddf252ad1be2c89b69c2b068fc378daa952ba7f163c4a11628f55a4df523b3ef60405160405180910390a4505050565b6000612e908360000183613519565b60001c905092915050565b600080600080612eae866000018661359c565b915091508160001c8160001c9350935050509250929050565b6000612eda846000018460001b84613635565b60001c90509392505050565b6000612ef48260000161372b565b9050919050565b6000612f0682611499565b9050612f14816000846134ab565b612f1f600083612a7c565b6000600a600084815260200190815260200160002080546001816001161561010002031660029004905014612f6e57600a60008381526020019081526020016000206000612f6d9190614206565b5b612fbf82600360008473ffffffffffffffffffffffffffffffffffffffff1673ffffffffffffffffffffffffffffffffffffffff1681526020019081526020016000206134b090919063ffffffff16565b50612fd482600461373c90919063ffffffff16565b5081600073ffffffffffffffffffffffffffffffffffffffff168273ffffffffffffffffffffffffffffffffffffffff167fddf252ad1be2c89b69c2b068fc378daa952ba7f163c4a11628f55a4df523b3ef60405160405180910390a45050565b6000828211156130ad576040517f08c379a000000000000000000000000000000000000000000000000000000000815260040180806020018281038252601e8152602001807f536166654d6174683a207375627472616374696f6e206f766572666c6f77000081525060200191505060405180910390fd5b818303905092915050565b6130d2828260405180602001604052806000815250613756565b5050565b600080828401905083811015613154576040517f08c379a000000000000000000000000000000000000000000000000000000000815260040180806020018281038252601b8152602001807f536166654d6174683a206164646974696f6e206f766572666c6f77000000000081525060200191505060405180910390fd5b8091505092915050565b613169848484612c3e565b613175848484846137c7565b6131ca576040517f08c379a000000000000000000000000000000000000000000000000000000000815260040180806020018281038252603281526020018061428e6032913960400191505060405180910390fd5b50505050565b60006131e961016d600e546132b090919063ffffffff16565b9050613225603c613217603c6132096018866132b090919063ffffffff16565b6132b090919063ffffffff16565b6132b090919063ffffffff16565b905090565b60008083141561323d57600090506132aa565b600082840290508284828161324e57fe5b04146132a5576040517f08c379a00000000000000000000000000000000000000000000000000000000081526004018080602001828103825260218152602001806144096021913960400191505060405180910390fd5b809150505b92915050565b6000808211613327576040517f08c379a000000000000000000000000000000000000000000000000000000000815260040180806020018281038252601a8152602001807f536166654d6174683a206469766973696f6e206279207a65726f00000000000081525060200191505060405180910390fd5b81838161333057fe5b04905092915050565b60606000821415613381576040518060400160405280600181526020017f3000000000000000000000000000000000000000000000000000000000000000815250905061347b565b600082905060005b600082146133ab578080600101915050600a82816133a357fe5b049150613389565b60008167ffffffffffffffff811180156133c457600080fd5b506040519080825280601f01601f1916602001820160405280156133f75781602001600182028036833780820191505090505b50905060006001830390508593505b6000841461347357600a848161341857fe5b0660300160f81b8282806001900393508151811061343257fe5b60200101907effffffffffffffffffffffffffffffffffffffffffffffffffffffffffffff1916908160001a905350600a848161346b57fe5b049350613406565b819450505050505b919050565b6000613492836000018360001b6139e0565b905092915050565b600081600001805490509050919050565b505050565b60006134c2836000018360001b613a03565b905092915050565b60006134dc836000018360001b613aeb565b905092915050565b6000613510846000018460001b8473ffffffffffffffffffffffffffffffffffffffff1660001b613b5b565b90509392505050565b60008183600001805490501161357a576040517f08c379a000000000000000000000000000000000000000000000000000000000815260040180806020018281038252602281526020018061426c6022913960400191505060405180910390fd5b82600001828154811061358957fe5b9060005260206000200154905092915050565b600080828460000180549050116135fe576040517f08c379a00000000000000000000000000000000000000000000000000000000081526004018080602001828103825260228152602001806143e76022913960400191505060405180910390fd5b600084600001848154811061360f57fe5b906000526020600020906002020190508060000154816001015492509250509250929050565b600080846001016000858152602001908152602001600020549050600081141583906136fc576040517f08c379a00000000000000000000000000000000000000000000000000000000081526004018080602001828103825283818151815260200191508051906020019080838360005b838110156136c15780820151818401526020810190506136a6565b50505050905090810190601f1680156136ee5780820380516001836020036101000a031916815260200191505b509250505060405180910390fd5b5084600001600182038154811061370f57fe5b9060005260206000209060020201600101549150509392505050565b600081600001805490509050919050565b600061374e836000018360001b613c37565b905092915050565b6137608383613d50565b61376d60008484846137c7565b6137c2576040517f08c379a000000000000000000000000000000000000000000000000000000000815260040180806020018281038252603281526020018061428e6032913960400191505060405180910390fd5b505050565b60006137e88473ffffffffffffffffffffffffffffffffffffffff16613f44565b6137f557600190506139d8565b600061395f63150b7a0260e01b61380a612a74565b888787604051602401808573ffffffffffffffffffffffffffffffffffffffff1681526020018473ffffffffffffffffffffffffffffffffffffffff16815260200183815260200180602001828103825283818151815260200191508051906020019080838360005b8381101561388e578082015181840152602081019050613873565b50505050905090810190601f1680156138bb5780820380516001836020036101000a031916815260200191505b5095505050505050604051602081830303815290604052907bffffffffffffffffffffffffffffffffffffffffffffffffffffffff19166020820180517bffffffffffffffffffffffffffffffffffffffffffffffffffffffff838183161783525050505060405180606001604052806032815260200161428e603291398773ffffffffffffffffffffffffffffffffffffffff16613f579092919063ffffffff16565b9050600081806020019051602081101561397857600080fd5b8101908080519060200190929190505050905063150b7a0260e01b7bffffffffffffffffffffffffffffffffffffffffffffffffffffffff1916817bffffffffffffffffffffffffffffffffffffffffffffffffffffffff191614925050505b949350505050565b600080836001016000848152602001908152602001600020541415905092915050565b60008083600101600084815260200190815260200160002054905060008114613adf5760006001820390506000600186600001805490500390506000866000018281548110613a4e57fe5b9060005260206000200154905080876000018481548110613a6b57fe5b9060005260206000200181905550600183018760010160008381526020019081526020016000208190555086600001805480613aa357fe5b60019003818190600052602060002001600090559055866001016000878152602001908152602001600020600090556001945050505050613ae5565b60009150505b92915050565b6000613af78383613f6f565b613b50578260000182908060018154018082558091505060019003906000526020600020016000909190919091505582600001805490508360010160008481526020019081526020016000208190555060019050613b55565b600090505b92915050565b6000808460010160008581526020019081526020016000205490506000811415613c0257846000016040518060400160405280868152602001858152509080600181540180825580915050600190039060005260206000209060020201600090919091909150600082015181600001556020820151816001015550508460000180549050856001016000868152602001908152602001600020819055506001915050613c30565b82856000016001830381548110613c1557fe5b90600052602060002090600202016001018190555060009150505b9392505050565b60008083600101600084815260200190815260200160002054905060008114613d445760006001820390506000600186600001805490500390506000866000018281548110613c8257fe5b9060005260206000209060020201905080876000018481548110613ca257fe5b9060005260206000209060020201600082015481600001556001820154816001015590505060018301876001016000836000015481526020019081526020016000208190555086600001805480613cf557fe5b6001900381819060005260206000209060020201600080820160009055600182016000905550509055866001016000878152602001908152602001600020600090556001945050505050613d4a565b60009150505b92915050565b600073ffffffffffffffffffffffffffffffffffffffff168273ffffffffffffffffffffffffffffffffffffffff161415613df3576040517f08c379a00000000000000000000000000000000000000000000000000000000081526004018080602001828103825260208152602001807f4552433732313a206d696e7420746f20746865207a65726f206164647265737381525060200191505060405180910390fd5b613dfc81612a57565b15613e6f576040517f08c379a000000000000000000000000000000000000000000000000000000000815260040180806020018281038252601c8152602001807f4552433732313a20746f6b656e20616c7265616479206d696e7465640000000081525060200191505060405180910390fd5b613e7b600083836134ab565b613ecc81600360008573ffffffffffffffffffffffffffffffffffffffff1673ffffffffffffffffffffffffffffffffffffffff1681526020019081526020016000206134ca90919063ffffffff16565b50613ee3818360046134e49092919063ffffffff16565b50808273ffffffffffffffffffffffffffffffffffffffff16600073ffffffffffffffffffffffffffffffffffffffff167fddf252ad1be2c89b69c2b068fc378daa952ba7f163c4a11628f55a4df523b3ef60405160405180910390a45050565b600080823b905060008111915050919050565b6060613f668484600085613f92565b90509392505050565b600080836001016000848152602001908152602001600020541415905092915050565b606082471015613fed576040517f08c379a000000000000000000000000000000000000000000000000000000000815260040180806020018281038252602681526020018061430a6026913960400191505060405180910390fd5b613ff685613f44565b614068576040517f08c379a000000000000000000000000000000000000000000000000000000000815260040180806020018281038252601d8152602001807f416464726573733a2063616c6c20746f206e6f6e2d636f6e747261637400000081525060200191505060405180910390fd5b6000808673ffffffffffffffffffffffffffffffffffffffff1685876040518082805190602001908083835b602083106140b75780518252602082019150602081019050602083039250614094565b6001836020036101000a03801982511681845116808217855250505050505090500191505060006040518083038185875af1925050503d8060008114614119576040519150601f19603f3d011682016040523d82523d6000602084013e61411e565b606091505b509150915061412e82828661413a565b92505050949350505050565b6060831561414a578290506141ff565b60008351111561415d5782518084602001fd5b816040517f08c379a00000000000000000000000000000000000000000000000000000000081526004018080602001828103825283818151815260200191508051906020019080838360005b838110156141c45780820151818401526020810190506141a9565b50505050905090810190601f1680156141f15780820380516001836020036101000a031916815260200191505b509250505060405180910390fd5b9392505050565b50805460018160011615610100020316600290046000825580601f1061422c575061424b565b601f01602090049060005260206000209081019061424a919061424e565b5b50565b5b8082111561426757600081600090555060010161424f565b509056fe456e756d657261626c655365743a20696e646578206f7574206f6620626f756e64734552433732313a207472616e7366657220746f206e6f6e20455243373231526563656976657220696d706c656d656e7465724f776e61626c653a206e6577206f776e657220697320746865207a65726f20616464726573734552433732313a207472616e7366657220746f20746865207a65726f2061646472657373416464726573733a20696e73756666696369656e742062616c616e636520666f722063616c6c4552433732313a206f70657261746f7220717565727920666f72206e6f6e6578697374656e7420746f6b656e4552433732313a20617070726f76652063616c6c6572206973206e6f74206f776e6572206e6f7220617070726f76656420666f7220616c6c4552433732313a2062616c616e636520717565727920666f7220746865207a65726f20616464726573734552433732313a206f776e657220717565727920666f72206e6f6e6578697374656e7420746f6b656e456e756d657261626c654d61703a20696e646578206f7574206f6620626f756e6473536166654d6174683a206d756c7469706c69636174696f6e206f766572666c6f774552433732313a20617070726f76656420717565727920666f72206e6f6e6578697374656e7420746f6b656e4552433732313a207472616e73666572206f6620746f6b656e2074686174206973206e6f74206f776e4552433732314d657461646174613a2055524920717565727920666f72206e6f6e6578697374656e7420746f6b656e4552433732313a20617070726f76616c20746f2063757272656e74206f776e65724552433732313a207472616e736665722063616c6c6572206973206e6f74206f776e6572206e6f7220617070726f7665644d656d6265723a20546865206f7065726174696f6e206973206e6f7420616c6c6f776564a2646970667358221220bad876da8efa77adfe5bb6cbd73816282ec3e4b945e46d55cca4032525a7eacf64736f6c63430007060033",
  "immutableReferences": {},
  "source": "// SPDX-License-Identifier: SimPL-2.0\n\npragma solidity ^0.7.0;\n\nimport \"../utlis/Helper.sol\";\nimport \"../authority/Member.sol\";\n\nimport \"@openzeppelin/contracts/math/SafeMath.sol\";\nimport \"@openzeppelin/contracts/token/ERC20/IERC20.sol\";\nimport \"@openzeppelin/contracts/token/ERC721/ERC721.sol\";\n\n/**\n * @title Fighter Z Token - ERC721\n *\n * It's mainly used for pledge to get M3T Token\n * QUANTITIES: 2 MILLION | DECIMALS: 18\n *\n * @author Bit Lighthouse. Ace\n * AT: 2021-3-28 | VERSION: v1.0.2\n */\n\ncontract Fighter is Member, ERC721 {\n    using SafeMath for uint256;\n\n    uint64[] public _special;\n    uint256 public _total_powers;\n    uint256 public _total_reward;\n\n    mapping (address => uint256) public _powers;\n    mapping (address => uint256) public _periods;\n\n    uint256 constant public SPECIAL_PERIOD = 7 days;\n\n    event Claim(address account, uint256 reward);\n    \n    constructor(address auth_) Member(auth_)\n        ERC721(\"Fighter Z\", \"DBNFT\") {\n\n        _total_reward = 1e25;\n    }\n\n    function _getSecondReward() private view\n        returns (uint256 sr) {\n        \n        sr = _total_reward.div(365);\n        sr = sr.div(24).div(60).div(60);\n    }\n\n    function doMint(address to_, uint64 tokenId_)\n        external CheckPermit(\"CARDSHOP\") {\n\n        (uint8 q, ,) = Helper.analysis(tokenId_);\n        if (q == 0) { _special.push(tokenId_); }\n\n        _safeMint(to_, tokenId_);\n        \n        _powers[to_] = _powers[to_].add(q);\n        _total_powers = _total_powers.add(q);\n\n        if (_periods[to_] <= 0) {\n            _periods[to_] = block.timestamp;\n        }\n\n        for (uint i = 0; i < _special.length; i++) {\n            uint64 item = _special[i];\n            uint256 timestamp = uint32(item >> 12);\n            uint256 period = timestamp + SPECIAL_PERIOD;\n\n            if (period >= block.timestamp) {\n                _burn(item);\n            }\n        }\n    }\n\n    function doBurn(uint256 tokenId_) external\n        CheckPermit(\"EXCHANGE\") {\n\n        address sender = ownerOf(tokenId_);\n        (uint8 q, ,) = Helper.analysis(uint64(tokenId_));\n\n        _burn(tokenId_);\n\n        _powers[sender] = _powers[sender].sub(q);\n        _total_powers = _total_powers.sub(q);\n    }\n\n    function getReward(address account_) public view\n        returns (uint256 reward) {\n\n        uint256 second_reward = _getSecondReward();\n        uint256 power_rate = _powers[account_].mul(1e8);\n        power_rate = power_rate.div(_total_powers).div(1e8);\n\n        uint256 period = _periods[account_] - block.timestamp;\n        reward = second_reward.mul(period).mul(power_rate).div(100);\n    }\n\n    function claim() public {\n        uint256 reward = getReward(msg.sender);\n        require(reward > 0, \"FIGHTER: The reward is zero.\");\n\n        _periods[msg.sender] = block.timestamp;\n        IERC20(authority.members(\"TOKEN\")).transferFrom(\n            authority.members(\"REWARD\"), msg.sender, reward\n        );\n\n        emit Claim(msg.sender, reward);\n    }\n}",
  "sourcePath": "/home/ace/Projects/eth/other/dragon-ball/contracts/token/Fighter.sol",
  "compiler": {
    "name": "solc",
    "version": "0.7.6+commit.7338295f.Emscripten.clang"
  },
  "schemaVersion": "3.3.4",
  "updatedAt": "2021-08-13T03:59:38.129Z",
  "devdoc": {
    "author": "Bit Lighthouse. Ace AT: 2021-3-28 | VERSION: v1.0.2",
    "kind": "dev",
    "methods": {
      "approve(address,uint256)": {
        "details": "See {IERC721-approve}."
      },
      "balanceOf(address)": {
        "details": "See {IERC721-balanceOf}."
      },
      "baseURI()": {
        "details": "Returns the base URI set via {_setBaseURI}. This will be automatically added as a prefix in {tokenURI} to each token's URI, or to the token ID if no specific URI is set for that token ID."
      },
      "getApproved(uint256)": {
        "details": "See {IERC721-getApproved}."
      },
      "isApprovedForAll(address,address)": {
        "details": "See {IERC721-isApprovedForAll}."
      },
      "name()": {
        "details": "See {IERC721Metadata-name}."
      },
      "owner()": {
        "details": "Returns the address of the current owner."
      },
      "ownerOf(uint256)": {
        "details": "See {IERC721-ownerOf}."
      },
      "renounceOwnership()": {
        "details": "Leaves the contract without owner. It will not be possible to call `onlyOwner` functions anymore. Can only be called by the current owner. NOTE: Renouncing ownership will leave the contract without an owner, thereby removing any functionality that is only available to the owner."
      },
      "safeTransferFrom(address,address,uint256)": {
        "details": "See {IERC721-safeTransferFrom}."
      },
      "safeTransferFrom(address,address,uint256,bytes)": {
        "details": "See {IERC721-safeTransferFrom}."
      },
      "setApprovalForAll(address,bool)": {
        "details": "See {IERC721-setApprovalForAll}."
      },
      "setAuthority(address)": {
        "params": {
          "authority_": "address of manager This function is onwer only"
        }
      },
      "supportsInterface(bytes4)": {
        "details": "See {IERC165-supportsInterface}. Time complexity O(1), guaranteed to always use less than 30 000 gas."
      },
      "symbol()": {
        "details": "See {IERC721Metadata-symbol}."
      },
      "tokenByIndex(uint256)": {
        "details": "See {IERC721Enumerable-tokenByIndex}."
      },
      "tokenOfOwnerByIndex(address,uint256)": {
        "details": "See {IERC721Enumerable-tokenOfOwnerByIndex}."
      },
      "tokenURI(uint256)": {
        "details": "See {IERC721Metadata-tokenURI}."
      },
      "totalSupply()": {
        "details": "See {IERC721Enumerable-totalSupply}."
      },
      "transferFrom(address,address,uint256)": {
        "details": "See {IERC721-transferFrom}."
      },
      "transferOwnership(address)": {
        "details": "Transfers ownership of the contract to a new account (`newOwner`). Can only be called by the current owner."
      }
    },
    "title": "Fighter Z Token - ERC721 It's mainly used for pledge to get M3T Token QUANTITIES: 2 MILLION | DECIMALS: 18",
    "version": 1
  },
  "userdoc": {
    "kind": "user",
    "methods": {
      "setAuthority(address)": {
        "notice": "Set new manager"
      }
    },
    "version": 1
  }
}