{
  "contractName": "Fighter",
  "abi": [
    {
      "inputs": [
        {
          "internalType": "address",
          "name": "auth_",
          "type": "address"
        }
      ],
      "stateMutability": "nonpayable",
      "type": "constructor"
    },
    {
      "anonymous": false,
      "inputs": [
        {
          "indexed": true,
          "internalType": "address",
          "name": "owner",
          "type": "address"
        },
        {
          "indexed": true,
          "internalType": "address",
          "name": "approved",
          "type": "address"
        },
        {
          "indexed": true,
          "internalType": "uint256",
          "name": "tokenId",
          "type": "uint256"
        }
      ],
      "name": "Approval",
      "type": "event"
    },
    {
      "anonymous": false,
      "inputs": [
        {
          "indexed": true,
          "internalType": "address",
          "name": "owner",
          "type": "address"
        },
        {
          "indexed": true,
          "internalType": "address",
          "name": "operator",
          "type": "address"
        },
        {
          "indexed": false,
          "internalType": "bool",
          "name": "approved",
          "type": "bool"
        }
      ],
      "name": "ApprovalForAll",
      "type": "event"
    },
    {
      "anonymous": false,
      "inputs": [
        {
          "indexed": false,
          "internalType": "uint256",
          "name": "reward",
          "type": "uint256"
        },
        {
          "indexed": false,
          "internalType": "uint256",
          "name": "power",
          "type": "uint256"
        },
        {
          "indexed": false,
          "internalType": "uint256",
          "name": "total_power",
          "type": "uint256"
        }
      ],
      "name": "Claim",
      "type": "event"
    },
    {
      "anonymous": false,
      "inputs": [
        {
          "indexed": true,
          "internalType": "address",
          "name": "previousOwner",
          "type": "address"
        },
        {
          "indexed": true,
          "internalType": "address",
          "name": "newOwner",
          "type": "address"
        }
      ],
      "name": "OwnershipTransferred",
      "type": "event"
    },
    {
      "anonymous": false,
      "inputs": [
        {
          "indexed": true,
          "internalType": "address",
          "name": "from",
          "type": "address"
        },
        {
          "indexed": true,
          "internalType": "address",
          "name": "to",
          "type": "address"
        },
        {
          "indexed": true,
          "internalType": "uint256",
          "name": "tokenId",
          "type": "uint256"
        }
      ],
      "name": "Transfer",
      "type": "event"
    },
    {
      "inputs": [],
      "name": "_record",
      "outputs": [
        {
          "internalType": "uint256",
          "name": "powers",
          "type": "uint256"
        },
        {
          "internalType": "uint256",
          "name": "reward",
          "type": "uint256"
        }
      ],
      "stateMutability": "view",
      "type": "function",
      "constant": true
    },
    {
      "inputs": [
        {
          "internalType": "address",
          "name": "",
          "type": "address"
        }
      ],
      "name": "_usr",
      "outputs": [
        {
          "internalType": "uint256",
          "name": "powers",
          "type": "uint256"
        },
        {
          "internalType": "uint256",
          "name": "period",
          "type": "uint256"
        },
        {
          "internalType": "uint256",
          "name": "exchange",
          "type": "uint256"
        }
      ],
      "stateMutability": "view",
      "type": "function",
      "constant": true
    },
    {
      "inputs": [
        {
          "internalType": "address",
          "name": "to",
          "type": "address"
        },
        {
          "internalType": "uint256",
          "name": "tokenId",
          "type": "uint256"
        }
      ],
      "name": "approve",
      "outputs": [],
      "stateMutability": "nonpayable",
      "type": "function"
    },
    {
      "inputs": [],
      "name": "authority",
      "outputs": [
        {
          "internalType": "contract Authority",
          "name": "",
          "type": "address"
        }
      ],
      "stateMutability": "view",
      "type": "function",
      "constant": true
    },
    {
      "inputs": [
        {
          "internalType": "address",
          "name": "owner",
          "type": "address"
        }
      ],
      "name": "balanceOf",
      "outputs": [
        {
          "internalType": "uint256",
          "name": "",
          "type": "uint256"
        }
      ],
      "stateMutability": "view",
      "type": "function",
      "constant": true
    },
    {
      "inputs": [
        {
          "internalType": "uint256",
          "name": "tokenId",
          "type": "uint256"
        }
      ],
      "name": "getApproved",
      "outputs": [
        {
          "internalType": "address",
          "name": "",
          "type": "address"
        }
      ],
      "stateMutability": "view",
      "type": "function",
      "constant": true
    },
    {
      "inputs": [
        {
          "internalType": "address",
          "name": "owner",
          "type": "address"
        },
        {
          "internalType": "address",
          "name": "operator",
          "type": "address"
        }
      ],
      "name": "isApprovedForAll",
      "outputs": [
        {
          "internalType": "bool",
          "name": "",
          "type": "bool"
        }
      ],
      "stateMutability": "view",
      "type": "function",
      "constant": true
    },
    {
      "inputs": [],
      "name": "name",
      "outputs": [
        {
          "internalType": "string",
          "name": "",
          "type": "string"
        }
      ],
      "stateMutability": "view",
      "type": "function",
      "constant": true
    },
    {
      "inputs": [],
      "name": "owner",
      "outputs": [
        {
          "internalType": "address",
          "name": "",
          "type": "address"
        }
      ],
      "stateMutability": "view",
      "type": "function",
      "constant": true
    },
    {
      "inputs": [
        {
          "internalType": "uint256",
          "name": "tokenId",
          "type": "uint256"
        }
      ],
      "name": "ownerOf",
      "outputs": [
        {
          "internalType": "address",
          "name": "",
          "type": "address"
        }
      ],
      "stateMutability": "view",
      "type": "function",
      "constant": true
    },
    {
      "inputs": [],
      "name": "renounceOwnership",
      "outputs": [],
      "stateMutability": "nonpayable",
      "type": "function"
    },
    {
      "inputs": [
        {
          "internalType": "address",
          "name": "from",
          "type": "address"
        },
        {
          "internalType": "address",
          "name": "to",
          "type": "address"
        },
        {
          "internalType": "uint256",
          "name": "tokenId",
          "type": "uint256"
        }
      ],
      "name": "safeTransferFrom",
      "outputs": [],
      "stateMutability": "nonpayable",
      "type": "function"
    },
    {
      "inputs": [
        {
          "internalType": "address",
          "name": "from",
          "type": "address"
        },
        {
          "internalType": "address",
          "name": "to",
          "type": "address"
        },
        {
          "internalType": "uint256",
          "name": "tokenId",
          "type": "uint256"
        },
        {
          "internalType": "bytes",
          "name": "_data",
          "type": "bytes"
        }
      ],
      "name": "safeTransferFrom",
      "outputs": [],
      "stateMutability": "nonpayable",
      "type": "function"
    },
    {
      "inputs": [
        {
          "internalType": "address",
          "name": "operator",
          "type": "address"
        },
        {
          "internalType": "bool",
          "name": "approved",
          "type": "bool"
        }
      ],
      "name": "setApprovalForAll",
      "outputs": [],
      "stateMutability": "nonpayable",
      "type": "function"
    },
    {
      "inputs": [
        {
          "internalType": "address",
          "name": "authority_",
          "type": "address"
        }
      ],
      "name": "setAuthority",
      "outputs": [],
      "stateMutability": "nonpayable",
      "type": "function"
    },
    {
      "inputs": [
        {
          "internalType": "bytes4",
          "name": "interfaceId",
          "type": "bytes4"
        }
      ],
      "name": "supportsInterface",
      "outputs": [
        {
          "internalType": "bool",
          "name": "",
          "type": "bool"
        }
      ],
      "stateMutability": "view",
      "type": "function",
      "constant": true
    },
    {
      "inputs": [],
      "name": "symbol",
      "outputs": [
        {
          "internalType": "string",
          "name": "",
          "type": "string"
        }
      ],
      "stateMutability": "view",
      "type": "function",
      "constant": true
    },
    {
      "inputs": [
        {
          "internalType": "uint256",
          "name": "tokenId",
          "type": "uint256"
        }
      ],
      "name": "tokenURI",
      "outputs": [
        {
          "internalType": "string",
          "name": "",
          "type": "string"
        }
      ],
      "stateMutability": "view",
      "type": "function",
      "constant": true
    },
    {
      "inputs": [
        {
          "internalType": "address",
          "name": "newOwner",
          "type": "address"
        }
      ],
      "name": "transferOwnership",
      "outputs": [],
      "stateMutability": "nonpayable",
      "type": "function"
    },
    {
      "inputs": [
        {
          "internalType": "uint8",
          "name": "quality_",
          "type": "uint8"
        }
      ],
      "name": "getRateStruct",
      "outputs": [
        {
          "components": [
            {
              "internalType": "uint16",
              "name": "number",
              "type": "uint16"
            },
            {
              "internalType": "uint16",
              "name": "rate",
              "type": "uint16"
            },
            {
              "internalType": "uint8",
              "name": "times",
              "type": "uint8"
            }
          ],
          "internalType": "struct Fighter.RateStruct",
          "name": "rs",
          "type": "tuple"
        }
      ],
      "stateMutability": "view",
      "type": "function",
      "constant": true
    },
    {
      "inputs": [
        {
          "internalType": "address",
          "name": "account_",
          "type": "address"
        }
      ],
      "name": "getUserStruct",
      "outputs": [
        {
          "components": [
            {
              "internalType": "uint256",
              "name": "powers",
              "type": "uint256"
            },
            {
              "internalType": "uint256",
              "name": "period",
              "type": "uint256"
            },
            {
              "internalType": "uint256",
              "name": "exchange",
              "type": "uint256"
            }
          ],
          "internalType": "struct NftLibrary.UserStruct",
          "name": "us",
          "type": "tuple"
        }
      ],
      "stateMutability": "view",
      "type": "function",
      "constant": true
    },
    {
      "inputs": [
        {
          "internalType": "address",
          "name": "account_",
          "type": "address"
        },
        {
          "internalType": "uint256",
          "name": "i",
          "type": "uint256"
        }
      ],
      "name": "getUserTokens",
      "outputs": [
        {
          "internalType": "uint256",
          "name": "tokenId",
          "type": "uint256"
        }
      ],
      "stateMutability": "view",
      "type": "function",
      "constant": true
    },
    {
      "inputs": [
        {
          "internalType": "uint8",
          "name": "quality_",
          "type": "uint8"
        },
        {
          "internalType": "uint16",
          "name": "number_",
          "type": "uint16"
        },
        {
          "internalType": "uint16",
          "name": "rate_",
          "type": "uint16"
        },
        {
          "internalType": "uint8",
          "name": "times_",
          "type": "uint8"
        }
      ],
      "name": "setExchangeRate",
      "outputs": [],
      "stateMutability": "nonpayable",
      "type": "function"
    },
    {
      "inputs": [
        {
          "internalType": "address",
          "name": "from_",
          "type": "address"
        },
        {
          "internalType": "address",
          "name": "to_",
          "type": "address"
        },
        {
          "internalType": "uint256",
          "name": "tokenId_",
          "type": "uint256"
        }
      ],
      "name": "transferFrom",
      "outputs": [],
      "stateMutability": "nonpayable",
      "type": "function"
    },
    {
      "inputs": [
        {
          "internalType": "address",
          "name": "to_",
          "type": "address"
        },
        {
          "internalType": "uint104",
          "name": "tokenId_",
          "type": "uint104"
        }
      ],
      "name": "buy",
      "outputs": [],
      "stateMutability": "nonpayable",
      "type": "function"
    },
    {
      "inputs": [
        {
          "internalType": "address",
          "name": "account_",
          "type": "address"
        },
        {
          "internalType": "uint8",
          "name": "quality_",
          "type": "uint8"
        },
        {
          "internalType": "uint104",
          "name": "tokenId_",
          "type": "uint104"
        }
      ],
      "name": "burn",
      "outputs": [],
      "stateMutability": "nonpayable",
      "type": "function"
    },
    {
      "inputs": [
        {
          "internalType": "address",
          "name": "account_",
          "type": "address"
        }
      ],
      "name": "addExchange",
      "outputs": [],
      "stateMutability": "nonpayable",
      "type": "function"
    },
    {
      "inputs": [
        {
          "internalType": "address",
          "name": "account_",
          "type": "address"
        }
      ],
      "name": "getReward",
      "outputs": [
        {
          "internalType": "uint256",
          "name": "reward",
          "type": "uint256"
        }
      ],
      "stateMutability": "view",
      "type": "function",
      "constant": true
    },
    {
      "inputs": [],
      "name": "claim",
      "outputs": [],
      "stateMutability": "nonpayable",
      "type": "function"
    }
  ],
  "bytecode": "0x60806040523480156200001157600080fd5b5060405162005f8138038062005f81833981810160405281019062000037919062000606565b6040518060400160405280600981526020017f46696768746572205a00000000000000000000000000000000000000000000008152506040518060400160405280600581526020017f44424e4654000000000000000000000000000000000000000000000000000000815250826000620000b66200053760201b60201c565b9050806000806101000a81548173ffffffffffffffffffffffffffffffffffffffff021916908373ffffffffffffffffffffffffffffffffffffffff1602179055508073ffffffffffffffffffffffffffffffffffffffff16600073ffffffffffffffffffffffffffffffffffffffff167f8be0079c531659141344cd1fd0a4f28419497f9722a3daafe3b4186f6b6457e060405160405180910390a35080600160006101000a81548173ffffffffffffffffffffffffffffffffffffffff021916908373ffffffffffffffffffffffffffffffffffffffff160217905550508160029080519060200190620001ae9291906200053f565b508060039080519060200190620001c79291906200053f565b5050506a52b7d2dcc80cd2e40000006008600101819055506040518060600160405280600761ffff168152602001602361ffff168152602001600760ff16815250600b60008060ff16815260200190815260200160002060008201518160000160006101000a81548161ffff021916908361ffff16021790555060208201518160000160026101000a81548161ffff021916908361ffff16021790555060408201518160000160046101000a81548160ff021916908360ff1602179055509050506040518060600160405280600361ffff168152602001600a61ffff168152602001600160ff16815250600b6000600160ff16815260200190815260200160002060008201518160000160006101000a81548161ffff021916908361ffff16021790555060208201518160000160026101000a81548161ffff021916908361ffff16021790555060408201518160000160046101000a81548160ff021916908360ff1602179055509050506040518060600160405280600561ffff168152602001600561ffff168152602001600160ff16815250600b6000600260ff16815260200190815260200160002060008201518160000160006101000a81548161ffff021916908361ffff16021790555060208201518160000160026101000a81548161ffff021916908361ffff16021790555060408201518160000160046101000a81548160ff021916908360ff1602179055509050506040518060600160405280600a61ffff168152602001600161ffff168152602001600160ff16815250600b6000600360ff16815260200190815260200160002060008201518160000160006101000a81548161ffff021916908361ffff16021790555060208201518160000160026101000a81548161ffff021916908361ffff16021790555060408201518160000160046101000a81548160ff021916908360ff1602179055509050506040518060600160405280600061ffff168152602001600061ffff168152602001600060ff16815250600b6000600460ff16815260200190815260200160002060008201518160000160006101000a81548161ffff021916908361ffff16021790555060208201518160000160026101000a81548161ffff021916908361ffff16021790555060408201518160000160046101000a81548160ff021916908360ff16021790555090505050620006f0565b600033905090565b8280546200054d906200066c565b90600052602060002090601f016020900481019282620005715760008555620005bd565b82601f106200058c57805160ff1916838001178555620005bd565b82800160010185558215620005bd579182015b82811115620005bc5782518255916020019190600101906200059f565b5b509050620005cc9190620005d0565b5090565b5b80821115620005eb576000816000905550600101620005d1565b5090565b6000815190506200060081620006d6565b92915050565b6000602082840312156200061f576200061e620006d1565b5b60006200062f84828501620005ef565b91505092915050565b600062000645826200064c565b9050919050565b600073ffffffffffffffffffffffffffffffffffffffff82169050919050565b600060028204905060018216806200068557607f821691505b602082108114156200069c576200069b620006a2565b5b50919050565b7f4e487b7100000000000000000000000000000000000000000000000000000000600052602260045260246000fd5b600080fd5b620006e18162000638565b8114620006ed57600080fd5b50565b61588180620007006000396000f3fe608060405234801561001057600080fd5b50600436106101cf5760003560e01c80637a9e5e4b11610104578063bf7e214f116100a2578063d9465f4a11610071578063d9465f4a14610517578063dc870c3314610547578063e985e9c514610579578063f2fde38b146105a9576101cf565b8063bf7e214f14610469578063c00007b014610487578063c87b56dd146104b7578063cfdc3522146104e7576101cf565b806395d89b41116100de57806395d89b41146103f7578063a22cb46514610415578063aa10ce2214610431578063b88d4fde1461044d576101cf565b80637a9e5e4b146103a15780638da5cb5b146103bd57806394637d95146103db576101cf565b806342842e0e116101715780636352211e1161014b5780636352211e1461031857806370a0823114610348578063715018a61461037857806378337e6f14610382576101cf565b806342842e0e146102c25780634e71d92d146102de578063604e3706146102e8576101cf565b8063095ea7b3116101ad578063095ea7b314610252578063131d6f9e1461026e57806323b872dd1461028a5780632db6e822146102a6576101cf565b806301ffc9a7146101d457806306fdde0314610204578063081812fc14610222575b600080fd5b6101ee60048036038101906101e991906140c4565b6105c5565b6040516101fb9190614836565b60405180910390f35b61020c6106a7565b604051610219919061486c565b60405180910390f35b61023c6004803603810190610237919061414b565b610739565b604051610249919061473a565b60405180910390f35b61026c60048036038101906102679190614004565b6107be565b005b610288600480360381019061028391906141a5565b6108d6565b005b6102a4600480360381019061029f9190613eae565b610aa8565b005b6102c060048036038101906102bb9190613fc4565b610dcd565b005b6102dc60048036038101906102d79190613eae565b6111c2565b005b6102e66111e2565b005b61030260048036038101906102fd9190613e14565b611917565b60405161030f9190614ba9565b60405180910390f35b610332600480360381019061032d919061414b565b61198e565b60405161033f919061473a565b60405180910390f35b610362600480360381019061035d9190613e14565b611a40565b60405161036f9190614bdf565b60405180910390f35b610380611af8565b005b61038a611c32565b604051610398929190614bfa565b60405180910390f35b6103bb60048036038101906103b69190613e14565b611c44565b005b6103c5611d04565b6040516103d2919061473a565b60405180910390f35b6103f560048036038101906103f09190614044565b611d2d565b005b6103ff611e60565b60405161040c919061486c565b60405180910390f35b61042f600480360381019061042a9190613f84565b611ef2565b005b61044b60048036038101906104469190613e14565b612073565b005b61046760048036038101906104629190613f01565b61222e565b005b610471612290565b60405161047e9190614851565b60405180910390f35b6104a1600480360381019061049c9190613e14565b6122b6565b6040516104ae9190614bdf565b60405180910390f35b6104d160048036038101906104cc919061414b565b6127ce565b6040516104de919061486c565b60405180910390f35b61050160048036038101906104fc9190614004565b612875565b60405161050e9190614bdf565b60405180910390f35b610531600480360381019061052c9190614178565b6128d0565b60405161053e9190614b8e565b60405180910390f35b610561600480360381019061055c9190613e14565b612960565b60405161057093929190614c23565b60405180910390f35b610593600480360381019061058e9190613e6e565b61298a565b6040516105a09190614836565b60405180910390f35b6105c360048036038101906105be9190613e14565b612a1e565b005b60007f80ac58cd000000000000000000000000000000000000000000000000000000007bffffffffffffffffffffffffffffffffffffffffffffffffffffffff1916827bffffffffffffffffffffffffffffffffffffffffffffffffffffffff1916148061069057507f5b5e139f000000000000000000000000000000000000000000000000000000007bffffffffffffffffffffffffffffffffffffffffffffffffffffffff1916827bffffffffffffffffffffffffffffffffffffffffffffffffffffffff1916145b806106a0575061069f82612bc7565b5b9050919050565b6060600280546106b690614f28565b80601f01602080910402602001604051908101604052809291908181526020018280546106e290614f28565b801561072f5780601f106107045761010080835404028352916020019161072f565b820191906000526020600020905b81548152906001019060200180831161071257829003601f168201915b5050505050905090565b600061074482612c31565b610783576040517f08c379a000000000000000000000000000000000000000000000000000000000815260040161077a90614a6e565b60405180910390fd5b6006600083815260200190815260200160002060009054906101000a900473ffffffffffffffffffffffffffffffffffffffff169050919050565b60006107c98261198e565b90508073ffffffffffffffffffffffffffffffffffffffff168373ffffffffffffffffffffffffffffffffffffffff16141561083a576040517f08c379a000000000000000000000000000000000000000000000000000000000815260040161083190614b2e565b60405180910390fd5b8073ffffffffffffffffffffffffffffffffffffffff16610859612c9d565b73ffffffffffffffffffffffffffffffffffffffff161480610888575061088781610882612c9d565b61298a565b5b6108c7576040517f08c379a00000000000000000000000000000000000000000000000000000000081526004016108be906149ae565b60405180910390fd5b6108d18383612ca5565b505050565b6040518060400160405280600681526020017f434f4e4649470000000000000000000000000000000000000000000000000000815250600160009054906101000a900473ffffffffffffffffffffffffffffffffffffffff1673ffffffffffffffffffffffffffffffffffffffff1663f5e65c7233836040518363ffffffff1660e01b81526004016109699291906147d8565b60206040518083038186803b15801561098157600080fd5b505afa158015610995573d6000803e3d6000fd5b505050506040513d601f19601f820116820180604052508101906109b99190614097565b6109f8576040517f08c379a00000000000000000000000000000000000000000000000000000000081526004016109ef90614b6e565b60405180910390fd5b60405180606001604052808561ffff1681526020018461ffff1681526020018360ff16815250600b60008760ff1660ff16815260200190815260200160002060008201518160000160006101000a81548161ffff021916908361ffff16021790555060208201518160000160026101000a81548161ffff021916908361ffff16021790555060408201518160000160046101000a81548160ff021916908360ff1602179055509050505050505050565b610ab9610ab3612c9d565b82612d5e565b610af8576040517f08c379a0000000000000000000000000000000000000000000000000000000008152600401610aef90614b4e565b60405180910390fd5b610b00613b9b565b73__NftLibrary____________________________63d6ebbcfb836040518263ffffffff1660e01b8152600401610b379190614bc4565b60806040518083038186803b158015610b4f57600080fd5b505af4158015610b63573d6000803e3d6000fd5b505050506040513d601f19601f82011682018060405250810190610b87919061411e565b9050610bda82600d60008673ffffffffffffffffffffffffffffffffffffffff1673ffffffffffffffffffffffffffffffffffffffff168152602001908152602001600020612e3c90919063ffffffff16565b50610c2c82600d60008773ffffffffffffffffffffffffffffffffffffffff1673ffffffffffffffffffffffffffffffffffffffff168152602001908152602001600020612e5690919063ffffffff16565b50806000015160ff16600c60008573ffffffffffffffffffffffffffffffffffffffff1673ffffffffffffffffffffffffffffffffffffffff16815260200190815260200160002060000154610c829190614cf3565b600c60008573ffffffffffffffffffffffffffffffffffffffff1673ffffffffffffffffffffffffffffffffffffffff16815260200190815260200160002060000181905550806000015160ff16600c60008673ffffffffffffffffffffffffffffffffffffffff1673ffffffffffffffffffffffffffffffffffffffff16815260200190815260200160002060000154610d1d9190614dd4565b600c60008673ffffffffffffffffffffffffffffffffffffffff1673ffffffffffffffffffffffffffffffffffffffff168152602001908152602001600020600001819055506000610d6e85611a40565b11610dbc576000600c60008673ffffffffffffffffffffffffffffffffffffffff1673ffffffffffffffffffffffffffffffffffffffff168152602001908152602001600020600101819055505b610dc7848484612e70565b50505050565b6040518060400160405280600881526020017f4341524453484f50000000000000000000000000000000000000000000000000815250600160009054906101000a900473ffffffffffffffffffffffffffffffffffffffff1673ffffffffffffffffffffffffffffffffffffffff1663f5e65c7233836040518363ffffffff1660e01b8152600401610e609291906147d8565b60206040518083038186803b158015610e7857600080fd5b505afa158015610e8c573d6000803e3d6000fd5b505050506040513d601f19601f82011682018060405250810190610eb09190614097565b610eef576040517f08c379a0000000000000000000000000000000000000000000000000000000008152600401610ee690614b6e565b60405180910390fd5b610ef7613b9b565b73__NftLibrary____________________________63d6ebbcfb846040518263ffffffff1660e01b8152600401610f2e9190614bc4565b60806040518083038186803b158015610f4657600080fd5b505af4158015610f5a573d6000803e3d6000fd5b505050506040513d601f19601f82011682018060405250810190610f7e919061411e565b9050806000015160ff16600860000154610f989190614cf3565b600860000181905550806000015160ff16600c60008673ffffffffffffffffffffffffffffffffffffffff1673ffffffffffffffffffffffffffffffffffffffff16815260200190815260200160002060000154610ff69190614cf3565b600c60008673ffffffffffffffffffffffffffffffffffffffff1673ffffffffffffffffffffffffffffffffffffffff168152602001908152602001600020600001819055506000816000015160ff1614156110b0576008600201839080600181540180825580915050600190039060005260206000209060029182820401919006600d029091909190916101000a8154816cffffffffffffffffffffffffff02191690836cffffffffffffffffffffffffff1602179055505b6000600c60008673ffffffffffffffffffffffffffffffffffffffff1673ffffffffffffffffffffffffffffffffffffffff16815260200190815260200160002060010154116111425742600c60008673ffffffffffffffffffffffffffffffffffffffff1673ffffffffffffffffffffffffffffffffffffffff168152602001908152602001600020600101819055505b61115b84846cffffffffffffffffffffffffff166130cc565b6111bb836cffffffffffffffffffffffffff16600d60008773ffffffffffffffffffffffffffffffffffffffff1673ffffffffffffffffffffffffffffffffffffffff168152602001908152602001600020612e3c90919063ffffffff16565b5050505050565b6111dd8383836040518060200160405280600081525061222e565b505050565b6040518060400160405280600581526020017f434c41494d000000000000000000000000000000000000000000000000000000815250600160009054906101000a900473ffffffffffffffffffffffffffffffffffffffff1673ffffffffffffffffffffffffffffffffffffffff1663466f98e860006040518263ffffffff1660e01b81526004016112749190614808565b60206040518083038186803b15801561128c57600080fd5b505afa1580156112a0573d6000803e3d6000fd5b505050506040513d601f19601f820116820180604052508101906112c49190614097565b15611304576040517f08c379a00000000000000000000000000000000000000000000000000000000081526004016112fb9061494e565b60405180910390fd5b600160009054906101000a900473ffffffffffffffffffffffffffffffffffffffff1673ffffffffffffffffffffffffffffffffffffffff1663466f98e86000836040518363ffffffff1660e01b81526004016113629291906147d8565b60206040518083038186803b15801561137a57600080fd5b505afa15801561138e573d6000803e3d6000fd5b505050506040513d601f19601f820116820180604052508101906113b29190614097565b156113f2576040517f08c379a00000000000000000000000000000000000000000000000000000000081526004016113e990614a8e565b60405180910390fd5b600160009054906101000a900473ffffffffffffffffffffffffffffffffffffffff1673ffffffffffffffffffffffffffffffffffffffff1663466f98e8336040518263ffffffff1660e01b815260040161144d9190614808565b60206040518083038186803b15801561146557600080fd5b505afa158015611479573d6000803e3d6000fd5b505050506040513d601f19601f8201168201806040525081019061149d9190614097565b156114dd576040517f08c379a00000000000000000000000000000000000000000000000000000000081526004016114d490614b6e565b60405180910390fd5b600160009054906101000a900473ffffffffffffffffffffffffffffffffffffffff1673ffffffffffffffffffffffffffffffffffffffff1663466f98e833836040518363ffffffff1660e01b815260040161153a9291906147d8565b60206040518083038186803b15801561155257600080fd5b505afa158015611566573d6000803e3d6000fd5b505050506040513d601f19601f8201168201806040525081019061158a9190614097565b156115ca576040517f08c379a00000000000000000000000000000000000000000000000000000000081526004016115c190614b6e565b60405180910390fd5b60006115d5336122b6565b90506000811161161a576040517f08c379a000000000000000000000000000000000000000000000000000000000815260040161161190614a0e565b60405180910390fd5b42600c60003373ffffffffffffffffffffffffffffffffffffffff1673ffffffffffffffffffffffffffffffffffffffff168152602001908152602001600020600101819055506000600160009054906101000a900473ffffffffffffffffffffffffffffffffffffffff1673ffffffffffffffffffffffffffffffffffffffff16636957a0b26040518163ffffffff1660e01b81526004016116bc906149ee565b60206040518083038186803b1580156116d457600080fd5b505afa1580156116e8573d6000803e3d6000fd5b505050506040513d601f19601f8201168201806040525081019061170c9190613e41565b90506000600160009054906101000a900473ffffffffffffffffffffffffffffffffffffffff1673ffffffffffffffffffffffffffffffffffffffff16636957a0b26040518163ffffffff1660e01b815260040161176990614aae565b60206040518083038186803b15801561178157600080fd5b505afa158015611795573d6000803e3d6000fd5b505050506040513d601f19601f820116820180604052508101906117b99190613e41565b905060008173ffffffffffffffffffffffffffffffffffffffff166323b872dd8433876040518463ffffffff1660e01b81526004016117fa93929190614755565b602060405180830381600087803b15801561181457600080fd5b505af1158015611828573d6000803e3d6000fd5b505050506040513d601f19601f8201168201806040525081019061184c9190614097565b90508061188e576040517f08c379a00000000000000000000000000000000000000000000000000000000081526004016118859061498e565b60405180910390fd5b7fe630ca519fedafd2bd9bd35ad65e198e08398f47c88ca063c406740992bcd1a484600c60003373ffffffffffffffffffffffffffffffffffffffff1673ffffffffffffffffffffffffffffffffffffffff1681526020019081526020016000206000015460086000015460405161190893929190614c23565b60405180910390a15050505050565b61191f613bce565b600c60008373ffffffffffffffffffffffffffffffffffffffff1673ffffffffffffffffffffffffffffffffffffffff16815260200190815260200160002060405180606001604052908160008201548152602001600182015481526020016002820154815250509050919050565b6000806004600084815260200190815260200160002060009054906101000a900473ffffffffffffffffffffffffffffffffffffffff169050600073ffffffffffffffffffffffffffffffffffffffff168173ffffffffffffffffffffffffffffffffffffffff161415611a37576040517f08c379a0000000000000000000000000000000000000000000000000000000008152600401611a2e90614a2e565b60405180910390fd5b80915050919050565b60008073ffffffffffffffffffffffffffffffffffffffff168273ffffffffffffffffffffffffffffffffffffffff161415611ab1576040517f08c379a0000000000000000000000000000000000000000000000000000000008152600401611aa8906149ce565b60405180910390fd5b600560008373ffffffffffffffffffffffffffffffffffffffff1673ffffffffffffffffffffffffffffffffffffffff168152602001908152602001600020549050919050565b611b00612c9d565b73ffffffffffffffffffffffffffffffffffffffff16611b1e611d04565b73ffffffffffffffffffffffffffffffffffffffff1614611b74576040517f08c379a0000000000000000000000000000000000000000000000000000000008152600401611b6b90614ace565b60405180910390fd5b600073ffffffffffffffffffffffffffffffffffffffff1660008054906101000a900473ffffffffffffffffffffffffffffffffffffffff1673ffffffffffffffffffffffffffffffffffffffff167f8be0079c531659141344cd1fd0a4f28419497f9722a3daafe3b4186f6b6457e060405160405180910390a360008060006101000a81548173ffffffffffffffffffffffffffffffffffffffff021916908373ffffffffffffffffffffffffffffffffffffffff160217905550565b60088060000154908060010154905082565b611c4c612c9d565b73ffffffffffffffffffffffffffffffffffffffff16611c6a611d04565b73ffffffffffffffffffffffffffffffffffffffff1614611cc0576040517f08c379a0000000000000000000000000000000000000000000000000000000008152600401611cb790614ace565b60405180910390fd5b80600160006101000a81548173ffffffffffffffffffffffffffffffffffffffff021916908373ffffffffffffffffffffffffffffffffffffffff16021790555050565b60008060009054906101000a900473ffffffffffffffffffffffffffffffffffffffff16905090565b6040518060400160405280600881526020017f45584348414e4745000000000000000000000000000000000000000000000000815250600160009054906101000a900473ffffffffffffffffffffffffffffffffffffffff1673ffffffffffffffffffffffffffffffffffffffff1663f5e65c7233836040518363ffffffff1660e01b8152600401611dc09291906147d8565b60206040518083038186803b158015611dd857600080fd5b505afa158015611dec573d6000803e3d6000fd5b505050506040513d601f19601f82011682018060405250810190611e109190614097565b611e4f576040517f08c379a0000000000000000000000000000000000000000000000000000000008152600401611e4690614b6e565b60405180910390fd5b611e5a8484846130ea565b50505050565b606060038054611e6f90614f28565b80601f0160208091040260200160405190810160405280929190818152602001828054611e9b90614f28565b8015611ee85780601f10611ebd57610100808354040283529160200191611ee8565b820191906000526020600020905b815481529060010190602001808311611ecb57829003601f168201915b5050505050905090565b611efa612c9d565b73ffffffffffffffffffffffffffffffffffffffff168273ffffffffffffffffffffffffffffffffffffffff161415611f68576040517f08c379a0000000000000000000000000000000000000000000000000000000008152600401611f5f9061492e565b60405180910390fd5b8060076000611f75612c9d565b73ffffffffffffffffffffffffffffffffffffffff1673ffffffffffffffffffffffffffffffffffffffff16815260200190815260200160002060008473ffffffffffffffffffffffffffffffffffffffff1673ffffffffffffffffffffffffffffffffffffffff16815260200190815260200160002060006101000a81548160ff0219169083151502179055508173ffffffffffffffffffffffffffffffffffffffff16612022612c9d565b73ffffffffffffffffffffffffffffffffffffffff167f17307eab39ab6107e8899845ad3d59bd9653f200f220920489ca2b5937696c31836040516120679190614836565b60405180910390a35050565b6040518060400160405280600881526020017f45584348414e4745000000000000000000000000000000000000000000000000815250600160009054906101000a900473ffffffffffffffffffffffffffffffffffffffff1673ffffffffffffffffffffffffffffffffffffffff1663f5e65c7233836040518363ffffffff1660e01b81526004016121069291906147d8565b60206040518083038186803b15801561211e57600080fd5b505afa158015612132573d6000803e3d6000fd5b505050506040513d601f19601f820116820180604052508101906121569190614097565b612195576040517f08c379a000000000000000000000000000000000000000000000000000000000815260040161218c90614b6e565b60405180910390fd5b6001600c60008473ffffffffffffffffffffffffffffffffffffffff1673ffffffffffffffffffffffffffffffffffffffff168152602001908152602001600020600201546121e49190614cf3565b600c60008473ffffffffffffffffffffffffffffffffffffffff1673ffffffffffffffffffffffffffffffffffffffff168152602001908152602001600020600201819055505050565b61223f612239612c9d565b83612d5e565b61227e576040517f08c379a000000000000000000000000000000000000000000000000000000000815260040161227590614b4e565b60405180910390fd5b61228a8484848461321c565b50505050565b600160009054906101000a900473ffffffffffffffffffffffffffffffffffffffff1681565b60006040518060400160405280600981526020017f4745545245574152440000000000000000000000000000000000000000000000815250600160009054906101000a900473ffffffffffffffffffffffffffffffffffffffff1673ffffffffffffffffffffffffffffffffffffffff1663466f98e860006040518263ffffffff1660e01b815260040161234a9190614808565b60206040518083038186803b15801561236257600080fd5b505afa158015612376573d6000803e3d6000fd5b505050506040513d601f19601f8201168201806040525081019061239a9190614097565b156123da576040517f08c379a00000000000000000000000000000000000000000000000000000000081526004016123d19061494e565b60405180910390fd5b600160009054906101000a900473ffffffffffffffffffffffffffffffffffffffff1673ffffffffffffffffffffffffffffffffffffffff1663466f98e86000836040518363ffffffff1660e01b81526004016124389291906147d8565b60206040518083038186803b15801561245057600080fd5b505afa158015612464573d6000803e3d6000fd5b505050506040513d601f19601f820116820180604052508101906124889190614097565b156124c8576040517f08c379a00000000000000000000000000000000000000000000000000000000081526004016124bf90614a8e565b60405180910390fd5b600160009054906101000a900473ffffffffffffffffffffffffffffffffffffffff1673ffffffffffffffffffffffffffffffffffffffff1663466f98e8336040518263ffffffff1660e01b81526004016125239190614808565b60206040518083038186803b15801561253b57600080fd5b505afa15801561254f573d6000803e3d6000fd5b505050506040513d601f19601f820116820180604052508101906125739190614097565b156125b3576040517f08c379a00000000000000000000000000000000000000000000000000000000081526004016125aa90614b6e565b60405180910390fd5b600160009054906101000a900473ffffffffffffffffffffffffffffffffffffffff1673ffffffffffffffffffffffffffffffffffffffff1663466f98e833836040518363ffffffff1660e01b81526004016126109291906147d8565b60206040518083038186803b15801561262857600080fd5b505afa15801561263c573d6000803e3d6000fd5b505050506040513d601f19601f820116820180604052508101906126609190614097565b156126a0576040517f08c379a000000000000000000000000000000000000000000000000000000000815260040161269790614b6e565b60405180910390fd5b60006126aa613278565b905060006127076305f5e100600c60008873ffffffffffffffffffffffffffffffffffffffff1673ffffffffffffffffffffffffffffffffffffffff168152602001908152602001600020600001546132d590919063ffffffff16565b90506127376305f5e100612729600860000154846132eb90919063ffffffff16565b6132eb90919063ffffffff16565b90506000600c60008773ffffffffffffffffffffffffffffffffffffffff1673ffffffffffffffffffffffffffffffffffffffff16815260200190815260200160002060010154426127899190614dd4565b90506127c360646127b5846127a785886132d590919063ffffffff16565b6132d590919063ffffffff16565b6132eb90919063ffffffff16565b945050505050919050565b60606127d982612c31565b612818576040517f08c379a000000000000000000000000000000000000000000000000000000000815260040161280f90614b0e565b60405180910390fd5b6000612822613301565b90506000815111612842576040518060200160405280600081525061286d565b8061284c84613318565b60405160200161285d929190614716565b6040516020818303038152906040525b915050919050565b60006128c882600d60008673ffffffffffffffffffffffffffffffffffffffff1673ffffffffffffffffffffffffffffffffffffffff16815260200190815260200160002061347990919063ffffffff16565b905092915050565b6128d8613bef565b600b60008360ff1660ff1681526020019081526020016000206040518060600160405290816000820160009054906101000a900461ffff1661ffff1661ffff1681526020016000820160029054906101000a900461ffff1661ffff1661ffff1681526020016000820160049054906101000a900460ff1660ff1660ff16815250509050919050565b600c6020528060005260406000206000915090508060000154908060010154908060020154905083565b6000600760008473ffffffffffffffffffffffffffffffffffffffff1673ffffffffffffffffffffffffffffffffffffffff16815260200190815260200160002060008373ffffffffffffffffffffffffffffffffffffffff1673ffffffffffffffffffffffffffffffffffffffff16815260200190815260200160002060009054906101000a900460ff16905092915050565b612a26612c9d565b73ffffffffffffffffffffffffffffffffffffffff16612a44611d04565b73ffffffffffffffffffffffffffffffffffffffff1614612a9a576040517f08c379a0000000000000000000000000000000000000000000000000000000008152600401612a9190614ace565b60405180910390fd5b600073ffffffffffffffffffffffffffffffffffffffff168173ffffffffffffffffffffffffffffffffffffffff161415612b0a576040517f08c379a0000000000000000000000000000000000000000000000000000000008152600401612b01906148ce565b60405180910390fd5b8073ffffffffffffffffffffffffffffffffffffffff1660008054906101000a900473ffffffffffffffffffffffffffffffffffffffff1673ffffffffffffffffffffffffffffffffffffffff167f8be0079c531659141344cd1fd0a4f28419497f9722a3daafe3b4186f6b6457e060405160405180910390a3806000806101000a81548173ffffffffffffffffffffffffffffffffffffffff021916908373ffffffffffffffffffffffffffffffffffffffff16021790555050565b60007f01ffc9a7000000000000000000000000000000000000000000000000000000007bffffffffffffffffffffffffffffffffffffffffffffffffffffffff1916827bffffffffffffffffffffffffffffffffffffffffffffffffffffffff1916149050919050565b60008073ffffffffffffffffffffffffffffffffffffffff166004600084815260200190815260200160002060009054906101000a900473ffffffffffffffffffffffffffffffffffffffff1673ffffffffffffffffffffffffffffffffffffffff1614159050919050565b600033905090565b816006600083815260200190815260200160002060006101000a81548173ffffffffffffffffffffffffffffffffffffffff021916908373ffffffffffffffffffffffffffffffffffffffff160217905550808273ffffffffffffffffffffffffffffffffffffffff16612d188361198e565b73ffffffffffffffffffffffffffffffffffffffff167f8c5be1e5ebec7d5bd14f71427d1e84f3dd0314c0f7b2291e5b200ac8c7c3b92560405160405180910390a45050565b6000612d6982612c31565b612da8576040517f08c379a0000000000000000000000000000000000000000000000000000000008152600401612d9f9061496e565b60405180910390fd5b6000612db38361198e565b90508073ffffffffffffffffffffffffffffffffffffffff168473ffffffffffffffffffffffffffffffffffffffff161480612e2257508373ffffffffffffffffffffffffffffffffffffffff16612e0a84610739565b73ffffffffffffffffffffffffffffffffffffffff16145b80612e335750612e32818561298a565b5b91505092915050565b6000612e4e836000018360001b613493565b905092915050565b6000612e68836000018360001b613503565b905092915050565b8273ffffffffffffffffffffffffffffffffffffffff16612e908261198e565b73ffffffffffffffffffffffffffffffffffffffff1614612ee6576040517f08c379a0000000000000000000000000000000000000000000000000000000008152600401612edd90614aee565b60405180910390fd5b600073ffffffffffffffffffffffffffffffffffffffff168273ffffffffffffffffffffffffffffffffffffffff161415612f56576040517f08c379a0000000000000000000000000000000000000000000000000000000008152600401612f4d9061490e565b60405180910390fd5b612f6183838361361b565b612f6c600082612ca5565b6001600560008573ffffffffffffffffffffffffffffffffffffffff1673ffffffffffffffffffffffffffffffffffffffff1681526020019081526020016000206000828254612fbc9190614dd4565b925050819055506001600560008473ffffffffffffffffffffffffffffffffffffffff1673ffffffffffffffffffffffffffffffffffffffff16815260200190815260200160002060008282546130139190614cf3565b92505081905550816004600083815260200190815260200160002060006101000a81548173ffffffffffffffffffffffffffffffffffffffff021916908373ffffffffffffffffffffffffffffffffffffffff160217905550808273ffffffffffffffffffffffffffffffffffffffff168473ffffffffffffffffffffffffffffffffffffffff167fddf252ad1be2c89b69c2b068fc378daa952ba7f163c4a11628f55a4df523b3ef60405160405180910390a4505050565b6130e6828260405180602001604052806000815250613620565b5050565b8160ff166008600001546130fe9190614dd4565b6008600001819055508160ff16600c60008573ffffffffffffffffffffffffffffffffffffffff1673ffffffffffffffffffffffffffffffffffffffff168152602001908152602001600020600001546131589190614dd4565b600c60008573ffffffffffffffffffffffffffffffffffffffff1673ffffffffffffffffffffffffffffffffffffffff168152602001908152602001600020600001819055506131b6816cffffffffffffffffffffffffff1661367b565b613216816cffffffffffffffffffffffffff16600d60008673ffffffffffffffffffffffffffffffffffffffff1673ffffffffffffffffffffffffffffffffffffffff168152602001908152602001600020612e5690919063ffffffff16565b50505050565b613227848484612e70565b6132338484848461378c565b613272576040517f08c379a0000000000000000000000000000000000000000000000000000000008152600401613269906148ae565b60405180910390fd5b50505050565b600061329461016d6008600101546132eb90919063ffffffff16565b90506132d0603c6132c2603c6132b46018866132eb90919063ffffffff16565b6132eb90919063ffffffff16565b6132eb90919063ffffffff16565b905090565b600081836132e39190614d7a565b905092915050565b600081836132f99190614d49565b905092915050565b606060405180602001604052806000815250905090565b60606000821415613360576040518060400160405280600181526020017f30000000000000000000000000000000000000000000000000000000000000008152509050613474565b600082905060005b6000821461339257808061337b90614f8b565b915050600a8261338b9190614d49565b9150613368565b60008167ffffffffffffffff8111156133ae576133ad6150f0565b5b6040519080825280601f01601f1916602001820160405280156133e05781602001600182028036833780820191505090505b5090505b6000851461346d576001826133f99190614dd4565b9150600a856134089190614fd4565b60306134149190614cf3565b60f81b81838151811061342a576134296150c1565b5b60200101907effffffffffffffffffffffffffffffffffffffffffffffffffffffffffffff1916908160001a905350600a856134669190614d49565b94506133e4565b8093505050505b919050565b60006134888360000183613923565b60001c905092915050565b600061349f8383613997565b6134f85782600001829080600181540180825580915050600190039060005260206000200160009091909190915055826000018054905083600101600084815260200190815260200160002081905550600190506134fd565b600090505b92915050565b6000808360010160008481526020019081526020016000205490506000811461360f5760006001826135359190614dd4565b905060006001866000018054905061354d9190614dd4565b90506000866000018281548110613567576135666150c1565b5b906000526020600020015490508087600001848154811061358b5761358a6150c1565b5b90600052602060002001819055506001836135a69190614cf3565b87600101600083815260200190815260200160002081905550866000018054806135d3576135d2615092565b5b60019003818190600052602060002001600090559055866001016000878152602001908152602001600020600090556001945050505050613615565b60009150505b92915050565b505050565b61362a83836139ba565b613637600084848461378c565b613676576040517f08c379a000000000000000000000000000000000000000000000000000000000815260040161366d906148ae565b60405180910390fd5b505050565b60006136868261198e565b90506136948160008461361b565b61369f600083612ca5565b6001600560008373ffffffffffffffffffffffffffffffffffffffff1673ffffffffffffffffffffffffffffffffffffffff16815260200190815260200160002060008282546136ef9190614dd4565b925050819055506004600083815260200190815260200160002060006101000a81549073ffffffffffffffffffffffffffffffffffffffff021916905581600073ffffffffffffffffffffffffffffffffffffffff168273ffffffffffffffffffffffffffffffffffffffff167fddf252ad1be2c89b69c2b068fc378daa952ba7f163c4a11628f55a4df523b3ef60405160405180910390a45050565b60006137ad8473ffffffffffffffffffffffffffffffffffffffff16613b88565b15613916578373ffffffffffffffffffffffffffffffffffffffff1663150b7a026137d6612c9d565b8786866040518563ffffffff1660e01b81526004016137f8949392919061478c565b602060405180830381600087803b15801561381257600080fd5b505af192505050801561384357506040513d601f19601f8201168201806040525081019061384091906140f1565b60015b6138c6573d8060008114613873576040519150601f19603f3d011682016040523d82523d6000602084013e613878565b606091505b506000815114156138be576040517f08c379a00000000000000000000000000000000000000000000000000000000081526004016138b5906148ae565b60405180910390fd5b805181602001fd5b63150b7a0260e01b7bffffffffffffffffffffffffffffffffffffffffffffffffffffffff1916817bffffffffffffffffffffffffffffffffffffffffffffffffffffffff19161491505061391b565b600190505b949350505050565b60008183600001805490501161396e576040517f08c379a00000000000000000000000000000000000000000000000000000000081526004016139659061488e565b60405180910390fd5b826000018281548110613984576139836150c1565b5b9060005260206000200154905092915050565b600080836001016000848152602001908152602001600020541415905092915050565b600073ffffffffffffffffffffffffffffffffffffffff168273ffffffffffffffffffffffffffffffffffffffff161415613a2a576040517f08c379a0000000000000000000000000000000000000000000000000000000008152600401613a2190614a4e565b60405180910390fd5b613a3381612c31565b15613a73576040517f08c379a0000000000000000000000000000000000000000000000000000000008152600401613a6a906148ee565b60405180910390fd5b613a7f6000838361361b565b6001600560008473ffffffffffffffffffffffffffffffffffffffff1673ffffffffffffffffffffffffffffffffffffffff1681526020019081526020016000206000828254613acf9190614cf3565b92505081905550816004600083815260200190815260200160002060006101000a81548173ffffffffffffffffffffffffffffffffffffffff021916908373ffffffffffffffffffffffffffffffffffffffff160217905550808273ffffffffffffffffffffffffffffffffffffffff16600073ffffffffffffffffffffffffffffffffffffffff167fddf252ad1be2c89b69c2b068fc378daa952ba7f163c4a11628f55a4df523b3ef60405160405180910390a45050565b600080823b905060008111915050919050565b6040518060800160405280600060ff168152602001600061ffff168152602001600061ffff168152602001600081525090565b60405180606001604052806000815260200160008152602001600081525090565b6040518060600160405280600061ffff168152602001600061ffff168152602001600060ff1681525090565b6000613c2e613c2984614c7f565b614c5a565b905082815260208101848484011115613c4a57613c49615129565b5b613c55848285614ee6565b509392505050565b600081359050613c6c816157aa565b92915050565b600081519050613c81816157aa565b92915050565b600081359050613c96816157c1565b92915050565b600081519050613cab816157c1565b92915050565b600081359050613cc0816157d8565b92915050565b600081519050613cd5816157d8565b92915050565b600082601f830112613cf057613cef61511f565b5b8135613d00848260208601613c1b565b91505092915050565b600060808284031215613d1f57613d1e615124565b5b613d296080614c5a565b90506000613d3984828501613dff565b6000830152506020613d4d84828501613dab565b6020830152506040613d6184828501613dab565b6040830152506060613d7584828501613dd5565b60608301525092915050565b600081359050613d90816157ef565b92915050565b600081359050613da581615806565b92915050565b600081519050613dba81615806565b92915050565b600081359050613dcf8161581d565b92915050565b600081519050613de48161581d565b92915050565b600081359050613df981615834565b92915050565b600081519050613e0e81615834565b92915050565b600060208284031215613e2a57613e29615133565b5b6000613e3884828501613c5d565b91505092915050565b600060208284031215613e5757613e56615133565b5b6000613e6584828501613c72565b91505092915050565b60008060408385031215613e8557613e84615133565b5b6000613e9385828601613c5d565b9250506020613ea485828601613c5d565b9150509250929050565b600080600060608486031215613ec757613ec6615133565b5b6000613ed586828701613c5d565b9350506020613ee686828701613c5d565b9250506040613ef786828701613dc0565b9150509250925092565b60008060008060808587031215613f1b57613f1a615133565b5b6000613f2987828801613c5d565b9450506020613f3a87828801613c5d565b9350506040613f4b87828801613dc0565b925050606085013567ffffffffffffffff811115613f6c57613f6b61512e565b5b613f7887828801613cdb565b91505092959194509250565b60008060408385031215613f9b57613f9a615133565b5b6000613fa985828601613c5d565b9250506020613fba85828601613c87565b9150509250929050565b60008060408385031215613fdb57613fda615133565b5b6000613fe985828601613c5d565b9250506020613ffa85828601613d81565b9150509250929050565b6000806040838503121561401b5761401a615133565b5b600061402985828601613c5d565b925050602061403a85828601613dc0565b9150509250929050565b60008060006060848603121561405d5761405c615133565b5b600061406b86828701613c5d565b935050602061407c86828701613dea565b925050604061408d86828701613d81565b9150509250925092565b6000602082840312156140ad576140ac615133565b5b60006140bb84828501613c9c565b91505092915050565b6000602082840312156140da576140d9615133565b5b60006140e884828501613cb1565b91505092915050565b60006020828403121561410757614106615133565b5b600061411584828501613cc6565b91505092915050565b60006080828403121561413457614133615133565b5b600061414284828501613d09565b91505092915050565b60006020828403121561416157614160615133565b5b600061416f84828501613dc0565b91505092915050565b60006020828403121561418e5761418d615133565b5b600061419c84828501613dea565b91505092915050565b600080600080608085870312156141bf576141be615133565b5b60006141cd87828801613dea565b94505060206141de87828801613d96565b93505060406141ef87828801613d96565b925050606061420087828801613dea565b91505092959194509250565b61421581614e08565b82525050565b61422481614e1a565b82525050565b600061423582614cb0565b61423f8185614cc6565b935061424f818560208601614ef5565b61425881615138565b840191505092915050565b61426c81614eb0565b82525050565b600061427d82614cbb565b6142878185614cd7565b9350614297818560208601614ef5565b6142a081615138565b840191505092915050565b60006142b682614cbb565b6142c08185614ce8565b93506142d0818560208601614ef5565b80840191505092915050565b60006142e9602283614cd7565b91506142f482615149565b604082019050919050565b600061430c603283614cd7565b915061431782615198565b604082019050919050565b600061432f602683614cd7565b915061433a826151e7565b604082019050919050565b6000614352601c83614cd7565b915061435d82615236565b602082019050919050565b6000614375602483614cd7565b91506143808261525f565b604082019050919050565b6000614398601983614cd7565b91506143a3826152ae565b602082019050919050565b60006143bb602783614cd7565b91506143c6826152d7565b604082019050919050565b60006143de602c83614cd7565b91506143e982615326565b604082019050919050565b6000614401601f83614cd7565b915061440c82615375565b602082019050919050565b6000614424603883614cd7565b915061442f8261539e565b604082019050919050565b6000614447602a83614cd7565b9150614452826153ed565b604082019050919050565b600061446a600583614cd7565b91506144758261543c565b602082019050919050565b600061448d601c83614cd7565b915061449882615465565b602082019050919050565b60006144b0602983614cd7565b91506144bb8261548e565b604082019050919050565b60006144d3602083614cd7565b91506144de826154dd565b602082019050919050565b60006144f6602c83614cd7565b915061450182615506565b604082019050919050565b6000614519602a83614cd7565b915061452482615555565b604082019050919050565b600061453c600583614cd7565b9150614547826155a4565b602082019050919050565b600061455f602083614cd7565b915061456a826155cd565b602082019050919050565b6000614582602983614cd7565b915061458d826155f6565b604082019050919050565b60006145a5602f83614cd7565b91506145b082615645565b604082019050919050565b60006145c8602183614cd7565b91506145d382615694565b604082019050919050565b60006145eb600383614cd7565b91506145f6826156e3565b602082019050919050565b600061460e603183614cd7565b91506146198261570c565b604082019050919050565b6000614631602483614cd7565b915061463c8261575b565b604082019050919050565b60608201600082015161465d60008501826146da565b50602082015161467060208501826146da565b5060408201516146836040850182614707565b50505050565b60608201600082015161469f60008501826146e9565b5060208201516146b260208501826146e9565b5060408201516146c560408501826146e9565b50505050565b6146d481614e52565b82525050565b6146e381614e6b565b82525050565b6146f281614e99565b82525050565b61470181614e99565b82525050565b61471081614ea3565b82525050565b600061472282856142ab565b915061472e82846142ab565b91508190509392505050565b600060208201905061474f600083018461420c565b92915050565b600060608201905061476a600083018661420c565b614777602083018561420c565b61478460408301846146f8565b949350505050565b60006080820190506147a1600083018761420c565b6147ae602083018661420c565b6147bb60408301856146f8565b81810360608301526147cd818461422a565b905095945050505050565b60006040820190506147ed600083018561420c565b81810360208301526147ff8184614272565b90509392505050565b600060408201905061481d600083018461420c565b818103602083015261482e816145de565b905092915050565b600060208201905061484b600083018461421b565b92915050565b60006020820190506148666000830184614263565b92915050565b600060208201905081810360008301526148868184614272565b905092915050565b600060208201905081810360008301526148a7816142dc565b9050919050565b600060208201905081810360008301526148c7816142ff565b9050919050565b600060208201905081810360008301526148e781614322565b9050919050565b6000602082019050818103600083015261490781614345565b9050919050565b6000602082019050818103600083015261492781614368565b9050919050565b600060208201905081810360008301526149478161438b565b9050919050565b60006020820190508181036000830152614967816143ae565b9050919050565b60006020820190508181036000830152614987816143d1565b9050919050565b600060208201905081810360008301526149a7816143f4565b9050919050565b600060208201905081810360008301526149c781614417565b9050919050565b600060208201905081810360008301526149e78161443a565b9050919050565b60006020820190508181036000830152614a078161445d565b9050919050565b60006020820190508181036000830152614a2781614480565b9050919050565b60006020820190508181036000830152614a47816144a3565b9050919050565b60006020820190508181036000830152614a67816144c6565b9050919050565b60006020820190508181036000830152614a87816144e9565b9050919050565b60006020820190508181036000830152614aa78161450c565b9050919050565b60006020820190508181036000830152614ac78161452f565b9050919050565b60006020820190508181036000830152614ae781614552565b9050919050565b60006020820190508181036000830152614b0781614575565b9050919050565b60006020820190508181036000830152614b2781614598565b9050919050565b60006020820190508181036000830152614b47816145bb565b9050919050565b60006020820190508181036000830152614b6781614601565b9050919050565b60006020820190508181036000830152614b8781614624565b9050919050565b6000606082019050614ba36000830184614647565b92915050565b6000606082019050614bbe6000830184614689565b92915050565b6000602082019050614bd960008301846146cb565b92915050565b6000602082019050614bf460008301846146f8565b92915050565b6000604082019050614c0f60008301856146f8565b614c1c60208301846146f8565b9392505050565b6000606082019050614c3860008301866146f8565b614c4560208301856146f8565b614c5260408301846146f8565b949350505050565b6000614c64614c75565b9050614c708282614f5a565b919050565b6000604051905090565b600067ffffffffffffffff821115614c9a57614c996150f0565b5b614ca382615138565b9050602081019050919050565b600081519050919050565b600081519050919050565b600082825260208201905092915050565b600082825260208201905092915050565b600081905092915050565b6000614cfe82614e99565b9150614d0983614e99565b9250827fffffffffffffffffffffffffffffffffffffffffffffffffffffffffffffffff03821115614d3e57614d3d615005565b5b828201905092915050565b6000614d5482614e99565b9150614d5f83614e99565b925082614d6f57614d6e615034565b5b828204905092915050565b6000614d8582614e99565b9150614d9083614e99565b9250817fffffffffffffffffffffffffffffffffffffffffffffffffffffffffffffffff0483118215151615614dc957614dc8615005565b5b828202905092915050565b6000614ddf82614e99565b9150614dea83614e99565b925082821015614dfd57614dfc615005565b5b828203905092915050565b6000614e1382614e79565b9050919050565b60008115159050919050565b60007fffffffff0000000000000000000000000000000000000000000000000000000082169050919050565b60006cffffffffffffffffffffffffff82169050919050565b600061ffff82169050919050565b600073ffffffffffffffffffffffffffffffffffffffff82169050919050565b6000819050919050565b600060ff82169050919050565b6000614ebb82614ec2565b9050919050565b6000614ecd82614ed4565b9050919050565b6000614edf82614e79565b9050919050565b82818337600083830152505050565b60005b83811015614f13578082015181840152602081019050614ef8565b83811115614f22576000848401525b50505050565b60006002820490506001821680614f4057607f821691505b60208210811415614f5457614f53615063565b5b50919050565b614f6382615138565b810181811067ffffffffffffffff82111715614f8257614f816150f0565b5b80604052505050565b6000614f9682614e99565b91507fffffffffffffffffffffffffffffffffffffffffffffffffffffffffffffffff821415614fc957614fc8615005565b5b600182019050919050565b6000614fdf82614e99565b9150614fea83614e99565b925082614ffa57614ff9615034565b5b828206905092915050565b7f4e487b7100000000000000000000000000000000000000000000000000000000600052601160045260246000fd5b7f4e487b7100000000000000000000000000000000000000000000000000000000600052601260045260246000fd5b7f4e487b7100000000000000000000000000000000000000000000000000000000600052602260045260246000fd5b7f4e487b7100000000000000000000000000000000000000000000000000000000600052603160045260246000fd5b7f4e487b7100000000000000000000000000000000000000000000000000000000600052603260045260246000fd5b7f4e487b7100000000000000000000000000000000000000000000000000000000600052604160045260246000fd5b600080fd5b600080fd5b600080fd5b600080fd5b600080fd5b6000601f19601f8301169050919050565b7f456e756d657261626c655365743a20696e646578206f7574206f6620626f756e60008201527f6473000000000000000000000000000000000000000000000000000000000000602082015250565b7f4552433732313a207472616e7366657220746f206e6f6e20455243373231526560008201527f63656976657220696d706c656d656e7465720000000000000000000000000000602082015250565b7f4f776e61626c653a206e6577206f776e657220697320746865207a65726f206160008201527f6464726573730000000000000000000000000000000000000000000000000000602082015250565b7f4552433732313a20746f6b656e20616c7265616479206d696e74656400000000600082015250565b7f4552433732313a207472616e7366657220746f20746865207a65726f2061646460008201527f7265737300000000000000000000000000000000000000000000000000000000602082015250565b7f4552433732313a20617070726f766520746f2063616c6c657200000000000000600082015250565b7f4d656d6265723a204d61696e74656e616e6365207570677261646520696e207060008201527f726f677265737300000000000000000000000000000000000000000000000000602082015250565b7f4552433732313a206f70657261746f7220717565727920666f72206e6f6e657860008201527f697374656e7420746f6b656e0000000000000000000000000000000000000000602082015250565b7f464947485445523a20526577617264207472616e73666572206669616c642e00600082015250565b7f4552433732313a20617070726f76652063616c6c6572206973206e6f74206f7760008201527f6e6572206e6f7220617070726f76656420666f7220616c6c0000000000000000602082015250565b7f4552433732313a2062616c616e636520717565727920666f7220746865207a6560008201527f726f206164647265737300000000000000000000000000000000000000000000602082015250565b7f464f554e44000000000000000000000000000000000000000000000000000000600082015250565b7f464947485445523a2054686520726577617264206973207a65726f2e00000000600082015250565b7f4552433732313a206f776e657220717565727920666f72206e6f6e657869737460008201527f656e7420746f6b656e0000000000000000000000000000000000000000000000602082015250565b7f4552433732313a206d696e7420746f20746865207a65726f2061646472657373600082015250565b7f4552433732313a20617070726f76656420717565727920666f72206e6f6e657860008201527f697374656e7420746f6b656e0000000000000000000000000000000000000000602082015250565b7f4d656d6265723a20546865206f7065726174696f6e20697320756e646572206d60008201527f61696e74656e616e636500000000000000000000000000000000000000000000602082015250565b7f544f4b454e000000000000000000000000000000000000000000000000000000600082015250565b7f4f776e61626c653a2063616c6c6572206973206e6f7420746865206f776e6572600082015250565b7f4552433732313a207472616e73666572206f6620746f6b656e2074686174206960008201527f73206e6f74206f776e0000000000000000000000000000000000000000000000602082015250565b7f4552433732314d657461646174613a2055524920717565727920666f72206e6f60008201527f6e6578697374656e7420746f6b656e0000000000000000000000000000000000602082015250565b7f4552433732313a20617070726f76616c20746f2063757272656e74206f776e6560008201527f7200000000000000000000000000000000000000000000000000000000000000602082015250565b7f414c4c0000000000000000000000000000000000000000000000000000000000600082015250565b7f4552433732313a207472616e736665722063616c6c6572206973206e6f74206f60008201527f776e6572206e6f7220617070726f766564000000000000000000000000000000602082015250565b7f4d656d6265723a20546865206f7065726174696f6e206973206e6f7420616c6c60008201527f6f77656400000000000000000000000000000000000000000000000000000000602082015250565b6157b381614e08565b81146157be57600080fd5b50565b6157ca81614e1a565b81146157d557600080fd5b50565b6157e181614e26565b81146157ec57600080fd5b50565b6157f881614e52565b811461580357600080fd5b50565b61580f81614e6b565b811461581a57600080fd5b50565b61582681614e99565b811461583157600080fd5b50565b61583d81614ea3565b811461584857600080fd5b5056fea2646970667358221220c2dba18fc898ec5c6ada6786c382ed59c71a991d8dde42728d2e3960f1c4dcb164736f6c63430008070033",
  "immutableReferences": {},
  "source": "// SPDX-License-Identifier: SimPL-2.0\n\npragma solidity ^0.8.0;\n\nimport \"../authority/Member.sol\";\nimport \"../libraries/NftLibrary.sol\";\n\nimport \"@openzeppelin/contracts/token/ERC20/IERC20.sol\";\nimport \"@openzeppelin/contracts/token/ERC721/ERC721.sol\";\nimport \"@openzeppelin/contracts/utils/math/SafeMath.sol\";\nimport \"@openzeppelin/contracts/utils/structs/EnumerableSet.sol\";\n\n/**\n * @title Fighter Z Token - ERC721\n *\n * @author Bit Lighthouse. Ace\n * AT: 2021-3-28 | VERSION: v1.0.2\n */\n\ncontract Fighter is Member, ERC721 {\n    using SafeMath for uint256;\n    using EnumerableSet for EnumerableSet.UintSet;\n\n    NftLibrary.RecordStruct public _record;\n\n    mapping (uint8 => RateStruct) private _reward_rates;\n    mapping (address => NftLibrary.UserStruct) public _usr;\n    mapping (address => EnumerableSet.UintSet) private _tokens;\n\n    struct RateStruct { uint16 number; uint16 rate; uint8 times; }\n    event Claim(uint256 reward, uint256 power, uint256 total_power);\n\n    constructor(address auth_) Member(auth_)\n        ERC721(\"Fighter Z\", \"DBNFT\") {\n        \n        _record.reward = 1e26;\n\n        _reward_rates[0] = RateStruct({number: 7,  rate: 35, times: 7});\n        _reward_rates[1] = RateStruct({number: 3,  rate: 10, times: 1});\n        _reward_rates[2] = RateStruct({number: 5,  rate: 5,  times: 1});\n        _reward_rates[3] = RateStruct({number: 10, rate: 1,  times: 1});\n        _reward_rates[4] = RateStruct({number: 0,  rate: 0,  times: 0});\n    }\n\n    function _doBurn(\n        address account_, uint8 quality_, uint104 tokenId_\n    ) private {\n        _record.powers = _record.powers - quality_;\n        _usr[account_].powers = _usr[account_].powers - quality_;\n        \n        _burn(tokenId_);\n        _tokens[account_].remove(tokenId_);\n    }\n\n    function _getSecondReward() private view returns (uint256 sr) {\n        sr = _record.reward.div(365);\n        sr = sr.div(24).div(60).div(60);\n    }\n\n    function getRateStruct(uint8 quality_) public view\n        returns (RateStruct memory rs) {\n\n        rs = _reward_rates[quality_];\n    }\n\n    function getUserStruct(address account_) public view\n        returns (NftLibrary.UserStruct memory us) {\n\n        us = _usr[account_];\n    }\n\n    function getUserTokens(address account_, uint256 i)\n        public view returns (uint256 tokenId) {\n\n        tokenId = _tokens[account_].at(i);\n    }\n\n    function setExchangeRate(\n        uint8 quality_, uint16 number_, uint16 rate_, uint8 times_\n    ) public CheckPermit(\"CONFIG\") {\n        _reward_rates[quality_] = RateStruct({\n            number: number_, rate: rate_, times: times_\n        });\n    }\n\n    function transferFrom(\n        address from_, address to_, uint256 tokenId_\n    ) public virtual override {\n        require(\n            _isApprovedOrOwner(_msgSender(), tokenId_),\n            \"ERC721: transfer caller is not owner nor approved\"\n        );\n\n        NftLibrary.DetailStruct memory cs;\n        cs = NftLibrary.tRight(uint104(tokenId_));\n\n        _tokens[to_].add(tokenId_);\n        _tokens[from_].remove(tokenId_);\n\n        _usr[to_].powers = _usr[to_].powers + cs.quality;\n        _usr[from_].powers = _usr[from_].powers - cs.quality;\n        if (balanceOf(from_) <= 0) _usr[from_].period = 0;\n\n        _transfer(from_, to_, tokenId_);\n    }\n\n    function buy(address to_, uint104 tokenId_) public\n        CheckPermit(\"CARDSHOP\") {\n\n        NftLibrary.DetailStruct memory cs;\n        cs = NftLibrary.tRight(tokenId_);\n\n        _record.powers = _record.powers + cs.quality;\n        _usr[to_].powers = _usr[to_].powers + cs.quality;\n\n        if (cs.quality == 0) {\n            _record.specials.push(tokenId_);\n        }\n        \n        if (_usr[to_].period <= 0) {\n            _usr[to_].period = block.timestamp;\n        }\n\n        _safeMint(to_, tokenId_);\n        _tokens[to_].add(tokenId_);\n    }\n\n    function burn(\n        address account_, uint8 quality_, uint104 tokenId_\n    ) public CheckPermit(\"EXCHANGE\") {\n\n        _doBurn(account_, quality_, tokenId_);\n    }\n\n    function addExchange(address account_) public\n        CheckPermit(\"EXCHANGE\") {\n\n        _usr[account_].exchange = _usr[account_].exchange + 1;\n    }\n\n    function getReward(address account_) public view CheckStatus(\"GETREWARD\")\n        returns (uint256 reward) {\n\n        uint256 second_reward = _getSecondReward();\n\n        uint256 power_rate = _usr[account_].powers.mul(1e8);\n        power_rate = power_rate.div(_record.powers).div(1e8);\n        uint256 period = block.timestamp - _usr[account_].period;\n\n        reward = second_reward.mul(period).mul(power_rate).div(100);\n    }\n\n    function claim() public CheckStatus(\"CLAIM\") {\n        uint256 reward = getReward(msg.sender);\n        require(reward > 0, \"FIGHTER: The reward is zero.\");\n        \n        _usr[msg.sender].period = block.timestamp;\n        \n        address sender = authority.members(\"FOUND\");\n        IERC20 token = IERC20(authority.members(\"TOKEN\"));\n\n        bool success = token.transferFrom(sender, msg.sender, reward);\n        require(success, \"FIGHTER: Reward transfer fiald.\");\n\n        emit Claim(reward, _usr[msg.sender].powers, _record.powers);\n    }\n}",
  "sourcePath": "/home/ace/Projects/eth/other/dragon-ball/contracts/token/Fighter.sol",
  "compiler": {
    "name": "solc",
    "version": "0.8.7+commit.e28d00a7.Emscripten.clang"
  },
  "schemaVersion": "3.3.4",
  "updatedAt": "2021-08-17T13:18:20.193Z",
  "networkType": "ethereum",
  "devdoc": {
    "author": "Bit Lighthouse. Ace AT: 2021-3-28 | VERSION: v1.0.2",
    "kind": "dev",
    "methods": {
      "approve(address,uint256)": {
        "details": "See {IERC721-approve}."
      },
      "balanceOf(address)": {
        "details": "See {IERC721-balanceOf}."
      },
      "getApproved(uint256)": {
        "details": "See {IERC721-getApproved}."
      },
      "isApprovedForAll(address,address)": {
        "details": "See {IERC721-isApprovedForAll}."
      },
      "name()": {
        "details": "See {IERC721Metadata-name}."
      },
      "owner()": {
        "details": "Returns the address of the current owner."
      },
      "ownerOf(uint256)": {
        "details": "See {IERC721-ownerOf}."
      },
      "renounceOwnership()": {
        "details": "Leaves the contract without owner. It will not be possible to call `onlyOwner` functions anymore. Can only be called by the current owner. NOTE: Renouncing ownership will leave the contract without an owner, thereby removing any functionality that is only available to the owner."
      },
      "safeTransferFrom(address,address,uint256)": {
        "details": "See {IERC721-safeTransferFrom}."
      },
      "safeTransferFrom(address,address,uint256,bytes)": {
        "details": "See {IERC721-safeTransferFrom}."
      },
      "setApprovalForAll(address,bool)": {
        "details": "See {IERC721-setApprovalForAll}."
      },
      "setAuthority(address)": {
        "params": {
          "authority_": "address of manager This function is onwer only"
        }
      },
      "supportsInterface(bytes4)": {
        "details": "See {IERC165-supportsInterface}."
      },
      "symbol()": {
        "details": "See {IERC721Metadata-symbol}."
      },
      "tokenURI(uint256)": {
        "details": "See {IERC721Metadata-tokenURI}."
      },
      "transferOwnership(address)": {
        "details": "Transfers ownership of the contract to a new account (`newOwner`). Can only be called by the current owner."
      }
    },
    "title": "Fighter Z Token - ERC721",
    "version": 1
  },
  "userdoc": {
    "kind": "user",
    "methods": {
      "setAuthority(address)": {
        "notice": "Set new manager"
      }
    },
    "version": 1
  }
}