{
  "contractName": "Helper",
  "abi": [
    {
      "inputs": [],
      "name": "BIT_AMOUNT",
      "outputs": [
        {
          "internalType": "uint8",
          "name": "",
          "type": "uint8"
        }
      ],
      "stateMutability": "view",
      "type": "function"
    },
    {
      "inputs": [],
      "name": "BIT_HEROID",
      "outputs": [
        {
          "internalType": "uint8",
          "name": "",
          "type": "uint8"
        }
      ],
      "stateMutability": "view",
      "type": "function"
    },
    {
      "inputs": [],
      "name": "BIT_QUALITY",
      "outputs": [
        {
          "internalType": "uint8",
          "name": "",
          "type": "uint8"
        }
      ],
      "stateMutability": "view",
      "type": "function"
    },
    {
      "inputs": [],
      "name": "BIT_TIMESTAMP",
      "outputs": [
        {
          "internalType": "uint8",
          "name": "",
          "type": "uint8"
        }
      ],
      "stateMutability": "view",
      "type": "function"
    },
    {
      "inputs": [
        {
          "internalType": "uint256",
          "name": "_value",
          "type": "uint256"
        }
      ],
      "name": "random",
      "outputs": [
        {
          "internalType": "uint256",
          "name": "",
          "type": "uint256"
        }
      ],
      "stateMutability": "view",
      "type": "function"
    },
    {
      "inputs": [
        {
          "internalType": "uint256",
          "name": "quality_",
          "type": "uint256"
        },
        {
          "internalType": "uint256",
          "name": "id_",
          "type": "uint256"
        },
        {
          "internalType": "uint256",
          "name": "amount_",
          "type": "uint256"
        }
      ],
      "name": "generate",
      "outputs": [
        {
          "internalType": "uint64",
          "name": "tokenId",
          "type": "uint64"
        }
      ],
      "stateMutability": "view",
      "type": "function"
    },
    {
      "inputs": [
        {
          "internalType": "uint64",
          "name": "tokenId_",
          "type": "uint64"
        }
      ],
      "name": "analysis",
      "outputs": [
        {
          "internalType": "uint8",
          "name": "",
          "type": "uint8"
        },
        {
          "internalType": "uint8",
          "name": "",
          "type": "uint8"
        },
        {
          "internalType": "uint32",
          "name": "",
          "type": "uint32"
        }
      ],
      "stateMutability": "pure",
      "type": "function"
    }
  ],
  "bytecode": "0x6103c4610026600b82828239805160001a60731461001957fe5b30600052607381538281f3fe73000000000000000000000000000000000000000030146080604052600436106100875760003560e01c8063b863bd3711610065578063b863bd3714610173578063cc90077a146101b5578063e2a00351146101d6578063fd020b2f146101f757610087565b80631563e80d1461008c5780636d08be6e146100ad5780639310527d14610113575b600080fd5b610094610218565b604051808260ff16815260200191505060405180910390f35b6100e3600480360360208110156100c357600080fd5b81019080803567ffffffffffffffff16906020019092919050505061021d565b604051808460ff1681526020018360ff1681526020018263ffffffff168152602001935050505060405180910390f35b6101536004803603606081101561012957600080fd5b81019080803590602001909291908035906020019092919080359060200190929190505050610276565b604051808267ffffffffffffffff16815260200191505060405180910390f35b61019f6004803603602081101561018957600080fd5b81019080803590602001909291905050506102f2565b6040518082815260200191505060405180910390f35b6101bd61037f565b604051808260ff16815260200191505060405180910390f35b6101de610384565b604051808260ff16815260200191505060405180910390f35b6101ff610389565b604051808260ff16815260200191505060405180910390f35b603c81565b600080600080603f60ff168567ffffffffffffffff16901c90506000603c60ff168667ffffffffffffffff16901c90506000600c60ff168767ffffffffffffffff16901c90508282829550955095505050509193909250565b60006780000000000000009050603f60ff168460ff1667ffffffffffffffff16901b81179050603c60ff168360ff1667ffffffffffffffff16901b81179050602c60ff168261ffff1667ffffffffffffffff16901b81179050600c60ff164263ffffffff1667ffffffffffffffff16901b811790509392505050565b600080424260405160200180838152602001828152602001925050506040516020818303038152906040528051906020012090506000816040516020018082815260200191505060405160208183030381529060405290506000818051906020012060001c905084818161036257fe5b069050600081146103735780610375565b845b9350505050919050565b602c81565b600c81565b603f8156fea264697066735822122079b01b34c02f068d5d9a4195c688282f3fce28d05d0338cf0755ee174147d89464736f6c63430007060033",
  "immutableReferences": {},
  "source": "// SPDX-License-Identifier: SimPL-2.0\n\npragma solidity ^0.7.0;\n\n/**\n * @title The Three Kingdoms Helper\n *\n * @author Bit Lighthouse. Ace\n * AT: 2021-3-28 | VERSION: v1.0.2\n */\nlibrary Helper {\n    uint8 constant public BIT_QUALITY = 63;\n    uint8 constant public BIT_HEROID = 60;\n    uint8 constant public BIT_AMOUNT = 44;\n    uint8 constant public BIT_TIMESTAMP = 12;\n\n    function random(uint256 _value) public view\n        returns (uint256) {\n\n        bytes32 h = keccak256(abi.encodePacked(\n            block.timestamp, block.timestamp\n        ));\n\n        bytes memory seed = abi.encodePacked(h);\n        uint256 result = uint256(keccak256(seed));\n\n        result = result % _value;\n\n        return result == 0 ? _value : result;\n    }\n\n    function generate(\n        uint256 quality_, uint256 id_, uint256 amount_\n    ) public view returns (uint64 tokenId) {\n        // quality - id - amount - timestamp\n        // 8 - 8 - 16 - 32\n\n        tokenId = 1 << 63;\n\n        tokenId = tokenId | uint64(uint8(quality_)) << BIT_QUALITY;\n        tokenId = tokenId | uint64(uint8(id_)) << BIT_HEROID;\n        tokenId = tokenId | uint64(uint16(amount_)) << BIT_AMOUNT;\n        tokenId = tokenId | uint64(uint32(block.timestamp)) << BIT_TIMESTAMP;\n    }\n\n    function analysis(uint64 tokenId_) public pure\n        returns (uint8, uint8, uint32) {\n\n        uint8 quality = uint8(tokenId_ >> BIT_QUALITY);\n        uint8 heroId = uint8(tokenId_ >> BIT_HEROID);\n        uint32 timestamp = uint32(tokenId_ >> BIT_TIMESTAMP);\n\n        return (quality, heroId, timestamp);\n    }\n}",
  "sourcePath": "/home/ace/Projects/eth/other/dragon-ball/contracts/utlis/Helper.sol",
  "compiler": {
    "name": "solc",
    "version": "0.7.6+commit.7338295f.Emscripten.clang"
  },
  "schemaVersion": "3.3.4",
  "updatedAt": "2021-08-13T03:59:38.139Z",
  "devdoc": {
    "author": "Bit Lighthouse. Ace AT: 2021-3-28 | VERSION: v1.0.2",
    "kind": "dev",
    "methods": {},
    "title": "The Three Kingdoms Helper",
    "version": 1
  },
  "userdoc": {
    "kind": "user",
    "methods": {},
    "version": 1
  }
}