{
    "contractName": "NFT",
    "abi": [
        {
            "anonymous": false,
            "inputs": [
                {
                    "indexed": false,
                    "internalType": "uint256",
                    "name": "picId",
                    "type": "uint256"
                }
            ],
            "name": "MintCardEvent",
            "type": "event",
            "signature": "0xe5a7741d2a8952d9ea0a93c8d51d0b4d062e6a1d6ccb25d56e22e0adaf24e71e"
        },
        {
            "inputs": [
                {
                    "internalType": "address[]",
                    "name": "users",
                    "type": "address[]"
                },
                {
                    "internalType": "uint256[]",
                    "name": "counts",
                    "type": "uint256[]"
                }
            ],
            "name": "alloc",
            "outputs": [],
            "stateMutability": "nonpayable",
            "type": "function",
            "signature": "0x740cc03f"
        },
        {
            "inputs": [
                {
                    "internalType": "uint256",
                    "name": "count",
                    "type": "uint256"
                }
            ],
            "name": "buy",
            "outputs": [],
            "stateMutability": "payable",
            "type": "function",
            "payable": true,
            "signature": "0xd96a094a"
        },
        {
            "inputs": [],
            "name": "feePrecent",
            "outputs": [
                {
                    "internalType": "uint256",
                    "name": "",
                    "type": "uint256"
                }
            ],
            "stateMutability": "view",
            "type": "function",
            "constant": true,
            "signature": "0x6e130f09"
        },
        {
            "inputs": [
                {
                    "internalType": "address",
                    "name": "",
                    "type": "address"
                }
            ],
            "name": "freeTimes",
            "outputs": [
                {
                    "internalType": "uint256",
                    "name": "",
                    "type": "uint256"
                }
            ],
            "stateMutability": "view",
            "type": "function",
            "constant": true,
            "signature": "0xcb5b5360"
        },
        {
            "inputs": [],
            "name": "initialize",
            "outputs": [],
            "stateMutability": "nonpayable",
            "type": "function",
            "signature": "0x8129fc1c"
        },
        {
            "inputs": [],
            "name": "leftCount",
            "outputs": [
                {
                    "internalType": "uint256",
                    "name": "",
                    "type": "uint256"
                }
            ],
            "stateMutability": "view",
            "type": "function",
            "constant": true,
            "signature": "0x2789209d"
        },
        {
            "inputs": [],
            "name": "pause",
            "outputs": [
                {
                    "internalType": "bool",
                    "name": "",
                    "type": "bool"
                }
            ],
            "stateMutability": "view",
            "type": "function",
            "constant": true,
            "signature": "0x8456cb59"
        },
        {
            "inputs": [],
            "name": "price",
            "outputs": [
                {
                    "internalType": "uint256",
                    "name": "",
                    "type": "uint256"
                }
            ],
            "stateMutability": "view",
            "type": "function",
            "constant": true,
            "signature": "0xa035b1fe"
        },
        {
            "inputs": [
                {
                    "internalType": "address[]",
                    "name": "users",
                    "type": "address[]"
                },
                {
                    "internalType": "uint256[]",
                    "name": "counts",
                    "type": "uint256[]"
                }
            ],
            "name": "setAlloc",
            "outputs": [],
            "stateMutability": "nonpayable",
            "type": "function",
            "signature": "0x913e3641"
        },
        {
            "inputs": [
                {
                    "internalType": "uint256",
                    "name": "d",
                    "type": "uint256"
                }
            ],
            "name": "setBoxCount",
            "outputs": [],
            "stateMutability": "nonpayable",
            "type": "function",
            "signature": "0x142648c4"
        },
        {
            "inputs": [
                {
                    "internalType": "uint256",
                    "name": "d",
                    "type": "uint256"
                }
            ],
            "name": "setFeePrecent",
            "outputs": [],
            "stateMutability": "nonpayable",
            "type": "function",
            "signature": "0x7169c255"
        },
        {
            "inputs": [
                {
                    "internalType": "bool",
                    "name": "d",
                    "type": "bool"
                }
            ],
            "name": "setPause",
            "outputs": [],
            "stateMutability": "nonpayable",
            "type": "function",
            "signature": "0xbedb86fb"
        },
        {
            "inputs": [
                {
                    "internalType": "uint256",
                    "name": "d",
                    "type": "uint256"
                }
            ],
            "name": "setPrice",
            "outputs": [],
            "stateMutability": "nonpayable",
            "type": "function",
            "signature": "0x91b7f5ed"
        },
        {
            "inputs": [
                {
                    "internalType": "uint256",
                    "name": "d",
                    "type": "uint256"
                }
            ],
            "name": "setSwapAndLiquifyThreshold",
            "outputs": [],
            "stateMutability": "nonpayable",
            "type": "function",
            "signature": "0xbf6b8266"
        },
        {
            "inputs": [],
            "name": "swapAndLiquifyByOwner",
            "outputs": [],
            "stateMutability": "nonpayable",
            "type": "function",
            "signature": "0x009d7796"
        },
        {
            "inputs": [],
            "name": "swapAndLiquifyThreshold",
            "outputs": [
                {
                    "internalType": "uint256",
                    "name": "",
                    "type": "uint256"
                }
            ],
            "stateMutability": "view",
            "type": "function",
            "constant": true,
            "signature": "0xf3bc9740"
        },
        {
            "inputs": [],
            "name": "usdtBalance",
            "outputs": [
                {
                    "internalType": "uint256",
                    "name": "",
                    "type": "uint256"
                }
            ],
            "stateMutability": "view",
            "type": "function",
            "constant": true,
            "signature": "0x482edb07"
        }
    ],
    "bytecode": "0x608060405234801561001057600080fd5b5060405161090138038061090183398181016040528101906100329190610144565b600061004261012760201b60201c565b9050806000806101000a81548173ffffffffffffffffffffffffffffffffffffffff021916908373ffffffffffffffffffffffffffffffffffffffff1602179055508073ffffffffffffffffffffffffffffffffffffffff16600073ffffffffffffffffffffffffffffffffffffffff167f8be0079c531659141344cd1fd0a4f28419497f9722a3daafe3b4186f6b6457e060405160405180910390a35080600160006101000a81548173ffffffffffffffffffffffffffffffffffffffff021916908373ffffffffffffffffffffffffffffffffffffffff160217905550506101bf565b600033905090565b60008151905061013e816101a8565b92915050565b60006020828403121561015a576101596101a3565b5b60006101688482850161012f565b91505092915050565b600061017c82610183565b9050919050565b600073ffffffffffffffffffffffffffffffffffffffff82169050919050565b600080fd5b6101b181610171565b81146101bc57600080fd5b50565b610733806101ce6000396000f3fe608060405234801561001057600080fd5b50600436106100575760003560e01c8063715018a61461005c5780637a9e5e4b146100665780638da5cb5b14610082578063bf7e214f146100a0578063f2fde38b146100be575b600080fd5b6100646100da565b005b610080600480360381019061007b91906104e9565b610214565b005b61008a6102d4565b604051610097919061057a565b60405180910390f35b6100a86102fd565b6040516100b59190610595565b60405180910390f35b6100d860048036038101906100d391906104e9565b610323565b005b6100e26104cc565b73ffffffffffffffffffffffffffffffffffffffff166101006102d4565b73ffffffffffffffffffffffffffffffffffffffff1614610156576040517f08c379a000000000000000000000000000000000000000000000000000000000815260040161014d906105d0565b60405180910390fd5b600073ffffffffffffffffffffffffffffffffffffffff1660008054906101000a900473ffffffffffffffffffffffffffffffffffffffff1673ffffffffffffffffffffffffffffffffffffffff167f8be0079c531659141344cd1fd0a4f28419497f9722a3daafe3b4186f6b6457e060405160405180910390a360008060006101000a81548173ffffffffffffffffffffffffffffffffffffffff021916908373ffffffffffffffffffffffffffffffffffffffff160217905550565b61021c6104cc565b73ffffffffffffffffffffffffffffffffffffffff1661023a6102d4565b73ffffffffffffffffffffffffffffffffffffffff1614610290576040517f08c379a0000000000000000000000000000000000000000000000000000000008152600401610287906105d0565b60405180910390fd5b80600160006101000a81548173ffffffffffffffffffffffffffffffffffffffff021916908373ffffffffffffffffffffffffffffffffffffffff16021790555050565b60008060009054906101000a900473ffffffffffffffffffffffffffffffffffffffff16905090565b600160009054906101000a900473ffffffffffffffffffffffffffffffffffffffff1681565b61032b6104cc565b73ffffffffffffffffffffffffffffffffffffffff166103496102d4565b73ffffffffffffffffffffffffffffffffffffffff161461039f576040517f08c379a0000000000000000000000000000000000000000000000000000000008152600401610396906105d0565b60405180910390fd5b600073ffffffffffffffffffffffffffffffffffffffff168173ffffffffffffffffffffffffffffffffffffffff16141561040f576040517f08c379a0000000000000000000000000000000000000000000000000000000008152600401610406906105b0565b60405180910390fd5b8073ffffffffffffffffffffffffffffffffffffffff1660008054906101000a900473ffffffffffffffffffffffffffffffffffffffff1673ffffffffffffffffffffffffffffffffffffffff167f8be0079c531659141344cd1fd0a4f28419497f9722a3daafe3b4186f6b6457e060405160405180910390a3806000806101000a81548173ffffffffffffffffffffffffffffffffffffffff021916908373ffffffffffffffffffffffffffffffffffffffff16021790555050565b600033905090565b6000813590506104e3816106e6565b92915050565b6000602082840312156104ff576104fe610669565b5b600061050d848285016104d4565b91505092915050565b61051f81610601565b82525050565b61052e81610633565b82525050565b60006105416026836105f0565b915061054c8261066e565b604082019050919050565b60006105646020836105f0565b915061056f826106bd565b602082019050919050565b600060208201905061058f6000830184610516565b92915050565b60006020820190506105aa6000830184610525565b92915050565b600060208201905081810360008301526105c981610534565b9050919050565b600060208201905081810360008301526105e981610557565b9050919050565b600082825260208201905092915050565b600061060c82610613565b9050919050565b600073ffffffffffffffffffffffffffffffffffffffff82169050919050565b600061063e82610645565b9050919050565b600061065082610657565b9050919050565b600061066282610613565b9050919050565b600080fd5b7f4f776e61626c653a206e6577206f776e657220697320746865207a65726f206160008201527f6464726573730000000000000000000000000000000000000000000000000000602082015250565b7f4f776e61626c653a2063616c6c6572206973206e6f7420746865206f776e6572600082015250565b6106ef81610601565b81146106fa57600080fd5b5056fea2646970667358221220aebe0005076ebcbe0c97705c5b7b40bd6dd61587c473e476e5c95dfdb81338ae64736f6c63430008070033",
    "immutableReferences": {},
    "source": "/**\n * @title Authority Of Administrator & Members\n *\n * @author Bit Lighthouse. Henry Mo\n * AT: 2021-07-02 | VERSION: v1.0.2\n */\n\n// SPDX-License-Identifier: SimPL-2.0\n\npragma solidity ^0.8.0;\n\nimport \"./Authority.sol\";\n\nimport \"@openzeppelin/contracts/access/Ownable.sol\";\n\ncontract Member is Ownable {\n    // Authority's manager\n    Authority public authority;\n\n    constructor(address authority_) {\n        authority = Authority(authority_);\n    }\n\n    /**\n     * @notice Check Operator Permit - modifier\n     * @param name_ name of permit\n     */\n    modifier CheckPermit(string memory name_) {\n        require(\n            authority.permits(msg.sender, name_),\n            \"Member: The operation is not allowed\"\n        );\n        _;\n    }\n\n    /**\n     * @notice Check Operation Permit - modifier\n     * @param name_ name of permit\n     */\n    modifier CheckStatus(string memory name_) {\n        require(\n            !authority.authorities(address(0), \"ALL\"),\n            \"Member: Maintenance upgrade in progress\"\n        );\n\n        require(\n            !authority.authorities(address(0), name_),\n            \"Member: The operation is under maintenance\"\n        );\n\n        require(\n            !authority.authorities(msg.sender, \"ALL\"),\n            \"Member: The operation is not allowed\"\n        );\n\n        require(\n            !authority.authorities(msg.sender, name_),\n            \"Member: The operation is not allowed\"\n        );\n        _;\n    }\n    \n    /**\n     * @notice Set new manager\n     * @param authority_ address of manager\n     *\n     * This function is onwer only\n     */\n    function setAuthority(address authority_) external\n        onlyOwner {\n        \n        authority = Authority(authority_);\n    }\n}",
    "sourcePath": "/home/ace/Projects/eth/other/dragon-ball/contracts/authority/Member.sol",
    "compiler": {
        "name": "solc",
        "version": "0.8.7+commit.e28d00a7.Emscripten.clang"
    },
    "schemaVersion": "3.3.4",
    "updatedAt": "2021-08-17T13:17:55.725Z",
    "devdoc": {
        "kind": "dev",
        "methods": {
            "owner()": {
                "details": "Returns the address of the current owner."
            },
            "renounceOwnership()": {
                "details": "Leaves the contract without owner. It will not be possible to call `onlyOwner` functions anymore. Can only be called by the current owner. NOTE: Renouncing ownership will leave the contract without an owner, thereby removing any functionality that is only available to the owner."
            },
            "setAuthority(address)": {
                "params": {
                    "authority_": "address of manager This function is onwer only"
                }
            },
            "transferOwnership(address)": {
                "details": "Transfers ownership of the contract to a new account (`newOwner`). Can only be called by the current owner."
            }
        },
        "version": 1
    },
    "userdoc": {
        "kind": "user",
        "methods": {
            "setAuthority(address)": {
                "notice": "Set new manager"
            }
        },
        "version": 1
    }
}