{
  "contractName": "NftLibrary",
  "abi": [
    {
      "inputs": [
        {
          "internalType": "uint8",
          "name": "quality_",
          "type": "uint8"
        },
        {
          "internalType": "uint8",
          "name": "heroId_",
          "type": "uint8"
        },
        {
          "internalType": "uint16",
          "name": "index_",
          "type": "uint16"
        }
      ],
      "name": "cLeft",
      "outputs": [
        {
          "internalType": "uint40",
          "name": "card",
          "type": "uint40"
        }
      ],
      "stateMutability": "pure",
      "type": "function",
      "constant": true
    },
    {
      "inputs": [
        {
          "internalType": "uint256",
          "name": "card",
          "type": "uint256"
        }
      ],
      "name": "cRight",
      "outputs": [
        {
          "internalType": "uint8",
          "name": "quality",
          "type": "uint8"
        },
        {
          "internalType": "uint8",
          "name": "heroId",
          "type": "uint8"
        }
      ],
      "stateMutability": "pure",
      "type": "function",
      "constant": true
    },
    {
      "inputs": [
        {
          "components": [
            {
              "internalType": "uint8",
              "name": "quality",
              "type": "uint8"
            },
            {
              "internalType": "uint16",
              "name": "heroId",
              "type": "uint16"
            },
            {
              "internalType": "uint16",
              "name": "rate",
              "type": "uint16"
            },
            {
              "internalType": "uint256",
              "name": "amount",
              "type": "uint256"
            }
          ],
          "internalType": "struct NftLibrary.DetailStruct",
          "name": "cs_",
          "type": "tuple"
        }
      ],
      "name": "tLeft",
      "outputs": [
        {
          "internalType": "uint104",
          "name": "tokenId",
          "type": "uint104"
        }
      ],
      "stateMutability": "view",
      "type": "function",
      "constant": true
    },
    {
      "inputs": [
        {
          "internalType": "uint104",
          "name": "tokenId_",
          "type": "uint104"
        }
      ],
      "name": "tRight",
      "outputs": [
        {
          "components": [
            {
              "internalType": "uint8",
              "name": "quality",
              "type": "uint8"
            },
            {
              "internalType": "uint16",
              "name": "heroId",
              "type": "uint16"
            },
            {
              "internalType": "uint16",
              "name": "rate",
              "type": "uint16"
            },
            {
              "internalType": "uint256",
              "name": "amount",
              "type": "uint256"
            }
          ],
          "internalType": "struct NftLibrary.DetailStruct",
          "name": "cs",
          "type": "tuple"
        }
      ],
      "stateMutability": "pure",
      "type": "function",
      "constant": true
    }
  ],
  "bytecode": "0x610792610053600b82828239805160001a607314610046577f4e487b7100000000000000000000000000000000000000000000000000000000600052600060045260246000fd5b30600052607381538281f3fe73000000000000000000000000000000000000000030146080604052600436106100565760003560e01c806378ba5d4a1461005b578063b7db31cb1461008b578063c018fb7f146100bb578063d6ebbcfb146100ec575b600080fd5b6100756004803603810190610070919061040e565b61011c565b60405161008291906105b2565b60405180910390f35b6100a560048036038101906100a09190610495565b6101ec565b6040516100b291906105cd565b60405180910390f35b6100d560048036038101906100d09190610468565b610233565b6040516100e39291906105e8565b60405180910390f35b6101066004803603810190610101919061043b565b61025d565b6040516101139190610597565b60405180910390f35b6000804263ffffffff166cffffffffffffffffffffffffff16901b602060ff16836060015163ffffffff166cffffffffffffffffffffffffff16901b604060ff16846040015161ffff166cffffffffffffffffffffffffff16901b605060ff16856000015160ff166cffffffffffffffffffffffffff16901b605060ff16866020015160ff166cffffffffffffffffffffffffff16901b605860ff16876000015160ff166cffffffffffffffffffffffffff16901b6c800000000000000000000000001717171717179050919050565b6000808261ffff1664ffffffffff16901b601060ff168460ff1664ffffffffff16901b601860ff168660ff1664ffffffffff16901b64800000000017171790509392505050565b600080601860ff168364ffffffffff16901c9150601060ff168364ffffffffff16901c9050915091565b61026561030f565b605860ff16826cffffffffffffffffffffffffff16901c816000019060ff16908160ff1681525050605060ff16826cffffffffffffffffffffffffff16901c60ff16816020019061ffff16908161ffff1681525050604060ff16826cffffffffffffffffffffffffff16901c816040019061ffff16908161ffff1681525050602060ff16826cffffffffffffffffffffffffff16901c63ffffffff16816060018181525050919050565b6040518060800160405280600060ff168152602001600061ffff168152602001600061ffff168152602001600081525090565b600060808284031215610358576103576106e5565b5b6103626080610611565b90506000610372848285016103f9565b6000830152506020610386848285016103cf565b602083015250604061039a848285016103cf565b60408301525060606103ae848285016103e4565b60608301525092915050565b6000813590506103c981610700565b92915050565b6000813590506103de81610717565b92915050565b6000813590506103f38161072e565b92915050565b60008135905061040881610745565b92915050565b600060808284031215610424576104236106ea565b5b600061043284828501610342565b91505092915050565b600060208284031215610451576104506106ea565b5b600061045f848285016103ba565b91505092915050565b60006020828403121561047e5761047d6106ea565b5b600061048c848285016103e4565b91505092915050565b6000806000606084860312156104ae576104ad6106ea565b5b60006104bc868287016103f9565b93505060206104cd868287016103f9565b92505060406104de868287016103cf565b9150509250925092565b6080820160008201516104fe6000850182610588565b506020820151610511602085018261054c565b506040820151610524604085018261054c565b506060820151610537606085018261055b565b50505050565b61054681610636565b82525050565b6105558161064f565b82525050565b6105648161065d565b82525050565b61057381610667565b82525050565b61058281610678565b82525050565b61059181610678565b82525050565b60006080820190506105ac60008301846104e8565b92915050565b60006020820190506105c7600083018461053d565b92915050565b60006020820190506105e2600083018461056a565b92915050565b60006040820190506105fd6000830185610579565b61060a6020830184610579565b9392505050565b600061061b61062c565b90506106278282610685565b919050565b6000604051905090565b60006cffffffffffffffffffffffffff82169050919050565b600061ffff82169050919050565b6000819050919050565b600064ffffffffff82169050919050565b600060ff82169050919050565b61068e826106ef565b810181811067ffffffffffffffff821117156106ad576106ac6106b6565b5b80604052505050565b7f4e487b7100000000000000000000000000000000000000000000000000000000600052604160045260246000fd5b600080fd5b600080fd5b6000601f19601f8301169050919050565b61070981610636565b811461071457600080fd5b50565b6107208161064f565b811461072b57600080fd5b50565b6107378161065d565b811461074257600080fd5b50565b61074e81610678565b811461075957600080fd5b5056fea264697066735822122075c74880c325592b865abffcc56adf0ac1887334ef23cfbe1b9b4773968820ae64736f6c63430008070033",
  "immutableReferences": {},
  "source": "// SPDX-License-Identifier: SimPL-2.0\n\npragma solidity ^0.8.0;\npragma experimental ABIEncoderV2;\n\nimport \"@openzeppelin/contracts/utils/structs/EnumerableSet.sol\";\n\n/**\n * @title For ERC721 Library\n *\n * @author Bit Lighthouse. Ace\n * AT: 2021-8-14 | VERSION: v1.0.2\n */\n\nlibrary NftLibrary {\n    using EnumerableSet for EnumerableSet.UintSet;\n\n    uint8 constant private BIT_QUALITY   = 24; // uint 8\n    uint8 constant private BIT_HEROID    = 16; // uint 8\n    uint8 constant private BIT_TQUALITY  = 88; // uint 8\n    uint8 constant private BIT_THEROID   = 80; // uint 8\n    uint8 constant private BIT_POWER     = 80; // uint 8\n    uint8 constant private BIT_CARDRATE  = 64; // uint 32\n    uint8 constant private BIT_AMOUNT    = 32; // uint 32\n\n    function cLeft(\n        uint8 quality_, uint8 heroId_, uint16 index_\n    ) public pure returns (uint40 card) {\n\n        card = 1 << 39 |\n        uint40(uint8(quality_)) << BIT_QUALITY |\n        uint40(uint8(heroId_))  << BIT_HEROID |\n        uint40(uint16(index_))  << 0;\n    }\n\n    function cRight(uint256 card) public pure returns\n        (uint8 quality, uint8 heroId) {\n        \n        quality = uint8(uint40(card) >> BIT_QUALITY);\n        heroId  = uint8(uint40(card) >> BIT_HEROID);\n    }\n\n    function tLeft(DetailStruct memory cs_) public\n        view returns (uint104 tokenId) {\n\n        tokenId = 1 << 103 |\n        uint104(uint8(cs_.quality))  << BIT_TQUALITY |\n        uint104(uint8(cs_.heroId))   << BIT_THEROID |\n        uint104(uint8(cs_.quality))  << BIT_POWER |\n        uint104(uint16(cs_.rate))    << BIT_CARDRATE |\n        uint104(uint32(cs_.amount))  << BIT_AMOUNT |\n        uint104(uint32(block.timestamp)) << 0;\n    }\n\n    function tRight(uint104 tokenId_) public pure\n        returns (DetailStruct memory cs) {\n\n        cs.quality = uint8(tokenId_  >> BIT_TQUALITY);\n        cs.heroId  = uint8(tokenId_  >> BIT_THEROID);\n        cs.rate    = uint16(tokenId_ >> BIT_CARDRATE);\n        cs.amount  = uint32(tokenId_ >> BIT_AMOUNT);\n    }\n\n    struct UserStruct { uint256 powers; uint256 period; uint256 exchange; }\n\n    struct RecordStruct { uint256 powers; uint256 reward; uint104[] specials; }\n\n    struct DetailStruct { uint8 quality; uint16 heroId; uint16 rate; uint256 amount; }\n}",
  "sourcePath": "/home/ace/Projects/eth/other/dragon-ball/contracts/libraries/NftLibrary.sol",
  "compiler": {
    "name": "solc",
    "version": "0.8.7+commit.e28d00a7.Emscripten.clang"
  },
  "schemaVersion": "3.3.4",
  "updatedAt": "2021-08-17T13:18:31.004Z",
  "networkType": "ethereum",
  "devdoc": {
    "author": "Bit Lighthouse. Ace AT: 2021-8-14 | VERSION: v1.0.2",
    "kind": "dev",
    "methods": {},
    "title": "For ERC721 Library",
    "version": 1
  },
  "userdoc": {
    "kind": "user",
    "methods": {},
    "version": 1
  }
}