{
  "contractName": "Token",
  "abi": [
    {
      "inputs": [
        {
          "internalType": "address",
          "name": "auth_",
          "type": "address"
        }
      ],
      "stateMutability": "nonpayable",
      "type": "constructor"
    },
    {
      "anonymous": false,
      "inputs": [
        {
          "indexed": true,
          "internalType": "address",
          "name": "owner",
          "type": "address"
        },
        {
          "indexed": true,
          "internalType": "address",
          "name": "spender",
          "type": "address"
        },
        {
          "indexed": false,
          "internalType": "uint256",
          "name": "value",
          "type": "uint256"
        }
      ],
      "name": "Approval",
      "type": "event"
    },
    {
      "anonymous": false,
      "inputs": [
        {
          "indexed": true,
          "internalType": "address",
          "name": "previousOwner",
          "type": "address"
        },
        {
          "indexed": true,
          "internalType": "address",
          "name": "newOwner",
          "type": "address"
        }
      ],
      "name": "OwnershipTransferred",
      "type": "event"
    },
    {
      "anonymous": false,
      "inputs": [
        {
          "indexed": true,
          "internalType": "address",
          "name": "from",
          "type": "address"
        },
        {
          "indexed": true,
          "internalType": "address",
          "name": "to",
          "type": "address"
        },
        {
          "indexed": false,
          "internalType": "uint256",
          "name": "value",
          "type": "uint256"
        }
      ],
      "name": "Transfer",
      "type": "event"
    },
    {
      "inputs": [
        {
          "internalType": "address",
          "name": "owner",
          "type": "address"
        },
        {
          "internalType": "address",
          "name": "spender",
          "type": "address"
        }
      ],
      "name": "allowance",
      "outputs": [
        {
          "internalType": "uint256",
          "name": "",
          "type": "uint256"
        }
      ],
      "stateMutability": "view",
      "type": "function",
      "constant": true
    },
    {
      "inputs": [
        {
          "internalType": "address",
          "name": "spender",
          "type": "address"
        },
        {
          "internalType": "uint256",
          "name": "amount",
          "type": "uint256"
        }
      ],
      "name": "approve",
      "outputs": [
        {
          "internalType": "bool",
          "name": "",
          "type": "bool"
        }
      ],
      "stateMutability": "nonpayable",
      "type": "function"
    },
    {
      "inputs": [],
      "name": "authority",
      "outputs": [
        {
          "internalType": "contract Authority",
          "name": "",
          "type": "address"
        }
      ],
      "stateMutability": "view",
      "type": "function",
      "constant": true
    },
    {
      "inputs": [
        {
          "internalType": "address",
          "name": "account",
          "type": "address"
        }
      ],
      "name": "balanceOf",
      "outputs": [
        {
          "internalType": "uint256",
          "name": "",
          "type": "uint256"
        }
      ],
      "stateMutability": "view",
      "type": "function",
      "constant": true
    },
    {
      "inputs": [],
      "name": "decimals",
      "outputs": [
        {
          "internalType": "uint8",
          "name": "",
          "type": "uint8"
        }
      ],
      "stateMutability": "view",
      "type": "function",
      "constant": true
    },
    {
      "inputs": [
        {
          "internalType": "address",
          "name": "spender",
          "type": "address"
        },
        {
          "internalType": "uint256",
          "name": "subtractedValue",
          "type": "uint256"
        }
      ],
      "name": "decreaseAllowance",
      "outputs": [
        {
          "internalType": "bool",
          "name": "",
          "type": "bool"
        }
      ],
      "stateMutability": "nonpayable",
      "type": "function"
    },
    {
      "inputs": [
        {
          "internalType": "address",
          "name": "spender",
          "type": "address"
        },
        {
          "internalType": "uint256",
          "name": "addedValue",
          "type": "uint256"
        }
      ],
      "name": "increaseAllowance",
      "outputs": [
        {
          "internalType": "bool",
          "name": "",
          "type": "bool"
        }
      ],
      "stateMutability": "nonpayable",
      "type": "function"
    },
    {
      "inputs": [],
      "name": "name",
      "outputs": [
        {
          "internalType": "string",
          "name": "",
          "type": "string"
        }
      ],
      "stateMutability": "view",
      "type": "function",
      "constant": true
    },
    {
      "inputs": [],
      "name": "owner",
      "outputs": [
        {
          "internalType": "address",
          "name": "",
          "type": "address"
        }
      ],
      "stateMutability": "view",
      "type": "function",
      "constant": true
    },
    {
      "inputs": [],
      "name": "renounceOwnership",
      "outputs": [],
      "stateMutability": "nonpayable",
      "type": "function"
    },
    {
      "inputs": [
        {
          "internalType": "address",
          "name": "authority_",
          "type": "address"
        }
      ],
      "name": "setAuthority",
      "outputs": [],
      "stateMutability": "nonpayable",
      "type": "function"
    },
    {
      "inputs": [],
      "name": "symbol",
      "outputs": [
        {
          "internalType": "string",
          "name": "",
          "type": "string"
        }
      ],
      "stateMutability": "view",
      "type": "function",
      "constant": true
    },
    {
      "inputs": [],
      "name": "totalSupply",
      "outputs": [
        {
          "internalType": "uint256",
          "name": "",
          "type": "uint256"
        }
      ],
      "stateMutability": "view",
      "type": "function",
      "constant": true
    },
    {
      "inputs": [
        {
          "internalType": "address",
          "name": "newOwner",
          "type": "address"
        }
      ],
      "name": "transferOwnership",
      "outputs": [],
      "stateMutability": "nonpayable",
      "type": "function"
    },
    {
      "inputs": [
        {
          "internalType": "uint256",
          "name": "index",
          "type": "uint256"
        },
        {
          "internalType": "uint256",
          "name": "rate",
          "type": "uint256"
        }
      ],
      "name": "setTransferRate",
      "outputs": [],
      "stateMutability": "nonpayable",
      "type": "function"
    },
    {
      "inputs": [
        {
          "internalType": "address",
          "name": "target",
          "type": "address"
        },
        {
          "internalType": "bool",
          "name": "enable",
          "type": "bool"
        }
      ],
      "name": "setWhiteList",
      "outputs": [],
      "stateMutability": "nonpayable",
      "type": "function"
    },
    {
      "inputs": [
        {
          "internalType": "address",
          "name": "recipient",
          "type": "address"
        },
        {
          "internalType": "uint256",
          "name": "amount",
          "type": "uint256"
        }
      ],
      "name": "transfer",
      "outputs": [
        {
          "internalType": "bool",
          "name": "success",
          "type": "bool"
        }
      ],
      "stateMutability": "nonpayable",
      "type": "function"
    },
    {
      "inputs": [
        {
          "internalType": "address",
          "name": "sender",
          "type": "address"
        },
        {
          "internalType": "address",
          "name": "recipient",
          "type": "address"
        },
        {
          "internalType": "uint256",
          "name": "amount",
          "type": "uint256"
        }
      ],
      "name": "transferFrom",
      "outputs": [
        {
          "internalType": "bool",
          "name": "success",
          "type": "bool"
        }
      ],
      "stateMutability": "nonpayable",
      "type": "function"
    }
  ],
  "bytecode": "0x608060405260405180606001604052806040518060400160405280600581526020017f464f554e4400000000000000000000000000000000000000000000000000000081525081526020016040518060400160405280600981526020017f455854454e53494f4e000000000000000000000000000000000000000000000081525081526020016040518060400160405280600981526020017f424c41434b484f4c4500000000000000000000000000000000000000000000008152508152506007906003620000d0929190620004f5565b506040518060600160405280600560ff168152602001600360ff168152602001600260ff1681525060089060036200010a9291906200055c565b503480156200011857600080fd5b50604051620033583803806200335883398181016040528101906200013e9190620006e8565b6040518060400160405280600b81526020017f447261676f6e2042616c6c0000000000000000000000000000000000000000008152506040518060400160405280600481526020017f4442465a00000000000000000000000000000000000000000000000000000000815250826000620001bd6200037960201b60201c565b9050806000806101000a81548173ffffffffffffffffffffffffffffffffffffffff021916908373ffffffffffffffffffffffffffffffffffffffff1602179055508073ffffffffffffffffffffffffffffffffffffffff16600073ffffffffffffffffffffffffffffffffffffffff167f8be0079c531659141344cd1fd0a4f28419497f9722a3daafe3b4186f6b6457e060405160405180910390a35080600160006101000a81548173ffffffffffffffffffffffffffffffffffffffff021916908373ffffffffffffffffffffffffffffffffffffffff160217905550508160059080519060200190620002b5929190620005b3565b508060069080519060200190620002ce929190620005b3565b5050506000620002e36200038160201b60201c565b60ff16600a620002f491906200085a565b9050620003193382633b9aca006200030d919062000997565b6200038a60201b60201c565b6001600960003373ffffffffffffffffffffffffffffffffffffffff1673ffffffffffffffffffffffffffffffffffffffff16815260200190815260200160002060006101000a81548160ff021916908315150217905550505062000b1f565b600033905090565b60006012905090565b600073ffffffffffffffffffffffffffffffffffffffff168273ffffffffffffffffffffffffffffffffffffffff161415620003fd576040517f08c379a0000000000000000000000000000000000000000000000000000000008152600401620003f49062000752565b60405180910390fd5b6200041160008383620004f060201b60201c565b8060046000828254620004259190620007a2565b9250508190555080600260008473ffffffffffffffffffffffffffffffffffffffff1673ffffffffffffffffffffffffffffffffffffffff16815260200190815260200160002060008282546200047d9190620007a2565b925050819055508173ffffffffffffffffffffffffffffffffffffffff16600073ffffffffffffffffffffffffffffffffffffffff167fddf252ad1be2c89b69c2b068fc378daa952ba7f163c4a11628f55a4df523b3ef83604051620004e4919062000774565b60405180910390a35050565b505050565b82805482825590600052602060002090810192821562000549579160200282015b828111156200054857825182908051906020019062000537929190620005b3565b509160200191906001019062000516565b5b50905062000558919062000644565b5090565b828054828255906000526020600020908101928215620005a0579160200282015b828111156200059f578251829060ff169055916020019190600101906200057d565b5b509050620005af91906200066c565b5090565b828054620005c19062000a36565b90600052602060002090601f016020900481019282620005e5576000855562000631565b82601f106200060057805160ff191683800117855562000631565b8280016001018555821562000631579182015b828111156200063057825182559160200191906001019062000613565b5b5090506200064091906200066c565b5090565b5b808211156200066857600081816200065e91906200068b565b5060010162000645565b5090565b5b80821115620006875760008160009055506001016200066d565b5090565b508054620006999062000a36565b6000825580601f10620006ad5750620006ce565b601f016020900490600052602060002090810190620006cd91906200066c565b5b50565b600081519050620006e28162000b05565b92915050565b60006020828403121562000701576200070062000aca565b5b60006200071184828501620006d1565b91505092915050565b600062000729601f8362000791565b9150620007368262000adc565b602082019050919050565b6200074c8162000a2c565b82525050565b600060208201905081810360008301526200076d816200071a565b9050919050565b60006020820190506200078b600083018462000741565b92915050565b600082825260208201905092915050565b6000620007af8262000a2c565b9150620007bc8362000a2c565b9250827fffffffffffffffffffffffffffffffffffffffffffffffffffffffffffffffff03821115620007f457620007f362000a6c565b5b828201905092915050565b6000808291508390505b6001851115620008515780860481111562000829576200082862000a6c565b5b6001851615620008395780820291505b8081029050620008498562000acf565b945062000809565b94509492505050565b6000620008678262000a2c565b9150620008748362000a2c565b9250620008a37fffffffffffffffffffffffffffffffffffffffffffffffffffffffffffffffff8484620008ab565b905092915050565b600082620008bd576001905062000990565b81620008cd576000905062000990565b8160018114620008e65760028114620008f15762000927565b600191505062000990565b60ff84111562000906576200090562000a6c565b5b8360020a91508482111562000920576200091f62000a6c565b5b5062000990565b5060208310610133831016604e8410600b8410161715620009615782820a9050838111156200095b576200095a62000a6c565b5b62000990565b620009708484846001620007ff565b925090508184048111156200098a576200098962000a6c565b5b81810290505b9392505050565b6000620009a48262000a2c565b9150620009b18362000a2c565b9250817fffffffffffffffffffffffffffffffffffffffffffffffffffffffffffffffff0483118215151615620009ed57620009ec62000a6c565b5b828202905092915050565b600062000a058262000a0c565b9050919050565b600073ffffffffffffffffffffffffffffffffffffffff82169050919050565b6000819050919050565b6000600282049050600182168062000a4f57607f821691505b6020821081141562000a665762000a6562000a9b565b5b50919050565b7f4e487b7100000000000000000000000000000000000000000000000000000000600052601160045260246000fd5b7f4e487b7100000000000000000000000000000000000000000000000000000000600052602260045260246000fd5b600080fd5b60008160011c9050919050565b7f45524332303a206d696e7420746f20746865207a65726f206164647265737300600082015250565b62000b1081620009f8565b811462000b1c57600080fd5b50565b6128298062000b2f6000396000f3fe608060405234801561001057600080fd5b50600436106101165760003560e01c80637a9e5e4b116100a2578063a457c2d711610071578063a457c2d7146102cf578063a9059cbb146102ff578063bf7e214f1461032f578063dd62ed3e1461034d578063f2fde38b1461037d57610116565b80637a9e5e4b1461025b5780638d14e127146102775780638da5cb5b1461029357806395d89b41146102b157610116565b8063313ce567116100e9578063313ce567146101b757806339509351146101d55780635d5696ad1461020557806370a0823114610221578063715018a61461025157610116565b806306fdde031461011b578063095ea7b31461013957806318160ddd1461016957806323b872dd14610187575b600080fd5b610123610399565b6040516101309190611f2a565b60405180910390f35b610153600480360381019061014e9190611ba6565b61042b565b6040516101609190611ef4565b60405180910390f35b610171610449565b60405161017e91906120ac565b60405180910390f35b6101a1600480360381019061019c9190611b13565b610453565b6040516101ae9190611ef4565b60405180910390f35b6101bf6104c1565b6040516101cc91906120c7565b60405180910390f35b6101ef60048036038101906101ea9190611ba6565b6104ca565b6040516101fc9190611ef4565b60405180910390f35b61021f600480360381019061021a9190611c13565b610576565b005b61023b60048036038101906102369190611a79565b6106c0565b60405161024891906120ac565b60405180910390f35b610259610709565b005b61027560048036038101906102709190611a79565b610843565b005b610291600480360381019061028c9190611b66565b610903565b005b61029b610a81565b6040516102a89190611e7b565b60405180910390f35b6102b9610aaa565b6040516102c69190611f2a565b60405180910390f35b6102e960048036038101906102e49190611ba6565b610b3c565b6040516102f69190611ef4565b60405180910390f35b61031960048036038101906103149190611ba6565b610c30565b6040516103269190611ef4565b60405180910390f35b610337610c4e565b6040516103449190611f0f565b60405180910390f35b61036760048036038101906103629190611ad3565b610c74565b60405161037491906120ac565b60405180910390f35b61039760048036038101906103929190611a79565b610cfb565b005b6060600580546103a8906122d1565b80601f01602080910402602001604051908101604052809291908181526020018280546103d4906122d1565b80156104215780601f106103f657610100808354040283529160200191610421565b820191906000526020600020905b81548152906001019060200180831161040457829003601f168201915b5050505050905090565b600061043f610438610ea4565b8484610eac565b6001905092915050565b6000600454905090565b60008061046785610462610ea4565b610c74565b9050610496836040518060600160405280602881526020016127cc60289139836110779092919063ffffffff16565b90506104aa856104a4610ea4565b83610eac565b6104b58585856110cc565b60019150509392505050565b60006012905090565b600061056c6104d7610ea4565b8484600360006104e5610ea4565b73ffffffffffffffffffffffffffffffffffffffff1673ffffffffffffffffffffffffffffffffffffffff16815260200190815260200160002060008873ffffffffffffffffffffffffffffffffffffffff1673ffffffffffffffffffffffffffffffffffffffff1681526020019081526020016000205461056791906120fe565b610eac565b6001905092915050565b6040518060400160405280600681526020017f434f4e4649470000000000000000000000000000000000000000000000000000815250600160009054906101000a900473ffffffffffffffffffffffffffffffffffffffff1673ffffffffffffffffffffffffffffffffffffffff1663f5e65c7233836040518363ffffffff1660e01b8152600401610609929190611e96565b60206040518083038186803b15801561062157600080fd5b505afa158015610635573d6000803e3d6000fd5b505050506040513d601f19601f820116820180604052508101906106599190611be6565b610698576040517f08c379a000000000000000000000000000000000000000000000000000000000815260040161068f9061206c565b60405180910390fd5b81600884815481106106ad576106ac6123d9565b5b9060005260206000200181905550505050565b6000600260008373ffffffffffffffffffffffffffffffffffffffff1673ffffffffffffffffffffffffffffffffffffffff168152602001908152602001600020549050919050565b610711610ea4565b73ffffffffffffffffffffffffffffffffffffffff1661072f610a81565b73ffffffffffffffffffffffffffffffffffffffff1614610785576040517f08c379a000000000000000000000000000000000000000000000000000000000815260040161077c9061200c565b60405180910390fd5b600073ffffffffffffffffffffffffffffffffffffffff1660008054906101000a900473ffffffffffffffffffffffffffffffffffffffff1673ffffffffffffffffffffffffffffffffffffffff167f8be0079c531659141344cd1fd0a4f28419497f9722a3daafe3b4186f6b6457e060405160405180910390a360008060006101000a81548173ffffffffffffffffffffffffffffffffffffffff021916908373ffffffffffffffffffffffffffffffffffffffff160217905550565b61084b610ea4565b73ffffffffffffffffffffffffffffffffffffffff16610869610a81565b73ffffffffffffffffffffffffffffffffffffffff16146108bf576040517f08c379a00000000000000000000000000000000000000000000000000000000081526004016108b69061200c565b60405180910390fd5b80600160006101000a81548173ffffffffffffffffffffffffffffffffffffffff021916908373ffffffffffffffffffffffffffffffffffffffff16021790555050565b6040518060400160405280600681526020017f434f4e4649470000000000000000000000000000000000000000000000000000815250600160009054906101000a900473ffffffffffffffffffffffffffffffffffffffff1673ffffffffffffffffffffffffffffffffffffffff1663f5e65c7233836040518363ffffffff1660e01b8152600401610996929190611e96565b60206040518083038186803b1580156109ae57600080fd5b505afa1580156109c2573d6000803e3d6000fd5b505050506040513d601f19601f820116820180604052508101906109e69190611be6565b610a25576040517f08c379a0000000000000000000000000000000000000000000000000000000008152600401610a1c9061206c565b60405180910390fd5b81600960008573ffffffffffffffffffffffffffffffffffffffff1673ffffffffffffffffffffffffffffffffffffffff16815260200190815260200160002060006101000a81548160ff021916908315150217905550505050565b60008060009054906101000a900473ffffffffffffffffffffffffffffffffffffffff16905090565b606060068054610ab9906122d1565b80601f0160208091040260200160405190810160405280929190818152602001828054610ae5906122d1565b8015610b325780601f10610b0757610100808354040283529160200191610b32565b820191906000526020600020905b815481529060010190602001808311610b1557829003601f168201915b5050505050905090565b60008060036000610b4b610ea4565b73ffffffffffffffffffffffffffffffffffffffff1673ffffffffffffffffffffffffffffffffffffffff16815260200190815260200160002060008573ffffffffffffffffffffffffffffffffffffffff1673ffffffffffffffffffffffffffffffffffffffff16815260200190815260200160002054905082811015610c08576040517f08c379a0000000000000000000000000000000000000000000000000000000008152600401610bff9061208c565b60405180910390fd5b610c25610c13610ea4565b858584610c2091906121df565b610eac565b600191505092915050565b6000610c44610c3d610ea4565b84846110cc565b6001905092915050565b600160009054906101000a900473ffffffffffffffffffffffffffffffffffffffff1681565b6000600360008473ffffffffffffffffffffffffffffffffffffffff1673ffffffffffffffffffffffffffffffffffffffff16815260200190815260200160002060008373ffffffffffffffffffffffffffffffffffffffff1673ffffffffffffffffffffffffffffffffffffffff16815260200190815260200160002054905092915050565b610d03610ea4565b73ffffffffffffffffffffffffffffffffffffffff16610d21610a81565b73ffffffffffffffffffffffffffffffffffffffff1614610d77576040517f08c379a0000000000000000000000000000000000000000000000000000000008152600401610d6e9061200c565b60405180910390fd5b600073ffffffffffffffffffffffffffffffffffffffff168173ffffffffffffffffffffffffffffffffffffffff161415610de7576040517f08c379a0000000000000000000000000000000000000000000000000000000008152600401610dde90611f6c565b60405180910390fd5b8073ffffffffffffffffffffffffffffffffffffffff1660008054906101000a900473ffffffffffffffffffffffffffffffffffffffff1673ffffffffffffffffffffffffffffffffffffffff167f8be0079c531659141344cd1fd0a4f28419497f9722a3daafe3b4186f6b6457e060405160405180910390a3806000806101000a81548173ffffffffffffffffffffffffffffffffffffffff021916908373ffffffffffffffffffffffffffffffffffffffff16021790555050565b600033905090565b600073ffffffffffffffffffffffffffffffffffffffff168373ffffffffffffffffffffffffffffffffffffffff161415610f1c576040517f08c379a0000000000000000000000000000000000000000000000000000000008152600401610f139061204c565b60405180910390fd5b600073ffffffffffffffffffffffffffffffffffffffff168273ffffffffffffffffffffffffffffffffffffffff161415610f8c576040517f08c379a0000000000000000000000000000000000000000000000000000000008152600401610f8390611f8c565b60405180910390fd5b80600360008573ffffffffffffffffffffffffffffffffffffffff1673ffffffffffffffffffffffffffffffffffffffff16815260200190815260200160002060008473ffffffffffffffffffffffffffffffffffffffff1673ffffffffffffffffffffffffffffffffffffffff168152602001908152602001600020819055508173ffffffffffffffffffffffffffffffffffffffff168373ffffffffffffffffffffffffffffffffffffffff167f8c5be1e5ebec7d5bd14f71427d1e84f3dd0314c0f7b2291e5b200ac8c7c3b9258360405161106a91906120ac565b60405180910390a3505050565b60008383111582906110bf576040517f08c379a00000000000000000000000000000000000000000000000000000000081526004016110b69190611f2a565b60405180910390fd5b5082840390509392505050565b6040518060400160405280600881526020017f5452414e53464552000000000000000000000000000000000000000000000000815250600160009054906101000a900473ffffffffffffffffffffffffffffffffffffffff1673ffffffffffffffffffffffffffffffffffffffff1663466f98e860006040518263ffffffff1660e01b815260040161115e9190611ec6565b60206040518083038186803b15801561117657600080fd5b505afa15801561118a573d6000803e3d6000fd5b505050506040513d601f19601f820116820180604052508101906111ae9190611be6565b156111ee576040517f08c379a00000000000000000000000000000000000000000000000000000000081526004016111e590611fcc565b60405180910390fd5b600160009054906101000a900473ffffffffffffffffffffffffffffffffffffffff1673ffffffffffffffffffffffffffffffffffffffff1663466f98e86000836040518363ffffffff1660e01b815260040161124c929190611e96565b60206040518083038186803b15801561126457600080fd5b505afa158015611278573d6000803e3d6000fd5b505050506040513d601f19601f8201168201806040525081019061129c9190611be6565b156112dc576040517f08c379a00000000000000000000000000000000000000000000000000000000081526004016112d390611fec565b60405180910390fd5b600160009054906101000a900473ffffffffffffffffffffffffffffffffffffffff1673ffffffffffffffffffffffffffffffffffffffff1663466f98e8336040518263ffffffff1660e01b81526004016113379190611ec6565b60206040518083038186803b15801561134f57600080fd5b505afa158015611363573d6000803e3d6000fd5b505050506040513d601f19601f820116820180604052508101906113879190611be6565b156113c7576040517f08c379a00000000000000000000000000000000000000000000000000000000081526004016113be9061206c565b60405180910390fd5b600160009054906101000a900473ffffffffffffffffffffffffffffffffffffffff1673ffffffffffffffffffffffffffffffffffffffff1663466f98e833836040518363ffffffff1660e01b8152600401611424929190611e96565b60206040518083038186803b15801561143c57600080fd5b505afa158015611450573d6000803e3d6000fd5b505050506040513d601f19601f820116820180604052508101906114749190611be6565b156114b4576040517f08c379a00000000000000000000000000000000000000000000000000000000081526004016114ab9061206c565b60405180910390fd5b60001515600960008673ffffffffffffffffffffffffffffffffffffffff1673ffffffffffffffffffffffffffffffffffffffff16815260200190815260200160002060009054906101000a900460ff16151514156117355760006115366064611528600a8661174790919063ffffffff16565b61175d90919063ffffffff16565b905060005b60088054905081101561170b5760006007828154811061155e5761155d6123d9565b5b906000526020600020018054611573906122d1565b80601f016020809104026020016040519081016040528092919081815260200182805461159f906122d1565b80156115ec5780601f106115c1576101008083540402835291602001916115ec565b820191906000526020600020905b8154815290600101906020018083116115cf57829003601f168201915b505050505090506000600160009054906101000a900473ffffffffffffffffffffffffffffffffffffffff1673ffffffffffffffffffffffffffffffffffffffff16636957a0b2836040518263ffffffff1660e01b81526004016116509190611f2a565b60206040518083038186803b15801561166857600080fd5b505afa15801561167c573d6000803e3d6000fd5b505050506040513d601f19601f820116820180604052508101906116a09190611aa6565b905060006116d5600885815481106116bb576116ba6123d9565b5b90600052602060002001548661174790919063ffffffff16565b90506116f589836116f060648561175d90919063ffffffff16565b611773565b505050808061170390612303565b91505061153b565b50600061172182856119f590919063ffffffff16565b905061172e868683611773565b5050611741565b611740848484611773565b5b50505050565b600081836117559190612185565b905092915050565b6000818361176b9190612154565b905092915050565b600073ffffffffffffffffffffffffffffffffffffffff168373ffffffffffffffffffffffffffffffffffffffff1614156117e3576040517f08c379a00000000000000000000000000000000000000000000000000000000081526004016117da9061202c565b60405180910390fd5b600073ffffffffffffffffffffffffffffffffffffffff168273ffffffffffffffffffffffffffffffffffffffff161415611853576040517f08c379a000000000000000000000000000000000000000000000000000000000815260040161184a90611f4c565b60405180910390fd5b61185e838383611a0b565b6000600260008573ffffffffffffffffffffffffffffffffffffffff1673ffffffffffffffffffffffffffffffffffffffff168152602001908152602001600020549050818110156118e5576040517f08c379a00000000000000000000000000000000000000000000000000000000081526004016118dc90611fac565b60405180910390fd5b81816118f191906121df565b600260008673ffffffffffffffffffffffffffffffffffffffff1673ffffffffffffffffffffffffffffffffffffffff1681526020019081526020016000208190555081600260008573ffffffffffffffffffffffffffffffffffffffff1673ffffffffffffffffffffffffffffffffffffffff168152602001908152602001600020600082825461198391906120fe565b925050819055508273ffffffffffffffffffffffffffffffffffffffff168473ffffffffffffffffffffffffffffffffffffffff167fddf252ad1be2c89b69c2b068fc378daa952ba7f163c4a11628f55a4df523b3ef846040516119e791906120ac565b60405180910390a350505050565b60008183611a0391906121df565b905092915050565b505050565b600081359050611a1f81612786565b92915050565b600081519050611a3481612786565b92915050565b600081359050611a498161279d565b92915050565b600081519050611a5e8161279d565b92915050565b600081359050611a73816127b4565b92915050565b600060208284031215611a8f57611a8e612408565b5b6000611a9d84828501611a10565b91505092915050565b600060208284031215611abc57611abb612408565b5b6000611aca84828501611a25565b91505092915050565b60008060408385031215611aea57611ae9612408565b5b6000611af885828601611a10565b9250506020611b0985828601611a10565b9150509250929050565b600080600060608486031215611b2c57611b2b612408565b5b6000611b3a86828701611a10565b9350506020611b4b86828701611a10565b9250506040611b5c86828701611a64565b9150509250925092565b60008060408385031215611b7d57611b7c612408565b5b6000611b8b85828601611a10565b9250506020611b9c85828601611a3a565b9150509250929050565b60008060408385031215611bbd57611bbc612408565b5b6000611bcb85828601611a10565b9250506020611bdc85828601611a64565b9150509250929050565b600060208284031215611bfc57611bfb612408565b5b6000611c0a84828501611a4f565b91505092915050565b60008060408385031215611c2a57611c29612408565b5b6000611c3885828601611a64565b9250506020611c4985828601611a64565b9150509250929050565b611c5c81612213565b82525050565b611c6b81612225565b82525050565b611c7a81612268565b82525050565b6000611c8b826120e2565b611c9581856120ed565b9350611ca581856020860161229e565b611cae8161240d565b840191505092915050565b6000611cc66023836120ed565b9150611cd18261241e565b604082019050919050565b6000611ce96026836120ed565b9150611cf48261246d565b604082019050919050565b6000611d0c6022836120ed565b9150611d17826124bc565b604082019050919050565b6000611d2f6026836120ed565b9150611d3a8261250b565b604082019050919050565b6000611d526027836120ed565b9150611d5d8261255a565b604082019050919050565b6000611d75602a836120ed565b9150611d80826125a9565b604082019050919050565b6000611d986020836120ed565b9150611da3826125f8565b602082019050919050565b6000611dbb6003836120ed565b9150611dc682612621565b602082019050919050565b6000611dde6025836120ed565b9150611de98261264a565b604082019050919050565b6000611e016024836120ed565b9150611e0c82612699565b604082019050919050565b6000611e246024836120ed565b9150611e2f826126e8565b604082019050919050565b6000611e476025836120ed565b9150611e5282612737565b604082019050919050565b611e6681612251565b82525050565b611e758161225b565b82525050565b6000602082019050611e906000830184611c53565b92915050565b6000604082019050611eab6000830185611c53565b8181036020830152611ebd8184611c80565b90509392505050565b6000604082019050611edb6000830184611c53565b8181036020830152611eec81611dae565b905092915050565b6000602082019050611f096000830184611c62565b92915050565b6000602082019050611f246000830184611c71565b92915050565b60006020820190508181036000830152611f448184611c80565b905092915050565b60006020820190508181036000830152611f6581611cb9565b9050919050565b60006020820190508181036000830152611f8581611cdc565b9050919050565b60006020820190508181036000830152611fa581611cff565b9050919050565b60006020820190508181036000830152611fc581611d22565b9050919050565b60006020820190508181036000830152611fe581611d45565b9050919050565b6000602082019050818103600083015261200581611d68565b9050919050565b6000602082019050818103600083015261202581611d8b565b9050919050565b6000602082019050818103600083015261204581611dd1565b9050919050565b6000602082019050818103600083015261206581611df4565b9050919050565b6000602082019050818103600083015261208581611e17565b9050919050565b600060208201905081810360008301526120a581611e3a565b9050919050565b60006020820190506120c16000830184611e5d565b92915050565b60006020820190506120dc6000830184611e6c565b92915050565b600081519050919050565b600082825260208201905092915050565b600061210982612251565b915061211483612251565b9250827fffffffffffffffffffffffffffffffffffffffffffffffffffffffffffffffff038211156121495761214861234c565b5b828201905092915050565b600061215f82612251565b915061216a83612251565b92508261217a5761217961237b565b5b828204905092915050565b600061219082612251565b915061219b83612251565b9250817fffffffffffffffffffffffffffffffffffffffffffffffffffffffffffffffff04831182151516156121d4576121d361234c565b5b828202905092915050565b60006121ea82612251565b91506121f583612251565b9250828210156122085761220761234c565b5b828203905092915050565b600061221e82612231565b9050919050565b60008115159050919050565b600073ffffffffffffffffffffffffffffffffffffffff82169050919050565b6000819050919050565b600060ff82169050919050565b60006122738261227a565b9050919050565b60006122858261228c565b9050919050565b600061229782612231565b9050919050565b60005b838110156122bc5780820151818401526020810190506122a1565b838111156122cb576000848401525b50505050565b600060028204905060018216806122e957607f821691505b602082108114156122fd576122fc6123aa565b5b50919050565b600061230e82612251565b91507fffffffffffffffffffffffffffffffffffffffffffffffffffffffffffffffff8214156123415761234061234c565b5b600182019050919050565b7f4e487b7100000000000000000000000000000000000000000000000000000000600052601160045260246000fd5b7f4e487b7100000000000000000000000000000000000000000000000000000000600052601260045260246000fd5b7f4e487b7100000000000000000000000000000000000000000000000000000000600052602260045260246000fd5b7f4e487b7100000000000000000000000000000000000000000000000000000000600052603260045260246000fd5b600080fd5b6000601f19601f8301169050919050565b7f45524332303a207472616e7366657220746f20746865207a65726f206164647260008201527f6573730000000000000000000000000000000000000000000000000000000000602082015250565b7f4f776e61626c653a206e6577206f776e657220697320746865207a65726f206160008201527f6464726573730000000000000000000000000000000000000000000000000000602082015250565b7f45524332303a20617070726f766520746f20746865207a65726f20616464726560008201527f7373000000000000000000000000000000000000000000000000000000000000602082015250565b7f45524332303a207472616e7366657220616d6f756e742065786365656473206260008201527f616c616e63650000000000000000000000000000000000000000000000000000602082015250565b7f4d656d6265723a204d61696e74656e616e6365207570677261646520696e207060008201527f726f677265737300000000000000000000000000000000000000000000000000602082015250565b7f4d656d6265723a20546865206f7065726174696f6e20697320756e646572206d60008201527f61696e74656e616e636500000000000000000000000000000000000000000000602082015250565b7f4f776e61626c653a2063616c6c6572206973206e6f7420746865206f776e6572600082015250565b7f414c4c0000000000000000000000000000000000000000000000000000000000600082015250565b7f45524332303a207472616e736665722066726f6d20746865207a65726f20616460008201527f6472657373000000000000000000000000000000000000000000000000000000602082015250565b7f45524332303a20617070726f76652066726f6d20746865207a65726f2061646460008201527f7265737300000000000000000000000000000000000000000000000000000000602082015250565b7f4d656d6265723a20546865206f7065726174696f6e206973206e6f7420616c6c60008201527f6f77656400000000000000000000000000000000000000000000000000000000602082015250565b7f45524332303a2064656372656173656420616c6c6f77616e63652062656c6f7760008201527f207a65726f000000000000000000000000000000000000000000000000000000602082015250565b61278f81612213565b811461279a57600080fd5b50565b6127a681612225565b81146127b157600080fd5b50565b6127bd81612251565b81146127c857600080fd5b5056fe45524332303a207472616e7366657220616d6f756e74206578636565647320616c6c6f77616e6365a2646970667358221220d70356db7388fc708fb39e0eb2549427439ccb43002fc5f1fb9b25626c05218f64736f6c63430008070033",
  "immutableReferences": {},
  "source": "// SPDX-License-Identifier: SimPL-2.0\n\npragma solidity ^0.8.0;\n\nimport \"../authority/Member.sol\";\n\nimport \"@openzeppelin/contracts/token/ERC20/ERC20.sol\";\nimport \"@openzeppelin/contracts/utils/math/SafeMath.sol\";\n\n/**\n * @title Dragon Ball Fighter Z Token - ERC20\n *\n * @author Bit Lighthouse. Ace\n * AT: 2021-3-28 | VERSION: v1.0.2\n */\ncontract Token is Member, ERC20 {\n    using SafeMath for uint256;\n\n    string[]  private _transfer_recipients = [\n        \"FOUND\", \"EXTENSION\", \"BLACKHOLE\"\n    ];\n\n    uint256[] private _transfer_rate = [5, 3, 2];\n    mapping (address => bool) private _white_list;\n    \n    constructor(address auth_) Member(auth_)\n        ERC20(\"Dragon Ball\", \"DBFZ\") {\n        \n        uint256 decimal = (10 ** uint256(decimals()));\n        _mint(msg.sender, 10e8 * decimal);\n\n        _white_list[msg.sender] = true;\n    }\n\n    function setTransferRate(uint index, uint rate) public\n        CheckPermit(\"CONFIG\") {\n\n        _transfer_rate[index] = rate;\n    }\n\n    function setWhiteList(address target, bool enable) public\n        CheckPermit(\"CONFIG\") {\n        \n        _white_list[target] = enable;\n    }\n\n    function _do_transfer(\n        address sender_, address recipient_, uint256 amount_\n    ) private CheckStatus(\"TRANSFER\") {\n        if (_white_list[sender_] == false) {\n            uint256 other_amount = amount_.mul(10).div(100);\n\n            for (uint i = 0; i < _transfer_rate.length; i++) {\n                string memory name = _transfer_recipients[i];\n                address recipient = authority.members(name);\n                uint256 item = other_amount.mul(_transfer_rate[i]);\n\n                _transfer(sender_, recipient, item.div(100));\n            }\n\n            uint256 real_amount = amount_.sub(other_amount);\n            _transfer(sender_, recipient_, real_amount);\n        } else {\n            _transfer(sender_, recipient_, amount_);\n        }\n    }\n\n    function transfer(address recipient, uint256 amount) public\n        virtual override returns (bool success) {\n\n        _do_transfer(_msgSender(), recipient, amount);\n        success = true;\n    }\n\n    function transferFrom(\n        address sender, address recipient, uint256 amount\n    ) public virtual override returns (bool success) {\n        uint256 tAllowance = allowance(sender, _msgSender());\n        tAllowance = tAllowance.sub(\n            amount, \"ERC20: transfer amount exceeds allowance\"\n        );\n\n        _approve(sender, _msgSender(), tAllowance);\n        _do_transfer(sender, recipient, amount);\n\n        success = true;\n    }\n}",
  "sourcePath": "/home/ace/Projects/eth/other/dragon-ball/contracts/token/Token.sol",
  "compiler": {
    "name": "solc",
    "version": "0.8.7+commit.e28d00a7.Emscripten.clang"
  },
  "schemaVersion": "3.3.4",
  "updatedAt": "2021-08-17T13:18:20.217Z",
  "networkType": "ethereum",
  "devdoc": {
    "author": "Bit Lighthouse. Ace AT: 2021-3-28 | VERSION: v1.0.2",
    "kind": "dev",
    "methods": {
      "allowance(address,address)": {
        "details": "See {IERC20-allowance}."
      },
      "approve(address,uint256)": {
        "details": "See {IERC20-approve}. Requirements: - `spender` cannot be the zero address."
      },
      "balanceOf(address)": {
        "details": "See {IERC20-balanceOf}."
      },
      "decimals()": {
        "details": "Returns the number of decimals used to get its user representation. For example, if `decimals` equals `2`, a balance of `505` tokens should be displayed to a user as `5,05` (`505 / 10 ** 2`). Tokens usually opt for a value of 18, imitating the relationship between Ether and Wei. This is the value {ERC20} uses, unless this function is overloaded; NOTE: This information is only used for _display_ purposes: it in no way affects any of the arithmetic of the contract, including {IERC20-balanceOf} and {IERC20-transfer}."
      },
      "decreaseAllowance(address,uint256)": {
        "details": "Atomically decreases the allowance granted to `spender` by the caller. This is an alternative to {approve} that can be used as a mitigation for problems described in {IERC20-approve}. Emits an {Approval} event indicating the updated allowance. Requirements: - `spender` cannot be the zero address. - `spender` must have allowance for the caller of at least `subtractedValue`."
      },
      "increaseAllowance(address,uint256)": {
        "details": "Atomically increases the allowance granted to `spender` by the caller. This is an alternative to {approve} that can be used as a mitigation for problems described in {IERC20-approve}. Emits an {Approval} event indicating the updated allowance. Requirements: - `spender` cannot be the zero address."
      },
      "name()": {
        "details": "Returns the name of the token."
      },
      "owner()": {
        "details": "Returns the address of the current owner."
      },
      "renounceOwnership()": {
        "details": "Leaves the contract without owner. It will not be possible to call `onlyOwner` functions anymore. Can only be called by the current owner. NOTE: Renouncing ownership will leave the contract without an owner, thereby removing any functionality that is only available to the owner."
      },
      "setAuthority(address)": {
        "params": {
          "authority_": "address of manager This function is onwer only"
        }
      },
      "symbol()": {
        "details": "Returns the symbol of the token, usually a shorter version of the name."
      },
      "totalSupply()": {
        "details": "See {IERC20-totalSupply}."
      },
      "transfer(address,uint256)": {
        "details": "See {IERC20-transfer}. Requirements: - `recipient` cannot be the zero address. - the caller must have a balance of at least `amount`."
      },
      "transferFrom(address,address,uint256)": {
        "details": "See {IERC20-transferFrom}. Emits an {Approval} event indicating the updated allowance. This is not required by the EIP. See the note at the beginning of {ERC20}. Requirements: - `sender` and `recipient` cannot be the zero address. - `sender` must have a balance of at least `amount`. - the caller must have allowance for ``sender``'s tokens of at least `amount`."
      },
      "transferOwnership(address)": {
        "details": "Transfers ownership of the contract to a new account (`newOwner`). Can only be called by the current owner."
      }
    },
    "title": "Dragon Ball Fighter Z Token - ERC20",
    "version": 1
  },
  "userdoc": {
    "kind": "user",
    "methods": {
      "setAuthority(address)": {
        "notice": "Set new manager"
      }
    },
    "version": 1
  }
}