{
  "contractName": "EMemoryToken",
  "abi": [
    {
      "inputs": [],
      "stateMutability": "nonpayable",
      "type": "constructor"
    },
    {
      "anonymous": false,
      "inputs": [
        {
          "indexed": true,
          "internalType": "address",
          "name": "owner",
          "type": "address"
        },
        {
          "indexed": true,
          "internalType": "address",
          "name": "spender",
          "type": "address"
        },
        {
          "indexed": false,
          "internalType": "uint256",
          "name": "value",
          "type": "uint256"
        }
      ],
      "name": "Approval",
      "type": "event"
    },
    {
      "anonymous": false,
      "inputs": [
        {
          "indexed": false,
          "internalType": "uint256",
          "name": "value",
          "type": "uint256"
        },
        {
          "indexed": false,
          "internalType": "uint256",
          "name": "amount",
          "type": "uint256"
        }
      ],
      "name": "Donation",
      "type": "event"
    },
    {
      "anonymous": false,
      "inputs": [
        {
          "indexed": true,
          "internalType": "address",
          "name": "from",
          "type": "address"
        },
        {
          "indexed": true,
          "internalType": "address",
          "name": "to",
          "type": "address"
        },
        {
          "indexed": false,
          "internalType": "uint256",
          "name": "value",
          "type": "uint256"
        }
      ],
      "name": "Transfer",
      "type": "event"
    },
    {
      "inputs": [
        {
          "internalType": "uint256",
          "name": "",
          "type": "uint256"
        }
      ],
      "name": "DONATION_RATE",
      "outputs": [
        {
          "internalType": "uint256",
          "name": "",
          "type": "uint256"
        }
      ],
      "stateMutability": "view",
      "type": "function"
    },
    {
      "inputs": [],
      "name": "_total_stage",
      "outputs": [
        {
          "internalType": "uint256",
          "name": "",
          "type": "uint256"
        }
      ],
      "stateMutability": "view",
      "type": "function"
    },
    {
      "inputs": [
        {
          "internalType": "address",
          "name": "owner",
          "type": "address"
        },
        {
          "internalType": "address",
          "name": "spender",
          "type": "address"
        }
      ],
      "name": "allowance",
      "outputs": [
        {
          "internalType": "uint256",
          "name": "",
          "type": "uint256"
        }
      ],
      "stateMutability": "view",
      "type": "function"
    },
    {
      "inputs": [
        {
          "internalType": "address",
          "name": "spender",
          "type": "address"
        },
        {
          "internalType": "uint256",
          "name": "amount",
          "type": "uint256"
        }
      ],
      "name": "approve",
      "outputs": [
        {
          "internalType": "bool",
          "name": "",
          "type": "bool"
        }
      ],
      "stateMutability": "nonpayable",
      "type": "function"
    },
    {
      "inputs": [
        {
          "internalType": "address",
          "name": "account",
          "type": "address"
        }
      ],
      "name": "balanceOf",
      "outputs": [
        {
          "internalType": "uint256",
          "name": "",
          "type": "uint256"
        }
      ],
      "stateMutability": "view",
      "type": "function"
    },
    {
      "inputs": [],
      "name": "decimals",
      "outputs": [
        {
          "internalType": "uint8",
          "name": "",
          "type": "uint8"
        }
      ],
      "stateMutability": "view",
      "type": "function"
    },
    {
      "inputs": [
        {
          "internalType": "address",
          "name": "spender",
          "type": "address"
        },
        {
          "internalType": "uint256",
          "name": "subtractedValue",
          "type": "uint256"
        }
      ],
      "name": "decreaseAllowance",
      "outputs": [
        {
          "internalType": "bool",
          "name": "",
          "type": "bool"
        }
      ],
      "stateMutability": "nonpayable",
      "type": "function"
    },
    {
      "inputs": [
        {
          "internalType": "address",
          "name": "spender",
          "type": "address"
        },
        {
          "internalType": "uint256",
          "name": "addedValue",
          "type": "uint256"
        }
      ],
      "name": "increaseAllowance",
      "outputs": [
        {
          "internalType": "bool",
          "name": "",
          "type": "bool"
        }
      ],
      "stateMutability": "nonpayable",
      "type": "function"
    },
    {
      "inputs": [],
      "name": "name",
      "outputs": [
        {
          "internalType": "string",
          "name": "",
          "type": "string"
        }
      ],
      "stateMutability": "view",
      "type": "function"
    },
    {
      "inputs": [],
      "name": "symbol",
      "outputs": [
        {
          "internalType": "string",
          "name": "",
          "type": "string"
        }
      ],
      "stateMutability": "view",
      "type": "function"
    },
    {
      "inputs": [],
      "name": "totalSupply",
      "outputs": [
        {
          "internalType": "uint256",
          "name": "",
          "type": "uint256"
        }
      ],
      "stateMutability": "view",
      "type": "function"
    },
    {
      "inputs": [
        {
          "internalType": "address",
          "name": "recipient",
          "type": "address"
        },
        {
          "internalType": "uint256",
          "name": "amount",
          "type": "uint256"
        }
      ],
      "name": "transfer",
      "outputs": [
        {
          "internalType": "bool",
          "name": "",
          "type": "bool"
        }
      ],
      "stateMutability": "nonpayable",
      "type": "function"
    },
    {
      "inputs": [
        {
          "internalType": "address",
          "name": "sender",
          "type": "address"
        },
        {
          "internalType": "address",
          "name": "recipient",
          "type": "address"
        },
        {
          "internalType": "uint256",
          "name": "amount",
          "type": "uint256"
        }
      ],
      "name": "transferFrom",
      "outputs": [
        {
          "internalType": "bool",
          "name": "",
          "type": "bool"
        }
      ],
      "stateMutability": "nonpayable",
      "type": "function"
    },
    {
      "inputs": [
        {
          "internalType": "uint8",
          "name": "stage",
          "type": "uint8"
        }
      ],
      "name": "setStage",
      "outputs": [],
      "stateMutability": "nonpayable",
      "type": "function"
    },
    {
      "inputs": [],
      "name": "donation",
      "outputs": [],
      "stateMutability": "payable",
      "type": "function"
    }
  ],
  "bytecode": "0x60806040526040518060800160405280613a9861ffff168152602001614e2061ffff16815260200161753061ffff1681526020016188b861ffff1681525060079060046200004f92919062000307565b503480156200005d57600080fd5b506040518060400160405280600481526020017f654d4d43000000000000000000000000000000000000000000000000000000008152506040518060400160405280600481526020017f654d4d43000000000000000000000000000000000000000000000000000000008152508160039080519060200190620000e29291906200035f565b508060049080519060200190620000fb9291906200035f565b50505033600660006101000a81548173ffffffffffffffffffffffffffffffffffffffff021916908373ffffffffffffffffffffffffffffffffffffffff16021790555060006310b07600905060006200015a6200019460201b60201c565b60ff16600a6200016b91906200054f565b90506200018c3382846200018091906200068c565b6200019d60201b60201c565b5050620007c1565b60006012905090565b600073ffffffffffffffffffffffffffffffffffffffff168273ffffffffffffffffffffffffffffffffffffffff16141562000210576040517f08c379a0000000000000000000000000000000000000000000000000000000008152600401620002079062000447565b60405180910390fd5b62000224600083836200030260201b60201c565b806002600082825462000238919062000497565b92505081905550806000808473ffffffffffffffffffffffffffffffffffffffff1673ffffffffffffffffffffffffffffffffffffffff16815260200190815260200160002060008282546200028f919062000497565b925050819055508173ffffffffffffffffffffffffffffffffffffffff16600073ffffffffffffffffffffffffffffffffffffffff167fddf252ad1be2c89b69c2b068fc378daa952ba7f163c4a11628f55a4df523b3ef83604051620002f6919062000469565b60405180910390a35050565b505050565b8280548282559060005260206000209081019282156200034c579160200282015b828111156200034b578251829061ffff1690559160200191906001019062000328565b5b5090506200035b9190620003f0565b5090565b8280546200036d90620006f7565b90600052602060002090601f016020900481019282620003915760008555620003dd565b82601f10620003ac57805160ff1916838001178555620003dd565b82800160010185558215620003dd579182015b82811115620003dc578251825591602001919060010190620003bf565b5b509050620003ec9190620003f0565b5090565b5b808211156200040b576000816000905550600101620003f1565b5090565b60006200041e601f8362000486565b91506200042b8262000798565b602082019050919050565b6200044181620006ed565b82525050565b6000602082019050818103600083015262000462816200040f565b9050919050565b600060208201905062000480600083018462000436565b92915050565b600082825260208201905092915050565b6000620004a482620006ed565b9150620004b183620006ed565b9250827fffffffffffffffffffffffffffffffffffffffffffffffffffffffffffffffff03821115620004e957620004e86200072d565b5b828201905092915050565b6000808291508390505b600185111562000546578086048111156200051e576200051d6200072d565b5b60018516156200052e5780820291505b80810290506200053e856200078b565b9450620004fe565b94509492505050565b60006200055c82620006ed565b91506200056983620006ed565b9250620005987fffffffffffffffffffffffffffffffffffffffffffffffffffffffffffffffff8484620005a0565b905092915050565b600082620005b2576001905062000685565b81620005c2576000905062000685565b8160018114620005db5760028114620005e6576200061c565b600191505062000685565b60ff841115620005fb57620005fa6200072d565b5b8360020a9150848211156200061557620006146200072d565b5b5062000685565b5060208310610133831016604e8410600b8410161715620006565782820a90508381111562000650576200064f6200072d565b5b62000685565b620006658484846001620004f4565b925090508184048111156200067f576200067e6200072d565b5b81810290505b9392505050565b60006200069982620006ed565b9150620006a683620006ed565b9250817fffffffffffffffffffffffffffffffffffffffffffffffffffffffffffffffff0483118215151615620006e257620006e16200072d565b5b828202905092915050565b6000819050919050565b600060028204905060018216806200071057607f821691505b602082108114156200072757620007266200075c565b5b50919050565b7f4e487b7100000000000000000000000000000000000000000000000000000000600052601160045260246000fd5b7f4e487b7100000000000000000000000000000000000000000000000000000000600052602260045260246000fd5b60008160011c9050919050565b7f45524332303a206d696e7420746f20746865207a65726f206164647265737300600082015250565b611b9980620007d16000396000f3fe6080604052600436106100e85760003560e01c806370a082311161008a578063a9059cbb11610059578063a9059cbb14610311578063ce3cd9971461034e578063dd62ed3e14610377578063dea1f442146103b4576100e8565b806370a08231146102625780638edeb15d1461029f57806395d89b41146102a9578063a457c2d7146102d4576100e8565b806318160ddd116100c657806318160ddd1461019257806323b872dd146101bd578063313ce567146101fa5780633950935114610225576100e8565b806306fdde03146100ed578063095ea7b3146101185780630f7eace414610155575b600080fd5b3480156100f957600080fd5b506101026103df565b60405161010f919061132d565b60405180910390f35b34801561012457600080fd5b5061013f600480360381019061013a91906110a5565b610471565b60405161014c9190611312565b60405180910390f35b34801561016157600080fd5b5061017c6004803603810190610177919061110a565b61048f565b604051610189919061144f565b60405180910390f35b34801561019e57600080fd5b506101a76104b3565b6040516101b4919061144f565b60405180910390f35b3480156101c957600080fd5b506101e460048036038101906101df9190611056565b6104bd565b6040516101f19190611312565b60405180910390f35b34801561020657600080fd5b5061020f6105be565b60405161021c9190611493565b60405180910390f35b34801561023157600080fd5b5061024c600480360381019061024791906110a5565b6105c7565b6040516102599190611312565b60405180910390f35b34801561026e57600080fd5b5061028960048036038101906102849190610ff1565b610673565b604051610296919061144f565b60405180910390f35b6102a76106bb565b005b3480156102b557600080fd5b506102be61084a565b6040516102cb919061132d565b60405180910390f35b3480156102e057600080fd5b506102fb60048036038101906102f691906110a5565b6108dc565b6040516103089190611312565b60405180910390f35b34801561031d57600080fd5b50610338600480360381019061033391906110a5565b6109d0565b6040516103459190611312565b60405180910390f35b34801561035a57600080fd5b5061037560048036038101906103709190611133565b6109ee565b005b34801561038357600080fd5b5061039e6004803603810190610399919061101a565b610a8b565b6040516103ab919061144f565b60405180910390f35b3480156103c057600080fd5b506103c9610b12565b6040516103d6919061144f565b60405180910390f35b6060600380546103ee906117d8565b80601f016020809104026020016040519081016040528092919081815260200182805461041a906117d8565b80156104675780601f1061043c57610100808354040283529160200191610467565b820191906000526020600020905b81548152906001019060200180831161044a57829003601f168201915b5050505050905090565b600061048561047e610b1a565b8484610b22565b6001905092915050565b6007818154811061049f57600080fd5b906000526020600020016000915090505481565b6000600254905090565b60006104ca848484610ced565b6000600160008673ffffffffffffffffffffffffffffffffffffffff1673ffffffffffffffffffffffffffffffffffffffff1681526020019081526020016000206000610515610b1a565b73ffffffffffffffffffffffffffffffffffffffff1673ffffffffffffffffffffffffffffffffffffffff16815260200190815260200160002054905082811015610595576040517f08c379a000000000000000000000000000000000000000000000000000000000815260040161058c906113af565b60405180910390fd5b6105b2856105a1610b1a565b85846105ad919061171c565b610b22565b60019150509392505050565b60006012905090565b60006106696105d4610b1a565b8484600160006105e2610b1a565b73ffffffffffffffffffffffffffffffffffffffff1673ffffffffffffffffffffffffffffffffffffffff16815260200190815260200160002060008873ffffffffffffffffffffffffffffffffffffffff1673ffffffffffffffffffffffffffffffffffffffff1681526020019081526020016000205461066491906114ca565b610b22565b6001905092915050565b60008060008373ffffffffffffffffffffffffffffffffffffffff1673ffffffffffffffffffffffffffffffffffffffff168152602001908152602001600020549050919050565b60006106c56105be565b60ff16600a6106d491906115a4565b9050600061073182600760055481548110610718577f4e487b7100000000000000000000000000000000000000000000000000000000600052603260045260246000fd5b9060005260206000200154610f6c90919063ffffffff16565b9050600061074c836329b92700610f6c90919063ffffffff16565b905060006107638383610f8290919063ffffffff16565b9050600061077a8234610f6c90919063ffffffff16565b90503073ffffffffffffffffffffffffffffffffffffffff1663a9059cbb33836040518363ffffffff1660e01b81526004016107b79291906112e9565b602060405180830381600087803b1580156107d157600080fd5b505af11580156107e5573d6000803e3d6000fd5b505050506040513d601f19601f8201168201806040525081019061080991906110e1565b507f965f7409cc0fd75aafcf803f57c201a8530900e4a4cbc0c622b1ea8f4cfbcf47348260405161083b92919061146a565b60405180910390a15050505050565b606060048054610859906117d8565b80601f0160208091040260200160405190810160405280929190818152602001828054610885906117d8565b80156108d25780601f106108a7576101008083540402835291602001916108d2565b820191906000526020600020905b8154815290600101906020018083116108b557829003601f168201915b5050505050905090565b600080600160006108eb610b1a565b73ffffffffffffffffffffffffffffffffffffffff1673ffffffffffffffffffffffffffffffffffffffff16815260200190815260200160002060008573ffffffffffffffffffffffffffffffffffffffff1673ffffffffffffffffffffffffffffffffffffffff168152602001908152602001600020549050828110156109a8576040517f08c379a000000000000000000000000000000000000000000000000000000000815260040161099f9061142f565b60405180910390fd5b6109c56109b3610b1a565b8585846109c0919061171c565b610b22565b600191505092915050565b60006109e46109dd610b1a565b8484610ced565b6001905092915050565b600660009054906101000a900473ffffffffffffffffffffffffffffffffffffffff1673ffffffffffffffffffffffffffffffffffffffff163373ffffffffffffffffffffffffffffffffffffffff1614610a7e576040517f08c379a0000000000000000000000000000000000000000000000000000000008152600401610a759061140f565b60405180910390fd5b8060ff1660058190555050565b6000600160008473ffffffffffffffffffffffffffffffffffffffff1673ffffffffffffffffffffffffffffffffffffffff16815260200190815260200160002060008373ffffffffffffffffffffffffffffffffffffffff1673ffffffffffffffffffffffffffffffffffffffff16815260200190815260200160002054905092915050565b6329b9270081565b600033905090565b600073ffffffffffffffffffffffffffffffffffffffff168373ffffffffffffffffffffffffffffffffffffffff161415610b92576040517f08c379a0000000000000000000000000000000000000000000000000000000008152600401610b89906113ef565b60405180910390fd5b600073ffffffffffffffffffffffffffffffffffffffff168273ffffffffffffffffffffffffffffffffffffffff161415610c02576040517f08c379a0000000000000000000000000000000000000000000000000000000008152600401610bf99061136f565b60405180910390fd5b80600160008573ffffffffffffffffffffffffffffffffffffffff1673ffffffffffffffffffffffffffffffffffffffff16815260200190815260200160002060008473ffffffffffffffffffffffffffffffffffffffff1673ffffffffffffffffffffffffffffffffffffffff168152602001908152602001600020819055508173ffffffffffffffffffffffffffffffffffffffff168373ffffffffffffffffffffffffffffffffffffffff167f8c5be1e5ebec7d5bd14f71427d1e84f3dd0314c0f7b2291e5b200ac8c7c3b92583604051610ce0919061144f565b60405180910390a3505050565b600073ffffffffffffffffffffffffffffffffffffffff168373ffffffffffffffffffffffffffffffffffffffff161415610d5d576040517f08c379a0000000000000000000000000000000000000000000000000000000008152600401610d54906113cf565b60405180910390fd5b600073ffffffffffffffffffffffffffffffffffffffff168273ffffffffffffffffffffffffffffffffffffffff161415610dcd576040517f08c379a0000000000000000000000000000000000000000000000000000000008152600401610dc49061134f565b60405180910390fd5b610dd8838383610f98565b60008060008573ffffffffffffffffffffffffffffffffffffffff1673ffffffffffffffffffffffffffffffffffffffff16815260200190815260200160002054905081811015610e5e576040517f08c379a0000000000000000000000000000000000000000000000000000000008152600401610e559061138f565b60405180910390fd5b8181610e6a919061171c565b6000808673ffffffffffffffffffffffffffffffffffffffff1673ffffffffffffffffffffffffffffffffffffffff16815260200190815260200160002081905550816000808573ffffffffffffffffffffffffffffffffffffffff1673ffffffffffffffffffffffffffffffffffffffff1681526020019081526020016000206000828254610efa91906114ca565b925050819055508273ffffffffffffffffffffffffffffffffffffffff168473ffffffffffffffffffffffffffffffffffffffff167fddf252ad1be2c89b69c2b068fc378daa952ba7f163c4a11628f55a4df523b3ef84604051610f5e919061144f565b60405180910390a350505050565b60008183610f7a91906116c2565b905092915050565b60008183610f909190611520565b905092915050565b505050565b600081359050610fac81611b07565b92915050565b600081519050610fc181611b1e565b92915050565b600081359050610fd681611b35565b92915050565b600081359050610feb81611b4c565b92915050565b60006020828403121561100357600080fd5b600061101184828501610f9d565b91505092915050565b6000806040838503121561102d57600080fd5b600061103b85828601610f9d565b925050602061104c85828601610f9d565b9150509250929050565b60008060006060848603121561106b57600080fd5b600061107986828701610f9d565b935050602061108a86828701610f9d565b925050604061109b86828701610fc7565b9150509250925092565b600080604083850312156110b857600080fd5b60006110c685828601610f9d565b92505060206110d785828601610fc7565b9150509250929050565b6000602082840312156110f357600080fd5b600061110184828501610fb2565b91505092915050565b60006020828403121561111c57600080fd5b600061112a84828501610fc7565b91505092915050565b60006020828403121561114557600080fd5b600061115384828501610fdc565b91505092915050565b61116581611750565b82525050565b61117481611762565b82525050565b6000611185826114ae565b61118f81856114b9565b935061119f8185602086016117a5565b6111a881611897565b840191505092915050565b60006111c06023836114b9565b91506111cb826118b5565b604082019050919050565b60006111e36022836114b9565b91506111ee82611904565b604082019050919050565b60006112066026836114b9565b915061121182611953565b604082019050919050565b60006112296028836114b9565b9150611234826119a2565b604082019050919050565b600061124c6025836114b9565b9150611257826119f1565b604082019050919050565b600061126f6024836114b9565b915061127a82611a40565b604082019050919050565b60006112926015836114b9565b915061129d82611a8f565b602082019050919050565b60006112b56025836114b9565b91506112c082611ab8565b604082019050919050565b6112d48161178e565b82525050565b6112e381611798565b82525050565b60006040820190506112fe600083018561115c565b61130b60208301846112cb565b9392505050565b6000602082019050611327600083018461116b565b92915050565b60006020820190508181036000830152611347818461117a565b905092915050565b60006020820190508181036000830152611368816111b3565b9050919050565b60006020820190508181036000830152611388816111d6565b9050919050565b600060208201905081810360008301526113a8816111f9565b9050919050565b600060208201905081810360008301526113c88161121c565b9050919050565b600060208201905081810360008301526113e88161123f565b9050919050565b6000602082019050818103600083015261140881611262565b9050919050565b6000602082019050818103600083015261142881611285565b9050919050565b60006020820190508181036000830152611448816112a8565b9050919050565b600060208201905061146460008301846112cb565b92915050565b600060408201905061147f60008301856112cb565b61148c60208301846112cb565b9392505050565b60006020820190506114a860008301846112da565b92915050565b600081519050919050565b600082825260208201905092915050565b60006114d58261178e565b91506114e08361178e565b9250827fffffffffffffffffffffffffffffffffffffffffffffffffffffffffffffffff038211156115155761151461180a565b5b828201905092915050565b600061152b8261178e565b91506115368361178e565b92508261154657611545611839565b5b828204905092915050565b6000808291508390505b600185111561159b578086048111156115775761157661180a565b5b60018516156115865780820291505b8081029050611594856118a8565b945061155b565b94509492505050565b60006115af8261178e565b91506115ba8361178e565b92506115e77fffffffffffffffffffffffffffffffffffffffffffffffffffffffffffffffff84846115ef565b905092915050565b6000826115ff57600190506116bb565b8161160d57600090506116bb565b8160018114611623576002811461162d5761165c565b60019150506116bb565b60ff84111561163f5761163e61180a565b5b8360020a9150848211156116565761165561180a565b5b506116bb565b5060208310610133831016604e8410600b84101617156116915782820a90508381111561168c5761168b61180a565b5b6116bb565b61169e8484846001611551565b925090508184048111156116b5576116b461180a565b5b81810290505b9392505050565b60006116cd8261178e565b91506116d88361178e565b9250817fffffffffffffffffffffffffffffffffffffffffffffffffffffffffffffffff04831182151516156117115761171061180a565b5b828202905092915050565b60006117278261178e565b91506117328361178e565b9250828210156117455761174461180a565b5b828203905092915050565b600061175b8261176e565b9050919050565b60008115159050919050565b600073ffffffffffffffffffffffffffffffffffffffff82169050919050565b6000819050919050565b600060ff82169050919050565b60005b838110156117c35780820151818401526020810190506117a8565b838111156117d2576000848401525b50505050565b600060028204905060018216806117f057607f821691505b6020821081141561180457611803611868565b5b50919050565b7f4e487b7100000000000000000000000000000000000000000000000000000000600052601160045260246000fd5b7f4e487b7100000000000000000000000000000000000000000000000000000000600052601260045260246000fd5b7f4e487b7100000000000000000000000000000000000000000000000000000000600052602260045260246000fd5b6000601f19601f8301169050919050565b60008160011c9050919050565b7f45524332303a207472616e7366657220746f20746865207a65726f206164647260008201527f6573730000000000000000000000000000000000000000000000000000000000602082015250565b7f45524332303a20617070726f766520746f20746865207a65726f20616464726560008201527f7373000000000000000000000000000000000000000000000000000000000000602082015250565b7f45524332303a207472616e7366657220616d6f756e742065786365656473206260008201527f616c616e63650000000000000000000000000000000000000000000000000000602082015250565b7f45524332303a207472616e7366657220616d6f756e742065786365656473206160008201527f6c6c6f77616e6365000000000000000000000000000000000000000000000000602082015250565b7f45524332303a207472616e736665722066726f6d20746865207a65726f20616460008201527f6472657373000000000000000000000000000000000000000000000000000000602082015250565b7f45524332303a20617070726f76652066726f6d20746865207a65726f2061646460008201527f7265737300000000000000000000000000000000000000000000000000000000602082015250565b7f4d4d432d494e464f3a204f6e6c79206f776e65722e0000000000000000000000600082015250565b7f45524332303a2064656372656173656420616c6c6f77616e63652062656c6f7760008201527f207a65726f000000000000000000000000000000000000000000000000000000602082015250565b611b1081611750565b8114611b1b57600080fd5b50565b611b2781611762565b8114611b3257600080fd5b50565b611b3e8161178e565b8114611b4957600080fd5b50565b611b5581611798565b8114611b6057600080fd5b5056fea26469706673582212207d0a774e5915561b3d37fd35ef7b19f9671f767fe38f224e5c2c72bef0ff2b8964736f6c63430008040033",
  "immutableReferences": {},
  "source": "// SPDX-License-Identifier: SimPL-2.0\n\npragma solidity ^0.8.0;\n\nimport \"@openzeppelin/contracts/token/ERC20/ERC20.sol\";\nimport \"@openzeppelin/contracts/token/ERC20/IERC20.sol\";\nimport \"@openzeppelin/contracts/utils/math/SafeMath.sol\";\n\ncontract EMemoryToken is ERC20 {\n    using SafeMath for uint256;\n    uint256 public constant _total_stage = 700000000;\n\n    uint256 private _stage;\n    address private _owner;\n\n    uint256[] public DONATION_RATE = [\n        15000, 20000, 30000, 35000\n    ];\n    \n    event Donation(uint256 value, uint256 amount);\n\n    constructor() ERC20(\"eMMC\", \"eMMC\") {\n        _owner = msg.sender;\n\n        uint256 supply = 280 * 1000000;\n        uint256 decimal = 10 ** uint256(decimals());\n        _mint(msg.sender, supply * decimal);\n    }\n\n    modifier OnlyOwner() {\n        require(msg.sender == _owner, \"MMC-INFO: Only owner.\");\n        _;\n    }\n\n    function setStage(uint8 stage) public OnlyOwner {\n        _stage = stage;\n    }\n\n    function donation() payable public {\n        uint256 decimal = 10 ** uint256(decimals());\n\n        uint256 stage = DONATION_RATE[_stage].mul(decimal);\n        uint256 totalStage = _total_stage.mul(decimal);\n\n        uint256 rate = totalStage.div(stage);\n        uint256 realAmount = msg.value.mul(rate);\n\n        IERC20(address(this)).transfer(msg.sender, realAmount);\n        emit Donation(msg.value, realAmount);\n    }\n}",
  "sourcePath": "/home/ace/Projects/eth/other/nec-project/contracts/eMemory.sol",
  "compiler": {
    "name": "solc",
    "version": "0.8.4+commit.c7e474f2.Emscripten.clang"
  },
  "schemaVersion": "3.3.4",
  "updatedAt": "2021-06-06T13:56:27.638Z",
  "devdoc": {
    "kind": "dev",
    "methods": {
      "allowance(address,address)": {
        "details": "See {IERC20-allowance}."
      },
      "approve(address,uint256)": {
        "details": "See {IERC20-approve}. Requirements: - `spender` cannot be the zero address."
      },
      "balanceOf(address)": {
        "details": "See {IERC20-balanceOf}."
      },
      "decimals()": {
        "details": "Returns the number of decimals used to get its user representation. For example, if `decimals` equals `2`, a balance of `505` tokens should be displayed to a user as `5,05` (`505 / 10 ** 2`). Tokens usually opt for a value of 18, imitating the relationship between Ether and Wei. This is the value {ERC20} uses, unless this function is overridden; NOTE: This information is only used for _display_ purposes: it in no way affects any of the arithmetic of the contract, including {IERC20-balanceOf} and {IERC20-transfer}."
      },
      "decreaseAllowance(address,uint256)": {
        "details": "Atomically decreases the allowance granted to `spender` by the caller. This is an alternative to {approve} that can be used as a mitigation for problems described in {IERC20-approve}. Emits an {Approval} event indicating the updated allowance. Requirements: - `spender` cannot be the zero address. - `spender` must have allowance for the caller of at least `subtractedValue`."
      },
      "increaseAllowance(address,uint256)": {
        "details": "Atomically increases the allowance granted to `spender` by the caller. This is an alternative to {approve} that can be used as a mitigation for problems described in {IERC20-approve}. Emits an {Approval} event indicating the updated allowance. Requirements: - `spender` cannot be the zero address."
      },
      "name()": {
        "details": "Returns the name of the token."
      },
      "symbol()": {
        "details": "Returns the symbol of the token, usually a shorter version of the name."
      },
      "totalSupply()": {
        "details": "See {IERC20-totalSupply}."
      },
      "transfer(address,uint256)": {
        "details": "See {IERC20-transfer}. Requirements: - `recipient` cannot be the zero address. - the caller must have a balance of at least `amount`."
      },
      "transferFrom(address,address,uint256)": {
        "details": "See {IERC20-transferFrom}. Emits an {Approval} event indicating the updated allowance. This is not required by the EIP. See the note at the beginning of {ERC20}. Requirements: - `sender` and `recipient` cannot be the zero address. - `sender` must have a balance of at least `amount`. - the caller must have allowance for ``sender``'s tokens of at least `amount`."
      }
    },
    "version": 1
  },
  "userdoc": {
    "kind": "user",
    "methods": {},
    "version": 1
  }
}