{
  "contractName": "Authority",
  "abi": [
    {
      "anonymous": false,
      "inputs": [
        {
          "indexed": true,
          "internalType": "address",
          "name": "previousOwner",
          "type": "address"
        },
        {
          "indexed": true,
          "internalType": "address",
          "name": "newOwner",
          "type": "address"
        }
      ],
      "name": "OwnershipTransferred",
      "type": "event"
    },
    {
      "inputs": [
        {
          "internalType": "address",
          "name": "",
          "type": "address"
        },
        {
          "internalType": "string",
          "name": "",
          "type": "string"
        }
      ],
      "name": "authorities",
      "outputs": [
        {
          "internalType": "bool",
          "name": "",
          "type": "bool"
        }
      ],
      "stateMutability": "view",
      "type": "function",
      "constant": true
    },
    {
      "inputs": [
        {
          "internalType": "string",
          "name": "",
          "type": "string"
        }
      ],
      "name": "members",
      "outputs": [
        {
          "internalType": "address",
          "name": "",
          "type": "address"
        }
      ],
      "stateMutability": "view",
      "type": "function",
      "constant": true
    },
    {
      "inputs": [],
      "name": "owner",
      "outputs": [
        {
          "internalType": "address",
          "name": "",
          "type": "address"
        }
      ],
      "stateMutability": "view",
      "type": "function",
      "constant": true
    },
    {
      "inputs": [
        {
          "internalType": "address",
          "name": "",
          "type": "address"
        },
        {
          "internalType": "string",
          "name": "",
          "type": "string"
        }
      ],
      "name": "permits",
      "outputs": [
        {
          "internalType": "bool",
          "name": "",
          "type": "bool"
        }
      ],
      "stateMutability": "view",
      "type": "function",
      "constant": true
    },
    {
      "inputs": [],
      "name": "renounceOwnership",
      "outputs": [],
      "stateMutability": "nonpayable",
      "type": "function"
    },
    {
      "inputs": [
        {
          "internalType": "address",
          "name": "newOwner",
          "type": "address"
        }
      ],
      "name": "transferOwnership",
      "outputs": [],
      "stateMutability": "nonpayable",
      "type": "function"
    },
    {
      "inputs": [
        {
          "internalType": "string",
          "name": "name_",
          "type": "string"
        },
        {
          "internalType": "address",
          "name": "member_",
          "type": "address"
        }
      ],
      "name": "setMember",
      "outputs": [],
      "stateMutability": "nonpayable",
      "type": "function"
    },
    {
      "inputs": [
        {
          "internalType": "string",
          "name": "permit_",
          "type": "string"
        },
        {
          "internalType": "address",
          "name": "member_",
          "type": "address"
        },
        {
          "internalType": "bool",
          "name": "enable_",
          "type": "bool"
        }
      ],
      "name": "setPermit",
      "outputs": [],
      "stateMutability": "nonpayable",
      "type": "function"
    },
    {
      "inputs": [
        {
          "internalType": "string",
          "name": "permit_",
          "type": "string"
        },
        {
          "internalType": "address",
          "name": "member_",
          "type": "address"
        },
        {
          "internalType": "bool",
          "name": "enable_",
          "type": "bool"
        }
      ],
      "name": "setBlackList",
      "outputs": [],
      "stateMutability": "nonpayable",
      "type": "function"
    }
  ],
  "bytecode": "0x608060405234801561001057600080fd5b5060006100216100c460201b60201c565b9050806000806101000a81548173ffffffffffffffffffffffffffffffffffffffff021916908373ffffffffffffffffffffffffffffffffffffffff1602179055508073ffffffffffffffffffffffffffffffffffffffff16600073ffffffffffffffffffffffffffffffffffffffff167f8be0079c531659141344cd1fd0a4f28419497f9722a3daafe3b4186f6b6457e060405160405180910390a3506100cc565b600033905090565b610d94806100db6000396000f3fe608060405234801561001057600080fd5b50600436106100935760003560e01c80638da5cb5b116100665780638da5cb5b1461011e578063a4f810001461013c578063c6e051b014610158578063f2fde38b14610174578063f5e65c721461019057610093565b8063466f98e814610098578063540e2617146100c85780636957a0b2146100e4578063715018a614610114575b600080fd5b6100b260048036038101906100ad9190610927565b6101c0565b6040516100bf9190610b9e565b60405180910390f35b6100e260048036038101906100dd91906109bc565b610205565b005b6100fe60048036038101906100f9919061097b565b6102e2565b60405161010b9190610b83565b60405180910390f35b61011c61032b565b005b610126610465565b6040516101339190610b83565b60405180910390f35b61015660048036038101906101519190610a10565b61048e565b005b610172600480360381019061016d9190610a10565b610582565b005b61018e600480360381019061018991906108fe565b610676565b005b6101aa60048036038101906101a59190610927565b61081f565b6040516101b79190610b9e565b60405180910390f35b6003602052816000526040600020818051602081018201805184825260208301602085012081835280955050505050506000915091509054906101000a900460ff1681565b61020d610864565b73ffffffffffffffffffffffffffffffffffffffff1661022b610465565b73ffffffffffffffffffffffffffffffffffffffff1614610281576040517f08c379a000000000000000000000000000000000000000000000000000000000815260040161027890610bd9565b60405180910390fd5b806001836040516102929190610b6c565b908152602001604051809103902060006101000a81548173ffffffffffffffffffffffffffffffffffffffff021916908373ffffffffffffffffffffffffffffffffffffffff1602179055505050565b6001818051602081018201805184825260208301602085012081835280955050505050506000915054906101000a900473ffffffffffffffffffffffffffffffffffffffff1681565b610333610864565b73ffffffffffffffffffffffffffffffffffffffff16610351610465565b73ffffffffffffffffffffffffffffffffffffffff16146103a7576040517f08c379a000000000000000000000000000000000000000000000000000000000815260040161039e90610bd9565b60405180910390fd5b600073ffffffffffffffffffffffffffffffffffffffff1660008054906101000a900473ffffffffffffffffffffffffffffffffffffffff1673ffffffffffffffffffffffffffffffffffffffff167f8be0079c531659141344cd1fd0a4f28419497f9722a3daafe3b4186f6b6457e060405160405180910390a360008060006101000a81548173ffffffffffffffffffffffffffffffffffffffff021916908373ffffffffffffffffffffffffffffffffffffffff160217905550565b60008060009054906101000a900473ffffffffffffffffffffffffffffffffffffffff16905090565b610496610864565b73ffffffffffffffffffffffffffffffffffffffff166104b4610465565b73ffffffffffffffffffffffffffffffffffffffff161461050a576040517f08c379a000000000000000000000000000000000000000000000000000000000815260040161050190610bd9565b60405180910390fd5b80600260008473ffffffffffffffffffffffffffffffffffffffff1673ffffffffffffffffffffffffffffffffffffffff168152602001908152602001600020846040516105589190610b6c565b908152602001604051809103902060006101000a81548160ff021916908315150217905550505050565b61058a610864565b73ffffffffffffffffffffffffffffffffffffffff166105a8610465565b73ffffffffffffffffffffffffffffffffffffffff16146105fe576040517f08c379a00000000000000000000000000000000000000000000000000000000081526004016105f590610bd9565b60405180910390fd5b80600360008473ffffffffffffffffffffffffffffffffffffffff1673ffffffffffffffffffffffffffffffffffffffff1681526020019081526020016000208460405161064c9190610b6c565b908152602001604051809103902060006101000a81548160ff021916908315150217905550505050565b61067e610864565b73ffffffffffffffffffffffffffffffffffffffff1661069c610465565b73ffffffffffffffffffffffffffffffffffffffff16146106f2576040517f08c379a00000000000000000000000000000000000000000000000000000000081526004016106e990610bd9565b60405180910390fd5b600073ffffffffffffffffffffffffffffffffffffffff168173ffffffffffffffffffffffffffffffffffffffff161415610762576040517f08c379a000000000000000000000000000000000000000000000000000000000815260040161075990610bb9565b60405180910390fd5b8073ffffffffffffffffffffffffffffffffffffffff1660008054906101000a900473ffffffffffffffffffffffffffffffffffffffff1673ffffffffffffffffffffffffffffffffffffffff167f8be0079c531659141344cd1fd0a4f28419497f9722a3daafe3b4186f6b6457e060405160405180910390a3806000806101000a81548173ffffffffffffffffffffffffffffffffffffffff021916908373ffffffffffffffffffffffffffffffffffffffff16021790555050565b6002602052816000526040600020818051602081018201805184825260208301602085012081835280955050505050506000915091509054906101000a900460ff1681565b600033905090565b600061087f61087a84610c2a565b610bf9565b90508281526020810184848401111561089757600080fd5b6108a2848285610cbf565b509392505050565b6000813590506108b981610d30565b92915050565b6000813590506108ce81610d47565b92915050565b600082601f8301126108e557600080fd5b81356108f584826020860161086c565b91505092915050565b60006020828403121561091057600080fd5b600061091e848285016108aa565b91505092915050565b6000806040838503121561093a57600080fd5b6000610948858286016108aa565b925050602083013567ffffffffffffffff81111561096557600080fd5b610971858286016108d4565b9150509250929050565b60006020828403121561098d57600080fd5b600082013567ffffffffffffffff8111156109a757600080fd5b6109b3848285016108d4565b91505092915050565b600080604083850312156109cf57600080fd5b600083013567ffffffffffffffff8111156109e957600080fd5b6109f5858286016108d4565b9250506020610a06858286016108aa565b9150509250929050565b600080600060608486031215610a2557600080fd5b600084013567ffffffffffffffff811115610a3f57600080fd5b610a4b868287016108d4565b9350506020610a5c868287016108aa565b9250506040610a6d868287016108bf565b9150509250925092565b610a8081610c81565b82525050565b610a8f81610c93565b82525050565b6000610aa082610c5a565b610aaa8185610c76565b9350610aba818560208601610cce565b80840191505092915050565b6000610ad3602683610c65565b91507f4f776e61626c653a206e6577206f776e657220697320746865207a65726f206160008301527f64647265737300000000000000000000000000000000000000000000000000006020830152604082019050919050565b6000610b39602083610c65565b91507f4f776e61626c653a2063616c6c6572206973206e6f7420746865206f776e65726000830152602082019050919050565b6000610b788284610a95565b915081905092915050565b6000602082019050610b986000830184610a77565b92915050565b6000602082019050610bb36000830184610a86565b92915050565b60006020820190508181036000830152610bd281610ac6565b9050919050565b60006020820190508181036000830152610bf281610b2c565b9050919050565b6000604051905081810181811067ffffffffffffffff82111715610c2057610c1f610d01565b5b8060405250919050565b600067ffffffffffffffff821115610c4557610c44610d01565b5b601f19601f8301169050602081019050919050565b600081519050919050565b600082825260208201905092915050565b600081905092915050565b6000610c8c82610c9f565b9050919050565b60008115159050919050565b600073ffffffffffffffffffffffffffffffffffffffff82169050919050565b82818337600083830152505050565b60005b83811015610cec578082015181840152602081019050610cd1565b83811115610cfb576000848401525b50505050565b7f4e487b7100000000000000000000000000000000000000000000000000000000600052604160045260246000fd5b610d3981610c81565b8114610d4457600080fd5b50565b610d5081610c93565b8114610d5b57600080fd5b5056fea26469706673582212200f01f98cdbc68ee08862f81a66f2b2441e2dd34f45e199261f237ed0e55a692664736f6c63430008000033",
  "immutableReferences": {},
  "source": " /**\n * @title Authority Of Administrator & Contract\n *\n * @author Bit Lighthouse. Henry Mo\n * AT: 2021-07-02 | VERSION: v1.0.2\n */\n\n// SPDX-License-Identifier: SimPL-2.0\n\npragma solidity ^0.8.0;\n\nimport \"@openzeppelin/contracts/access/Ownable.sol\";\n\ncontract Authority is Ownable {\n    // Member of administrator or contract\n    mapping (string => address) public members;\n\n    // Permit of members\n    mapping (address => mapping(string => bool)) public permits;\n\n    // Authority of users\n    mapping (address => mapping(string => bool)) public authorities;\n\n    /**\n     * @notice Set member of administrator or contract\n     *\n     * @param member_ member's address\n     * @param name_   name of member\n     *\n     * This function is onwer only\n     */\n    function setMember(string memory name_, address member_)\n        external onlyOwner {\n        \n        members[name_] = member_;\n    }\n\n    /**\n     * @notice Set member's permit\n     *\n     * @param member_ member's address\n     * @param permit_ name of permit\n     * @param enable_ enable this member's permit\n     *\n     * This function is onwer only\n     */\n    function setPermit(string memory permit_, address member_, bool enable_)\n        external onlyOwner {\n        \n        permits[member_][permit_] = enable_;\n    }\n\n    /**\n     * @notice Set balck list of user or contract\n     *\n     * @param member_ member's address\n     * @param permit_ name of permit\n     * @param enable_ enable this member's permit\n     *\n     * This function is onwer only\n     */\n    function setBlackList(string memory permit_, address member_, bool enable_)\n        external onlyOwner {\n        \n        authorities[member_][permit_] = enable_;\n    }\n}",
  "sourcePath": "/home/ace/Projects/eth/other/dragon-ball-project/dragon-ball-contract/contracts/authority/Authority.sol",
  "compiler": {
    "name": "solc",
    "version": "0.8.0+commit.c7dfd78e.Emscripten.clang"
  },
  "schemaVersion": "3.4.3",
  "updatedAt": "2021-08-29T15:19:22.345Z",
  "networkType": "ethereum",
  "devdoc": {
    "kind": "dev",
    "methods": {
      "owner()": {
        "details": "Returns the address of the current owner."
      },
      "renounceOwnership()": {
        "details": "Leaves the contract without owner. It will not be possible to call `onlyOwner` functions anymore. Can only be called by the current owner. NOTE: Renouncing ownership will leave the contract without an owner, thereby removing any functionality that is only available to the owner."
      },
      "setBlackList(string,address,bool)": {
        "params": {
          "enable_": "enable this member's permit This function is onwer only",
          "member_": "member's address",
          "permit_": "name of permit"
        }
      },
      "setMember(string,address)": {
        "params": {
          "member_": "member's address",
          "name_": "name of member This function is onwer only"
        }
      },
      "setPermit(string,address,bool)": {
        "params": {
          "enable_": "enable this member's permit This function is onwer only",
          "member_": "member's address",
          "permit_": "name of permit"
        }
      },
      "transferOwnership(address)": {
        "details": "Transfers ownership of the contract to a new account (`newOwner`). Can only be called by the current owner."
      }
    },
    "version": 1
  },
  "userdoc": {
    "kind": "user",
    "methods": {
      "setBlackList(string,address,bool)": {
        "notice": "Set balck list of user or contract"
      },
      "setMember(string,address)": {
        "notice": "Set member of administrator or contract"
      },
      "setPermit(string,address,bool)": {
        "notice": "Set member's permit"
      }
    },
    "version": 1
  }
}