{
  "contractName": "Authority",
  "abi": [
    {
      "anonymous": false,
      "inputs": [
        {
          "indexed": true,
          "internalType": "address",
          "name": "previousOwner",
          "type": "address"
        },
        {
          "indexed": true,
          "internalType": "address",
          "name": "newOwner",
          "type": "address"
        }
      ],
      "name": "OwnershipTransferred",
      "type": "event"
    },
    {
      "inputs": [
        {
          "internalType": "address",
          "name": "",
          "type": "address"
        },
        {
          "internalType": "string",
          "name": "",
          "type": "string"
        }
      ],
      "name": "authorities",
      "outputs": [
        {
          "internalType": "bool",
          "name": "",
          "type": "bool"
        }
      ],
      "stateMutability": "view",
      "type": "function",
      "constant": true
    },
    {
      "inputs": [
        {
          "internalType": "string",
          "name": "",
          "type": "string"
        }
      ],
      "name": "members",
      "outputs": [
        {
          "internalType": "address",
          "name": "",
          "type": "address"
        }
      ],
      "stateMutability": "view",
      "type": "function",
      "constant": true
    },
    {
      "inputs": [],
      "name": "owner",
      "outputs": [
        {
          "internalType": "address",
          "name": "",
          "type": "address"
        }
      ],
      "stateMutability": "view",
      "type": "function",
      "constant": true
    },
    {
      "inputs": [
        {
          "internalType": "address",
          "name": "",
          "type": "address"
        },
        {
          "internalType": "string",
          "name": "",
          "type": "string"
        }
      ],
      "name": "permits",
      "outputs": [
        {
          "internalType": "bool",
          "name": "",
          "type": "bool"
        }
      ],
      "stateMutability": "view",
      "type": "function",
      "constant": true
    },
    {
      "inputs": [],
      "name": "renounceOwnership",
      "outputs": [],
      "stateMutability": "nonpayable",
      "type": "function"
    },
    {
      "inputs": [
        {
          "internalType": "address",
          "name": "newOwner",
          "type": "address"
        }
      ],
      "name": "transferOwnership",
      "outputs": [],
      "stateMutability": "nonpayable",
      "type": "function"
    },
    {
      "inputs": [
        {
          "internalType": "string",
          "name": "name_",
          "type": "string"
        },
        {
          "internalType": "address",
          "name": "member_",
          "type": "address"
        }
      ],
      "name": "setMember",
      "outputs": [],
      "stateMutability": "nonpayable",
      "type": "function"
    },
    {
      "inputs": [
        {
          "internalType": "string",
          "name": "permit_",
          "type": "string"
        },
        {
          "internalType": "address",
          "name": "member_",
          "type": "address"
        },
        {
          "internalType": "bool",
          "name": "enable_",
          "type": "bool"
        }
      ],
      "name": "setPermit",
      "outputs": [],
      "stateMutability": "nonpayable",
      "type": "function"
    },
    {
      "inputs": [
        {
          "internalType": "string",
          "name": "permit_",
          "type": "string"
        },
        {
          "internalType": "address",
          "name": "member_",
          "type": "address"
        },
        {
          "internalType": "bool",
          "name": "enable_",
          "type": "bool"
        }
      ],
      "name": "setBlackList",
      "outputs": [],
      "stateMutability": "nonpayable",
      "type": "function"
    }
  ],
  "bytecode": "0x608060405234801561001057600080fd5b5060006100216100c460201b60201c565b9050806000806101000a81548173ffffffffffffffffffffffffffffffffffffffff021916908373ffffffffffffffffffffffffffffffffffffffff1602179055508073ffffffffffffffffffffffffffffffffffffffff16600073ffffffffffffffffffffffffffffffffffffffff167f8be0079c531659141344cd1fd0a4f28419497f9722a3daafe3b4186f6b6457e060405160405180910390a3506100cc565b600033905090565b610e23806100db6000396000f3fe608060405234801561001057600080fd5b50600436106100935760003560e01c80638da5cb5b116100665780638da5cb5b1461011e578063a4f810001461013c578063c6e051b014610158578063f2fde38b14610174578063f5e65c721461019057610093565b8063466f98e814610098578063540e2617146100c85780636957a0b2146100e4578063715018a614610114575b600080fd5b6100b260048036038101906100ad9190610933565b6101c0565b6040516100bf9190610b6a565b60405180910390f35b6100e260048036038101906100dd91906109d8565b610205565b005b6100fe60048036038101906100f9919061098f565b6102e2565b60405161010b9190610b4f565b60405180910390f35b61011c61032b565b005b610126610465565b6040516101339190610b4f565b60405180910390f35b61015660048036038101906101519190610a34565b61048e565b005b610172600480360381019061016d9190610a34565b610582565b005b61018e60048036038101906101899190610906565b610676565b005b6101aa60048036038101906101a59190610933565b61081f565b6040516101b79190610b6a565b60405180910390f35b6003602052816000526040600020818051602081018201805184825260208301602085012081835280955050505050506000915091509054906101000a900460ff1681565b61020d610864565b73ffffffffffffffffffffffffffffffffffffffff1661022b610465565b73ffffffffffffffffffffffffffffffffffffffff1614610281576040517f08c379a000000000000000000000000000000000000000000000000000000000815260040161027890610ba5565b60405180910390fd5b806001836040516102929190610b38565b908152602001604051809103902060006101000a81548173ffffffffffffffffffffffffffffffffffffffff021916908373ffffffffffffffffffffffffffffffffffffffff1602179055505050565b6001818051602081018201805184825260208301602085012081835280955050505050506000915054906101000a900473ffffffffffffffffffffffffffffffffffffffff1681565b610333610864565b73ffffffffffffffffffffffffffffffffffffffff16610351610465565b73ffffffffffffffffffffffffffffffffffffffff16146103a7576040517f08c379a000000000000000000000000000000000000000000000000000000000815260040161039e90610ba5565b60405180910390fd5b600073ffffffffffffffffffffffffffffffffffffffff1660008054906101000a900473ffffffffffffffffffffffffffffffffffffffff1673ffffffffffffffffffffffffffffffffffffffff167f8be0079c531659141344cd1fd0a4f28419497f9722a3daafe3b4186f6b6457e060405160405180910390a360008060006101000a81548173ffffffffffffffffffffffffffffffffffffffff021916908373ffffffffffffffffffffffffffffffffffffffff160217905550565b60008060009054906101000a900473ffffffffffffffffffffffffffffffffffffffff16905090565b610496610864565b73ffffffffffffffffffffffffffffffffffffffff166104b4610465565b73ffffffffffffffffffffffffffffffffffffffff161461050a576040517f08c379a000000000000000000000000000000000000000000000000000000000815260040161050190610ba5565b60405180910390fd5b80600260008473ffffffffffffffffffffffffffffffffffffffff1673ffffffffffffffffffffffffffffffffffffffff168152602001908152602001600020846040516105589190610b38565b908152602001604051809103902060006101000a81548160ff021916908315150217905550505050565b61058a610864565b73ffffffffffffffffffffffffffffffffffffffff166105a8610465565b73ffffffffffffffffffffffffffffffffffffffff16146105fe576040517f08c379a00000000000000000000000000000000000000000000000000000000081526004016105f590610ba5565b60405180910390fd5b80600360008473ffffffffffffffffffffffffffffffffffffffff1673ffffffffffffffffffffffffffffffffffffffff1681526020019081526020016000208460405161064c9190610b38565b908152602001604051809103902060006101000a81548160ff021916908315150217905550505050565b61067e610864565b73ffffffffffffffffffffffffffffffffffffffff1661069c610465565b73ffffffffffffffffffffffffffffffffffffffff16146106f2576040517f08c379a00000000000000000000000000000000000000000000000000000000081526004016106e990610ba5565b60405180910390fd5b600073ffffffffffffffffffffffffffffffffffffffff168173ffffffffffffffffffffffffffffffffffffffff161415610762576040517f08c379a000000000000000000000000000000000000000000000000000000000815260040161075990610b85565b60405180910390fd5b8073ffffffffffffffffffffffffffffffffffffffff1660008054906101000a900473ffffffffffffffffffffffffffffffffffffffff1673ffffffffffffffffffffffffffffffffffffffff167f8be0079c531659141344cd1fd0a4f28419497f9722a3daafe3b4186f6b6457e060405160405180910390a3806000806101000a81548173ffffffffffffffffffffffffffffffffffffffff021916908373ffffffffffffffffffffffffffffffffffffffff16021790555050565b6002602052816000526040600020818051602081018201805184825260208301602085012081835280955050505050506000915091509054906101000a900460ff1681565b600033905090565b600061087f61087a84610bea565b610bc5565b90508281526020810184848401111561089b5761089a610d27565b5b6108a6848285610c80565b509392505050565b6000813590506108bd81610dbf565b92915050565b6000813590506108d281610dd6565b92915050565b600082601f8301126108ed576108ec610d22565b5b81356108fd84826020860161086c565b91505092915050565b60006020828403121561091c5761091b610d31565b5b600061092a848285016108ae565b91505092915050565b6000806040838503121561094a57610949610d31565b5b6000610958858286016108ae565b925050602083013567ffffffffffffffff81111561097957610978610d2c565b5b610985858286016108d8565b9150509250929050565b6000602082840312156109a5576109a4610d31565b5b600082013567ffffffffffffffff8111156109c3576109c2610d2c565b5b6109cf848285016108d8565b91505092915050565b600080604083850312156109ef576109ee610d31565b5b600083013567ffffffffffffffff811115610a0d57610a0c610d2c565b5b610a19858286016108d8565b9250506020610a2a858286016108ae565b9150509250929050565b600080600060608486031215610a4d57610a4c610d31565b5b600084013567ffffffffffffffff811115610a6b57610a6a610d2c565b5b610a77868287016108d8565b9350506020610a88868287016108ae565b9250506040610a99868287016108c3565b9150509250925092565b610aac81610c42565b82525050565b610abb81610c54565b82525050565b6000610acc82610c1b565b610ad68185610c37565b9350610ae6818560208601610c8f565b80840191505092915050565b6000610aff602683610c26565b9150610b0a82610d47565b604082019050919050565b6000610b22602083610c26565b9150610b2d82610d96565b602082019050919050565b6000610b448284610ac1565b915081905092915050565b6000602082019050610b646000830184610aa3565b92915050565b6000602082019050610b7f6000830184610ab2565b92915050565b60006020820190508181036000830152610b9e81610af2565b9050919050565b60006020820190508181036000830152610bbe81610b15565b9050919050565b6000610bcf610be0565b9050610bdb8282610cc2565b919050565b6000604051905090565b600067ffffffffffffffff821115610c0557610c04610cf3565b5b610c0e82610d36565b9050602081019050919050565b600081519050919050565b600082825260208201905092915050565b600081905092915050565b6000610c4d82610c60565b9050919050565b60008115159050919050565b600073ffffffffffffffffffffffffffffffffffffffff82169050919050565b82818337600083830152505050565b60005b83811015610cad578082015181840152602081019050610c92565b83811115610cbc576000848401525b50505050565b610ccb82610d36565b810181811067ffffffffffffffff82111715610cea57610ce9610cf3565b5b80604052505050565b7f4e487b7100000000000000000000000000000000000000000000000000000000600052604160045260246000fd5b600080fd5b600080fd5b600080fd5b600080fd5b6000601f19601f8301169050919050565b7f4f776e61626c653a206e6577206f776e657220697320746865207a65726f206160008201527f6464726573730000000000000000000000000000000000000000000000000000602082015250565b7f4f776e61626c653a2063616c6c6572206973206e6f7420746865206f776e6572600082015250565b610dc881610c42565b8114610dd357600080fd5b50565b610ddf81610c54565b8114610dea57600080fd5b5056fea2646970667358221220c2ca1860bd4df9f1e0dc495a39d92a338782e7c8269540b25bd593bbec06187964736f6c63430008070033",
  "immutableReferences": {},
  "source": " /**\n * @title Authority Of Administrator & Contract\n *\n * @author Bit Lighthouse. Henry Mo\n * AT: 2021-07-02 | VERSION: v1.0.2\n */\n\n// SPDX-License-Identifier: SimPL-2.0\n\npragma solidity ^0.8.0;\n\nimport \"@openzeppelin/contracts/access/Ownable.sol\";\n\ncontract Authority is Ownable {\n    // Member of administrator or contract\n    mapping (string => address) public members;\n\n    // Permit of members\n    mapping (address => mapping(string => bool)) public permits;\n\n    // Authority of users\n    mapping (address => mapping(string => bool)) public authorities;\n\n    /**\n     * @notice Set member of administrator or contract\n     *\n     * @param member_ member's address\n     * @param name_   name of member\n     *\n     * This function is onwer only\n     */\n    function setMember(string memory name_, address member_)\n        external onlyOwner {\n        \n        members[name_] = member_;\n    }\n\n    /**\n     * @notice Set member's permit\n     *\n     * @param member_ member's address\n     * @param permit_ name of permit\n     * @param enable_ enable this member's permit\n     *\n     * This function is onwer only\n     */\n    function setPermit(string memory permit_, address member_, bool enable_)\n        external onlyOwner {\n        \n        permits[member_][permit_] = enable_;\n    }\n\n    /**\n     * @notice Set balck list of user or contract\n     *\n     * @param member_ member's address\n     * @param permit_ name of permit\n     * @param enable_ enable this member's permit\n     *\n     * This function is onwer only\n     */\n    function setBlackList(string memory permit_, address member_, bool enable_)\n        external onlyOwner {\n        \n        authorities[member_][permit_] = enable_;\n    }\n}",
  "sourcePath": "/home/ace/Projects/eth/other/dragon-ball/contracts/authority/Authority.sol",
  "compiler": {
    "name": "solc",
    "version": "0.8.7+commit.e28d00a7.Emscripten.clang"
  },
  "schemaVersion": "3.3.4",
  "updatedAt": "2021-08-17T13:18:30.996Z",
  "networkType": "ethereum",
  "devdoc": {
    "kind": "dev",
    "methods": {
      "owner()": {
        "details": "Returns the address of the current owner."
      },
      "renounceOwnership()": {
        "details": "Leaves the contract without owner. It will not be possible to call `onlyOwner` functions anymore. Can only be called by the current owner. NOTE: Renouncing ownership will leave the contract without an owner, thereby removing any functionality that is only available to the owner."
      },
      "setBlackList(string,address,bool)": {
        "params": {
          "enable_": "enable this member's permit This function is onwer only",
          "member_": "member's address",
          "permit_": "name of permit"
        }
      },
      "setMember(string,address)": {
        "params": {
          "member_": "member's address",
          "name_": "name of member This function is onwer only"
        }
      },
      "setPermit(string,address,bool)": {
        "params": {
          "enable_": "enable this member's permit This function is onwer only",
          "member_": "member's address",
          "permit_": "name of permit"
        }
      },
      "transferOwnership(address)": {
        "details": "Transfers ownership of the contract to a new account (`newOwner`). Can only be called by the current owner."
      }
    },
    "version": 1
  },
  "userdoc": {
    "kind": "user",
    "methods": {
      "setBlackList(string,address,bool)": {
        "notice": "Set balck list of user or contract"
      },
      "setMember(string,address)": {
        "notice": "Set member of administrator or contract"
      },
      "setPermit(string,address,bool)": {
        "notice": "Set member's permit"
      }
    },
    "version": 1
  }
}