{
  "contractName": "CardShop",
  "abi": [
    {
      "inputs": [
        {
          "internalType": "address",
          "name": "auth_",
          "type": "address"
        }
      ],
      "stateMutability": "nonpayable",
      "type": "constructor"
    },
    {
      "anonymous": false,
      "inputs": [
        {
          "indexed": false,
          "internalType": "uint8",
          "name": "quality",
          "type": "uint8"
        },
        {
          "indexed": false,
          "internalType": "uint16",
          "name": "heroId",
          "type": "uint16"
        },
        {
          "indexed": false,
          "internalType": "uint256",
          "name": "tokenId",
          "type": "uint256"
        },
        {
          "indexed": false,
          "internalType": "uint16",
          "name": "rate",
          "type": "uint16"
        }
      ],
      "name": "Buy",
      "type": "event"
    },
    {
      "anonymous": false,
      "inputs": [
        {
          "indexed": true,
          "internalType": "address",
          "name": "previousOwner",
          "type": "address"
        },
        {
          "indexed": true,
          "internalType": "address",
          "name": "newOwner",
          "type": "address"
        }
      ],
      "name": "OwnershipTransferred",
      "type": "event"
    },
    {
      "inputs": [],
      "name": "authority",
      "outputs": [
        {
          "internalType": "contract Authority",
          "name": "",
          "type": "address"
        }
      ],
      "stateMutability": "view",
      "type": "function",
      "constant": true
    },
    {
      "inputs": [
        {
          "internalType": "string",
          "name": "",
          "type": "string"
        }
      ],
      "name": "configs",
      "outputs": [
        {
          "internalType": "uint256",
          "name": "",
          "type": "uint256"
        }
      ],
      "stateMutability": "view",
      "type": "function",
      "constant": true
    },
    {
      "inputs": [],
      "name": "owner",
      "outputs": [
        {
          "internalType": "address",
          "name": "",
          "type": "address"
        }
      ],
      "stateMutability": "view",
      "type": "function",
      "constant": true
    },
    {
      "inputs": [],
      "name": "renounceOwnership",
      "outputs": [],
      "stateMutability": "nonpayable",
      "type": "function"
    },
    {
      "inputs": [
        {
          "internalType": "address",
          "name": "authority_",
          "type": "address"
        }
      ],
      "name": "setAuthority",
      "outputs": [],
      "stateMutability": "nonpayable",
      "type": "function"
    },
    {
      "inputs": [
        {
          "internalType": "string",
          "name": "name_",
          "type": "string"
        },
        {
          "internalType": "uint256",
          "name": "config_",
          "type": "uint256"
        }
      ],
      "name": "setConfig",
      "outputs": [],
      "stateMutability": "nonpayable",
      "type": "function"
    },
    {
      "inputs": [
        {
          "internalType": "address",
          "name": "newOwner",
          "type": "address"
        }
      ],
      "name": "transferOwnership",
      "outputs": [],
      "stateMutability": "nonpayable",
      "type": "function"
    },
    {
      "inputs": [
        {
          "internalType": "uint8",
          "name": "quality_",
          "type": "uint8"
        },
        {
          "internalType": "uint16",
          "name": "role_",
          "type": "uint16"
        }
      ],
      "name": "fresh",
      "outputs": [],
      "stateMutability": "nonpayable",
      "type": "function"
    },
    {
      "inputs": [
        {
          "internalType": "uint8",
          "name": "quality_",
          "type": "uint8"
        },
        {
          "internalType": "uint16",
          "name": "start_",
          "type": "uint16"
        },
        {
          "internalType": "uint16",
          "name": "plus_",
          "type": "uint16"
        }
      ],
      "name": "setCardRate",
      "outputs": [],
      "stateMutability": "nonpayable",
      "type": "function"
    },
    {
      "inputs": [
        {
          "internalType": "uint8",
          "name": "quality_",
          "type": "uint8"
        },
        {
          "internalType": "uint256",
          "name": "index_",
          "type": "uint256"
        },
        {
          "internalType": "uint32",
          "name": "numbers_",
          "type": "uint32"
        }
      ],
      "name": "setCardNumber",
      "outputs": [],
      "stateMutability": "nonpayable",
      "type": "function"
    },
    {
      "inputs": [
        {
          "internalType": "string",
          "name": "symbol_",
          "type": "string"
        }
      ],
      "name": "buy",
      "outputs": [],
      "stateMutability": "nonpayable",
      "type": "function"
    }
  ],
  "bytecode": "0x60806040523480156200001157600080fd5b5060405162003c7d38038062003c7d833981810160405281019062000037919062000917565b8060006200004a6200072360201b60201c565b9050806000806101000a81548173ffffffffffffffffffffffffffffffffffffffff021916908373ffffffffffffffffffffffffffffffffffffffff1602179055508073ffffffffffffffffffffffffffffffffffffffff16600073ffffffffffffffffffffffffffffffffffffffff167f8be0079c531659141344cd1fd0a4f28419497f9722a3daafe3b4186f6b6457e060405160405180910390a35080600160006101000a81548173ffffffffffffffffffffffffffffffffffffffff021916908373ffffffffffffffffffffffffffffffffffffffff16021790555050600560026040516200013c9062000a37565b9081526020016040518091039020819055506127106002604051620001619062000a09565b908152602001604051809103902081905550683635c9adc5dea0000060026040516200018d9062000a20565b9081526020016040518091039020819055506040518060800160405280610bb861ffff168152602001600061ffff168152602001600560ff168152602001620001df600760016200072b60201b60201c565b81525060036000600160ff16815260200190815260200160002060008201518160000160006101000a81548161ffff021916908361ffff16021790555060208201518160000160026101000a81548161ffff021916908361ffff16021790555060408201518160000160046101000a81548160ff021916908360ff16021790555060608201518160010190805190602001906200027e9291906200082a565b5090505060405180608001604052806107d061ffff168152602001600061ffff168152602001600460ff168152602001620002c16005806200072b60201b60201c565b81525060036000600260ff16815260200190815260200160002060008201518160000160006101000a81548161ffff021916908361ffff16021790555060208201518160000160026101000a81548161ffff021916908361ffff16021790555060408201518160000160046101000a81548160ff021916908360ff1602179055506060820151816001019080519060200190620003609291906200082a565b50905050604051806080016040528060c861ffff16815260200161032061ffff168152602001600360ff168152602001620003a4601460326200072b60201b60201c565b81525060036000600360ff16815260200190815260200160002060008201518160000160006101000a81548161ffff021916908361ffff16021790555060208201518160000160026101000a81548161ffff021916908361ffff16021790555060408201518160000160046101000a81548160ff021916908360ff1602179055506060820151816001019080519060200190620004439291906200082a565b509050506040518060800160405280605a61ffff16815260200161019a61ffff168152602001600260ff16815260200162000487601460646200072b60201b60201c565b81525060036000600460ff16815260200190815260200160002060008201518160000160006101000a81548161ffff021916908361ffff16021790555060208201518160000160026101000a81548161ffff021916908361ffff16021790555060408201518160000160046101000a81548160ff021916908360ff1602179055506060820151816001019080519060200190620005269291906200082a565b509050506040518060800160405280603261ffff168152602001609661ffff168152602001600160ff1681526020016200056a601461015c6200072b60201b60201c565b81525060036000600560ff16815260200190815260200160002060008201518160000160006101000a81548161ffff021916908361ffff16021790555060208201518160000160026101000a81548161ffff021916908361ffff16021790555060408201518160000160046101000a81548160ff021916908360ff1602179055506060820151816001019080519060200190620006099291906200082a565b50905050600860036000600560ff16815260200190815260200160002060010160138154811062000663577f4e487b7100000000000000000000000000000000000000000000000000000000600052603260045260246000fd5b90600052602060002090600891828204019190066004029054906101000a900463ffffffff1662000695919062000a59565b60036000600560ff168152602001908152602001600020600101601381548110620006e9577f4e487b7100000000000000000000000000000000000000000000000000000000600052603260045260246000fd5b90600052602060002090600891828204019190066004026101000a81548163ffffffff021916908363ffffffff1602179055505062000b63565b600033905090565b60608260ff1667ffffffffffffffff81111562000771577f4e487b7100000000000000000000000000000000000000000000000000000000600052604160045260246000fd5b604051908082528060200260200182016040528015620007a05781602001602082028036833780820191505090505b50905060005b8360ff168160ff161015620008235782828260ff1681518110620007f3577f4e487b7100000000000000000000000000000000000000000000000000000000600052603260045260246000fd5b602002602001019063ffffffff16908163ffffffff168152505080806200081a9062000aeb565b915050620007a6565b5092915050565b82805482825590600052602060002090600701600890048101928215620008ce5791602002820160005b838211156200089a57835183826101000a81548163ffffffff021916908363ffffffff160217905550926020019260040160208160030104928301926001030262000854565b8015620008cc5782816101000a81549063ffffffff02191690556004016020816003010492830192600103026200089a565b505b509050620008dd9190620008e1565b5090565b5b80821115620008fc576000816000905550600101620008e2565b5090565b600081519050620009118162000b49565b92915050565b6000602082840312156200092a57600080fd5b60006200093a8482850162000900565b91505092915050565b60006200095260058362000a4e565b91507f544f54414c0000000000000000000000000000000000000000000000000000006000830152600582019050919050565b60006200099460048362000a4e565b91507f4442465a000000000000000000000000000000000000000000000000000000006000830152600482019050919050565b6000620009d660078362000a4e565b91507f5155414c495459000000000000000000000000000000000000000000000000006000830152600782019050919050565b600062000a168262000943565b9150819050919050565b600062000a2d8262000985565b9150819050919050565b600062000a4482620009c7565b9150819050919050565b600081905092915050565b600062000a668262000ace565b915062000a738362000ace565b92508263ffffffff0382111562000a8f5762000a8e62000b1a565b5b828201905092915050565b600062000aa78262000aae565b9050919050565b600073ffffffffffffffffffffffffffffffffffffffff82169050919050565b600063ffffffff82169050919050565b600060ff82169050919050565b600062000af88262000ade565b915060ff82141562000b0f5762000b0e62000b1a565b5b600182019050919050565b7f4e487b7100000000000000000000000000000000000000000000000000000000600052601160045260246000fd5b62000b548162000a9a565b811462000b6057600080fd5b50565b61310a8062000b736000396000f3fe608060405234801561001057600080fd5b50600436106100a95760003560e01c8063715018a611610071578063715018a61461014e5780637a9e5e4b146101585780638afb1a8e146101745780638da5cb5b14610190578063bf7e214f146101ae578063f2fde38b146101cc576100a9565b80631a0ff849146100ae5780632c74ee4f146100ca5780633e8f5b90146100e6578063492cc769146101025780635ef7fbad1461011e575b600080fd5b6100c860048036038101906100c3919061236f565b6101e8565b005b6100e460048036038101906100df91906122e4565b610398565b005b61010060048036038101906100fb919061223e565b6105da565b005b61011c600480360381019061011791906121fd565b610724565b005b610138600480360381019061013391906121fd565b6112f7565b6040516101459190612bdc565b60405180910390f35b610156611325565b005b610172600480360381019061016d9190612182565b61145f565b005b61018e60048036038101906101899190612320565b61151f565b005b6101986116b5565b6040516101a59190612911565b60405180910390f35b6101b66116de565b6040516101c39190612a18565b60405180910390f35b6101e660048036038101906101e19190612182565b611704565b005b6040518060400160405280600681526020017f434f4e4649470000000000000000000000000000000000000000000000000000815250600160009054906101000a900473ffffffffffffffffffffffffffffffffffffffff1673ffffffffffffffffffffffffffffffffffffffff1663f5e65c7233836040518363ffffffff1660e01b815260040161027b929190612963565b60206040518083038186803b15801561029357600080fd5b505afa1580156102a7573d6000803e3d6000fd5b505050506040513d601f19601f820116820180604052508101906102cb91906121d4565b61030a576040517f08c379a000000000000000000000000000000000000000000000000000000000815260040161030190612b86565b60405180910390fd5b81600360008660ff1660ff168152602001908152602001600020600101848154811061035f577f4e487b7100000000000000000000000000000000000000000000000000000000600052603260045260246000fd5b90600052602060002090600891828204019190066004026101000a81548163ffffffff021916908363ffffffff16021790555050505050565b6040518060400160405280600a81526020017f4341524452455741524400000000000000000000000000000000000000000000815250600160009054906101000a900473ffffffffffffffffffffffffffffffffffffffff1673ffffffffffffffffffffffffffffffffffffffff1663f5e65c7233836040518363ffffffff1660e01b815260040161042b929190612963565b60206040518083038186803b15801561044357600080fd5b505afa158015610457573d6000803e3d6000fd5b505050506040513d601f19601f8201168201806040525081019061047b91906121d4565b6104ba576040517f08c379a00000000000000000000000000000000000000000000000000000000081526004016104b190612b86565b60405180910390fd5b6000600360008560ff1660ff1681526020019081526020016000206001018361ffff1681548110610514577f4e487b7100000000000000000000000000000000000000000000000000000000600052603260045260246000fd5b90600052602060002090600891828204019190066004029054906101000a900463ffffffff1690506001816105499190612d52565b600360008660ff1660ff1681526020019081526020016000206001018461ffff16815481106105a1577f4e487b7100000000000000000000000000000000000000000000000000000000600052603260045260246000fd5b90600052602060002090600891828204019190066004026101000a81548163ffffffff021916908363ffffffff16021790555050505050565b6040518060400160405280600681526020017f434f4e4649470000000000000000000000000000000000000000000000000000815250600160009054906101000a900473ffffffffffffffffffffffffffffffffffffffff1673ffffffffffffffffffffffffffffffffffffffff1663f5e65c7233836040518363ffffffff1660e01b815260040161066d929190612963565b60206040518083038186803b15801561068557600080fd5b505afa158015610699573d6000803e3d6000fd5b505050506040513d601f19601f820116820180604052508101906106bd91906121d4565b6106fc576040517f08c379a00000000000000000000000000000000000000000000000000000000081526004016106f390612b86565b60405180910390fd5b8160028460405161070d91906128d0565b908152602001604051809103902081905550505050565b6040518060400160405280600381526020017f4255590000000000000000000000000000000000000000000000000000000000815250600160009054906101000a900473ffffffffffffffffffffffffffffffffffffffff1673ffffffffffffffffffffffffffffffffffffffff1663466f98e860006040518263ffffffff1660e01b81526004016107b69190612993565b60206040518083038186803b1580156107ce57600080fd5b505afa1580156107e2573d6000803e3d6000fd5b505050506040513d601f19601f8201168201806040525081019061080691906121d4565b15806108bd5750600160009054906101000a900473ffffffffffffffffffffffffffffffffffffffff1673ffffffffffffffffffffffffffffffffffffffff1663466f98e86000836040518363ffffffff1660e01b815260040161086b929190612963565b60206040518083038186803b15801561088357600080fd5b505afa158015610897573d6000803e3d6000fd5b505050506040513d601f19601f820116820180604052508101906108bb91906121d4565b155b806109705750600160009054906101000a900473ffffffffffffffffffffffffffffffffffffffff1673ffffffffffffffffffffffffffffffffffffffff1663466f98e8336040518263ffffffff1660e01b815260040161091e9190612993565b60206040518083038186803b15801561093657600080fd5b505afa15801561094a573d6000803e3d6000fd5b505050506040513d601f19601f8201168201806040525081019061096e91906121d4565b155b80610a255750600160009054906101000a900473ffffffffffffffffffffffffffffffffffffffff1673ffffffffffffffffffffffffffffffffffffffff1663466f98e833836040518363ffffffff1660e01b81526004016109d3929190612963565b60206040518083038186803b1580156109eb57600080fd5b505afa1580156109ff573d6000803e3d6000fd5b505050506040513d601f19601f82011682018060405250810190610a2391906121d4565b155b610a64576040517f08c379a0000000000000000000000000000000000000000000000000000000008152600401610a5b90612b86565b60405180910390fd5b600160009054906101000a900473ffffffffffffffffffffffffffffffffffffffff1673ffffffffffffffffffffffffffffffffffffffff1663466f98e860006040518263ffffffff1660e01b8152600401610ac091906129c1565b60206040518083038186803b158015610ad857600080fd5b505afa158015610aec573d6000803e3d6000fd5b505050506040513d601f19601f82011682018060405250810190610b1091906121d4565b15610b50576040517f08c379a0000000000000000000000000000000000000000000000000000000008152600401610b4790612aa6565b60405180910390fd5b6000600160009054906101000a900473ffffffffffffffffffffffffffffffffffffffff1673ffffffffffffffffffffffffffffffffffffffff16636957a0b2846040518263ffffffff1660e01b8152600401610bad9190612a84565b60206040518083038186803b158015610bc557600080fd5b505afa158015610bd9573d6000803e3d6000fd5b505050506040513d601f19601f82011682018060405250810190610bfd91906121ab565b90506000600160009054906101000a900473ffffffffffffffffffffffffffffffffffffffff1673ffffffffffffffffffffffffffffffffffffffff16636957a0b26040518163ffffffff1660e01b8152600401610c5a90612b46565b60206040518083038186803b158015610c7257600080fd5b505afa158015610c86573d6000803e3d6000fd5b505050506040513d601f19601f82011682018060405250810190610caa91906121ab565b905060008273ffffffffffffffffffffffffffffffffffffffff166323b872dd3384600289604051610cdc91906128d0565b9081526020016040518091039020546040518463ffffffff1660e01b8152600401610d099392919061292c565b602060405180830381600087803b158015610d2357600080fd5b505af1158015610d37573d6000803e3d6000fd5b505050506040513d601f19601f82011682018060405250810190610d5b91906121d4565b905080610d9d576040517f08c379a0000000000000000000000000000000000000000000000000000000008152600401610d9490612b06565b60405180910390fd5b610da5612009565b600286604051610db591906128d0565b908152602001604051809103902054816080018181525050610dd56118ad565b8160ff1691508360000184602001856060018361ffff1661ffff168152508361ffff1661ffff168152508360ff1660ff16815250505050610e1e81600001518260600151611e14565b816060019061ffff16908161ffff168152505060036000826000015160ff1660ff16815260200190815260200160002060000160049054906101000a900460ff16816040019060ff16908160ff1681525050600073__NftLibrary____________________________63ff1571d7836040518263ffffffff1660e01b8152600401610ea99190612ba6565b60206040518083038186803b158015610ec157600080fd5b505af4158015610ed5573d6000803e3d6000fd5b505050506040513d601f19601f82011682018060405250810190610ef99190612292565b9050600060036000846000015160ff1660ff168152602001908152602001600020600101836020015161ffff1681548110610f5d577f4e487b7100000000000000000000000000000000000000000000000000000000600052603260045260246000fd5b90600052602060002090600891828204019190066004029054906101000a900463ffffffff16905060016002604051610f95906128e7565b908152602001604051809103902054610fae9190612df7565b6002604051610fbc906128e7565b908152602001604051809103902081905550600181610fdb9190612e2b565b60036000856000015160ff1660ff168152602001908152602001600020600101846020015161ffff168154811061103b577f4e487b7100000000000000000000000000000000000000000000000000000000600052603260045260246000fd5b90600052602060002090600891828204019190066004026101000a81548163ffffffff021916908363ffffffff1602179055506000600160009054906101000a900473ffffffffffffffffffffffffffffffffffffffff1673ffffffffffffffffffffffffffffffffffffffff16636957a0b26040518163ffffffff1660e01b81526004016110c990612b66565b60206040518083038186803b1580156110e157600080fd5b505afa1580156110f5573d6000803e3d6000fd5b505050506040513d601f19601f8201168201806040525081019061111991906121ab565b90508073ffffffffffffffffffffffffffffffffffffffff1663f9d526d333856040518363ffffffff1660e01b81526004016111569291906129ef565b600060405180830381600087803b15801561117057600080fd5b505af1158015611184573d6000803e3d6000fd5b505050506000600160009054906101000a900473ffffffffffffffffffffffffffffffffffffffff1673ffffffffffffffffffffffffffffffffffffffff16636957a0b26040518163ffffffff1660e01b81526004016111e390612b26565b60206040518083038186803b1580156111fb57600080fd5b505afa15801561120f573d6000803e3d6000fd5b505050506040513d601f19601f8201168201806040525081019061123391906121ab565b90508073ffffffffffffffffffffffffffffffffffffffff1663f9d526d333866040518363ffffffff1660e01b81526004016112709291906129ef565b600060405180830381600087803b15801561128a57600080fd5b505af115801561129e573d6000803e3d6000fd5b505050507fe69ddaf88957040bdf59684a08f2de103a37fa00fe3d216f8fe2ec965a015523856000015186602001518688606001516040516112e39493929190612bf7565b60405180910390a150505050505050505050565b6002818051602081018201805184825260208301602085012081835280955050505050506000915090505481565b61132d612001565b73ffffffffffffffffffffffffffffffffffffffff1661134b6116b5565b73ffffffffffffffffffffffffffffffffffffffff16146113a1576040517f08c379a000000000000000000000000000000000000000000000000000000000815260040161139890612ae6565b60405180910390fd5b600073ffffffffffffffffffffffffffffffffffffffff1660008054906101000a900473ffffffffffffffffffffffffffffffffffffffff1673ffffffffffffffffffffffffffffffffffffffff167f8be0079c531659141344cd1fd0a4f28419497f9722a3daafe3b4186f6b6457e060405160405180910390a360008060006101000a81548173ffffffffffffffffffffffffffffffffffffffff021916908373ffffffffffffffffffffffffffffffffffffffff160217905550565b611467612001565b73ffffffffffffffffffffffffffffffffffffffff166114856116b5565b73ffffffffffffffffffffffffffffffffffffffff16146114db576040517f08c379a00000000000000000000000000000000000000000000000000000000081526004016114d290612ae6565b60405180910390fd5b80600160006101000a81548173ffffffffffffffffffffffffffffffffffffffff021916908373ffffffffffffffffffffffffffffffffffffffff16021790555050565b6040518060400160405280600681526020017f434f4e4649470000000000000000000000000000000000000000000000000000815250600160009054906101000a900473ffffffffffffffffffffffffffffffffffffffff1673ffffffffffffffffffffffffffffffffffffffff1663f5e65c7233836040518363ffffffff1660e01b81526004016115b2929190612963565b60206040518083038186803b1580156115ca57600080fd5b505afa1580156115de573d6000803e3d6000fd5b505050506040513d601f19601f8201168201806040525081019061160291906121d4565b611641576040517f08c379a000000000000000000000000000000000000000000000000000000000815260040161163890612b86565b60405180910390fd5b81600360008660ff1660ff16815260200190815260200160002060000160026101000a81548161ffff021916908361ffff16021790555082600360008660ff1660ff16815260200190815260200160002060000160006101000a81548161ffff021916908361ffff16021790555050505050565b60008060009054906101000a900473ffffffffffffffffffffffffffffffffffffffff16905090565b600160009054906101000a900473ffffffffffffffffffffffffffffffffffffffff1681565b61170c612001565b73ffffffffffffffffffffffffffffffffffffffff1661172a6116b5565b73ffffffffffffffffffffffffffffffffffffffff1614611780576040517f08c379a000000000000000000000000000000000000000000000000000000000815260040161177790612ae6565b60405180910390fd5b600073ffffffffffffffffffffffffffffffffffffffff168173ffffffffffffffffffffffffffffffffffffffff1614156117f0576040517f08c379a00000000000000000000000000000000000000000000000000000000081526004016117e790612ac6565b60405180910390fd5b8073ffffffffffffffffffffffffffffffffffffffff1660008054906101000a900473ffffffffffffffffffffffffffffffffffffffff1673ffffffffffffffffffffffffffffffffffffffff167f8be0079c531659141344cd1fd0a4f28419497f9722a3daafe3b4186f6b6457e060405160405180910390a3806000806101000a81548173ffffffffffffffffffffffffffffffffffffffff021916908373ffffffffffffffffffffffffffffffffffffffff16021790555050565b6000806000806000905060008073__NftLibrary____________________________63b863bd3760026040516118e2906128e7565b9081526020016040518091039020546040518263ffffffff1660e01b815260040161190d9190612bc1565b60206040518083038186803b15801561192557600080fd5b505af4158015611939573d6000803e3d6000fd5b505050506040513d601f19601f8201168201806040525081019061195d91906122bb565b90506000600190505b60016002604051611976906128fc565b90815260200160405180910390205461198f9190612cfc565b8160ff161015611e0b5782156119a457611e0b565b6000600360008360ff1660ff1681526020019081526020016000206040518060800160405290816000820160009054906101000a900461ffff1661ffff1661ffff1681526020016000820160029054906101000a900461ffff1661ffff1661ffff1681526020016000820160049054906101000a900460ff1660ff1660ff16815260200160018201805480602002602001604051908101604052809291908181526020018280548015611aa257602002820191906000526020600020906000905b82829054906101000a900463ffffffff1663ffffffff1681526020019060040190602082600301049283019260010382029150808411611a655790505b505050505081525050905060005b8160600151518160ff161015611df6578563ffffffff1684118015611b2d57508582606001518260ff1681518110611b11577f4e487b7100000000000000000000000000000000000000000000000000000000600052603260045260246000fd5b6020026020010151611b239190612d52565b63ffffffff168411155b15611d8e57600360008460ff1660ff16815260200190815260200160002060000160009054906101000a900461ffff169650829850600181611b6f9190612d8c565b9750600194506000600360008560ff1660ff16815260200190815260200160002060000160029054906101000a900461ffff1661ffff161015611bb157611df6565b6000600360008560ff1660ff16815260200190815260200160002060000160009054906101000a900461ffff16600360008660ff1660ff16815260200190815260200160002060000160029054906101000a900461ffff16611c139190612cc4565b61ffff16905073__NftLibrary____________________________63b863bd37826040518263ffffffff1660e01b8152600401611c509190612bc1565b60206040518083038186803b158015611c6857600080fd5b505af4158015611c7c573d6000803e3d6000fd5b505050506040513d601f19601f82011682018060405250810190611ca091906122bb565b9750600360008560ff1660ff16815260200190815260200160002060000160029054906101000a900461ffff1661ffff168861ffff161115611d1557600360008560ff1660ff16815260200190815260200160002060000160009054906101000a900461ffff1688611d129190612dc3565b97505b600360008560ff1660ff16815260200190815260200160002060000160009054906101000a900461ffff1661ffff168861ffff161015611d8857600360008560ff1660ff16815260200190815260200160002060000160009054906101000a900461ffff1688611d859190612cc4565b97505b50611df6565b81606001518160ff1681518110611dce577f4e487b7100000000000000000000000000000000000000000000000000000000600052603260045260246000fd5b602002602001015186611de19190612d52565b95508080611dee90612f9a565b915050611ab0565b50508080611e0390612f9a565b915050611966565b50505050909192565b600060058360ff16148015611e2e575060788261ffff1610155b15611ff757600073__NftLibrary____________________________63b863bd3760646040518263ffffffff1660e01b8152600401611e6d9190612a33565b60206040518083038186803b158015611e8557600080fd5b505af4158015611e99573d6000803e3d6000fd5b505050506040513d601f19601f82011682018060405250810190611ebd91906122bb565b90506050811115611f665773__NftLibrary____________________________63b863bd3760506040518263ffffffff1660e01b8152600401611f009190612a69565b60206040518083038186803b158015611f1857600080fd5b505af4158015611f2c573d6000803e3d6000fd5b505050506040513d601f19601f82011682018060405250810190611f5091906122bb565b9050609681611f5f9190612cfc565b9150611ff1565b73__NftLibrary____________________________63b863bd3760786040518263ffffffff1660e01b8152600401611f9e9190612a4e565b60206040518083038186803b158015611fb657600080fd5b505af4158015611fca573d6000803e3d6000fd5b505050506040513d601f19601f82011682018060405250810190611fee91906122bb565b91505b50611ffb565b8190505b92915050565b600033905090565b6040518060c00160405280600060ff168152602001600061ffff168152602001600060ff168152602001600061ffff1681526020016000815260200160006dffffffffffffffffffffffffffff1681525090565b600061207061206b84612c6d565b612c3c565b90508281526020810184848401111561208857600080fd5b612093848285612f58565b509392505050565b6000813590506120aa81613033565b92915050565b6000815190506120bf81613033565b92915050565b6000815190506120d48161304a565b92915050565b600082601f8301126120eb57600080fd5b81356120fb84826020860161205d565b91505092915050565b60008151905061211381613061565b92915050565b60008135905061212881613078565b92915050565b60008135905061213d8161308f565b92915050565b6000815190506121528161308f565b92915050565b600081359050612167816130a6565b92915050565b60008135905061217c816130bd565b92915050565b60006020828403121561219457600080fd5b60006121a28482850161209b565b91505092915050565b6000602082840312156121bd57600080fd5b60006121cb848285016120b0565b91505092915050565b6000602082840312156121e657600080fd5b60006121f4848285016120c5565b91505092915050565b60006020828403121561220f57600080fd5b600082013567ffffffffffffffff81111561222957600080fd5b612235848285016120da565b91505092915050565b6000806040838503121561225157600080fd5b600083013567ffffffffffffffff81111561226b57600080fd5b612277858286016120da565b92505060206122888582860161212e565b9150509250929050565b6000602082840312156122a457600080fd5b60006122b284828501612104565b91505092915050565b6000602082840312156122cd57600080fd5b60006122db84828501612143565b91505092915050565b600080604083850312156122f757600080fd5b60006123058582860161216d565b925050602061231685828601612119565b9150509250929050565b60008060006060848603121561233557600080fd5b60006123438682870161216d565b935050602061235486828701612119565b925050604061236586828701612119565b9150509250925092565b60008060006060848603121561238457600080fd5b60006123928682870161216d565b93505060206123a38682870161212e565b92505060406123b486828701612158565b9150509250925092565b6123c781612e5f565b82525050565b6123d681612eec565b82525050565b6123e581612f10565b82525050565b6123f481612f22565b82525050565b61240381612f34565b82525050565b600061241482612c9d565b61241e8185612ca8565b935061242e818560208601612f67565b61243781613022565b840191505092915050565b600061244d82612c9d565b6124578185612cb9565b9350612467818560208601612f67565b80840191505092915050565b6000612480601b83612ca8565b91507f4341524453484f503a2053686f70206973206e6f74206f70656e2e00000000006000830152602082019050919050565b60006124c0602683612ca8565b91507f4f776e61626c653a206e6577206f776e657220697320746865207a65726f206160008301527f64647265737300000000000000000000000000000000000000000000000000006020830152604082019050919050565b6000612526600583612cb9565b91507f544f54414c0000000000000000000000000000000000000000000000000000006000830152600582019050919050565b6000612566602083612ca8565b91507f4f776e61626c653a2063616c6c6572206973206e6f7420746865206f776e65726000830152602082019050919050565b60006125a6601c83612ca8565b91507f4341524453484f503a205472616e73616374696f6e206661696c6564000000006000830152602082019050919050565b60006125e6600a83612ca8565b91507f43415244524557415244000000000000000000000000000000000000000000006000830152602082019050919050565b6000612626600383612ca8565b91507f414c4c00000000000000000000000000000000000000000000000000000000006000830152602082019050919050565b6000612666600983612ca8565b91507f524543495049454e5400000000000000000000000000000000000000000000006000830152602082019050919050565b60006126a6600783612ca8565b91507f46494748544552000000000000000000000000000000000000000000000000006000830152602082019050919050565b60006126e6600783612cb9565b91507f5155414c495459000000000000000000000000000000000000000000000000006000830152600782019050919050565b6000612726602483612ca8565b91507f4d656d6265723a20546865206f7065726174696f6e206973206e6f7420616c6c60008301527f6f776564000000000000000000000000000000000000000000000000000000006020830152604082019050919050565b600061278c600483612ca8565b91507f4f50454e000000000000000000000000000000000000000000000000000000006000830152602082019050919050565b60c0820160008201516127d560008501826128c1565b5060208201516127e86020850182612876565b5060408201516127fb60408501826128c1565b50606082015161280e6060850182612876565b50608082015161282160808501826128a3565b5060a082015161283460a0850182612849565b50505050565b61284381612e7d565b82525050565b61285281612e7d565b82525050565b61286181612f46565b82525050565b61287081612e97565b82525050565b61287f81612e97565b82525050565b61288e81612ec5565b82525050565b61289d81612ec5565b82525050565b6128ac81612ec5565b82525050565b6128bb81612edf565b82525050565b6128ca81612edf565b82525050565b60006128dc8284612442565b915081905092915050565b60006128f282612519565b9150819050919050565b6000612907826126d9565b9150819050919050565b600060208201905061292660008301846123be565b92915050565b600060608201905061294160008301866123be565b61294e60208301856123be565b61295b6040830184612885565b949350505050565b600060408201905061297860008301856123be565b818103602083015261298a8184612409565b90509392505050565b60006040820190506129a860008301846123be565b81810360208301526129b981612619565b905092915050565b60006040820190506129d660008301846123be565b81810360208301526129e78161277f565b905092915050565b6000604082019050612a0460008301856123be565b612a11602083018461283a565b9392505050565b6000602082019050612a2d60008301846123cd565b92915050565b6000602082019050612a4860008301846123dc565b92915050565b6000602082019050612a6360008301846123eb565b92915050565b6000602082019050612a7e60008301846123fa565b92915050565b60006020820190508181036000830152612a9e8184612409565b905092915050565b60006020820190508181036000830152612abf81612473565b9050919050565b60006020820190508181036000830152612adf816124b3565b9050919050565b60006020820190508181036000830152612aff81612559565b9050919050565b60006020820190508181036000830152612b1f81612599565b9050919050565b60006020820190508181036000830152612b3f816125d9565b9050919050565b60006020820190508181036000830152612b5f81612659565b9050919050565b60006020820190508181036000830152612b7f81612699565b9050919050565b60006020820190508181036000830152612b9f81612719565b9050919050565b600060c082019050612bbb60008301846127bf565b92915050565b6000602082019050612bd66000830184612894565b92915050565b6000602082019050612bf16000830184612885565b92915050565b6000608082019050612c0c60008301876128b2565b612c196020830186612867565b612c266040830185612858565b612c336060830184612867565b95945050505050565b6000604051905081810181811067ffffffffffffffff82111715612c6357612c62612ff3565b5b8060405250919050565b600067ffffffffffffffff821115612c8857612c87612ff3565b5b601f19601f8301169050602081019050919050565b600081519050919050565b600082825260208201905092915050565b600081905092915050565b6000612ccf82612e97565b9150612cda83612e97565b92508261ffff03821115612cf157612cf0612fc4565b5b828201905092915050565b6000612d0782612ec5565b9150612d1283612ec5565b9250827fffffffffffffffffffffffffffffffffffffffffffffffffffffffffffffffff03821115612d4757612d46612fc4565b5b828201905092915050565b6000612d5d82612ecf565b9150612d6883612ecf565b92508263ffffffff03821115612d8157612d80612fc4565b5b828201905092915050565b6000612d9782612edf565b9150612da283612edf565b92508260ff03821115612db857612db7612fc4565b5b828201905092915050565b6000612dce82612e97565b9150612dd983612e97565b925082821015612dec57612deb612fc4565b5b828203905092915050565b6000612e0282612ec5565b9150612e0d83612ec5565b925082821015612e2057612e1f612fc4565b5b828203905092915050565b6000612e3682612ecf565b9150612e4183612ecf565b925082821015612e5457612e53612fc4565b5b828203905092915050565b6000612e6a82612ea5565b9050919050565b60008115159050919050565b60006dffffffffffffffffffffffffffff82169050919050565b600061ffff82169050919050565b600073ffffffffffffffffffffffffffffffffffffffff82169050919050565b6000819050919050565b600063ffffffff82169050919050565b600060ff82169050919050565b6000612ef782612efe565b9050919050565b6000612f0982612ea5565b9050919050565b6000612f1b82612ec5565b9050919050565b6000612f2d82612ec5565b9050919050565b6000612f3f82612ec5565b9050919050565b6000612f5182612e7d565b9050919050565b82818337600083830152505050565b60005b83811015612f85578082015181840152602081019050612f6a565b83811115612f94576000848401525b50505050565b6000612fa582612edf565b915060ff821415612fb957612fb8612fc4565b5b600182019050919050565b7f4e487b7100000000000000000000000000000000000000000000000000000000600052601160045260246000fd5b7f4e487b7100000000000000000000000000000000000000000000000000000000600052604160045260246000fd5b6000601f19601f8301169050919050565b61303c81612e5f565b811461304757600080fd5b50565b61305381612e71565b811461305e57600080fd5b50565b61306a81612e7d565b811461307557600080fd5b50565b61308181612e97565b811461308c57600080fd5b50565b61309881612ec5565b81146130a357600080fd5b50565b6130af81612ecf565b81146130ba57600080fd5b50565b6130c681612edf565b81146130d157600080fd5b5056fea264697066735822122067834ba9e1ee6d7499f918ba3d8c4b9ebf3343f430c1b9f0e1e7fbe504eb4cb864736f6c63430008000033",
  "immutableReferences": {},
  "source": "// SPDX-License-Identifier: SimPL-2.0\n\npragma solidity ^0.8.0;\npragma experimental ABIEncoderV2;\n\nimport \"../token/Fighter.sol\";\nimport \"../core/CardReward.sol\";\nimport \"../authority/Member.sol\";\nimport \"../libraries/NftLibrary.sol\";\n\nimport \"@openzeppelin/contracts/token/ERC20/IERC20.sol\";\nimport \"@openzeppelin/contracts/utils/math/SafeMath.sol\";\nimport \"@openzeppelin/contracts/utils/structs/EnumerableSet.sol\";\n\n/**\n * @title Fighter Z Token Card Shop\n *\n * @author Bit Lighthouse. Ace\n * AT: 2021-3-28 | VERSION: v1.0.2\n */\n\ncontract CardShop is Member {\n    using SafeMath for uint256;\n    using EnumerableSet for EnumerableSet.UintSet;\n\n    mapping (uint8 => NftLibrary.CardStruct) private _cards;\n    event Buy(uint8 quality, uint16 heroId, uint256 tokenId, uint16 rate);\n\n    constructor(address auth_) Member(auth_) {\n        configs[\"QUALITY\"] = 5;\n        configs[\"TOTAL\"] = 10000;\n        configs[\"DBFZ\"] = 1000e18;\n\n        _cards[1] = NftLibrary.CardStruct(3000, 0, 5, _create(7, 1));\n        _cards[2] = NftLibrary.CardStruct(2000, 0, 4, _create(5, 5));\n        _cards[3] = NftLibrary.CardStruct(200, 800, 3, _create(20, 50));\n        _cards[4] = NftLibrary.CardStruct(90, 410, 2, _create(20, 100));\n        _cards[5] = NftLibrary.CardStruct(50, 150, 1, _create(20, 348));\n        \n        _cards[5].role[19] = _cards[5].role[19] + 8;\n    }\n\n    function _specials(uint8 quality_, uint16 rate_) private view\n        returns (uint16 result) {\n\n        if (quality_ == 5 && rate_ >= 120) {\n            uint256 ran = NftLibrary.random(100);\n            if (ran > 80) {\n                ran = NftLibrary.random(80);\n                result = uint16(ran + 150);\n            } else {\n                result = uint16(NftLibrary.random(120));\n            }\n        } else result = rate_;\n    }\n\n    function _create(uint8 len_, uint32 number_) private pure\n        returns (uint32[] memory roles){\n\n        roles = new uint32[](len_);\n        for (uint8 i = 0; i < len_; i++) roles[i] = number_;\n    }\n\n    function _choose() private view returns (uint8 q, uint8 h, uint16 r) {\n        uint32  index = 0; bool is_break = false;\n        uint256 ran = NftLibrary.random(configs[\"TOTAL\"]);\n\n        for (uint8 i = 1; i < configs[\"QUALITY\"] + 1; i++) {\n            if (is_break) break;\n            \n            NftLibrary.CardStruct memory cs = _cards[i];\n            for (uint8 j = 0; j < cs.role.length; j++) {\n                if (ran > index && ran <= cs.role[j] + index) {\n                    r = _cards[i].start; q = i;\n                    h = (j + 1); is_break = true;\n\n                    if (_cards[i].plus < 0) break;\n\n                    uint256 total = _cards[i].plus + _cards[i].start;\n                    r = uint16(NftLibrary.random(total));\n\n                    if (r > _cards[i].plus) r = r - _cards[i].start;\n                    if (r < _cards[i].start) r = r + _cards[i].start;\n\n                    break;\n                }\n\n                index = index + cs.role[j];\n            }\n        }\n    }\n\n    function fresh(uint8 quality_, uint16 role_) public\n        CheckPermit(\"CARDREWARD\") {\n\n        uint32 surpls = _cards[quality_].role[role_];\n        _cards[quality_].role[role_] = surpls + 1;\n    }\n\n    function setCardRate(uint8 quality_, uint16 start_, uint16 plus_)\n        public CheckPermit(\"CONFIG\") {\n\n        _cards[quality_].plus = plus_;\n        _cards[quality_].start = start_;\n    }\n\n    function setCardNumber(uint8 quality_, uint index_, uint32 numbers_)\n        public CheckPermit(\"CONFIG\") {\n\n        _cards[quality_].role[index_] = numbers_;\n    }\n\n    function buy(string memory symbol_) public CheckStatus(\"BUY\") {\n        require(\n            !authority.authorities(address(0), \"OPEN\"),\n            \"CARDSHOP: Shop is not open.\"\n        );\n\n        address token = authority.members(symbol_);\n        address recipient = authority.members(\"RECIPIENT\");\n\n        bool success = IERC20(token).transferFrom(\n            msg.sender, recipient, configs[symbol_]\n        );\n\n        require(success, \"CARDSHOP: Transaction failed\");\n\n        NftLibrary.DetailStruct memory ds;\n        ds.amount = configs[symbol_];\n        (ds.quality, ds.heroId, ds.rate) = _choose();\n        ds.rate = _specials(ds.quality, ds.rate);\n        ds.power = _cards[ds.quality].power;\n\n        uint112 tokenId = NftLibrary.generate(ds);\n        uint32 surpls = _cards[ds.quality].role[ds.heroId];\n        configs[\"TOTAL\"] = configs[\"TOTAL\"] - 1;\n        _cards[ds.quality].role[ds.heroId] = surpls - 1;\n\n        address nft = authority.members(\"FIGHTER\");\n        Fighter(nft).doBuy(msg.sender, tokenId);\n\n        address cr = authority.members(\"CARDREWARD\");\n        CardReward(cr).doBuy(msg.sender, tokenId);\n\n        emit Buy(ds.quality, ds.heroId, tokenId, ds.rate);\n    }\n}",
  "sourcePath": "/home/ace/Projects/eth/other/dragon-ball-project/dragon-ball-contract/contracts/core/CardShop.sol",
  "compiler": {
    "name": "solc",
    "version": "0.8.0+commit.c7dfd78e.Emscripten.clang"
  },
  "schemaVersion": "3.4.3",
  "updatedAt": "2021-09-07T03:46:34.768Z",
  "networkType": "ethereum",
  "devdoc": {
    "author": "Bit Lighthouse. Ace AT: 2021-3-28 | VERSION: v1.0.2",
    "kind": "dev",
    "methods": {
      "owner()": {
        "details": "Returns the address of the current owner."
      },
      "renounceOwnership()": {
        "details": "Leaves the contract without owner. It will not be possible to call `onlyOwner` functions anymore. Can only be called by the current owner. NOTE: Renouncing ownership will leave the contract without an owner, thereby removing any functionality that is only available to the owner."
      },
      "setAuthority(address)": {
        "params": {
          "authority_": "address of manager This function is onwer only"
        }
      },
      "setConfig(string,uint256)": {
        "params": {
          "config_": "config's value This function is config only",
          "name_": "name of config"
        }
      },
      "transferOwnership(address)": {
        "details": "Transfers ownership of the contract to a new account (`newOwner`). Can only be called by the current owner."
      }
    },
    "title": "Fighter Z Token Card Shop",
    "version": 1
  },
  "userdoc": {
    "kind": "user",
    "methods": {
      "setAuthority(address)": {
        "notice": "Set new manager"
      },
      "setConfig(string,uint256)": {
        "notice": "Set config of global or contract"
      }
    },
    "version": 1
  }
}