{
  "contractName": "CardReward",
  "abi": [
    {
      "inputs": [
        {
          "internalType": "address",
          "name": "auth_",
          "type": "address"
        }
      ],
      "stateMutability": "nonpayable",
      "type": "constructor"
    },
    {
      "anonymous": false,
      "inputs": [
        {
          "indexed": false,
          "internalType": "uint256",
          "name": "reward",
          "type": "uint256"
        },
        {
          "indexed": false,
          "internalType": "uint256",
          "name": "power",
          "type": "uint256"
        },
        {
          "indexed": false,
          "internalType": "uint256",
          "name": "total_power",
          "type": "uint256"
        }
      ],
      "name": "Claim",
      "type": "event"
    },
    {
      "anonymous": false,
      "inputs": [
        {
          "indexed": false,
          "internalType": "uint16",
          "name": "rate",
          "type": "uint16"
        },
        {
          "indexed": false,
          "internalType": "uint256",
          "name": "reward",
          "type": "uint256"
        },
        {
          "indexed": false,
          "internalType": "uint256",
          "name": "surpls",
          "type": "uint256"
        }
      ],
      "name": "DoExchange",
      "type": "event"
    },
    {
      "anonymous": false,
      "inputs": [
        {
          "indexed": true,
          "internalType": "address",
          "name": "previousOwner",
          "type": "address"
        },
        {
          "indexed": true,
          "internalType": "address",
          "name": "newOwner",
          "type": "address"
        }
      ],
      "name": "OwnershipTransferred",
      "type": "event"
    },
    {
      "anonymous": false,
      "inputs": [
        {
          "indexed": false,
          "internalType": "uint256",
          "name": "reward",
          "type": "uint256"
        },
        {
          "indexed": false,
          "internalType": "uint256",
          "name": "surpls",
          "type": "uint256"
        }
      ],
      "name": "Redeemed",
      "type": "event"
    },
    {
      "inputs": [
        {
          "internalType": "uint8",
          "name": "",
          "type": "uint8"
        }
      ],
      "name": "_rates",
      "outputs": [
        {
          "internalType": "uint8",
          "name": "number",
          "type": "uint8"
        },
        {
          "internalType": "uint16",
          "name": "rate",
          "type": "uint16"
        },
        {
          "internalType": "uint8",
          "name": "times",
          "type": "uint8"
        }
      ],
      "stateMutability": "view",
      "type": "function",
      "constant": true
    },
    {
      "inputs": [],
      "name": "authority",
      "outputs": [
        {
          "internalType": "contract Authority",
          "name": "",
          "type": "address"
        }
      ],
      "stateMutability": "view",
      "type": "function",
      "constant": true
    },
    {
      "inputs": [
        {
          "internalType": "string",
          "name": "",
          "type": "string"
        }
      ],
      "name": "configs",
      "outputs": [
        {
          "internalType": "uint256",
          "name": "",
          "type": "uint256"
        }
      ],
      "stateMutability": "view",
      "type": "function",
      "constant": true
    },
    {
      "inputs": [],
      "name": "owner",
      "outputs": [
        {
          "internalType": "address",
          "name": "",
          "type": "address"
        }
      ],
      "stateMutability": "view",
      "type": "function",
      "constant": true
    },
    {
      "inputs": [],
      "name": "renounceOwnership",
      "outputs": [],
      "stateMutability": "nonpayable",
      "type": "function"
    },
    {
      "inputs": [
        {
          "internalType": "address",
          "name": "authority_",
          "type": "address"
        }
      ],
      "name": "setAuthority",
      "outputs": [],
      "stateMutability": "nonpayable",
      "type": "function"
    },
    {
      "inputs": [
        {
          "internalType": "string",
          "name": "name_",
          "type": "string"
        },
        {
          "internalType": "uint256",
          "name": "config_",
          "type": "uint256"
        }
      ],
      "name": "setConfig",
      "outputs": [],
      "stateMutability": "nonpayable",
      "type": "function"
    },
    {
      "inputs": [
        {
          "internalType": "address",
          "name": "newOwner",
          "type": "address"
        }
      ],
      "name": "transferOwnership",
      "outputs": [],
      "stateMutability": "nonpayable",
      "type": "function"
    },
    {
      "inputs": [
        {
          "internalType": "uint8",
          "name": "quality_",
          "type": "uint8"
        },
        {
          "internalType": "uint8",
          "name": "number_",
          "type": "uint8"
        },
        {
          "internalType": "uint16",
          "name": "rate_",
          "type": "uint16"
        },
        {
          "internalType": "uint8",
          "name": "times_",
          "type": "uint8"
        }
      ],
      "name": "setRewardRate",
      "outputs": [],
      "stateMutability": "nonpayable",
      "type": "function"
    },
    {
      "inputs": [
        {
          "internalType": "address",
          "name": "to_",
          "type": "address"
        },
        {
          "internalType": "uint112",
          "name": "tokenId_",
          "type": "uint112"
        }
      ],
      "name": "doBuy",
      "outputs": [],
      "stateMutability": "nonpayable",
      "type": "function"
    },
    {
      "inputs": [
        {
          "internalType": "address",
          "name": "from_",
          "type": "address"
        },
        {
          "internalType": "address",
          "name": "to_",
          "type": "address"
        },
        {
          "internalType": "uint112",
          "name": "tokenId_",
          "type": "uint112"
        }
      ],
      "name": "doExchange",
      "outputs": [],
      "stateMutability": "nonpayable",
      "type": "function"
    },
    {
      "inputs": [
        {
          "internalType": "address",
          "name": "account_",
          "type": "address"
        }
      ],
      "name": "getReward",
      "outputs": [
        {
          "internalType": "uint256",
          "name": "reward",
          "type": "uint256"
        }
      ],
      "stateMutability": "view",
      "type": "function",
      "constant": true
    },
    {
      "inputs": [
        {
          "internalType": "address",
          "name": "account_",
          "type": "address"
        }
      ],
      "name": "getUserPower",
      "outputs": [
        {
          "internalType": "uint256",
          "name": "power",
          "type": "uint256"
        }
      ],
      "stateMutability": "view",
      "type": "function",
      "constant": true
    },
    {
      "inputs": [
        {
          "internalType": "address",
          "name": "account_",
          "type": "address"
        },
        {
          "internalType": "uint256",
          "name": "i",
          "type": "uint256"
        }
      ],
      "name": "getUserToken",
      "outputs": [
        {
          "internalType": "uint256",
          "name": "tokenId",
          "type": "uint256"
        }
      ],
      "stateMutability": "view",
      "type": "function",
      "constant": true
    },
    {
      "inputs": [],
      "name": "getTotalPower",
      "outputs": [
        {
          "internalType": "uint256",
          "name": "power",
          "type": "uint256"
        }
      ],
      "stateMutability": "view",
      "type": "function",
      "constant": true
    },
    {
      "inputs": [
        {
          "internalType": "address",
          "name": "account_",
          "type": "address"
        }
      ],
      "name": "getTokenList",
      "outputs": [
        {
          "components": [
            {
              "internalType": "uint8",
              "name": "quality",
              "type": "uint8"
            },
            {
              "internalType": "uint16",
              "name": "heroId",
              "type": "uint16"
            },
            {
              "internalType": "uint16",
              "name": "rate",
              "type": "uint16"
            },
            {
              "internalType": "uint256",
              "name": "amount",
              "type": "uint256"
            },
            {
              "internalType": "uint112",
              "name": "tokenId",
              "type": "uint112"
            }
          ],
          "internalType": "struct NftLibrary.DetailStruct[]",
          "name": "list",
          "type": "tuple[]"
        }
      ],
      "stateMutability": "view",
      "type": "function",
      "constant": true
    },
    {
      "inputs": [],
      "name": "getRanking",
      "outputs": [
        {
          "components": [
            {
              "internalType": "address",
              "name": "account",
              "type": "address"
            },
            {
              "internalType": "uint256",
              "name": "power",
              "type": "uint256"
            }
          ],
          "internalType": "struct CardReward.RankStruct[]",
          "name": "rank",
          "type": "tuple[]"
        }
      ],
      "stateMutability": "view",
      "type": "function",
      "constant": true
    },
    {
      "inputs": [],
      "name": "claim",
      "outputs": [],
      "stateMutability": "nonpayable",
      "type": "function"
    },
    {
      "inputs": [
        {
          "internalType": "uint112",
          "name": "tokenId_",
          "type": "uint112"
        }
      ],
      "name": "redeemed",
      "outputs": [],
      "stateMutability": "nonpayable",
      "type": "function"
    },
    {
      "inputs": [
        {
          "internalType": "uint8",
          "name": "quality_",
          "type": "uint8"
        }
      ],
      "name": "exchange",
      "outputs": [],
      "stateMutability": "nonpayable",
      "type": "function"
    }
  ],
  "bytecode": "0x60806040523480156200001157600080fd5b5060405162005a9738038062005a978339818101604052810190620000379190620004e5565b8060006200004a620004c660201b60201c565b9050806000806101000a81548173ffffffffffffffffffffffffffffffffffffffff021916908373ffffffffffffffffffffffffffffffffffffffff1602179055508073ffffffffffffffffffffffffffffffffffffffff16600073ffffffffffffffffffffffffffffffffffffffff167f8be0079c531659141344cd1fd0a4f28419497f9722a3daafe3b4186f6b6457e060405160405180910390a35080600160006101000a81548173ffffffffffffffffffffffffffffffffffffffff021916908373ffffffffffffffffffffffffffffffffffffffff16021790555050600060026040516200013c90620005ac565b9081526020016040518091039020819055506a52b7d2dcc80cd2e400000060026040516200016a9062000595565b9081526020016040518091039020819055506040518060600160405280600760ff168152602001602361ffff168152602001600760ff1681525060056000600160ff16815260200190815260200160002060008201518160000160006101000a81548160ff021916908360ff16021790555060208201518160000160016101000a81548161ffff021916908361ffff16021790555060408201518160000160036101000a81548160ff021916908360ff1602179055509050506040518060600160405280600360ff168152602001600a61ffff168152602001600160ff1681525060056000600260ff16815260200190815260200160002060008201518160000160006101000a81548160ff021916908360ff16021790555060208201518160000160016101000a81548161ffff021916908361ffff16021790555060408201518160000160036101000a81548160ff021916908360ff1602179055509050506040518060600160405280600560ff168152602001600561ffff168152602001600160ff1681525060056000600360ff16815260200190815260200160002060008201518160000160006101000a81548160ff021916908360ff16021790555060208201518160000160016101000a81548161ffff021916908361ffff16021790555060408201518160000160036101000a81548160ff021916908360ff1602179055509050506040518060600160405280600a60ff168152602001600161ffff168152602001600160ff1681525060056000600460ff16815260200190815260200160002060008201518160000160006101000a81548160ff021916908360ff16021790555060208201518160000160016101000a81548161ffff021916908361ffff16021790555060408201518160000160036101000a81548160ff021916908360ff1602179055509050506040518060600160405280600060ff168152602001600061ffff168152602001600060ff1681525060056000600560ff16815260200190815260200160002060008201518160000160006101000a81548160ff021916908360ff16021790555060208201518160000160016101000a81548161ffff021916908361ffff16021790555060408201518160000160036101000a81548160ff021916908360ff160217905550905050506200061c565b600033905090565b600081519050620004df8162000602565b92915050565b600060208284031215620004f857600080fd5b60006200050884828501620004ce565b91505092915050565b600062000520600683620005c3565b91507f52455741524400000000000000000000000000000000000000000000000000006000830152600682019050919050565b600062000562600683620005c3565b91507f504f5745525300000000000000000000000000000000000000000000000000006000830152600682019050919050565b6000620005a28262000511565b9150819050919050565b6000620005b98262000553565b9150819050919050565b600081905092915050565b6000620005db82620005e2565b9050919050565b600073ffffffffffffffffffffffffffffffffffffffff82169050919050565b6200060d81620005ce565b81146200061957600080fd5b50565b61546b806200062c6000396000f3fe608060405234801561001057600080fd5b506004361061012c5760003560e01c80638da5cb5b116100ad578063cb20a5b711610071578063cb20a5b71461031f578063d8a307321461033b578063deea96071461036b578063f2fde38b14610387578063f9d526d3146103a35761012c565b80638da5cb5b146102655780639d3543f014610283578063bf7452001461029f578063bf7e214f146102d1578063c00007b0146102ef5761012c565b80634e71d92d116100f45780634e71d92d146101e757806353976a26146101f15780635ef7fbad1461020f578063715018a61461023f5780637a9e5e4b146102495761012c565b806302931e59146101315780631398bbf71461016157806315f42ce91461017f5780633dbc1d7c1461019b5780633e8f5b90146101cb575b600080fd5b61014b600480360381019061014691906140d1565b6103bf565b6040516101589190614ea4565b60405180910390f35b61016961040b565b6040516101769190614c3f565b60405180910390f35b61019960048036038101906101949190614323565b610634565b005b6101b560048036038101906101b091906141ae565b611552565b6040516101c29190614ea4565b60405180910390f35b6101e560048036038101906101e09190614254565b6115ad565b005b6101ef6116f7565b005b6101f9611d57565b6040516102069190614ea4565b60405180910390f35b61022960048036038101906102249190614213565b611d7b565b6040516102369190614ea4565b60405180910390f35b610247611da9565b005b610263600480360381019061025e91906140d1565b611ee3565b005b61026d611fa3565b60405161027a9190614b6d565b60405180910390f35b61029d600480360381019061029891906142d1565b611fcc565b005b6102b960048036038101906102b49190614323565b612a0d565b6040516102c893929190614f63565b60405180910390f35b6102d9612a5f565b6040516102e69190614c61565b60405180910390f35b610309600480360381019061030491906140d1565b612a85565b6040516103169190614ea4565b60405180910390f35b6103396004803603810190610334919061434c565b612bca565b005b610355600480360381019061035091906140d1565b612d94565b6040516103629190614c1d565b60405180910390f35b61038560048036038101906103809190614123565b61300f565b005b6103a1600480360381019061039c91906140d1565b6131b9565b005b6103bd60048036038101906103b89190614172565b613362565b005b6000600660008373ffffffffffffffffffffffffffffffffffffffff1673ffffffffffffffffffffffffffffffffffffffff168152602001908152602001600020600001549050919050565b606060038054905067ffffffffffffffff811115610452577f4e487b7100000000000000000000000000000000000000000000000000000000600052604160045260246000fd5b60405190808252806020026020018201604052801561048b57816020015b610478613e80565b8152602001906001900390816104705790505b50905060005b60038054905081101561063057600060066000600384815481106104de577f4e487b7100000000000000000000000000000000000000000000000000000000600052603260045260246000fd5b9060005260206000200160009054906101000a900473ffffffffffffffffffffffffffffffffffffffff1673ffffffffffffffffffffffffffffffffffffffff1673ffffffffffffffffffffffffffffffffffffffff16815260200190815260200160002060000154905060405180604001604052806003848154811061058e577f4e487b7100000000000000000000000000000000000000000000000000000000600052603260045260246000fd5b9060005260206000200160009054906101000a900473ffffffffffffffffffffffffffffffffffffffff1673ffffffffffffffffffffffffffffffffffffffff16815260200182815250838381518110610611577f4e487b7100000000000000000000000000000000000000000000000000000000600052603260045260246000fd5b6020026020010181905250508080610628906152c4565b915050610491565b5090565b6040518060400160405280600881526020017f45584348414e4745000000000000000000000000000000000000000000000000815250600160009054906101000a900473ffffffffffffffffffffffffffffffffffffffff1673ffffffffffffffffffffffffffffffffffffffff1663466f98e860006040518263ffffffff1660e01b81526004016106c69190614bef565b60206040518083038186803b1580156106de57600080fd5b505afa1580156106f2573d6000803e3d6000fd5b505050506040513d601f19601f8201168201806040525081019061071691906141ea565b15806107cd5750600160009054906101000a900473ffffffffffffffffffffffffffffffffffffffff1673ffffffffffffffffffffffffffffffffffffffff1663466f98e86000836040518363ffffffff1660e01b815260040161077b929190614bbf565b60206040518083038186803b15801561079357600080fd5b505afa1580156107a7573d6000803e3d6000fd5b505050506040513d601f19601f820116820180604052508101906107cb91906141ea565b155b806108805750600160009054906101000a900473ffffffffffffffffffffffffffffffffffffffff1673ffffffffffffffffffffffffffffffffffffffff1663466f98e8336040518263ffffffff1660e01b815260040161082e9190614bef565b60206040518083038186803b15801561084657600080fd5b505afa15801561085a573d6000803e3d6000fd5b505050506040513d601f19601f8201168201806040525081019061087e91906141ea565b155b806109355750600160009054906101000a900473ffffffffffffffffffffffffffffffffffffffff1673ffffffffffffffffffffffffffffffffffffffff1663466f98e833836040518363ffffffff1660e01b81526004016108e3929190614bbf565b60206040518083038186803b1580156108fb57600080fd5b505afa15801561090f573d6000803e3d6000fd5b505050506040513d601f19601f8201168201806040525081019061093391906141ea565b155b610974576040517f08c379a000000000000000000000000000000000000000000000000000000000815260040161096b90614ddc565b60405180910390fd5b6000600160009054906101000a900473ffffffffffffffffffffffffffffffffffffffff1673ffffffffffffffffffffffffffffffffffffffff16636957a0b26040518163ffffffff1660e01b81526004016109cf90614dbc565b60206040518083038186803b1580156109e757600080fd5b505afa1580156109fb573d6000803e3d6000fd5b505050506040513d601f19601f82011682018060405250810190610a1f91906140fa565b90506000808273ffffffffffffffffffffffffffffffffffffffff166370a08231336040518263ffffffff1660e01b8152600401610a5d9190614b6d565b60206040518083038186803b158015610a7557600080fd5b505afa158015610a89573d6000803e3d6000fd5b505050506040513d601f19601f82011682018060405250810190610aad91906142fa565b905060008167ffffffffffffffff811115610af1577f4e487b7100000000000000000000000000000000000000000000000000000000600052604160045260246000fd5b604051908082528060200260200182016040528015610b1f5781602001602082028036833780820191505090505b50905060005b82811015610cac576000610b8082600760003373ffffffffffffffffffffffffffffffffffffffff1673ffffffffffffffffffffffffffffffffffffffff16815260200190815260200160002061349590919063ffffffff16565b9050610b8a613eb0565b73__NftLibrary____________________________6347d9b14d836040518263ffffffff1660e01b8152600401610bc19190614e1c565b60a06040518083038186803b158015610bd957600080fd5b505af4158015610bed573d6000803e3d6000fd5b505050506040513d601f19601f82011682018060405250810190610c1191906142a8565b90508860ff16816000015160ff1614610c2b575050610c99565b600186610c389190615094565b955081848481518110610c74577f4e487b7100000000000000000000000000000000000000000000000000000000600052603260045260246000fd5b602002602001019067ffffffffffffffff16908167ffffffffffffffff168152505050505b8080610ca4906152c4565b915050610b25565b506000600560008860ff1660ff1681526020019081526020016000206040518060600160405290816000820160009054906101000a900460ff1660ff1660ff1681526020016000820160019054906101000a900461ffff1661ffff1661ffff1681526020016000820160039054906101000a900460ff1660ff1660ff168152505090506000816000015160ff16118015610d4d5750806000015160ff168410155b610d8c576040517f08c379a0000000000000000000000000000000000000000000000000000000008152600401610d8390614d7c565b60405180910390fd5b6000600660003373ffffffffffffffffffffffffffffffffffffffff1673ffffffffffffffffffffffffffffffffffffffff168152602001908152602001600020604051806060016040529081600082015481526020016001820154815260200160028201548152505090508060400151826000015160ff1686610e1091906150ea565b1080610e20575060008160400151145b610e5f576040517f08c379a0000000000000000000000000000000000000000000000000000000008152600401610e5690614dfc565b60405180910390fd5b6000600160009054906101000a900473ffffffffffffffffffffffffffffffffffffffff1673ffffffffffffffffffffffffffffffffffffffff16636957a0b26040518163ffffffff1660e01b8152600401610eba90614cbc565b60206040518083038186803b158015610ed257600080fd5b505afa158015610ee6573d6000803e3d6000fd5b505050506040513d601f19601f82011682018060405250810190610f0a91906140fa565b90506000600160009054906101000a900473ffffffffffffffffffffffffffffffffffffffff1673ffffffffffffffffffffffffffffffffffffffff16636957a0b26040518163ffffffff1660e01b8152600401610f6790614d1c565b60206040518083038186803b158015610f7f57600080fd5b505afa158015610f93573d6000803e3d6000fd5b505050506040513d601f19601f82011682018060405250810190610fb791906140fa565b905060008173ffffffffffffffffffffffffffffffffffffffff166370a08231846040518263ffffffff1660e01b8152600401610ff49190614b6d565b60206040518083038186803b15801561100c57600080fd5b505afa158015611020573d6000803e3d6000fd5b505050506040513d601f19601f8201168201806040525081019061104491906142fa565b905060006110766064611068886020015161ffff16856134af90919063ffffffff16565b6134c590919063ffffffff16565b90508273ffffffffffffffffffffffffffffffffffffffff166323b872dd8533846040518463ffffffff1660e01b81526004016110b593929190614b88565b602060405180830381600087803b1580156110cf57600080fd5b505af11580156110e3573d6000803e3d6000fd5b505050506040513d601f19601f8201168201806040525081019061110791906141ea565b506001600660003373ffffffffffffffffffffffffffffffffffffffff1673ffffffffffffffffffffffffffffffffffffffff168152602001908152602001600020600201546111579190615094565b600660003373ffffffffffffffffffffffffffffffffffffffff1673ffffffffffffffffffffffffffffffffffffffff168152602001908152602001600020600201819055506000600160009054906101000a900473ffffffffffffffffffffffffffffffffffffffff1673ffffffffffffffffffffffffffffffffffffffff16636957a0b26040518163ffffffff1660e01b81526004016111f890614d5c565b60206040518083038186803b15801561121057600080fd5b505afa158015611224573d6000803e3d6000fd5b505050506040513d601f19601f8201168201806040525081019061124891906140fa565b905060005b8981101561147b576000898281518110611290577f4e487b7100000000000000000000000000000000000000000000000000000000600052603260045260246000fd5b602002602001015167ffffffffffffffff16116112ac57611468565b8b73ffffffffffffffffffffffffffffffffffffffff1663cae02df58a8381518110611301577f4e487b7100000000000000000000000000000000000000000000000000000000600052603260045260246000fd5b60200260200101516040518263ffffffff1660e01b81526004016113259190614f1f565b600060405180830381600087803b15801561133f57600080fd5b505af1158015611353573d6000803e3d6000fd5b505050506113ac338f8b8481518110611395577f4e487b7100000000000000000000000000000000000000000000000000000000600052603260045260246000fd5b602002602001015167ffffffffffffffff166134db565b8173ffffffffffffffffffffffffffffffffffffffff16632c74ee4f8f602f8c8581518110611404577f4e487b7100000000000000000000000000000000000000000000000000000000600052603260045260246000fd5b602002602001015167ffffffffffffffff16901c6040518363ffffffff1660e01b8152600401611435929190614f3a565b600060405180830381600087803b15801561144f57600080fd5b505af1158015611463573d6000803e3d6000fd5b505050505b8080611473906152c4565b91505061124d565b507f608df846e407cc9ba823f6935a74fbeeeba9387d9dc7a1d0531f837189a416b98760200151838673ffffffffffffffffffffffffffffffffffffffff166370a08231896040518263ffffffff1660e01b81526004016114dc9190614b6d565b60206040518083038186803b1580156114f457600080fd5b505afa158015611508573d6000803e3d6000fd5b505050506040513d601f19601f8201168201806040525081019061152c91906142fa565b60405161153b93929190614e6d565b60405180910390a150505050505050505050505050565b60006115a582600760008673ffffffffffffffffffffffffffffffffffffffff1673ffffffffffffffffffffffffffffffffffffffff16815260200190815260200160002061349590919063ffffffff16565b905092915050565b6040518060400160405280600681526020017f434f4e4649470000000000000000000000000000000000000000000000000000815250600160009054906101000a900473ffffffffffffffffffffffffffffffffffffffff1673ffffffffffffffffffffffffffffffffffffffff1663f5e65c7233836040518363ffffffff1660e01b8152600401611640929190614bbf565b60206040518083038186803b15801561165857600080fd5b505afa15801561166c573d6000803e3d6000fd5b505050506040513d601f19601f8201168201806040525081019061169091906141ea565b6116cf576040517f08c379a00000000000000000000000000000000000000000000000000000000081526004016116c690614ddc565b60405180910390fd5b816002846040516116e09190614b2c565b908152602001604051809103902081905550505050565b6040518060400160405280600581526020017f434c41494d000000000000000000000000000000000000000000000000000000815250600160009054906101000a900473ffffffffffffffffffffffffffffffffffffffff1673ffffffffffffffffffffffffffffffffffffffff1663466f98e860006040518263ffffffff1660e01b81526004016117899190614bef565b60206040518083038186803b1580156117a157600080fd5b505afa1580156117b5573d6000803e3d6000fd5b505050506040513d601f19601f820116820180604052508101906117d991906141ea565b15806118905750600160009054906101000a900473ffffffffffffffffffffffffffffffffffffffff1673ffffffffffffffffffffffffffffffffffffffff1663466f98e86000836040518363ffffffff1660e01b815260040161183e929190614bbf565b60206040518083038186803b15801561185657600080fd5b505afa15801561186a573d6000803e3d6000fd5b505050506040513d601f19601f8201168201806040525081019061188e91906141ea565b155b806119435750600160009054906101000a900473ffffffffffffffffffffffffffffffffffffffff1673ffffffffffffffffffffffffffffffffffffffff1663466f98e8336040518263ffffffff1660e01b81526004016118f19190614bef565b60206040518083038186803b15801561190957600080fd5b505afa15801561191d573d6000803e3d6000fd5b505050506040513d601f19601f8201168201806040525081019061194191906141ea565b155b806119f85750600160009054906101000a900473ffffffffffffffffffffffffffffffffffffffff1673ffffffffffffffffffffffffffffffffffffffff1663466f98e833836040518363ffffffff1660e01b81526004016119a6929190614bbf565b60206040518083038186803b1580156119be57600080fd5b505afa1580156119d2573d6000803e3d6000fd5b505050506040513d601f19601f820116820180604052508101906119f691906141ea565b155b611a37576040517f08c379a0000000000000000000000000000000000000000000000000000000008152600401611a2e90614ddc565b60405180910390fd5b6000611a4233612a85565b905060008111611a87576040517f08c379a0000000000000000000000000000000000000000000000000000000008152600401611a7e90614cdc565b60405180910390fd5b42600660003373ffffffffffffffffffffffffffffffffffffffff1673ffffffffffffffffffffffffffffffffffffffff168152602001908152602001600020600101819055506000600160009054906101000a900473ffffffffffffffffffffffffffffffffffffffff1673ffffffffffffffffffffffffffffffffffffffff16636957a0b26040518163ffffffff1660e01b8152600401611b2990614cbc565b60206040518083038186803b158015611b4157600080fd5b505afa158015611b55573d6000803e3d6000fd5b505050506040513d601f19601f82011682018060405250810190611b7991906140fa565b90506000600160009054906101000a900473ffffffffffffffffffffffffffffffffffffffff1673ffffffffffffffffffffffffffffffffffffffff16636957a0b26040518163ffffffff1660e01b8152600401611bd690614d1c565b60206040518083038186803b158015611bee57600080fd5b505afa158015611c02573d6000803e3d6000fd5b505050506040513d601f19601f82011682018060405250810190611c2691906140fa565b90508073ffffffffffffffffffffffffffffffffffffffff166323b872dd8333866040518463ffffffff1660e01b8152600401611c6593929190614b88565b602060405180830381600087803b158015611c7f57600080fd5b505af1158015611c93573d6000803e3d6000fd5b505050506040513d601f19601f82011682018060405250810190611cb791906141ea565b507fe630ca519fedafd2bd9bd35ad65e198e08398f47c88ca063c406740992bcd1a483600660003373ffffffffffffffffffffffffffffffffffffffff1673ffffffffffffffffffffffffffffffffffffffff168152602001908152602001600020600001546002604051611d2b90614b58565b908152602001604051809103902054604051611d4993929190614ee8565b60405180910390a150505050565b60006002604051611d6790614b58565b908152602001604051809103902054905090565b6002818051602081018201805184825260208301602085012081835280955050505050506000915090505481565b611db1613624565b73ffffffffffffffffffffffffffffffffffffffff16611dcf611fa3565b73ffffffffffffffffffffffffffffffffffffffff1614611e25576040517f08c379a0000000000000000000000000000000000000000000000000000000008152600401611e1c90614d3c565b60405180910390fd5b600073ffffffffffffffffffffffffffffffffffffffff1660008054906101000a900473ffffffffffffffffffffffffffffffffffffffff1673ffffffffffffffffffffffffffffffffffffffff167f8be0079c531659141344cd1fd0a4f28419497f9722a3daafe3b4186f6b6457e060405160405180910390a360008060006101000a81548173ffffffffffffffffffffffffffffffffffffffff021916908373ffffffffffffffffffffffffffffffffffffffff160217905550565b611eeb613624565b73ffffffffffffffffffffffffffffffffffffffff16611f09611fa3565b73ffffffffffffffffffffffffffffffffffffffff1614611f5f576040517f08c379a0000000000000000000000000000000000000000000000000000000008152600401611f5690614d3c565b60405180910390fd5b80600160006101000a81548173ffffffffffffffffffffffffffffffffffffffff021916908373ffffffffffffffffffffffffffffffffffffffff16021790555050565b60008060009054906101000a900473ffffffffffffffffffffffffffffffffffffffff16905090565b6040518060400160405280600881526020017f52454445454d4544000000000000000000000000000000000000000000000000815250600160009054906101000a900473ffffffffffffffffffffffffffffffffffffffff1673ffffffffffffffffffffffffffffffffffffffff1663466f98e860006040518263ffffffff1660e01b815260040161205e9190614bef565b60206040518083038186803b15801561207657600080fd5b505afa15801561208a573d6000803e3d6000fd5b505050506040513d601f19601f820116820180604052508101906120ae91906141ea565b15806121655750600160009054906101000a900473ffffffffffffffffffffffffffffffffffffffff1673ffffffffffffffffffffffffffffffffffffffff1663466f98e86000836040518363ffffffff1660e01b8152600401612113929190614bbf565b60206040518083038186803b15801561212b57600080fd5b505afa15801561213f573d6000803e3d6000fd5b505050506040513d601f19601f8201168201806040525081019061216391906141ea565b155b806122185750600160009054906101000a900473ffffffffffffffffffffffffffffffffffffffff1673ffffffffffffffffffffffffffffffffffffffff1663466f98e8336040518263ffffffff1660e01b81526004016121c69190614bef565b60206040518083038186803b1580156121de57600080fd5b505afa1580156121f2573d6000803e3d6000fd5b505050506040513d601f19601f8201168201806040525081019061221691906141ea565b155b806122cd5750600160009054906101000a900473ffffffffffffffffffffffffffffffffffffffff1673ffffffffffffffffffffffffffffffffffffffff1663466f98e833836040518363ffffffff1660e01b815260040161227b929190614bbf565b60206040518083038186803b15801561229357600080fd5b505afa1580156122a7573d6000803e3d6000fd5b505050506040513d601f19601f820116820180604052508101906122cb91906141ea565b155b61230c576040517f08c379a000000000000000000000000000000000000000000000000000000000815260040161230390614ddc565b60405180910390fd5b6000600160009054906101000a900473ffffffffffffffffffffffffffffffffffffffff1673ffffffffffffffffffffffffffffffffffffffff16636957a0b26040518163ffffffff1660e01b815260040161236790614dbc565b60206040518083038186803b15801561237f57600080fd5b505afa158015612393573d6000803e3d6000fd5b505050506040513d601f19601f820116820180604052508101906123b791906140fa565b90508073ffffffffffffffffffffffffffffffffffffffff16636352211e846040518263ffffffff1660e01b81526004016123f29190614e52565b60206040518083038186803b15801561240a57600080fd5b505afa15801561241e573d6000803e3d6000fd5b505050506040513d601f19601f8201168201806040525081019061244291906140fa565b73ffffffffffffffffffffffffffffffffffffffff163373ffffffffffffffffffffffffffffffffffffffff16146124af576040517f08c379a00000000000000000000000000000000000000000000000000000000081526004016124a690614cfc565b60405180910390fd5b6000600160009054906101000a900473ffffffffffffffffffffffffffffffffffffffff1673ffffffffffffffffffffffffffffffffffffffff16636957a0b26040518163ffffffff1660e01b815260040161250a90614cbc565b60206040518083038186803b15801561252257600080fd5b505afa158015612536573d6000803e3d6000fd5b505050506040513d601f19601f8201168201806040525081019061255a91906140fa565b90506000600160009054906101000a900473ffffffffffffffffffffffffffffffffffffffff1673ffffffffffffffffffffffffffffffffffffffff16636957a0b26040518163ffffffff1660e01b81526004016125b790614d1c565b60206040518083038186803b1580156125cf57600080fd5b505afa1580156125e3573d6000803e3d6000fd5b505050506040513d601f19601f8201168201806040525081019061260791906140fa565b9050612611613eb0565b73__NftLibrary____________________________6347d9b14d876040518263ffffffff1660e01b81526004016126489190614e1c565b60a06040518083038186803b15801561266057600080fd5b505af4158015612674573d6000803e3d6000fd5b505050506040513d601f19601f8201168201806040525081019061269891906142a8565b90506000816060015190506126d160646126c3846040015161ffff16846134af90919063ffffffff16565b6134c590919063ffffffff16565b905060008111612716576040517f08c379a000000000000000000000000000000000000000000000000000000000815260040161270d90614d9c565b60405180910390fd5b8273ffffffffffffffffffffffffffffffffffffffff166323b872dd8533846040518463ffffffff1660e01b815260040161275393929190614b88565b602060405180830381600087803b15801561276d57600080fd5b505af1158015612781573d6000803e3d6000fd5b505050506040513d601f19601f820116820180604052508101906127a591906141ea565b506000600160009054906101000a900473ffffffffffffffffffffffffffffffffffffffff1673ffffffffffffffffffffffffffffffffffffffff16636957a0b26040518163ffffffff1660e01b815260040161280190614d5c565b60206040518083038186803b15801561281957600080fd5b505afa15801561282d573d6000803e3d6000fd5b505050506040513d601f19601f8201168201806040525081019061285191906140fa565b90508073ffffffffffffffffffffffffffffffffffffffff16632c74ee4f846000015185602001516040518363ffffffff1660e01b8152600401612896929190614f3a565b600060405180830381600087803b1580156128b057600080fd5b505af11580156128c4573d6000803e3d6000fd5b505050508573ffffffffffffffffffffffffffffffffffffffff1663cae02df5896040518263ffffffff1660e01b81526004016129019190614e37565b600060405180830381600087803b15801561291b57600080fd5b505af115801561292f573d6000803e3d6000fd5b505050506129423384600001518a6134db565b7f6f73b7b8d37df32ea60a45eadc8fc3d2d716d705ee099bd506817482ce847316828573ffffffffffffffffffffffffffffffffffffffff166370a08231886040518263ffffffff1660e01b815260040161299d9190614b6d565b60206040518083038186803b1580156129b557600080fd5b505afa1580156129c9573d6000803e3d6000fd5b505050506040513d601f19601f820116820180604052508101906129ed91906142fa565b6040516129fb929190614ebf565b60405180910390a15050505050505050565b60056020528060005260406000206000915090508060000160009054906101000a900460ff16908060000160019054906101000a900461ffff16908060000160039054906101000a900460ff16905083565b600160009054906101000a900473ffffffffffffffffffffffffffffffffffffffff1681565b600080612a9061362c565b90506000612aed6305f5e100600660008773ffffffffffffffffffffffffffffffffffffffff1673ffffffffffffffffffffffffffffffffffffffff168152602001908152602001600020600001546134af90919063ffffffff16565b9050612b346305f5e100612b266002604051612b0890614b58565b908152602001604051809103902054846134c590919063ffffffff16565b6134c590919063ffffffff16565b90506000600660008673ffffffffffffffffffffffffffffffffffffffff1673ffffffffffffffffffffffffffffffffffffffff1681526020019081526020016000206001015442612b869190615175565b9050612bc06064612bb284612ba485886134af90919063ffffffff16565b6134af90919063ffffffff16565b6134c590919063ffffffff16565b9350505050919050565b6040518060400160405280600681526020017f434f4e4649470000000000000000000000000000000000000000000000000000815250600160009054906101000a900473ffffffffffffffffffffffffffffffffffffffff1673ffffffffffffffffffffffffffffffffffffffff1663f5e65c7233836040518363ffffffff1660e01b8152600401612c5d929190614bbf565b60206040518083038186803b158015612c7557600080fd5b505afa158015612c89573d6000803e3d6000fd5b505050506040513d601f19601f82011682018060405250810190612cad91906141ea565b612cec576040517f08c379a0000000000000000000000000000000000000000000000000000000008152600401612ce390614ddc565b60405180910390fd5b83600560008760ff1660ff16815260200190815260200160002060000160006101000a81548160ff021916908360ff16021790555082600560008760ff1660ff16815260200190815260200160002060000160016101000a81548161ffff021916908361ffff16021790555081600560008760ff1660ff16815260200190815260200160002060000160036101000a81548160ff021916908360ff1602179055505050505050565b60606000612ddf600760008573ffffffffffffffffffffffffffffffffffffffff1673ffffffffffffffffffffffffffffffffffffffff1681526020019081526020016000206136a0565b90508067ffffffffffffffff811115612e21577f4e487b7100000000000000000000000000000000000000000000000000000000600052604160045260246000fd5b604051908082528060200260200182016040528015612e5a57816020015b612e47613eb0565b815260200190600190039081612e3f5790505b50915060005b81811015613008576000612ebb82600760008873ffffffffffffffffffffffffffffffffffffffff1673ffffffffffffffffffffffffffffffffffffffff16815260200190815260200160002061349590919063ffffffff16565b905073__NftLibrary____________________________6347d9b14d826040518263ffffffff1660e01b8152600401612ef49190614e1c565b60a06040518083038186803b158015612f0c57600080fd5b505af4158015612f20573d6000803e3d6000fd5b505050506040513d601f19601f82011682018060405250810190612f4491906142a8565b848381518110612f7d577f4e487b7100000000000000000000000000000000000000000000000000000000600052603260045260246000fd5b602002602001018190525080848381518110612fc2577f4e487b7100000000000000000000000000000000000000000000000000000000600052603260045260246000fd5b6020026020010151608001906dffffffffffffffffffffffffffff1690816dffffffffffffffffffffffffffff1681525050508080613000906152c4565b915050612e60565b5050919050565b6040518060400160405280600881526020017f45584348414e4745000000000000000000000000000000000000000000000000815250600160009054906101000a900473ffffffffffffffffffffffffffffffffffffffff1673ffffffffffffffffffffffffffffffffffffffff1663f5e65c7233836040518363ffffffff1660e01b81526004016130a2929190614bbf565b60206040518083038186803b1580156130ba57600080fd5b505afa1580156130ce573d6000803e3d6000fd5b505050506040513d601f19601f820116820180604052508101906130f291906141ea565b613131576040517f08c379a000000000000000000000000000000000000000000000000000000000815260040161312890614ddc565b60405180910390fd5b600073ffffffffffffffffffffffffffffffffffffffff168473ffffffffffffffffffffffffffffffffffffffff161461317257613171838360006136b5565b5b600073ffffffffffffffffffffffffffffffffffffffff168373ffffffffffffffffffffffffffffffffffffffff16146131b3576131b2838360016136b5565b5b50505050565b6131c1613624565b73ffffffffffffffffffffffffffffffffffffffff166131df611fa3565b73ffffffffffffffffffffffffffffffffffffffff1614613235576040517f08c379a000000000000000000000000000000000000000000000000000000000815260040161322c90614d3c565b60405180910390fd5b600073ffffffffffffffffffffffffffffffffffffffff168173ffffffffffffffffffffffffffffffffffffffff1614156132a5576040517f08c379a000000000000000000000000000000000000000000000000000000000815260040161329c90614c9c565b60405180910390fd5b8073ffffffffffffffffffffffffffffffffffffffff1660008054906101000a900473ffffffffffffffffffffffffffffffffffffffff1673ffffffffffffffffffffffffffffffffffffffff167f8be0079c531659141344cd1fd0a4f28419497f9722a3daafe3b4186f6b6457e060405160405180910390a3806000806101000a81548173ffffffffffffffffffffffffffffffffffffffff021916908373ffffffffffffffffffffffffffffffffffffffff16021790555050565b6040518060400160405280600881526020017f4341524453484f50000000000000000000000000000000000000000000000000815250600160009054906101000a900473ffffffffffffffffffffffffffffffffffffffff1673ffffffffffffffffffffffffffffffffffffffff1663f5e65c7233836040518363ffffffff1660e01b81526004016133f5929190614bbf565b60206040518083038186803b15801561340d57600080fd5b505afa158015613421573d6000803e3d6000fd5b505050506040513d601f19601f8201168201806040525081019061344591906141ea565b613484576040517f08c379a000000000000000000000000000000000000000000000000000000000815260040161347b90614ddc565b60405180910390fd5b613490838360016136b5565b505050565b60006134a48360000183613b84565b60001c905092915050565b600081836134bd919061511b565b905092915050565b600081836134d391906150ea565b905092915050565b61353c816dffffffffffffffffffffffffffff16600760008673ffffffffffffffffffffffffffffffffffffffff1673ffffffffffffffffffffffffffffffffffffffff168152602001908152602001600020613c1e90919063ffffffff16565b508160ff16600260405161354f90614b58565b9081526020016040518091039020546135689190615175565b600260405161357690614b58565b9081526020016040518091039020819055508160ff16600660008573ffffffffffffffffffffffffffffffffffffffff1673ffffffffffffffffffffffffffffffffffffffff168152602001908152602001600020600001546135d99190615175565b600660008573ffffffffffffffffffffffffffffffffffffffff1673ffffffffffffffffffffffffffffffffffffffff16815260200190815260200160002060000181905550505050565b600033905090565b600061365f61016d600260405161364290614b43565b9081526020016040518091039020546134c590919063ffffffff16565b905061369b603c61368d603c61367f6018866134c590919063ffffffff16565b6134c590919063ffffffff16565b6134c590919063ffffffff16565b905090565b60006136ae82600001613c38565b9050919050565b6136bd613eb0565b73__NftLibrary____________________________6347d9b14d846040518263ffffffff1660e01b81526004016136f49190614e1c565b60a06040518083038186803b15801561370c57600080fd5b505af4158015613720573d6000803e3d6000fd5b505050506040513d601f19601f8201168201806040525081019061374491906142a8565b9050600115158215151415613a31576137b4836dffffffffffffffffffffffffffff16600760008773ffffffffffffffffffffffffffffffffffffffff1673ffffffffffffffffffffffffffffffffffffffff168152602001908152602001600020613c4990919063ffffffff16565b50806000015160ff16600660008673ffffffffffffffffffffffffffffffffffffffff1673ffffffffffffffffffffffffffffffffffffffff1681526020019081526020016000206000015461380a9190615094565b600660008673ffffffffffffffffffffffffffffffffffffffff1673ffffffffffffffffffffffffffffffffffffffff16815260200190815260200160002060000181905550806000015160ff16600260405161386690614b58565b90815260200160405180910390205461387f9190615094565b600260405161388d90614b58565b90815260200160405180910390208190555060006138e8600760008773ffffffffffffffffffffffffffffffffffffffff1673ffffffffffffffffffffffffffffffffffffffff1681526020019081526020016000206136a0565b11613951576003849080600181540180825580915050600190039060005260206000200160009091909190916101000a81548173ffffffffffffffffffffffffffffffffffffffff021916908373ffffffffffffffffffffffffffffffffffffffff1602179055505b6001816000015160ff16141561399a57600160046000836020015161ffff1661ffff16815260200190815260200160002060006101000a81548160ff0219169083151502179055505b6000600660008673ffffffffffffffffffffffffffffffffffffffff1673ffffffffffffffffffffffffffffffffffffffff1681526020019081526020016000206001015411613a2c5742600660008673ffffffffffffffffffffffffffffffffffffffff1673ffffffffffffffffffffffffffffffffffffffff168152602001908152602001600020600101819055505b613b7e565b613a92836dffffffffffffffffffffffffffff16600760008773ffffffffffffffffffffffffffffffffffffffff1673ffffffffffffffffffffffffffffffffffffffff168152602001908152602001600020613c1e90919063ffffffff16565b50806000015160ff16600660008673ffffffffffffffffffffffffffffffffffffffff1673ffffffffffffffffffffffffffffffffffffffff16815260200190815260200160002060000154613ae89190615175565b600660008673ffffffffffffffffffffffffffffffffffffffff1673ffffffffffffffffffffffffffffffffffffffff16815260200190815260200160002060000181905550806000015160ff166002604051613b4490614b58565b908152602001604051809103902054613b5d9190615175565b6002604051613b6b90614b58565b9081526020016040518091039020819055505b50505050565b600081836000018054905011613bcf576040517f08c379a0000000000000000000000000000000000000000000000000000000008152600401613bc690614c7c565b60405180910390fd5b826000018281548110613c0b577f4e487b7100000000000000000000000000000000000000000000000000000000600052603260045260246000fd5b9060005260206000200154905092915050565b6000613c30836000018360001b613c63565b905092915050565b600081600001805490509050919050565b6000613c5b836000018360001b613ded565b905092915050565b60008083600101600084815260200190815260200160002054905060008114613de1576000600182613c959190615175565b9050600060018660000180549050613cad9190615175565b90506000866000018281548110613ced577f4e487b7100000000000000000000000000000000000000000000000000000000600052603260045260246000fd5b9060005260206000200154905080876000018481548110613d37577f4e487b7100000000000000000000000000000000000000000000000000000000600052603260045260246000fd5b9060005260206000200181905550600183613d529190615094565b8760010160008381526020019081526020016000208190555086600001805480613da5577f4e487b7100000000000000000000000000000000000000000000000000000000600052603160045260246000fd5b60019003818190600052602060002001600090559055866001016000878152602001908152602001600020600090556001945050505050613de7565b60009150505b92915050565b6000613df98383613e5d565b613e52578260000182908060018154018082558091505060019003906000526020600020016000909190919091505582600001805490508360010160008481526020019081526020016000208190555060019050613e57565b600090505b92915050565b600080836001016000848152602001908152602001600020541415905092915050565b6040518060400160405280600073ffffffffffffffffffffffffffffffffffffffff168152602001600081525090565b6040518060a00160405280600060ff168152602001600061ffff168152602001600061ffff1681526020016000815260200160006dffffffffffffffffffffffffffff1681525090565b6000613f0d613f0884614fcb565b614f9a565b905082815260208101848484011115613f2557600080fd5b613f30848285615282565b509392505050565b600081359050613f47816153ab565b92915050565b600081519050613f5c816153ab565b92915050565b600081519050613f71816153c2565b92915050565b600082601f830112613f8857600080fd5b8135613f98848260208601613efa565b91505092915050565b600060a08284031215613fb357600080fd5b613fbd60a0614f9a565b90506000613fcd848285016140bc565b6000830152506020613fe184828501614068565b6020830152506040613ff584828501614068565b604083015250606061400984828501614092565b606083015250608061401d8482850161403e565b60808301525092915050565b600081359050614038816153d9565b92915050565b60008151905061404d816153d9565b92915050565b600081359050614062816153f0565b92915050565b600081519050614077816153f0565b92915050565b60008135905061408c81615407565b92915050565b6000815190506140a181615407565b92915050565b6000813590506140b68161541e565b92915050565b6000815190506140cb8161541e565b92915050565b6000602082840312156140e357600080fd5b60006140f184828501613f38565b91505092915050565b60006020828403121561410c57600080fd5b600061411a84828501613f4d565b91505092915050565b60008060006060848603121561413857600080fd5b600061414686828701613f38565b935050602061415786828701613f38565b925050604061416886828701614029565b9150509250925092565b6000806040838503121561418557600080fd5b600061419385828601613f38565b92505060206141a485828601614029565b9150509250929050565b600080604083850312156141c157600080fd5b60006141cf85828601613f38565b92505060206141e08582860161407d565b9150509250929050565b6000602082840312156141fc57600080fd5b600061420a84828501613f62565b91505092915050565b60006020828403121561422557600080fd5b600082013567ffffffffffffffff81111561423f57600080fd5b61424b84828501613f77565b91505092915050565b6000806040838503121561426757600080fd5b600083013567ffffffffffffffff81111561428157600080fd5b61428d85828601613f77565b925050602061429e8582860161407d565b9150509250929050565b600060a082840312156142ba57600080fd5b60006142c884828501613fa1565b91505092915050565b6000602082840312156142e357600080fd5b60006142f184828501614029565b91505092915050565b60006020828403121561430c57600080fd5b600061431a84828501614092565b91505092915050565b60006020828403121561433557600080fd5b6000614343848285016140a7565b91505092915050565b6000806000806080858703121561436257600080fd5b6000614370878288016140a7565b9450506020614381878288016140a7565b935050604061439287828801614053565b92505060606143a3878288016140a7565b91505092959194509250565b60006143bb83836149f0565b60a08301905092915050565b60006143d38383614a58565b60408301905092915050565b6143e8816151a9565b82525050565b6143f7816151a9565b82525050565b60006144088261501b565b6144128185615056565b935061441d83614ffb565b8060005b8381101561444e57815161443588826143af565b97506144408361503c565b925050600181019050614421565b5085935050505092915050565b600061446682615026565b6144708185615067565b935061447b8361500b565b8060005b838110156144ac57815161449388826143c7565b975061449e83615049565b92505060018101905061447f565b5085935050505092915050565b6144c28161523a565b82525050565b60006144d382615031565b6144dd8185615078565b93506144ed818560208601615291565b6144f68161539a565b840191505092915050565b600061450c82615031565b6145168185615089565b9350614526818560208601615291565b80840191505092915050565b600061453f602283615078565b91507f456e756d657261626c655365743a20696e646578206f7574206f6620626f756e60008301527f64730000000000000000000000000000000000000000000000000000000000006020830152604082019050919050565b60006145a5600683615089565b91507f52455741524400000000000000000000000000000000000000000000000000006000830152600682019050919050565b60006145e5600683615089565b91507f504f5745525300000000000000000000000000000000000000000000000000006000830152600682019050919050565b6000614625602683615078565b91507f4f776e61626c653a206e6577206f776e657220697320746865207a65726f206160008301527f64647265737300000000000000000000000000000000000000000000000000006020830152604082019050919050565b600061468b600583615078565b91507f464f554e440000000000000000000000000000000000000000000000000000006000830152602082019050919050565b60006146cb601c83615078565b91507f464947485445523a2054686520726577617264206973207a65726f2e000000006000830152602082019050919050565b600061470b601783615078565b91507f434152445245574152443a204f6e6c79206f6e7765722e0000000000000000006000830152602082019050919050565b600061474b600583615078565b91507f544f4b454e0000000000000000000000000000000000000000000000000000006000830152602082019050919050565b600061478b602083615078565b91507f4f776e61626c653a2063616c6c6572206973206e6f7420746865206f776e65726000830152602082019050919050565b60006147cb600883615078565b91507f4341524453484f500000000000000000000000000000000000000000000000006000830152602082019050919050565b600061480b600383615078565b91507f414c4c00000000000000000000000000000000000000000000000000000000006000830152602082019050919050565b600061484b602883615078565b91507f434152445245574152443a20496e73756666696369656e74206e756d6265722060008301527f6f66204e4654732e0000000000000000000000000000000000000000000000006020830152604082019050919050565b60006148b1601883615078565b91507f464947485445523a20526577617264206973207a65726f2e00000000000000006000830152602082019050919050565b60006148f1600783615078565b91507f46494748544552000000000000000000000000000000000000000000000000006000830152602082019050919050565b6000614931602483615078565b91507f4d656d6265723a20546865206f7065726174696f6e206973206e6f7420616c6c60008301527f6f776564000000000000000000000000000000000000000000000000000000006020830152604082019050919050565b6000614997602783615078565b91507f434152445245574152443a2048617665206e6f2072657761726420746f20657860008301527f6368616e67652e000000000000000000000000000000000000000000000000006020830152604082019050919050565b60a082016000820151614a066000850182614b0e565b506020820151614a196020850182614ac3565b506040820151614a2c6040850182614ac3565b506060820151614a3f6060850182614ae1565b506080820151614a526080850182614a87565b50505050565b604082016000820151614a6e60008501826143df565b506020820151614a816020850182614ae1565b50505050565b614a90816151c7565b82525050565b614a9f816151c7565b82525050565b614aae816151c7565b82525050565b614abd8161525e565b82525050565b614acc816151e1565b82525050565b614adb816151e1565b82525050565b614aea8161520f565b82525050565b614af98161520f565b82525050565b614b0881615270565b82525050565b614b178161522d565b82525050565b614b268161522d565b82525050565b6000614b388284614501565b915081905092915050565b6000614b4e82614598565b9150819050919050565b6000614b63826145d8565b9150819050919050565b6000602082019050614b8260008301846143ee565b92915050565b6000606082019050614b9d60008301866143ee565b614baa60208301856143ee565b614bb76040830184614af0565b949350505050565b6000604082019050614bd460008301856143ee565b8181036020830152614be681846144c8565b90509392505050565b6000604082019050614c0460008301846143ee565b8181036020830152614c15816147fe565b905092915050565b60006020820190508181036000830152614c3781846143fd565b905092915050565b60006020820190508181036000830152614c59818461445b565b905092915050565b6000602082019050614c7660008301846144b9565b92915050565b60006020820190508181036000830152614c9581614532565b9050919050565b60006020820190508181036000830152614cb581614618565b9050919050565b60006020820190508181036000830152614cd58161467e565b9050919050565b60006020820190508181036000830152614cf5816146be565b9050919050565b60006020820190508181036000830152614d15816146fe565b9050919050565b60006020820190508181036000830152614d358161473e565b9050919050565b60006020820190508181036000830152614d558161477e565b9050919050565b60006020820190508181036000830152614d75816147be565b9050919050565b60006020820190508181036000830152614d958161483e565b9050919050565b60006020820190508181036000830152614db5816148a4565b9050919050565b60006020820190508181036000830152614dd5816148e4565b9050919050565b60006020820190508181036000830152614df581614924565b9050919050565b60006020820190508181036000830152614e158161498a565b9050919050565b6000602082019050614e316000830184614aa5565b92915050565b6000602082019050614e4c6000830184614a96565b92915050565b6000602082019050614e676000830184614ab4565b92915050565b6000606082019050614e826000830186614ad2565b614e8f6020830185614af0565b614e9c6040830184614af0565b949350505050565b6000602082019050614eb96000830184614af0565b92915050565b6000604082019050614ed46000830185614af0565b614ee16020830184614af0565b9392505050565b6000606082019050614efd6000830186614af0565b614f0a6020830185614af0565b614f176040830184614af0565b949350505050565b6000602082019050614f346000830184614aff565b92915050565b6000604082019050614f4f6000830185614b1d565b614f5c6020830184614ad2565b9392505050565b6000606082019050614f786000830186614b1d565b614f856020830185614ad2565b614f926040830184614b1d565b949350505050565b6000604051905081810181811067ffffffffffffffff82111715614fc157614fc061536b565b5b8060405250919050565b600067ffffffffffffffff821115614fe657614fe561536b565b5b601f19601f8301169050602081019050919050565b6000819050602082019050919050565b6000819050602082019050919050565b600081519050919050565b600081519050919050565b600081519050919050565b6000602082019050919050565b6000602082019050919050565b600082825260208201905092915050565b600082825260208201905092915050565b600082825260208201905092915050565b600081905092915050565b600061509f8261520f565b91506150aa8361520f565b9250827fffffffffffffffffffffffffffffffffffffffffffffffffffffffffffffffff038211156150df576150de61530d565b5b828201905092915050565b60006150f58261520f565b91506151008361520f565b9250826151105761510f61533c565b5b828204905092915050565b60006151268261520f565b91506151318361520f565b9250817fffffffffffffffffffffffffffffffffffffffffffffffffffffffffffffffff048311821515161561516a5761516961530d565b5b828202905092915050565b60006151808261520f565b915061518b8361520f565b92508282101561519e5761519d61530d565b5b828203905092915050565b60006151b4826151ef565b9050919050565b60008115159050919050565b60006dffffffffffffffffffffffffffff82169050919050565b600061ffff82169050919050565b600073ffffffffffffffffffffffffffffffffffffffff82169050919050565b6000819050919050565b600067ffffffffffffffff82169050919050565b600060ff82169050919050565b60006152458261524c565b9050919050565b6000615257826151ef565b9050919050565b6000615269826151c7565b9050919050565b600061527b82615219565b9050919050565b82818337600083830152505050565b60005b838110156152af578082015181840152602081019050615294565b838111156152be576000848401525b50505050565b60006152cf8261520f565b91507fffffffffffffffffffffffffffffffffffffffffffffffffffffffffffffffff8214156153025761530161530d565b5b600182019050919050565b7f4e487b7100000000000000000000000000000000000000000000000000000000600052601160045260246000fd5b7f4e487b7100000000000000000000000000000000000000000000000000000000600052601260045260246000fd5b7f4e487b7100000000000000000000000000000000000000000000000000000000600052604160045260246000fd5b6000601f19601f8301169050919050565b6153b4816151a9565b81146153bf57600080fd5b50565b6153cb816151bb565b81146153d657600080fd5b50565b6153e2816151c7565b81146153ed57600080fd5b50565b6153f9816151e1565b811461540457600080fd5b50565b6154108161520f565b811461541b57600080fd5b50565b6154278161522d565b811461543257600080fd5b5056fea26469706673582212201a0e2c44ce8444ee27807113e7be9eab10e2e85f56fd7bdcb6c22e0fc1194fba64736f6c63430008000033",
  "immutableReferences": {},
  "source": "// SPDX-License-Identifier: SimPL-2.0\n\npragma solidity ^0.8.0;\npragma experimental ABIEncoderV2;\n\nimport \"../token/Fighter.sol\";\nimport \"../core/CardShop.sol\";\nimport \"../authority/Member.sol\";\nimport \"../libraries/NftLibrary.sol\";\n\nimport \"@openzeppelin/contracts/token/ERC20/IERC20.sol\";\nimport \"@openzeppelin/contracts/token/ERC721/IERC721.sol\";\nimport \"@openzeppelin/contracts/utils/math/SafeMath.sol\";\nimport \"@openzeppelin/contracts/utils/structs/EnumerableSet.sol\";\n\n/**\n * @title Fighter Z Token Card Shop\n *\n * @author Bit Lighthouse. Ace\n * AT: 2021-3-28 | VERSION: v1.0.2\n */\n\ncontract CardReward is Member {\n    using SafeMath for uint256;\n    using EnumerableSet for EnumerableSet.UintSet;\n\n    address[] private _users;\n\n    mapping (uint16 => bool) private _specials;\n\n    mapping (uint8 => NftLibrary.RateStruct) public _rates;\n    mapping (address => NftLibrary.UserStruct) private _usr;\n    mapping (address => EnumerableSet.UintSet) private _tokens;\n\n    struct RankStruct { address account; uint256 power; }\n    event Claim(uint256 reward, uint256 power, uint256 total_power);\n    event Redeemed(uint256 reward, uint256 surpls);\n    event DoExchange(uint16 rate, uint256 reward, uint256 surpls);\n\n    constructor(address auth_) Member(auth_) {\n        configs[\"POWERS\"] = 0;\n        configs[\"REWARD\"] = 1e26;\n\n        _rates[1] = NftLibrary.RateStruct(7, 35, 7);\n        _rates[2] = NftLibrary.RateStruct(3, 10, 1);\n        _rates[3] = NftLibrary.RateStruct(5, 5, 1);\n        _rates[4] = NftLibrary.RateStruct(10, 1, 1);\n        _rates[5] = NftLibrary.RateStruct(0, 0, 0);\n    }\n\n    function _getSecondReward() private view returns\n        (uint256 sr) {\n\n        sr = configs[\"REWARD\"].div(365);\n        sr = sr.div(24).div(60).div(60);\n    }\n\n    function _doBurn(\n        address account_, uint8 power_, uint112 tokenId_\n    ) private {\n        _tokens[account_].remove(tokenId_);\n        configs[\"POWERS\"] = configs[\"POWERS\"] - power_;\n        _usr[account_].powers = _usr[account_].powers - power_;\n    }\n\n    function _fresRecord(address to_, uint112 tokenId_, bool genre)\n        private {\n\n        NftLibrary.DetailStruct memory cs;\n        cs = NftLibrary.analysis(tokenId_);\n\n        if (genre == true) {\n            _tokens[to_].add(tokenId_);\n            _usr[to_].powers = _usr[to_].powers + cs.quality;\n            configs[\"POWERS\"] = configs[\"POWERS\"] + cs.quality;\n            \n            if(_tokens[to_].length() <= 0) { _users.push(to_); }\n            if (cs.quality == 1) { _specials[cs.heroId] = true; }\n            if (_usr[to_].period <= 0) { _usr[to_].period = block.timestamp; }\n        } else {\n            _tokens[to_].remove(tokenId_);\n            _usr[to_].powers = _usr[to_].powers - cs.quality;\n            configs[\"POWERS\"] = configs[\"POWERS\"] - cs.quality;\n        }\n    }\n\n    function setRewardRate(\n        uint8 quality_, uint8 number_, uint16 rate_, uint8 times_\n    ) public CheckPermit(\"CONFIG\") {\n        _rates[quality_].number = number_;\n        _rates[quality_].rate = rate_;\n        _rates[quality_].times = times_;\n    }\n\n    function doBuy(address to_, uint112 tokenId_) public\n        CheckPermit(\"CARDSHOP\") {\n\n        _fresRecord(to_, tokenId_, true);\n    }\n\n    function doExchange(address from_, address to_, uint112 tokenId_)\n        public CheckPermit(\"EXCHANGE\") {\n\n        if (from_ != address(0)) _fresRecord(to_, tokenId_, false);\n        if (to_ != address(0)) _fresRecord(to_, tokenId_, true);\n    }\n\n    function getReward(address account_) public view\n        returns (uint256 reward) {\n\n        uint256 second_reward = _getSecondReward();\n\n        uint256 power_rate = _usr[account_].powers.mul(1e8);\n        power_rate = power_rate.div(configs[\"POWERS\"]).div(1e8);\n        uint256 period = block.timestamp - _usr[account_].period;\n\n        reward = second_reward.mul(period).mul(power_rate).div(100);\n    }\n\n    function getUserPower(address account_) public view\n        returns (uint256 power) {\n\n        power = _usr[account_].powers;\n    }\n\n    function getUserToken(address account_, uint256 i) public\n        view returns (uint256 tokenId) {\n\n        tokenId = _tokens[account_].at(i);\n    }\n\n    function getTotalPower() public view returns (uint256 power) {\n        power = configs[\"POWERS\"];\n    }\n\n    function getTokenList(address account_) public view\n        returns (NftLibrary.DetailStruct[] memory list) {\n\n        uint256 len = _tokens[account_].length();\n        list = new NftLibrary.DetailStruct[](len);\n\n        for (uint i = 0; i < len; i++) {\n            uint256 tokenId = _tokens[account_].at(i);\n            list[i] = NftLibrary.analysis(uint112(tokenId));\n            list[i].tokenId = uint112(tokenId);\n        }\n    }\n\n    function getRanking() public view returns (RankStruct[] memory rank) {\n        rank = new RankStruct[](_users.length);\n\n        for (uint i = 0; i < _users.length; i++) {\n            uint256 power = _usr[_users[i]].powers;\n            rank[i] = RankStruct(_users[i], power);\n        }\n    }\n\n    function claim() public CheckStatus(\"CLAIM\") {\n        uint256 reward = getReward(msg.sender);\n        require(reward > 0, \"FIGHTER: The reward is zero.\");\n        \n        _usr[msg.sender].period = block.timestamp;\n        \n        address sender = authority.members(\"FOUND\");\n        IERC20 token = IERC20(authority.members(\"TOKEN\"));\n\n        token.transferFrom(sender, msg.sender, reward);\n\n        emit Claim(reward, _usr[msg.sender].powers, configs[\"POWERS\"]);\n    }\n\n    function redeemed(uint112 tokenId_) public CheckStatus(\"REDEEMED\") {\n        Fighter figh = Fighter(authority.members(\"FIGHTER\"));\n\n        require(\n            msg.sender == figh.ownerOf(tokenId_),\n            \"CARDREWARD: Only onwer.\"\n        );\n\n        address sender = authority.members(\"FOUND\");\n        IERC20 token = IERC20(authority.members(\"TOKEN\"));\n\n        NftLibrary.DetailStruct memory cs;\n        cs = NftLibrary.analysis(tokenId_);\n\n        uint256 reward = uint256(cs.amount);\n        reward = reward.mul(uint256(cs.rate)).div(100);\n        require(reward > 0, \"FIGHTER: Reward is zero.\");\n        token.transferFrom(sender, msg.sender, reward);\n\n        address shop = authority.members(\"CARDSHOP\");\n        CardShop(shop).fresh(cs.quality, cs.heroId);\n        figh.doBurn(tokenId_);\n        _doBurn(msg.sender, cs.quality, tokenId_);\n        \n        emit Redeemed(reward, token.balanceOf(sender));\n    }\n\n    function exchange(uint8 quality_) public CheckStatus(\"EXCHANGE\") {\n        Fighter figh = Fighter(authority.members(\"FIGHTER\"));\n        uint256 total = 0;\n        \n        uint256 length = figh.balanceOf(msg.sender);\n        uint64[] memory tokens = new uint64[](length);\n\n        for (uint256 i = 0; i < length; i++) {\n            uint256 tokenId = _tokens[msg.sender].at(i);\n            NftLibrary.DetailStruct memory cs;\n            cs = NftLibrary.analysis(uint112(tokenId));\n\n            if (cs.quality != quality_) continue;\n\n            total = total + 1;\n            tokens[i] = uint64(tokenId);\n        }\n\n        NftLibrary.RateStruct memory rs = _rates[quality_];\n        require(\n            rs.number > 0 && total >= rs.number,\n            \"CARDREWARD: Insufficient number of NFTs.\"\n        );\n\n        NftLibrary.UserStruct memory us = _usr[msg.sender];\n        require(\n            total / rs.number < us.exchange || us.exchange == 0,\n            \"CARDREWARD: Have no reward to exchange.\"\n        );\n\n        address sender = authority.members(\"FOUND\");\n        IERC20 token = IERC20(authority.members(\"TOKEN\"));\n\n        uint256 balance = token.balanceOf(sender);\n        uint256 reward = balance.mul(rs.rate).div(100);\n\n        token.transferFrom(sender, msg.sender, reward);\n        _usr[msg.sender].exchange = _usr[msg.sender].exchange + 1;\n\n        CardShop shop = CardShop(authority.members(\"CARDSHOP\"));\n        \n        for (uint256 i = 0; i < length; i++) {\n            if (tokens[i] <= 0) continue;\n\n            figh.doBurn(tokens[i]);\n            _doBurn(msg.sender, quality_, tokens[i]);\n            shop.fresh(quality_, uint16(tokens[i] >> 47));\n        }\n\n        emit DoExchange(rs.rate, reward, token.balanceOf(sender));\n    }\n}",
  "sourcePath": "/home/ace/Projects/eth/other/dragon-ball-project/dragon-ball-contract/contracts/core/CardReward.sol",
  "compiler": {
    "name": "solc",
    "version": "0.8.0+commit.c7dfd78e.Emscripten.clang"
  },
  "schemaVersion": "3.4.3",
  "updatedAt": "2021-08-29T15:39:57.987Z",
  "networkType": "ethereum",
  "devdoc": {
    "author": "Bit Lighthouse. Ace AT: 2021-3-28 | VERSION: v1.0.2",
    "kind": "dev",
    "methods": {
      "owner()": {
        "details": "Returns the address of the current owner."
      },
      "renounceOwnership()": {
        "details": "Leaves the contract without owner. It will not be possible to call `onlyOwner` functions anymore. Can only be called by the current owner. NOTE: Renouncing ownership will leave the contract without an owner, thereby removing any functionality that is only available to the owner."
      },
      "setAuthority(address)": {
        "params": {
          "authority_": "address of manager This function is onwer only"
        }
      },
      "setConfig(string,uint256)": {
        "params": {
          "config_": "config's value This function is config only",
          "name_": "name of config"
        }
      },
      "transferOwnership(address)": {
        "details": "Transfers ownership of the contract to a new account (`newOwner`). Can only be called by the current owner."
      }
    },
    "title": "Fighter Z Token Card Shop",
    "version": 1
  },
  "userdoc": {
    "kind": "user",
    "methods": {
      "setAuthority(address)": {
        "notice": "Set new manager"
      },
      "setConfig(string,uint256)": {
        "notice": "Set config of global or contract"
      }
    },
    "version": 1
  }
}