{
  "contractName": "CardShop",
  "abi": [
    {
      "inputs": [
        {
          "internalType": "address",
          "name": "auth_",
          "type": "address"
        }
      ],
      "stateMutability": "nonpayable",
      "type": "constructor"
    },
    {
      "anonymous": false,
      "inputs": [
        {
          "indexed": false,
          "internalType": "uint8",
          "name": "quality",
          "type": "uint8"
        },
        {
          "indexed": false,
          "internalType": "uint16",
          "name": "heroId",
          "type": "uint16"
        },
        {
          "indexed": false,
          "internalType": "uint256",
          "name": "tokenId",
          "type": "uint256"
        },
        {
          "indexed": false,
          "internalType": "uint16",
          "name": "rate",
          "type": "uint16"
        }
      ],
      "name": "Buy",
      "type": "event"
    },
    {
      "anonymous": false,
      "inputs": [
        {
          "indexed": true,
          "internalType": "address",
          "name": "previousOwner",
          "type": "address"
        },
        {
          "indexed": true,
          "internalType": "address",
          "name": "newOwner",
          "type": "address"
        }
      ],
      "name": "OwnershipTransferred",
      "type": "event"
    },
    {
      "inputs": [],
      "name": "authority",
      "outputs": [
        {
          "internalType": "contract Authority",
          "name": "",
          "type": "address"
        }
      ],
      "stateMutability": "view",
      "type": "function",
      "constant": true
    },
    {
      "inputs": [
        {
          "internalType": "string",
          "name": "",
          "type": "string"
        }
      ],
      "name": "configs",
      "outputs": [
        {
          "internalType": "uint256",
          "name": "",
          "type": "uint256"
        }
      ],
      "stateMutability": "view",
      "type": "function",
      "constant": true
    },
    {
      "inputs": [],
      "name": "owner",
      "outputs": [
        {
          "internalType": "address",
          "name": "",
          "type": "address"
        }
      ],
      "stateMutability": "view",
      "type": "function",
      "constant": true
    },
    {
      "inputs": [],
      "name": "renounceOwnership",
      "outputs": [],
      "stateMutability": "nonpayable",
      "type": "function"
    },
    {
      "inputs": [
        {
          "internalType": "address",
          "name": "authority_",
          "type": "address"
        }
      ],
      "name": "setAuthority",
      "outputs": [],
      "stateMutability": "nonpayable",
      "type": "function"
    },
    {
      "inputs": [
        {
          "internalType": "string",
          "name": "name_",
          "type": "string"
        },
        {
          "internalType": "uint256",
          "name": "config_",
          "type": "uint256"
        }
      ],
      "name": "setConfig",
      "outputs": [],
      "stateMutability": "nonpayable",
      "type": "function"
    },
    {
      "inputs": [
        {
          "internalType": "address",
          "name": "newOwner",
          "type": "address"
        }
      ],
      "name": "transferOwnership",
      "outputs": [],
      "stateMutability": "nonpayable",
      "type": "function"
    },
    {
      "inputs": [
        {
          "internalType": "uint8",
          "name": "quality_",
          "type": "uint8"
        },
        {
          "internalType": "uint16",
          "name": "role_",
          "type": "uint16"
        }
      ],
      "name": "fresh",
      "outputs": [],
      "stateMutability": "nonpayable",
      "type": "function"
    },
    {
      "inputs": [
        {
          "internalType": "uint8",
          "name": "quality_",
          "type": "uint8"
        },
        {
          "internalType": "uint16",
          "name": "start_",
          "type": "uint16"
        },
        {
          "internalType": "uint16",
          "name": "plus_",
          "type": "uint16"
        }
      ],
      "name": "setCardRate",
      "outputs": [],
      "stateMutability": "nonpayable",
      "type": "function"
    },
    {
      "inputs": [
        {
          "internalType": "uint8",
          "name": "quality_",
          "type": "uint8"
        },
        {
          "internalType": "uint256",
          "name": "index_",
          "type": "uint256"
        },
        {
          "internalType": "uint32",
          "name": "numbers_",
          "type": "uint32"
        }
      ],
      "name": "setCardNumber",
      "outputs": [],
      "stateMutability": "nonpayable",
      "type": "function"
    },
    {
      "inputs": [
        {
          "internalType": "string",
          "name": "symbol_",
          "type": "string"
        }
      ],
      "name": "buy",
      "outputs": [],
      "stateMutability": "nonpayable",
      "type": "function"
    },
    {
      "inputs": [
        {
          "internalType": "uint8",
          "name": "quality_",
          "type": "uint8"
        },
        {
          "internalType": "uint16",
          "name": "heroId_",
          "type": "uint16"
        },
        {
          "internalType": "uint16",
          "name": "rate_",
          "type": "uint16"
        },
        {
          "internalType": "address",
          "name": "to_",
          "type": "address"
        }
      ],
      "name": "send",
      "outputs": [],
      "stateMutability": "nonpayable",
      "type": "function"
    }
  ],
  "bytecode": "0x60806040523480156200001157600080fd5b506040516200432a3803806200432a833981810160405281019062000037919062000917565b8060006200004a6200072360201b60201c565b9050806000806101000a81548173ffffffffffffffffffffffffffffffffffffffff021916908373ffffffffffffffffffffffffffffffffffffffff1602179055508073ffffffffffffffffffffffffffffffffffffffff16600073ffffffffffffffffffffffffffffffffffffffff167f8be0079c531659141344cd1fd0a4f28419497f9722a3daafe3b4186f6b6457e060405160405180910390a35080600160006101000a81548173ffffffffffffffffffffffffffffffffffffffff021916908373ffffffffffffffffffffffffffffffffffffffff16021790555050600560026040516200013c9062000a37565b9081526020016040518091039020819055506127106002604051620001619062000a09565b908152602001604051809103902081905550683635c9adc5dea0000060026040516200018d9062000a20565b9081526020016040518091039020819055506040518060800160405280610bb861ffff168152602001600061ffff168152602001600560ff168152602001620001df600760016200072b60201b60201c565b81525060036000600160ff16815260200190815260200160002060008201518160000160006101000a81548161ffff021916908361ffff16021790555060208201518160000160026101000a81548161ffff021916908361ffff16021790555060408201518160000160046101000a81548160ff021916908360ff16021790555060608201518160010190805190602001906200027e9291906200082a565b5090505060405180608001604052806107d061ffff168152602001600061ffff168152602001600460ff168152602001620002c16005806200072b60201b60201c565b81525060036000600260ff16815260200190815260200160002060008201518160000160006101000a81548161ffff021916908361ffff16021790555060208201518160000160026101000a81548161ffff021916908361ffff16021790555060408201518160000160046101000a81548160ff021916908360ff1602179055506060820151816001019080519060200190620003609291906200082a565b50905050604051806080016040528060c861ffff16815260200161032061ffff168152602001600360ff168152602001620003a4601460326200072b60201b60201c565b81525060036000600360ff16815260200190815260200160002060008201518160000160006101000a81548161ffff021916908361ffff16021790555060208201518160000160026101000a81548161ffff021916908361ffff16021790555060408201518160000160046101000a81548160ff021916908360ff1602179055506060820151816001019080519060200190620004439291906200082a565b509050506040518060800160405280605a61ffff16815260200161019a61ffff168152602001600260ff16815260200162000487601460646200072b60201b60201c565b81525060036000600460ff16815260200190815260200160002060008201518160000160006101000a81548161ffff021916908361ffff16021790555060208201518160000160026101000a81548161ffff021916908361ffff16021790555060408201518160000160046101000a81548160ff021916908360ff1602179055506060820151816001019080519060200190620005269291906200082a565b509050506040518060800160405280603261ffff168152602001609661ffff168152602001600160ff1681526020016200056a601461015c6200072b60201b60201c565b81525060036000600560ff16815260200190815260200160002060008201518160000160006101000a81548161ffff021916908361ffff16021790555060208201518160000160026101000a81548161ffff021916908361ffff16021790555060408201518160000160046101000a81548160ff021916908360ff1602179055506060820151816001019080519060200190620006099291906200082a565b50905050600860036000600560ff16815260200190815260200160002060010160138154811062000663577f4e487b7100000000000000000000000000000000000000000000000000000000600052603260045260246000fd5b90600052602060002090600891828204019190066004029054906101000a900463ffffffff1662000695919062000a59565b60036000600560ff168152602001908152602001600020600101601381548110620006e9577f4e487b7100000000000000000000000000000000000000000000000000000000600052603260045260246000fd5b90600052602060002090600891828204019190066004026101000a81548163ffffffff021916908363ffffffff1602179055505062000b63565b600033905090565b60608260ff1667ffffffffffffffff81111562000771577f4e487b7100000000000000000000000000000000000000000000000000000000600052604160045260246000fd5b604051908082528060200260200182016040528015620007a05781602001602082028036833780820191505090505b50905060005b8360ff168160ff161015620008235782828260ff1681518110620007f3577f4e487b7100000000000000000000000000000000000000000000000000000000600052603260045260246000fd5b602002602001019063ffffffff16908163ffffffff168152505080806200081a9062000aeb565b915050620007a6565b5092915050565b82805482825590600052602060002090600701600890048101928215620008ce5791602002820160005b838211156200089a57835183826101000a81548163ffffffff021916908363ffffffff160217905550926020019260040160208160030104928301926001030262000854565b8015620008cc5782816101000a81549063ffffffff02191690556004016020816003010492830192600103026200089a565b505b509050620008dd9190620008e1565b5090565b5b80821115620008fc576000816000905550600101620008e2565b5090565b600081519050620009118162000b49565b92915050565b6000602082840312156200092a57600080fd5b60006200093a8482850162000900565b91505092915050565b60006200095260058362000a4e565b91507f544f54414c0000000000000000000000000000000000000000000000000000006000830152600582019050919050565b60006200099460048362000a4e565b91507f4442465a000000000000000000000000000000000000000000000000000000006000830152600482019050919050565b6000620009d660078362000a4e565b91507f5155414c495459000000000000000000000000000000000000000000000000006000830152600782019050919050565b600062000a168262000943565b9150819050919050565b600062000a2d8262000985565b9150819050919050565b600062000a4482620009c7565b9150819050919050565b600081905092915050565b600062000a668262000ace565b915062000a738362000ace565b92508263ffffffff0382111562000a8f5762000a8e62000b1a565b5b828201905092915050565b600062000aa78262000aae565b9050919050565b600073ffffffffffffffffffffffffffffffffffffffff82169050919050565b600063ffffffff82169050919050565b600060ff82169050919050565b600062000af88262000ade565b915060ff82141562000b0f5762000b0e62000b1a565b5b600182019050919050565b7f4e487b7100000000000000000000000000000000000000000000000000000000600052601160045260246000fd5b62000b548162000a9a565b811462000b6057600080fd5b50565b6137b78062000b736000396000f3fe608060405234801561001057600080fd5b50600436106100b45760003560e01c8063715018a611610071578063715018a6146101755780637a9e5e4b1461017f5780638afb1a8e1461019b5780638da5cb5b146101b7578063bf7e214f146101d5578063f2fde38b146101f3576100b4565b80631a0ff849146100b95780631f858236146100d55780632c74ee4f146100f15780633e8f5b901461010d578063492cc769146101295780635ef7fbad14610145575b600080fd5b6100d360048036038101906100ce9190612a1c565b61020f565b005b6100ef60048036038101906100ea91906129b9565b6103bf565b005b61010b6004803603810190610106919061292e565b6109e2565b005b61012760048036038101906101229190612888565b610c24565b005b610143600480360381019061013e9190612847565b610d6e565b005b61015f600480360381019061015a9190612847565b611941565b60405161016c9190613289565b60405180910390f35b61017d61196f565b005b610199600480360381019061019491906127cc565b611aa9565b005b6101b560048036038101906101b0919061296a565b611b69565b005b6101bf611cff565b6040516101cc9190612fbe565b60405180910390f35b6101dd611d28565b6040516101ea91906130c5565b60405180910390f35b61020d600480360381019061020891906127cc565b611d4e565b005b6040518060400160405280600681526020017f434f4e4649470000000000000000000000000000000000000000000000000000815250600160009054906101000a900473ffffffffffffffffffffffffffffffffffffffff1673ffffffffffffffffffffffffffffffffffffffff1663f5e65c7233836040518363ffffffff1660e01b81526004016102a2929190613010565b60206040518083038186803b1580156102ba57600080fd5b505afa1580156102ce573d6000803e3d6000fd5b505050506040513d601f19601f820116820180604052508101906102f2919061281e565b610331576040517f08c379a000000000000000000000000000000000000000000000000000000000815260040161032890613233565b60405180910390fd5b81600360008660ff1660ff1681526020019081526020016000206001018481548110610386577f4e487b7100000000000000000000000000000000000000000000000000000000600052603260045260246000fd5b90600052602060002090600891828204019190066004026101000a81548163ffffffff021916908363ffffffff16021790555050505050565b6040518060400160405280600681526020017f434f4e4649470000000000000000000000000000000000000000000000000000815250600160009054906101000a900473ffffffffffffffffffffffffffffffffffffffff1673ffffffffffffffffffffffffffffffffffffffff1663f5e65c7233836040518363ffffffff1660e01b8152600401610452929190613010565b60206040518083038186803b15801561046a57600080fd5b505afa15801561047e573d6000803e3d6000fd5b505050506040513d601f19601f820116820180604052508101906104a2919061281e565b6104e1576040517f08c379a00000000000000000000000000000000000000000000000000000000081526004016104d890613233565b60405180910390fd5b60006040518060c001604052808760ff1681526020018661ffff168152602001600360008960ff1660ff16815260200190815260200160002060000160049054906101000a900460ff1660ff1681526020018561ffff1681526020016000815260200160006dffffffffffffffffffffffffffff168152509050600073__NftLibrary____________________________63ff1571d7836040518263ffffffff1660e01b81526004016105949190613253565b60206040518083038186803b1580156105ac57600080fd5b505af41580156105c0573d6000803e3d6000fd5b505050506040513d601f19601f820116820180604052508101906105e491906128dc565b9050600060036000846000015160ff1660ff168152602001908152602001600020600101836020015161ffff1681548110610648577f4e487b7100000000000000000000000000000000000000000000000000000000600052603260045260246000fd5b90600052602060002090600891828204019190066004029054906101000a900463ffffffff1690506001600260405161068090612f94565b90815260200160405180910390205461069991906134a4565b60026040516106a790612f94565b9081526020016040518091039020819055506001816106c691906134d8565b60036000856000015160ff1660ff168152602001908152602001600020600101846020015161ffff1681548110610726577f4e487b7100000000000000000000000000000000000000000000000000000000600052603260045260246000fd5b90600052602060002090600891828204019190066004026101000a81548163ffffffff021916908363ffffffff1602179055506000600160009054906101000a900473ffffffffffffffffffffffffffffffffffffffff1673ffffffffffffffffffffffffffffffffffffffff16636957a0b26040518163ffffffff1660e01b81526004016107b490613213565b60206040518083038186803b1580156107cc57600080fd5b505afa1580156107e0573d6000803e3d6000fd5b505050506040513d601f19601f8201168201806040525081019061080491906127f5565b90508073ffffffffffffffffffffffffffffffffffffffff1663f9d526d387856040518363ffffffff1660e01b815260040161084192919061309c565b600060405180830381600087803b15801561085b57600080fd5b505af115801561086f573d6000803e3d6000fd5b505050506000600160009054906101000a900473ffffffffffffffffffffffffffffffffffffffff1673ffffffffffffffffffffffffffffffffffffffff16636957a0b26040518163ffffffff1660e01b81526004016108ce906131d3565b60206040518083038186803b1580156108e657600080fd5b505afa1580156108fa573d6000803e3d6000fd5b505050506040513d601f19601f8201168201806040525081019061091e91906127f5565b90508073ffffffffffffffffffffffffffffffffffffffff1663f9d526d388866040518363ffffffff1660e01b815260040161095b92919061309c565b600060405180830381600087803b15801561097557600080fd5b505af1158015610989573d6000803e3d6000fd5b505050507fe69ddaf88957040bdf59684a08f2de103a37fa00fe3d216f8fe2ec965a015523856000015186602001518688606001516040516109ce94939291906132a4565b60405180910390a150505050505050505050565b6040518060400160405280600a81526020017f4341524452455741524400000000000000000000000000000000000000000000815250600160009054906101000a900473ffffffffffffffffffffffffffffffffffffffff1673ffffffffffffffffffffffffffffffffffffffff1663f5e65c7233836040518363ffffffff1660e01b8152600401610a75929190613010565b60206040518083038186803b158015610a8d57600080fd5b505afa158015610aa1573d6000803e3d6000fd5b505050506040513d601f19601f82011682018060405250810190610ac5919061281e565b610b04576040517f08c379a0000000000000000000000000000000000000000000000000000000008152600401610afb90613233565b60405180910390fd5b6000600360008560ff1660ff1681526020019081526020016000206001018361ffff1681548110610b5e577f4e487b7100000000000000000000000000000000000000000000000000000000600052603260045260246000fd5b90600052602060002090600891828204019190066004029054906101000a900463ffffffff169050600181610b9391906133ff565b600360008660ff1660ff1681526020019081526020016000206001018461ffff1681548110610beb577f4e487b7100000000000000000000000000000000000000000000000000000000600052603260045260246000fd5b90600052602060002090600891828204019190066004026101000a81548163ffffffff021916908363ffffffff16021790555050505050565b6040518060400160405280600681526020017f434f4e4649470000000000000000000000000000000000000000000000000000815250600160009054906101000a900473ffffffffffffffffffffffffffffffffffffffff1673ffffffffffffffffffffffffffffffffffffffff1663f5e65c7233836040518363ffffffff1660e01b8152600401610cb7929190613010565b60206040518083038186803b158015610ccf57600080fd5b505afa158015610ce3573d6000803e3d6000fd5b505050506040513d601f19601f82011682018060405250810190610d07919061281e565b610d46576040517f08c379a0000000000000000000000000000000000000000000000000000000008152600401610d3d90613233565b60405180910390fd5b81600284604051610d579190612f7d565b908152602001604051809103902081905550505050565b6040518060400160405280600381526020017f4255590000000000000000000000000000000000000000000000000000000000815250600160009054906101000a900473ffffffffffffffffffffffffffffffffffffffff1673ffffffffffffffffffffffffffffffffffffffff1663466f98e860006040518263ffffffff1660e01b8152600401610e009190613040565b60206040518083038186803b158015610e1857600080fd5b505afa158015610e2c573d6000803e3d6000fd5b505050506040513d601f19601f82011682018060405250810190610e50919061281e565b1580610f075750600160009054906101000a900473ffffffffffffffffffffffffffffffffffffffff1673ffffffffffffffffffffffffffffffffffffffff1663466f98e86000836040518363ffffffff1660e01b8152600401610eb5929190613010565b60206040518083038186803b158015610ecd57600080fd5b505afa158015610ee1573d6000803e3d6000fd5b505050506040513d601f19601f82011682018060405250810190610f05919061281e565b155b80610fba5750600160009054906101000a900473ffffffffffffffffffffffffffffffffffffffff1673ffffffffffffffffffffffffffffffffffffffff1663466f98e8336040518263ffffffff1660e01b8152600401610f689190613040565b60206040518083038186803b158015610f8057600080fd5b505afa158015610f94573d6000803e3d6000fd5b505050506040513d601f19601f82011682018060405250810190610fb8919061281e565b155b8061106f5750600160009054906101000a900473ffffffffffffffffffffffffffffffffffffffff1673ffffffffffffffffffffffffffffffffffffffff1663466f98e833836040518363ffffffff1660e01b815260040161101d929190613010565b60206040518083038186803b15801561103557600080fd5b505afa158015611049573d6000803e3d6000fd5b505050506040513d601f19601f8201168201806040525081019061106d919061281e565b155b6110ae576040517f08c379a00000000000000000000000000000000000000000000000000000000081526004016110a590613233565b60405180910390fd5b600160009054906101000a900473ffffffffffffffffffffffffffffffffffffffff1673ffffffffffffffffffffffffffffffffffffffff1663466f98e860006040518263ffffffff1660e01b815260040161110a919061306e565b60206040518083038186803b15801561112257600080fd5b505afa158015611136573d6000803e3d6000fd5b505050506040513d601f19601f8201168201806040525081019061115a919061281e565b1561119a576040517f08c379a000000000000000000000000000000000000000000000000000000000815260040161119190613153565b60405180910390fd5b6000600160009054906101000a900473ffffffffffffffffffffffffffffffffffffffff1673ffffffffffffffffffffffffffffffffffffffff16636957a0b2846040518263ffffffff1660e01b81526004016111f79190613131565b60206040518083038186803b15801561120f57600080fd5b505afa158015611223573d6000803e3d6000fd5b505050506040513d601f19601f8201168201806040525081019061124791906127f5565b90506000600160009054906101000a900473ffffffffffffffffffffffffffffffffffffffff1673ffffffffffffffffffffffffffffffffffffffff16636957a0b26040518163ffffffff1660e01b81526004016112a4906131f3565b60206040518083038186803b1580156112bc57600080fd5b505afa1580156112d0573d6000803e3d6000fd5b505050506040513d601f19601f820116820180604052508101906112f491906127f5565b905060008273ffffffffffffffffffffffffffffffffffffffff166323b872dd33846002896040516113269190612f7d565b9081526020016040518091039020546040518463ffffffff1660e01b815260040161135393929190612fd9565b602060405180830381600087803b15801561136d57600080fd5b505af1158015611381573d6000803e3d6000fd5b505050506040513d601f19601f820116820180604052508101906113a5919061281e565b9050806113e7576040517f08c379a00000000000000000000000000000000000000000000000000000000081526004016113de906131b3565b60405180910390fd5b6113ef612653565b6002866040516113ff9190612f7d565b90815260200160405180910390205481608001818152505061141f611ef7565b8160ff1691508360000184602001856060018361ffff1661ffff168152508361ffff1661ffff168152508360ff1660ff168152505050506114688160000151826060015161245e565b816060019061ffff16908161ffff168152505060036000826000015160ff1660ff16815260200190815260200160002060000160049054906101000a900460ff16816040019060ff16908160ff1681525050600073__NftLibrary____________________________63ff1571d7836040518263ffffffff1660e01b81526004016114f39190613253565b60206040518083038186803b15801561150b57600080fd5b505af415801561151f573d6000803e3d6000fd5b505050506040513d601f19601f8201168201806040525081019061154391906128dc565b9050600060036000846000015160ff1660ff168152602001908152602001600020600101836020015161ffff16815481106115a7577f4e487b7100000000000000000000000000000000000000000000000000000000600052603260045260246000fd5b90600052602060002090600891828204019190066004029054906101000a900463ffffffff169050600160026040516115df90612f94565b9081526020016040518091039020546115f891906134a4565b600260405161160690612f94565b90815260200160405180910390208190555060018161162591906134d8565b60036000856000015160ff1660ff168152602001908152602001600020600101846020015161ffff1681548110611685577f4e487b7100000000000000000000000000000000000000000000000000000000600052603260045260246000fd5b90600052602060002090600891828204019190066004026101000a81548163ffffffff021916908363ffffffff1602179055506000600160009054906101000a900473ffffffffffffffffffffffffffffffffffffffff1673ffffffffffffffffffffffffffffffffffffffff16636957a0b26040518163ffffffff1660e01b815260040161171390613213565b60206040518083038186803b15801561172b57600080fd5b505afa15801561173f573d6000803e3d6000fd5b505050506040513d601f19601f8201168201806040525081019061176391906127f5565b90508073ffffffffffffffffffffffffffffffffffffffff1663f9d526d333856040518363ffffffff1660e01b81526004016117a092919061309c565b600060405180830381600087803b1580156117ba57600080fd5b505af11580156117ce573d6000803e3d6000fd5b505050506000600160009054906101000a900473ffffffffffffffffffffffffffffffffffffffff1673ffffffffffffffffffffffffffffffffffffffff16636957a0b26040518163ffffffff1660e01b815260040161182d906131d3565b60206040518083038186803b15801561184557600080fd5b505afa158015611859573d6000803e3d6000fd5b505050506040513d601f19601f8201168201806040525081019061187d91906127f5565b90508073ffffffffffffffffffffffffffffffffffffffff1663f9d526d333866040518363ffffffff1660e01b81526004016118ba92919061309c565b600060405180830381600087803b1580156118d457600080fd5b505af11580156118e8573d6000803e3d6000fd5b505050507fe69ddaf88957040bdf59684a08f2de103a37fa00fe3d216f8fe2ec965a0155238560000151866020015186886060015160405161192d94939291906132a4565b60405180910390a150505050505050505050565b6002818051602081018201805184825260208301602085012081835280955050505050506000915090505481565b61197761264b565b73ffffffffffffffffffffffffffffffffffffffff16611995611cff565b73ffffffffffffffffffffffffffffffffffffffff16146119eb576040517f08c379a00000000000000000000000000000000000000000000000000000000081526004016119e290613193565b60405180910390fd5b600073ffffffffffffffffffffffffffffffffffffffff1660008054906101000a900473ffffffffffffffffffffffffffffffffffffffff1673ffffffffffffffffffffffffffffffffffffffff167f8be0079c531659141344cd1fd0a4f28419497f9722a3daafe3b4186f6b6457e060405160405180910390a360008060006101000a81548173ffffffffffffffffffffffffffffffffffffffff021916908373ffffffffffffffffffffffffffffffffffffffff160217905550565b611ab161264b565b73ffffffffffffffffffffffffffffffffffffffff16611acf611cff565b73ffffffffffffffffffffffffffffffffffffffff1614611b25576040517f08c379a0000000000000000000000000000000000000000000000000000000008152600401611b1c90613193565b60405180910390fd5b80600160006101000a81548173ffffffffffffffffffffffffffffffffffffffff021916908373ffffffffffffffffffffffffffffffffffffffff16021790555050565b6040518060400160405280600681526020017f434f4e4649470000000000000000000000000000000000000000000000000000815250600160009054906101000a900473ffffffffffffffffffffffffffffffffffffffff1673ffffffffffffffffffffffffffffffffffffffff1663f5e65c7233836040518363ffffffff1660e01b8152600401611bfc929190613010565b60206040518083038186803b158015611c1457600080fd5b505afa158015611c28573d6000803e3d6000fd5b505050506040513d601f19601f82011682018060405250810190611c4c919061281e565b611c8b576040517f08c379a0000000000000000000000000000000000000000000000000000000008152600401611c8290613233565b60405180910390fd5b81600360008660ff1660ff16815260200190815260200160002060000160026101000a81548161ffff021916908361ffff16021790555082600360008660ff1660ff16815260200190815260200160002060000160006101000a81548161ffff021916908361ffff16021790555050505050565b60008060009054906101000a900473ffffffffffffffffffffffffffffffffffffffff16905090565b600160009054906101000a900473ffffffffffffffffffffffffffffffffffffffff1681565b611d5661264b565b73ffffffffffffffffffffffffffffffffffffffff16611d74611cff565b73ffffffffffffffffffffffffffffffffffffffff1614611dca576040517f08c379a0000000000000000000000000000000000000000000000000000000008152600401611dc190613193565b60405180910390fd5b600073ffffffffffffffffffffffffffffffffffffffff168173ffffffffffffffffffffffffffffffffffffffff161415611e3a576040517f08c379a0000000000000000000000000000000000000000000000000000000008152600401611e3190613173565b60405180910390fd5b8073ffffffffffffffffffffffffffffffffffffffff1660008054906101000a900473ffffffffffffffffffffffffffffffffffffffff1673ffffffffffffffffffffffffffffffffffffffff167f8be0079c531659141344cd1fd0a4f28419497f9722a3daafe3b4186f6b6457e060405160405180910390a3806000806101000a81548173ffffffffffffffffffffffffffffffffffffffff021916908373ffffffffffffffffffffffffffffffffffffffff16021790555050565b6000806000806000905060008073__NftLibrary____________________________63b863bd376002604051611f2c90612f94565b9081526020016040518091039020546040518263ffffffff1660e01b8152600401611f57919061326e565b60206040518083038186803b158015611f6f57600080fd5b505af4158015611f83573d6000803e3d6000fd5b505050506040513d601f19601f82011682018060405250810190611fa79190612905565b90506000600190505b60016002604051611fc090612fa9565b908152602001604051809103902054611fd991906133a9565b8160ff161015612455578215611fee57612455565b6000600360008360ff1660ff1681526020019081526020016000206040518060800160405290816000820160009054906101000a900461ffff1661ffff1661ffff1681526020016000820160029054906101000a900461ffff1661ffff1661ffff1681526020016000820160049054906101000a900460ff1660ff1660ff168152602001600182018054806020026020016040519081016040528092919081815260200182805480156120ec57602002820191906000526020600020906000905b82829054906101000a900463ffffffff1663ffffffff16815260200190600401906020826003010492830192600103820291508084116120af5790505b505050505081525050905060005b8160600151518160ff161015612440578563ffffffff168411801561217757508582606001518260ff168151811061215b577f4e487b7100000000000000000000000000000000000000000000000000000000600052603260045260246000fd5b602002602001015161216d91906133ff565b63ffffffff168411155b156123d857600360008460ff1660ff16815260200190815260200160002060000160009054906101000a900461ffff1696508298506001816121b99190613439565b9750600194506000600360008560ff1660ff16815260200190815260200160002060000160029054906101000a900461ffff1661ffff1610156121fb57612440565b6000600360008560ff1660ff16815260200190815260200160002060000160009054906101000a900461ffff16600360008660ff1660ff16815260200190815260200160002060000160029054906101000a900461ffff1661225d9190613371565b61ffff16905073__NftLibrary____________________________63b863bd37826040518263ffffffff1660e01b815260040161229a919061326e565b60206040518083038186803b1580156122b257600080fd5b505af41580156122c6573d6000803e3d6000fd5b505050506040513d601f19601f820116820180604052508101906122ea9190612905565b9750600360008560ff1660ff16815260200190815260200160002060000160029054906101000a900461ffff1661ffff168861ffff16111561235f57600360008560ff1660ff16815260200190815260200160002060000160009054906101000a900461ffff168861235c9190613470565b97505b600360008560ff1660ff16815260200190815260200160002060000160009054906101000a900461ffff1661ffff168861ffff1610156123d257600360008560ff1660ff16815260200190815260200160002060000160009054906101000a900461ffff16886123cf9190613371565b97505b50612440565b81606001518160ff1681518110612418577f4e487b7100000000000000000000000000000000000000000000000000000000600052603260045260246000fd5b60200260200101518661242b91906133ff565b9550808061243890613647565b9150506120fa565b5050808061244d90613647565b915050611fb0565b50505050909192565b600060058360ff16148015612478575060788261ffff1610155b1561264157600073__NftLibrary____________________________63b863bd3760646040518263ffffffff1660e01b81526004016124b791906130e0565b60206040518083038186803b1580156124cf57600080fd5b505af41580156124e3573d6000803e3d6000fd5b505050506040513d601f19601f820116820180604052508101906125079190612905565b905060508111156125b05773__NftLibrary____________________________63b863bd3760506040518263ffffffff1660e01b815260040161254a9190613116565b60206040518083038186803b15801561256257600080fd5b505af4158015612576573d6000803e3d6000fd5b505050506040513d601f19601f8201168201806040525081019061259a9190612905565b90506096816125a991906133a9565b915061263b565b73__NftLibrary____________________________63b863bd3760786040518263ffffffff1660e01b81526004016125e891906130fb565b60206040518083038186803b15801561260057600080fd5b505af4158015612614573d6000803e3d6000fd5b505050506040513d601f19601f820116820180604052508101906126389190612905565b91505b50612645565b8190505b92915050565b600033905090565b6040518060c00160405280600060ff168152602001600061ffff168152602001600060ff168152602001600061ffff1681526020016000815260200160006dffffffffffffffffffffffffffff1681525090565b60006126ba6126b58461331a565b6132e9565b9050828152602081018484840111156126d257600080fd5b6126dd848285613605565b509392505050565b6000813590506126f4816136e0565b92915050565b600081519050612709816136e0565b92915050565b60008151905061271e816136f7565b92915050565b600082601f83011261273557600080fd5b81356127458482602086016126a7565b91505092915050565b60008151905061275d8161370e565b92915050565b60008135905061277281613725565b92915050565b6000813590506127878161373c565b92915050565b60008151905061279c8161373c565b92915050565b6000813590506127b181613753565b92915050565b6000813590506127c68161376a565b92915050565b6000602082840312156127de57600080fd5b60006127ec848285016126e5565b91505092915050565b60006020828403121561280757600080fd5b6000612815848285016126fa565b91505092915050565b60006020828403121561283057600080fd5b600061283e8482850161270f565b91505092915050565b60006020828403121561285957600080fd5b600082013567ffffffffffffffff81111561287357600080fd5b61287f84828501612724565b91505092915050565b6000806040838503121561289b57600080fd5b600083013567ffffffffffffffff8111156128b557600080fd5b6128c185828601612724565b92505060206128d285828601612778565b9150509250929050565b6000602082840312156128ee57600080fd5b60006128fc8482850161274e565b91505092915050565b60006020828403121561291757600080fd5b60006129258482850161278d565b91505092915050565b6000806040838503121561294157600080fd5b600061294f858286016127b7565b925050602061296085828601612763565b9150509250929050565b60008060006060848603121561297f57600080fd5b600061298d868287016127b7565b935050602061299e86828701612763565b92505060406129af86828701612763565b9150509250925092565b600080600080608085870312156129cf57600080fd5b60006129dd878288016127b7565b94505060206129ee87828801612763565b93505060406129ff87828801612763565b9250506060612a10878288016126e5565b91505092959194509250565b600080600060608486031215612a3157600080fd5b6000612a3f868287016127b7565b9350506020612a5086828701612778565b9250506040612a61868287016127a2565b9150509250925092565b612a748161350c565b82525050565b612a8381613599565b82525050565b612a92816135bd565b82525050565b612aa1816135cf565b82525050565b612ab0816135e1565b82525050565b6000612ac18261334a565b612acb8185613355565b9350612adb818560208601613614565b612ae4816136cf565b840191505092915050565b6000612afa8261334a565b612b048185613366565b9350612b14818560208601613614565b80840191505092915050565b6000612b2d601b83613355565b91507f4341524453484f503a2053686f70206973206e6f74206f70656e2e00000000006000830152602082019050919050565b6000612b6d602683613355565b91507f4f776e61626c653a206e6577206f776e657220697320746865207a65726f206160008301527f64647265737300000000000000000000000000000000000000000000000000006020830152604082019050919050565b6000612bd3600583613366565b91507f544f54414c0000000000000000000000000000000000000000000000000000006000830152600582019050919050565b6000612c13602083613355565b91507f4f776e61626c653a2063616c6c6572206973206e6f7420746865206f776e65726000830152602082019050919050565b6000612c53601c83613355565b91507f4341524453484f503a205472616e73616374696f6e206661696c6564000000006000830152602082019050919050565b6000612c93600a83613355565b91507f43415244524557415244000000000000000000000000000000000000000000006000830152602082019050919050565b6000612cd3600383613355565b91507f414c4c00000000000000000000000000000000000000000000000000000000006000830152602082019050919050565b6000612d13600983613355565b91507f524543495049454e5400000000000000000000000000000000000000000000006000830152602082019050919050565b6000612d53600783613355565b91507f46494748544552000000000000000000000000000000000000000000000000006000830152602082019050919050565b6000612d93600783613366565b91507f5155414c495459000000000000000000000000000000000000000000000000006000830152600782019050919050565b6000612dd3602483613355565b91507f4d656d6265723a20546865206f7065726174696f6e206973206e6f7420616c6c60008301527f6f776564000000000000000000000000000000000000000000000000000000006020830152604082019050919050565b6000612e39600483613355565b91507f4f50454e000000000000000000000000000000000000000000000000000000006000830152602082019050919050565b60c082016000820151612e826000850182612f6e565b506020820151612e956020850182612f23565b506040820151612ea86040850182612f6e565b506060820151612ebb6060850182612f23565b506080820151612ece6080850182612f50565b5060a0820151612ee160a0850182612ef6565b50505050565b612ef08161352a565b82525050565b612eff8161352a565b82525050565b612f0e816135f3565b82525050565b612f1d81613544565b82525050565b612f2c81613544565b82525050565b612f3b81613572565b82525050565b612f4a81613572565b82525050565b612f5981613572565b82525050565b612f688161358c565b82525050565b612f778161358c565b82525050565b6000612f898284612aef565b915081905092915050565b6000612f9f82612bc6565b9150819050919050565b6000612fb482612d86565b9150819050919050565b6000602082019050612fd36000830184612a6b565b92915050565b6000606082019050612fee6000830186612a6b565b612ffb6020830185612a6b565b6130086040830184612f32565b949350505050565b60006040820190506130256000830185612a6b565b81810360208301526130378184612ab6565b90509392505050565b60006040820190506130556000830184612a6b565b818103602083015261306681612cc6565b905092915050565b60006040820190506130836000830184612a6b565b818103602083015261309481612e2c565b905092915050565b60006040820190506130b16000830185612a6b565b6130be6020830184612ee7565b9392505050565b60006020820190506130da6000830184612a7a565b92915050565b60006020820190506130f56000830184612a89565b92915050565b60006020820190506131106000830184612a98565b92915050565b600060208201905061312b6000830184612aa7565b92915050565b6000602082019050818103600083015261314b8184612ab6565b905092915050565b6000602082019050818103600083015261316c81612b20565b9050919050565b6000602082019050818103600083015261318c81612b60565b9050919050565b600060208201905081810360008301526131ac81612c06565b9050919050565b600060208201905081810360008301526131cc81612c46565b9050919050565b600060208201905081810360008301526131ec81612c86565b9050919050565b6000602082019050818103600083015261320c81612d06565b9050919050565b6000602082019050818103600083015261322c81612d46565b9050919050565b6000602082019050818103600083015261324c81612dc6565b9050919050565b600060c0820190506132686000830184612e6c565b92915050565b60006020820190506132836000830184612f41565b92915050565b600060208201905061329e6000830184612f32565b92915050565b60006080820190506132b96000830187612f5f565b6132c66020830186612f14565b6132d36040830185612f05565b6132e06060830184612f14565b95945050505050565b6000604051905081810181811067ffffffffffffffff821117156133105761330f6136a0565b5b8060405250919050565b600067ffffffffffffffff821115613335576133346136a0565b5b601f19601f8301169050602081019050919050565b600081519050919050565b600082825260208201905092915050565b600081905092915050565b600061337c82613544565b915061338783613544565b92508261ffff0382111561339e5761339d613671565b5b828201905092915050565b60006133b482613572565b91506133bf83613572565b9250827fffffffffffffffffffffffffffffffffffffffffffffffffffffffffffffffff038211156133f4576133f3613671565b5b828201905092915050565b600061340a8261357c565b91506134158361357c565b92508263ffffffff0382111561342e5761342d613671565b5b828201905092915050565b60006134448261358c565b915061344f8361358c565b92508260ff0382111561346557613464613671565b5b828201905092915050565b600061347b82613544565b915061348683613544565b92508282101561349957613498613671565b5b828203905092915050565b60006134af82613572565b91506134ba83613572565b9250828210156134cd576134cc613671565b5b828203905092915050565b60006134e38261357c565b91506134ee8361357c565b92508282101561350157613500613671565b5b828203905092915050565b600061351782613552565b9050919050565b60008115159050919050565b60006dffffffffffffffffffffffffffff82169050919050565b600061ffff82169050919050565b600073ffffffffffffffffffffffffffffffffffffffff82169050919050565b6000819050919050565b600063ffffffff82169050919050565b600060ff82169050919050565b60006135a4826135ab565b9050919050565b60006135b682613552565b9050919050565b60006135c882613572565b9050919050565b60006135da82613572565b9050919050565b60006135ec82613572565b9050919050565b60006135fe8261352a565b9050919050565b82818337600083830152505050565b60005b83811015613632578082015181840152602081019050613617565b83811115613641576000848401525b50505050565b60006136528261358c565b915060ff82141561366657613665613671565b5b600182019050919050565b7f4e487b7100000000000000000000000000000000000000000000000000000000600052601160045260246000fd5b7f4e487b7100000000000000000000000000000000000000000000000000000000600052604160045260246000fd5b6000601f19601f8301169050919050565b6136e98161350c565b81146136f457600080fd5b50565b6137008161351e565b811461370b57600080fd5b50565b6137178161352a565b811461372257600080fd5b50565b61372e81613544565b811461373957600080fd5b50565b61374581613572565b811461375057600080fd5b50565b61375c8161357c565b811461376757600080fd5b50565b6137738161358c565b811461377e57600080fd5b5056fea2646970667358221220109859ce5f9dc5dd57b684c107627e54fce2c83f3c84bf7c984a2596e8985ee064736f6c63430008000033",
  "immutableReferences": {},
  "source": "// SPDX-License-Identifier: SimPL-2.0\n\npragma solidity ^0.8.0;\npragma experimental ABIEncoderV2;\n\nimport \"../token/Fighter.sol\";\nimport \"../core/CardReward.sol\";\nimport \"../authority/Member.sol\";\nimport \"../libraries/NftLibrary.sol\";\n\nimport \"@openzeppelin/contracts/token/ERC20/IERC20.sol\";\nimport \"@openzeppelin/contracts/utils/math/SafeMath.sol\";\nimport \"@openzeppelin/contracts/utils/structs/EnumerableSet.sol\";\n\n/**\n * @title Fighter Z Token Card Shop\n *\n * @author Bit Lighthouse. Ace\n * AT: 2021-3-28 | VERSION: v1.0.2\n */\n\ncontract CardShop is Member {\n    using SafeMath for uint256;\n    using EnumerableSet for EnumerableSet.UintSet;\n\n    mapping (uint8 => NftLibrary.CardStruct) private _cards;\n    event Buy(uint8 quality, uint16 heroId, uint256 tokenId, uint16 rate);\n\n    constructor(address auth_) Member(auth_) {\n        configs[\"QUALITY\"] = 5;\n        configs[\"TOTAL\"] = 10000;\n        configs[\"DBFZ\"] = 1000e18;\n\n        _cards[1] = NftLibrary.CardStruct(3000, 0, 5, _create(7, 1));\n        _cards[2] = NftLibrary.CardStruct(2000, 0, 4, _create(5, 5));\n        _cards[3] = NftLibrary.CardStruct(200, 800, 3, _create(20, 50));\n        _cards[4] = NftLibrary.CardStruct(90, 410, 2, _create(20, 100));\n        _cards[5] = NftLibrary.CardStruct(50, 150, 1, _create(20, 348));\n        \n        _cards[5].role[19] = _cards[5].role[19] + 8;\n    }\n\n    function _specials(uint8 quality_, uint16 rate_) private view\n        returns (uint16 result) {\n\n        if (quality_ == 5 && rate_ >= 120) {\n            uint256 ran = NftLibrary.random(100);\n            if (ran > 80) {\n                ran = NftLibrary.random(80);\n                result = uint16(ran + 150);\n            } else {\n                result = uint16(NftLibrary.random(120));\n            }\n        } else result = rate_;\n    }\n\n    function _create(uint8 len_, uint32 number_) private pure\n        returns (uint32[] memory roles){\n\n        roles = new uint32[](len_);\n        for (uint8 i = 0; i < len_; i++) roles[i] = number_;\n    }\n\n    function _choose() private view returns (uint8 q, uint8 h, uint16 r) {\n        uint32  index = 0; bool is_break = false;\n        uint256 ran = NftLibrary.random(configs[\"TOTAL\"]);\n\n        for (uint8 i = 1; i < configs[\"QUALITY\"] + 1; i++) {\n            if (is_break) break;\n            \n            NftLibrary.CardStruct memory cs = _cards[i];\n            for (uint8 j = 0; j < cs.role.length; j++) {\n                if (ran > index && ran <= cs.role[j] + index) {\n                    r = _cards[i].start; q = i;\n                    h = (j + 1); is_break = true;\n\n                    if (_cards[i].plus < 0) break;\n\n                    uint256 total = _cards[i].plus + _cards[i].start;\n                    r = uint16(NftLibrary.random(total));\n\n                    if (r > _cards[i].plus) r = r - _cards[i].start;\n                    if (r < _cards[i].start) r = r + _cards[i].start;\n\n                    break;\n                }\n\n                index = index + cs.role[j];\n            }\n        }\n    }\n\n    function fresh(uint8 quality_, uint16 role_) public\n        CheckPermit(\"CARDREWARD\") {\n\n        uint32 surpls = _cards[quality_].role[role_];\n        _cards[quality_].role[role_] = surpls + 1;\n    }\n\n    function setCardRate(uint8 quality_, uint16 start_, uint16 plus_)\n        public CheckPermit(\"CONFIG\") {\n\n        _cards[quality_].plus = plus_;\n        _cards[quality_].start = start_;\n    }\n\n    function setCardNumber(uint8 quality_, uint index_, uint32 numbers_)\n        public CheckPermit(\"CONFIG\") {\n\n        _cards[quality_].role[index_] = numbers_;\n    }\n\n    function buy(string memory symbol_) public CheckStatus(\"BUY\") {\n        require(\n            !authority.authorities(address(0), \"OPEN\"),\n            \"CARDSHOP: Shop is not open.\"\n        );\n\n        address token = authority.members(symbol_);\n        address recipient = authority.members(\"RECIPIENT\");\n\n        bool success = IERC20(token).transferFrom(\n            msg.sender, recipient, configs[symbol_]\n        );\n\n        require(success, \"CARDSHOP: Transaction failed\");\n\n        NftLibrary.DetailStruct memory ds;\n        ds.amount = configs[symbol_];\n        (ds.quality, ds.heroId, ds.rate) = _choose();\n        ds.rate = _specials(ds.quality, ds.rate);\n        ds.power = _cards[ds.quality].power;\n\n        uint112 tokenId = NftLibrary.generate(ds);\n        uint32 surpls = _cards[ds.quality].role[ds.heroId];\n        configs[\"TOTAL\"] = configs[\"TOTAL\"] - 1;\n        _cards[ds.quality].role[ds.heroId] = surpls - 1;\n\n        address nft = authority.members(\"FIGHTER\");\n        Fighter(nft).doBuy(msg.sender, tokenId);\n\n        address cr = authority.members(\"CARDREWARD\");\n        CardReward(cr).doBuy(msg.sender, tokenId);\n\n        emit Buy(ds.quality, ds.heroId, tokenId, ds.rate);\n    }\n\n    function send(uint8 quality_, uint16 heroId_, uint16 rate_, address to_)\n        public CheckPermit(\"CONFIG\") {\n        NftLibrary.DetailStruct memory ds = NftLibrary.DetailStruct(\n            quality_, heroId_, _cards[quality_].power, rate_, 0, 0\n        );\n\n        uint112 tokenId = NftLibrary.generate(ds);\n        uint32 surpls = _cards[ds.quality].role[ds.heroId];\n        configs[\"TOTAL\"] = configs[\"TOTAL\"] - 1;\n        _cards[ds.quality].role[ds.heroId] = surpls - 1;\n\n        address nft = authority.members(\"FIGHTER\");\n        Fighter(nft).doBuy(to_, tokenId);\n\n        address cr = authority.members(\"CARDREWARD\");\n        CardReward(cr).doBuy(to_, tokenId);\n\n        emit Buy(ds.quality, ds.heroId, tokenId, ds.rate);\n    }\n}",
  "sourcePath": "/home/ace/Projects/eth/other/dragon-ball-project/dragon-ball-contract/contracts/core/CardShop.sol",
  "compiler": {
    "name": "solc",
    "version": "0.8.0+commit.c7dfd78e.Emscripten.clang"
  },
  "schemaVersion": "3.4.3",
  "updatedAt": "2021-09-14T02:50:01.944Z",
  "networkType": "ethereum",
  "devdoc": {
    "author": "Bit Lighthouse. Ace AT: 2021-3-28 | VERSION: v1.0.2",
    "kind": "dev",
    "methods": {
      "owner()": {
        "details": "Returns the address of the current owner."
      },
      "renounceOwnership()": {
        "details": "Leaves the contract without owner. It will not be possible to call `onlyOwner` functions anymore. Can only be called by the current owner. NOTE: Renouncing ownership will leave the contract without an owner, thereby removing any functionality that is only available to the owner."
      },
      "setAuthority(address)": {
        "params": {
          "authority_": "address of manager This function is onwer only"
        }
      },
      "setConfig(string,uint256)": {
        "params": {
          "config_": "config's value This function is config only",
          "name_": "name of config"
        }
      },
      "transferOwnership(address)": {
        "details": "Transfers ownership of the contract to a new account (`newOwner`). Can only be called by the current owner."
      }
    },
    "title": "Fighter Z Token Card Shop",
    "version": 1
  },
  "userdoc": {
    "kind": "user",
    "methods": {
      "setAuthority(address)": {
        "notice": "Set new manager"
      },
      "setConfig(string,uint256)": {
        "notice": "Set config of global or contract"
      }
    },
    "version": 1
  }
}