{
  "contractName": "CardReward",
  "abi": [
    {
      "inputs": [
        {
          "internalType": "address",
          "name": "auth_",
          "type": "address"
        }
      ],
      "stateMutability": "nonpayable",
      "type": "constructor"
    },
    {
      "anonymous": false,
      "inputs": [
        {
          "indexed": false,
          "internalType": "uint16",
          "name": "rate",
          "type": "uint16"
        },
        {
          "indexed": false,
          "internalType": "uint256",
          "name": "reward",
          "type": "uint256"
        },
        {
          "indexed": false,
          "internalType": "uint256",
          "name": "surpls",
          "type": "uint256"
        }
      ],
      "name": "DoExchange",
      "type": "event"
    },
    {
      "anonymous": false,
      "inputs": [
        {
          "indexed": true,
          "internalType": "address",
          "name": "previousOwner",
          "type": "address"
        },
        {
          "indexed": true,
          "internalType": "address",
          "name": "newOwner",
          "type": "address"
        }
      ],
      "name": "OwnershipTransferred",
      "type": "event"
    },
    {
      "anonymous": false,
      "inputs": [
        {
          "indexed": false,
          "internalType": "uint256",
          "name": "reward",
          "type": "uint256"
        },
        {
          "indexed": false,
          "internalType": "uint256",
          "name": "surpls",
          "type": "uint256"
        }
      ],
      "name": "Redeemed",
      "type": "event"
    },
    {
      "inputs": [],
      "name": "authority",
      "outputs": [
        {
          "internalType": "contract Authority",
          "name": "",
          "type": "address"
        }
      ],
      "stateMutability": "view",
      "type": "function",
      "constant": true
    },
    {
      "inputs": [],
      "name": "owner",
      "outputs": [
        {
          "internalType": "address",
          "name": "",
          "type": "address"
        }
      ],
      "stateMutability": "view",
      "type": "function",
      "constant": true
    },
    {
      "inputs": [],
      "name": "renounceOwnership",
      "outputs": [],
      "stateMutability": "nonpayable",
      "type": "function"
    },
    {
      "inputs": [
        {
          "internalType": "address",
          "name": "authority_",
          "type": "address"
        }
      ],
      "name": "setAuthority",
      "outputs": [],
      "stateMutability": "nonpayable",
      "type": "function"
    },
    {
      "inputs": [
        {
          "internalType": "address",
          "name": "newOwner",
          "type": "address"
        }
      ],
      "name": "transferOwnership",
      "outputs": [],
      "stateMutability": "nonpayable",
      "type": "function"
    },
    {
      "inputs": [
        {
          "internalType": "uint112",
          "name": "tokenId_",
          "type": "uint112"
        }
      ],
      "name": "redeemed",
      "outputs": [],
      "stateMutability": "nonpayable",
      "type": "function"
    },
    {
      "inputs": [
        {
          "internalType": "uint8",
          "name": "quality_",
          "type": "uint8"
        }
      ],
      "name": "exchange",
      "outputs": [],
      "stateMutability": "nonpayable",
      "type": "function"
    }
  ],
  "bytecode": "0x60806040523480156200001157600080fd5b506040516200311e3803806200311e833981810160405281019062000037919062000150565b8060006200004a6200013160201b60201c565b9050806000806101000a81548173ffffffffffffffffffffffffffffffffffffffff021916908373ffffffffffffffffffffffffffffffffffffffff1602179055508073ffffffffffffffffffffffffffffffffffffffff16600073ffffffffffffffffffffffffffffffffffffffff167f8be0079c531659141344cd1fd0a4f28419497f9722a3daafe3b4186f6b6457e060405160405180910390a35080600160006101000a81548173ffffffffffffffffffffffffffffffffffffffff021916908373ffffffffffffffffffffffffffffffffffffffff1602179055505050620001ca565b600033905090565b6000815190506200014a81620001b0565b92915050565b6000602082840312156200016357600080fd5b6000620001738482850162000139565b91505092915050565b6000620001898262000190565b9050919050565b600073ffffffffffffffffffffffffffffffffffffffff82169050919050565b620001bb816200017c565b8114620001c757600080fd5b50565b612f4480620001da6000396000f3fe608060405234801561001057600080fd5b506004361061007d5760003560e01c80638da5cb5b1161005b5780638da5cb5b146100c45780639d3543f0146100e2578063bf7e214f146100fe578063f2fde38b1461011c5761007d565b806315f42ce914610082578063715018a61461009e5780637a9e5e4b146100a8575b600080fd5b61009c60048036038101906100979190612286565b610138565b005b6100a661108b565b005b6100c260048036038101906100bd919061213e565b6111c5565b005b6100cc611285565b6040516100d99190612787565b60405180910390f35b6100fc60048036038101906100f79190612234565b6112ae565b005b610106611d2c565b60405161011391906128ce565b60405180910390f35b6101366004803603810190610131919061213e565b611d52565b005b6040518060400160405280600881526020017f45584348414e4745000000000000000000000000000000000000000000000000815250600160009054906101000a900473ffffffffffffffffffffffffffffffffffffffff1673ffffffffffffffffffffffffffffffffffffffff1663466f98e860006040518263ffffffff1660e01b81526004016101ca9190612809565b60206040518083038186803b1580156101e257600080fd5b505afa1580156101f6573d6000803e3d6000fd5b505050506040513d601f19601f8201168201806040525081019061021a9190612190565b15806102d15750600160009054906101000a900473ffffffffffffffffffffffffffffffffffffffff1673ffffffffffffffffffffffffffffffffffffffff1663466f98e86000836040518363ffffffff1660e01b815260040161027f9291906127d9565b60206040518083038186803b15801561029757600080fd5b505afa1580156102ab573d6000803e3d6000fd5b505050506040513d601f19601f820116820180604052508101906102cf9190612190565b155b806103845750600160009054906101000a900473ffffffffffffffffffffffffffffffffffffffff1673ffffffffffffffffffffffffffffffffffffffff1663466f98e8336040518263ffffffff1660e01b81526004016103329190612809565b60206040518083038186803b15801561034a57600080fd5b505afa15801561035e573d6000803e3d6000fd5b505050506040513d601f19601f820116820180604052508101906103829190612190565b155b806104395750600160009054906101000a900473ffffffffffffffffffffffffffffffffffffffff1673ffffffffffffffffffffffffffffffffffffffff1663466f98e833836040518363ffffffff1660e01b81526004016103e79291906127d9565b60206040518083038186803b1580156103ff57600080fd5b505afa158015610413573d6000803e3d6000fd5b505050506040513d601f19601f820116820180604052508101906104379190612190565b155b610478576040517f08c379a000000000000000000000000000000000000000000000000000000000815260040161046f90612a69565b60405180910390fd5b6000600160009054906101000a900473ffffffffffffffffffffffffffffffffffffffff1673ffffffffffffffffffffffffffffffffffffffff16636957a0b26040518163ffffffff1660e01b81526004016104d390612a49565b60206040518083038186803b1580156104eb57600080fd5b505afa1580156104ff573d6000803e3d6000fd5b505050506040513d601f19601f820116820180604052508101906105239190612167565b90506000808273ffffffffffffffffffffffffffffffffffffffff166370a08231336040518263ffffffff1660e01b81526004016105619190612787565b60206040518083038186803b15801561057957600080fd5b505afa15801561058d573d6000803e3d6000fd5b505050506040513d601f19601f820116820180604052508101906105b1919061225d565b905060008167ffffffffffffffff8111156105f5577f4e487b7100000000000000000000000000000000000000000000000000000000600052604160045260246000fd5b6040519080825280602002602001820160405280156106235781602001602082028036833780820191505090505b50905060005b828110156107ea5760008573ffffffffffffffffffffffffffffffffffffffff16633dbc1d7c33846040518363ffffffff1660e01b815260040161066e929190612837565b60206040518083038186803b15801561068657600080fd5b505afa15801561069a573d6000803e3d6000fd5b505050506040513d601f19601f820116820180604052508101906106be919061225d565b90506106c8611f2f565b73__NftLibrary____________________________6347d9b14d836040518263ffffffff1660e01b81526004016106ff9190612a89565b60806040518083038186803b15801561071757600080fd5b505af415801561072b573d6000803e3d6000fd5b505050506040513d601f19601f8201168201806040525081019061074f91906121b9565b90508860ff16816000015160ff16146107695750506107d7565b6001866107769190612bb0565b9550818484815181106107b2577f4e487b7100000000000000000000000000000000000000000000000000000000600052603260045260246000fd5b602002602001019067ffffffffffffffff16908167ffffffffffffffff168152505050505b80806107e290612d9d565b915050610629565b5060008473ffffffffffffffffffffffffffffffffffffffff1663d9465f4a886040518263ffffffff1660e01b81526004016108269190612b1f565b60606040518083038186803b15801561083e57600080fd5b505afa158015610852573d6000803e3d6000fd5b505050506040513d601f19601f8201168201806040525081019061087691906121e2565b90506000816000015160ff161180156108965750806000015160ff168410155b6108d5576040517f08c379a00000000000000000000000000000000000000000000000000000000081526004016108cc90612969565b60405180910390fd5b60008573ffffffffffffffffffffffffffffffffffffffff1663604e3706336040518263ffffffff1660e01b81526004016109109190612787565b60606040518083038186803b15801561092857600080fd5b505afa15801561093c573d6000803e3d6000fd5b505050506040513d601f19601f82011682018060405250810190610960919061220b565b90508060400151826000015160ff168661097a9190612c06565b108061098a575060008160400151145b6109c9576040517f08c379a00000000000000000000000000000000000000000000000000000000081526004016109c090612a09565b60405180910390fd5b6000600160009054906101000a900473ffffffffffffffffffffffffffffffffffffffff1673ffffffffffffffffffffffffffffffffffffffff16636957a0b26040518163ffffffff1660e01b8152600401610a2490612949565b60206040518083038186803b158015610a3c57600080fd5b505afa158015610a50573d6000803e3d6000fd5b505050506040513d601f19601f82011682018060405250810190610a749190612167565b90506000600160009054906101000a900473ffffffffffffffffffffffffffffffffffffffff1673ffffffffffffffffffffffffffffffffffffffff16636957a0b26040518163ffffffff1660e01b8152600401610ad190612989565b60206040518083038186803b158015610ae957600080fd5b505afa158015610afd573d6000803e3d6000fd5b505050506040513d601f19601f82011682018060405250810190610b219190612167565b905060008173ffffffffffffffffffffffffffffffffffffffff166370a08231846040518263ffffffff1660e01b8152600401610b5e9190612787565b60206040518083038186803b158015610b7657600080fd5b505afa158015610b8a573d6000803e3d6000fd5b505050506040513d601f19601f82011682018060405250810190610bae919061225d565b90506000610be06064610bd2886020015161ffff1685611efb90919063ffffffff16565b611f1190919063ffffffff16565b905060008373ffffffffffffffffffffffffffffffffffffffff166323b872dd8633856040518463ffffffff1660e01b8152600401610c21939291906127a2565b602060405180830381600087803b158015610c3b57600080fd5b505af1158015610c4f573d6000803e3d6000fd5b505050506040513d601f19601f82011682018060405250810190610c739190612190565b905080610cb5576040517f08c379a0000000000000000000000000000000000000000000000000000000008152600401610cac906128e9565b60405180910390fd5b8a73ffffffffffffffffffffffffffffffffffffffff1663aa10ce22336040518263ffffffff1660e01b8152600401610cee9190612787565b600060405180830381600087803b158015610d0857600080fd5b505af1158015610d1c573d6000803e3d6000fd5b5050505060008d90506000600160009054906101000a900473ffffffffffffffffffffffffffffffffffffffff1673ffffffffffffffffffffffffffffffffffffffff16636957a0b26040518163ffffffff1660e01b8152600401610d80906129e9565b60206040518083038186803b158015610d9857600080fd5b505afa158015610dac573d6000803e3d6000fd5b505050506040513d601f19601f82011682018060405250810190610dd09190612167565b905060005b8b811015610fb25760008b8281518110610e18577f4e487b7100000000000000000000000000000000000000000000000000000000600052603260045260246000fd5b602002602001015167ffffffffffffffff1611610e3457610f9f565b8d73ffffffffffffffffffffffffffffffffffffffff1663ff7d0ec533858e8581518110610e8b577f4e487b7100000000000000000000000000000000000000000000000000000000600052603260045260246000fd5b60200260200101516040518463ffffffff1660e01b8152600401610eb193929190612897565b600060405180830381600087803b158015610ecb57600080fd5b505af1158015610edf573d6000803e3d6000fd5b505050508173ffffffffffffffffffffffffffffffffffffffff16632c74ee4f84602f8e8581518110610f3b577f4e487b7100000000000000000000000000000000000000000000000000000000600052603260045260246000fd5b602002602001015167ffffffffffffffff16901c6040518363ffffffff1660e01b8152600401610f6c929190612b3a565b600060405180830381600087803b158015610f8657600080fd5b505af1158015610f9a573d6000803e3d6000fd5b505050505b8080610faa90612d9d565b915050610dd5565b507f608df846e407cc9ba823f6935a74fbeeeba9387d9dc7a1d0531f837189a416b98960200151858873ffffffffffffffffffffffffffffffffffffffff166370a082318b6040518263ffffffff1660e01b81526004016110139190612787565b60206040518083038186803b15801561102b57600080fd5b505afa15801561103f573d6000803e3d6000fd5b505050506040513d601f19601f82011682018060405250810190611063919061225d565b60405161107293929190612abf565b60405180910390a1505050505050505050505050505050565b611093611f27565b73ffffffffffffffffffffffffffffffffffffffff166110b1611285565b73ffffffffffffffffffffffffffffffffffffffff1614611107576040517f08c379a00000000000000000000000000000000000000000000000000000000081526004016110fe906129a9565b60405180910390fd5b600073ffffffffffffffffffffffffffffffffffffffff1660008054906101000a900473ffffffffffffffffffffffffffffffffffffffff1673ffffffffffffffffffffffffffffffffffffffff167f8be0079c531659141344cd1fd0a4f28419497f9722a3daafe3b4186f6b6457e060405160405180910390a360008060006101000a81548173ffffffffffffffffffffffffffffffffffffffff021916908373ffffffffffffffffffffffffffffffffffffffff160217905550565b6111cd611f27565b73ffffffffffffffffffffffffffffffffffffffff166111eb611285565b73ffffffffffffffffffffffffffffffffffffffff1614611241576040517f08c379a0000000000000000000000000000000000000000000000000000000008152600401611238906129a9565b60405180910390fd5b80600160006101000a81548173ffffffffffffffffffffffffffffffffffffffff021916908373ffffffffffffffffffffffffffffffffffffffff16021790555050565b60008060009054906101000a900473ffffffffffffffffffffffffffffffffffffffff16905090565b6040518060400160405280600881526020017f52454445454d4544000000000000000000000000000000000000000000000000815250600160009054906101000a900473ffffffffffffffffffffffffffffffffffffffff1673ffffffffffffffffffffffffffffffffffffffff1663466f98e860006040518263ffffffff1660e01b81526004016113409190612809565b60206040518083038186803b15801561135857600080fd5b505afa15801561136c573d6000803e3d6000fd5b505050506040513d601f19601f820116820180604052508101906113909190612190565b15806114475750600160009054906101000a900473ffffffffffffffffffffffffffffffffffffffff1673ffffffffffffffffffffffffffffffffffffffff1663466f98e86000836040518363ffffffff1660e01b81526004016113f59291906127d9565b60206040518083038186803b15801561140d57600080fd5b505afa158015611421573d6000803e3d6000fd5b505050506040513d601f19601f820116820180604052508101906114459190612190565b155b806114fa5750600160009054906101000a900473ffffffffffffffffffffffffffffffffffffffff1673ffffffffffffffffffffffffffffffffffffffff1663466f98e8336040518263ffffffff1660e01b81526004016114a89190612809565b60206040518083038186803b1580156114c057600080fd5b505afa1580156114d4573d6000803e3d6000fd5b505050506040513d601f19601f820116820180604052508101906114f89190612190565b155b806115af5750600160009054906101000a900473ffffffffffffffffffffffffffffffffffffffff1673ffffffffffffffffffffffffffffffffffffffff1663466f98e833836040518363ffffffff1660e01b815260040161155d9291906127d9565b60206040518083038186803b15801561157557600080fd5b505afa158015611589573d6000803e3d6000fd5b505050506040513d601f19601f820116820180604052508101906115ad9190612190565b155b6115ee576040517f08c379a00000000000000000000000000000000000000000000000000000000081526004016115e590612a69565b60405180910390fd5b6000600160009054906101000a900473ffffffffffffffffffffffffffffffffffffffff1673ffffffffffffffffffffffffffffffffffffffff16636957a0b26040518163ffffffff1660e01b815260040161164990612a49565b60206040518083038186803b15801561166157600080fd5b505afa158015611675573d6000803e3d6000fd5b505050506040513d601f19601f820116820180604052508101906116999190612167565b90508073ffffffffffffffffffffffffffffffffffffffff16636352211e846040518263ffffffff1660e01b81526004016116d49190612aa4565b60206040518083038186803b1580156116ec57600080fd5b505afa158015611700573d6000803e3d6000fd5b505050506040513d601f19601f820116820180604052508101906117249190612167565b73ffffffffffffffffffffffffffffffffffffffff163373ffffffffffffffffffffffffffffffffffffffff1614611791576040517f08c379a0000000000000000000000000000000000000000000000000000000008152600401611788906129c9565b60405180910390fd5b6000600160009054906101000a900473ffffffffffffffffffffffffffffffffffffffff1673ffffffffffffffffffffffffffffffffffffffff16636957a0b26040518163ffffffff1660e01b81526004016117ec90612949565b60206040518083038186803b15801561180457600080fd5b505afa158015611818573d6000803e3d6000fd5b505050506040513d601f19601f8201168201806040525081019061183c9190612167565b90506000600160009054906101000a900473ffffffffffffffffffffffffffffffffffffffff1673ffffffffffffffffffffffffffffffffffffffff16636957a0b26040518163ffffffff1660e01b815260040161189990612989565b60206040518083038186803b1580156118b157600080fd5b505afa1580156118c5573d6000803e3d6000fd5b505050506040513d601f19601f820116820180604052508101906118e99190612167565b90506118f3611f2f565b73__NftLibrary____________________________6347d9b14d876040518263ffffffff1660e01b815260040161192a9190612a89565b60806040518083038186803b15801561194257600080fd5b505af4158015611956573d6000803e3d6000fd5b505050506040513d601f19601f8201168201806040525081019061197a91906121b9565b90506000816060015190506119b360646119a5846040015161ffff1684611efb90919063ffffffff16565b611f1190919063ffffffff16565b9050600081116119f8576040517f08c379a00000000000000000000000000000000000000000000000000000000081526004016119ef90612a29565b60405180910390fd5b60008373ffffffffffffffffffffffffffffffffffffffff166323b872dd8633856040518463ffffffff1660e01b8152600401611a37939291906127a2565b602060405180830381600087803b158015611a5157600080fd5b505af1158015611a65573d6000803e3d6000fd5b505050506040513d601f19601f82011682018060405250810190611a899190612190565b905080611acb576040517f08c379a0000000000000000000000000000000000000000000000000000000008152600401611ac290612929565b60405180910390fd5b6000600160009054906101000a900473ffffffffffffffffffffffffffffffffffffffff1673ffffffffffffffffffffffffffffffffffffffff16636957a0b26040518163ffffffff1660e01b8152600401611b26906129e9565b60206040518083038186803b158015611b3e57600080fd5b505afa158015611b52573d6000803e3d6000fd5b505050506040513d601f19601f82011682018060405250810190611b769190612167565b90508073ffffffffffffffffffffffffffffffffffffffff16632c74ee4f856000015186602001516040518363ffffffff1660e01b8152600401611bbb929190612b3a565b600060405180830381600087803b158015611bd557600080fd5b505af1158015611be9573d6000803e3d6000fd5b505050508673ffffffffffffffffffffffffffffffffffffffff1663ff7d0ec53386600001518c6040518463ffffffff1660e01b8152600401611c2e93929190612860565b600060405180830381600087803b158015611c4857600080fd5b505af1158015611c5c573d6000803e3d6000fd5b505050507f6f73b7b8d37df32ea60a45eadc8fc3d2d716d705ee099bd506817482ce847316838673ffffffffffffffffffffffffffffffffffffffff166370a08231896040518263ffffffff1660e01b8152600401611cbb9190612787565b60206040518083038186803b158015611cd357600080fd5b505afa158015611ce7573d6000803e3d6000fd5b505050506040513d601f19601f82011682018060405250810190611d0b919061225d565b604051611d19929190612af6565b60405180910390a1505050505050505050565b600160009054906101000a900473ffffffffffffffffffffffffffffffffffffffff1681565b611d5a611f27565b73ffffffffffffffffffffffffffffffffffffffff16611d78611285565b73ffffffffffffffffffffffffffffffffffffffff1614611dce576040517f08c379a0000000000000000000000000000000000000000000000000000000008152600401611dc5906129a9565b60405180910390fd5b600073ffffffffffffffffffffffffffffffffffffffff168173ffffffffffffffffffffffffffffffffffffffff161415611e3e576040517f08c379a0000000000000000000000000000000000000000000000000000000008152600401611e3590612909565b60405180910390fd5b8073ffffffffffffffffffffffffffffffffffffffff1660008054906101000a900473ffffffffffffffffffffffffffffffffffffffff1673ffffffffffffffffffffffffffffffffffffffff167f8be0079c531659141344cd1fd0a4f28419497f9722a3daafe3b4186f6b6457e060405160405180910390a3806000806101000a81548173ffffffffffffffffffffffffffffffffffffffff021916908373ffffffffffffffffffffffffffffffffffffffff16021790555050565b60008183611f099190612c37565b905092915050565b60008183611f1f9190612c06565b905092915050565b600033905090565b6040518060800160405280600060ff168152602001600061ffff168152602001600061ffff168152602001600081525090565b600081359050611f7181612e84565b92915050565b600081519050611f8681612e84565b92915050565b600081519050611f9b81612e9b565b92915050565b600060808284031215611fb357600080fd5b611fbd6080612b63565b90506000611fcd84828501612129565b6000830152506020611fe1848285016120ea565b6020830152506040611ff5848285016120ea565b6040830152506060612009848285016120ff565b60608301525092915050565b60006060828403121561202757600080fd5b6120316060612b63565b9050600061204184828501612129565b6000830152506020612055848285016120ea565b602083015250604061206984828501612129565b60408301525092915050565b60006060828403121561208757600080fd5b6120916060612b63565b905060006120a1848285016120ff565b60008301525060206120b5848285016120ff565b60208301525060406120c9848285016120ff565b60408301525092915050565b6000813590506120e481612eb2565b92915050565b6000815190506120f981612ec9565b92915050565b60008151905061210e81612ee0565b92915050565b60008135905061212381612ef7565b92915050565b60008151905061213881612ef7565b92915050565b60006020828403121561215057600080fd5b600061215e84828501611f62565b91505092915050565b60006020828403121561217957600080fd5b600061218784828501611f77565b91505092915050565b6000602082840312156121a257600080fd5b60006121b084828501611f8c565b91505092915050565b6000608082840312156121cb57600080fd5b60006121d984828501611fa1565b91505092915050565b6000606082840312156121f457600080fd5b600061220284828501612015565b91505092915050565b60006060828403121561221d57600080fd5b600061222b84828501612075565b91505092915050565b60006020828403121561224657600080fd5b6000612254848285016120d5565b91505092915050565b60006020828403121561226f57600080fd5b600061227d848285016120ff565b91505092915050565b60006020828403121561229857600080fd5b60006122a684828501612114565b91505092915050565b6122b881612c91565b82525050565b6122c781612d22565b82525050565b60006122d882612b94565b6122e28185612b9f565b93506122f2818560208601612d6a565b6122fb81612e73565b840191505092915050565b6000612313602083612b9f565b91507f45584348414e47453a20526577617264207472616e73666572206669616c642e6000830152602082019050919050565b6000612353602683612b9f565b91507f4f776e61626c653a206e6577206f776e657220697320746865207a65726f206160008301527f64647265737300000000000000000000000000000000000000000000000000006020830152604082019050919050565b60006123b9601f83612b9f565b91507f464947485445523a20526577617264207472616e73666572206669616c642e006000830152602082019050919050565b60006123f9600583612b9f565b91507f464f554e440000000000000000000000000000000000000000000000000000006000830152602082019050919050565b6000612439602683612b9f565b91507f45584348414e47453a20496e73756666696369656e74206e756d626572206f6660008301527f204e4654732e00000000000000000000000000000000000000000000000000006020830152604082019050919050565b600061249f600583612b9f565b91507f544f4b454e0000000000000000000000000000000000000000000000000000006000830152602082019050919050565b60006124df602083612b9f565b91507f4f776e61626c653a2063616c6c6572206973206e6f7420746865206f776e65726000830152602082019050919050565b600061251f601583612b9f565b91507f45584348414e47453a204f6e6c79206f6e7765722e00000000000000000000006000830152602082019050919050565b600061255f600883612b9f565b91507f4341524453484f500000000000000000000000000000000000000000000000006000830152602082019050919050565b600061259f600383612b9f565b91507f414c4c00000000000000000000000000000000000000000000000000000000006000830152602082019050919050565b60006125df602583612b9f565b91507f45584348414e47453a2048617665206e6f2072657761726420746f206578636860008301527f616e67652e0000000000000000000000000000000000000000000000000000006020830152604082019050919050565b6000612645601883612b9f565b91507f464947485445523a20526577617264206973207a65726f2e00000000000000006000830152602082019050919050565b6000612685600783612b9f565b91507f46494748544552000000000000000000000000000000000000000000000000006000830152602082019050919050565b60006126c5602483612b9f565b91507f4d656d6265723a20546865206f7065726174696f6e206973206e6f7420616c6c60008301527f6f776564000000000000000000000000000000000000000000000000000000006020830152604082019050919050565b61272781612caf565b82525050565b61273681612caf565b82525050565b61274581612d46565b82525050565b61275481612cc9565b82525050565b61276381612cf7565b82525050565b61277281612d58565b82525050565b61278181612d15565b82525050565b600060208201905061279c60008301846122af565b92915050565b60006060820190506127b760008301866122af565b6127c460208301856122af565b6127d1604083018461275a565b949350505050565b60006040820190506127ee60008301856122af565b818103602083015261280081846122cd565b90509392505050565b600060408201905061281e60008301846122af565b818103602083015261282f81612592565b905092915050565b600060408201905061284c60008301856122af565b612859602083018461275a565b9392505050565b600060608201905061287560008301866122af565b6128826020830185612778565b61288f604083018461271e565b949350505050565b60006060820190506128ac60008301866122af565b6128b96020830185612778565b6128c66040830184612769565b949350505050565b60006020820190506128e360008301846122be565b92915050565b6000602082019050818103600083015261290281612306565b9050919050565b6000602082019050818103600083015261292281612346565b9050919050565b60006020820190508181036000830152612942816123ac565b9050919050565b60006020820190508181036000830152612962816123ec565b9050919050565b600060208201905081810360008301526129828161242c565b9050919050565b600060208201905081810360008301526129a281612492565b9050919050565b600060208201905081810360008301526129c2816124d2565b9050919050565b600060208201905081810360008301526129e281612512565b9050919050565b60006020820190508181036000830152612a0281612552565b9050919050565b60006020820190508181036000830152612a22816125d2565b9050919050565b60006020820190508181036000830152612a4281612638565b9050919050565b60006020820190508181036000830152612a6281612678565b9050919050565b60006020820190508181036000830152612a82816126b8565b9050919050565b6000602082019050612a9e600083018461272d565b92915050565b6000602082019050612ab9600083018461273c565b92915050565b6000606082019050612ad4600083018661274b565b612ae1602083018561275a565b612aee604083018461275a565b949350505050565b6000604082019050612b0b600083018561275a565b612b18602083018461275a565b9392505050565b6000602082019050612b346000830184612778565b92915050565b6000604082019050612b4f6000830185612778565b612b5c602083018461274b565b9392505050565b6000604051905081810181811067ffffffffffffffff82111715612b8a57612b89612e44565b5b8060405250919050565b600081519050919050565b600082825260208201905092915050565b6000612bbb82612cf7565b9150612bc683612cf7565b9250827fffffffffffffffffffffffffffffffffffffffffffffffffffffffffffffffff03821115612bfb57612bfa612de6565b5b828201905092915050565b6000612c1182612cf7565b9150612c1c83612cf7565b925082612c2c57612c2b612e15565b5b828204905092915050565b6000612c4282612cf7565b9150612c4d83612cf7565b9250817fffffffffffffffffffffffffffffffffffffffffffffffffffffffffffffffff0483118215151615612c8657612c85612de6565b5b828202905092915050565b6000612c9c82612cd7565b9050919050565b60008115159050919050565b60006dffffffffffffffffffffffffffff82169050919050565b600061ffff82169050919050565b600073ffffffffffffffffffffffffffffffffffffffff82169050919050565b6000819050919050565b600067ffffffffffffffff82169050919050565b600060ff82169050919050565b6000612d2d82612d34565b9050919050565b6000612d3f82612cd7565b9050919050565b6000612d5182612caf565b9050919050565b6000612d6382612d01565b9050919050565b60005b83811015612d88578082015181840152602081019050612d6d565b83811115612d97576000848401525b50505050565b6000612da882612cf7565b91507fffffffffffffffffffffffffffffffffffffffffffffffffffffffffffffffff821415612ddb57612dda612de6565b5b600182019050919050565b7f4e487b7100000000000000000000000000000000000000000000000000000000600052601160045260246000fd5b7f4e487b7100000000000000000000000000000000000000000000000000000000600052601260045260246000fd5b7f4e487b7100000000000000000000000000000000000000000000000000000000600052604160045260246000fd5b6000601f19601f8301169050919050565b612e8d81612c91565b8114612e9857600080fd5b50565b612ea481612ca3565b8114612eaf57600080fd5b50565b612ebb81612caf565b8114612ec657600080fd5b50565b612ed281612cc9565b8114612edd57600080fd5b50565b612ee981612cf7565b8114612ef457600080fd5b50565b612f0081612d15565b8114612f0b57600080fd5b5056fea2646970667358221220062e04364b5d1a37ccc5fa456cf638d8ed412dc687a3a49f058a2b08e025e9d164736f6c63430008000033",
  "immutableReferences": {},
  "source": "// SPDX-License-Identifier: SimPL-2.0\n\npragma solidity ^0.8.0;\n\nimport \"../token/Fighter.sol\";\nimport \"../core/CardShop.sol\";\nimport \"../authority/Member.sol\";\n\nimport \"@openzeppelin/contracts/token/ERC20/IERC20.sol\";\nimport \"@openzeppelin/contracts/token/ERC721/IERC721.sol\";\nimport \"@openzeppelin/contracts/utils/math/SafeMath.sol\";\n\n/**\n * @title Fighter Z Token Card Shop\n *\n * @author Bit Lighthouse. Ace\n * AT: 2021-3-28 | VERSION: v1.0.2\n */\n\ncontract CardReward is Member {\n    using SafeMath for uint256;\n\n    event Redeemed(uint256 reward, uint256 surpls);\n    event DoExchange(uint16 rate, uint256 reward, uint256 surpls);\n\n    constructor(address auth_) Member(auth_) { }\n\n    function redeemed(uint112 tokenId_) public CheckStatus(\"REDEEMED\") {\n        Fighter figh = Fighter(authority.members(\"FIGHTER\"));\n\n        require(\n            msg.sender == figh.ownerOf(tokenId_),\n            \"EXCHANGE: Only onwer.\"\n        );\n\n        address sender = authority.members(\"FOUND\");\n        IERC20 token = IERC20(authority.members(\"TOKEN\"));\n\n        NftLibrary.DetailStruct memory cs;\n        cs = NftLibrary.analysis(tokenId_);\n\n        uint256 reward = uint256(cs.amount);\n        reward = reward.mul(uint256(cs.rate)).div(100);\n        require(reward > 0, \"FIGHTER: Reward is zero.\");\n        bool success = token.transferFrom(sender, msg.sender, reward);\n        require(success, \"FIGHTER: Reward transfer fiald.\");\n\n        address shop = authority.members(\"CARDSHOP\");\n        CardShop(shop).fresh(cs.quality, cs.heroId);\n        figh.burn(msg.sender, cs.quality, tokenId_);\n        \n        emit Redeemed(reward, token.balanceOf(sender));\n    }\n\n    function exchange(uint8 quality_) public CheckStatus(\"EXCHANGE\") {\n        Fighter figh = Fighter(authority.members(\"FIGHTER\"));\n        uint256 total = 0;\n        \n        uint256 length = figh.balanceOf(msg.sender);\n        uint64[] memory tokens = new uint64[](length);\n\n        for (uint256 i = 0; i < length; i++) {\n            uint256 tokenId = figh.getUserToken(msg.sender, i);\n            NftLibrary.DetailStruct memory cs;\n            cs = NftLibrary.analysis(uint112(tokenId));\n\n            if (cs.quality != quality_) continue;\n\n            total = total + 1;\n            tokens[i] = uint64(tokenId);\n        }\n\n        Fighter.RateStruct memory rs = figh.getRateStruct(quality_);\n        require(\n            rs.number > 0 && total >= rs.number,\n            \"EXCHANGE: Insufficient number of NFTs.\"\n        );\n\n        Fighter.UserStruct memory us = figh.getUserStruct(msg.sender);\n        require(\n            total / rs.number < us.exchange || us.exchange == 0,\n            \"EXCHANGE: Have no reward to exchange.\"\n        );\n\n        address sender = authority.members(\"FOUND\");\n        IERC20 token = IERC20(authority.members(\"TOKEN\"));\n\n        uint256 balance = token.balanceOf(sender);\n        uint256 reward = balance.mul(rs.rate).div(100);\n\n        bool success = token.transferFrom(sender, msg.sender, reward);\n        require(success, \"EXCHANGE: Reward transfer fiald.\");\n        figh.addExchange(msg.sender); uint8 quality = quality_;\n\n        CardShop shop = CardShop(authority.members(\"CARDSHOP\"));\n        \n        for (uint256 i = 0; i < length; i++) {\n            if (tokens[i] <= 0) continue;\n\n            figh.burn(msg.sender, quality, tokens[i]);\n            shop.fresh(quality, uint16(tokens[i] >> 47));\n        }\n\n        emit DoExchange(rs.rate, reward, token.balanceOf(sender));\n    }\n}",
  "sourcePath": "/home/ace/Projects/eth/other/dragon-ball-project/dragon-ball-contract/contracts/core/CardReward.sol",
  "compiler": {
    "name": "solc",
    "version": "0.8.0+commit.c7dfd78e.Emscripten.clang"
  },
  "schemaVersion": "3.4.3",
  "updatedAt": "2021-08-26T17:36:01.788Z",
  "networkType": "ethereum",
  "devdoc": {
    "author": "Bit Lighthouse. Ace AT: 2021-3-28 | VERSION: v1.0.2",
    "kind": "dev",
    "methods": {
      "owner()": {
        "details": "Returns the address of the current owner."
      },
      "renounceOwnership()": {
        "details": "Leaves the contract without owner. It will not be possible to call `onlyOwner` functions anymore. Can only be called by the current owner. NOTE: Renouncing ownership will leave the contract without an owner, thereby removing any functionality that is only available to the owner."
      },
      "setAuthority(address)": {
        "params": {
          "authority_": "address of manager This function is onwer only"
        }
      },
      "transferOwnership(address)": {
        "details": "Transfers ownership of the contract to a new account (`newOwner`). Can only be called by the current owner."
      }
    },
    "title": "Fighter Z Token Card Shop",
    "version": 1
  },
  "userdoc": {
    "kind": "user",
    "methods": {
      "setAuthority(address)": {
        "notice": "Set new manager"
      }
    },
    "version": 1
  }
}