{
  "contractName": "CardShop",
  "abi": [
    {
      "inputs": [
        {
          "internalType": "address",
          "name": "auth_",
          "type": "address"
        }
      ],
      "stateMutability": "nonpayable",
      "type": "constructor"
    },
    {
      "anonymous": false,
      "inputs": [
        {
          "indexed": false,
          "internalType": "uint8",
          "name": "quality",
          "type": "uint8"
        },
        {
          "indexed": false,
          "internalType": "uint16",
          "name": "heroId",
          "type": "uint16"
        },
        {
          "indexed": false,
          "internalType": "uint256",
          "name": "tokenId",
          "type": "uint256"
        },
        {
          "indexed": false,
          "internalType": "uint16",
          "name": "rate",
          "type": "uint16"
        }
      ],
      "name": "Buy",
      "type": "event"
    },
    {
      "anonymous": false,
      "inputs": [
        {
          "indexed": true,
          "internalType": "address",
          "name": "previousOwner",
          "type": "address"
        },
        {
          "indexed": true,
          "internalType": "address",
          "name": "newOwner",
          "type": "address"
        }
      ],
      "name": "OwnershipTransferred",
      "type": "event"
    },
    {
      "inputs": [],
      "name": "authority",
      "outputs": [
        {
          "internalType": "contract Authority",
          "name": "",
          "type": "address"
        }
      ],
      "stateMutability": "view",
      "type": "function",
      "constant": true
    },
    {
      "inputs": [
        {
          "internalType": "string",
          "name": "",
          "type": "string"
        }
      ],
      "name": "configs",
      "outputs": [
        {
          "internalType": "uint256",
          "name": "",
          "type": "uint256"
        }
      ],
      "stateMutability": "view",
      "type": "function",
      "constant": true
    },
    {
      "inputs": [],
      "name": "owner",
      "outputs": [
        {
          "internalType": "address",
          "name": "",
          "type": "address"
        }
      ],
      "stateMutability": "view",
      "type": "function",
      "constant": true
    },
    {
      "inputs": [],
      "name": "renounceOwnership",
      "outputs": [],
      "stateMutability": "nonpayable",
      "type": "function"
    },
    {
      "inputs": [
        {
          "internalType": "address",
          "name": "authority_",
          "type": "address"
        }
      ],
      "name": "setAuthority",
      "outputs": [],
      "stateMutability": "nonpayable",
      "type": "function"
    },
    {
      "inputs": [
        {
          "internalType": "string",
          "name": "name_",
          "type": "string"
        },
        {
          "internalType": "uint256",
          "name": "config_",
          "type": "uint256"
        }
      ],
      "name": "setConfig",
      "outputs": [],
      "stateMutability": "nonpayable",
      "type": "function"
    },
    {
      "inputs": [
        {
          "internalType": "address",
          "name": "newOwner",
          "type": "address"
        }
      ],
      "name": "transferOwnership",
      "outputs": [],
      "stateMutability": "nonpayable",
      "type": "function"
    },
    {
      "inputs": [
        {
          "internalType": "uint8",
          "name": "quality_",
          "type": "uint8"
        },
        {
          "internalType": "uint16",
          "name": "role_",
          "type": "uint16"
        }
      ],
      "name": "fresh",
      "outputs": [],
      "stateMutability": "nonpayable",
      "type": "function"
    },
    {
      "inputs": [
        {
          "internalType": "uint8",
          "name": "quality_",
          "type": "uint8"
        },
        {
          "internalType": "uint16",
          "name": "start_",
          "type": "uint16"
        },
        {
          "internalType": "uint16",
          "name": "plus_",
          "type": "uint16"
        }
      ],
      "name": "setCardRate",
      "outputs": [],
      "stateMutability": "nonpayable",
      "type": "function"
    },
    {
      "inputs": [
        {
          "internalType": "uint8",
          "name": "quality_",
          "type": "uint8"
        },
        {
          "internalType": "uint256",
          "name": "index_",
          "type": "uint256"
        },
        {
          "internalType": "uint32",
          "name": "numbers_",
          "type": "uint32"
        }
      ],
      "name": "setCardNumber",
      "outputs": [],
      "stateMutability": "nonpayable",
      "type": "function"
    },
    {
      "inputs": [
        {
          "internalType": "string",
          "name": "symbol_",
          "type": "string"
        }
      ],
      "name": "buy",
      "outputs": [],
      "stateMutability": "nonpayable",
      "type": "function"
    }
  ],
  "bytecode": "0x60806040523480156200001157600080fd5b5060405162003ac438038062003ac4833981810160405281019062000037919062000840565b8060006200004a6200064c60201b60201c565b9050806000806101000a81548173ffffffffffffffffffffffffffffffffffffffff021916908373ffffffffffffffffffffffffffffffffffffffff1602179055508073ffffffffffffffffffffffffffffffffffffffff16600073ffffffffffffffffffffffffffffffffffffffff167f8be0079c531659141344cd1fd0a4f28419497f9722a3daafe3b4186f6b6457e060405160405180910390a35080600160006101000a81548173ffffffffffffffffffffffffffffffffffffffff021916908373ffffffffffffffffffffffffffffffffffffffff16021790555050600560026040516200013c9062000960565b9081526020016040518091039020819055506127106002604051620001619062000932565b908152602001604051809103902081905550683635c9adc5dea0000060026040516200018d9062000949565b9081526020016040518091039020819055506040518060600160405280610bb861ffff168152602001600061ffff168152602001620001d5600760016200065460201b60201c565b81525060036000600160ff16815260200190815260200160002060008201518160000160006101000a81548161ffff021916908361ffff16021790555060208201518160000160026101000a81548161ffff021916908361ffff16021790555060408201518160010190805190602001906200025392919062000753565b5090505060405180606001604052806107d061ffff168152602001600061ffff1681526020016200028c6005806200065460201b60201c565b81525060036000600260ff16815260200190815260200160002060008201518160000160006101000a81548161ffff021916908361ffff16021790555060208201518160000160026101000a81548161ffff021916908361ffff16021790555060408201518160010190805190602001906200030a92919062000753565b50905050604051806060016040528060c861ffff16815260200161032061ffff16815260200162000344601460326200065460201b60201c565b81525060036000600360ff16815260200190815260200160002060008201518160000160006101000a81548161ffff021916908361ffff16021790555060208201518160000160026101000a81548161ffff021916908361ffff1602179055506040820151816001019080519060200190620003c292919062000753565b509050506040518060600160405280605a61ffff16815260200161019a61ffff168152602001620003fc601460646200065460201b60201c565b81525060036000600460ff16815260200190815260200160002060008201518160000160006101000a81548161ffff021916908361ffff16021790555060208201518160000160026101000a81548161ffff021916908361ffff16021790555060408201518160010190805190602001906200047a92919062000753565b509050506040518060600160405280603261ffff168152602001609661ffff168152602001620004b4601461015c6200065460201b60201c565b81525060036000600560ff16815260200190815260200160002060008201518160000160006101000a81548161ffff021916908361ffff16021790555060208201518160000160026101000a81548161ffff021916908361ffff16021790555060408201518160010190805190602001906200053292919062000753565b50905050600860036000600560ff1681526020019081526020016000206001016013815481106200058c577f4e487b7100000000000000000000000000000000000000000000000000000000600052603260045260246000fd5b90600052602060002090600891828204019190066004029054906101000a900463ffffffff16620005be919062000982565b60036000600560ff16815260200190815260200160002060010160138154811062000612577f4e487b7100000000000000000000000000000000000000000000000000000000600052603260045260246000fd5b90600052602060002090600891828204019190066004026101000a81548163ffffffff021916908363ffffffff1602179055505062000a8c565b600033905090565b60608260ff1667ffffffffffffffff8111156200069a577f4e487b7100000000000000000000000000000000000000000000000000000000600052604160045260246000fd5b604051908082528060200260200182016040528015620006c95781602001602082028036833780820191505090505b50905060005b8360ff168160ff1610156200074c5782828260ff16815181106200071c577f4e487b7100000000000000000000000000000000000000000000000000000000600052603260045260246000fd5b602002602001019063ffffffff16908163ffffffff16815250508080620007439062000a14565b915050620006cf565b5092915050565b82805482825590600052602060002090600701600890048101928215620007f75791602002820160005b83821115620007c357835183826101000a81548163ffffffff021916908363ffffffff16021790555092602001926004016020816003010492830192600103026200077d565b8015620007f55782816101000a81549063ffffffff0219169055600401602081600301049283019260010302620007c3565b505b5090506200080691906200080a565b5090565b5b80821115620008255760008160009055506001016200080b565b5090565b6000815190506200083a8162000a72565b92915050565b6000602082840312156200085357600080fd5b6000620008638482850162000829565b91505092915050565b60006200087b60058362000977565b91507f544f54414c0000000000000000000000000000000000000000000000000000006000830152600582019050919050565b6000620008bd60048362000977565b91507f44425a46000000000000000000000000000000000000000000000000000000006000830152600482019050919050565b6000620008ff60078362000977565b91507f5155414c495459000000000000000000000000000000000000000000000000006000830152600782019050919050565b60006200093f826200086c565b9150819050919050565b60006200095682620008ae565b9150819050919050565b60006200096d82620008f0565b9150819050919050565b600081905092915050565b60006200098f82620009f7565b91506200099c83620009f7565b92508263ffffffff03821115620009b857620009b762000a43565b5b828201905092915050565b6000620009d082620009d7565b9050919050565b600073ffffffffffffffffffffffffffffffffffffffff82169050919050565b600063ffffffff82169050919050565b600060ff82169050919050565b600062000a218262000a07565b915060ff82141562000a385762000a3762000a43565b5b600182019050919050565b7f4e487b7100000000000000000000000000000000000000000000000000000000600052601160045260246000fd5b62000a7d81620009c3565b811462000a8957600080fd5b50565b6130288062000a9c6000396000f3fe608060405234801561001057600080fd5b50600436106100a95760003560e01c8063715018a611610071578063715018a61461014e5780637a9e5e4b146101585780638afb1a8e146101745780638da5cb5b14610190578063bf7e214f146101ae578063f2fde38b146101cc576100a9565b80631a0ff849146100ae5780632c74ee4f146100ca5780633e8f5b90146100e6578063492cc769146101025780635ef7fbad1461011e575b600080fd5b6100c860048036038101906100c391906122a0565b6101e8565b005b6100e460048036038101906100df9190612215565b610398565b005b61010060048036038101906100fb919061216f565b6105da565b005b61011c6004803603810190610117919061212e565b610724565b005b6101386004803603810190610133919061212e565b6112b8565b6040516101459190612afa565b60405180910390f35b6101566112e6565b005b610172600480360381019061016d91906120b3565b611420565b005b61018e60048036038101906101899190612251565b6114e0565b005b610198611676565b6040516101a5919061282f565b60405180910390f35b6101b661169f565b6040516101c39190612936565b60405180910390f35b6101e660048036038101906101e191906120b3565b6116c5565b005b6040518060400160405280600681526020017f434f4e4649470000000000000000000000000000000000000000000000000000815250600160009054906101000a900473ffffffffffffffffffffffffffffffffffffffff1673ffffffffffffffffffffffffffffffffffffffff1663f5e65c7233836040518363ffffffff1660e01b815260040161027b929190612881565b60206040518083038186803b15801561029357600080fd5b505afa1580156102a7573d6000803e3d6000fd5b505050506040513d601f19601f820116820180604052508101906102cb9190612105565b61030a576040517f08c379a000000000000000000000000000000000000000000000000000000000815260040161030190612aa4565b60405180910390fd5b81600360008660ff1660ff168152602001908152602001600020600101848154811061035f577f4e487b7100000000000000000000000000000000000000000000000000000000600052603260045260246000fd5b90600052602060002090600891828204019190066004026101000a81548163ffffffff021916908363ffffffff16021790555050505050565b6040518060400160405280600a81526020017f4341524452455741524400000000000000000000000000000000000000000000815250600160009054906101000a900473ffffffffffffffffffffffffffffffffffffffff1673ffffffffffffffffffffffffffffffffffffffff1663f5e65c7233836040518363ffffffff1660e01b815260040161042b929190612881565b60206040518083038186803b15801561044357600080fd5b505afa158015610457573d6000803e3d6000fd5b505050506040513d601f19601f8201168201806040525081019061047b9190612105565b6104ba576040517f08c379a00000000000000000000000000000000000000000000000000000000081526004016104b190612aa4565b60405180910390fd5b6000600360008560ff1660ff1681526020019081526020016000206001018361ffff1681548110610514577f4e487b7100000000000000000000000000000000000000000000000000000000600052603260045260246000fd5b90600052602060002090600891828204019190066004029054906101000a900463ffffffff1690506001816105499190612c70565b600360008660ff1660ff1681526020019081526020016000206001018461ffff16815481106105a1577f4e487b7100000000000000000000000000000000000000000000000000000000600052603260045260246000fd5b90600052602060002090600891828204019190066004026101000a81548163ffffffff021916908363ffffffff16021790555050505050565b6040518060400160405280600681526020017f434f4e4649470000000000000000000000000000000000000000000000000000815250600160009054906101000a900473ffffffffffffffffffffffffffffffffffffffff1673ffffffffffffffffffffffffffffffffffffffff1663f5e65c7233836040518363ffffffff1660e01b815260040161066d929190612881565b60206040518083038186803b15801561068557600080fd5b505afa158015610699573d6000803e3d6000fd5b505050506040513d601f19601f820116820180604052508101906106bd9190612105565b6106fc576040517f08c379a00000000000000000000000000000000000000000000000000000000081526004016106f390612aa4565b60405180910390fd5b8160028460405161070d91906127ee565b908152602001604051809103902081905550505050565b6040518060400160405280600381526020017f4255590000000000000000000000000000000000000000000000000000000000815250600160009054906101000a900473ffffffffffffffffffffffffffffffffffffffff1673ffffffffffffffffffffffffffffffffffffffff1663466f98e860006040518263ffffffff1660e01b81526004016107b691906128b1565b60206040518083038186803b1580156107ce57600080fd5b505afa1580156107e2573d6000803e3d6000fd5b505050506040513d601f19601f820116820180604052508101906108069190612105565b15806108bd5750600160009054906101000a900473ffffffffffffffffffffffffffffffffffffffff1673ffffffffffffffffffffffffffffffffffffffff1663466f98e86000836040518363ffffffff1660e01b815260040161086b929190612881565b60206040518083038186803b15801561088357600080fd5b505afa158015610897573d6000803e3d6000fd5b505050506040513d601f19601f820116820180604052508101906108bb9190612105565b155b806109705750600160009054906101000a900473ffffffffffffffffffffffffffffffffffffffff1673ffffffffffffffffffffffffffffffffffffffff1663466f98e8336040518263ffffffff1660e01b815260040161091e91906128b1565b60206040518083038186803b15801561093657600080fd5b505afa15801561094a573d6000803e3d6000fd5b505050506040513d601f19601f8201168201806040525081019061096e9190612105565b155b80610a255750600160009054906101000a900473ffffffffffffffffffffffffffffffffffffffff1673ffffffffffffffffffffffffffffffffffffffff1663466f98e833836040518363ffffffff1660e01b81526004016109d3929190612881565b60206040518083038186803b1580156109eb57600080fd5b505afa1580156109ff573d6000803e3d6000fd5b505050506040513d601f19601f82011682018060405250810190610a239190612105565b155b610a64576040517f08c379a0000000000000000000000000000000000000000000000000000000008152600401610a5b90612aa4565b60405180910390fd5b600160009054906101000a900473ffffffffffffffffffffffffffffffffffffffff1673ffffffffffffffffffffffffffffffffffffffff1663466f98e860006040518263ffffffff1660e01b8152600401610ac091906128df565b60206040518083038186803b158015610ad857600080fd5b505afa158015610aec573d6000803e3d6000fd5b505050506040513d601f19601f82011682018060405250810190610b109190612105565b15610b50576040517f08c379a0000000000000000000000000000000000000000000000000000000008152600401610b47906129c4565b60405180910390fd5b6000600160009054906101000a900473ffffffffffffffffffffffffffffffffffffffff1673ffffffffffffffffffffffffffffffffffffffff16636957a0b2846040518263ffffffff1660e01b8152600401610bad91906129a2565b60206040518083038186803b158015610bc557600080fd5b505afa158015610bd9573d6000803e3d6000fd5b505050506040513d601f19601f82011682018060405250810190610bfd91906120dc565b90506000600160009054906101000a900473ffffffffffffffffffffffffffffffffffffffff1673ffffffffffffffffffffffffffffffffffffffff16636957a0b26040518163ffffffff1660e01b8152600401610c5a90612a64565b60206040518083038186803b158015610c7257600080fd5b505afa158015610c86573d6000803e3d6000fd5b505050506040513d601f19601f82011682018060405250810190610caa91906120dc565b905060008273ffffffffffffffffffffffffffffffffffffffff166323b872dd3384600289604051610cdc91906127ee565b9081526020016040518091039020546040518463ffffffff1660e01b8152600401610d099392919061284a565b602060405180830381600087803b158015610d2357600080fd5b505af1158015610d37573d6000803e3d6000fd5b505050506040513d601f19601f82011682018060405250810190610d5b9190612105565b905080610d9d576040517f08c379a0000000000000000000000000000000000000000000000000000000008152600401610d9490612a24565b60405180910390fd5b610da5611f44565b600286604051610db591906127ee565b908152602001604051809103902054816060018181525050610dd561186e565b8160ff1691508360000184602001856040018361ffff1661ffff168152508361ffff1661ffff168152508360ff1660ff16815250505050610e1e81600001518260400151611d4f565b816040019061ffff16908161ffff1681525050600073__NftLibrary____________________________63ff1571d7836040518263ffffffff1660e01b8152600401610e6a9190612ac4565b60206040518083038186803b158015610e8257600080fd5b505af4158015610e96573d6000803e3d6000fd5b505050506040513d601f19601f82011682018060405250810190610eba91906121c3565b9050600060036000846000015160ff1660ff168152602001908152602001600020600101836020015161ffff1681548110610f1e577f4e487b7100000000000000000000000000000000000000000000000000000000600052603260045260246000fd5b90600052602060002090600891828204019190066004029054906101000a900463ffffffff16905060016002604051610f5690612805565b908152602001604051809103902054610f6f9190612d15565b6002604051610f7d90612805565b908152602001604051809103902081905550600181610f9c9190612d49565b60036000856000015160ff1660ff168152602001908152602001600020600101846020015161ffff1681548110610ffc577f4e487b7100000000000000000000000000000000000000000000000000000000600052603260045260246000fd5b90600052602060002090600891828204019190066004026101000a81548163ffffffff021916908363ffffffff1602179055506000600160009054906101000a900473ffffffffffffffffffffffffffffffffffffffff1673ffffffffffffffffffffffffffffffffffffffff16636957a0b26040518163ffffffff1660e01b815260040161108a90612a84565b60206040518083038186803b1580156110a257600080fd5b505afa1580156110b6573d6000803e3d6000fd5b505050506040513d601f19601f820116820180604052508101906110da91906120dc565b90508073ffffffffffffffffffffffffffffffffffffffff1663f9d526d333856040518363ffffffff1660e01b815260040161111792919061290d565b600060405180830381600087803b15801561113157600080fd5b505af1158015611145573d6000803e3d6000fd5b505050506000600160009054906101000a900473ffffffffffffffffffffffffffffffffffffffff1673ffffffffffffffffffffffffffffffffffffffff16636957a0b26040518163ffffffff1660e01b81526004016111a490612a44565b60206040518083038186803b1580156111bc57600080fd5b505afa1580156111d0573d6000803e3d6000fd5b505050506040513d601f19601f820116820180604052508101906111f491906120dc565b90508073ffffffffffffffffffffffffffffffffffffffff1663f9d526d333866040518363ffffffff1660e01b815260040161123192919061290d565b600060405180830381600087803b15801561124b57600080fd5b505af115801561125f573d6000803e3d6000fd5b505050507fe69ddaf88957040bdf59684a08f2de103a37fa00fe3d216f8fe2ec965a015523856000015186602001518688604001516040516112a49493929190612b15565b60405180910390a150505050505050505050565b6002818051602081018201805184825260208301602085012081835280955050505050506000915090505481565b6112ee611f3c565b73ffffffffffffffffffffffffffffffffffffffff1661130c611676565b73ffffffffffffffffffffffffffffffffffffffff1614611362576040517f08c379a000000000000000000000000000000000000000000000000000000000815260040161135990612a04565b60405180910390fd5b600073ffffffffffffffffffffffffffffffffffffffff1660008054906101000a900473ffffffffffffffffffffffffffffffffffffffff1673ffffffffffffffffffffffffffffffffffffffff167f8be0079c531659141344cd1fd0a4f28419497f9722a3daafe3b4186f6b6457e060405160405180910390a360008060006101000a81548173ffffffffffffffffffffffffffffffffffffffff021916908373ffffffffffffffffffffffffffffffffffffffff160217905550565b611428611f3c565b73ffffffffffffffffffffffffffffffffffffffff16611446611676565b73ffffffffffffffffffffffffffffffffffffffff161461149c576040517f08c379a000000000000000000000000000000000000000000000000000000000815260040161149390612a04565b60405180910390fd5b80600160006101000a81548173ffffffffffffffffffffffffffffffffffffffff021916908373ffffffffffffffffffffffffffffffffffffffff16021790555050565b6040518060400160405280600681526020017f434f4e4649470000000000000000000000000000000000000000000000000000815250600160009054906101000a900473ffffffffffffffffffffffffffffffffffffffff1673ffffffffffffffffffffffffffffffffffffffff1663f5e65c7233836040518363ffffffff1660e01b8152600401611573929190612881565b60206040518083038186803b15801561158b57600080fd5b505afa15801561159f573d6000803e3d6000fd5b505050506040513d601f19601f820116820180604052508101906115c39190612105565b611602576040517f08c379a00000000000000000000000000000000000000000000000000000000081526004016115f990612aa4565b60405180910390fd5b81600360008660ff1660ff16815260200190815260200160002060000160026101000a81548161ffff021916908361ffff16021790555082600360008660ff1660ff16815260200190815260200160002060000160006101000a81548161ffff021916908361ffff16021790555050505050565b60008060009054906101000a900473ffffffffffffffffffffffffffffffffffffffff16905090565b600160009054906101000a900473ffffffffffffffffffffffffffffffffffffffff1681565b6116cd611f3c565b73ffffffffffffffffffffffffffffffffffffffff166116eb611676565b73ffffffffffffffffffffffffffffffffffffffff1614611741576040517f08c379a000000000000000000000000000000000000000000000000000000000815260040161173890612a04565b60405180910390fd5b600073ffffffffffffffffffffffffffffffffffffffff168173ffffffffffffffffffffffffffffffffffffffff1614156117b1576040517f08c379a00000000000000000000000000000000000000000000000000000000081526004016117a8906129e4565b60405180910390fd5b8073ffffffffffffffffffffffffffffffffffffffff1660008054906101000a900473ffffffffffffffffffffffffffffffffffffffff1673ffffffffffffffffffffffffffffffffffffffff167f8be0079c531659141344cd1fd0a4f28419497f9722a3daafe3b4186f6b6457e060405160405180910390a3806000806101000a81548173ffffffffffffffffffffffffffffffffffffffff021916908373ffffffffffffffffffffffffffffffffffffffff16021790555050565b6000806000806000905060008073__NftLibrary____________________________63b863bd3760026040516118a390612805565b9081526020016040518091039020546040518263ffffffff1660e01b81526004016118ce9190612adf565b60206040518083038186803b1580156118e657600080fd5b505af41580156118fa573d6000803e3d6000fd5b505050506040513d601f19601f8201168201806040525081019061191e91906121ec565b90506000600190505b600160026040516119379061281a565b9081526020016040518091039020546119509190612c1a565b8160ff161015611d4657821561196557611d46565b6000600360008360ff1660ff1681526020019081526020016000206040518060600160405290816000820160009054906101000a900461ffff1661ffff1661ffff1681526020016000820160029054906101000a900461ffff1661ffff1661ffff16815260200160018201805480602002602001604051908101604052809291908181526020018280548015611a4657602002820191906000526020600020906000905b82829054906101000a900463ffffffff1663ffffffff1681526020019060040190602082600301049283019260010382029150808411611a095790505b505050505081525050905060005b8160400151518160ff161015611d31578563ffffffff1684118015611ad157508582604001518260ff1681518110611ab5577f4e487b7100000000000000000000000000000000000000000000000000000000600052603260045260246000fd5b6020026020010151611ac79190612c70565b63ffffffff168411155b15611cc957829850600181611ae69190612caa565b9750600194506000600360008560ff1660ff16815260200190815260200160002060000160009054906101000a900461ffff16600360008660ff1660ff16815260200190815260200160002060000160029054906101000a900461ffff16611b4e9190612be2565b61ffff16905073__NftLibrary____________________________63b863bd37826040518263ffffffff1660e01b8152600401611b8b9190612adf565b60206040518083038186803b158015611ba357600080fd5b505af4158015611bb7573d6000803e3d6000fd5b505050506040513d601f19601f82011682018060405250810190611bdb91906121ec565b9750600360008560ff1660ff16815260200190815260200160002060000160029054906101000a900461ffff1661ffff168861ffff161115611c5057600360008560ff1660ff16815260200190815260200160002060000160009054906101000a900461ffff1688611c4d9190612ce1565b97505b600360008560ff1660ff16815260200190815260200160002060000160009054906101000a900461ffff1661ffff168861ffff161015611cc357600360008560ff1660ff16815260200190815260200160002060000160009054906101000a900461ffff1688611cc09190612be2565b97505b50611d31565b81604001518160ff1681518110611d09577f4e487b7100000000000000000000000000000000000000000000000000000000600052603260045260246000fd5b602002602001015186611d1c9190612c70565b95508080611d2990612eb8565b915050611a54565b50508080611d3e90612eb8565b915050611927565b50505050909192565b600060058360ff16148015611d69575060788261ffff1610155b15611f3257600073__NftLibrary____________________________63b863bd3760646040518263ffffffff1660e01b8152600401611da89190612951565b60206040518083038186803b158015611dc057600080fd5b505af4158015611dd4573d6000803e3d6000fd5b505050506040513d601f19601f82011682018060405250810190611df891906121ec565b90506050811115611ea15773__NftLibrary____________________________63b863bd3760506040518263ffffffff1660e01b8152600401611e3b9190612987565b60206040518083038186803b158015611e5357600080fd5b505af4158015611e67573d6000803e3d6000fd5b505050506040513d601f19601f82011682018060405250810190611e8b91906121ec565b9050609681611e9a9190612c1a565b9150611f2c565b73__NftLibrary____________________________63b863bd3760786040518263ffffffff1660e01b8152600401611ed9919061296c565b60206040518083038186803b158015611ef157600080fd5b505af4158015611f05573d6000803e3d6000fd5b505050506040513d601f19601f82011682018060405250810190611f2991906121ec565b91505b50611f36565b8190505b92915050565b600033905090565b6040518060a00160405280600060ff168152602001600061ffff168152602001600061ffff1681526020016000815260200160006dffffffffffffffffffffffffffff1681525090565b6000611fa1611f9c84612b8b565b612b5a565b905082815260208101848484011115611fb957600080fd5b611fc4848285612e76565b509392505050565b600081359050611fdb81612f51565b92915050565b600081519050611ff081612f51565b92915050565b60008151905061200581612f68565b92915050565b600082601f83011261201c57600080fd5b813561202c848260208601611f8e565b91505092915050565b60008151905061204481612f7f565b92915050565b60008135905061205981612f96565b92915050565b60008135905061206e81612fad565b92915050565b60008151905061208381612fad565b92915050565b60008135905061209881612fc4565b92915050565b6000813590506120ad81612fdb565b92915050565b6000602082840312156120c557600080fd5b60006120d384828501611fcc565b91505092915050565b6000602082840312156120ee57600080fd5b60006120fc84828501611fe1565b91505092915050565b60006020828403121561211757600080fd5b600061212584828501611ff6565b91505092915050565b60006020828403121561214057600080fd5b600082013567ffffffffffffffff81111561215a57600080fd5b6121668482850161200b565b91505092915050565b6000806040838503121561218257600080fd5b600083013567ffffffffffffffff81111561219c57600080fd5b6121a88582860161200b565b92505060206121b98582860161205f565b9150509250929050565b6000602082840312156121d557600080fd5b60006121e384828501612035565b91505092915050565b6000602082840312156121fe57600080fd5b600061220c84828501612074565b91505092915050565b6000806040838503121561222857600080fd5b60006122368582860161209e565b92505060206122478582860161204a565b9150509250929050565b60008060006060848603121561226657600080fd5b60006122748682870161209e565b93505060206122858682870161204a565b92505060406122968682870161204a565b9150509250925092565b6000806000606084860312156122b557600080fd5b60006122c38682870161209e565b93505060206122d48682870161205f565b92505060406122e586828701612089565b9150509250925092565b6122f881612d7d565b82525050565b61230781612e0a565b82525050565b61231681612e2e565b82525050565b61232581612e40565b82525050565b61233481612e52565b82525050565b600061234582612bbb565b61234f8185612bc6565b935061235f818560208601612e85565b61236881612f40565b840191505092915050565b600061237e82612bbb565b6123888185612bd7565b9350612398818560208601612e85565b80840191505092915050565b60006123b1601b83612bc6565b91507f4341524453484f503a2053686f70206973206e6f74206f70656e2e00000000006000830152602082019050919050565b60006123f1602683612bc6565b91507f4f776e61626c653a206e6577206f776e657220697320746865207a65726f206160008301527f64647265737300000000000000000000000000000000000000000000000000006020830152604082019050919050565b6000612457600583612bd7565b91507f544f54414c0000000000000000000000000000000000000000000000000000006000830152600582019050919050565b6000612497602083612bc6565b91507f4f776e61626c653a2063616c6c6572206973206e6f7420746865206f776e65726000830152602082019050919050565b60006124d7601c83612bc6565b91507f4341524453484f503a205472616e73616374696f6e206661696c6564000000006000830152602082019050919050565b6000612517600a83612bc6565b91507f43415244524557415244000000000000000000000000000000000000000000006000830152602082019050919050565b6000612557600383612bc6565b91507f414c4c00000000000000000000000000000000000000000000000000000000006000830152602082019050919050565b6000612597600983612bc6565b91507f524543495049454e5400000000000000000000000000000000000000000000006000830152602082019050919050565b60006125d7600783612bc6565b91507f46494748544552000000000000000000000000000000000000000000000000006000830152602082019050919050565b6000612617600783612bd7565b91507f5155414c495459000000000000000000000000000000000000000000000000006000830152600782019050919050565b6000612657602483612bc6565b91507f4d656d6265723a20546865206f7065726174696f6e206973206e6f7420616c6c60008301527f6f776564000000000000000000000000000000000000000000000000000000006020830152604082019050919050565b60006126bd600483612bc6565b91507f4f50454e000000000000000000000000000000000000000000000000000000006000830152602082019050919050565b60a08201600082015161270660008501826127df565b5060208201516127196020850182612794565b50604082015161272c6040850182612794565b50606082015161273f60608501826127c1565b5060808201516127526080850182612767565b50505050565b61276181612d9b565b82525050565b61277081612d9b565b82525050565b61277f81612e64565b82525050565b61278e81612db5565b82525050565b61279d81612db5565b82525050565b6127ac81612de3565b82525050565b6127bb81612de3565b82525050565b6127ca81612de3565b82525050565b6127d981612dfd565b82525050565b6127e881612dfd565b82525050565b60006127fa8284612373565b915081905092915050565b60006128108261244a565b9150819050919050565b60006128258261260a565b9150819050919050565b600060208201905061284460008301846122ef565b92915050565b600060608201905061285f60008301866122ef565b61286c60208301856122ef565b61287960408301846127a3565b949350505050565b600060408201905061289660008301856122ef565b81810360208301526128a8818461233a565b90509392505050565b60006040820190506128c660008301846122ef565b81810360208301526128d78161254a565b905092915050565b60006040820190506128f460008301846122ef565b8181036020830152612905816126b0565b905092915050565b600060408201905061292260008301856122ef565b61292f6020830184612758565b9392505050565b600060208201905061294b60008301846122fe565b92915050565b6000602082019050612966600083018461230d565b92915050565b6000602082019050612981600083018461231c565b92915050565b600060208201905061299c600083018461232b565b92915050565b600060208201905081810360008301526129bc818461233a565b905092915050565b600060208201905081810360008301526129dd816123a4565b9050919050565b600060208201905081810360008301526129fd816123e4565b9050919050565b60006020820190508181036000830152612a1d8161248a565b9050919050565b60006020820190508181036000830152612a3d816124ca565b9050919050565b60006020820190508181036000830152612a5d8161250a565b9050919050565b60006020820190508181036000830152612a7d8161258a565b9050919050565b60006020820190508181036000830152612a9d816125ca565b9050919050565b60006020820190508181036000830152612abd8161264a565b9050919050565b600060a082019050612ad960008301846126f0565b92915050565b6000602082019050612af460008301846127b2565b92915050565b6000602082019050612b0f60008301846127a3565b92915050565b6000608082019050612b2a60008301876127d0565b612b376020830186612785565b612b446040830185612776565b612b516060830184612785565b95945050505050565b6000604051905081810181811067ffffffffffffffff82111715612b8157612b80612f11565b5b8060405250919050565b600067ffffffffffffffff821115612ba657612ba5612f11565b5b601f19601f8301169050602081019050919050565b600081519050919050565b600082825260208201905092915050565b600081905092915050565b6000612bed82612db5565b9150612bf883612db5565b92508261ffff03821115612c0f57612c0e612ee2565b5b828201905092915050565b6000612c2582612de3565b9150612c3083612de3565b9250827fffffffffffffffffffffffffffffffffffffffffffffffffffffffffffffffff03821115612c6557612c64612ee2565b5b828201905092915050565b6000612c7b82612ded565b9150612c8683612ded565b92508263ffffffff03821115612c9f57612c9e612ee2565b5b828201905092915050565b6000612cb582612dfd565b9150612cc083612dfd565b92508260ff03821115612cd657612cd5612ee2565b5b828201905092915050565b6000612cec82612db5565b9150612cf783612db5565b925082821015612d0a57612d09612ee2565b5b828203905092915050565b6000612d2082612de3565b9150612d2b83612de3565b925082821015612d3e57612d3d612ee2565b5b828203905092915050565b6000612d5482612ded565b9150612d5f83612ded565b925082821015612d7257612d71612ee2565b5b828203905092915050565b6000612d8882612dc3565b9050919050565b60008115159050919050565b60006dffffffffffffffffffffffffffff82169050919050565b600061ffff82169050919050565b600073ffffffffffffffffffffffffffffffffffffffff82169050919050565b6000819050919050565b600063ffffffff82169050919050565b600060ff82169050919050565b6000612e1582612e1c565b9050919050565b6000612e2782612dc3565b9050919050565b6000612e3982612de3565b9050919050565b6000612e4b82612de3565b9050919050565b6000612e5d82612de3565b9050919050565b6000612e6f82612d9b565b9050919050565b82818337600083830152505050565b60005b83811015612ea3578082015181840152602081019050612e88565b83811115612eb2576000848401525b50505050565b6000612ec382612dfd565b915060ff821415612ed757612ed6612ee2565b5b600182019050919050565b7f4e487b7100000000000000000000000000000000000000000000000000000000600052601160045260246000fd5b7f4e487b7100000000000000000000000000000000000000000000000000000000600052604160045260246000fd5b6000601f19601f8301169050919050565b612f5a81612d7d565b8114612f6557600080fd5b50565b612f7181612d8f565b8114612f7c57600080fd5b50565b612f8881612d9b565b8114612f9357600080fd5b50565b612f9f81612db5565b8114612faa57600080fd5b50565b612fb681612de3565b8114612fc157600080fd5b50565b612fcd81612ded565b8114612fd857600080fd5b50565b612fe481612dfd565b8114612fef57600080fd5b5056fea26469706673582212209770a8291be64533ca2ae4e42a3f2b35b3808acb4b85fc305d73de1273a1acac64736f6c63430008000033",
  "immutableReferences": {},
  "source": "// SPDX-License-Identifier: SimPL-2.0\n\npragma solidity ^0.8.0;\npragma experimental ABIEncoderV2;\n\nimport \"../token/Fighter.sol\";\nimport \"../core/CardReward.sol\";\nimport \"../authority/Member.sol\";\nimport \"../libraries/NftLibrary.sol\";\n\nimport \"@openzeppelin/contracts/token/ERC20/IERC20.sol\";\nimport \"@openzeppelin/contracts/utils/math/SafeMath.sol\";\nimport \"@openzeppelin/contracts/utils/structs/EnumerableSet.sol\";\n\n/**\n * @title Fighter Z Token Card Shop\n *\n * @author Bit Lighthouse. Ace\n * AT: 2021-3-28 | VERSION: v1.0.2\n */\n\ncontract CardShop is Member {\n    using SafeMath for uint256;\n    using EnumerableSet for EnumerableSet.UintSet;\n\n    mapping (uint8 => NftLibrary.CardStruct) private _cards;\n    event Buy(uint8 quality, uint16 heroId, uint256 tokenId, uint16 rate);\n\n    constructor(address auth_) Member(auth_) {\n        configs[\"QUALITY\"] = 5;\n        configs[\"TOTAL\"] = 10000;\n        configs[\"DBZF\"] = 1000e18;\n\n        _cards[1] = NftLibrary.CardStruct(3000, 0, _create(7, 1));\n        _cards[2] = NftLibrary.CardStruct(2000, 0, _create(5, 5));\n        _cards[3] = NftLibrary.CardStruct(200, 800, _create(20, 50));\n        _cards[4] = NftLibrary.CardStruct(90, 410, _create(20, 100));\n        _cards[5] = NftLibrary.CardStruct(50, 150, _create(20, 348));\n        \n        _cards[5].role[19] = _cards[5].role[19] + 8;\n    }\n\n    function _specials(uint8 quality_, uint16 rate_) private view\n        returns (uint16 result) {\n\n        if (quality_ == 5 && rate_ >= 120) {\n            uint256 ran = NftLibrary.random(100);\n            if (ran > 80) {\n                ran = NftLibrary.random(80);\n                result = uint16(ran + 150);\n            } else {\n                result = uint16(NftLibrary.random(120));\n            }\n        } else result = rate_;\n    }\n\n    function _create(uint8 len_, uint32 number_) private pure\n        returns (uint32[] memory roles){\n\n        roles = new uint32[](len_);\n        for (uint8 i = 0; i < len_; i++) roles[i] = number_;\n    }\n\n    function _choose() private view returns (uint8 q, uint8 h, uint16 r) {\n        uint32  index = 0; bool is_break = false;\n        uint256 ran = NftLibrary.random(configs[\"TOTAL\"]);\n\n        for (uint8 i = 1; i < configs[\"QUALITY\"] + 1; i++) {\n            if (is_break) break;\n            \n            NftLibrary.CardStruct memory cs = _cards[i];\n            for (uint8 j = 0; j < cs.role.length; j++) {\n                if (ran > index && ran <= cs.role[j] + index) {\n                    q = i; h = (j + 1); is_break = true;\n                    uint256 total = _cards[i].plus + _cards[i].start;\n                    r = uint16(NftLibrary.random(total));\n\n                    if (r > _cards[i].plus) r = r - _cards[i].start;\n                    if (r < _cards[i].start) r = r + _cards[i].start;\n\n                    break;\n                }\n\n                index = index + cs.role[j];\n            }\n        }\n    }\n\n    function fresh(uint8 quality_, uint16 role_) public\n        CheckPermit(\"CARDREWARD\") {\n\n        uint32 surpls = _cards[quality_].role[role_];\n        _cards[quality_].role[role_] = surpls + 1;\n    }\n\n    function setCardRate(uint8 quality_, uint16 start_, uint16 plus_)\n        public CheckPermit(\"CONFIG\") {\n\n        _cards[quality_].plus = plus_;\n        _cards[quality_].start = start_;\n    }\n\n    function setCardNumber(uint8 quality_, uint index_, uint32 numbers_)\n        public CheckPermit(\"CONFIG\") {\n\n        _cards[quality_].role[index_] = numbers_;\n    }\n\n    function buy(string memory symbol_) public CheckStatus(\"BUY\") {\n        require(\n            !authority.authorities(address(0), \"OPEN\"),\n            \"CARDSHOP: Shop is not open.\"\n        );\n\n        address token = authority.members(symbol_);\n        address recipient = authority.members(\"RECIPIENT\");\n\n        bool success = IERC20(token).transferFrom(\n            msg.sender, recipient, configs[symbol_]\n        );\n\n        require(success, \"CARDSHOP: Transaction failed\");\n\n        NftLibrary.DetailStruct memory ds;\n        ds.amount = configs[symbol_];\n        (ds.quality, ds.heroId, ds.rate) = _choose();\n        ds.rate = _specials(ds.quality, ds.rate);\n\n        uint112 tokenId = NftLibrary.generate(ds);\n        uint32 surpls = _cards[ds.quality].role[ds.heroId];\n        configs[\"TOTAL\"] = configs[\"TOTAL\"] - 1;\n        _cards[ds.quality].role[ds.heroId] = surpls - 1;\n\n        address nft = authority.members(\"FIGHTER\");\n        Fighter(nft).doBuy(msg.sender, tokenId);\n\n        address cr = authority.members(\"CARDREWARD\");\n        CardReward(cr).doBuy(msg.sender, tokenId);\n\n        emit Buy(ds.quality, ds.heroId, tokenId, ds.rate);\n    }\n}",
  "sourcePath": "/home/ace/Projects/eth/other/dragon-ball-project/dragon-ball-contract/contracts/core/CardShop.sol",
  "compiler": {
    "name": "solc",
    "version": "0.8.0+commit.c7dfd78e.Emscripten.clang"
  },
  "schemaVersion": "3.4.3",
  "updatedAt": "2021-08-29T15:39:57.958Z",
  "networkType": "ethereum",
  "devdoc": {
    "author": "Bit Lighthouse. Ace AT: 2021-3-28 | VERSION: v1.0.2",
    "kind": "dev",
    "methods": {
      "owner()": {
        "details": "Returns the address of the current owner."
      },
      "renounceOwnership()": {
        "details": "Leaves the contract without owner. It will not be possible to call `onlyOwner` functions anymore. Can only be called by the current owner. NOTE: Renouncing ownership will leave the contract without an owner, thereby removing any functionality that is only available to the owner."
      },
      "setAuthority(address)": {
        "params": {
          "authority_": "address of manager This function is onwer only"
        }
      },
      "setConfig(string,uint256)": {
        "params": {
          "config_": "config's value This function is config only",
          "name_": "name of config"
        }
      },
      "transferOwnership(address)": {
        "details": "Transfers ownership of the contract to a new account (`newOwner`). Can only be called by the current owner."
      }
    },
    "title": "Fighter Z Token Card Shop",
    "version": 1
  },
  "userdoc": {
    "kind": "user",
    "methods": {
      "setAuthority(address)": {
        "notice": "Set new manager"
      },
      "setConfig(string,uint256)": {
        "notice": "Set config of global or contract"
      }
    },
    "version": 1
  }
}