{
  "contractName": "CardShop",
  "abi": [
    {
      "inputs": [
        {
          "internalType": "address",
          "name": "auth_",
          "type": "address"
        }
      ],
      "stateMutability": "nonpayable",
      "type": "constructor"
    },
    {
      "anonymous": false,
      "inputs": [
        {
          "indexed": false,
          "internalType": "uint8",
          "name": "quality",
          "type": "uint8"
        },
        {
          "indexed": false,
          "internalType": "uint16",
          "name": "heroId",
          "type": "uint16"
        },
        {
          "indexed": false,
          "internalType": "uint256",
          "name": "tokenId",
          "type": "uint256"
        },
        {
          "indexed": false,
          "internalType": "uint16",
          "name": "rate",
          "type": "uint16"
        }
      ],
      "name": "Buy",
      "type": "event"
    },
    {
      "anonymous": false,
      "inputs": [
        {
          "indexed": true,
          "internalType": "address",
          "name": "previousOwner",
          "type": "address"
        },
        {
          "indexed": true,
          "internalType": "address",
          "name": "newOwner",
          "type": "address"
        }
      ],
      "name": "OwnershipTransferred",
      "type": "event"
    },
    {
      "inputs": [
        {
          "internalType": "address",
          "name": "",
          "type": "address"
        }
      ],
      "name": "_amounts",
      "outputs": [
        {
          "internalType": "uint256",
          "name": "",
          "type": "uint256"
        }
      ],
      "stateMutability": "view",
      "type": "function",
      "constant": true
    },
    {
      "inputs": [],
      "name": "_conf",
      "outputs": [
        {
          "internalType": "uint8",
          "name": "quality",
          "type": "uint8"
        },
        {
          "internalType": "uint32",
          "name": "total",
          "type": "uint32"
        }
      ],
      "stateMutability": "view",
      "type": "function",
      "constant": true
    },
    {
      "inputs": [],
      "name": "authority",
      "outputs": [
        {
          "internalType": "contract Authority",
          "name": "",
          "type": "address"
        }
      ],
      "stateMutability": "view",
      "type": "function",
      "constant": true
    },
    {
      "inputs": [],
      "name": "owner",
      "outputs": [
        {
          "internalType": "address",
          "name": "",
          "type": "address"
        }
      ],
      "stateMutability": "view",
      "type": "function",
      "constant": true
    },
    {
      "inputs": [],
      "name": "renounceOwnership",
      "outputs": [],
      "stateMutability": "nonpayable",
      "type": "function"
    },
    {
      "inputs": [
        {
          "internalType": "address",
          "name": "authority_",
          "type": "address"
        }
      ],
      "name": "setAuthority",
      "outputs": [],
      "stateMutability": "nonpayable",
      "type": "function"
    },
    {
      "inputs": [
        {
          "internalType": "address",
          "name": "newOwner",
          "type": "address"
        }
      ],
      "name": "transferOwnership",
      "outputs": [],
      "stateMutability": "nonpayable",
      "type": "function"
    },
    {
      "inputs": [],
      "name": "addCardQuality",
      "outputs": [],
      "stateMutability": "nonpayable",
      "type": "function"
    },
    {
      "inputs": [
        {
          "internalType": "uint8",
          "name": "quality_",
          "type": "uint8"
        },
        {
          "internalType": "uint8",
          "name": "role_",
          "type": "uint8"
        },
        {
          "internalType": "uint32",
          "name": "supply_",
          "type": "uint32"
        },
        {
          "internalType": "uint16",
          "name": "start_",
          "type": "uint16"
        },
        {
          "internalType": "uint16",
          "name": "plus_",
          "type": "uint16"
        }
      ],
      "name": "setCardsByQuality",
      "outputs": [],
      "stateMutability": "nonpayable",
      "type": "function"
    },
    {
      "inputs": [
        {
          "internalType": "string",
          "name": "name_",
          "type": "string"
        },
        {
          "internalType": "uint256",
          "name": "amount_",
          "type": "uint256"
        }
      ],
      "name": "setSaleAmount",
      "outputs": [],
      "stateMutability": "nonpayable",
      "type": "function"
    },
    {
      "inputs": [
        {
          "internalType": "uint8",
          "name": "quality_",
          "type": "uint8"
        },
        {
          "internalType": "uint16",
          "name": "role_",
          "type": "uint16"
        }
      ],
      "name": "fresh",
      "outputs": [],
      "stateMutability": "nonpayable",
      "type": "function"
    },
    {
      "inputs": [
        {
          "internalType": "string",
          "name": "symbol_",
          "type": "string"
        }
      ],
      "name": "buy",
      "outputs": [],
      "stateMutability": "nonpayable",
      "type": "function"
    }
  ],
  "bytecode": "0x60806040523480156200001157600080fd5b506040516200380938038062003809833981810160405281019062000037919062000838565b8060006200004a6200064460201b60201c565b9050806000806101000a81548173ffffffffffffffffffffffffffffffffffffffff021916908373ffffffffffffffffffffffffffffffffffffffff1602179055508073ffffffffffffffffffffffffffffffffffffffff16600073ffffffffffffffffffffffffffffffffffffffff167f8be0079c531659141344cd1fd0a4f28419497f9722a3daafe3b4186f6b6457e060405160405180910390a35080600160006101000a81548173ffffffffffffffffffffffffffffffffffffffff021916908373ffffffffffffffffffffffffffffffffffffffff1602179055505060405180606001604052806107d061ffff168152602001600061ffff16815260200162000160600760016200064c60201b60201c565b81525060046000600160ff16815260200190815260200160002060008201518160000160006101000a81548161ffff021916908361ffff16021790555060208201518160000160026101000a81548161ffff021916908361ffff1602179055506040820151816001019080519060200190620001de9291906200074b565b50905050604051806060016040528060c861ffff16815260200161032061ffff168152602001620002176005806200064c60201b60201c565b81525060046000600260ff16815260200190815260200160002060008201518160000160006101000a81548161ffff021916908361ffff16021790555060208201518160000160026101000a81548161ffff021916908361ffff1602179055506040820151816001019080519060200190620002959291906200074b565b509050506040518060600160405280605a61ffff16815260200161019a61ffff168152602001620002cf601460326200064c60201b60201c565b81525060046000600360ff16815260200190815260200160002060008201518160000160006101000a81548161ffff021916908361ffff16021790555060208201518160000160026101000a81548161ffff021916908361ffff16021790555060408201518160010190805190602001906200034d9291906200074b565b509050506040518060600160405280603261ffff168152602001609661ffff16815260200162000386601460646200064c60201b60201c565b81525060046000600460ff16815260200190815260200160002060008201518160000160006101000a81548161ffff021916908361ffff16021790555060208201518160000160026101000a81548161ffff021916908361ffff1602179055506040820151816001019080519060200190620004049291906200074b565b509050506040518060600160405280603261ffff168152602001609661ffff1681526020016200043e601461015c6200064c60201b60201c565b81525060046000600560ff16815260200190815260200160002060008201518160000160006101000a81548161ffff021916908361ffff16021790555060208201518160000160026101000a81548161ffff021916908361ffff1602179055506040820151816001019080519060200190620004bc9291906200074b565b50905050600860046000600560ff16815260200190815260200160002060010160138154811062000516577f4e487b7100000000000000000000000000000000000000000000000000000000600052603260045260246000fd5b90600052602060002090600891828204019190066004029054906101000a900463ffffffff1662000548919062000864565b60046000600560ff1681526020019081526020016000206001016013815481106200059c577f4e487b7100000000000000000000000000000000000000000000000000000000600052603260045260246000fd5b90600052602060002090600891828204019190066004026101000a81548163ffffffff021916908363ffffffff1602179055506040518060400160405280600560ff16815260200161271063ffffffff16815250600260008201518160000160006101000a81548160ff021916908360ff16021790555060208201518160000160016101000a81548163ffffffff021916908363ffffffff160217905550905050506200096e565b600033905090565b60608260ff1667ffffffffffffffff81111562000692577f4e487b7100000000000000000000000000000000000000000000000000000000600052604160045260246000fd5b604051908082528060200260200182016040528015620006c15781602001602082028036833780820191505090505b50905060005b8360ff168160ff161015620007445782828260ff168151811062000714577f4e487b7100000000000000000000000000000000000000000000000000000000600052603260045260246000fd5b602002602001019063ffffffff16908163ffffffff168152505080806200073b90620008f6565b915050620006c7565b5092915050565b82805482825590600052602060002090600701600890048101928215620007ef5791602002820160005b83821115620007bb57835183826101000a81548163ffffffff021916908363ffffffff160217905550926020019260040160208160030104928301926001030262000775565b8015620007ed5782816101000a81549063ffffffff0219169055600401602081600301049283019260010302620007bb565b505b509050620007fe919062000802565b5090565b5b808211156200081d57600081600090555060010162000803565b5090565b600081519050620008328162000954565b92915050565b6000602082840312156200084b57600080fd5b60006200085b8482850162000821565b91505092915050565b60006200087182620008d9565b91506200087e83620008d9565b92508263ffffffff038211156200089a576200089962000925565b5b828201905092915050565b6000620008b282620008b9565b9050919050565b600073ffffffffffffffffffffffffffffffffffffffff82169050919050565b600063ffffffff82169050919050565b600060ff82169050919050565b60006200090382620008e9565b915060ff8214156200091a576200091962000925565b5b600182019050919050565b7f4e487b7100000000000000000000000000000000000000000000000000000000600052601160045260246000fd5b6200095f81620008a5565b81146200096b57600080fd5b50565b612e8b806200097e6000396000f3fe608060405234801561001057600080fd5b50600436106100b45760003560e01c80638da5cb5b116100715780638da5cb5b1461014f57806396db30861461016d578063bf7e214f1461018c578063c0f86b94146101aa578063f2fde38b146101da578063fbe42915146101f6576100b4565b80632c74ee4f146100b95780632f4407e3146100d55780633f22893a146100f1578063492cc7691461010d578063715018a6146101295780637a9e5e4b14610133575b600080fd5b6100d360048036038101906100ce9190612250565b610200565b005b6100ef60048036038101906100ea919061228c565b610442565b005b61010b600480360381019061010691906121aa565b6106a2565b005b61012760048036038101906101229190612169565b6108ca565b005b61013161135c565b005b61014d600480360381019061014891906120ee565b611496565b005b610157611556565b60405161016491906126e0565b60405180910390f35b61017561157f565b6040516101839291906129b5565b60405180910390f35b6101946115ae565b6040516101a191906127e7565b60405180910390f35b6101c460048036038101906101bf91906120ee565b6115d4565b6040516101d1919061293a565b60405180910390f35b6101f460048036038101906101ef91906120ee565b6115ec565b005b6101fe611795565b005b6040518060400160405280600a81526020017f4341524452455741524400000000000000000000000000000000000000000000815250600160009054906101000a900473ffffffffffffffffffffffffffffffffffffffff1673ffffffffffffffffffffffffffffffffffffffff1663f5e65c7233836040518363ffffffff1660e01b8152600401610293929190612732565b60206040518083038186803b1580156102ab57600080fd5b505afa1580156102bf573d6000803e3d6000fd5b505050506040513d601f19601f820116820180604052508101906102e39190612140565b610322576040517f08c379a0000000000000000000000000000000000000000000000000000000008152600401610319906128e4565b60405180910390fd5b6000600460008560ff1660ff1681526020019081526020016000206001018361ffff168154811061037c577f4e487b7100000000000000000000000000000000000000000000000000000000600052603260045260246000fd5b90600052602060002090600891828204019190066004029054906101000a900463ffffffff1690506001816103b19190612a93565b600460008660ff1660ff1681526020019081526020016000206001018461ffff1681548110610409577f4e487b7100000000000000000000000000000000000000000000000000000000600052603260045260246000fd5b90600052602060002090600891828204019190066004026101000a81548163ffffffff021916908363ffffffff16021790555050505050565b6040518060400160405280600681526020017f434f4e4649470000000000000000000000000000000000000000000000000000815250600160009054906101000a900473ffffffffffffffffffffffffffffffffffffffff1673ffffffffffffffffffffffffffffffffffffffff1663f5e65c7233836040518363ffffffff1660e01b81526004016104d5929190612732565b60206040518083038186803b1580156104ed57600080fd5b505afa158015610501573d6000803e3d6000fd5b505050506040513d601f19601f820116820180604052508101906105259190612140565b610564576040517f08c379a000000000000000000000000000000000000000000000000000000000815260040161055b906128e4565b60405180910390fd5b60008560ff1611801561057d575060008463ffffffff16115b1561060f5761058c85856118f6565b600460008860ff1660ff16815260200190815260200160002060010190805190602001906105bb929190611ec9565b50838560ff166105cb9190612b5e565b600260000160019054906101000a900463ffffffff166105eb9190612a93565b600260000160016101000a81548163ffffffff021916908363ffffffff1602179055505b60008361ffff161180610626575060008261ffff16115b1561069a5782600460008860ff1660ff16815260200190815260200160002060000160006101000a81548161ffff021916908361ffff16021790555081600460008860ff1660ff16815260200190815260200160002060000160026101000a81548161ffff021916908361ffff1602179055505b505050505050565b6040518060400160405280600681526020017f434f4e4649470000000000000000000000000000000000000000000000000000815250600160009054906101000a900473ffffffffffffffffffffffffffffffffffffffff1673ffffffffffffffffffffffffffffffffffffffff1663f5e65c7233836040518363ffffffff1660e01b8152600401610735929190612732565b60206040518083038186803b15801561074d57600080fd5b505afa158015610761573d6000803e3d6000fd5b505050506040513d601f19601f820116820180604052508101906107859190612140565b6107c4576040517f08c379a00000000000000000000000000000000000000000000000000000000081526004016107bb906128e4565b60405180910390fd5b670de0b6b3a7640000826107d89190612b04565b60036000600160009054906101000a900473ffffffffffffffffffffffffffffffffffffffff1673ffffffffffffffffffffffffffffffffffffffff16636957a0b2876040518263ffffffff1660e01b81526004016108379190612802565b60206040518083038186803b15801561084f57600080fd5b505afa158015610863573d6000803e3d6000fd5b505050506040513d601f19601f820116820180604052508101906108879190612117565b73ffffffffffffffffffffffffffffffffffffffff1673ffffffffffffffffffffffffffffffffffffffff16815260200190815260200160002081905550505050565b6040518060400160405280600381526020017f4255590000000000000000000000000000000000000000000000000000000000815250600160009054906101000a900473ffffffffffffffffffffffffffffffffffffffff1673ffffffffffffffffffffffffffffffffffffffff1663466f98e860006040518263ffffffff1660e01b815260040161095c9190612762565b60206040518083038186803b15801561097457600080fd5b505afa158015610988573d6000803e3d6000fd5b505050506040513d601f19601f820116820180604052508101906109ac9190612140565b1580610a635750600160009054906101000a900473ffffffffffffffffffffffffffffffffffffffff1673ffffffffffffffffffffffffffffffffffffffff1663466f98e86000836040518363ffffffff1660e01b8152600401610a11929190612732565b60206040518083038186803b158015610a2957600080fd5b505afa158015610a3d573d6000803e3d6000fd5b505050506040513d601f19601f82011682018060405250810190610a619190612140565b155b80610b165750600160009054906101000a900473ffffffffffffffffffffffffffffffffffffffff1673ffffffffffffffffffffffffffffffffffffffff1663466f98e8336040518263ffffffff1660e01b8152600401610ac49190612762565b60206040518083038186803b158015610adc57600080fd5b505afa158015610af0573d6000803e3d6000fd5b505050506040513d601f19601f82011682018060405250810190610b149190612140565b155b80610bcb5750600160009054906101000a900473ffffffffffffffffffffffffffffffffffffffff1673ffffffffffffffffffffffffffffffffffffffff1663466f98e833836040518363ffffffff1660e01b8152600401610b79929190612732565b60206040518083038186803b158015610b9157600080fd5b505afa158015610ba5573d6000803e3d6000fd5b505050506040513d601f19601f82011682018060405250810190610bc99190612140565b155b610c0a576040517f08c379a0000000000000000000000000000000000000000000000000000000008152600401610c01906128e4565b60405180910390fd5b600160009054906101000a900473ffffffffffffffffffffffffffffffffffffffff1673ffffffffffffffffffffffffffffffffffffffff1663466f98e860006040518263ffffffff1660e01b8152600401610c669190612790565b60206040518083038186803b158015610c7e57600080fd5b505afa158015610c92573d6000803e3d6000fd5b505050506040513d601f19601f82011682018060405250810190610cb69190612140565b15610cf6576040517f08c379a0000000000000000000000000000000000000000000000000000000008152600401610ced90612824565b60405180910390fd5b6000600160009054906101000a900473ffffffffffffffffffffffffffffffffffffffff1673ffffffffffffffffffffffffffffffffffffffff16636957a0b2846040518263ffffffff1660e01b8152600401610d539190612802565b60206040518083038186803b158015610d6b57600080fd5b505afa158015610d7f573d6000803e3d6000fd5b505050506040513d601f19601f82011682018060405250810190610da39190612117565b90506000600160009054906101000a900473ffffffffffffffffffffffffffffffffffffffff1673ffffffffffffffffffffffffffffffffffffffff16636957a0b26040518163ffffffff1660e01b8152600401610e00906128a4565b60206040518083038186803b158015610e1857600080fd5b505afa158015610e2c573d6000803e3d6000fd5b505050506040513d601f19601f82011682018060405250810190610e509190612117565b905060008273ffffffffffffffffffffffffffffffffffffffff166323b872dd3384600360008873ffffffffffffffffffffffffffffffffffffffff1673ffffffffffffffffffffffffffffffffffffffff168152602001908152602001600020546040518463ffffffff1660e01b8152600401610ed0939291906126fb565b602060405180830381600087803b158015610eea57600080fd5b505af1158015610efe573d6000803e3d6000fd5b505050506040513d601f19601f82011682018060405250810190610f229190612140565b905080610f64576040517f08c379a0000000000000000000000000000000000000000000000000000000008152600401610f5b90612884565b60405180910390fd5b610f6c611f79565b600360008573ffffffffffffffffffffffffffffffffffffffff1673ffffffffffffffffffffffffffffffffffffffff16815260200190815260200160002054816060018181525050610fbd6119ee565b8160ff1691508360000184602001856040018361ffff1661ffff168152508361ffff1661ffff168152508360ff1660ff16815250505050600073__NftLibrary____________________________63ff1571d7836040518263ffffffff1660e01b815260040161102d9190612904565b60206040518083038186803b15801561104557600080fd5b505af4158015611059573d6000803e3d6000fd5b505050506040513d601f19601f8201168201806040525081019061107d91906121fe565b9050600060046000846000015160ff1660ff168152602001908152602001600020600101836020015161ffff16815481106110e1577f4e487b7100000000000000000000000000000000000000000000000000000000600052603260045260246000fd5b90600052602060002090600891828204019190066004029054906101000a900463ffffffff1690506001600260000160019054906101000a900463ffffffff1661112b9190612bd0565b600260000160016101000a81548163ffffffff021916908363ffffffff16021790555060018161115b9190612bd0565b60046000856000015160ff1660ff168152602001908152602001600020600101846020015161ffff16815481106111bb577f4e487b7100000000000000000000000000000000000000000000000000000000600052603260045260246000fd5b90600052602060002090600891828204019190066004026101000a81548163ffffffff021916908363ffffffff1602179055506000600160009054906101000a900473ffffffffffffffffffffffffffffffffffffffff1673ffffffffffffffffffffffffffffffffffffffff16636957a0b26040518163ffffffff1660e01b8152600401611249906128c4565b60206040518083038186803b15801561126157600080fd5b505afa158015611275573d6000803e3d6000fd5b505050506040513d601f19601f820116820180604052508101906112999190612117565b90508073ffffffffffffffffffffffffffffffffffffffff1663dfcf8b9533856040518363ffffffff1660e01b81526004016112d69291906127be565b600060405180830381600087803b1580156112f057600080fd5b505af1158015611304573d6000803e3d6000fd5b505050507fe69ddaf88957040bdf59684a08f2de103a37fa00fe3d216f8fe2ec965a015523846000015185602001518587604001516040516113499493929190612970565b60405180910390a1505050505050505050565b611364611ec1565b73ffffffffffffffffffffffffffffffffffffffff16611382611556565b73ffffffffffffffffffffffffffffffffffffffff16146113d8576040517f08c379a00000000000000000000000000000000000000000000000000000000081526004016113cf90612864565b60405180910390fd5b600073ffffffffffffffffffffffffffffffffffffffff1660008054906101000a900473ffffffffffffffffffffffffffffffffffffffff1673ffffffffffffffffffffffffffffffffffffffff167f8be0079c531659141344cd1fd0a4f28419497f9722a3daafe3b4186f6b6457e060405160405180910390a360008060006101000a81548173ffffffffffffffffffffffffffffffffffffffff021916908373ffffffffffffffffffffffffffffffffffffffff160217905550565b61149e611ec1565b73ffffffffffffffffffffffffffffffffffffffff166114bc611556565b73ffffffffffffffffffffffffffffffffffffffff1614611512576040517f08c379a000000000000000000000000000000000000000000000000000000000815260040161150990612864565b60405180910390fd5b80600160006101000a81548173ffffffffffffffffffffffffffffffffffffffff021916908373ffffffffffffffffffffffffffffffffffffffff16021790555050565b60008060009054906101000a900473ffffffffffffffffffffffffffffffffffffffff16905090565b60028060000160009054906101000a900460ff16908060000160019054906101000a900463ffffffff16905082565b600160009054906101000a900473ffffffffffffffffffffffffffffffffffffffff1681565b60036020528060005260406000206000915090505481565b6115f4611ec1565b73ffffffffffffffffffffffffffffffffffffffff16611612611556565b73ffffffffffffffffffffffffffffffffffffffff1614611668576040517f08c379a000000000000000000000000000000000000000000000000000000000815260040161165f90612864565b60405180910390fd5b600073ffffffffffffffffffffffffffffffffffffffff168173ffffffffffffffffffffffffffffffffffffffff1614156116d8576040517f08c379a00000000000000000000000000000000000000000000000000000000081526004016116cf90612844565b60405180910390fd5b8073ffffffffffffffffffffffffffffffffffffffff1660008054906101000a900473ffffffffffffffffffffffffffffffffffffffff1673ffffffffffffffffffffffffffffffffffffffff167f8be0079c531659141344cd1fd0a4f28419497f9722a3daafe3b4186f6b6457e060405160405180910390a3806000806101000a81548173ffffffffffffffffffffffffffffffffffffffff021916908373ffffffffffffffffffffffffffffffffffffffff16021790555050565b6040518060400160405280600681526020017f434f4e4649470000000000000000000000000000000000000000000000000000815250600160009054906101000a900473ffffffffffffffffffffffffffffffffffffffff1673ffffffffffffffffffffffffffffffffffffffff1663f5e65c7233836040518363ffffffff1660e01b8152600401611828929190612732565b60206040518083038186803b15801561184057600080fd5b505afa158015611854573d6000803e3d6000fd5b505050506040513d601f19601f820116820180604052508101906118789190612140565b6118b7576040517f08c379a00000000000000000000000000000000000000000000000000000000081526004016118ae906128e4565b60405180910390fd5b6001600260000160009054906101000a900460ff166118d69190612acd565b600260000160006101000a81548160ff021916908360ff16021790555050565b60608260ff1667ffffffffffffffff81111561193b577f4e487b7100000000000000000000000000000000000000000000000000000000600052604160045260246000fd5b6040519080825280602002602001820160405280156119695781602001602082028036833780820191505090505b50905060005b8360ff168160ff1610156119e75782828260ff16815181106119ba577f4e487b7100000000000000000000000000000000000000000000000000000000600052603260045260246000fd5b602002602001019063ffffffff16908163ffffffff168152505080806119df90612d1b565b91505061196f565b5092915050565b6000806000806000905060008073__NftLibrary____________________________63b863bd37600260000160019054906101000a900463ffffffff166040518263ffffffff1660e01b8152600401611a479190612955565b60206040518083038186803b158015611a5f57600080fd5b505af4158015611a73573d6000803e3d6000fd5b505050506040513d601f19601f82011682018060405250810190611a979190612227565b90506000600190505b6001600260000160009054906101000a900460ff16611abf9190612acd565b60ff168160ff161015611eb8578215611ad757611eb8565b6000600460008360ff1660ff1681526020019081526020016000206040518060600160405290816000820160009054906101000a900461ffff1661ffff1661ffff1681526020016000820160029054906101000a900461ffff1661ffff1661ffff16815260200160018201805480602002602001604051908101604052809291908181526020018280548015611bb857602002820191906000526020600020906000905b82829054906101000a900463ffffffff1663ffffffff1681526020019060040190602082600301049283019260010382029150808411611b7b5790505b505050505081525050905060005b8160400151518160ff161015611ea3578563ffffffff1684118015611c4357508582604001518260ff1681518110611c27577f4e487b7100000000000000000000000000000000000000000000000000000000600052603260045260246000fd5b6020026020010151611c399190612a93565b63ffffffff168411155b15611e3b57829850600181611c589190612acd565b9750600194506000600460008560ff1660ff16815260200190815260200160002060000160009054906101000a900461ffff16600460008660ff1660ff16815260200190815260200160002060000160029054906101000a900461ffff16611cc09190612a5b565b61ffff16905073__NftLibrary____________________________63b863bd37826040518263ffffffff1660e01b8152600401611cfd919061291f565b60206040518083038186803b158015611d1557600080fd5b505af4158015611d29573d6000803e3d6000fd5b505050506040513d601f19601f82011682018060405250810190611d4d9190612227565b9750600460008560ff1660ff16815260200190815260200160002060000160029054906101000a900461ffff1661ffff168861ffff161115611dc257600460008560ff1660ff16815260200190815260200160002060000160009054906101000a900461ffff1688611dbf9190612b9c565b97505b600460008560ff1660ff16815260200190815260200160002060000160009054906101000a900461ffff1661ffff168861ffff161015611e3557600460008560ff1660ff16815260200190815260200160002060000160009054906101000a900461ffff1688611e329190612a5b565b97505b50611ea3565b81604001518160ff1681518110611e7b577f4e487b7100000000000000000000000000000000000000000000000000000000600052603260045260246000fd5b602002602001015186611e8e9190612a93565b95508080611e9b90612d1b565b915050611bc6565b50508080611eb090612d1b565b915050611aa0565b50505050909192565b600033905090565b82805482825590600052602060002090600701600890048101928215611f685791602002820160005b83821115611f3657835183826101000a81548163ffffffff021916908363ffffffff1602179055509260200192600401602081600301049283019260010302611ef2565b8015611f665782816101000a81549063ffffffff0219169055600401602081600301049283019260010302611f36565b505b509050611f759190611fac565b5090565b6040518060800160405280600060ff168152602001600061ffff168152602001600061ffff168152602001600081525090565b5b80821115611fc5576000816000905550600101611fad565b5090565b6000611fdc611fd784612a0f565b6129de565b905082815260208101848484011115611ff457600080fd5b611fff848285612cd9565b509392505050565b60008135905061201681612db4565b92915050565b60008151905061202b81612db4565b92915050565b60008151905061204081612dcb565b92915050565b600082601f83011261205757600080fd5b8135612067848260208601611fc9565b91505092915050565b60008151905061207f81612de2565b92915050565b60008135905061209481612df9565b92915050565b6000813590506120a981612e10565b92915050565b6000815190506120be81612e10565b92915050565b6000813590506120d381612e27565b92915050565b6000813590506120e881612e3e565b92915050565b60006020828403121561210057600080fd5b600061210e84828501612007565b91505092915050565b60006020828403121561212957600080fd5b60006121378482850161201c565b91505092915050565b60006020828403121561215257600080fd5b600061216084828501612031565b91505092915050565b60006020828403121561217b57600080fd5b600082013567ffffffffffffffff81111561219557600080fd5b6121a184828501612046565b91505092915050565b600080604083850312156121bd57600080fd5b600083013567ffffffffffffffff8111156121d757600080fd5b6121e385828601612046565b92505060206121f48582860161209a565b9150509250929050565b60006020828403121561221057600080fd5b600061221e84828501612070565b91505092915050565b60006020828403121561223957600080fd5b6000612247848285016120af565b91505092915050565b6000806040838503121561226357600080fd5b6000612271858286016120d9565b925050602061228285828601612085565b9150509250929050565b600080600080600060a086880312156122a457600080fd5b60006122b2888289016120d9565b95505060206122c3888289016120d9565b94505060406122d4888289016120c4565b93505060606122e588828901612085565b92505060806122f688828901612085565b9150509295509295909350565b61230c81612c04565b82525050565b61231b81612c91565b82525050565b600061232c82612a3f565b6123368185612a4a565b9350612346818560208601612ce8565b61234f81612da3565b840191505092915050565b6000612367601b83612a4a565b91507f4341524453484f503a2053686f70206973206e6f74206f70656e2e00000000006000830152602082019050919050565b60006123a7602683612a4a565b91507f4f776e61626c653a206e6577206f776e657220697320746865207a65726f206160008301527f64647265737300000000000000000000000000000000000000000000000000006020830152604082019050919050565b600061240d602083612a4a565b91507f4f776e61626c653a2063616c6c6572206973206e6f7420746865206f776e65726000830152602082019050919050565b600061244d601c83612a4a565b91507f4341524453484f503a205472616e73616374696f6e206661696c6564000000006000830152602082019050919050565b600061248d600383612a4a565b91507f414c4c00000000000000000000000000000000000000000000000000000000006000830152602082019050919050565b60006124cd600983612a4a565b91507f524543495049454e5400000000000000000000000000000000000000000000006000830152602082019050919050565b600061250d600783612a4a565b91507f46494748544552000000000000000000000000000000000000000000000000006000830152602082019050919050565b600061254d602483612a4a565b91507f4d656d6265723a20546865206f7065726174696f6e206973206e6f7420616c6c60008301527f6f776564000000000000000000000000000000000000000000000000000000006020830152604082019050919050565b60006125b3600483612a4a565b91507f4f50454e000000000000000000000000000000000000000000000000000000006000830152602082019050919050565b6080820160008201516125fc60008501826126d1565b50602082015161260f6020850182612668565b5060408201516126226040850182612668565b5060608201516126356060850182612695565b50505050565b61264481612c22565b82525050565b61265381612cb5565b82525050565b61266281612c3c565b82525050565b61267181612c3c565b82525050565b61268081612c6a565b82525050565b61268f81612c6a565b82525050565b61269e81612c6a565b82525050565b6126ad81612cc7565b82525050565b6126bc81612c74565b82525050565b6126cb81612c84565b82525050565b6126da81612c84565b82525050565b60006020820190506126f56000830184612303565b92915050565b60006060820190506127106000830186612303565b61271d6020830185612303565b61272a6040830184612677565b949350505050565b60006040820190506127476000830185612303565b81810360208301526127598184612321565b90509392505050565b60006040820190506127776000830184612303565b818103602083015261278881612480565b905092915050565b60006040820190506127a56000830184612303565b81810360208301526127b6816125a6565b905092915050565b60006040820190506127d36000830185612303565b6127e0602083018461263b565b9392505050565b60006020820190506127fc6000830184612312565b92915050565b6000602082019050818103600083015261281c8184612321565b905092915050565b6000602082019050818103600083015261283d8161235a565b9050919050565b6000602082019050818103600083015261285d8161239a565b9050919050565b6000602082019050818103600083015261287d81612400565b9050919050565b6000602082019050818103600083015261289d81612440565b9050919050565b600060208201905081810360008301526128bd816124c0565b9050919050565b600060208201905081810360008301526128dd81612500565b9050919050565b600060208201905081810360008301526128fd81612540565b9050919050565b600060808201905061291960008301846125e6565b92915050565b60006020820190506129346000830184612686565b92915050565b600060208201905061294f6000830184612677565b92915050565b600060208201905061296a60008301846126a4565b92915050565b600060808201905061298560008301876126c2565b6129926020830186612659565b61299f604083018561264a565b6129ac6060830184612659565b95945050505050565b60006040820190506129ca60008301856126c2565b6129d760208301846126b3565b9392505050565b6000604051905081810181811067ffffffffffffffff82111715612a0557612a04612d74565b5b8060405250919050565b600067ffffffffffffffff821115612a2a57612a29612d74565b5b601f19601f8301169050602081019050919050565b600081519050919050565b600082825260208201905092915050565b6000612a6682612c3c565b9150612a7183612c3c565b92508261ffff03821115612a8857612a87612d45565b5b828201905092915050565b6000612a9e82612c74565b9150612aa983612c74565b92508263ffffffff03821115612ac257612ac1612d45565b5b828201905092915050565b6000612ad882612c84565b9150612ae383612c84565b92508260ff03821115612af957612af8612d45565b5b828201905092915050565b6000612b0f82612c6a565b9150612b1a83612c6a565b9250817fffffffffffffffffffffffffffffffffffffffffffffffffffffffffffffffff0483118215151615612b5357612b52612d45565b5b828202905092915050565b6000612b6982612c74565b9150612b7483612c74565b92508163ffffffff0483118215151615612b9157612b90612d45565b5b828202905092915050565b6000612ba782612c3c565b9150612bb283612c3c565b925082821015612bc557612bc4612d45565b5b828203905092915050565b6000612bdb82612c74565b9150612be683612c74565b925082821015612bf957612bf8612d45565b5b828203905092915050565b6000612c0f82612c4a565b9050919050565b60008115159050919050565b60006dffffffffffffffffffffffffffff82169050919050565b600061ffff82169050919050565b600073ffffffffffffffffffffffffffffffffffffffff82169050919050565b6000819050919050565b600063ffffffff82169050919050565b600060ff82169050919050565b6000612c9c82612ca3565b9050919050565b6000612cae82612c4a565b9050919050565b6000612cc082612c22565b9050919050565b6000612cd282612c74565b9050919050565b82818337600083830152505050565b60005b83811015612d06578082015181840152602081019050612ceb565b83811115612d15576000848401525b50505050565b6000612d2682612c84565b915060ff821415612d3a57612d39612d45565b5b600182019050919050565b7f4e487b7100000000000000000000000000000000000000000000000000000000600052601160045260246000fd5b7f4e487b7100000000000000000000000000000000000000000000000000000000600052604160045260246000fd5b6000601f19601f8301169050919050565b612dbd81612c04565b8114612dc857600080fd5b50565b612dd481612c16565b8114612ddf57600080fd5b50565b612deb81612c22565b8114612df657600080fd5b50565b612e0281612c3c565b8114612e0d57600080fd5b50565b612e1981612c6a565b8114612e2457600080fd5b50565b612e3081612c74565b8114612e3b57600080fd5b50565b612e4781612c84565b8114612e5257600080fd5b5056fea26469706673582212205996f05f651188e6aeb9d56d3f2ae9cb4cb64433c17deb816b03103551bd2a5b64736f6c63430008000033",
  "immutableReferences": {},
  "source": "// SPDX-License-Identifier: SimPL-2.0\n\npragma solidity ^0.8.0;\npragma experimental ABIEncoderV2;\n\nimport \"../token/Fighter.sol\";\nimport \"../authority/Member.sol\";\nimport \"../libraries/NftLibrary.sol\";\n\nimport \"@openzeppelin/contracts/token/ERC20/IERC20.sol\";\nimport \"@openzeppelin/contracts/utils/math/SafeMath.sol\";\nimport \"@openzeppelin/contracts/utils/structs/EnumerableSet.sol\";\n\n/**\n * @title Fighter Z Token Card Shop\n *\n * @author Bit Lighthouse. Ace\n * AT: 2021-3-28 | VERSION: v1.0.2\n */\n\ncontract CardShop is Member {\n    using SafeMath for uint256;\n    using EnumerableSet for EnumerableSet.UintSet;\n\n    ConfStruct public _conf;\n    mapping (address => uint256) public _amounts;\n    mapping (uint8 => NftLibrary.CardStruct) private _cards;\n\n    struct ConfStruct { uint8 quality; uint32 total; }\n    event Buy(uint8 quality, uint16 heroId, uint256 tokenId, uint16 rate);\n\n    constructor(address auth_) Member(auth_) {\n        _cards[1] = NftLibrary.CardStruct({\n            start: 2000, plus: 0, role: _create(7, 1)\n        });\n\n        _cards[2] = NftLibrary.CardStruct({\n            start: 200, plus: 800, role: _create(5, 5)\n        });\n\n        _cards[3] = NftLibrary.CardStruct({\n            start: 90, plus: 410, role: _create(20, 50)\n        });\n\n        _cards[4] = NftLibrary.CardStruct({\n            start: 50, plus: 150, role: _create(20, 100)\n        });\n\n        _cards[5] = NftLibrary.CardStruct({\n            start: 50, plus: 150, role: _create(20, 348)\n        });\n        \n        _cards[5].role[19] = _cards[5].role[19] + 8;\n\n        _conf = ConfStruct({quality: 5, total: 10000});\n    }\n\n    function _create(uint8 len_, uint32 number_) private pure\n        returns (uint32[] memory roles){\n\n        roles = new uint32[](len_);\n        for (uint8 i = 0; i < len_; i++) roles[i] = number_;\n    }\n\n    function _choose() private view returns (uint8 q, uint8 h, uint16 r) {\n        uint32  index = 0; bool is_break = false;\n        uint256 ran = NftLibrary.random(_conf.total);\n\n        for (uint8 i = 1; i < _conf.quality + 1; i++) {\n            if (is_break) break;\n            \n            NftLibrary.CardStruct memory cs = _cards[i];\n            for (uint8 j = 0; j < cs.role.length; j++) {\n                if (ran > index && ran <= cs.role[j] + index) {\n                    q = i; h = (j + 1); is_break = true;\n                    uint256 total = _cards[i].plus + _cards[i].start;\n                    r = uint16(NftLibrary.random(total));\n\n                    if (r > _cards[i].plus) r = r - _cards[i].start;\n                    if (r < _cards[i].start) r = r + _cards[i].start;\n\n                    break;\n                }\n\n                index = index + cs.role[j];\n            }\n        }\n    }\n\n    function addCardQuality() public CheckPermit(\"CONFIG\") {\n        _conf.quality = _conf.quality + 1;\n    }\n\n    function setCardsByQuality(\n        uint8 quality_, uint8 role_, uint32 supply_, uint16 start_, uint16 plus_\n    ) public CheckPermit(\"CONFIG\") {\n        if (role_ > 0 && supply_ > 0) {\n            _cards[quality_].role = _create(role_, supply_);\n            _conf.total = _conf.total + (role_ * supply_);\n        }\n\n        if (start_ > 0 || plus_ > 0) {\n            _cards[quality_].start = start_;\n            _cards[quality_].plus = plus_;\n        }\n    }\n\n    function setSaleAmount(string memory name_, uint256 amount_)\n        public CheckPermit(\"CONFIG\") {\n        \n        _amounts[authority.members(name_)] = amount_ * 1e18;\n    }\n\n    function fresh(uint8 quality_, uint16 role_) public\n        CheckPermit(\"CARDREWARD\") {\n\n        uint32 surpls = _cards[quality_].role[role_];\n        _cards[quality_].role[role_] = surpls + 1;\n    }\n\n    function buy(string memory symbol_) public CheckStatus(\"BUY\") {\n        require(\n            !authority.authorities(address(0), \"OPEN\"),\n            \"CARDSHOP: Shop is not open.\"\n        );\n\n        address token = authority.members(symbol_);\n        address recipient = authority.members(\"RECIPIENT\");\n\n        bool success = IERC20(token).transferFrom(\n            msg.sender, recipient, _amounts[token]\n        );\n\n        require(success, \"CARDSHOP: Transaction failed\");\n\n        NftLibrary.DetailStruct memory ds;\n        ds.amount = _amounts[token];\n        (ds.quality, ds.heroId, ds.rate) = _choose();\n\n        uint112 tokenId = NftLibrary.generate(ds);\n        uint32 surpls = _cards[ds.quality].role[ds.heroId];\n        _conf.total = _conf.total - 1;\n        _cards[ds.quality].role[ds.heroId] = surpls - 1;\n\n        address nft = authority.members(\"FIGHTER\");\n        Fighter(nft).buy(msg.sender, tokenId);\n\n        emit Buy(ds.quality, ds.heroId, tokenId, ds.rate);\n    }\n}",
  "sourcePath": "/home/ace/Projects/eth/other/dragon-ball-project/dragon-ball-contract/contracts/core/CardShop.sol",
  "compiler": {
    "name": "solc",
    "version": "0.8.0+commit.c7dfd78e.Emscripten.clang"
  },
  "schemaVersion": "3.4.3",
  "updatedAt": "2021-08-26T17:36:01.766Z",
  "networkType": "ethereum",
  "devdoc": {
    "author": "Bit Lighthouse. Ace AT: 2021-3-28 | VERSION: v1.0.2",
    "kind": "dev",
    "methods": {
      "owner()": {
        "details": "Returns the address of the current owner."
      },
      "renounceOwnership()": {
        "details": "Leaves the contract without owner. It will not be possible to call `onlyOwner` functions anymore. Can only be called by the current owner. NOTE: Renouncing ownership will leave the contract without an owner, thereby removing any functionality that is only available to the owner."
      },
      "setAuthority(address)": {
        "params": {
          "authority_": "address of manager This function is onwer only"
        }
      },
      "transferOwnership(address)": {
        "details": "Transfers ownership of the contract to a new account (`newOwner`). Can only be called by the current owner."
      }
    },
    "title": "Fighter Z Token Card Shop",
    "version": 1
  },
  "userdoc": {
    "kind": "user",
    "methods": {
      "setAuthority(address)": {
        "notice": "Set new manager"
      }
    },
    "version": 1
  }
}