{
  "contractName": "CardReward",
  "abi": [
    {
      "inputs": [
        {
          "internalType": "address",
          "name": "auth_",
          "type": "address"
        }
      ],
      "stateMutability": "nonpayable",
      "type": "constructor"
    },
    {
      "anonymous": false,
      "inputs": [
        {
          "indexed": false,
          "internalType": "uint256",
          "name": "reward",
          "type": "uint256"
        },
        {
          "indexed": false,
          "internalType": "uint256",
          "name": "power",
          "type": "uint256"
        },
        {
          "indexed": false,
          "internalType": "uint256",
          "name": "total_power",
          "type": "uint256"
        }
      ],
      "name": "Claim",
      "type": "event"
    },
    {
      "anonymous": false,
      "inputs": [
        {
          "indexed": false,
          "internalType": "uint16",
          "name": "rate",
          "type": "uint16"
        },
        {
          "indexed": false,
          "internalType": "uint256",
          "name": "reward",
          "type": "uint256"
        },
        {
          "indexed": false,
          "internalType": "uint256",
          "name": "surpls",
          "type": "uint256"
        }
      ],
      "name": "DoExchange",
      "type": "event"
    },
    {
      "anonymous": false,
      "inputs": [
        {
          "indexed": true,
          "internalType": "address",
          "name": "previousOwner",
          "type": "address"
        },
        {
          "indexed": true,
          "internalType": "address",
          "name": "newOwner",
          "type": "address"
        }
      ],
      "name": "OwnershipTransferred",
      "type": "event"
    },
    {
      "anonymous": false,
      "inputs": [
        {
          "indexed": false,
          "internalType": "uint256",
          "name": "reward",
          "type": "uint256"
        },
        {
          "indexed": false,
          "internalType": "uint256",
          "name": "surpls",
          "type": "uint256"
        }
      ],
      "name": "Redeemed",
      "type": "event"
    },
    {
      "inputs": [
        {
          "internalType": "address",
          "name": "",
          "type": "address"
        },
        {
          "internalType": "uint8",
          "name": "",
          "type": "uint8"
        }
      ],
      "name": "_exchanges",
      "outputs": [
        {
          "internalType": "uint16",
          "name": "",
          "type": "uint16"
        }
      ],
      "stateMutability": "view",
      "type": "function",
      "constant": true
    },
    {
      "inputs": [
        {
          "internalType": "uint8",
          "name": "",
          "type": "uint8"
        }
      ],
      "name": "_rates",
      "outputs": [
        {
          "internalType": "uint8",
          "name": "number",
          "type": "uint8"
        },
        {
          "internalType": "uint16",
          "name": "rate",
          "type": "uint16"
        },
        {
          "internalType": "uint8",
          "name": "times",
          "type": "uint8"
        }
      ],
      "stateMutability": "view",
      "type": "function",
      "constant": true
    },
    {
      "inputs": [],
      "name": "authority",
      "outputs": [
        {
          "internalType": "contract Authority",
          "name": "",
          "type": "address"
        }
      ],
      "stateMutability": "view",
      "type": "function",
      "constant": true
    },
    {
      "inputs": [
        {
          "internalType": "string",
          "name": "",
          "type": "string"
        }
      ],
      "name": "configs",
      "outputs": [
        {
          "internalType": "uint256",
          "name": "",
          "type": "uint256"
        }
      ],
      "stateMutability": "view",
      "type": "function",
      "constant": true
    },
    {
      "inputs": [],
      "name": "owner",
      "outputs": [
        {
          "internalType": "address",
          "name": "",
          "type": "address"
        }
      ],
      "stateMutability": "view",
      "type": "function",
      "constant": true
    },
    {
      "inputs": [],
      "name": "renounceOwnership",
      "outputs": [],
      "stateMutability": "nonpayable",
      "type": "function"
    },
    {
      "inputs": [
        {
          "internalType": "address",
          "name": "authority_",
          "type": "address"
        }
      ],
      "name": "setAuthority",
      "outputs": [],
      "stateMutability": "nonpayable",
      "type": "function"
    },
    {
      "inputs": [
        {
          "internalType": "string",
          "name": "name_",
          "type": "string"
        },
        {
          "internalType": "uint256",
          "name": "config_",
          "type": "uint256"
        }
      ],
      "name": "setConfig",
      "outputs": [],
      "stateMutability": "nonpayable",
      "type": "function"
    },
    {
      "inputs": [
        {
          "internalType": "address",
          "name": "newOwner",
          "type": "address"
        }
      ],
      "name": "transferOwnership",
      "outputs": [],
      "stateMutability": "nonpayable",
      "type": "function"
    },
    {
      "inputs": [
        {
          "internalType": "uint8",
          "name": "quality_",
          "type": "uint8"
        },
        {
          "internalType": "uint8",
          "name": "number_",
          "type": "uint8"
        },
        {
          "internalType": "uint16",
          "name": "rate_",
          "type": "uint16"
        },
        {
          "internalType": "uint8",
          "name": "times_",
          "type": "uint8"
        }
      ],
      "name": "setRewardRate",
      "outputs": [],
      "stateMutability": "nonpayable",
      "type": "function"
    },
    {
      "inputs": [
        {
          "internalType": "address",
          "name": "to_",
          "type": "address"
        },
        {
          "internalType": "uint112",
          "name": "tokenId_",
          "type": "uint112"
        }
      ],
      "name": "doBuy",
      "outputs": [],
      "stateMutability": "nonpayable",
      "type": "function"
    },
    {
      "inputs": [
        {
          "internalType": "address",
          "name": "from_",
          "type": "address"
        },
        {
          "internalType": "address",
          "name": "to_",
          "type": "address"
        },
        {
          "internalType": "uint112",
          "name": "tokenId_",
          "type": "uint112"
        }
      ],
      "name": "doExchange",
      "outputs": [],
      "stateMutability": "nonpayable",
      "type": "function"
    },
    {
      "inputs": [
        {
          "internalType": "address",
          "name": "account_",
          "type": "address"
        }
      ],
      "name": "getReward",
      "outputs": [
        {
          "internalType": "uint256",
          "name": "reward",
          "type": "uint256"
        }
      ],
      "stateMutability": "view",
      "type": "function",
      "constant": true
    },
    {
      "inputs": [
        {
          "internalType": "address",
          "name": "account_",
          "type": "address"
        }
      ],
      "name": "getUserPower",
      "outputs": [
        {
          "internalType": "uint256",
          "name": "power",
          "type": "uint256"
        }
      ],
      "stateMutability": "view",
      "type": "function",
      "constant": true
    },
    {
      "inputs": [
        {
          "internalType": "address",
          "name": "account_",
          "type": "address"
        },
        {
          "internalType": "uint256",
          "name": "i",
          "type": "uint256"
        }
      ],
      "name": "getUserToken",
      "outputs": [
        {
          "internalType": "uint256",
          "name": "tokenId",
          "type": "uint256"
        }
      ],
      "stateMutability": "view",
      "type": "function",
      "constant": true
    },
    {
      "inputs": [],
      "name": "getTotalPower",
      "outputs": [
        {
          "internalType": "uint256",
          "name": "power",
          "type": "uint256"
        }
      ],
      "stateMutability": "view",
      "type": "function",
      "constant": true
    },
    {
      "inputs": [
        {
          "internalType": "address",
          "name": "account_",
          "type": "address"
        }
      ],
      "name": "getTokenList",
      "outputs": [
        {
          "components": [
            {
              "internalType": "uint8",
              "name": "quality",
              "type": "uint8"
            },
            {
              "internalType": "uint16",
              "name": "heroId",
              "type": "uint16"
            },
            {
              "internalType": "uint8",
              "name": "power",
              "type": "uint8"
            },
            {
              "internalType": "uint16",
              "name": "rate",
              "type": "uint16"
            },
            {
              "internalType": "uint256",
              "name": "amount",
              "type": "uint256"
            },
            {
              "internalType": "uint112",
              "name": "tokenId",
              "type": "uint112"
            }
          ],
          "internalType": "struct NftLibrary.DetailStruct[]",
          "name": "list",
          "type": "tuple[]"
        }
      ],
      "stateMutability": "view",
      "type": "function",
      "constant": true
    },
    {
      "inputs": [],
      "name": "getRanking",
      "outputs": [
        {
          "components": [
            {
              "internalType": "address",
              "name": "account",
              "type": "address"
            },
            {
              "internalType": "uint256",
              "name": "power",
              "type": "uint256"
            }
          ],
          "internalType": "struct CardReward.RankStruct[]",
          "name": "rank",
          "type": "tuple[]"
        }
      ],
      "stateMutability": "view",
      "type": "function",
      "constant": true
    },
    {
      "inputs": [],
      "name": "claim",
      "outputs": [],
      "stateMutability": "nonpayable",
      "type": "function"
    },
    {
      "inputs": [
        {
          "internalType": "uint112",
          "name": "tokenId_",
          "type": "uint112"
        }
      ],
      "name": "redeemed",
      "outputs": [],
      "stateMutability": "nonpayable",
      "type": "function"
    },
    {
      "inputs": [
        {
          "internalType": "uint8",
          "name": "quality_",
          "type": "uint8"
        }
      ],
      "name": "exchange",
      "outputs": [],
      "stateMutability": "nonpayable",
      "type": "function"
    }
  ],
  "bytecode": "0x60806040523480156200001157600080fd5b5060405162005e5738038062005e578339818101604052810190620000379190620004e5565b8060006200004a620004c660201b60201c565b9050806000806101000a81548173ffffffffffffffffffffffffffffffffffffffff021916908373ffffffffffffffffffffffffffffffffffffffff1602179055508073ffffffffffffffffffffffffffffffffffffffff16600073ffffffffffffffffffffffffffffffffffffffff167f8be0079c531659141344cd1fd0a4f28419497f9722a3daafe3b4186f6b6457e060405160405180910390a35080600160006101000a81548173ffffffffffffffffffffffffffffffffffffffff021916908373ffffffffffffffffffffffffffffffffffffffff16021790555050600060026040516200013c90620005ac565b9081526020016040518091039020819055506a52b7d2dcc80cd2e400000060026040516200016a9062000595565b9081526020016040518091039020819055506040518060600160405280600760ff168152602001602361ffff168152602001600760ff1681525060056000600160ff16815260200190815260200160002060008201518160000160006101000a81548160ff021916908360ff16021790555060208201518160000160016101000a81548161ffff021916908361ffff16021790555060408201518160000160036101000a81548160ff021916908360ff1602179055509050506040518060600160405280600360ff168152602001600a61ffff168152602001600160ff1681525060056000600260ff16815260200190815260200160002060008201518160000160006101000a81548160ff021916908360ff16021790555060208201518160000160016101000a81548161ffff021916908361ffff16021790555060408201518160000160036101000a81548160ff021916908360ff1602179055509050506040518060600160405280600560ff168152602001600561ffff168152602001600160ff1681525060056000600360ff16815260200190815260200160002060008201518160000160006101000a81548160ff021916908360ff16021790555060208201518160000160016101000a81548161ffff021916908361ffff16021790555060408201518160000160036101000a81548160ff021916908360ff1602179055509050506040518060600160405280600a60ff168152602001600161ffff168152602001600160ff1681525060056000600460ff16815260200190815260200160002060008201518160000160006101000a81548160ff021916908360ff16021790555060208201518160000160016101000a81548161ffff021916908361ffff16021790555060408201518160000160036101000a81548160ff021916908360ff1602179055509050506040518060600160405280600060ff168152602001600061ffff168152602001600060ff1681525060056000600560ff16815260200190815260200160002060008201518160000160006101000a81548160ff021916908360ff16021790555060208201518160000160016101000a81548161ffff021916908361ffff16021790555060408201518160000160036101000a81548160ff021916908360ff160217905550905050506200061c565b600033905090565b600081519050620004df8162000602565b92915050565b600060208284031215620004f857600080fd5b60006200050884828501620004ce565b91505092915050565b600062000520600683620005c3565b91507f52455741524400000000000000000000000000000000000000000000000000006000830152600682019050919050565b600062000562600683620005c3565b91507f504f5745525300000000000000000000000000000000000000000000000000006000830152600682019050919050565b6000620005a28262000511565b9150819050919050565b6000620005b98262000553565b9150819050919050565b600081905092915050565b6000620005db82620005e2565b9050919050565b600073ffffffffffffffffffffffffffffffffffffffff82169050919050565b6200060d81620005ce565b81146200061957600080fd5b50565b61582b806200062c6000396000f3fe608060405234801561001057600080fd5b50600436106101375760003560e01c80637a9e5e4b116100b8578063c00007b01161007c578063c00007b01461032a578063cb20a5b71461035a578063d8a3073214610376578063deea9607146103a6578063f2fde38b146103c2578063f9d526d3146103de57610137565b80637a9e5e4b146102845780638da5cb5b146102a05780639d3543f0146102be578063bf745200146102da578063bf7e214f1461030c57610137565b80634e71d92d116100ff5780634e71d92d146101f257806353976a26146101fc5780635ef7fbad1461021a57806369bd55c41461024a578063715018a61461027a57610137565b806302931e591461013c5780631398bbf71461016c57806315f42ce91461018a5780633dbc1d7c146101a65780633e8f5b90146101d6575b600080fd5b610156600480360381019061015191906143f5565b6103fa565b6040516101639190615232565b60405180910390f35b610174610446565b6040516101819190614fb2565b60405180910390f35b6101a4600480360381019061019f9190614683565b61066f565b005b6101c060048036038101906101bb91906144d2565b611763565b6040516101cd9190615232565b60405180910390f35b6101f060048036038101906101eb91906145b4565b6117be565b005b6101fa611908565b005b610204611f68565b6040516102119190615232565b60405180910390f35b610234600480360381019061022f9190614573565b611f8c565b6040516102419190615232565b60405180910390f35b610264600480360381019061025f919061450e565b611fba565b60405161027191906151e0565b60405180910390f35b610282611fea565b005b61029e600480360381019061029991906143f5565b612124565b005b6102a86121e4565b6040516102b59190614ee0565b60405180910390f35b6102d860048036038101906102d39190614631565b61220d565b005b6102f460048036038101906102ef9190614683565b612c68565b604051610303939291906152d6565b60405180910390f35b610314612cba565b6040516103219190614fd4565b60405180910390f35b610344600480360381019061033f91906143f5565b612ce0565b6040516103519190615232565b60405180910390f35b610374600480360381019061036f91906146ac565b612e28565b005b610390600480360381019061038b91906143f5565b612ff2565b60405161039d9190614f90565b60405180910390f35b6103c060048036038101906103bb9190614447565b61326d565b005b6103dc60048036038101906103d791906143f5565b61346b565b005b6103f860048036038101906103f39190614496565b613614565b005b6000600660008373ffffffffffffffffffffffffffffffffffffffff1673ffffffffffffffffffffffffffffffffffffffff168152602001908152602001600020600001549050919050565b606060038054905067ffffffffffffffff81111561048d577f4e487b7100000000000000000000000000000000000000000000000000000000600052604160045260246000fd5b6040519080825280602002602001820160405280156104c657816020015b6104b3614186565b8152602001906001900390816104ab5790505b50905060005b60038054905081101561066b5760006006600060038481548110610519577f4e487b7100000000000000000000000000000000000000000000000000000000600052603260045260246000fd5b9060005260206000200160009054906101000a900473ffffffffffffffffffffffffffffffffffffffff1673ffffffffffffffffffffffffffffffffffffffff1673ffffffffffffffffffffffffffffffffffffffff1681526020019081526020016000206000015490506040518060400160405280600384815481106105c9577f4e487b7100000000000000000000000000000000000000000000000000000000600052603260045260246000fd5b9060005260206000200160009054906101000a900473ffffffffffffffffffffffffffffffffffffffff1673ffffffffffffffffffffffffffffffffffffffff1681526020018281525083838151811061064c577f4e487b7100000000000000000000000000000000000000000000000000000000600052603260045260246000fd5b602002602001018190525050808061066390615684565b9150506104cc565b5090565b6040518060400160405280600881526020017f45584348414e4745000000000000000000000000000000000000000000000000815250600160009054906101000a900473ffffffffffffffffffffffffffffffffffffffff1673ffffffffffffffffffffffffffffffffffffffff1663466f98e860006040518263ffffffff1660e01b81526004016107019190614f62565b60206040518083038186803b15801561071957600080fd5b505afa15801561072d573d6000803e3d6000fd5b505050506040513d601f19601f82011682018060405250810190610751919061454a565b15806108085750600160009054906101000a900473ffffffffffffffffffffffffffffffffffffffff1673ffffffffffffffffffffffffffffffffffffffff1663466f98e86000836040518363ffffffff1660e01b81526004016107b6929190614f32565b60206040518083038186803b1580156107ce57600080fd5b505afa1580156107e2573d6000803e3d6000fd5b505050506040513d601f19601f82011682018060405250810190610806919061454a565b155b806108bb5750600160009054906101000a900473ffffffffffffffffffffffffffffffffffffffff1673ffffffffffffffffffffffffffffffffffffffff1663466f98e8336040518263ffffffff1660e01b81526004016108699190614f62565b60206040518083038186803b15801561088157600080fd5b505afa158015610895573d6000803e3d6000fd5b505050506040513d601f19601f820116820180604052508101906108b9919061454a565b155b806109705750600160009054906101000a900473ffffffffffffffffffffffffffffffffffffffff1673ffffffffffffffffffffffffffffffffffffffff1663466f98e833836040518363ffffffff1660e01b815260040161091e929190614f32565b60206040518083038186803b15801561093657600080fd5b505afa15801561094a573d6000803e3d6000fd5b505050506040513d601f19601f8201168201806040525081019061096e919061454a565b155b6109af576040517f08c379a00000000000000000000000000000000000000000000000000000000081526004016109a69061514f565b60405180910390fd5b6000600160009054906101000a900473ffffffffffffffffffffffffffffffffffffffff1673ffffffffffffffffffffffffffffffffffffffff16636957a0b26040518163ffffffff1660e01b8152600401610a0a9061512f565b60206040518083038186803b158015610a2257600080fd5b505afa158015610a36573d6000803e3d6000fd5b505050506040513d601f19601f82011682018060405250810190610a5a919061441e565b90506000808273ffffffffffffffffffffffffffffffffffffffff166370a08231336040518263ffffffff1660e01b8152600401610a989190614ee0565b60206040518083038186803b158015610ab057600080fd5b505afa158015610ac4573d6000803e3d6000fd5b505050506040513d601f19601f82011682018060405250810190610ae8919061465a565b905060008167ffffffffffffffff811115610b2c577f4e487b7100000000000000000000000000000000000000000000000000000000600052604160045260246000fd5b604051908082528060200260200182016040528015610b5a5781602001602082028036833780820191505090505b50905060005b82811015610cf3576000610bbb82600760003373ffffffffffffffffffffffffffffffffffffffff1673ffffffffffffffffffffffffffffffffffffffff16815260200190815260200160002061374790919063ffffffff16565b9050610bc56141b6565b73__NftLibrary____________________________6347d9b14d836040518263ffffffff1660e01b8152600401610bfc919061518f565b60c06040518083038186803b158015610c1457600080fd5b505af4158015610c28573d6000803e3d6000fd5b505050506040513d601f19601f82011682018060405250810190610c4c9190614608565b90508860ff16816000015160ff1614610c66575050610ce0565b600186610c739190615468565b955081848481518110610caf577f4e487b7100000000000000000000000000000000000000000000000000000000600052603260045260246000fd5b60200260200101906dffffffffffffffffffffffffffff1690816dffffffffffffffffffffffffffff168152505050505b8080610ceb90615684565b915050610b60565b506000600560008860ff1660ff16815260200190815260200160002060000160009054906101000a900460ff1660ff16118015610d5c5750600560008760ff1660ff16815260200190815260200160002060000160009054906101000a900460ff1660ff168310155b610d9b576040517f08c379a0000000000000000000000000000000000000000000000000000000008152600401610d92906150ef565b60405180910390fd5b600860003373ffffffffffffffffffffffffffffffffffffffff1673ffffffffffffffffffffffffffffffffffffffff16815260200190815260200160002060008760ff1660ff16815260200190815260200160002060009054906101000a900461ffff1661ffff16600560008860ff1660ff16815260200190815260200160002060000160009054906101000a900460ff1660ff1684610e3c91906154be565b1080610eb057506000600860003373ffffffffffffffffffffffffffffffffffffffff1673ffffffffffffffffffffffffffffffffffffffff16815260200190815260200160002060008860ff1660ff16815260200190815260200160002060009054906101000a900461ffff1661ffff16145b610eef576040517f08c379a0000000000000000000000000000000000000000000000000000000008152600401610ee69061516f565b60405180910390fd5b6000600160009054906101000a900473ffffffffffffffffffffffffffffffffffffffff1673ffffffffffffffffffffffffffffffffffffffff16636957a0b26040518163ffffffff1660e01b8152600401610f4a9061502f565b60206040518083038186803b158015610f6257600080fd5b505afa158015610f76573d6000803e3d6000fd5b505050506040513d601f19601f82011682018060405250810190610f9a919061441e565b90506000600160009054906101000a900473ffffffffffffffffffffffffffffffffffffffff1673ffffffffffffffffffffffffffffffffffffffff16636957a0b26040518163ffffffff1660e01b8152600401610ff79061508f565b60206040518083038186803b15801561100f57600080fd5b505afa158015611023573d6000803e3d6000fd5b505050506040513d601f19601f82011682018060405250810190611047919061441e565b905060008173ffffffffffffffffffffffffffffffffffffffff166370a08231846040518263ffffffff1660e01b81526004016110849190614ee0565b60206040518083038186803b15801561109c57600080fd5b505afa1580156110b0573d6000803e3d6000fd5b505050506040513d601f19601f820116820180604052508101906110d4919061465a565b9050600061112c606461111e600560008e60ff1660ff16815260200190815260200160002060000160019054906101000a900461ffff1661ffff168561376190919063ffffffff16565b61377790919063ffffffff16565b90508273ffffffffffffffffffffffffffffffffffffffff166323b872dd8533846040518463ffffffff1660e01b815260040161116b93929190614efb565b602060405180830381600087803b15801561118557600080fd5b505af1158015611199573d6000803e3d6000fd5b505050506040513d601f19601f820116820180604052508101906111bd919061454a565b506001600660003373ffffffffffffffffffffffffffffffffffffffff1673ffffffffffffffffffffffffffffffffffffffff1681526020019081526020016000206002015461120d9190615468565b600660003373ffffffffffffffffffffffffffffffffffffffff1673ffffffffffffffffffffffffffffffffffffffff168152602001908152602001600020600201819055506001600860003373ffffffffffffffffffffffffffffffffffffffff1673ffffffffffffffffffffffffffffffffffffffff16815260200190815260200160002060008c60ff1660ff16815260200190815260200160002060009054906101000a900461ffff166112c49190615430565b600860003373ffffffffffffffffffffffffffffffffffffffff1673ffffffffffffffffffffffffffffffffffffffff16815260200190815260200160002060008c60ff1660ff16815260200190815260200160002060006101000a81548161ffff021916908361ffff1602179055506000600160009054906101000a900473ffffffffffffffffffffffffffffffffffffffff1673ffffffffffffffffffffffffffffffffffffffff16636957a0b26040518163ffffffff1660e01b815260040161138f906150cf565b60206040518083038186803b1580156113a757600080fd5b505afa1580156113bb573d6000803e3d6000fd5b505050506040513d601f19601f820116820180604052508101906113df919061441e565b905060005b87811015611668576000878281518110611427577f4e487b7100000000000000000000000000000000000000000000000000000000600052603260045260246000fd5b60200260200101516dffffffffffffffffffffffffffff161161144957611655565b8973ffffffffffffffffffffffffffffffffffffffff1663cae02df588838151811061149e577f4e487b7100000000000000000000000000000000000000000000000000000000600052603260045260246000fd5b60200260200101516040518263ffffffff1660e01b81526004016114c291906151aa565b600060405180830381600087803b1580156114dc57600080fd5b505af11580156114f0573d6000803e3d6000fd5b50505050611593336050898481518110611533577f4e487b7100000000000000000000000000000000000000000000000000000000600052603260045260246000fd5b60200260200101516dffffffffffffffffffffffffffff16901c898481518110611586577f4e487b7100000000000000000000000000000000000000000000000000000000600052603260045260246000fd5b602002602001015161378d565b8173ffffffffffffffffffffffffffffffffffffffff16632c74ee4f8d60588a85815181106115eb577f4e487b7100000000000000000000000000000000000000000000000000000000600052603260045260246000fd5b60200260200101516dffffffffffffffffffffffffffff16901c6040518363ffffffff1660e01b815260040161162292919061530d565b600060405180830381600087803b15801561163c57600080fd5b505af1158015611650573d6000803e3d6000fd5b505050505b808061166090615684565b9150506113e4565b507f608df846e407cc9ba823f6935a74fbeeeba9387d9dc7a1d0531f837189a416b9600560008d60ff1660ff16815260200190815260200160002060000160019054906101000a900461ffff16838673ffffffffffffffffffffffffffffffffffffffff166370a08231896040518263ffffffff1660e01b81526004016116ef9190614ee0565b60206040518083038186803b15801561170757600080fd5b505afa15801561171b573d6000803e3d6000fd5b505050506040513d601f19601f8201168201806040525081019061173f919061465a565b60405161174e939291906151fb565b60405180910390a15050505050505050505050565b60006117b682600760008673ffffffffffffffffffffffffffffffffffffffff1673ffffffffffffffffffffffffffffffffffffffff16815260200190815260200160002061374790919063ffffffff16565b905092915050565b6040518060400160405280600681526020017f434f4e4649470000000000000000000000000000000000000000000000000000815250600160009054906101000a900473ffffffffffffffffffffffffffffffffffffffff1673ffffffffffffffffffffffffffffffffffffffff1663f5e65c7233836040518363ffffffff1660e01b8152600401611851929190614f32565b60206040518083038186803b15801561186957600080fd5b505afa15801561187d573d6000803e3d6000fd5b505050506040513d601f19601f820116820180604052508101906118a1919061454a565b6118e0576040517f08c379a00000000000000000000000000000000000000000000000000000000081526004016118d79061514f565b60405180910390fd5b816002846040516118f19190614e9f565b908152602001604051809103902081905550505050565b6040518060400160405280600581526020017f434c41494d000000000000000000000000000000000000000000000000000000815250600160009054906101000a900473ffffffffffffffffffffffffffffffffffffffff1673ffffffffffffffffffffffffffffffffffffffff1663466f98e860006040518263ffffffff1660e01b815260040161199a9190614f62565b60206040518083038186803b1580156119b257600080fd5b505afa1580156119c6573d6000803e3d6000fd5b505050506040513d601f19601f820116820180604052508101906119ea919061454a565b1580611aa15750600160009054906101000a900473ffffffffffffffffffffffffffffffffffffffff1673ffffffffffffffffffffffffffffffffffffffff1663466f98e86000836040518363ffffffff1660e01b8152600401611a4f929190614f32565b60206040518083038186803b158015611a6757600080fd5b505afa158015611a7b573d6000803e3d6000fd5b505050506040513d601f19601f82011682018060405250810190611a9f919061454a565b155b80611b545750600160009054906101000a900473ffffffffffffffffffffffffffffffffffffffff1673ffffffffffffffffffffffffffffffffffffffff1663466f98e8336040518263ffffffff1660e01b8152600401611b029190614f62565b60206040518083038186803b158015611b1a57600080fd5b505afa158015611b2e573d6000803e3d6000fd5b505050506040513d601f19601f82011682018060405250810190611b52919061454a565b155b80611c095750600160009054906101000a900473ffffffffffffffffffffffffffffffffffffffff1673ffffffffffffffffffffffffffffffffffffffff1663466f98e833836040518363ffffffff1660e01b8152600401611bb7929190614f32565b60206040518083038186803b158015611bcf57600080fd5b505afa158015611be3573d6000803e3d6000fd5b505050506040513d601f19601f82011682018060405250810190611c07919061454a565b155b611c48576040517f08c379a0000000000000000000000000000000000000000000000000000000008152600401611c3f9061514f565b60405180910390fd5b6000611c5333612ce0565b905060008111611c98576040517f08c379a0000000000000000000000000000000000000000000000000000000008152600401611c8f9061504f565b60405180910390fd5b42600660003373ffffffffffffffffffffffffffffffffffffffff1673ffffffffffffffffffffffffffffffffffffffff168152602001908152602001600020600101819055506000600160009054906101000a900473ffffffffffffffffffffffffffffffffffffffff1673ffffffffffffffffffffffffffffffffffffffff16636957a0b26040518163ffffffff1660e01b8152600401611d3a9061502f565b60206040518083038186803b158015611d5257600080fd5b505afa158015611d66573d6000803e3d6000fd5b505050506040513d601f19601f82011682018060405250810190611d8a919061441e565b90506000600160009054906101000a900473ffffffffffffffffffffffffffffffffffffffff1673ffffffffffffffffffffffffffffffffffffffff16636957a0b26040518163ffffffff1660e01b8152600401611de79061508f565b60206040518083038186803b158015611dff57600080fd5b505afa158015611e13573d6000803e3d6000fd5b505050506040513d601f19601f82011682018060405250810190611e37919061441e565b90508073ffffffffffffffffffffffffffffffffffffffff166323b872dd8333866040518463ffffffff1660e01b8152600401611e7693929190614efb565b602060405180830381600087803b158015611e9057600080fd5b505af1158015611ea4573d6000803e3d6000fd5b505050506040513d601f19601f82011682018060405250810190611ec8919061454a565b507fe630ca519fedafd2bd9bd35ad65e198e08398f47c88ca063c406740992bcd1a483600660003373ffffffffffffffffffffffffffffffffffffffff1673ffffffffffffffffffffffffffffffffffffffff168152602001908152602001600020600001546002604051611f3c90614ecb565b908152602001604051809103902054604051611f5a93929190615276565b60405180910390a150505050565b60006002604051611f7890614ecb565b908152602001604051809103902054905090565b6002818051602081018201805184825260208301602085012081835280955050505050506000915090505481565b60086020528160005260406000206020528060005260406000206000915091509054906101000a900461ffff1681565b611ff26138d6565b73ffffffffffffffffffffffffffffffffffffffff166120106121e4565b73ffffffffffffffffffffffffffffffffffffffff1614612066576040517f08c379a000000000000000000000000000000000000000000000000000000000815260040161205d906150af565b60405180910390fd5b600073ffffffffffffffffffffffffffffffffffffffff1660008054906101000a900473ffffffffffffffffffffffffffffffffffffffff1673ffffffffffffffffffffffffffffffffffffffff167f8be0079c531659141344cd1fd0a4f28419497f9722a3daafe3b4186f6b6457e060405160405180910390a360008060006101000a81548173ffffffffffffffffffffffffffffffffffffffff021916908373ffffffffffffffffffffffffffffffffffffffff160217905550565b61212c6138d6565b73ffffffffffffffffffffffffffffffffffffffff1661214a6121e4565b73ffffffffffffffffffffffffffffffffffffffff16146121a0576040517f08c379a0000000000000000000000000000000000000000000000000000000008152600401612197906150af565b60405180910390fd5b80600160006101000a81548173ffffffffffffffffffffffffffffffffffffffff021916908373ffffffffffffffffffffffffffffffffffffffff16021790555050565b60008060009054906101000a900473ffffffffffffffffffffffffffffffffffffffff16905090565b6040518060400160405280600881526020017f52454445454d4544000000000000000000000000000000000000000000000000815250600160009054906101000a900473ffffffffffffffffffffffffffffffffffffffff1673ffffffffffffffffffffffffffffffffffffffff1663466f98e860006040518263ffffffff1660e01b815260040161229f9190614f62565b60206040518083038186803b1580156122b757600080fd5b505afa1580156122cb573d6000803e3d6000fd5b505050506040513d601f19601f820116820180604052508101906122ef919061454a565b15806123a65750600160009054906101000a900473ffffffffffffffffffffffffffffffffffffffff1673ffffffffffffffffffffffffffffffffffffffff1663466f98e86000836040518363ffffffff1660e01b8152600401612354929190614f32565b60206040518083038186803b15801561236c57600080fd5b505afa158015612380573d6000803e3d6000fd5b505050506040513d601f19601f820116820180604052508101906123a4919061454a565b155b806124595750600160009054906101000a900473ffffffffffffffffffffffffffffffffffffffff1673ffffffffffffffffffffffffffffffffffffffff1663466f98e8336040518263ffffffff1660e01b81526004016124079190614f62565b60206040518083038186803b15801561241f57600080fd5b505afa158015612433573d6000803e3d6000fd5b505050506040513d601f19601f82011682018060405250810190612457919061454a565b155b8061250e5750600160009054906101000a900473ffffffffffffffffffffffffffffffffffffffff1673ffffffffffffffffffffffffffffffffffffffff1663466f98e833836040518363ffffffff1660e01b81526004016124bc929190614f32565b60206040518083038186803b1580156124d457600080fd5b505afa1580156124e8573d6000803e3d6000fd5b505050506040513d601f19601f8201168201806040525081019061250c919061454a565b155b61254d576040517f08c379a00000000000000000000000000000000000000000000000000000000081526004016125449061514f565b60405180910390fd5b6000600160009054906101000a900473ffffffffffffffffffffffffffffffffffffffff1673ffffffffffffffffffffffffffffffffffffffff16636957a0b26040518163ffffffff1660e01b81526004016125a89061512f565b60206040518083038186803b1580156125c057600080fd5b505afa1580156125d4573d6000803e3d6000fd5b505050506040513d601f19601f820116820180604052508101906125f8919061441e565b90508073ffffffffffffffffffffffffffffffffffffffff16636352211e846040518263ffffffff1660e01b815260040161263391906151c5565b60206040518083038186803b15801561264b57600080fd5b505afa15801561265f573d6000803e3d6000fd5b505050506040513d601f19601f82011682018060405250810190612683919061441e565b73ffffffffffffffffffffffffffffffffffffffff163373ffffffffffffffffffffffffffffffffffffffff16146126f0576040517f08c379a00000000000000000000000000000000000000000000000000000000081526004016126e79061506f565b60405180910390fd5b6000600160009054906101000a900473ffffffffffffffffffffffffffffffffffffffff1673ffffffffffffffffffffffffffffffffffffffff16636957a0b26040518163ffffffff1660e01b815260040161274b9061502f565b60206040518083038186803b15801561276357600080fd5b505afa158015612777573d6000803e3d6000fd5b505050506040513d601f19601f8201168201806040525081019061279b919061441e565b90506000600160009054906101000a900473ffffffffffffffffffffffffffffffffffffffff1673ffffffffffffffffffffffffffffffffffffffff16636957a0b26040518163ffffffff1660e01b81526004016127f89061508f565b60206040518083038186803b15801561281057600080fd5b505afa158015612824573d6000803e3d6000fd5b505050506040513d601f19601f82011682018060405250810190612848919061441e565b90506128526141b6565b73__NftLibrary____________________________6347d9b14d876040518263ffffffff1660e01b8152600401612889919061518f565b60c06040518083038186803b1580156128a157600080fd5b505af41580156128b5573d6000803e3d6000fd5b505050506040513d601f19601f820116820180604052508101906128d99190614608565b905060006128fc670de0b6b3a7640000836080015161376190919063ffffffff16565b905061292c606461291e846060015161ffff168461376190919063ffffffff16565b61377790919063ffffffff16565b905060008111612971576040517f08c379a00000000000000000000000000000000000000000000000000000000081526004016129689061510f565b60405180910390fd5b8273ffffffffffffffffffffffffffffffffffffffff166323b872dd8533846040518463ffffffff1660e01b81526004016129ae93929190614efb565b602060405180830381600087803b1580156129c857600080fd5b505af11580156129dc573d6000803e3d6000fd5b505050506040513d601f19601f82011682018060405250810190612a00919061454a565b506000600160009054906101000a900473ffffffffffffffffffffffffffffffffffffffff1673ffffffffffffffffffffffffffffffffffffffff16636957a0b26040518163ffffffff1660e01b8152600401612a5c906150cf565b60206040518083038186803b158015612a7457600080fd5b505afa158015612a88573d6000803e3d6000fd5b505050506040513d601f19601f82011682018060405250810190612aac919061441e565b90508073ffffffffffffffffffffffffffffffffffffffff16632c74ee4f846000015185602001516040518363ffffffff1660e01b8152600401612af19291906152ad565b600060405180830381600087803b158015612b0b57600080fd5b505af1158015612b1f573d6000803e3d6000fd5b505050508573ffffffffffffffffffffffffffffffffffffffff1663cae02df5896040518263ffffffff1660e01b8152600401612b5c91906151aa565b600060405180830381600087803b158015612b7657600080fd5b505af1158015612b8a573d6000803e3d6000fd5b50505050612b9d3384604001518a61378d565b7f6f73b7b8d37df32ea60a45eadc8fc3d2d716d705ee099bd506817482ce847316828573ffffffffffffffffffffffffffffffffffffffff166370a08231886040518263ffffffff1660e01b8152600401612bf89190614ee0565b60206040518083038186803b158015612c1057600080fd5b505afa158015612c24573d6000803e3d6000fd5b505050506040513d601f19601f82011682018060405250810190612c48919061465a565b604051612c5692919061524d565b60405180910390a15050505050505050565b60056020528060005260406000206000915090508060000160009054906101000a900460ff16908060000160019054906101000a900461ffff16908060000160039054906101000a900460ff16905083565b600160009054906101000a900473ffffffffffffffffffffffffffffffffffffffff1681565b600080612ceb6138de565b90506000612d486305f5e100600660008773ffffffffffffffffffffffffffffffffffffffff1673ffffffffffffffffffffffffffffffffffffffff1681526020019081526020016000206000015461376190919063ffffffff16565b9050612d796002604051612d5b90614ecb565b9081526020016040518091039020548261377790919063ffffffff16565b90506000600660008673ffffffffffffffffffffffffffffffffffffffff1673ffffffffffffffffffffffffffffffffffffffff1681526020019081526020016000206001015442612dcb9190615549565b9050612df282612de4838661376190919063ffffffff16565b61376190919063ffffffff16565b9350612e1e6064612e106305f5e1008761377790919063ffffffff16565b61377790919063ffffffff16565b9350505050919050565b6040518060400160405280600681526020017f434f4e4649470000000000000000000000000000000000000000000000000000815250600160009054906101000a900473ffffffffffffffffffffffffffffffffffffffff1673ffffffffffffffffffffffffffffffffffffffff1663f5e65c7233836040518363ffffffff1660e01b8152600401612ebb929190614f32565b60206040518083038186803b158015612ed357600080fd5b505afa158015612ee7573d6000803e3d6000fd5b505050506040513d601f19601f82011682018060405250810190612f0b919061454a565b612f4a576040517f08c379a0000000000000000000000000000000000000000000000000000000008152600401612f419061514f565b60405180910390fd5b83600560008760ff1660ff16815260200190815260200160002060000160006101000a81548160ff021916908360ff16021790555082600560008760ff1660ff16815260200190815260200160002060000160016101000a81548161ffff021916908361ffff16021790555081600560008760ff1660ff16815260200190815260200160002060000160036101000a81548160ff021916908360ff1602179055505050505050565b6060600061303d600760008573ffffffffffffffffffffffffffffffffffffffff1673ffffffffffffffffffffffffffffffffffffffff168152602001908152602001600020613952565b90508067ffffffffffffffff81111561307f577f4e487b7100000000000000000000000000000000000000000000000000000000600052604160045260246000fd5b6040519080825280602002602001820160405280156130b857816020015b6130a56141b6565b81526020019060019003908161309d5790505b50915060005b8181101561326657600061311982600760008873ffffffffffffffffffffffffffffffffffffffff1673ffffffffffffffffffffffffffffffffffffffff16815260200190815260200160002061374790919063ffffffff16565b905073__NftLibrary____________________________6347d9b14d826040518263ffffffff1660e01b8152600401613152919061518f565b60c06040518083038186803b15801561316a57600080fd5b505af415801561317e573d6000803e3d6000fd5b505050506040513d601f19601f820116820180604052508101906131a29190614608565b8483815181106131db577f4e487b7100000000000000000000000000000000000000000000000000000000600052603260045260246000fd5b602002602001018190525080848381518110613220577f4e487b7100000000000000000000000000000000000000000000000000000000600052603260045260246000fd5b602002602001015160a001906dffffffffffffffffffffffffffff1690816dffffffffffffffffffffffffffff168152505050808061325e90615684565b9150506130be565b5050919050565b6040518060400160405280600881526020017f45584348414e4745000000000000000000000000000000000000000000000000815250600160009054906101000a900473ffffffffffffffffffffffffffffffffffffffff1673ffffffffffffffffffffffffffffffffffffffff1663f5e65c7233836040518363ffffffff1660e01b8152600401613300929190614f32565b60206040518083038186803b15801561331857600080fd5b505afa15801561332c573d6000803e3d6000fd5b505050506040513d601f19601f82011682018060405250810190613350919061454a565b61338f576040517f08c379a00000000000000000000000000000000000000000000000000000000081526004016133869061514f565b60405180910390fd5b600073ffffffffffffffffffffffffffffffffffffffff168373ffffffffffffffffffffffffffffffffffffffff16141580156133e857506133e68373ffffffffffffffffffffffffffffffffffffffff16613967565b155b156133fa576133f98383600161397a565b5b600073ffffffffffffffffffffffffffffffffffffffff168473ffffffffffffffffffffffffffffffffffffffff161415801561345357506134518473ffffffffffffffffffffffffffffffffffffffff16613967565b155b15613465576134648483600061397a565b5b50505050565b6134736138d6565b73ffffffffffffffffffffffffffffffffffffffff166134916121e4565b73ffffffffffffffffffffffffffffffffffffffff16146134e7576040517f08c379a00000000000000000000000000000000000000000000000000000000081526004016134de906150af565b60405180910390fd5b600073ffffffffffffffffffffffffffffffffffffffff168173ffffffffffffffffffffffffffffffffffffffff161415613557576040517f08c379a000000000000000000000000000000000000000000000000000000000815260040161354e9061500f565b60405180910390fd5b8073ffffffffffffffffffffffffffffffffffffffff1660008054906101000a900473ffffffffffffffffffffffffffffffffffffffff1673ffffffffffffffffffffffffffffffffffffffff167f8be0079c531659141344cd1fd0a4f28419497f9722a3daafe3b4186f6b6457e060405160405180910390a3806000806101000a81548173ffffffffffffffffffffffffffffffffffffffff021916908373ffffffffffffffffffffffffffffffffffffffff16021790555050565b6040518060400160405280600881526020017f4341524453484f50000000000000000000000000000000000000000000000000815250600160009054906101000a900473ffffffffffffffffffffffffffffffffffffffff1673ffffffffffffffffffffffffffffffffffffffff1663f5e65c7233836040518363ffffffff1660e01b81526004016136a7929190614f32565b60206040518083038186803b1580156136bf57600080fd5b505afa1580156136d3573d6000803e3d6000fd5b505050506040513d601f19601f820116820180604052508101906136f7919061454a565b613736576040517f08c379a000000000000000000000000000000000000000000000000000000000815260040161372d9061514f565b60405180910390fd5b6137428383600161397a565b505050565b60006137568360000183613e8a565b60001c905092915050565b6000818361376f91906154ef565b905092915050565b6000818361378591906154be565b905092915050565b6137ee816dffffffffffffffffffffffffffff16600760008673ffffffffffffffffffffffffffffffffffffffff1673ffffffffffffffffffffffffffffffffffffffff168152602001908152602001600020613f2490919063ffffffff16565b508160ff16600260405161380190614ecb565b90815260200160405180910390205461381a9190615549565b600260405161382890614ecb565b9081526020016040518091039020819055508160ff16600660008573ffffffffffffffffffffffffffffffffffffffff1673ffffffffffffffffffffffffffffffffffffffff1681526020019081526020016000206000015461388b9190615549565b600660008573ffffffffffffffffffffffffffffffffffffffff1673ffffffffffffffffffffffffffffffffffffffff16815260200190815260200160002060000181905550505050565b600033905090565b600061391161016d60026040516138f490614eb6565b90815260200160405180910390205461377790919063ffffffff16565b905061394d603c61393f603c61393160188661377790919063ffffffff16565b61377790919063ffffffff16565b61377790919063ffffffff16565b905090565b600061396082600001613f3e565b9050919050565b600080823b905060008111915050919050565b6139826141b6565b73__NftLibrary____________________________6347d9b14d846040518263ffffffff1660e01b81526004016139b9919061518f565b60c06040518083038186803b1580156139d157600080fd5b505af41580156139e5573d6000803e3d6000fd5b505050506040513d601f19601f82011682018060405250810190613a099190614608565b9050600115158215151415613d37576000613a61600760008773ffffffffffffffffffffffffffffffffffffffff1673ffffffffffffffffffffffffffffffffffffffff168152602001908152602001600020613952565b11613aca576003849080600181540180825580915050600190039060005260206000200160009091909190916101000a81548173ffffffffffffffffffffffffffffffffffffffff021916908373ffffffffffffffffffffffffffffffffffffffff1602179055505b6001816000015160ff161415613b1357600160046000836020015161ffff1661ffff16815260200190815260200160002060006101000a81548160ff0219169083151502179055505b806040015160ff166002604051613b2990614ecb565b908152602001604051809103902054613b429190615468565b6002604051613b5090614ecb565b9081526020016040518091039020819055506000600660008673ffffffffffffffffffffffffffffffffffffffff1673ffffffffffffffffffffffffffffffffffffffff1681526020019081526020016000206001015411613c34576040518060600160405280826040015160ff1681526020014281526020016000815250600660008673ffffffffffffffffffffffffffffffffffffffff1673ffffffffffffffffffffffffffffffffffffffff168152602001908152602001600020600082015181600001556020820151816001015560408201518160020155905050613cd0565b806040015160ff16600660008673ffffffffffffffffffffffffffffffffffffffff1673ffffffffffffffffffffffffffffffffffffffff16815260200190815260200160002060000154613c899190615468565b600660008673ffffffffffffffffffffffffffffffffffffffff1673ffffffffffffffffffffffffffffffffffffffff168152602001908152602001600020600001819055505b613d31836dffffffffffffffffffffffffffff16600760008773ffffffffffffffffffffffffffffffffffffffff1673ffffffffffffffffffffffffffffffffffffffff168152602001908152602001600020613f4f90919063ffffffff16565b50613e84565b613d98836dffffffffffffffffffffffffffff16600760008773ffffffffffffffffffffffffffffffffffffffff1673ffffffffffffffffffffffffffffffffffffffff168152602001908152602001600020613f2490919063ffffffff16565b50806040015160ff16600660008673ffffffffffffffffffffffffffffffffffffffff1673ffffffffffffffffffffffffffffffffffffffff16815260200190815260200160002060000154613dee9190615549565b600660008673ffffffffffffffffffffffffffffffffffffffff1673ffffffffffffffffffffffffffffffffffffffff16815260200190815260200160002060000181905550806040015160ff166002604051613e4a90614ecb565b908152602001604051809103902054613e639190615549565b6002604051613e7190614ecb565b9081526020016040518091039020819055505b50505050565b600081836000018054905011613ed5576040517f08c379a0000000000000000000000000000000000000000000000000000000008152600401613ecc90614fef565b60405180910390fd5b826000018281548110613f11577f4e487b7100000000000000000000000000000000000000000000000000000000600052603260045260246000fd5b9060005260206000200154905092915050565b6000613f36836000018360001b613f69565b905092915050565b600081600001805490509050919050565b6000613f61836000018360001b6140f3565b905092915050565b600080836001016000848152602001908152602001600020549050600081146140e7576000600182613f9b9190615549565b9050600060018660000180549050613fb39190615549565b90506000866000018281548110613ff3577f4e487b7100000000000000000000000000000000000000000000000000000000600052603260045260246000fd5b906000526020600020015490508087600001848154811061403d577f4e487b7100000000000000000000000000000000000000000000000000000000600052603260045260246000fd5b90600052602060002001819055506001836140589190615468565b87600101600083815260200190815260200160002081905550866000018054806140ab577f4e487b7100000000000000000000000000000000000000000000000000000000600052603160045260246000fd5b600190038181906000526020600020016000905590558660010160008781526020019081526020016000206000905560019450505050506140ed565b60009150505b92915050565b60006140ff8383614163565b61415857826000018290806001815401808255809150506001900390600052602060002001600090919091909150558260000180549050836001016000848152602001908152602001600020819055506001905061415d565b600090505b92915050565b600080836001016000848152602001908152602001600020541415905092915050565b6040518060400160405280600073ffffffffffffffffffffffffffffffffffffffff168152602001600081525090565b6040518060c00160405280600060ff168152602001600061ffff168152602001600060ff168152602001600061ffff1681526020016000815260200160006dffffffffffffffffffffffffffff1681525090565b600061421d61421884615367565b615336565b90508281526020810184848401111561423557600080fd5b614240848285615642565b509392505050565b6000813590506142578161576b565b92915050565b60008151905061426c8161576b565b92915050565b60008151905061428181615782565b92915050565b600082601f83011261429857600080fd5b81356142a884826020860161420a565b91505092915050565b600060c082840312156142c357600080fd5b6142cd60c0615336565b905060006142dd848285016143e0565b60008301525060206142f18482850161438c565b6020830152506040614305848285016143e0565b60408301525060606143198482850161438c565b606083015250608061432d848285016143b6565b60808301525060a061434184828501614362565b60a08301525092915050565b60008135905061435c81615799565b92915050565b60008151905061437181615799565b92915050565b600081359050614386816157b0565b92915050565b60008151905061439b816157b0565b92915050565b6000813590506143b0816157c7565b92915050565b6000815190506143c5816157c7565b92915050565b6000813590506143da816157de565b92915050565b6000815190506143ef816157de565b92915050565b60006020828403121561440757600080fd5b600061441584828501614248565b91505092915050565b60006020828403121561443057600080fd5b600061443e8482850161425d565b91505092915050565b60008060006060848603121561445c57600080fd5b600061446a86828701614248565b935050602061447b86828701614248565b925050604061448c8682870161434d565b9150509250925092565b600080604083850312156144a957600080fd5b60006144b785828601614248565b92505060206144c88582860161434d565b9150509250929050565b600080604083850312156144e557600080fd5b60006144f385828601614248565b9250506020614504858286016143a1565b9150509250929050565b6000806040838503121561452157600080fd5b600061452f85828601614248565b9250506020614540858286016143cb565b9150509250929050565b60006020828403121561455c57600080fd5b600061456a84828501614272565b91505092915050565b60006020828403121561458557600080fd5b600082013567ffffffffffffffff81111561459f57600080fd5b6145ab84828501614287565b91505092915050565b600080604083850312156145c757600080fd5b600083013567ffffffffffffffff8111156145e157600080fd5b6145ed85828601614287565b92505060206145fe858286016143a1565b9150509250929050565b600060c0828403121561461a57600080fd5b6000614628848285016142b1565b91505092915050565b60006020828403121561464357600080fd5b60006146518482850161434d565b91505092915050565b60006020828403121561466c57600080fd5b600061467a848285016143b6565b91505092915050565b60006020828403121561469557600080fd5b60006146a3848285016143cb565b91505092915050565b600080600080608085870312156146c257600080fd5b60006146d0878288016143cb565b94505060206146e1878288016143cb565b93505060406146f287828801614377565b9250506060614703878288016143cb565b91505092959194509250565b600061471b8383614d50565b60c08301905092915050565b60006147338383614dcb565b60408301905092915050565b6147488161557d565b82525050565b6147578161557d565b82525050565b6000614768826153b7565b61477281856153f2565b935061477d83615397565b8060005b838110156147ae578151614795888261470f565b97506147a0836153d8565b925050600181019050614781565b5085935050505092915050565b60006147c6826153c2565b6147d08185615403565b93506147db836153a7565b8060005b8381101561480c5781516147f38882614727565b97506147fe836153e5565b9250506001810190506147df565b5085935050505092915050565b614822816155fa565b82525050565b6000614833826153cd565b61483d8185615414565b935061484d818560208601615651565b6148568161575a565b840191505092915050565b600061486c826153cd565b6148768185615425565b9350614886818560208601615651565b80840191505092915050565b600061489f602283615414565b91507f456e756d657261626c655365743a20696e646578206f7574206f6620626f756e60008301527f64730000000000000000000000000000000000000000000000000000000000006020830152604082019050919050565b6000614905600683615425565b91507f52455741524400000000000000000000000000000000000000000000000000006000830152600682019050919050565b6000614945600683615425565b91507f504f5745525300000000000000000000000000000000000000000000000000006000830152600682019050919050565b6000614985602683615414565b91507f4f776e61626c653a206e6577206f776e657220697320746865207a65726f206160008301527f64647265737300000000000000000000000000000000000000000000000000006020830152604082019050919050565b60006149eb600583615414565b91507f464f554e440000000000000000000000000000000000000000000000000000006000830152602082019050919050565b6000614a2b601c83615414565b91507f464947485445523a2054686520726577617264206973207a65726f2e000000006000830152602082019050919050565b6000614a6b601783615414565b91507f434152445245574152443a204f6e6c79206f6e7765722e0000000000000000006000830152602082019050919050565b6000614aab600583615414565b91507f544f4b454e0000000000000000000000000000000000000000000000000000006000830152602082019050919050565b6000614aeb602083615414565b91507f4f776e61626c653a2063616c6c6572206973206e6f7420746865206f776e65726000830152602082019050919050565b6000614b2b600883615414565b91507f4341524453484f500000000000000000000000000000000000000000000000006000830152602082019050919050565b6000614b6b600383615414565b91507f414c4c00000000000000000000000000000000000000000000000000000000006000830152602082019050919050565b6000614bab602883615414565b91507f434152445245574152443a20496e73756666696369656e74206e756d6265722060008301527f6f66204e4654732e0000000000000000000000000000000000000000000000006020830152604082019050919050565b6000614c11601883615414565b91507f464947485445523a20526577617264206973207a65726f2e00000000000000006000830152602082019050919050565b6000614c51600783615414565b91507f46494748544552000000000000000000000000000000000000000000000000006000830152602082019050919050565b6000614c91602483615414565b91507f4d656d6265723a20546865206f7065726174696f6e206973206e6f7420616c6c60008301527f6f776564000000000000000000000000000000000000000000000000000000006020830152604082019050919050565b6000614cf7602783615414565b91507f434152445245574152443a2048617665206e6f2072657761726420746f20657860008301527f6368616e67652e000000000000000000000000000000000000000000000000006020830152604082019050919050565b60c082016000820151614d666000850182614e81565b506020820151614d796020850182614e36565b506040820151614d8c6040850182614e81565b506060820151614d9f6060850182614e36565b506080820151614db26080850182614e54565b5060a0820151614dc560a0850182614dfa565b50505050565b604082016000820151614de1600085018261473f565b506020820151614df46020850182614e54565b50505050565b614e038161559b565b82525050565b614e128161559b565b82525050565b614e218161559b565b82525050565b614e308161561e565b82525050565b614e3f816155b5565b82525050565b614e4e816155b5565b82525050565b614e5d816155e3565b82525050565b614e6c816155e3565b82525050565b614e7b81615630565b82525050565b614e8a816155ed565b82525050565b614e99816155ed565b82525050565b6000614eab8284614861565b915081905092915050565b6000614ec1826148f8565b9150819050919050565b6000614ed682614938565b9150819050919050565b6000602082019050614ef5600083018461474e565b92915050565b6000606082019050614f10600083018661474e565b614f1d602083018561474e565b614f2a6040830184614e63565b949350505050565b6000604082019050614f47600083018561474e565b8181036020830152614f598184614828565b90509392505050565b6000604082019050614f77600083018461474e565b8181036020830152614f8881614b5e565b905092915050565b60006020820190508181036000830152614faa818461475d565b905092915050565b60006020820190508181036000830152614fcc81846147bb565b905092915050565b6000602082019050614fe96000830184614819565b92915050565b6000602082019050818103600083015261500881614892565b9050919050565b6000602082019050818103600083015261502881614978565b9050919050565b60006020820190508181036000830152615048816149de565b9050919050565b6000602082019050818103600083015261506881614a1e565b9050919050565b6000602082019050818103600083015261508881614a5e565b9050919050565b600060208201905081810360008301526150a881614a9e565b9050919050565b600060208201905081810360008301526150c881614ade565b9050919050565b600060208201905081810360008301526150e881614b1e565b9050919050565b6000602082019050818103600083015261510881614b9e565b9050919050565b6000602082019050818103600083015261512881614c04565b9050919050565b6000602082019050818103600083015261514881614c44565b9050919050565b6000602082019050818103600083015261516881614c84565b9050919050565b6000602082019050818103600083015261518881614cea565b9050919050565b60006020820190506151a46000830184614e18565b92915050565b60006020820190506151bf6000830184614e09565b92915050565b60006020820190506151da6000830184614e27565b92915050565b60006020820190506151f56000830184614e45565b92915050565b60006060820190506152106000830186614e45565b61521d6020830185614e63565b61522a6040830184614e63565b949350505050565b60006020820190506152476000830184614e63565b92915050565b60006040820190506152626000830185614e63565b61526f6020830184614e63565b9392505050565b600060608201905061528b6000830186614e63565b6152986020830185614e63565b6152a56040830184614e63565b949350505050565b60006040820190506152c26000830185614e90565b6152cf6020830184614e45565b9392505050565b60006060820190506152eb6000830186614e90565b6152f86020830185614e45565b6153056040830184614e90565b949350505050565b60006040820190506153226000830185614e90565b61532f6020830184614e72565b9392505050565b6000604051905081810181811067ffffffffffffffff8211171561535d5761535c61572b565b5b8060405250919050565b600067ffffffffffffffff8211156153825761538161572b565b5b601f19601f8301169050602081019050919050565b6000819050602082019050919050565b6000819050602082019050919050565b600081519050919050565b600081519050919050565b600081519050919050565b6000602082019050919050565b6000602082019050919050565b600082825260208201905092915050565b600082825260208201905092915050565b600082825260208201905092915050565b600081905092915050565b600061543b826155b5565b9150615446836155b5565b92508261ffff0382111561545d5761545c6156cd565b5b828201905092915050565b6000615473826155e3565b915061547e836155e3565b9250827fffffffffffffffffffffffffffffffffffffffffffffffffffffffffffffffff038211156154b3576154b26156cd565b5b828201905092915050565b60006154c9826155e3565b91506154d4836155e3565b9250826154e4576154e36156fc565b5b828204905092915050565b60006154fa826155e3565b9150615505836155e3565b9250817fffffffffffffffffffffffffffffffffffffffffffffffffffffffffffffffff048311821515161561553e5761553d6156cd565b5b828202905092915050565b6000615554826155e3565b915061555f836155e3565b925082821015615572576155716156cd565b5b828203905092915050565b6000615588826155c3565b9050919050565b60008115159050919050565b60006dffffffffffffffffffffffffffff82169050919050565b600061ffff82169050919050565b600073ffffffffffffffffffffffffffffffffffffffff82169050919050565b6000819050919050565b600060ff82169050919050565b60006156058261560c565b9050919050565b6000615617826155c3565b9050919050565b60006156298261559b565b9050919050565b600061563b826155ed565b9050919050565b82818337600083830152505050565b60005b8381101561566f578082015181840152602081019050615654565b8381111561567e576000848401525b50505050565b600061568f826155e3565b91507fffffffffffffffffffffffffffffffffffffffffffffffffffffffffffffffff8214156156c2576156c16156cd565b5b600182019050919050565b7f4e487b7100000000000000000000000000000000000000000000000000000000600052601160045260246000fd5b7f4e487b7100000000000000000000000000000000000000000000000000000000600052601260045260246000fd5b7f4e487b7100000000000000000000000000000000000000000000000000000000600052604160045260246000fd5b6000601f19601f8301169050919050565b6157748161557d565b811461577f57600080fd5b50565b61578b8161558f565b811461579657600080fd5b50565b6157a28161559b565b81146157ad57600080fd5b50565b6157b9816155b5565b81146157c457600080fd5b50565b6157d0816155e3565b81146157db57600080fd5b50565b6157e7816155ed565b81146157f257600080fd5b5056fea2646970667358221220644b22a2766b5f8e0637814d0bfa08c4dd9bcf1ef49d21aa23deaf03ec42702f64736f6c63430008000033",
  "immutableReferences": {},
  "source": "// SPDX-License-Identifier: SimPL-2.0\n\npragma solidity ^0.8.0;\npragma experimental ABIEncoderV2;\n\nimport \"../token/Fighter.sol\";\nimport \"../core/CardShop.sol\";\nimport \"../authority/Member.sol\";\nimport \"../libraries/NftLibrary.sol\";\n\nimport \"@openzeppelin/contracts/token/ERC20/IERC20.sol\";\nimport \"@openzeppelin/contracts/token/ERC721/IERC721.sol\";\n\nimport \"@openzeppelin/contracts/utils/Address.sol\";\nimport \"@openzeppelin/contracts/utils/math/SafeMath.sol\";\nimport \"@openzeppelin/contracts/utils/structs/EnumerableSet.sol\";\n\n/**\n * @title Fighter Z Token Card Shop\n *\n * @author Bit Lighthouse. Ace\n * AT: 2021-3-28 | VERSION: v1.0.2\n */\n\ncontract CardReward is Member {\n    using Address for address;\n    using SafeMath for uint256;\n    using EnumerableSet for EnumerableSet.UintSet;\n\n    address[] private _users;\n\n    mapping (uint16 => bool) private _specials;\n\n    mapping (uint8 => NftLibrary.RateStruct) public _rates;\n    mapping (address => NftLibrary.UserStruct) private _usr;\n    mapping (address => EnumerableSet.UintSet) private _tokens;\n    mapping (address => mapping(uint8 => uint16)) public _exchanges;\n\n    struct RankStruct { address account; uint256 power; }\n    event Claim(uint256 reward, uint256 power, uint256 total_power);\n    event Redeemed(uint256 reward, uint256 surpls);\n    event DoExchange(uint16 rate, uint256 reward, uint256 surpls);\n\n    constructor(address auth_) Member(auth_) {\n        configs[\"POWERS\"] = 0;\n        configs[\"REWARD\"] = 1e26;\n\n        _rates[1] = NftLibrary.RateStruct(7, 35, 7);\n        _rates[2] = NftLibrary.RateStruct(3, 10, 1);\n        _rates[3] = NftLibrary.RateStruct(5, 5, 1);\n        _rates[4] = NftLibrary.RateStruct(10, 1, 1);\n        _rates[5] = NftLibrary.RateStruct(0, 0, 0);\n    }\n\n    function _getSecondReward() private view returns\n        (uint256 sr) {\n\n        sr = configs[\"REWARD\"].div(365);\n        sr = sr.div(24).div(60).div(60);\n    }\n\n    function _doBurn(\n        address account_, uint8 power_, uint112 tokenId_\n    ) private {\n        _tokens[account_].remove(tokenId_);\n        configs[\"POWERS\"] = configs[\"POWERS\"] - power_;\n        _usr[account_].powers = _usr[account_].powers - power_;\n    }\n\n    function _fresRecord(address to_, uint112 tokenId_, bool genre)\n        private {\n\n        NftLibrary.DetailStruct memory cs;\n        cs = NftLibrary.analysis(tokenId_);\n\n        if (genre == true) {\n            if(_tokens[to_].length() <= 0) { _users.push(to_); }\n            if (cs.quality == 1) { _specials[cs.heroId] = true; }\n            configs[\"POWERS\"] = configs[\"POWERS\"] + cs.power;\n            if (_usr[to_].period <= 0) {\n                _usr[to_] = NftLibrary.UserStruct(\n                    cs.power, block.timestamp, 0\n                );\n            } else {\n                _usr[to_].powers = _usr[to_].powers + cs.power;\n            }\n            _tokens[to_].add(tokenId_);\n        } else {\n            _tokens[to_].remove(tokenId_);\n            _usr[to_].powers = _usr[to_].powers - cs.power;\n            configs[\"POWERS\"] = configs[\"POWERS\"] - cs.power;\n        }\n    }\n\n    function setRewardRate(\n        uint8 quality_, uint8 number_, uint16 rate_, uint8 times_\n    ) public CheckPermit(\"CONFIG\") {\n        _rates[quality_].number = number_;\n        _rates[quality_].rate = rate_;\n        _rates[quality_].times = times_;\n    }\n\n    function doBuy(address to_, uint112 tokenId_) public\n        CheckPermit(\"CARDSHOP\") {\n\n        _fresRecord(to_, tokenId_, true);\n    }\n\n    function doExchange(address from_, address to_, uint112 tokenId_)\n        public CheckPermit(\"EXCHANGE\") {\n\n        if (to_ != address(0) && !to_.isContract())\n            _fresRecord(to_, tokenId_, true);\n\n        if (from_ != address(0) && !from_.isContract())\n            _fresRecord(from_, tokenId_, false);\n    }\n\n    function getReward(address account_) public view\n        returns (uint256 reward) {\n\n        uint256 second_reward = _getSecondReward();\n\n        uint256 power_rate = _usr[account_].powers.mul(1e8);\n        power_rate = power_rate.div(configs[\"POWERS\"]);\n        uint256 period = block.timestamp - _usr[account_].period;\n\n        reward = second_reward.mul(period).mul(power_rate);\n        reward = reward.div(1e8).div(100);\n    }\n\n    function getUserPower(address account_) public view\n        returns (uint256 power) {\n\n        power = _usr[account_].powers;\n    }\n\n    function getUserToken(address account_, uint256 i) public\n        view returns (uint256 tokenId) {\n\n        tokenId = _tokens[account_].at(i);\n    }\n\n    function getTotalPower() public view returns (uint256 power) {\n        power = configs[\"POWERS\"];\n    }\n\n    function getTokenList(address account_) public view\n        returns (NftLibrary.DetailStruct[] memory list) {\n\n        uint256 len = _tokens[account_].length();\n        list = new NftLibrary.DetailStruct[](len);\n\n        for (uint i = 0; i < len; i++) {\n            uint256 tokenId = _tokens[account_].at(i);\n            list[i] = NftLibrary.analysis(uint112(tokenId));\n            list[i].tokenId = uint112(tokenId);\n        }\n    }\n\n    function getRanking() public view returns (RankStruct[] memory rank) {\n        rank = new RankStruct[](_users.length);\n\n        for (uint i = 0; i < _users.length; i++) {\n            uint256 power = _usr[_users[i]].powers;\n            rank[i] = RankStruct(_users[i], power);\n        }\n    }\n\n    function claim() public CheckStatus(\"CLAIM\") {\n        uint256 reward = getReward(msg.sender);\n        require(reward > 0, \"FIGHTER: The reward is zero.\");\n        \n        _usr[msg.sender].period = block.timestamp;\n        \n        address sender = authority.members(\"FOUND\");\n        IERC20 token = IERC20(authority.members(\"TOKEN\"));\n\n        token.transferFrom(sender, msg.sender, reward);\n\n        emit Claim(reward, _usr[msg.sender].powers, configs[\"POWERS\"]);\n    }\n\n    function redeemed(uint112 tokenId_) public CheckStatus(\"REDEEMED\") {\n        Fighter figh = Fighter(authority.members(\"FIGHTER\"));\n\n        require(\n            msg.sender == figh.ownerOf(tokenId_),\n            \"CARDREWARD: Only onwer.\"\n        );\n\n        address sender = authority.members(\"FOUND\");\n        IERC20 token = IERC20(authority.members(\"TOKEN\"));\n\n        NftLibrary.DetailStruct memory cs;\n        cs = NftLibrary.analysis(tokenId_);\n\n        uint256 reward = uint256(cs.amount.mul(1e18));\n        reward = reward.mul(uint256(cs.rate)).div(100);\n        require(reward > 0, \"FIGHTER: Reward is zero.\");\n        token.transferFrom(sender, msg.sender, reward);\n\n        address shop = authority.members(\"CARDSHOP\");\n        CardShop(shop).fresh(cs.quality, cs.heroId);\n        figh.doBurn(tokenId_);\n        _doBurn(msg.sender, cs.power, tokenId_);\n        \n        emit Redeemed(reward, token.balanceOf(sender));\n    }\n\n    function exchange(uint8 quality_) public CheckStatus(\"EXCHANGE\") {\n        Fighter figh = Fighter(authority.members(\"FIGHTER\"));\n        uint256 total = 0;\n        \n        uint256 length = figh.balanceOf(msg.sender);\n        uint112[] memory tokens = new uint112[](length);\n\n        for (uint256 i = 0; i < length; i++) {\n            uint256 tokenId = _tokens[msg.sender].at(i);\n            NftLibrary.DetailStruct memory cs;\n            cs = NftLibrary.analysis(uint112(tokenId));\n\n            if (cs.quality != quality_) continue;\n\n            total = total + 1;\n            tokens[i] = uint112(tokenId);\n        }\n\n        require(\n            _rates[quality_].number > 0 && total >= _rates[quality_].number,\n            \"CARDREWARD: Insufficient number of NFTs.\"\n        );\n\n        require(\n            total / _rates[quality_].number < _exchanges[msg.sender][quality_] ||\n            _exchanges[msg.sender][quality_] == 0,\n            \"CARDREWARD: Have no reward to exchange.\"\n        );\n\n        address sender = authority.members(\"FOUND\");\n        IERC20 token = IERC20(authority.members(\"TOKEN\"));\n\n        uint256 balance = token.balanceOf(sender);\n        uint256 reward = balance.mul(_rates[quality_].rate).div(100);\n\n        token.transferFrom(sender, msg.sender, reward);\n        _usr[msg.sender].exchange = _usr[msg.sender].exchange + 1;\n        _exchanges[msg.sender][quality_] = _exchanges[msg.sender][quality_] + 1;\n\n        CardShop shop = CardShop(authority.members(\"CARDSHOP\"));\n        \n        for (uint256 i = 0; i < length; i++) {\n            if (tokens[i] <= 0) continue;\n\n            figh.doBurn(tokens[i]);\n            _doBurn(msg.sender, uint8(tokens[i] >> 80), tokens[i]);\n            shop.fresh(quality_, uint8(tokens[i] >> 88));\n        }\n\n        emit DoExchange(_rates[quality_].rate, reward, token.balanceOf(sender));\n    }\n}",
  "sourcePath": "/home/ace/Projects/eth/other/dragon-ball-project/dragon-ball-contract/contracts/core/CardReward.sol",
  "compiler": {
    "name": "solc",
    "version": "0.8.0+commit.c7dfd78e.Emscripten.clang"
  },
  "schemaVersion": "3.4.3",
  "updatedAt": "2021-09-14T04:57:02.888Z",
  "networkType": "ethereum",
  "devdoc": {
    "author": "Bit Lighthouse. Ace AT: 2021-3-28 | VERSION: v1.0.2",
    "kind": "dev",
    "methods": {
      "owner()": {
        "details": "Returns the address of the current owner."
      },
      "renounceOwnership()": {
        "details": "Leaves the contract without owner. It will not be possible to call `onlyOwner` functions anymore. Can only be called by the current owner. NOTE: Renouncing ownership will leave the contract without an owner, thereby removing any functionality that is only available to the owner."
      },
      "setAuthority(address)": {
        "params": {
          "authority_": "address of manager This function is onwer only"
        }
      },
      "setConfig(string,uint256)": {
        "params": {
          "config_": "config's value This function is config only",
          "name_": "name of config"
        }
      },
      "transferOwnership(address)": {
        "details": "Transfers ownership of the contract to a new account (`newOwner`). Can only be called by the current owner."
      }
    },
    "title": "Fighter Z Token Card Shop",
    "version": 1
  },
  "userdoc": {
    "kind": "user",
    "methods": {
      "setAuthority(address)": {
        "notice": "Set new manager"
      },
      "setConfig(string,uint256)": {
        "notice": "Set config of global or contract"
      }
    },
    "version": 1
  }
}