{
  "contractName": "CardReward",
  "abi": [
    {
      "inputs": [
        {
          "internalType": "address",
          "name": "auth_",
          "type": "address"
        }
      ],
      "stateMutability": "nonpayable",
      "type": "constructor"
    },
    {
      "anonymous": false,
      "inputs": [
        {
          "indexed": false,
          "internalType": "uint256",
          "name": "reward",
          "type": "uint256"
        },
        {
          "indexed": false,
          "internalType": "uint256",
          "name": "power",
          "type": "uint256"
        },
        {
          "indexed": false,
          "internalType": "uint256",
          "name": "total_power",
          "type": "uint256"
        }
      ],
      "name": "Claim",
      "type": "event"
    },
    {
      "anonymous": false,
      "inputs": [
        {
          "indexed": false,
          "internalType": "uint16",
          "name": "rate",
          "type": "uint16"
        },
        {
          "indexed": false,
          "internalType": "uint256",
          "name": "reward",
          "type": "uint256"
        },
        {
          "indexed": false,
          "internalType": "uint256",
          "name": "surpls",
          "type": "uint256"
        }
      ],
      "name": "DoExchange",
      "type": "event"
    },
    {
      "anonymous": false,
      "inputs": [
        {
          "indexed": true,
          "internalType": "address",
          "name": "previousOwner",
          "type": "address"
        },
        {
          "indexed": true,
          "internalType": "address",
          "name": "newOwner",
          "type": "address"
        }
      ],
      "name": "OwnershipTransferred",
      "type": "event"
    },
    {
      "anonymous": false,
      "inputs": [
        {
          "indexed": false,
          "internalType": "uint256",
          "name": "reward",
          "type": "uint256"
        },
        {
          "indexed": false,
          "internalType": "uint256",
          "name": "surpls",
          "type": "uint256"
        }
      ],
      "name": "Redeemed",
      "type": "event"
    },
    {
      "inputs": [
        {
          "internalType": "uint8",
          "name": "",
          "type": "uint8"
        }
      ],
      "name": "_rates",
      "outputs": [
        {
          "internalType": "uint8",
          "name": "number",
          "type": "uint8"
        },
        {
          "internalType": "uint16",
          "name": "rate",
          "type": "uint16"
        },
        {
          "internalType": "uint8",
          "name": "times",
          "type": "uint8"
        }
      ],
      "stateMutability": "view",
      "type": "function",
      "constant": true
    },
    {
      "inputs": [],
      "name": "authority",
      "outputs": [
        {
          "internalType": "contract Authority",
          "name": "",
          "type": "address"
        }
      ],
      "stateMutability": "view",
      "type": "function",
      "constant": true
    },
    {
      "inputs": [
        {
          "internalType": "string",
          "name": "",
          "type": "string"
        }
      ],
      "name": "configs",
      "outputs": [
        {
          "internalType": "uint256",
          "name": "",
          "type": "uint256"
        }
      ],
      "stateMutability": "view",
      "type": "function",
      "constant": true
    },
    {
      "inputs": [],
      "name": "owner",
      "outputs": [
        {
          "internalType": "address",
          "name": "",
          "type": "address"
        }
      ],
      "stateMutability": "view",
      "type": "function",
      "constant": true
    },
    {
      "inputs": [],
      "name": "renounceOwnership",
      "outputs": [],
      "stateMutability": "nonpayable",
      "type": "function"
    },
    {
      "inputs": [
        {
          "internalType": "address",
          "name": "authority_",
          "type": "address"
        }
      ],
      "name": "setAuthority",
      "outputs": [],
      "stateMutability": "nonpayable",
      "type": "function"
    },
    {
      "inputs": [
        {
          "internalType": "string",
          "name": "name_",
          "type": "string"
        },
        {
          "internalType": "uint256",
          "name": "config_",
          "type": "uint256"
        }
      ],
      "name": "setConfig",
      "outputs": [],
      "stateMutability": "nonpayable",
      "type": "function"
    },
    {
      "inputs": [
        {
          "internalType": "address",
          "name": "newOwner",
          "type": "address"
        }
      ],
      "name": "transferOwnership",
      "outputs": [],
      "stateMutability": "nonpayable",
      "type": "function"
    },
    {
      "inputs": [
        {
          "internalType": "uint8",
          "name": "quality_",
          "type": "uint8"
        },
        {
          "internalType": "uint8",
          "name": "number_",
          "type": "uint8"
        },
        {
          "internalType": "uint16",
          "name": "rate_",
          "type": "uint16"
        },
        {
          "internalType": "uint8",
          "name": "times_",
          "type": "uint8"
        }
      ],
      "name": "setRewardRate",
      "outputs": [],
      "stateMutability": "nonpayable",
      "type": "function"
    },
    {
      "inputs": [
        {
          "internalType": "address",
          "name": "to_",
          "type": "address"
        },
        {
          "internalType": "uint112",
          "name": "tokenId_",
          "type": "uint112"
        }
      ],
      "name": "doBuy",
      "outputs": [],
      "stateMutability": "nonpayable",
      "type": "function"
    },
    {
      "inputs": [
        {
          "internalType": "address",
          "name": "from_",
          "type": "address"
        },
        {
          "internalType": "address",
          "name": "to_",
          "type": "address"
        },
        {
          "internalType": "uint112",
          "name": "tokenId_",
          "type": "uint112"
        }
      ],
      "name": "doExchange",
      "outputs": [],
      "stateMutability": "nonpayable",
      "type": "function"
    },
    {
      "inputs": [
        {
          "internalType": "address",
          "name": "account_",
          "type": "address"
        }
      ],
      "name": "getReward",
      "outputs": [
        {
          "internalType": "uint256",
          "name": "reward",
          "type": "uint256"
        }
      ],
      "stateMutability": "view",
      "type": "function",
      "constant": true
    },
    {
      "inputs": [
        {
          "internalType": "address",
          "name": "account_",
          "type": "address"
        }
      ],
      "name": "getUserPower",
      "outputs": [
        {
          "internalType": "uint256",
          "name": "power",
          "type": "uint256"
        }
      ],
      "stateMutability": "view",
      "type": "function",
      "constant": true
    },
    {
      "inputs": [
        {
          "internalType": "address",
          "name": "account_",
          "type": "address"
        },
        {
          "internalType": "uint256",
          "name": "i",
          "type": "uint256"
        }
      ],
      "name": "getUserToken",
      "outputs": [
        {
          "internalType": "uint256",
          "name": "tokenId",
          "type": "uint256"
        }
      ],
      "stateMutability": "view",
      "type": "function",
      "constant": true
    },
    {
      "inputs": [],
      "name": "getTotalPower",
      "outputs": [
        {
          "internalType": "uint256",
          "name": "power",
          "type": "uint256"
        }
      ],
      "stateMutability": "view",
      "type": "function",
      "constant": true
    },
    {
      "inputs": [
        {
          "internalType": "address",
          "name": "account_",
          "type": "address"
        }
      ],
      "name": "getTokenList",
      "outputs": [
        {
          "components": [
            {
              "internalType": "uint8",
              "name": "quality",
              "type": "uint8"
            },
            {
              "internalType": "uint16",
              "name": "heroId",
              "type": "uint16"
            },
            {
              "internalType": "uint8",
              "name": "power",
              "type": "uint8"
            },
            {
              "internalType": "uint16",
              "name": "rate",
              "type": "uint16"
            },
            {
              "internalType": "uint256",
              "name": "amount",
              "type": "uint256"
            },
            {
              "internalType": "uint112",
              "name": "tokenId",
              "type": "uint112"
            }
          ],
          "internalType": "struct NftLibrary.DetailStruct[]",
          "name": "list",
          "type": "tuple[]"
        }
      ],
      "stateMutability": "view",
      "type": "function",
      "constant": true
    },
    {
      "inputs": [],
      "name": "getRanking",
      "outputs": [
        {
          "components": [
            {
              "internalType": "address",
              "name": "account",
              "type": "address"
            },
            {
              "internalType": "uint256",
              "name": "power",
              "type": "uint256"
            }
          ],
          "internalType": "struct CardReward.RankStruct[]",
          "name": "rank",
          "type": "tuple[]"
        }
      ],
      "stateMutability": "view",
      "type": "function",
      "constant": true
    },
    {
      "inputs": [],
      "name": "claim",
      "outputs": [],
      "stateMutability": "nonpayable",
      "type": "function"
    },
    {
      "inputs": [
        {
          "internalType": "uint112",
          "name": "tokenId_",
          "type": "uint112"
        }
      ],
      "name": "redeemed",
      "outputs": [],
      "stateMutability": "nonpayable",
      "type": "function"
    },
    {
      "inputs": [
        {
          "internalType": "uint8",
          "name": "quality_",
          "type": "uint8"
        }
      ],
      "name": "exchange",
      "outputs": [],
      "stateMutability": "nonpayable",
      "type": "function"
    }
  ],
  "bytecode": "0x60806040523480156200001157600080fd5b5060405162005be938038062005be98339818101604052810190620000379190620004e5565b8060006200004a620004c660201b60201c565b9050806000806101000a81548173ffffffffffffffffffffffffffffffffffffffff021916908373ffffffffffffffffffffffffffffffffffffffff1602179055508073ffffffffffffffffffffffffffffffffffffffff16600073ffffffffffffffffffffffffffffffffffffffff167f8be0079c531659141344cd1fd0a4f28419497f9722a3daafe3b4186f6b6457e060405160405180910390a35080600160006101000a81548173ffffffffffffffffffffffffffffffffffffffff021916908373ffffffffffffffffffffffffffffffffffffffff16021790555050600060026040516200013c90620005ac565b9081526020016040518091039020819055506a52b7d2dcc80cd2e400000060026040516200016a9062000595565b9081526020016040518091039020819055506040518060600160405280600760ff168152602001602361ffff168152602001600760ff1681525060056000600160ff16815260200190815260200160002060008201518160000160006101000a81548160ff021916908360ff16021790555060208201518160000160016101000a81548161ffff021916908361ffff16021790555060408201518160000160036101000a81548160ff021916908360ff1602179055509050506040518060600160405280600360ff168152602001600a61ffff168152602001600160ff1681525060056000600260ff16815260200190815260200160002060008201518160000160006101000a81548160ff021916908360ff16021790555060208201518160000160016101000a81548161ffff021916908361ffff16021790555060408201518160000160036101000a81548160ff021916908360ff1602179055509050506040518060600160405280600560ff168152602001600561ffff168152602001600160ff1681525060056000600360ff16815260200190815260200160002060008201518160000160006101000a81548160ff021916908360ff16021790555060208201518160000160016101000a81548161ffff021916908361ffff16021790555060408201518160000160036101000a81548160ff021916908360ff1602179055509050506040518060600160405280600a60ff168152602001600161ffff168152602001600160ff1681525060056000600460ff16815260200190815260200160002060008201518160000160006101000a81548160ff021916908360ff16021790555060208201518160000160016101000a81548161ffff021916908361ffff16021790555060408201518160000160036101000a81548160ff021916908360ff1602179055509050506040518060600160405280600060ff168152602001600061ffff168152602001600060ff1681525060056000600560ff16815260200190815260200160002060008201518160000160006101000a81548160ff021916908360ff16021790555060208201518160000160016101000a81548161ffff021916908361ffff16021790555060408201518160000160036101000a81548160ff021916908360ff160217905550905050506200061c565b600033905090565b600081519050620004df8162000602565b92915050565b600060208284031215620004f857600080fd5b60006200050884828501620004ce565b91505092915050565b600062000520600683620005c3565b91507f52455741524400000000000000000000000000000000000000000000000000006000830152600682019050919050565b600062000562600683620005c3565b91507f504f5745525300000000000000000000000000000000000000000000000000006000830152600682019050919050565b6000620005a28262000511565b9150819050919050565b6000620005b98262000553565b9150819050919050565b600081905092915050565b6000620005db82620005e2565b9050919050565b600073ffffffffffffffffffffffffffffffffffffffff82169050919050565b6200060d81620005ce565b81146200061957600080fd5b50565b6155bd806200062c6000396000f3fe608060405234801561001057600080fd5b506004361061012c5760003560e01c80638da5cb5b116100ad578063cb20a5b711610071578063cb20a5b71461031f578063d8a307321461033b578063deea96071461036b578063f2fde38b14610387578063f9d526d3146103a35761012c565b80638da5cb5b146102655780639d3543f014610283578063bf7452001461029f578063bf7e214f146102d1578063c00007b0146102ef5761012c565b80634e71d92d116100f45780634e71d92d146101e757806353976a26146101f15780635ef7fbad1461020f578063715018a61461023f5780637a9e5e4b146102495761012c565b806302931e59146101315780631398bbf71461016157806315f42ce91461017f5780633dbc1d7c1461019b5780633e8f5b90146101cb575b600080fd5b61014b60048036038101906101469190614216565b6103bf565b6040516101589190614ffc565b60405180910390f35b61016961040b565b6040516101769190614d97565b60405180910390f35b61019960048036038101906101949190614468565b610634565b005b6101b560048036038101906101b091906142f3565b6115b4565b6040516101c29190614ffc565b60405180910390f35b6101e560048036038101906101e09190614399565b61160f565b005b6101ef611759565b005b6101f9611db9565b6040516102069190614ffc565b60405180910390f35b61022960048036038101906102249190614358565b611ddd565b6040516102369190614ffc565b60405180910390f35b610247611e0b565b005b610263600480360381019061025e9190614216565b611f45565b005b61026d612005565b60405161027a9190614cc5565b60405180910390f35b61029d60048036038101906102989190614416565b61202e565b005b6102b960048036038101906102b49190614468565b612a89565b6040516102c8939291906150a0565b60405180910390f35b6102d9612adb565b6040516102e69190614db9565b60405180910390f35b61030960048036038101906103049190614216565b612b01565b6040516103169190614ffc565b60405180910390f35b61033960048036038101906103349190614491565b612c49565b005b61035560048036038101906103509190614216565b612e13565b6040516103629190614d75565b60405180910390f35b61038560048036038101906103809190614268565b61308e565b005b6103a1600480360381019061039c9190614216565b61328c565b005b6103bd60048036038101906103b891906142b7565b613435565b005b6000600660008373ffffffffffffffffffffffffffffffffffffffff1673ffffffffffffffffffffffffffffffffffffffff168152602001908152602001600020600001549050919050565b606060038054905067ffffffffffffffff811115610452577f4e487b7100000000000000000000000000000000000000000000000000000000600052604160045260246000fd5b60405190808252806020026020018201604052801561048b57816020015b610478613fa7565b8152602001906001900390816104705790505b50905060005b60038054905081101561063057600060066000600384815481106104de577f4e487b7100000000000000000000000000000000000000000000000000000000600052603260045260246000fd5b9060005260206000200160009054906101000a900473ffffffffffffffffffffffffffffffffffffffff1673ffffffffffffffffffffffffffffffffffffffff1673ffffffffffffffffffffffffffffffffffffffff16815260200190815260200160002060000154905060405180604001604052806003848154811061058e577f4e487b7100000000000000000000000000000000000000000000000000000000600052603260045260246000fd5b9060005260206000200160009054906101000a900473ffffffffffffffffffffffffffffffffffffffff1673ffffffffffffffffffffffffffffffffffffffff16815260200182815250838381518110610611577f4e487b7100000000000000000000000000000000000000000000000000000000600052603260045260246000fd5b602002602001018190525050808061062890615416565b915050610491565b5090565b6040518060400160405280600881526020017f45584348414e4745000000000000000000000000000000000000000000000000815250600160009054906101000a900473ffffffffffffffffffffffffffffffffffffffff1673ffffffffffffffffffffffffffffffffffffffff1663466f98e860006040518263ffffffff1660e01b81526004016106c69190614d47565b60206040518083038186803b1580156106de57600080fd5b505afa1580156106f2573d6000803e3d6000fd5b505050506040513d601f19601f82011682018060405250810190610716919061432f565b15806107cd5750600160009054906101000a900473ffffffffffffffffffffffffffffffffffffffff1673ffffffffffffffffffffffffffffffffffffffff1663466f98e86000836040518363ffffffff1660e01b815260040161077b929190614d17565b60206040518083038186803b15801561079357600080fd5b505afa1580156107a7573d6000803e3d6000fd5b505050506040513d601f19601f820116820180604052508101906107cb919061432f565b155b806108805750600160009054906101000a900473ffffffffffffffffffffffffffffffffffffffff1673ffffffffffffffffffffffffffffffffffffffff1663466f98e8336040518263ffffffff1660e01b815260040161082e9190614d47565b60206040518083038186803b15801561084657600080fd5b505afa15801561085a573d6000803e3d6000fd5b505050506040513d601f19601f8201168201806040525081019061087e919061432f565b155b806109355750600160009054906101000a900473ffffffffffffffffffffffffffffffffffffffff1673ffffffffffffffffffffffffffffffffffffffff1663466f98e833836040518363ffffffff1660e01b81526004016108e3929190614d17565b60206040518083038186803b1580156108fb57600080fd5b505afa15801561090f573d6000803e3d6000fd5b505050506040513d601f19601f82011682018060405250810190610933919061432f565b155b610974576040517f08c379a000000000000000000000000000000000000000000000000000000000815260040161096b90614f34565b60405180910390fd5b6000600160009054906101000a900473ffffffffffffffffffffffffffffffffffffffff1673ffffffffffffffffffffffffffffffffffffffff16636957a0b26040518163ffffffff1660e01b81526004016109cf90614f14565b60206040518083038186803b1580156109e757600080fd5b505afa1580156109fb573d6000803e3d6000fd5b505050506040513d601f19601f82011682018060405250810190610a1f919061423f565b90506000808273ffffffffffffffffffffffffffffffffffffffff166370a08231336040518263ffffffff1660e01b8152600401610a5d9190614cc5565b60206040518083038186803b158015610a7557600080fd5b505afa158015610a89573d6000803e3d6000fd5b505050506040513d601f19601f82011682018060405250810190610aad919061443f565b905060008167ffffffffffffffff811115610af1577f4e487b7100000000000000000000000000000000000000000000000000000000600052604160045260246000fd5b604051908082528060200260200182016040528015610b1f5781602001602082028036833780820191505090505b50905060005b82811015610cb8576000610b8082600760003373ffffffffffffffffffffffffffffffffffffffff1673ffffffffffffffffffffffffffffffffffffffff16815260200190815260200160002061356890919063ffffffff16565b9050610b8a613fd7565b73__NftLibrary____________________________6347d9b14d836040518263ffffffff1660e01b8152600401610bc19190614f74565b60c06040518083038186803b158015610bd957600080fd5b505af4158015610bed573d6000803e3d6000fd5b505050506040513d601f19601f82011682018060405250810190610c1191906143ed565b90508860ff16816000015160ff1614610c2b575050610ca5565b600186610c3891906151fa565b955081848481518110610c74577f4e487b7100000000000000000000000000000000000000000000000000000000600052603260045260246000fd5b60200260200101906dffffffffffffffffffffffffffff1690816dffffffffffffffffffffffffffff168152505050505b8080610cb090615416565b915050610b25565b506000600560008860ff1660ff1681526020019081526020016000206040518060600160405290816000820160009054906101000a900460ff1660ff1660ff1681526020016000820160019054906101000a900461ffff1661ffff1661ffff1681526020016000820160039054906101000a900460ff1660ff1660ff168152505090506000816000015160ff16118015610d595750806000015160ff168410155b610d98576040517f08c379a0000000000000000000000000000000000000000000000000000000008152600401610d8f90614ed4565b60405180910390fd5b6000600660003373ffffffffffffffffffffffffffffffffffffffff1673ffffffffffffffffffffffffffffffffffffffff168152602001908152602001600020604051806060016040529081600082015481526020016001820154815260200160028201548152505090508060400151826000015160ff1686610e1c9190615250565b1080610e2c575060008160400151145b610e6b576040517f08c379a0000000000000000000000000000000000000000000000000000000008152600401610e6290614f54565b60405180910390fd5b6000600160009054906101000a900473ffffffffffffffffffffffffffffffffffffffff1673ffffffffffffffffffffffffffffffffffffffff16636957a0b26040518163ffffffff1660e01b8152600401610ec690614e14565b60206040518083038186803b158015610ede57600080fd5b505afa158015610ef2573d6000803e3d6000fd5b505050506040513d601f19601f82011682018060405250810190610f16919061423f565b90506000600160009054906101000a900473ffffffffffffffffffffffffffffffffffffffff1673ffffffffffffffffffffffffffffffffffffffff16636957a0b26040518163ffffffff1660e01b8152600401610f7390614e74565b60206040518083038186803b158015610f8b57600080fd5b505afa158015610f9f573d6000803e3d6000fd5b505050506040513d601f19601f82011682018060405250810190610fc3919061423f565b905060008173ffffffffffffffffffffffffffffffffffffffff166370a08231846040518263ffffffff1660e01b81526004016110009190614cc5565b60206040518083038186803b15801561101857600080fd5b505afa15801561102c573d6000803e3d6000fd5b505050506040513d601f19601f82011682018060405250810190611050919061443f565b905060006110826064611074886020015161ffff168561358290919063ffffffff16565b61359890919063ffffffff16565b90508273ffffffffffffffffffffffffffffffffffffffff166323b872dd8533846040518463ffffffff1660e01b81526004016110c193929190614ce0565b602060405180830381600087803b1580156110db57600080fd5b505af11580156110ef573d6000803e3d6000fd5b505050506040513d601f19601f82011682018060405250810190611113919061432f565b506001600660003373ffffffffffffffffffffffffffffffffffffffff1673ffffffffffffffffffffffffffffffffffffffff1681526020019081526020016000206002015461116391906151fa565b600660003373ffffffffffffffffffffffffffffffffffffffff1673ffffffffffffffffffffffffffffffffffffffff168152602001908152602001600020600201819055506000600160009054906101000a900473ffffffffffffffffffffffffffffffffffffffff1673ffffffffffffffffffffffffffffffffffffffff16636957a0b26040518163ffffffff1660e01b815260040161120490614eb4565b60206040518083038186803b15801561121c57600080fd5b505afa158015611230573d6000803e3d6000fd5b505050506040513d601f19601f82011682018060405250810190611254919061423f565b905060005b898110156114dd57600089828151811061129c577f4e487b7100000000000000000000000000000000000000000000000000000000600052603260045260246000fd5b60200260200101516dffffffffffffffffffffffffffff16116112be576114ca565b8b73ffffffffffffffffffffffffffffffffffffffff1663cae02df58a8381518110611313577f4e487b7100000000000000000000000000000000000000000000000000000000600052603260045260246000fd5b60200260200101516040518263ffffffff1660e01b81526004016113379190614f8f565b600060405180830381600087803b15801561135157600080fd5b505af1158015611365573d6000803e3d6000fd5b505050506114083360508b84815181106113a8577f4e487b7100000000000000000000000000000000000000000000000000000000600052603260045260246000fd5b60200260200101516dffffffffffffffffffffffffffff16901c8b84815181106113fb577f4e487b7100000000000000000000000000000000000000000000000000000000600052603260045260246000fd5b60200260200101516135ae565b8173ffffffffffffffffffffffffffffffffffffffff16632c74ee4f8f60588c8581518110611460577f4e487b7100000000000000000000000000000000000000000000000000000000600052603260045260246000fd5b60200260200101516dffffffffffffffffffffffffffff16901c6040518363ffffffff1660e01b81526004016114979291906150d7565b600060405180830381600087803b1580156114b157600080fd5b505af11580156114c5573d6000803e3d6000fd5b505050505b80806114d590615416565b915050611259565b507f608df846e407cc9ba823f6935a74fbeeeba9387d9dc7a1d0531f837189a416b98760200151838673ffffffffffffffffffffffffffffffffffffffff166370a08231896040518263ffffffff1660e01b815260040161153e9190614cc5565b60206040518083038186803b15801561155657600080fd5b505afa15801561156a573d6000803e3d6000fd5b505050506040513d601f19601f8201168201806040525081019061158e919061443f565b60405161159d93929190614fc5565b60405180910390a150505050505050505050505050565b600061160782600760008673ffffffffffffffffffffffffffffffffffffffff1673ffffffffffffffffffffffffffffffffffffffff16815260200190815260200160002061356890919063ffffffff16565b905092915050565b6040518060400160405280600681526020017f434f4e4649470000000000000000000000000000000000000000000000000000815250600160009054906101000a900473ffffffffffffffffffffffffffffffffffffffff1673ffffffffffffffffffffffffffffffffffffffff1663f5e65c7233836040518363ffffffff1660e01b81526004016116a2929190614d17565b60206040518083038186803b1580156116ba57600080fd5b505afa1580156116ce573d6000803e3d6000fd5b505050506040513d601f19601f820116820180604052508101906116f2919061432f565b611731576040517f08c379a000000000000000000000000000000000000000000000000000000000815260040161172890614f34565b60405180910390fd5b816002846040516117429190614c84565b908152602001604051809103902081905550505050565b6040518060400160405280600581526020017f434c41494d000000000000000000000000000000000000000000000000000000815250600160009054906101000a900473ffffffffffffffffffffffffffffffffffffffff1673ffffffffffffffffffffffffffffffffffffffff1663466f98e860006040518263ffffffff1660e01b81526004016117eb9190614d47565b60206040518083038186803b15801561180357600080fd5b505afa158015611817573d6000803e3d6000fd5b505050506040513d601f19601f8201168201806040525081019061183b919061432f565b15806118f25750600160009054906101000a900473ffffffffffffffffffffffffffffffffffffffff1673ffffffffffffffffffffffffffffffffffffffff1663466f98e86000836040518363ffffffff1660e01b81526004016118a0929190614d17565b60206040518083038186803b1580156118b857600080fd5b505afa1580156118cc573d6000803e3d6000fd5b505050506040513d601f19601f820116820180604052508101906118f0919061432f565b155b806119a55750600160009054906101000a900473ffffffffffffffffffffffffffffffffffffffff1673ffffffffffffffffffffffffffffffffffffffff1663466f98e8336040518263ffffffff1660e01b81526004016119539190614d47565b60206040518083038186803b15801561196b57600080fd5b505afa15801561197f573d6000803e3d6000fd5b505050506040513d601f19601f820116820180604052508101906119a3919061432f565b155b80611a5a5750600160009054906101000a900473ffffffffffffffffffffffffffffffffffffffff1673ffffffffffffffffffffffffffffffffffffffff1663466f98e833836040518363ffffffff1660e01b8152600401611a08929190614d17565b60206040518083038186803b158015611a2057600080fd5b505afa158015611a34573d6000803e3d6000fd5b505050506040513d601f19601f82011682018060405250810190611a58919061432f565b155b611a99576040517f08c379a0000000000000000000000000000000000000000000000000000000008152600401611a9090614f34565b60405180910390fd5b6000611aa433612b01565b905060008111611ae9576040517f08c379a0000000000000000000000000000000000000000000000000000000008152600401611ae090614e34565b60405180910390fd5b42600660003373ffffffffffffffffffffffffffffffffffffffff1673ffffffffffffffffffffffffffffffffffffffff168152602001908152602001600020600101819055506000600160009054906101000a900473ffffffffffffffffffffffffffffffffffffffff1673ffffffffffffffffffffffffffffffffffffffff16636957a0b26040518163ffffffff1660e01b8152600401611b8b90614e14565b60206040518083038186803b158015611ba357600080fd5b505afa158015611bb7573d6000803e3d6000fd5b505050506040513d601f19601f82011682018060405250810190611bdb919061423f565b90506000600160009054906101000a900473ffffffffffffffffffffffffffffffffffffffff1673ffffffffffffffffffffffffffffffffffffffff16636957a0b26040518163ffffffff1660e01b8152600401611c3890614e74565b60206040518083038186803b158015611c5057600080fd5b505afa158015611c64573d6000803e3d6000fd5b505050506040513d601f19601f82011682018060405250810190611c88919061423f565b90508073ffffffffffffffffffffffffffffffffffffffff166323b872dd8333866040518463ffffffff1660e01b8152600401611cc793929190614ce0565b602060405180830381600087803b158015611ce157600080fd5b505af1158015611cf5573d6000803e3d6000fd5b505050506040513d601f19601f82011682018060405250810190611d19919061432f565b507fe630ca519fedafd2bd9bd35ad65e198e08398f47c88ca063c406740992bcd1a483600660003373ffffffffffffffffffffffffffffffffffffffff1673ffffffffffffffffffffffffffffffffffffffff168152602001908152602001600020600001546002604051611d8d90614cb0565b908152602001604051809103902054604051611dab93929190615040565b60405180910390a150505050565b60006002604051611dc990614cb0565b908152602001604051809103902054905090565b6002818051602081018201805184825260208301602085012081835280955050505050506000915090505481565b611e136136f7565b73ffffffffffffffffffffffffffffffffffffffff16611e31612005565b73ffffffffffffffffffffffffffffffffffffffff1614611e87576040517f08c379a0000000000000000000000000000000000000000000000000000000008152600401611e7e90614e94565b60405180910390fd5b600073ffffffffffffffffffffffffffffffffffffffff1660008054906101000a900473ffffffffffffffffffffffffffffffffffffffff1673ffffffffffffffffffffffffffffffffffffffff167f8be0079c531659141344cd1fd0a4f28419497f9722a3daafe3b4186f6b6457e060405160405180910390a360008060006101000a81548173ffffffffffffffffffffffffffffffffffffffff021916908373ffffffffffffffffffffffffffffffffffffffff160217905550565b611f4d6136f7565b73ffffffffffffffffffffffffffffffffffffffff16611f6b612005565b73ffffffffffffffffffffffffffffffffffffffff1614611fc1576040517f08c379a0000000000000000000000000000000000000000000000000000000008152600401611fb890614e94565b60405180910390fd5b80600160006101000a81548173ffffffffffffffffffffffffffffffffffffffff021916908373ffffffffffffffffffffffffffffffffffffffff16021790555050565b60008060009054906101000a900473ffffffffffffffffffffffffffffffffffffffff16905090565b6040518060400160405280600881526020017f52454445454d4544000000000000000000000000000000000000000000000000815250600160009054906101000a900473ffffffffffffffffffffffffffffffffffffffff1673ffffffffffffffffffffffffffffffffffffffff1663466f98e860006040518263ffffffff1660e01b81526004016120c09190614d47565b60206040518083038186803b1580156120d857600080fd5b505afa1580156120ec573d6000803e3d6000fd5b505050506040513d601f19601f82011682018060405250810190612110919061432f565b15806121c75750600160009054906101000a900473ffffffffffffffffffffffffffffffffffffffff1673ffffffffffffffffffffffffffffffffffffffff1663466f98e86000836040518363ffffffff1660e01b8152600401612175929190614d17565b60206040518083038186803b15801561218d57600080fd5b505afa1580156121a1573d6000803e3d6000fd5b505050506040513d601f19601f820116820180604052508101906121c5919061432f565b155b8061227a5750600160009054906101000a900473ffffffffffffffffffffffffffffffffffffffff1673ffffffffffffffffffffffffffffffffffffffff1663466f98e8336040518263ffffffff1660e01b81526004016122289190614d47565b60206040518083038186803b15801561224057600080fd5b505afa158015612254573d6000803e3d6000fd5b505050506040513d601f19601f82011682018060405250810190612278919061432f565b155b8061232f5750600160009054906101000a900473ffffffffffffffffffffffffffffffffffffffff1673ffffffffffffffffffffffffffffffffffffffff1663466f98e833836040518363ffffffff1660e01b81526004016122dd929190614d17565b60206040518083038186803b1580156122f557600080fd5b505afa158015612309573d6000803e3d6000fd5b505050506040513d601f19601f8201168201806040525081019061232d919061432f565b155b61236e576040517f08c379a000000000000000000000000000000000000000000000000000000000815260040161236590614f34565b60405180910390fd5b6000600160009054906101000a900473ffffffffffffffffffffffffffffffffffffffff1673ffffffffffffffffffffffffffffffffffffffff16636957a0b26040518163ffffffff1660e01b81526004016123c990614f14565b60206040518083038186803b1580156123e157600080fd5b505afa1580156123f5573d6000803e3d6000fd5b505050506040513d601f19601f82011682018060405250810190612419919061423f565b90508073ffffffffffffffffffffffffffffffffffffffff16636352211e846040518263ffffffff1660e01b81526004016124549190614faa565b60206040518083038186803b15801561246c57600080fd5b505afa158015612480573d6000803e3d6000fd5b505050506040513d601f19601f820116820180604052508101906124a4919061423f565b73ffffffffffffffffffffffffffffffffffffffff163373ffffffffffffffffffffffffffffffffffffffff1614612511576040517f08c379a000000000000000000000000000000000000000000000000000000000815260040161250890614e54565b60405180910390fd5b6000600160009054906101000a900473ffffffffffffffffffffffffffffffffffffffff1673ffffffffffffffffffffffffffffffffffffffff16636957a0b26040518163ffffffff1660e01b815260040161256c90614e14565b60206040518083038186803b15801561258457600080fd5b505afa158015612598573d6000803e3d6000fd5b505050506040513d601f19601f820116820180604052508101906125bc919061423f565b90506000600160009054906101000a900473ffffffffffffffffffffffffffffffffffffffff1673ffffffffffffffffffffffffffffffffffffffff16636957a0b26040518163ffffffff1660e01b815260040161261990614e74565b60206040518083038186803b15801561263157600080fd5b505afa158015612645573d6000803e3d6000fd5b505050506040513d601f19601f82011682018060405250810190612669919061423f565b9050612673613fd7565b73__NftLibrary____________________________6347d9b14d876040518263ffffffff1660e01b81526004016126aa9190614f74565b60c06040518083038186803b1580156126c257600080fd5b505af41580156126d6573d6000803e3d6000fd5b505050506040513d601f19601f820116820180604052508101906126fa91906143ed565b9050600061271d670de0b6b3a7640000836080015161358290919063ffffffff16565b905061274d606461273f846060015161ffff168461358290919063ffffffff16565b61359890919063ffffffff16565b905060008111612792576040517f08c379a000000000000000000000000000000000000000000000000000000000815260040161278990614ef4565b60405180910390fd5b8273ffffffffffffffffffffffffffffffffffffffff166323b872dd8533846040518463ffffffff1660e01b81526004016127cf93929190614ce0565b602060405180830381600087803b1580156127e957600080fd5b505af11580156127fd573d6000803e3d6000fd5b505050506040513d601f19601f82011682018060405250810190612821919061432f565b506000600160009054906101000a900473ffffffffffffffffffffffffffffffffffffffff1673ffffffffffffffffffffffffffffffffffffffff16636957a0b26040518163ffffffff1660e01b815260040161287d90614eb4565b60206040518083038186803b15801561289557600080fd5b505afa1580156128a9573d6000803e3d6000fd5b505050506040513d601f19601f820116820180604052508101906128cd919061423f565b90508073ffffffffffffffffffffffffffffffffffffffff16632c74ee4f846000015185602001516040518363ffffffff1660e01b8152600401612912929190615077565b600060405180830381600087803b15801561292c57600080fd5b505af1158015612940573d6000803e3d6000fd5b505050508573ffffffffffffffffffffffffffffffffffffffff1663cae02df5896040518263ffffffff1660e01b815260040161297d9190614f8f565b600060405180830381600087803b15801561299757600080fd5b505af11580156129ab573d6000803e3d6000fd5b505050506129be3384604001518a6135ae565b7f6f73b7b8d37df32ea60a45eadc8fc3d2d716d705ee099bd506817482ce847316828573ffffffffffffffffffffffffffffffffffffffff166370a08231886040518263ffffffff1660e01b8152600401612a199190614cc5565b60206040518083038186803b158015612a3157600080fd5b505afa158015612a45573d6000803e3d6000fd5b505050506040513d601f19601f82011682018060405250810190612a69919061443f565b604051612a77929190615017565b60405180910390a15050505050505050565b60056020528060005260406000206000915090508060000160009054906101000a900460ff16908060000160019054906101000a900461ffff16908060000160039054906101000a900460ff16905083565b600160009054906101000a900473ffffffffffffffffffffffffffffffffffffffff1681565b600080612b0c6136ff565b90506000612b696305f5e100600660008773ffffffffffffffffffffffffffffffffffffffff1673ffffffffffffffffffffffffffffffffffffffff1681526020019081526020016000206000015461358290919063ffffffff16565b9050612b9a6002604051612b7c90614cb0565b9081526020016040518091039020548261359890919063ffffffff16565b90506000600660008673ffffffffffffffffffffffffffffffffffffffff1673ffffffffffffffffffffffffffffffffffffffff1681526020019081526020016000206001015442612bec91906152db565b9050612c1382612c05838661358290919063ffffffff16565b61358290919063ffffffff16565b9350612c3f6064612c316305f5e1008761359890919063ffffffff16565b61359890919063ffffffff16565b9350505050919050565b6040518060400160405280600681526020017f434f4e4649470000000000000000000000000000000000000000000000000000815250600160009054906101000a900473ffffffffffffffffffffffffffffffffffffffff1673ffffffffffffffffffffffffffffffffffffffff1663f5e65c7233836040518363ffffffff1660e01b8152600401612cdc929190614d17565b60206040518083038186803b158015612cf457600080fd5b505afa158015612d08573d6000803e3d6000fd5b505050506040513d601f19601f82011682018060405250810190612d2c919061432f565b612d6b576040517f08c379a0000000000000000000000000000000000000000000000000000000008152600401612d6290614f34565b60405180910390fd5b83600560008760ff1660ff16815260200190815260200160002060000160006101000a81548160ff021916908360ff16021790555082600560008760ff1660ff16815260200190815260200160002060000160016101000a81548161ffff021916908361ffff16021790555081600560008760ff1660ff16815260200190815260200160002060000160036101000a81548160ff021916908360ff1602179055505050505050565b60606000612e5e600760008573ffffffffffffffffffffffffffffffffffffffff1673ffffffffffffffffffffffffffffffffffffffff168152602001908152602001600020613773565b90508067ffffffffffffffff811115612ea0577f4e487b7100000000000000000000000000000000000000000000000000000000600052604160045260246000fd5b604051908082528060200260200182016040528015612ed957816020015b612ec6613fd7565b815260200190600190039081612ebe5790505b50915060005b81811015613087576000612f3a82600760008873ffffffffffffffffffffffffffffffffffffffff1673ffffffffffffffffffffffffffffffffffffffff16815260200190815260200160002061356890919063ffffffff16565b905073__NftLibrary____________________________6347d9b14d826040518263ffffffff1660e01b8152600401612f739190614f74565b60c06040518083038186803b158015612f8b57600080fd5b505af4158015612f9f573d6000803e3d6000fd5b505050506040513d601f19601f82011682018060405250810190612fc391906143ed565b848381518110612ffc577f4e487b7100000000000000000000000000000000000000000000000000000000600052603260045260246000fd5b602002602001018190525080848381518110613041577f4e487b7100000000000000000000000000000000000000000000000000000000600052603260045260246000fd5b602002602001015160a001906dffffffffffffffffffffffffffff1690816dffffffffffffffffffffffffffff168152505050808061307f90615416565b915050612edf565b5050919050565b6040518060400160405280600881526020017f45584348414e4745000000000000000000000000000000000000000000000000815250600160009054906101000a900473ffffffffffffffffffffffffffffffffffffffff1673ffffffffffffffffffffffffffffffffffffffff1663f5e65c7233836040518363ffffffff1660e01b8152600401613121929190614d17565b60206040518083038186803b15801561313957600080fd5b505afa15801561314d573d6000803e3d6000fd5b505050506040513d601f19601f82011682018060405250810190613171919061432f565b6131b0576040517f08c379a00000000000000000000000000000000000000000000000000000000081526004016131a790614f34565b60405180910390fd5b600073ffffffffffffffffffffffffffffffffffffffff168373ffffffffffffffffffffffffffffffffffffffff161415801561320957506132078373ffffffffffffffffffffffffffffffffffffffff16613788565b155b1561321b5761321a8383600161379b565b5b600073ffffffffffffffffffffffffffffffffffffffff168473ffffffffffffffffffffffffffffffffffffffff161415801561327457506132728473ffffffffffffffffffffffffffffffffffffffff16613788565b155b15613286576132858483600061379b565b5b50505050565b6132946136f7565b73ffffffffffffffffffffffffffffffffffffffff166132b2612005565b73ffffffffffffffffffffffffffffffffffffffff1614613308576040517f08c379a00000000000000000000000000000000000000000000000000000000081526004016132ff90614e94565b60405180910390fd5b600073ffffffffffffffffffffffffffffffffffffffff168173ffffffffffffffffffffffffffffffffffffffff161415613378576040517f08c379a000000000000000000000000000000000000000000000000000000000815260040161336f90614df4565b60405180910390fd5b8073ffffffffffffffffffffffffffffffffffffffff1660008054906101000a900473ffffffffffffffffffffffffffffffffffffffff1673ffffffffffffffffffffffffffffffffffffffff167f8be0079c531659141344cd1fd0a4f28419497f9722a3daafe3b4186f6b6457e060405160405180910390a3806000806101000a81548173ffffffffffffffffffffffffffffffffffffffff021916908373ffffffffffffffffffffffffffffffffffffffff16021790555050565b6040518060400160405280600881526020017f4341524453484f50000000000000000000000000000000000000000000000000815250600160009054906101000a900473ffffffffffffffffffffffffffffffffffffffff1673ffffffffffffffffffffffffffffffffffffffff1663f5e65c7233836040518363ffffffff1660e01b81526004016134c8929190614d17565b60206040518083038186803b1580156134e057600080fd5b505afa1580156134f4573d6000803e3d6000fd5b505050506040513d601f19601f82011682018060405250810190613518919061432f565b613557576040517f08c379a000000000000000000000000000000000000000000000000000000000815260040161354e90614f34565b60405180910390fd5b6135638383600161379b565b505050565b60006135778360000183613cab565b60001c905092915050565b600081836135909190615281565b905092915050565b600081836135a69190615250565b905092915050565b61360f816dffffffffffffffffffffffffffff16600760008673ffffffffffffffffffffffffffffffffffffffff1673ffffffffffffffffffffffffffffffffffffffff168152602001908152602001600020613d4590919063ffffffff16565b508160ff16600260405161362290614cb0565b90815260200160405180910390205461363b91906152db565b600260405161364990614cb0565b9081526020016040518091039020819055508160ff16600660008573ffffffffffffffffffffffffffffffffffffffff1673ffffffffffffffffffffffffffffffffffffffff168152602001908152602001600020600001546136ac91906152db565b600660008573ffffffffffffffffffffffffffffffffffffffff1673ffffffffffffffffffffffffffffffffffffffff16815260200190815260200160002060000181905550505050565b600033905090565b600061373261016d600260405161371590614c9b565b90815260200160405180910390205461359890919063ffffffff16565b905061376e603c613760603c61375260188661359890919063ffffffff16565b61359890919063ffffffff16565b61359890919063ffffffff16565b905090565b600061378182600001613d5f565b9050919050565b600080823b905060008111915050919050565b6137a3613fd7565b73__NftLibrary____________________________6347d9b14d846040518263ffffffff1660e01b81526004016137da9190614f74565b60c06040518083038186803b1580156137f257600080fd5b505af4158015613806573d6000803e3d6000fd5b505050506040513d601f19601f8201168201806040525081019061382a91906143ed565b9050600115158215151415613b58576000613882600760008773ffffffffffffffffffffffffffffffffffffffff1673ffffffffffffffffffffffffffffffffffffffff168152602001908152602001600020613773565b116138eb576003849080600181540180825580915050600190039060005260206000200160009091909190916101000a81548173ffffffffffffffffffffffffffffffffffffffff021916908373ffffffffffffffffffffffffffffffffffffffff1602179055505b6001816000015160ff16141561393457600160046000836020015161ffff1661ffff16815260200190815260200160002060006101000a81548160ff0219169083151502179055505b806040015160ff16600260405161394a90614cb0565b90815260200160405180910390205461396391906151fa565b600260405161397190614cb0565b9081526020016040518091039020819055506000600660008673ffffffffffffffffffffffffffffffffffffffff1673ffffffffffffffffffffffffffffffffffffffff1681526020019081526020016000206001015411613a55576040518060600160405280826040015160ff1681526020014281526020016000815250600660008673ffffffffffffffffffffffffffffffffffffffff1673ffffffffffffffffffffffffffffffffffffffff168152602001908152602001600020600082015181600001556020820151816001015560408201518160020155905050613af1565b806040015160ff16600660008673ffffffffffffffffffffffffffffffffffffffff1673ffffffffffffffffffffffffffffffffffffffff16815260200190815260200160002060000154613aaa91906151fa565b600660008673ffffffffffffffffffffffffffffffffffffffff1673ffffffffffffffffffffffffffffffffffffffff168152602001908152602001600020600001819055505b613b52836dffffffffffffffffffffffffffff16600760008773ffffffffffffffffffffffffffffffffffffffff1673ffffffffffffffffffffffffffffffffffffffff168152602001908152602001600020613d7090919063ffffffff16565b50613ca5565b613bb9836dffffffffffffffffffffffffffff16600760008773ffffffffffffffffffffffffffffffffffffffff1673ffffffffffffffffffffffffffffffffffffffff168152602001908152602001600020613d4590919063ffffffff16565b50806040015160ff16600660008673ffffffffffffffffffffffffffffffffffffffff1673ffffffffffffffffffffffffffffffffffffffff16815260200190815260200160002060000154613c0f91906152db565b600660008673ffffffffffffffffffffffffffffffffffffffff1673ffffffffffffffffffffffffffffffffffffffff16815260200190815260200160002060000181905550806040015160ff166002604051613c6b90614cb0565b908152602001604051809103902054613c8491906152db565b6002604051613c9290614cb0565b9081526020016040518091039020819055505b50505050565b600081836000018054905011613cf6576040517f08c379a0000000000000000000000000000000000000000000000000000000008152600401613ced90614dd4565b60405180910390fd5b826000018281548110613d32577f4e487b7100000000000000000000000000000000000000000000000000000000600052603260045260246000fd5b9060005260206000200154905092915050565b6000613d57836000018360001b613d8a565b905092915050565b600081600001805490509050919050565b6000613d82836000018360001b613f14565b905092915050565b60008083600101600084815260200190815260200160002054905060008114613f08576000600182613dbc91906152db565b9050600060018660000180549050613dd491906152db565b90506000866000018281548110613e14577f4e487b7100000000000000000000000000000000000000000000000000000000600052603260045260246000fd5b9060005260206000200154905080876000018481548110613e5e577f4e487b7100000000000000000000000000000000000000000000000000000000600052603260045260246000fd5b9060005260206000200181905550600183613e7991906151fa565b8760010160008381526020019081526020016000208190555086600001805480613ecc577f4e487b7100000000000000000000000000000000000000000000000000000000600052603160045260246000fd5b60019003818190600052602060002001600090559055866001016000878152602001908152602001600020600090556001945050505050613f0e565b60009150505b92915050565b6000613f208383613f84565b613f79578260000182908060018154018082558091505060019003906000526020600020016000909190919091505582600001805490508360010160008481526020019081526020016000208190555060019050613f7e565b600090505b92915050565b600080836001016000848152602001908152602001600020541415905092915050565b6040518060400160405280600073ffffffffffffffffffffffffffffffffffffffff168152602001600081525090565b6040518060c00160405280600060ff168152602001600061ffff168152602001600060ff168152602001600061ffff1681526020016000815260200160006dffffffffffffffffffffffffffff1681525090565b600061403e61403984615131565b615100565b90508281526020810184848401111561405657600080fd5b6140618482856153d4565b509392505050565b600081359050614078816154fd565b92915050565b60008151905061408d816154fd565b92915050565b6000815190506140a281615514565b92915050565b600082601f8301126140b957600080fd5b81356140c984826020860161402b565b91505092915050565b600060c082840312156140e457600080fd5b6140ee60c0615100565b905060006140fe84828501614201565b6000830152506020614112848285016141ad565b602083015250604061412684828501614201565b604083015250606061413a848285016141ad565b606083015250608061414e848285016141d7565b60808301525060a061416284828501614183565b60a08301525092915050565b60008135905061417d8161552b565b92915050565b6000815190506141928161552b565b92915050565b6000813590506141a781615542565b92915050565b6000815190506141bc81615542565b92915050565b6000813590506141d181615559565b92915050565b6000815190506141e681615559565b92915050565b6000813590506141fb81615570565b92915050565b60008151905061421081615570565b92915050565b60006020828403121561422857600080fd5b600061423684828501614069565b91505092915050565b60006020828403121561425157600080fd5b600061425f8482850161407e565b91505092915050565b60008060006060848603121561427d57600080fd5b600061428b86828701614069565b935050602061429c86828701614069565b92505060406142ad8682870161416e565b9150509250925092565b600080604083850312156142ca57600080fd5b60006142d885828601614069565b92505060206142e98582860161416e565b9150509250929050565b6000806040838503121561430657600080fd5b600061431485828601614069565b9250506020614325858286016141c2565b9150509250929050565b60006020828403121561434157600080fd5b600061434f84828501614093565b91505092915050565b60006020828403121561436a57600080fd5b600082013567ffffffffffffffff81111561438457600080fd5b614390848285016140a8565b91505092915050565b600080604083850312156143ac57600080fd5b600083013567ffffffffffffffff8111156143c657600080fd5b6143d2858286016140a8565b92505060206143e3858286016141c2565b9150509250929050565b600060c082840312156143ff57600080fd5b600061440d848285016140d2565b91505092915050565b60006020828403121561442857600080fd5b60006144368482850161416e565b91505092915050565b60006020828403121561445157600080fd5b600061445f848285016141d7565b91505092915050565b60006020828403121561447a57600080fd5b6000614488848285016141ec565b91505092915050565b600080600080608085870312156144a757600080fd5b60006144b5878288016141ec565b94505060206144c6878288016141ec565b93505060406144d787828801614198565b92505060606144e8878288016141ec565b91505092959194509250565b60006145008383614b35565b60c08301905092915050565b60006145188383614bb0565b60408301905092915050565b61452d8161530f565b82525050565b61453c8161530f565b82525050565b600061454d82615181565b61455781856151bc565b935061456283615161565b8060005b8381101561459357815161457a88826144f4565b9750614585836151a2565b925050600181019050614566565b5085935050505092915050565b60006145ab8261518c565b6145b581856151cd565b93506145c083615171565b8060005b838110156145f15781516145d8888261450c565b97506145e3836151af565b9250506001810190506145c4565b5085935050505092915050565b6146078161538c565b82525050565b600061461882615197565b61462281856151de565b93506146328185602086016153e3565b61463b816154ec565b840191505092915050565b600061465182615197565b61465b81856151ef565b935061466b8185602086016153e3565b80840191505092915050565b60006146846022836151de565b91507f456e756d657261626c655365743a20696e646578206f7574206f6620626f756e60008301527f64730000000000000000000000000000000000000000000000000000000000006020830152604082019050919050565b60006146ea6006836151ef565b91507f52455741524400000000000000000000000000000000000000000000000000006000830152600682019050919050565b600061472a6006836151ef565b91507f504f5745525300000000000000000000000000000000000000000000000000006000830152600682019050919050565b600061476a6026836151de565b91507f4f776e61626c653a206e6577206f776e657220697320746865207a65726f206160008301527f64647265737300000000000000000000000000000000000000000000000000006020830152604082019050919050565b60006147d06005836151de565b91507f464f554e440000000000000000000000000000000000000000000000000000006000830152602082019050919050565b6000614810601c836151de565b91507f464947485445523a2054686520726577617264206973207a65726f2e000000006000830152602082019050919050565b60006148506017836151de565b91507f434152445245574152443a204f6e6c79206f6e7765722e0000000000000000006000830152602082019050919050565b60006148906005836151de565b91507f544f4b454e0000000000000000000000000000000000000000000000000000006000830152602082019050919050565b60006148d06020836151de565b91507f4f776e61626c653a2063616c6c6572206973206e6f7420746865206f776e65726000830152602082019050919050565b60006149106008836151de565b91507f4341524453484f500000000000000000000000000000000000000000000000006000830152602082019050919050565b60006149506003836151de565b91507f414c4c00000000000000000000000000000000000000000000000000000000006000830152602082019050919050565b60006149906028836151de565b91507f434152445245574152443a20496e73756666696369656e74206e756d6265722060008301527f6f66204e4654732e0000000000000000000000000000000000000000000000006020830152604082019050919050565b60006149f66018836151de565b91507f464947485445523a20526577617264206973207a65726f2e00000000000000006000830152602082019050919050565b6000614a366007836151de565b91507f46494748544552000000000000000000000000000000000000000000000000006000830152602082019050919050565b6000614a766024836151de565b91507f4d656d6265723a20546865206f7065726174696f6e206973206e6f7420616c6c60008301527f6f776564000000000000000000000000000000000000000000000000000000006020830152604082019050919050565b6000614adc6027836151de565b91507f434152445245574152443a2048617665206e6f2072657761726420746f20657860008301527f6368616e67652e000000000000000000000000000000000000000000000000006020830152604082019050919050565b60c082016000820151614b4b6000850182614c66565b506020820151614b5e6020850182614c1b565b506040820151614b716040850182614c66565b506060820151614b846060850182614c1b565b506080820151614b976080850182614c39565b5060a0820151614baa60a0850182614bdf565b50505050565b604082016000820151614bc66000850182614524565b506020820151614bd96020850182614c39565b50505050565b614be88161532d565b82525050565b614bf78161532d565b82525050565b614c068161532d565b82525050565b614c15816153b0565b82525050565b614c2481615347565b82525050565b614c3381615347565b82525050565b614c4281615375565b82525050565b614c5181615375565b82525050565b614c60816153c2565b82525050565b614c6f8161537f565b82525050565b614c7e8161537f565b82525050565b6000614c908284614646565b915081905092915050565b6000614ca6826146dd565b9150819050919050565b6000614cbb8261471d565b9150819050919050565b6000602082019050614cda6000830184614533565b92915050565b6000606082019050614cf56000830186614533565b614d026020830185614533565b614d0f6040830184614c48565b949350505050565b6000604082019050614d2c6000830185614533565b8181036020830152614d3e818461460d565b90509392505050565b6000604082019050614d5c6000830184614533565b8181036020830152614d6d81614943565b905092915050565b60006020820190508181036000830152614d8f8184614542565b905092915050565b60006020820190508181036000830152614db181846145a0565b905092915050565b6000602082019050614dce60008301846145fe565b92915050565b60006020820190508181036000830152614ded81614677565b9050919050565b60006020820190508181036000830152614e0d8161475d565b9050919050565b60006020820190508181036000830152614e2d816147c3565b9050919050565b60006020820190508181036000830152614e4d81614803565b9050919050565b60006020820190508181036000830152614e6d81614843565b9050919050565b60006020820190508181036000830152614e8d81614883565b9050919050565b60006020820190508181036000830152614ead816148c3565b9050919050565b60006020820190508181036000830152614ecd81614903565b9050919050565b60006020820190508181036000830152614eed81614983565b9050919050565b60006020820190508181036000830152614f0d816149e9565b9050919050565b60006020820190508181036000830152614f2d81614a29565b9050919050565b60006020820190508181036000830152614f4d81614a69565b9050919050565b60006020820190508181036000830152614f6d81614acf565b9050919050565b6000602082019050614f896000830184614bfd565b92915050565b6000602082019050614fa46000830184614bee565b92915050565b6000602082019050614fbf6000830184614c0c565b92915050565b6000606082019050614fda6000830186614c2a565b614fe76020830185614c48565b614ff46040830184614c48565b949350505050565b60006020820190506150116000830184614c48565b92915050565b600060408201905061502c6000830185614c48565b6150396020830184614c48565b9392505050565b60006060820190506150556000830186614c48565b6150626020830185614c48565b61506f6040830184614c48565b949350505050565b600060408201905061508c6000830185614c75565b6150996020830184614c2a565b9392505050565b60006060820190506150b56000830186614c75565b6150c26020830185614c2a565b6150cf6040830184614c75565b949350505050565b60006040820190506150ec6000830185614c75565b6150f96020830184614c57565b9392505050565b6000604051905081810181811067ffffffffffffffff82111715615127576151266154bd565b5b8060405250919050565b600067ffffffffffffffff82111561514c5761514b6154bd565b5b601f19601f8301169050602081019050919050565b6000819050602082019050919050565b6000819050602082019050919050565b600081519050919050565b600081519050919050565b600081519050919050565b6000602082019050919050565b6000602082019050919050565b600082825260208201905092915050565b600082825260208201905092915050565b600082825260208201905092915050565b600081905092915050565b600061520582615375565b915061521083615375565b9250827fffffffffffffffffffffffffffffffffffffffffffffffffffffffffffffffff038211156152455761524461545f565b5b828201905092915050565b600061525b82615375565b915061526683615375565b9250826152765761527561548e565b5b828204905092915050565b600061528c82615375565b915061529783615375565b9250817fffffffffffffffffffffffffffffffffffffffffffffffffffffffffffffffff04831182151516156152d0576152cf61545f565b5b828202905092915050565b60006152e682615375565b91506152f183615375565b9250828210156153045761530361545f565b5b828203905092915050565b600061531a82615355565b9050919050565b60008115159050919050565b60006dffffffffffffffffffffffffffff82169050919050565b600061ffff82169050919050565b600073ffffffffffffffffffffffffffffffffffffffff82169050919050565b6000819050919050565b600060ff82169050919050565b60006153978261539e565b9050919050565b60006153a982615355565b9050919050565b60006153bb8261532d565b9050919050565b60006153cd8261537f565b9050919050565b82818337600083830152505050565b60005b838110156154015780820151818401526020810190506153e6565b83811115615410576000848401525b50505050565b600061542182615375565b91507fffffffffffffffffffffffffffffffffffffffffffffffffffffffffffffffff8214156154545761545361545f565b5b600182019050919050565b7f4e487b7100000000000000000000000000000000000000000000000000000000600052601160045260246000fd5b7f4e487b7100000000000000000000000000000000000000000000000000000000600052601260045260246000fd5b7f4e487b7100000000000000000000000000000000000000000000000000000000600052604160045260246000fd5b6000601f19601f8301169050919050565b6155068161530f565b811461551157600080fd5b50565b61551d81615321565b811461552857600080fd5b50565b6155348161532d565b811461553f57600080fd5b50565b61554b81615347565b811461555657600080fd5b50565b61556281615375565b811461556d57600080fd5b50565b6155798161537f565b811461558457600080fd5b5056fea2646970667358221220707ab3df16223369378dbf7f13ebaba3c6e35815d8a209cde641e2fb9f21f0a764736f6c63430008000033",
  "immutableReferences": {},
  "source": "// SPDX-License-Identifier: SimPL-2.0\n\npragma solidity ^0.8.0;\npragma experimental ABIEncoderV2;\n\nimport \"../token/Fighter.sol\";\nimport \"../core/CardShop.sol\";\nimport \"../authority/Member.sol\";\nimport \"../libraries/NftLibrary.sol\";\n\nimport \"@openzeppelin/contracts/token/ERC20/IERC20.sol\";\nimport \"@openzeppelin/contracts/token/ERC721/IERC721.sol\";\n\nimport \"@openzeppelin/contracts/utils/Address.sol\";\nimport \"@openzeppelin/contracts/utils/math/SafeMath.sol\";\nimport \"@openzeppelin/contracts/utils/structs/EnumerableSet.sol\";\n\n/**\n * @title Fighter Z Token Card Shop\n *\n * @author Bit Lighthouse. Ace\n * AT: 2021-3-28 | VERSION: v1.0.2\n */\n\ncontract CardReward is Member {\n    using Address for address;\n    using SafeMath for uint256;\n    using EnumerableSet for EnumerableSet.UintSet;\n\n    address[] private _users;\n\n    mapping (uint16 => bool) private _specials;\n\n    mapping (uint8 => NftLibrary.RateStruct) public _rates;\n    mapping (address => NftLibrary.UserStruct) private _usr;\n    mapping (address => EnumerableSet.UintSet) private _tokens;\n\n    struct RankStruct { address account; uint256 power; }\n    event Claim(uint256 reward, uint256 power, uint256 total_power);\n    event Redeemed(uint256 reward, uint256 surpls);\n    event DoExchange(uint16 rate, uint256 reward, uint256 surpls);\n\n    constructor(address auth_) Member(auth_) {\n        configs[\"POWERS\"] = 0;\n        configs[\"REWARD\"] = 1e26;\n\n        _rates[1] = NftLibrary.RateStruct(7, 35, 7);\n        _rates[2] = NftLibrary.RateStruct(3, 10, 1);\n        _rates[3] = NftLibrary.RateStruct(5, 5, 1);\n        _rates[4] = NftLibrary.RateStruct(10, 1, 1);\n        _rates[5] = NftLibrary.RateStruct(0, 0, 0);\n    }\n\n    function _getSecondReward() private view returns\n        (uint256 sr) {\n\n        sr = configs[\"REWARD\"].div(365);\n        sr = sr.div(24).div(60).div(60);\n    }\n\n    function _doBurn(\n        address account_, uint8 power_, uint112 tokenId_\n    ) private {\n        _tokens[account_].remove(tokenId_);\n        configs[\"POWERS\"] = configs[\"POWERS\"] - power_;\n        _usr[account_].powers = _usr[account_].powers - power_;\n    }\n\n    function _fresRecord(address to_, uint112 tokenId_, bool genre)\n        private {\n\n        NftLibrary.DetailStruct memory cs;\n        cs = NftLibrary.analysis(tokenId_);\n\n        if (genre == true) {\n            if(_tokens[to_].length() <= 0) { _users.push(to_); }\n            if (cs.quality == 1) { _specials[cs.heroId] = true; }\n            configs[\"POWERS\"] = configs[\"POWERS\"] + cs.power;\n            if (_usr[to_].period <= 0) {\n                _usr[to_] = NftLibrary.UserStruct(\n                    cs.power, block.timestamp, 0\n                );\n            } else {\n                _usr[to_].powers = _usr[to_].powers + cs.power;\n            }\n            _tokens[to_].add(tokenId_);\n        } else {\n            _tokens[to_].remove(tokenId_);\n            _usr[to_].powers = _usr[to_].powers - cs.power;\n            configs[\"POWERS\"] = configs[\"POWERS\"] - cs.power;\n        }\n    }\n\n    function setRewardRate(\n        uint8 quality_, uint8 number_, uint16 rate_, uint8 times_\n    ) public CheckPermit(\"CONFIG\") {\n        _rates[quality_].number = number_;\n        _rates[quality_].rate = rate_;\n        _rates[quality_].times = times_;\n    }\n\n    function doBuy(address to_, uint112 tokenId_) public\n        CheckPermit(\"CARDSHOP\") {\n\n        _fresRecord(to_, tokenId_, true);\n    }\n\n    function doExchange(address from_, address to_, uint112 tokenId_)\n        public CheckPermit(\"EXCHANGE\") {\n\n        if (to_ != address(0) && !to_.isContract())\n            _fresRecord(to_, tokenId_, true);\n\n        if (from_ != address(0) && !from_.isContract())\n            _fresRecord(from_, tokenId_, false);\n    }\n\n    function getReward(address account_) public view\n        returns (uint256 reward) {\n\n        uint256 second_reward = _getSecondReward();\n\n        uint256 power_rate = _usr[account_].powers.mul(1e8);\n        power_rate = power_rate.div(configs[\"POWERS\"]);\n        uint256 period = block.timestamp - _usr[account_].period;\n\n        reward = second_reward.mul(period).mul(power_rate);\n        reward = reward.div(1e8).div(100);\n    }\n\n    function getUserPower(address account_) public view\n        returns (uint256 power) {\n\n        power = _usr[account_].powers;\n    }\n\n    function getUserToken(address account_, uint256 i) public\n        view returns (uint256 tokenId) {\n\n        tokenId = _tokens[account_].at(i);\n    }\n\n    function getTotalPower() public view returns (uint256 power) {\n        power = configs[\"POWERS\"];\n    }\n\n    function getTokenList(address account_) public view\n        returns (NftLibrary.DetailStruct[] memory list) {\n\n        uint256 len = _tokens[account_].length();\n        list = new NftLibrary.DetailStruct[](len);\n\n        for (uint i = 0; i < len; i++) {\n            uint256 tokenId = _tokens[account_].at(i);\n            list[i] = NftLibrary.analysis(uint112(tokenId));\n            list[i].tokenId = uint112(tokenId);\n        }\n    }\n\n    function getRanking() public view returns (RankStruct[] memory rank) {\n        rank = new RankStruct[](_users.length);\n\n        for (uint i = 0; i < _users.length; i++) {\n            uint256 power = _usr[_users[i]].powers;\n            rank[i] = RankStruct(_users[i], power);\n        }\n    }\n\n    function claim() public CheckStatus(\"CLAIM\") {\n        uint256 reward = getReward(msg.sender);\n        require(reward > 0, \"FIGHTER: The reward is zero.\");\n        \n        _usr[msg.sender].period = block.timestamp;\n        \n        address sender = authority.members(\"FOUND\");\n        IERC20 token = IERC20(authority.members(\"TOKEN\"));\n\n        token.transferFrom(sender, msg.sender, reward);\n\n        emit Claim(reward, _usr[msg.sender].powers, configs[\"POWERS\"]);\n    }\n\n    function redeemed(uint112 tokenId_) public CheckStatus(\"REDEEMED\") {\n        Fighter figh = Fighter(authority.members(\"FIGHTER\"));\n\n        require(\n            msg.sender == figh.ownerOf(tokenId_),\n            \"CARDREWARD: Only onwer.\"\n        );\n\n        address sender = authority.members(\"FOUND\");\n        IERC20 token = IERC20(authority.members(\"TOKEN\"));\n\n        NftLibrary.DetailStruct memory cs;\n        cs = NftLibrary.analysis(tokenId_);\n\n        uint256 reward = uint256(cs.amount.mul(1e18));\n        reward = reward.mul(uint256(cs.rate)).div(100);\n        require(reward > 0, \"FIGHTER: Reward is zero.\");\n        token.transferFrom(sender, msg.sender, reward);\n\n        address shop = authority.members(\"CARDSHOP\");\n        CardShop(shop).fresh(cs.quality, cs.heroId);\n        figh.doBurn(tokenId_);\n        _doBurn(msg.sender, cs.power, tokenId_);\n        \n        emit Redeemed(reward, token.balanceOf(sender));\n    }\n\n    function exchange(uint8 quality_) public CheckStatus(\"EXCHANGE\") {\n        Fighter figh = Fighter(authority.members(\"FIGHTER\"));\n        uint256 total = 0;\n        \n        uint256 length = figh.balanceOf(msg.sender);\n        uint112[] memory tokens = new uint112[](length);\n\n        for (uint256 i = 0; i < length; i++) {\n            uint256 tokenId = _tokens[msg.sender].at(i);\n            NftLibrary.DetailStruct memory cs;\n            cs = NftLibrary.analysis(uint112(tokenId));\n\n            if (cs.quality != quality_) continue;\n\n            total = total + 1;\n            tokens[i] = uint112(tokenId);\n        }\n\n        NftLibrary.RateStruct memory rs = _rates[quality_];\n        require(\n            rs.number > 0 && total >= rs.number,\n            \"CARDREWARD: Insufficient number of NFTs.\"\n        );\n\n        NftLibrary.UserStruct memory us = _usr[msg.sender];\n        require(\n            total / rs.number < us.exchange || us.exchange == 0,\n            \"CARDREWARD: Have no reward to exchange.\"\n        );\n\n        address sender = authority.members(\"FOUND\");\n        IERC20 token = IERC20(authority.members(\"TOKEN\"));\n\n        uint256 balance = token.balanceOf(sender);\n        uint256 reward = balance.mul(rs.rate).div(100);\n\n        token.transferFrom(sender, msg.sender, reward);\n        _usr[msg.sender].exchange = _usr[msg.sender].exchange + 1;\n\n        CardShop shop = CardShop(authority.members(\"CARDSHOP\"));\n        \n        for (uint256 i = 0; i < length; i++) {\n            if (tokens[i] <= 0) continue;\n\n            figh.doBurn(tokens[i]);\n            _doBurn(msg.sender, uint8(tokens[i] >> 80), tokens[i]);\n            shop.fresh(quality_, uint8(tokens[i] >> 88));\n        }\n\n        emit DoExchange(rs.rate, reward, token.balanceOf(sender));\n    }\n}",
  "sourcePath": "/home/ace/Projects/eth/other/dragon-ball-project/dragon-ball-contract/contracts/core/CardReward.sol",
  "compiler": {
    "name": "solc",
    "version": "0.8.0+commit.c7dfd78e.Emscripten.clang"
  },
  "schemaVersion": "3.4.3",
  "updatedAt": "2021-09-14T02:50:01.966Z",
  "networkType": "ethereum",
  "devdoc": {
    "author": "Bit Lighthouse. Ace AT: 2021-3-28 | VERSION: v1.0.2",
    "kind": "dev",
    "methods": {
      "owner()": {
        "details": "Returns the address of the current owner."
      },
      "renounceOwnership()": {
        "details": "Leaves the contract without owner. It will not be possible to call `onlyOwner` functions anymore. Can only be called by the current owner. NOTE: Renouncing ownership will leave the contract without an owner, thereby removing any functionality that is only available to the owner."
      },
      "setAuthority(address)": {
        "params": {
          "authority_": "address of manager This function is onwer only"
        }
      },
      "setConfig(string,uint256)": {
        "params": {
          "config_": "config's value This function is config only",
          "name_": "name of config"
        }
      },
      "transferOwnership(address)": {
        "details": "Transfers ownership of the contract to a new account (`newOwner`). Can only be called by the current owner."
      }
    },
    "title": "Fighter Z Token Card Shop",
    "version": 1
  },
  "userdoc": {
    "kind": "user",
    "methods": {
      "setAuthority(address)": {
        "notice": "Set new manager"
      },
      "setConfig(string,uint256)": {
        "notice": "Set config of global or contract"
      }
    },
    "version": 1
  }
}