{
  "contractName": "CardShop",
  "abi": [
    {
      "inputs": [
        {
          "internalType": "address",
          "name": "auth_",
          "type": "address"
        }
      ],
      "stateMutability": "nonpayable",
      "type": "constructor"
    },
    {
      "anonymous": false,
      "inputs": [
        {
          "indexed": false,
          "internalType": "uint8",
          "name": "quality",
          "type": "uint8"
        },
        {
          "indexed": false,
          "internalType": "uint16",
          "name": "heroId",
          "type": "uint16"
        },
        {
          "indexed": false,
          "internalType": "uint256",
          "name": "tokenId",
          "type": "uint256"
        },
        {
          "indexed": false,
          "internalType": "uint16",
          "name": "rate",
          "type": "uint16"
        }
      ],
      "name": "Buy",
      "type": "event"
    },
    {
      "anonymous": false,
      "inputs": [
        {
          "indexed": true,
          "internalType": "address",
          "name": "previousOwner",
          "type": "address"
        },
        {
          "indexed": true,
          "internalType": "address",
          "name": "newOwner",
          "type": "address"
        }
      ],
      "name": "OwnershipTransferred",
      "type": "event"
    },
    {
      "inputs": [],
      "name": "authority",
      "outputs": [
        {
          "internalType": "contract Authority",
          "name": "",
          "type": "address"
        }
      ],
      "stateMutability": "view",
      "type": "function",
      "constant": true
    },
    {
      "inputs": [],
      "name": "owner",
      "outputs": [
        {
          "internalType": "address",
          "name": "",
          "type": "address"
        }
      ],
      "stateMutability": "view",
      "type": "function",
      "constant": true
    },
    {
      "inputs": [],
      "name": "renounceOwnership",
      "outputs": [],
      "stateMutability": "nonpayable",
      "type": "function"
    },
    {
      "inputs": [
        {
          "internalType": "address",
          "name": "authority_",
          "type": "address"
        }
      ],
      "name": "setAuthority",
      "outputs": [],
      "stateMutability": "nonpayable",
      "type": "function"
    },
    {
      "inputs": [
        {
          "internalType": "address",
          "name": "newOwner",
          "type": "address"
        }
      ],
      "name": "transferOwnership",
      "outputs": [],
      "stateMutability": "nonpayable",
      "type": "function"
    },
    {
      "inputs": [
        {
          "internalType": "string",
          "name": "name_",
          "type": "string"
        },
        {
          "internalType": "uint256",
          "name": "amount_",
          "type": "uint256"
        }
      ],
      "name": "setSaleAmount",
      "outputs": [],
      "stateMutability": "nonpayable",
      "type": "function"
    },
    {
      "inputs": [
        {
          "internalType": "uint8",
          "name": "quality_",
          "type": "uint8"
        },
        {
          "internalType": "uint8",
          "name": "role_",
          "type": "uint8"
        },
        {
          "internalType": "uint256",
          "name": "supply_",
          "type": "uint256"
        }
      ],
      "name": "setCardsByQuality",
      "outputs": [],
      "stateMutability": "nonpayable",
      "type": "function"
    },
    {
      "inputs": [
        {
          "internalType": "uint8",
          "name": "quality_",
          "type": "uint8"
        },
        {
          "internalType": "uint8",
          "name": "role_",
          "type": "uint8"
        },
        {
          "internalType": "uint256",
          "name": "supply_",
          "type": "uint256"
        }
      ],
      "name": "setCardsSingle",
      "outputs": [],
      "stateMutability": "nonpayable",
      "type": "function"
    },
    {
      "inputs": [
        {
          "internalType": "uint8",
          "name": "quality_",
          "type": "uint8"
        },
        {
          "internalType": "uint16",
          "name": "role_",
          "type": "uint16"
        }
      ],
      "name": "fresh",
      "outputs": [],
      "stateMutability": "nonpayable",
      "type": "function"
    },
    {
      "inputs": [
        {
          "internalType": "string",
          "name": "symbol_",
          "type": "string"
        }
      ],
      "name": "buy",
      "outputs": [],
      "stateMutability": "nonpayable",
      "type": "function"
    }
  ],
  "bytecode": "0x60806040523480156200001157600080fd5b50604051620033483803806200334883398181016040528101906200003791906200038b565b8060006200004a6200036c60201b60201c565b9050806000806101000a81548173ffffffffffffffffffffffffffffffffffffffff021916908373ffffffffffffffffffffffffffffffffffffffff1602179055508073ffffffffffffffffffffffffffffffffffffffff16600073ffffffffffffffffffffffffffffffffffffffff167f8be0079c531659141344cd1fd0a4f28419497f9722a3daafe3b4186f6b6457e060405160405180910390a35080600160006101000a81548173ffffffffffffffffffffffffffffffffffffffff021916908373ffffffffffffffffffffffffffffffffffffffff1602179055505060026040518060400160405280603261ffff168152602001609661ffff168152509080600181540180825580915050600190039060005260206000200160009091909190915060008201518160000160006101000a81548161ffff021916908361ffff16021790555060208201518160000160026101000a81548161ffff021916908361ffff160217905550505060026040518060400160405280605a61ffff16815260200161019a61ffff168152509080600181540180825580915050600190039060005260206000200160009091909190915060008201518160000160006101000a81548161ffff021916908361ffff16021790555060208201518160000160026101000a81548161ffff021916908361ffff16021790555050506002604051806040016040528060c861ffff16815260200161032061ffff168152509080600181540180825580915050600190039060005260206000200160009091909190915060008201518160000160006101000a81548161ffff021916908361ffff16021790555060208201518160000160026101000a81548161ffff021916908361ffff1602179055505050600260405180604001604052806107d061ffff168152602001600061ffff168152509080600181540180825580915050600190039060005260206000200160009091909190915060008201518160000160006101000a81548161ffff021916908361ffff16021790555060208201518160000160026101000a81548161ffff021916908361ffff16021790555050505062000405565b600033905090565b6000815190506200038581620003eb565b92915050565b6000602082840312156200039e57600080fd5b6000620003ae8482850162000374565b91505092915050565b6000620003c482620003cb565b9050919050565b600073ffffffffffffffffffffffffffffffffffffffff82169050919050565b620003f681620003b7565b81146200040257600080fd5b50565b612f3380620004156000396000f3fe608060405234801561001057600080fd5b506004361061009e5760003560e01c8063715018a611610066578063715018a61461012f5780637a9e5e4b146101395780638da5cb5b14610155578063bf7e214f14610173578063f2fde38b146101915761009e565b80632c74ee4f146100a35780633f22893a146100bf578063492cc769146100db5780635cb9831f146100f757806365e2f48f14610113575b600080fd5b6100bd60048036038101906100b89190611fe1565b6101ad565b005b6100d960048036038101906100d49190611f3b565b61034b565b005b6100f560048036038101906100f09190611efa565b610573565b005b610111600480360381019061010c9190612059565b610f3d565b005b61012d60048036038101906101289190612059565b611154565b005b61013761139c565b005b610153600480360381019061014e9190611e7f565b6114d6565b005b61015d611596565b60405161016a919061262c565b60405180910390f35b61017b6115bf565b6040516101889190612733565b60405180910390f35b6101ab60048036038101906101a69190611e7f565b6115e5565b005b6040518060400160405280600881526020017f45584348414e4745000000000000000000000000000000000000000000000000815250600160009054906101000a900473ffffffffffffffffffffffffffffffffffffffff1673ffffffffffffffffffffffffffffffffffffffff1663f5e65c7233836040518363ffffffff1660e01b815260040161024092919061267e565b60206040518083038186803b15801561025857600080fd5b505afa15801561026c573d6000803e3d6000fd5b505050506040513d601f19601f820116820180604052508101906102909190611ed1565b6102cf576040517f08c379a00000000000000000000000000000000000000000000000000000000081526004016102c690612890565b60405180910390fd5b600060016102dd600361178e565b6102e79190612a17565b90506103446305f5e100826102fc9190612ae1565b8461ffff1666038d7ea4c680008760ff166103179190612b3b565b6103219190612a6d565b66ffffffffffffff166103349190612a17565b60036117a390919063ffffffff16565b5050505050565b6040518060400160405280600681526020017f434f4e4649470000000000000000000000000000000000000000000000000000815250600160009054906101000a900473ffffffffffffffffffffffffffffffffffffffff1673ffffffffffffffffffffffffffffffffffffffff1663f5e65c7233836040518363ffffffff1660e01b81526004016103de92919061267e565b60206040518083038186803b1580156103f657600080fd5b505afa15801561040a573d6000803e3d6000fd5b505050506040513d601f19601f8201168201806040525081019061042e9190611ed1565b61046d576040517f08c379a000000000000000000000000000000000000000000000000000000000815260040161046490612890565b60405180910390fd5b670de0b6b3a7640000826104819190612ae1565b60056000600160009054906101000a900473ffffffffffffffffffffffffffffffffffffffff1673ffffffffffffffffffffffffffffffffffffffff16636957a0b2876040518263ffffffff1660e01b81526004016104e0919061274e565b60206040518083038186803b1580156104f857600080fd5b505afa15801561050c573d6000803e3d6000fd5b505050506040513d601f19601f820116820180604052508101906105309190611ea8565b73ffffffffffffffffffffffffffffffffffffffff1673ffffffffffffffffffffffffffffffffffffffff16815260200190815260200160002081905550505050565b6040518060400160405280600381526020017f4255590000000000000000000000000000000000000000000000000000000000815250600160009054906101000a900473ffffffffffffffffffffffffffffffffffffffff1673ffffffffffffffffffffffffffffffffffffffff1663466f98e860006040518263ffffffff1660e01b815260040161060591906126ae565b60206040518083038186803b15801561061d57600080fd5b505afa158015610631573d6000803e3d6000fd5b505050506040513d601f19601f820116820180604052508101906106559190611ed1565b15610695576040517f08c379a000000000000000000000000000000000000000000000000000000000815260040161068c906127d0565b60405180910390fd5b600160009054906101000a900473ffffffffffffffffffffffffffffffffffffffff1673ffffffffffffffffffffffffffffffffffffffff1663466f98e86000836040518363ffffffff1660e01b81526004016106f392919061267e565b60206040518083038186803b15801561070b57600080fd5b505afa15801561071f573d6000803e3d6000fd5b505050506040513d601f19601f820116820180604052508101906107439190611ed1565b15610783576040517f08c379a000000000000000000000000000000000000000000000000000000000815260040161077a906127f0565b60405180910390fd5b600160009054906101000a900473ffffffffffffffffffffffffffffffffffffffff1673ffffffffffffffffffffffffffffffffffffffff1663466f98e8336040518263ffffffff1660e01b81526004016107de91906126ae565b60206040518083038186803b1580156107f657600080fd5b505afa15801561080a573d6000803e3d6000fd5b505050506040513d601f19601f8201168201806040525081019061082e9190611ed1565b1561086e576040517f08c379a000000000000000000000000000000000000000000000000000000000815260040161086590612890565b60405180910390fd5b600160009054906101000a900473ffffffffffffffffffffffffffffffffffffffff1673ffffffffffffffffffffffffffffffffffffffff1663466f98e833836040518363ffffffff1660e01b81526004016108cb92919061267e565b60206040518083038186803b1580156108e357600080fd5b505afa1580156108f7573d6000803e3d6000fd5b505050506040513d601f19601f8201168201806040525081019061091b9190611ed1565b1561095b576040517f08c379a000000000000000000000000000000000000000000000000000000000815260040161095290612890565b60405180910390fd5b600160009054906101000a900473ffffffffffffffffffffffffffffffffffffffff1673ffffffffffffffffffffffffffffffffffffffff1663466f98e860006040518263ffffffff1660e01b81526004016109b791906126dc565b60206040518083038186803b1580156109cf57600080fd5b505afa1580156109e3573d6000803e3d6000fd5b505050506040513d601f19601f82011682018060405250810190610a079190611ed1565b15610a47576040517f08c379a0000000000000000000000000000000000000000000000000000000008152600401610a3e90612790565b60405180910390fd5b6000600160009054906101000a900473ffffffffffffffffffffffffffffffffffffffff1673ffffffffffffffffffffffffffffffffffffffff16636957a0b2846040518263ffffffff1660e01b8152600401610aa4919061274e565b60206040518083038186803b158015610abc57600080fd5b505afa158015610ad0573d6000803e3d6000fd5b505050506040513d601f19601f82011682018060405250810190610af49190611ea8565b90506000600160009054906101000a900473ffffffffffffffffffffffffffffffffffffffff1673ffffffffffffffffffffffffffffffffffffffff16636957a0b26040518163ffffffff1660e01b8152600401610b5190612850565b60206040518083038186803b158015610b6957600080fd5b505afa158015610b7d573d6000803e3d6000fd5b505050506040513d601f19601f82011682018060405250810190610ba19190611ea8565b905060008273ffffffffffffffffffffffffffffffffffffffff166323b872dd3384600560008873ffffffffffffffffffffffffffffffffffffffff1673ffffffffffffffffffffffffffffffffffffffff168152602001908152602001600020546040518463ffffffff1660e01b8152600401610c2193929190612647565b602060405180830381600087803b158015610c3b57600080fd5b505af1158015610c4f573d6000803e3d6000fd5b505050506040513d601f19601f82011682018060405250810190610c739190611ed1565b905080610cb5576040517f08c379a0000000000000000000000000000000000000000000000000000000008152600401610cac90612830565b60405180910390fd5b610cbd611d27565b600560008573ffffffffffffffffffffffffffffffffffffffff1673ffffffffffffffffffffffffffffffffffffffff16815260200190815260200160002054816060018181525050610d0e6117bd565b8160ff1691508360000184602001856040018361ffff1661ffff168152508361ffff1661ffff168152508360ff1660ff16815250505050600073__NftLibrary____________________________6378ba5d4a836040518263ffffffff1660e01b8152600401610d7e91906128b0565b60206040518083038186803b158015610d9657600080fd5b505af4158015610daa573d6000803e3d6000fd5b505050506040513d601f19601f82011682018060405250810190610dce9190611f8f565b90506000600160009054906101000a900473ffffffffffffffffffffffffffffffffffffffff1673ffffffffffffffffffffffffffffffffffffffff16636957a0b26040518163ffffffff1660e01b8152600401610e2b90612870565b60206040518083038186803b158015610e4357600080fd5b505afa158015610e57573d6000803e3d6000fd5b505050506040513d601f19601f82011682018060405250810190610e7b9190611ea8565b90508073ffffffffffffffffffffffffffffffffffffffff16632db6e82233846040518363ffffffff1660e01b8152600401610eb892919061270a565b600060405180830381600087803b158015610ed257600080fd5b505af1158015610ee6573d6000803e3d6000fd5b505050507fe69ddaf88957040bdf59684a08f2de103a37fa00fe3d216f8fe2ec965a01552383600001518460200151848660400151604051610f2b94939291906128e6565b60405180910390a15050505050505050565b6040518060400160405280600681526020017f434f4e4649470000000000000000000000000000000000000000000000000000815250600160009054906101000a900473ffffffffffffffffffffffffffffffffffffffff1673ffffffffffffffffffffffffffffffffffffffff1663f5e65c7233836040518363ffffffff1660e01b8152600401610fd092919061267e565b60206040518083038186803b158015610fe857600080fd5b505afa158015610ffc573d6000803e3d6000fd5b505050506040513d601f19601f820116820180604052508101906110209190611ed1565b61105f576040517f08c379a000000000000000000000000000000000000000000000000000000000815260040161105690612890565b60405180910390fd5b6000600161106d600361178e565b6110779190612a17565b905060005b8381101561114c5761112973__NftLibrary____________________________63b7db31cb8888866040518463ffffffff1660e01b81526004016110c29392919061292b565b60206040518083038186803b1580156110da57600080fd5b505af41580156110ee573d6000803e3d6000fd5b505050506040513d601f19601f820116820180604052508101906111129190611fb8565b64ffffffffff1660036117a390919063ffffffff16565b5060018261113791906129df565b9150808061114490612d06565b91505061107c565b505050505050565b6040518060400160405280600681526020017f434f4e4649470000000000000000000000000000000000000000000000000000815250600160009054906101000a900473ffffffffffffffffffffffffffffffffffffffff1673ffffffffffffffffffffffffffffffffffffffff1663f5e65c7233836040518363ffffffff1660e01b81526004016111e792919061267e565b60206040518083038186803b1580156111ff57600080fd5b505afa158015611213573d6000803e3d6000fd5b505050506040513d601f19601f820116820180604052508101906112379190611ed1565b611276576040517f08c379a000000000000000000000000000000000000000000000000000000000815260040161126d90612890565b60405180910390fd5b60006001611284600361178e565b61128e9190612a17565b905060005b838110156113945760005b8560ff168160ff1610156113805761135d73__NftLibrary____________________________63b7db31cb896001856112d79190612aaa565b876040518463ffffffff1660e01b81526004016112f69392919061292b565b60206040518083038186803b15801561130e57600080fd5b505af4158015611322573d6000803e3d6000fd5b505050506040513d601f19601f820116820180604052508101906113469190611fb8565b64ffffffffff1660036117a390919063ffffffff16565b5060018361136b91906129df565b9250808061137890612d4f565b91505061129e565b50808061138c90612d06565b915050611293565b505050505050565b6113a46119a0565b73ffffffffffffffffffffffffffffffffffffffff166113c2611596565b73ffffffffffffffffffffffffffffffffffffffff1614611418576040517f08c379a000000000000000000000000000000000000000000000000000000000815260040161140f90612810565b60405180910390fd5b600073ffffffffffffffffffffffffffffffffffffffff1660008054906101000a900473ffffffffffffffffffffffffffffffffffffffff1673ffffffffffffffffffffffffffffffffffffffff167f8be0079c531659141344cd1fd0a4f28419497f9722a3daafe3b4186f6b6457e060405160405180910390a360008060006101000a81548173ffffffffffffffffffffffffffffffffffffffff021916908373ffffffffffffffffffffffffffffffffffffffff160217905550565b6114de6119a0565b73ffffffffffffffffffffffffffffffffffffffff166114fc611596565b73ffffffffffffffffffffffffffffffffffffffff1614611552576040517f08c379a000000000000000000000000000000000000000000000000000000000815260040161154990612810565b60405180910390fd5b80600160006101000a81548173ffffffffffffffffffffffffffffffffffffffff021916908373ffffffffffffffffffffffffffffffffffffffff16021790555050565b60008060009054906101000a900473ffffffffffffffffffffffffffffffffffffffff16905090565b600160009054906101000a900473ffffffffffffffffffffffffffffffffffffffff1681565b6115ed6119a0565b73ffffffffffffffffffffffffffffffffffffffff1661160b611596565b73ffffffffffffffffffffffffffffffffffffffff1614611661576040517f08c379a000000000000000000000000000000000000000000000000000000000815260040161165890612810565b60405180910390fd5b600073ffffffffffffffffffffffffffffffffffffffff168173ffffffffffffffffffffffffffffffffffffffff1614156116d1576040517f08c379a00000000000000000000000000000000000000000000000000000000081526004016116c8906127b0565b60405180910390fd5b8073ffffffffffffffffffffffffffffffffffffffff1660008054906101000a900473ffffffffffffffffffffffffffffffffffffffff1673ffffffffffffffffffffffffffffffffffffffff167f8be0079c531659141344cd1fd0a4f28419497f9722a3daafe3b4186f6b6457e060405160405180910390a3806000806101000a81548173ffffffffffffffffffffffffffffffffffffffff021916908373ffffffffffffffffffffffffffffffffffffffff16021790555050565b600061179c826000016119a8565b9050919050565b60006117b5836000018360001b6119b9565b905092915050565b6000806000806117e160016117d2600361178e565b6117dc9190612bb0565b611a29565b905073__NftLibrary____________________________63c018fb7f611811836003611aac90919063ffffffff16565b6040518263ffffffff1660e01b815260040161182d91906128cb565b604080518083038186803b15801561184457600080fd5b505af4158015611858573d6000803e3d6000fd5b505050506040513d601f19601f8201168201806040525081019061187c919061201d565b8094508195505050600060028560ff16815481106118c3577f4e487b7100000000000000000000000000000000000000000000000000000000600052603260045260246000fd5b906000526020600020016040518060400160405290816000820160009054906101000a900461ffff1661ffff1661ffff1681526020016000820160029054906101000a900461ffff1661ffff1661ffff1681525050905061193a8160000151826020015161193191906129df565b61ffff16611a29565b92508060200151816000015161195091906129df565b61ffff168361ffff16106119715780600001518361196e9190612b7c565b92505b611998611988836003611aac90919063ffffffff16565b6003611ac690919063ffffffff16565b505050909192565b600033905090565b600081600001805490509050919050565b60006119c58383611ae0565b611a1e578260000182908060018154018082558091505060019003906000526020600020016000909190919091505582600001805490508360010160008481526020019081526020016000208190555060019050611a23565b600090505b92915050565b6000804243604051602001611a3f929190612600565b604051602081830303815290604052805190602001209050600081604051602001611a6a91906125e5565b604051602081830303815290604052905083818051906020012060001c611a919190612d8d565b925060008314611aa15782611aa3565b835b92505050919050565b6000611abb8360000183611b03565b60001c905092915050565b6000611ad8836000018360001b611b9d565b905092915050565b600080836001016000848152602001908152602001600020541415905092915050565b600081836000018054905011611b4e576040517f08c379a0000000000000000000000000000000000000000000000000000000008152600401611b4590612770565b60405180910390fd5b826000018281548110611b8a577f4e487b7100000000000000000000000000000000000000000000000000000000600052603260045260246000fd5b9060005260206000200154905092915050565b60008083600101600084815260200190815260200160002054905060008114611d1b576000600182611bcf9190612bb0565b9050600060018660000180549050611be79190612bb0565b90506000866000018281548110611c27577f4e487b7100000000000000000000000000000000000000000000000000000000600052603260045260246000fd5b9060005260206000200154905080876000018481548110611c71577f4e487b7100000000000000000000000000000000000000000000000000000000600052603260045260246000fd5b9060005260206000200181905550600183611c8c9190612a17565b8760010160008381526020019081526020016000208190555086600001805480611cdf577f4e487b7100000000000000000000000000000000000000000000000000000000600052603160045260246000fd5b60019003818190600052602060002001600090559055866001016000878152602001908152602001600020600090556001945050505050611d21565b60009150505b92915050565b6040518060800160405280600060ff168152602001600061ffff168152602001600061ffff168152602001600081525090565b6000611d6d611d6884612993565b612962565b905082815260208101848484011115611d8557600080fd5b611d90848285612cc4565b509392505050565b600081359050611da781612e5c565b92915050565b600081519050611dbc81612e5c565b92915050565b600081519050611dd181612e73565b92915050565b600082601f830112611de857600080fd5b8135611df8848260208601611d5a565b91505092915050565b600081519050611e1081612e8a565b92915050565b600081359050611e2581612ea1565b92915050565b600081359050611e3a81612eb8565b92915050565b600081519050611e4f81612ecf565b92915050565b600081359050611e6481612ee6565b92915050565b600081519050611e7981612ee6565b92915050565b600060208284031215611e9157600080fd5b6000611e9f84828501611d98565b91505092915050565b600060208284031215611eba57600080fd5b6000611ec884828501611dad565b91505092915050565b600060208284031215611ee357600080fd5b6000611ef184828501611dc2565b91505092915050565b600060208284031215611f0c57600080fd5b600082013567ffffffffffffffff811115611f2657600080fd5b611f3284828501611dd7565b91505092915050565b60008060408385031215611f4e57600080fd5b600083013567ffffffffffffffff811115611f6857600080fd5b611f7485828601611dd7565b9250506020611f8585828601611e2b565b9150509250929050565b600060208284031215611fa157600080fd5b6000611faf84828501611e01565b91505092915050565b600060208284031215611fca57600080fd5b6000611fd884828501611e40565b91505092915050565b60008060408385031215611ff457600080fd5b600061200285828601611e55565b925050602061201385828601611e16565b9150509250929050565b6000806040838503121561203057600080fd5b600061203e85828601611e6a565b925050602061204f85828601611e6a565b9150509250929050565b60008060006060848603121561206e57600080fd5b600061207c86828701611e55565b935050602061208d86828701611e55565b925050604061209e86828701611e2b565b9150509250925092565b6120b181612be4565b82525050565b6120c86120c382612c02565b612d79565b82525050565b6120d781612c8e565b82525050565b60006120e8826129c3565b6120f281856129ce565b9350612102818560208601612cd3565b61210b81612e4b565b840191505092915050565b60006121236022836129ce565b91507f456e756d657261626c655365743a20696e646578206f7574206f6620626f756e60008301527f64730000000000000000000000000000000000000000000000000000000000006020830152604082019050919050565b6000612189601b836129ce565b91507f4341524453484f503a2053686f70206973206e6f74206f70656e2e00000000006000830152602082019050919050565b60006121c96026836129ce565b91507f4f776e61626c653a206e6577206f776e657220697320746865207a65726f206160008301527f64647265737300000000000000000000000000000000000000000000000000006020830152604082019050919050565b600061222f6027836129ce565b91507f4d656d6265723a204d61696e74656e616e6365207570677261646520696e207060008301527f726f6772657373000000000000000000000000000000000000000000000000006020830152604082019050919050565b6000612295602a836129ce565b91507f4d656d6265723a20546865206f7065726174696f6e20697320756e646572206d60008301527f61696e74656e616e6365000000000000000000000000000000000000000000006020830152604082019050919050565b60006122fb6020836129ce565b91507f4f776e61626c653a2063616c6c6572206973206e6f7420746865206f776e65726000830152602082019050919050565b600061233b601c836129ce565b91507f4341524453484f503a205472616e73616374696f6e206661696c6564000000006000830152602082019050919050565b600061237b6003836129ce565b91507f414c4c00000000000000000000000000000000000000000000000000000000006000830152602082019050919050565b60006123bb6009836129ce565b91507f524543495049454e5400000000000000000000000000000000000000000000006000830152602082019050919050565b60006123fb6007836129ce565b91507f46494748544552000000000000000000000000000000000000000000000000006000830152602082019050919050565b600061243b6024836129ce565b91507f4d656d6265723a20546865206f7065726174696f6e206973206e6f7420616c6c60008301527f6f776564000000000000000000000000000000000000000000000000000000006020830152604082019050919050565b60006124a16004836129ce565b91507f4f50454e000000000000000000000000000000000000000000000000000000006000830152602082019050919050565b6080820160008201516124ea60008501826125d6565b5060208201516124fd6020850182612565565b5060408201516125106040850182612565565b5060608201516125236060850182612592565b50505050565b61253281612c0c565b82525050565b61254181612cb2565b82525050565b61255081612c25565b82525050565b61255f81612c25565b82525050565b61256e81612c25565b82525050565b61257d81612c53565b82525050565b61258c81612c53565b82525050565b61259b81612c53565b82525050565b6125b26125ad82612c53565b612d83565b82525050565b6125c181612c81565b82525050565b6125d081612c81565b82525050565b6125df81612c81565b82525050565b60006125f182846120b7565b60208201915081905092915050565b600061260c82856125a1565b60208201915061261c82846125a1565b6020820191508190509392505050565b600060208201905061264160008301846120a8565b92915050565b600060608201905061265c60008301866120a8565b61266960208301856120a8565b6126766040830184612574565b949350505050565b600060408201905061269360008301856120a8565b81810360208301526126a581846120dd565b90509392505050565b60006040820190506126c360008301846120a8565b81810360208301526126d48161236e565b905092915050565b60006040820190506126f160008301846120a8565b818103602083015261270281612494565b905092915050565b600060408201905061271f60008301856120a8565b61272c6020830184612529565b9392505050565b600060208201905061274860008301846120ce565b92915050565b6000602082019050818103600083015261276881846120dd565b905092915050565b6000602082019050818103600083015261278981612116565b9050919050565b600060208201905081810360008301526127a98161217c565b9050919050565b600060208201905081810360008301526127c9816121bc565b9050919050565b600060208201905081810360008301526127e981612222565b9050919050565b6000602082019050818103600083015261280981612288565b9050919050565b60006020820190508181036000830152612829816122ee565b9050919050565b600060208201905081810360008301526128498161232e565b9050919050565b60006020820190508181036000830152612869816123ae565b9050919050565b60006020820190508181036000830152612889816123ee565b9050919050565b600060208201905081810360008301526128a98161242e565b9050919050565b60006080820190506128c560008301846124d4565b92915050565b60006020820190506128e06000830184612583565b92915050565b60006080820190506128fb60008301876125b8565b6129086020830186612547565b6129156040830185612538565b6129226060830184612547565b95945050505050565b600060608201905061294060008301866125c7565b61294d60208301856125c7565b61295a6040830184612556565b949350505050565b6000604051905081810181811067ffffffffffffffff8211171561298957612988612e1c565b5b8060405250919050565b600067ffffffffffffffff8211156129ae576129ad612e1c565b5b601f19601f8301169050602081019050919050565b600081519050919050565b600082825260208201905092915050565b60006129ea82612c25565b91506129f583612c25565b92508261ffff03821115612a0c57612a0b612dbe565b5b828201905092915050565b6000612a2282612c53565b9150612a2d83612c53565b9250827fffffffffffffffffffffffffffffffffffffffffffffffffffffffffffffffff03821115612a6257612a61612dbe565b5b828201905092915050565b6000612a7882612c6e565b9150612a8383612c6e565b92508266ffffffffffffff03821115612a9f57612a9e612dbe565b5b828201905092915050565b6000612ab582612c81565b9150612ac083612c81565b92508260ff03821115612ad657612ad5612dbe565b5b828201905092915050565b6000612aec82612c53565b9150612af783612c53565b9250817fffffffffffffffffffffffffffffffffffffffffffffffffffffffffffffffff0483118215151615612b3057612b2f612dbe565b5b828202905092915050565b6000612b4682612c6e565b9150612b5183612c6e565b92508166ffffffffffffff0483118215151615612b7157612b70612dbe565b5b828202905092915050565b6000612b8782612c25565b9150612b9283612c25565b925082821015612ba557612ba4612dbe565b5b828203905092915050565b6000612bbb82612c53565b9150612bc683612c53565b925082821015612bd957612bd8612dbe565b5b828203905092915050565b6000612bef82612c33565b9050919050565b60008115159050919050565b6000819050919050565b60006cffffffffffffffffffffffffff82169050919050565b600061ffff82169050919050565b600073ffffffffffffffffffffffffffffffffffffffff82169050919050565b6000819050919050565b600064ffffffffff82169050919050565b600066ffffffffffffff82169050919050565b600060ff82169050919050565b6000612c9982612ca0565b9050919050565b6000612cab82612c33565b9050919050565b6000612cbd82612c0c565b9050919050565b82818337600083830152505050565b60005b83811015612cf1578082015181840152602081019050612cd6565b83811115612d00576000848401525b50505050565b6000612d1182612c53565b91507fffffffffffffffffffffffffffffffffffffffffffffffffffffffffffffffff821415612d4457612d43612dbe565b5b600182019050919050565b6000612d5a82612c81565b915060ff821415612d6e57612d6d612dbe565b5b600182019050919050565b6000819050919050565b6000819050919050565b6000612d9882612c53565b9150612da383612c53565b925082612db357612db2612ded565b5b828206905092915050565b7f4e487b7100000000000000000000000000000000000000000000000000000000600052601160045260246000fd5b7f4e487b7100000000000000000000000000000000000000000000000000000000600052601260045260246000fd5b7f4e487b7100000000000000000000000000000000000000000000000000000000600052604160045260246000fd5b6000601f19601f8301169050919050565b612e6581612be4565b8114612e7057600080fd5b50565b612e7c81612bf6565b8114612e8757600080fd5b50565b612e9381612c0c565b8114612e9e57600080fd5b50565b612eaa81612c25565b8114612eb557600080fd5b50565b612ec181612c53565b8114612ecc57600080fd5b50565b612ed881612c5d565b8114612ee357600080fd5b50565b612eef81612c81565b8114612efa57600080fd5b5056fea2646970667358221220ca41cfd9b4f1055f7b979ec7c01ed6acc482ae79085595d9f18c01fcc6e9be5664736f6c63430008000033",
  "immutableReferences": {},
  "source": "// SPDX-License-Identifier: SimPL-2.0\n\npragma solidity ^0.8.0;\npragma experimental ABIEncoderV2;\n\nimport \"../token/Fighter.sol\";\nimport \"../authority/Member.sol\";\nimport \"../libraries/NftLibrary.sol\";\n\nimport \"@openzeppelin/contracts/token/ERC20/IERC20.sol\";\nimport \"@openzeppelin/contracts/utils/math/SafeMath.sol\";\nimport \"@openzeppelin/contracts/utils/structs/EnumerableSet.sol\";\n\n/**\n * @title Fighter Z Token Card Shop\n *\n * @author Bit Lighthouse. Ace\n * AT: 2021-3-28 | VERSION: v1.0.2\n */\n\ncontract CardShop is Member {\n    using SafeMath for uint256;\n    using EnumerableSet for EnumerableSet.UintSet;\n\n    RateStruct[] private _rates;\n    EnumerableSet.UintSet private _cards;\n    mapping (address => uint256) private _amounts;\n\n    struct RateStruct { uint16 start; uint16 plus; }\n    event Buy(uint8 quality, uint16 heroId, uint256 tokenId, uint16 rate);\n\n    constructor(address auth_) Member(auth_) {\n        _rates.push(RateStruct({start: 50,   plus: 150}));\n        _rates.push(RateStruct({start: 90,   plus: 410}));\n        _rates.push(RateStruct({start: 200,  plus: 800}));\n        _rates.push(RateStruct({start: 2000, plus: 0}));\n    }\n\n    function _random(uint256 value_) private view\n        returns (uint256 result) {\n\n        bytes32 h = keccak256(abi.encodePacked(\n            block.timestamp, block.number\n        ));\n\n        bytes memory seed = abi.encodePacked(h);\n        result = uint256(keccak256(seed)) % value_;\n        result = result == 0 ? value_ : result;\n    }\n\n    function _choose() private returns\n        (uint8 quality, uint8 heroId, uint16 rate) {\n\n        uint256 ran = _random(_cards.length() - 1);\n        (quality, heroId) = NftLibrary.cRight(_cards.at(ran));\n\n        RateStruct memory rs = _rates[quality];\n        rate = uint16(_random(rs.plus + rs.start));\n        \n        if (rate >= (rs.start + rs.plus))\n            rate = rate - rs.start;\n\n        _cards.remove(_cards.at(ran));\n    }\n\n    function setSaleAmount(string memory name_, uint256 amount_)\n        public CheckPermit(\"CONFIG\") {\n        \n        _amounts[authority.members(name_)] = amount_ * 1e18;\n    }\n\n    function setCardsByQuality(\n        uint8 quality_, uint8 role_, uint256 supply_\n    ) external CheckPermit(\"CONFIG\") {\n\n        uint16 index = uint16(_cards.length() + 1);\n\n        for (uint256 i = 0; i < supply_; i++) {\n            for (uint8 j = 0; j < role_; j++) {\n                _cards.add(NftLibrary.cLeft(\n                    quality_, j + 1, index\n                ));\n\n                index = index + 1;\n            }\n        }\n    }\n\n    function setCardsSingle(\n        uint8 quality_, uint8 role_, uint256 supply_\n    ) external CheckPermit(\"CONFIG\") {\n        uint16 index = uint16(_cards.length() + 1);\n\n        for (uint256 i = 0; i < supply_; i++) {\n            _cards.add(NftLibrary.cLeft(\n                quality_, role_, index\n            ));\n\n            index = index + 1;\n        }\n    }\n\n    function fresh(uint8 quality_, uint16 role_) public\n        CheckPermit(\"EXCHANGE\") {\n\n        uint256 index = _cards.length() + 1;\n        _cards.add((quality_ * 1e15) + role_ + (index * 1e8));\n    }\n\n    function buy(string memory symbol_) public\n        CheckStatus(\"BUY\") {\n        \n        require(\n            !authority.authorities(address(0), \"OPEN\"),\n            \"CARDSHOP: Shop is not open.\"\n        );\n\n        address token = authority.members(symbol_);\n        address recipient = authority.members(\"RECIPIENT\");\n\n        bool success = IERC20(token).transferFrom(\n            msg.sender, recipient, _amounts[token]\n        );\n\n        require(success, \"CARDSHOP: Transaction failed\");\n\n        NftLibrary.DetailStruct memory ds;\n        ds.amount = _amounts[token];\n        (ds.quality, ds.heroId, ds.rate) = _choose();\n        uint104 tokenId = NftLibrary.tLeft(ds);\n\n        address nft = authority.members(\"FIGHTER\");\n        Fighter(nft).buy(msg.sender, tokenId);\n\n        emit Buy(ds.quality, ds.heroId, tokenId, ds.rate);\n    }\n}",
  "sourcePath": "/home/ace/Projects/eth/other/dragon-ball-project/dragon-ball-contract/contracts/core/CardShop.sol",
  "compiler": {
    "name": "solc",
    "version": "0.8.0+commit.c7dfd78e.Emscripten.clang"
  },
  "schemaVersion": "3.4.3",
  "updatedAt": "2021-08-25T13:30:49.945Z",
  "networkType": "ethereum",
  "devdoc": {
    "author": "Bit Lighthouse. Ace AT: 2021-3-28 | VERSION: v1.0.2",
    "kind": "dev",
    "methods": {
      "owner()": {
        "details": "Returns the address of the current owner."
      },
      "renounceOwnership()": {
        "details": "Leaves the contract without owner. It will not be possible to call `onlyOwner` functions anymore. Can only be called by the current owner. NOTE: Renouncing ownership will leave the contract without an owner, thereby removing any functionality that is only available to the owner."
      },
      "setAuthority(address)": {
        "params": {
          "authority_": "address of manager This function is onwer only"
        }
      },
      "transferOwnership(address)": {
        "details": "Transfers ownership of the contract to a new account (`newOwner`). Can only be called by the current owner."
      }
    },
    "title": "Fighter Z Token Card Shop",
    "version": 1
  },
  "userdoc": {
    "kind": "user",
    "methods": {
      "setAuthority(address)": {
        "notice": "Set new manager"
      }
    },
    "version": 1
  }
}