{
  "contractName": "Exchange",
  "abi": [
    {
      "inputs": [
        {
          "internalType": "address",
          "name": "auth_",
          "type": "address"
        }
      ],
      "stateMutability": "nonpayable",
      "type": "constructor"
    },
    {
      "anonymous": false,
      "inputs": [
        {
          "indexed": true,
          "internalType": "address",
          "name": "previousOwner",
          "type": "address"
        },
        {
          "indexed": true,
          "internalType": "address",
          "name": "newOwner",
          "type": "address"
        }
      ],
      "name": "OwnershipTransferred",
      "type": "event"
    },
    {
      "inputs": [],
      "name": "authority",
      "outputs": [
        {
          "internalType": "contract Authority",
          "name": "",
          "type": "address"
        }
      ],
      "stateMutability": "view",
      "type": "function",
      "constant": true
    },
    {
      "inputs": [
        {
          "internalType": "string",
          "name": "",
          "type": "string"
        }
      ],
      "name": "configs",
      "outputs": [
        {
          "internalType": "uint256",
          "name": "",
          "type": "uint256"
        }
      ],
      "stateMutability": "view",
      "type": "function",
      "constant": true
    },
    {
      "inputs": [],
      "name": "owner",
      "outputs": [
        {
          "internalType": "address",
          "name": "",
          "type": "address"
        }
      ],
      "stateMutability": "view",
      "type": "function",
      "constant": true
    },
    {
      "inputs": [],
      "name": "renounceOwnership",
      "outputs": [],
      "stateMutability": "nonpayable",
      "type": "function"
    },
    {
      "inputs": [
        {
          "internalType": "address",
          "name": "authority_",
          "type": "address"
        }
      ],
      "name": "setAuthority",
      "outputs": [],
      "stateMutability": "nonpayable",
      "type": "function"
    },
    {
      "inputs": [
        {
          "internalType": "string",
          "name": "name_",
          "type": "string"
        },
        {
          "internalType": "uint256",
          "name": "config_",
          "type": "uint256"
        }
      ],
      "name": "setConfig",
      "outputs": [],
      "stateMutability": "nonpayable",
      "type": "function"
    },
    {
      "inputs": [
        {
          "internalType": "address",
          "name": "newOwner",
          "type": "address"
        }
      ],
      "name": "transferOwnership",
      "outputs": [],
      "stateMutability": "nonpayable",
      "type": "function"
    },
    {
      "inputs": [],
      "name": "getExchangeList",
      "outputs": [
        {
          "components": [
            {
              "internalType": "uint8",
              "name": "quality",
              "type": "uint8"
            },
            {
              "internalType": "uint16",
              "name": "heroId",
              "type": "uint16"
            },
            {
              "internalType": "uint16",
              "name": "rate",
              "type": "uint16"
            },
            {
              "internalType": "uint256",
              "name": "amount",
              "type": "uint256"
            },
            {
              "internalType": "uint112",
              "name": "tokenId",
              "type": "uint112"
            }
          ],
          "internalType": "struct NftLibrary.DetailStruct[]",
          "name": "list",
          "type": "tuple[]"
        }
      ],
      "stateMutability": "view",
      "type": "function",
      "constant": true
    },
    {
      "inputs": [
        {
          "internalType": "address",
          "name": "account_",
          "type": "address"
        }
      ],
      "name": "getMyExchangeList",
      "outputs": [
        {
          "components": [
            {
              "internalType": "uint8",
              "name": "quality",
              "type": "uint8"
            },
            {
              "internalType": "uint16",
              "name": "heroId",
              "type": "uint16"
            },
            {
              "internalType": "uint16",
              "name": "rate",
              "type": "uint16"
            },
            {
              "internalType": "uint256",
              "name": "amount",
              "type": "uint256"
            },
            {
              "internalType": "uint112",
              "name": "tokenId",
              "type": "uint112"
            }
          ],
          "internalType": "struct NftLibrary.DetailStruct[]",
          "name": "list",
          "type": "tuple[]"
        }
      ],
      "stateMutability": "view",
      "type": "function",
      "constant": true
    },
    {
      "inputs": [
        {
          "internalType": "uint112",
          "name": "tokenId_",
          "type": "uint112"
        },
        {
          "internalType": "uint256",
          "name": "amount",
          "type": "uint256"
        }
      ],
      "name": "put",
      "outputs": [],
      "stateMutability": "nonpayable",
      "type": "function"
    },
    {
      "inputs": [
        {
          "internalType": "uint112",
          "name": "tokenId_",
          "type": "uint112"
        }
      ],
      "name": "pull",
      "outputs": [],
      "stateMutability": "nonpayable",
      "type": "function"
    },
    {
      "inputs": [
        {
          "internalType": "uint112",
          "name": "tokenId_",
          "type": "uint112"
        }
      ],
      "name": "buy",
      "outputs": [],
      "stateMutability": "nonpayable",
      "type": "function"
    }
  ],
  "bytecode": "0x60806040523480156200001157600080fd5b506040516200385438038062003854833981810160405281019062000037919062000150565b8060006200004a6200013160201b60201c565b9050806000806101000a81548173ffffffffffffffffffffffffffffffffffffffff021916908373ffffffffffffffffffffffffffffffffffffffff1602179055508073ffffffffffffffffffffffffffffffffffffffff16600073ffffffffffffffffffffffffffffffffffffffff167f8be0079c531659141344cd1fd0a4f28419497f9722a3daafe3b4186f6b6457e060405160405180910390a35080600160006101000a81548173ffffffffffffffffffffffffffffffffffffffff021916908373ffffffffffffffffffffffffffffffffffffffff1602179055505050620001ca565b600033905090565b6000815190506200014a81620001b0565b92915050565b6000602082840312156200016357600080fd5b6000620001738482850162000139565b91505092915050565b6000620001898262000190565b9050919050565b600073ffffffffffffffffffffffffffffffffffffffff82169050919050565b620001bb816200017c565b8114620001c757600080fd5b50565b61367a80620001da6000396000f3fe608060405234801561001057600080fd5b50600436106100b45760003560e01c80637a9e5e4b116100715780637a9e5e4b146101775780638da5cb5b146101935780639130e182146101b1578063bf7e214f146101cf578063c782ca43146101ed578063f2fde38b14610209576100b4565b80633e8f5b90146100b95780634d01d98d146100d55780635ef7fbad146100f15780636b143dec14610121578063715018a61461013d57806377acde3114610147575b600080fd5b6100d360048036038101906100ce9190612a8d565b610225565b005b6100ef60048036038101906100ea9190612b0a565b61036f565b005b61010b60048036038101906101069190612a4c565b610ac3565b60405161011891906132a7565b60405180910390f35b61013b60048036038101906101369190612b0a565b610af1565b005b61014561139a565b005b610161600480360381019061015c91906129d1565b6114d4565b60405161016e9190613134565b60405180910390f35b610191600480360381019061018c91906129d1565b6117cc565b005b61019b61188c565b6040516101a89190613016565b60405180910390f35b6101b96118b5565b6040516101c69190613134565b60405180910390f35b6101d7611b31565b6040516101e49190613156565b60405180910390f35b61020760048036038101906102029190612b33565b611b57565b005b610223600480360381019061021e91906129d1565b6122fe565b005b6040518060400160405280600681526020017f434f4e4649470000000000000000000000000000000000000000000000000000815250600160009054906101000a900473ffffffffffffffffffffffffffffffffffffffff1673ffffffffffffffffffffffffffffffffffffffff1663f5e65c7233836040518363ffffffff1660e01b81526004016102b89291906130d6565b60206040518083038186803b1580156102d057600080fd5b505afa1580156102e4573d6000803e3d6000fd5b505050506040513d601f19601f820116820180604052508101906103089190612a23565b610347576040517f08c379a000000000000000000000000000000000000000000000000000000000815260040161033e90613251565b60405180910390fd5b816002846040516103589190612fff565b908152602001604051809103902081905550505050565b6040518060400160405280600781526020017f4e465450554c4c00000000000000000000000000000000000000000000000000815250600160009054906101000a900473ffffffffffffffffffffffffffffffffffffffff1673ffffffffffffffffffffffffffffffffffffffff1663466f98e860006040518263ffffffff1660e01b81526004016104019190613106565b60206040518083038186803b15801561041957600080fd5b505afa15801561042d573d6000803e3d6000fd5b505050506040513d601f19601f820116820180604052508101906104519190612a23565b15806105085750600160009054906101000a900473ffffffffffffffffffffffffffffffffffffffff1673ffffffffffffffffffffffffffffffffffffffff1663466f98e86000836040518363ffffffff1660e01b81526004016104b69291906130d6565b60206040518083038186803b1580156104ce57600080fd5b505afa1580156104e2573d6000803e3d6000fd5b505050506040513d601f19601f820116820180604052508101906105069190612a23565b155b806105bb5750600160009054906101000a900473ffffffffffffffffffffffffffffffffffffffff1673ffffffffffffffffffffffffffffffffffffffff1663466f98e8336040518263ffffffff1660e01b81526004016105699190613106565b60206040518083038186803b15801561058157600080fd5b505afa158015610595573d6000803e3d6000fd5b505050506040513d601f19601f820116820180604052508101906105b99190612a23565b155b806106705750600160009054906101000a900473ffffffffffffffffffffffffffffffffffffffff1673ffffffffffffffffffffffffffffffffffffffff1663466f98e833836040518363ffffffff1660e01b815260040161061e9291906130d6565b60206040518083038186803b15801561063657600080fd5b505afa15801561064a573d6000803e3d6000fd5b505050506040513d601f19601f8201168201806040525081019061066e9190612a23565b155b6106af576040517f08c379a00000000000000000000000000000000000000000000000000000000081526004016106a690613251565b60405180910390fd5b60066000836dffffffffffffffffffffffffffff166dffffffffffffffffffffffffffff16815260200190815260200160002060009054906101000a900473ffffffffffffffffffffffffffffffffffffffff1673ffffffffffffffffffffffffffffffffffffffff163373ffffffffffffffffffffffffffffffffffffffff1614610770576040517f08c379a0000000000000000000000000000000000000000000000000000000008152600401610767906131f1565b60405180910390fd5b610794826dffffffffffffffffffffffffffff1660036124a790919063ffffffff16565b506107f6826dffffffffffffffffffffffffffff16600760003373ffffffffffffffffffffffffffffffffffffffff1673ffffffffffffffffffffffffffffffffffffffff1681526020019081526020016000206124a790919063ffffffff16565b506000600160009054906101000a900473ffffffffffffffffffffffffffffffffffffffff1673ffffffffffffffffffffffffffffffffffffffff16636957a0b26040518163ffffffff1660e01b815260040161085290613231565b60206040518083038186803b15801561086a57600080fd5b505afa15801561087e573d6000803e3d6000fd5b505050506040513d601f19601f820116820180604052508101906108a291906129fa565b90508073ffffffffffffffffffffffffffffffffffffffff166323b872dd3033866040518463ffffffff1660e01b81526004016108e193929190613068565b600060405180830381600087803b1580156108fb57600080fd5b505af115801561090f573d6000803e3d6000fd5b505050506000600160009054906101000a900473ffffffffffffffffffffffffffffffffffffffff1673ffffffffffffffffffffffffffffffffffffffff16636957a0b26040518163ffffffff1660e01b815260040161096e90613211565b60206040518083038186803b15801561098657600080fd5b505afa15801561099a573d6000803e3d6000fd5b505050506040513d601f19601f820116820180604052508101906109be91906129fa565b90508073ffffffffffffffffffffffffffffffffffffffff1663deea9607600033876040518463ffffffff1660e01b81526004016109fe93929190613031565b600060405180830381600087803b158015610a1857600080fd5b505af1158015610a2c573d6000803e3d6000fd5b5050505060056000856dffffffffffffffffffffffffffff166dffffffffffffffffffffffffffff1681526020019081526020016000206000905560066000856dffffffffffffffffffffffffffff166dffffffffffffffffffffffffffff16815260200190815260200160002060006101000a81549073ffffffffffffffffffffffffffffffffffffffff021916905550505050565b6002818051602081018201805184825260208301602085012081835280955050505050506000915090505481565b6040518060400160405280600681526020017f4e46544255590000000000000000000000000000000000000000000000000000815250600160009054906101000a900473ffffffffffffffffffffffffffffffffffffffff1673ffffffffffffffffffffffffffffffffffffffff1663466f98e860006040518263ffffffff1660e01b8152600401610b839190613106565b60206040518083038186803b158015610b9b57600080fd5b505afa158015610baf573d6000803e3d6000fd5b505050506040513d601f19601f82011682018060405250810190610bd39190612a23565b1580610c8a5750600160009054906101000a900473ffffffffffffffffffffffffffffffffffffffff1673ffffffffffffffffffffffffffffffffffffffff1663466f98e86000836040518363ffffffff1660e01b8152600401610c389291906130d6565b60206040518083038186803b158015610c5057600080fd5b505afa158015610c64573d6000803e3d6000fd5b505050506040513d601f19601f82011682018060405250810190610c889190612a23565b155b80610d3d5750600160009054906101000a900473ffffffffffffffffffffffffffffffffffffffff1673ffffffffffffffffffffffffffffffffffffffff1663466f98e8336040518263ffffffff1660e01b8152600401610ceb9190613106565b60206040518083038186803b158015610d0357600080fd5b505afa158015610d17573d6000803e3d6000fd5b505050506040513d601f19601f82011682018060405250810190610d3b9190612a23565b155b80610df25750600160009054906101000a900473ffffffffffffffffffffffffffffffffffffffff1673ffffffffffffffffffffffffffffffffffffffff1663466f98e833836040518363ffffffff1660e01b8152600401610da09291906130d6565b60206040518083038186803b158015610db857600080fd5b505afa158015610dcc573d6000803e3d6000fd5b505050506040513d601f19601f82011682018060405250810190610df09190612a23565b155b610e31576040517f08c379a0000000000000000000000000000000000000000000000000000000008152600401610e2890613251565b60405180910390fd5b6000600160009054906101000a900473ffffffffffffffffffffffffffffffffffffffff1673ffffffffffffffffffffffffffffffffffffffff16636957a0b26040518163ffffffff1660e01b8152600401610e8c906131b1565b60206040518083038186803b158015610ea457600080fd5b505afa158015610eb8573d6000803e3d6000fd5b505050506040513d601f19601f82011682018060405250810190610edc91906129fa565b90508073ffffffffffffffffffffffffffffffffffffffff166323b872dd3360066000876dffffffffffffffffffffffffffff166dffffffffffffffffffffffffffff16815260200190815260200160002060009054906101000a900473ffffffffffffffffffffffffffffffffffffffff1660056000886dffffffffffffffffffffffffffff166dffffffffffffffffffffffffffff168152602001908152602001600020546040518463ffffffff1660e01b8152600401610fa19392919061309f565b602060405180830381600087803b158015610fbb57600080fd5b505af1158015610fcf573d6000803e3d6000fd5b505050506040513d601f19601f82011682018060405250810190610ff39190612a23565b50611018836dffffffffffffffffffffffffffff1660036124a790919063ffffffff16565b5061107a836dffffffffffffffffffffffffffff16600760003373ffffffffffffffffffffffffffffffffffffffff1673ffffffffffffffffffffffffffffffffffffffff1681526020019081526020016000206124a790919063ffffffff16565b506000600160009054906101000a900473ffffffffffffffffffffffffffffffffffffffff1673ffffffffffffffffffffffffffffffffffffffff16636957a0b26040518163ffffffff1660e01b81526004016110d690613231565b60206040518083038186803b1580156110ee57600080fd5b505afa158015611102573d6000803e3d6000fd5b505050506040513d601f19601f8201168201806040525081019061112691906129fa565b90508073ffffffffffffffffffffffffffffffffffffffff166323b872dd3033876040518463ffffffff1660e01b815260040161116593929190613068565b600060405180830381600087803b15801561117f57600080fd5b505af1158015611193573d6000803e3d6000fd5b505050506000600160009054906101000a900473ffffffffffffffffffffffffffffffffffffffff1673ffffffffffffffffffffffffffffffffffffffff16636957a0b26040518163ffffffff1660e01b81526004016111f290613211565b60206040518083038186803b15801561120a57600080fd5b505afa15801561121e573d6000803e3d6000fd5b505050506040513d601f19601f8201168201806040525081019061124291906129fa565b90508073ffffffffffffffffffffffffffffffffffffffff1663deea96073060066000896dffffffffffffffffffffffffffff166dffffffffffffffffffffffffffff16815260200190815260200160002060009054906101000a900473ffffffffffffffffffffffffffffffffffffffff16886040518463ffffffff1660e01b81526004016112d493929190613031565b600060405180830381600087803b1580156112ee57600080fd5b505af1158015611302573d6000803e3d6000fd5b5050505060056000866dffffffffffffffffffffffffffff166dffffffffffffffffffffffffffff1681526020019081526020016000206000905560066000866dffffffffffffffffffffffffffff166dffffffffffffffffffffffffffff16815260200190815260200160002060006101000a81549073ffffffffffffffffffffffffffffffffffffffff02191690555050505050565b6113a26124c1565b73ffffffffffffffffffffffffffffffffffffffff166113c061188c565b73ffffffffffffffffffffffffffffffffffffffff1614611416576040517f08c379a000000000000000000000000000000000000000000000000000000000815260040161140d906131d1565b60405180910390fd5b600073ffffffffffffffffffffffffffffffffffffffff1660008054906101000a900473ffffffffffffffffffffffffffffffffffffffff1673ffffffffffffffffffffffffffffffffffffffff167f8be0079c531659141344cd1fd0a4f28419497f9722a3daafe3b4186f6b6457e060405160405180910390a360008060006101000a81548173ffffffffffffffffffffffffffffffffffffffff021916908373ffffffffffffffffffffffffffffffffffffffff160217905550565b6060600061151f600760008573ffffffffffffffffffffffffffffffffffffffff1673ffffffffffffffffffffffffffffffffffffffff1681526020019081526020016000206124c9565b90508067ffffffffffffffff811115611561577f4e487b7100000000000000000000000000000000000000000000000000000000600052604160045260246000fd5b60405190808252806020026020018201604052801561159a57816020015b6115876127da565b81526020019060019003908161157f5790505b50915060005b818110156117c55760006115fb82600760008873ffffffffffffffffffffffffffffffffffffffff1673ffffffffffffffffffffffffffffffffffffffff1681526020019081526020016000206124de90919063ffffffff16565b905073__NftLibrary____________________________6347d9b14d826040518263ffffffff1660e01b81526004016116349190613271565b60a06040518083038186803b15801561164c57600080fd5b505af4158015611660573d6000803e3d6000fd5b505050506040513d601f19601f820116820180604052508101906116849190612ae1565b8483815181106116bd577f4e487b7100000000000000000000000000000000000000000000000000000000600052603260045260246000fd5b602002602001018190525080848381518110611702577f4e487b7100000000000000000000000000000000000000000000000000000000600052603260045260246000fd5b6020026020010151608001906dffffffffffffffffffffffffffff1690816dffffffffffffffffffffffffffff168152505060056000826dffffffffffffffffffffffffffff166dffffffffffffffffffffffffffff168152602001908152602001600020548483815181106117a1577f4e487b7100000000000000000000000000000000000000000000000000000000600052603260045260246000fd5b602002602001015160600181815250505080806117bd90613502565b9150506115a0565b5050919050565b6117d46124c1565b73ffffffffffffffffffffffffffffffffffffffff166117f261188c565b73ffffffffffffffffffffffffffffffffffffffff1614611848576040517f08c379a000000000000000000000000000000000000000000000000000000000815260040161183f906131d1565b60405180910390fd5b80600160006101000a81548173ffffffffffffffffffffffffffffffffffffffff021916908373ffffffffffffffffffffffffffffffffffffffff16021790555050565b60008060009054906101000a900473ffffffffffffffffffffffffffffffffffffffff16905090565b606060006118c360036124c9565b90508067ffffffffffffffff811115611905577f4e487b7100000000000000000000000000000000000000000000000000000000600052604160045260246000fd5b60405190808252806020026020018201604052801561193e57816020015b61192b6127da565b8152602001906001900390816119235790505b50915060005b81811015611b2c5760006119628260036124de90919063ffffffff16565b905073__NftLibrary____________________________6347d9b14d826040518263ffffffff1660e01b815260040161199b9190613271565b60a06040518083038186803b1580156119b357600080fd5b505af41580156119c7573d6000803e3d6000fd5b505050506040513d601f19601f820116820180604052508101906119eb9190612ae1565b848381518110611a24577f4e487b7100000000000000000000000000000000000000000000000000000000600052603260045260246000fd5b602002602001018190525080848381518110611a69577f4e487b7100000000000000000000000000000000000000000000000000000000600052603260045260246000fd5b6020026020010151608001906dffffffffffffffffffffffffffff1690816dffffffffffffffffffffffffffff168152505060056000826dffffffffffffffffffffffffffff166dffffffffffffffffffffffffffff16815260200190815260200160002054848381518110611b08577f4e487b7100000000000000000000000000000000000000000000000000000000600052603260045260246000fd5b60200260200101516060018181525050508080611b2490613502565b915050611944565b505090565b600160009054906101000a900473ffffffffffffffffffffffffffffffffffffffff1681565b6040518060400160405280600681526020017f4e46545055540000000000000000000000000000000000000000000000000000815250600160009054906101000a900473ffffffffffffffffffffffffffffffffffffffff1673ffffffffffffffffffffffffffffffffffffffff1663466f98e860006040518263ffffffff1660e01b8152600401611be99190613106565b60206040518083038186803b158015611c0157600080fd5b505afa158015611c15573d6000803e3d6000fd5b505050506040513d601f19601f82011682018060405250810190611c399190612a23565b1580611cf05750600160009054906101000a900473ffffffffffffffffffffffffffffffffffffffff1673ffffffffffffffffffffffffffffffffffffffff1663466f98e86000836040518363ffffffff1660e01b8152600401611c9e9291906130d6565b60206040518083038186803b158015611cb657600080fd5b505afa158015611cca573d6000803e3d6000fd5b505050506040513d601f19601f82011682018060405250810190611cee9190612a23565b155b80611da35750600160009054906101000a900473ffffffffffffffffffffffffffffffffffffffff1673ffffffffffffffffffffffffffffffffffffffff1663466f98e8336040518263ffffffff1660e01b8152600401611d519190613106565b60206040518083038186803b158015611d6957600080fd5b505afa158015611d7d573d6000803e3d6000fd5b505050506040513d601f19601f82011682018060405250810190611da19190612a23565b155b80611e585750600160009054906101000a900473ffffffffffffffffffffffffffffffffffffffff1673ffffffffffffffffffffffffffffffffffffffff1663466f98e833836040518363ffffffff1660e01b8152600401611e069291906130d6565b60206040518083038186803b158015611e1e57600080fd5b505afa158015611e32573d6000803e3d6000fd5b505050506040513d601f19601f82011682018060405250810190611e569190612a23565b155b611e97576040517f08c379a0000000000000000000000000000000000000000000000000000000008152600401611e8e90613251565b60405180910390fd5b6000600160009054906101000a900473ffffffffffffffffffffffffffffffffffffffff1673ffffffffffffffffffffffffffffffffffffffff16636957a0b26040518163ffffffff1660e01b8152600401611ef290613231565b60206040518083038186803b158015611f0a57600080fd5b505afa158015611f1e573d6000803e3d6000fd5b505050506040513d601f19601f82011682018060405250810190611f4291906129fa565b90508073ffffffffffffffffffffffffffffffffffffffff16636352211e856040518263ffffffff1660e01b8152600401611f7d919061328c565b60206040518083038186803b158015611f9557600080fd5b505afa158015611fa9573d6000803e3d6000fd5b505050506040513d601f19601f82011682018060405250810190611fcd91906129fa565b73ffffffffffffffffffffffffffffffffffffffff163373ffffffffffffffffffffffffffffffffffffffff161461203a576040517f08c379a0000000000000000000000000000000000000000000000000000000008152600401612031906131f1565b60405180910390fd5b61205e846dffffffffffffffffffffffffffff1660036124f890919063ffffffff16565b508260056000866dffffffffffffffffffffffffffff166dffffffffffffffffffffffffffff168152602001908152602001600020819055506120f8846dffffffffffffffffffffffffffff16600760003373ffffffffffffffffffffffffffffffffffffffff1673ffffffffffffffffffffffffffffffffffffffff1681526020019081526020016000206124f890919063ffffffff16565b503360066000866dffffffffffffffffffffffffffff166dffffffffffffffffffffffffffff16815260200190815260200160002060006101000a81548173ffffffffffffffffffffffffffffffffffffffff021916908373ffffffffffffffffffffffffffffffffffffffff1602179055508073ffffffffffffffffffffffffffffffffffffffff166323b872dd3330876040518463ffffffff1660e01b81526004016121a893929190613068565b600060405180830381600087803b1580156121c257600080fd5b505af11580156121d6573d6000803e3d6000fd5b505050506000600160009054906101000a900473ffffffffffffffffffffffffffffffffffffffff1673ffffffffffffffffffffffffffffffffffffffff16636957a0b26040518163ffffffff1660e01b815260040161223590613211565b60206040518083038186803b15801561224d57600080fd5b505afa158015612261573d6000803e3d6000fd5b505050506040513d601f19601f8201168201806040525081019061228591906129fa565b90508073ffffffffffffffffffffffffffffffffffffffff1663deea9607336000886040518463ffffffff1660e01b81526004016122c593929190613031565b600060405180830381600087803b1580156122df57600080fd5b505af11580156122f3573d6000803e3d6000fd5b505050505050505050565b6123066124c1565b73ffffffffffffffffffffffffffffffffffffffff1661232461188c565b73ffffffffffffffffffffffffffffffffffffffff161461237a576040517f08c379a0000000000000000000000000000000000000000000000000000000008152600401612371906131d1565b60405180910390fd5b600073ffffffffffffffffffffffffffffffffffffffff168173ffffffffffffffffffffffffffffffffffffffff1614156123ea576040517f08c379a00000000000000000000000000000000000000000000000000000000081526004016123e190613191565b60405180910390fd5b8073ffffffffffffffffffffffffffffffffffffffff1660008054906101000a900473ffffffffffffffffffffffffffffffffffffffff1673ffffffffffffffffffffffffffffffffffffffff167f8be0079c531659141344cd1fd0a4f28419497f9722a3daafe3b4186f6b6457e060405160405180910390a3806000806101000a81548173ffffffffffffffffffffffffffffffffffffffff021916908373ffffffffffffffffffffffffffffffffffffffff16021790555050565b60006124b9836000018360001b612512565b905092915050565b600033905090565b60006124d78260000161269c565b9050919050565b60006124ed83600001836126ad565b60001c905092915050565b600061250a836000018360001b612747565b905092915050565b6000808360010160008481526020019081526020016000205490506000811461269057600060018261254491906133d9565b905060006001866000018054905061255c91906133d9565b9050600086600001828154811061259c577f4e487b7100000000000000000000000000000000000000000000000000000000600052603260045260246000fd5b90600052602060002001549050808760000184815481106125e6577f4e487b7100000000000000000000000000000000000000000000000000000000600052603260045260246000fd5b90600052602060002001819055506001836126019190613383565b8760010160008381526020019081526020016000208190555086600001805480612654577f4e487b7100000000000000000000000000000000000000000000000000000000600052603160045260246000fd5b60019003818190600052602060002001600090559055866001016000878152602001908152602001600020600090556001945050505050612696565b60009150505b92915050565b600081600001805490509050919050565b6000818360000180549050116126f8576040517f08c379a00000000000000000000000000000000000000000000000000000000081526004016126ef90613171565b60405180910390fd5b826000018281548110612734577f4e487b7100000000000000000000000000000000000000000000000000000000600052603260045260246000fd5b9060005260206000200154905092915050565b600061275383836127b7565b6127ac5782600001829080600181540180825580915050600190039060005260206000200160009091909190915055826000018054905083600101600084815260200190815260200160002081905550600190506127b1565b600090505b92915050565b600080836001016000848152602001908152602001600020541415905092915050565b6040518060a00160405280600060ff168152602001600061ffff168152602001600061ffff1681526020016000815260200160006dffffffffffffffffffffffffffff1681525090565b6000612837612832846132f3565b6132c2565b90508281526020810184848401111561284f57600080fd5b61285a8482856134c0565b509392505050565b600081359050612871816135ba565b92915050565b600081519050612886816135ba565b92915050565b60008151905061289b816135d1565b92915050565b600082601f8301126128b257600080fd5b81356128c2848260208601612824565b91505092915050565b600060a082840312156128dd57600080fd5b6128e760a06132c2565b905060006128f7848285016129bc565b600083015250602061290b8482850161297d565b602083015250604061291f8482850161297d565b6040830152506060612933848285016129a7565b606083015250608061294784828501612968565b60808301525092915050565b600081359050612962816135e8565b92915050565b600081519050612977816135e8565b92915050565b60008151905061298c816135ff565b92915050565b6000813590506129a181613616565b92915050565b6000815190506129b681613616565b92915050565b6000815190506129cb8161362d565b92915050565b6000602082840312156129e357600080fd5b60006129f184828501612862565b91505092915050565b600060208284031215612a0c57600080fd5b6000612a1a84828501612877565b91505092915050565b600060208284031215612a3557600080fd5b6000612a438482850161288c565b91505092915050565b600060208284031215612a5e57600080fd5b600082013567ffffffffffffffff811115612a7857600080fd5b612a84848285016128a1565b91505092915050565b60008060408385031215612aa057600080fd5b600083013567ffffffffffffffff811115612aba57600080fd5b612ac6858286016128a1565b9250506020612ad785828601612992565b9150509250929050565b600060a08284031215612af357600080fd5b6000612b01848285016128cb565b91505092915050565b600060208284031215612b1c57600080fd5b6000612b2a84828501612953565b91505092915050565b60008060408385031215612b4657600080fd5b6000612b5485828601612953565b9250506020612b6585828601612992565b9150509250929050565b6000612b7b8383612f1f565b60a08301905092915050565b612b908161340d565b82525050565b6000612ba182613333565b612bab8185613356565b9350612bb683613323565b8060005b83811015612be7578151612bce8882612b6f565b9750612bd983613349565b925050600181019050612bba565b5085935050505092915050565b612bfd8161348a565b82525050565b6000612c0e8261333e565b612c188185613367565b9350612c288185602086016134cf565b612c31816135a9565b840191505092915050565b6000612c478261333e565b612c518185613378565b9350612c618185602086016134cf565b80840191505092915050565b6000612c7a602283613367565b91507f456e756d657261626c655365743a20696e646578206f7574206f6620626f756e60008301527f64730000000000000000000000000000000000000000000000000000000000006020830152604082019050919050565b6000612ce0602683613367565b91507f4f776e61626c653a206e6577206f776e657220697320746865207a65726f206160008301527f64647265737300000000000000000000000000000000000000000000000000006020830152604082019050919050565b6000612d46600583613367565b91507f544f4b454e0000000000000000000000000000000000000000000000000000006000830152602082019050919050565b6000612d86602083613367565b91507f4f776e61626c653a2063616c6c6572206973206e6f7420746865206f776e65726000830152602082019050919050565b6000612dc6601583613367565b91507f45584348414e47453a204f6e6c79206f6e7765722e00000000000000000000006000830152602082019050919050565b6000612e06600a83613367565b91507f43415244524557415244000000000000000000000000000000000000000000006000830152602082019050919050565b6000612e46600383613367565b91507f414c4c00000000000000000000000000000000000000000000000000000000006000830152602082019050919050565b6000612e86600783613367565b91507f46494748544552000000000000000000000000000000000000000000000000006000830152602082019050919050565b6000612ec6602483613367565b91507f4d656d6265723a20546865206f7065726174696f6e206973206e6f7420616c6c60008301527f6f776564000000000000000000000000000000000000000000000000000000006020830152604082019050919050565b60a082016000820151612f356000850182612ff0565b506020820151612f486020850182612fc3565b506040820151612f5b6040850182612fc3565b506060820151612f6e6060850182612fd2565b506080820151612f816080850182612f87565b50505050565b612f908161342b565b82525050565b612f9f8161342b565b82525050565b612fae8161342b565b82525050565b612fbd816134ae565b82525050565b612fcc81613445565b82525050565b612fdb81613473565b82525050565b612fea81613473565b82525050565b612ff98161347d565b82525050565b600061300b8284612c3c565b915081905092915050565b600060208201905061302b6000830184612b87565b92915050565b60006060820190506130466000830186612b87565b6130536020830185612b87565b6130606040830184612f96565b949350505050565b600060608201905061307d6000830186612b87565b61308a6020830185612b87565b6130976040830184612fb4565b949350505050565b60006060820190506130b46000830186612b87565b6130c16020830185612b87565b6130ce6040830184612fe1565b949350505050565b60006040820190506130eb6000830185612b87565b81810360208301526130fd8184612c03565b90509392505050565b600060408201905061311b6000830184612b87565b818103602083015261312c81612e39565b905092915050565b6000602082019050818103600083015261314e8184612b96565b905092915050565b600060208201905061316b6000830184612bf4565b92915050565b6000602082019050818103600083015261318a81612c6d565b9050919050565b600060208201905081810360008301526131aa81612cd3565b9050919050565b600060208201905081810360008301526131ca81612d39565b9050919050565b600060208201905081810360008301526131ea81612d79565b9050919050565b6000602082019050818103600083015261320a81612db9565b9050919050565b6000602082019050818103600083015261322a81612df9565b9050919050565b6000602082019050818103600083015261324a81612e79565b9050919050565b6000602082019050818103600083015261326a81612eb9565b9050919050565b60006020820190506132866000830184612fa5565b92915050565b60006020820190506132a16000830184612fb4565b92915050565b60006020820190506132bc6000830184612fe1565b92915050565b6000604051905081810181811067ffffffffffffffff821117156132e9576132e861357a565b5b8060405250919050565b600067ffffffffffffffff82111561330e5761330d61357a565b5b601f19601f8301169050602081019050919050565b6000819050602082019050919050565b600081519050919050565b600081519050919050565b6000602082019050919050565b600082825260208201905092915050565b600082825260208201905092915050565b600081905092915050565b600061338e82613473565b915061339983613473565b9250827fffffffffffffffffffffffffffffffffffffffffffffffffffffffffffffffff038211156133ce576133cd61354b565b5b828201905092915050565b60006133e482613473565b91506133ef83613473565b9250828210156134025761340161354b565b5b828203905092915050565b600061341882613453565b9050919050565b60008115159050919050565b60006dffffffffffffffffffffffffffff82169050919050565b600061ffff82169050919050565b600073ffffffffffffffffffffffffffffffffffffffff82169050919050565b6000819050919050565b600060ff82169050919050565b60006134958261349c565b9050919050565b60006134a782613453565b9050919050565b60006134b98261342b565b9050919050565b82818337600083830152505050565b60005b838110156134ed5780820151818401526020810190506134d2565b838111156134fc576000848401525b50505050565b600061350d82613473565b91507fffffffffffffffffffffffffffffffffffffffffffffffffffffffffffffffff8214156135405761353f61354b565b5b600182019050919050565b7f4e487b7100000000000000000000000000000000000000000000000000000000600052601160045260246000fd5b7f4e487b7100000000000000000000000000000000000000000000000000000000600052604160045260246000fd5b6000601f19601f8301169050919050565b6135c38161340d565b81146135ce57600080fd5b50565b6135da8161341f565b81146135e557600080fd5b50565b6135f18161342b565b81146135fc57600080fd5b50565b61360881613445565b811461361357600080fd5b50565b61361f81613473565b811461362a57600080fd5b50565b6136368161347d565b811461364157600080fd5b5056fea26469706673582212207ada1274b6fc3fd7eff687b68cd76086c9a1349f08add61bccf3418bdb92e21564736f6c63430008000033",
  "immutableReferences": {},
  "source": "// SPDX-License-Identifier: SimPL-2.0\n\npragma solidity ^0.8.0;\n\nimport \"../core/CardReward.sol\";\nimport \"../libraries/NftLibrary.sol\";\n\nimport \"@openzeppelin/contracts/token/ERC20/IERC20.sol\";\nimport \"@openzeppelin/contracts/token/ERC721/IERC721.sol\";\nimport \"@openzeppelin/contracts/utils/structs/EnumerableSet.sol\";\n\n/**\n * @title U Box Sea - ERC721\n *\n * @author Bit Lighthouse. Ace\n * AT: 2021-3-28 | VERSION: v1.0.2\n */\n\ncontract Exchange is Member {\n    using SafeMath for uint256;\n    using EnumerableSet for EnumerableSet.UintSet;\n\n    EnumerableSet.UintSet private _tokens;\n    mapping (uint112 => uint256) private _amounts;\n    mapping (uint112 => address) private _owners;\n    mapping (address => EnumerableSet.UintSet) private _my;\n\n    constructor(address auth_) Member(auth_) { }\n\n    function getExchangeList() public view \n        returns (NftLibrary.DetailStruct[] memory list) {\n\n        uint256 len = _tokens.length();\n        list = new NftLibrary.DetailStruct[](len);\n\n        for (uint i = 0; i < len; i++) {\n            uint112 tokenId = uint112(_tokens.at(i));\n            list[i] = NftLibrary.analysis(tokenId);\n            list[i].tokenId = tokenId;\n            list[i].amount = _amounts[tokenId];\n        }\n    }\n\n    function getMyExchangeList(address account_) public view \n        returns (NftLibrary.DetailStruct[] memory list) {\n\n        uint256 len = _my[account_].length();\n        list = new NftLibrary.DetailStruct[](len);\n\n        for (uint i = 0; i < len; i++) {\n            uint112 tokenId = uint112(_my[account_].at(i));\n            list[i] = NftLibrary.analysis(tokenId);\n            list[i].tokenId = tokenId;\n            list[i].amount = _amounts[tokenId];\n        }\n    }\n\n    function put(uint112 tokenId_, uint256 amount) public\n        CheckStatus(\"NFTPUT\"){\n\n        IERC721 figh = IERC721(authority.members(\"FIGHTER\"));\n        require(\n            msg.sender == figh.ownerOf(tokenId_),\n            \"EXCHANGE: Only onwer.\"\n        );\n\n        _tokens.add(tokenId_); _amounts[tokenId_] = amount;\n        _my[msg.sender].add(tokenId_); _owners[tokenId_] = msg.sender;\n        figh.transferFrom(msg.sender, address(this), tokenId_);\n        CardReward cr = CardReward(authority.members(\"CARDREWARD\"));\n        cr.doExchange(msg.sender, address(0), tokenId_);\n    }\n\n    function pull(uint112 tokenId_) public CheckStatus(\"NFTPULL\"){\n        require(\n            msg.sender == _owners[tokenId_],\n            \"EXCHANGE: Only onwer.\"\n        );\n\n        _tokens.remove(tokenId_);\n        _my[msg.sender].remove(tokenId_);\n        IERC721 figh = IERC721(authority.members(\"FIGHTER\"));\n        figh.transferFrom(address(this), msg.sender, tokenId_);\n        CardReward cr = CardReward(authority.members(\"CARDREWARD\"));\n        cr.doExchange(address(0), msg.sender, tokenId_);\n\n        delete _amounts[tokenId_]; delete _owners[tokenId_];\n    }\n    \n    function buy(uint112 tokenId_) public CheckStatus(\"NFTBUY\") {\n        IERC20 token = IERC20(authority.members(\"TOKEN\"));\n        token.transferFrom(msg.sender, _owners[tokenId_], _amounts[tokenId_]);\n\n        _tokens.remove(tokenId_);\n        _my[msg.sender].remove(tokenId_);\n        IERC721 figh = IERC721(authority.members(\"FIGHTER\"));\n        figh.transferFrom(address(this), msg.sender, tokenId_);\n        CardReward cr = CardReward(authority.members(\"CARDREWARD\"));\n        cr.doExchange(address(this), _owners[tokenId_], tokenId_);\n\n        delete _amounts[tokenId_]; delete _owners[tokenId_];\n    }\n}",
  "sourcePath": "/home/ace/Projects/eth/other/dragon-ball-project/dragon-ball-contract/contracts/core/Exchange.sol",
  "compiler": {
    "name": "solc",
    "version": "0.8.0+commit.c7dfd78e.Emscripten.clang"
  },
  "schemaVersion": "3.4.3",
  "updatedAt": "2021-08-31T14:01:57.184Z",
  "networkType": "ethereum",
  "devdoc": {
    "author": "Bit Lighthouse. Ace AT: 2021-3-28 | VERSION: v1.0.2",
    "kind": "dev",
    "methods": {
      "owner()": {
        "details": "Returns the address of the current owner."
      },
      "renounceOwnership()": {
        "details": "Leaves the contract without owner. It will not be possible to call `onlyOwner` functions anymore. Can only be called by the current owner. NOTE: Renouncing ownership will leave the contract without an owner, thereby removing any functionality that is only available to the owner."
      },
      "setAuthority(address)": {
        "params": {
          "authority_": "address of manager This function is onwer only"
        }
      },
      "setConfig(string,uint256)": {
        "params": {
          "config_": "config's value This function is config only",
          "name_": "name of config"
        }
      },
      "transferOwnership(address)": {
        "details": "Transfers ownership of the contract to a new account (`newOwner`). Can only be called by the current owner."
      }
    },
    "title": "U Box Sea - ERC721",
    "version": 1
  },
  "userdoc": {
    "kind": "user",
    "methods": {
      "setAuthority(address)": {
        "notice": "Set new manager"
      },
      "setConfig(string,uint256)": {
        "notice": "Set config of global or contract"
      }
    },
    "version": 1
  }
}