{
  "contractName": "Exchange",
  "abi": [
    {
      "inputs": [
        {
          "internalType": "address",
          "name": "auth_",
          "type": "address"
        }
      ],
      "stateMutability": "nonpayable",
      "type": "constructor"
    },
    {
      "anonymous": false,
      "inputs": [
        {
          "indexed": false,
          "internalType": "uint16",
          "name": "rate",
          "type": "uint16"
        },
        {
          "indexed": false,
          "internalType": "uint256",
          "name": "reward",
          "type": "uint256"
        },
        {
          "indexed": false,
          "internalType": "uint256",
          "name": "surpls",
          "type": "uint256"
        }
      ],
      "name": "DoExchange",
      "type": "event"
    },
    {
      "anonymous": false,
      "inputs": [
        {
          "indexed": true,
          "internalType": "address",
          "name": "previousOwner",
          "type": "address"
        },
        {
          "indexed": true,
          "internalType": "address",
          "name": "newOwner",
          "type": "address"
        }
      ],
      "name": "OwnershipTransferred",
      "type": "event"
    },
    {
      "anonymous": false,
      "inputs": [
        {
          "indexed": false,
          "internalType": "uint256",
          "name": "reward",
          "type": "uint256"
        },
        {
          "indexed": false,
          "internalType": "uint256",
          "name": "surpls",
          "type": "uint256"
        }
      ],
      "name": "Redeemed",
      "type": "event"
    },
    {
      "inputs": [],
      "name": "authority",
      "outputs": [
        {
          "internalType": "contract Authority",
          "name": "",
          "type": "address"
        }
      ],
      "stateMutability": "view",
      "type": "function"
    },
    {
      "inputs": [],
      "name": "owner",
      "outputs": [
        {
          "internalType": "address",
          "name": "",
          "type": "address"
        }
      ],
      "stateMutability": "view",
      "type": "function"
    },
    {
      "inputs": [],
      "name": "renounceOwnership",
      "outputs": [],
      "stateMutability": "nonpayable",
      "type": "function"
    },
    {
      "inputs": [
        {
          "internalType": "address",
          "name": "authority_",
          "type": "address"
        }
      ],
      "name": "setAuthority",
      "outputs": [],
      "stateMutability": "nonpayable",
      "type": "function"
    },
    {
      "inputs": [
        {
          "internalType": "address",
          "name": "newOwner",
          "type": "address"
        }
      ],
      "name": "transferOwnership",
      "outputs": [],
      "stateMutability": "nonpayable",
      "type": "function"
    },
    {
      "inputs": [
        {
          "internalType": "uint104",
          "name": "tokenId_",
          "type": "uint104"
        }
      ],
      "name": "redeemed",
      "outputs": [],
      "stateMutability": "nonpayable",
      "type": "function"
    },
    {
      "inputs": [
        {
          "internalType": "uint8",
          "name": "quality_",
          "type": "uint8"
        }
      ],
      "name": "exchange",
      "outputs": [],
      "stateMutability": "nonpayable",
      "type": "function"
    }
  ],
  "bytecode": "0x60806040523480156200001157600080fd5b506040516200336d3803806200336d833981810160405281019062000037919062000150565b8060006200004a6200013160201b60201c565b9050806000806101000a81548173ffffffffffffffffffffffffffffffffffffffff021916908373ffffffffffffffffffffffffffffffffffffffff1602179055508073ffffffffffffffffffffffffffffffffffffffff16600073ffffffffffffffffffffffffffffffffffffffff167f8be0079c531659141344cd1fd0a4f28419497f9722a3daafe3b4186f6b6457e060405160405180910390a35080600160006101000a81548173ffffffffffffffffffffffffffffffffffffffff021916908373ffffffffffffffffffffffffffffffffffffffff1602179055505050620001ca565b600033905090565b6000815190506200014a81620001b0565b92915050565b6000602082840312156200016357600080fd5b6000620001738482850162000139565b91505092915050565b6000620001898262000190565b9050919050565b600073ffffffffffffffffffffffffffffffffffffffff82169050919050565b620001bb816200017c565b8114620001c757600080fd5b50565b61319380620001da6000396000f3fe608060405234801561001057600080fd5b506004361061007d5760003560e01c80637a9e5e4b1161005b5780637a9e5e4b146100c45780638da5cb5b146100e0578063bf7e214f146100fe578063f2fde38b1461011c5761007d565b806315f42ce914610082578063351256a81461009e578063715018a6146100ba575b600080fd5b61009c600480360381019061009791906123ca565b610138565b005b6100b860048036038101906100b39190612378565b611127565b005b6100c2611c4d565b005b6100de60048036038101906100d99190612282565b611d87565b005b6100e8611e47565b6040516100f59190612997565b60405180910390f35b610106611e70565b6040516101139190612ade565b60405180910390f35b61013660048036038101906101319190612282565b611e96565b005b6040518060400160405280600881526020017f45584348414e4745000000000000000000000000000000000000000000000000815250600160009054906101000a900473ffffffffffffffffffffffffffffffffffffffff1673ffffffffffffffffffffffffffffffffffffffff1663466f98e860006040518263ffffffff1660e01b81526004016101ca9190612a19565b60206040518083038186803b1580156101e257600080fd5b505afa1580156101f6573d6000803e3d6000fd5b505050506040513d601f19601f8201168201806040525081019061021a91906122d4565b1561025a576040517f08c379a000000000000000000000000000000000000000000000000000000000815260040161025190612b39565b60405180910390fd5b600160009054906101000a900473ffffffffffffffffffffffffffffffffffffffff1673ffffffffffffffffffffffffffffffffffffffff1663466f98e86000836040518363ffffffff1660e01b81526004016102b89291906129e9565b60206040518083038186803b1580156102d057600080fd5b505afa1580156102e4573d6000803e3d6000fd5b505050506040513d601f19601f8201168201806040525081019061030891906122d4565b15610348576040517f08c379a000000000000000000000000000000000000000000000000000000000815260040161033f90612b99565b60405180910390fd5b600160009054906101000a900473ffffffffffffffffffffffffffffffffffffffff1673ffffffffffffffffffffffffffffffffffffffff1663466f98e8336040518263ffffffff1660e01b81526004016103a39190612a19565b60206040518083038186803b1580156103bb57600080fd5b505afa1580156103cf573d6000803e3d6000fd5b505050506040513d601f19601f820116820180604052508101906103f391906122d4565b15610433576040517f08c379a000000000000000000000000000000000000000000000000000000000815260040161042a90612cb9565b60405180910390fd5b600160009054906101000a900473ffffffffffffffffffffffffffffffffffffffff1673ffffffffffffffffffffffffffffffffffffffff1663466f98e833836040518363ffffffff1660e01b81526004016104909291906129e9565b60206040518083038186803b1580156104a857600080fd5b505afa1580156104bc573d6000803e3d6000fd5b505050506040513d601f19601f820116820180604052508101906104e091906122d4565b15610520576040517f08c379a000000000000000000000000000000000000000000000000000000000815260040161051790612cb9565b60405180910390fd5b6000600160009054906101000a900473ffffffffffffffffffffffffffffffffffffffff1673ffffffffffffffffffffffffffffffffffffffff16636957a0b26040518163ffffffff1660e01b815260040161057b90612c99565b60206040518083038186803b15801561059357600080fd5b505afa1580156105a7573d6000803e3d6000fd5b505050506040513d601f19601f820116820180604052508101906105cb91906122ab565b90506000808273ffffffffffffffffffffffffffffffffffffffff166370a08231336040518263ffffffff1660e01b81526004016106099190612997565b60206040518083038186803b15801561062157600080fd5b505afa158015610635573d6000803e3d6000fd5b505050506040513d601f19601f8201168201806040525081019061065991906123a1565b905060008167ffffffffffffffff81111561069d577f4e487b7100000000000000000000000000000000000000000000000000000000600052604160045260246000fd5b6040519080825280602002602001820160405280156106cb5781602001602082028036833780820191505090505b50905060005b828110156108925760008573ffffffffffffffffffffffffffffffffffffffff1663cfdc352233846040518363ffffffff1660e01b8152600401610716929190612a47565b60206040518083038186803b15801561072e57600080fd5b505afa158015610742573d6000803e3d6000fd5b505050506040513d601f19601f8201168201806040525081019061076691906123a1565b9050610770612073565b73__NftLibrary____________________________63d6ebbcfb836040518263ffffffff1660e01b81526004016107a79190612cd9565b60806040518083038186803b1580156107bf57600080fd5b505af41580156107d3573d6000803e3d6000fd5b505050506040513d601f19601f820116820180604052508101906107f791906122fd565b90508860ff16816000015160ff161461081157505061087f565b60018661081e9190612e00565b95508184848151811061085a577f4e487b7100000000000000000000000000000000000000000000000000000000600052603260045260246000fd5b602002602001019067ffffffffffffffff16908167ffffffffffffffff168152505050505b808061088a90612fec565b9150506106d1565b5060008473ffffffffffffffffffffffffffffffffffffffff1663d9465f4a886040518263ffffffff1660e01b81526004016108ce9190612d6f565b60606040518083038186803b1580156108e657600080fd5b505afa1580156108fa573d6000803e3d6000fd5b505050506040513d601f19601f8201168201806040525081019061091e9190612326565b90506000816000015161ffff161180156109405750806000015161ffff168410155b61097f576040517f08c379a000000000000000000000000000000000000000000000000000000000815260040161097690612bb9565b60405180910390fd5b60008573ffffffffffffffffffffffffffffffffffffffff1663604e3706336040518263ffffffff1660e01b81526004016109ba9190612997565b60606040518083038186803b1580156109d257600080fd5b505afa1580156109e6573d6000803e3d6000fd5b505050506040513d601f19601f82011682018060405250810190610a0a919061234f565b90508060400151826000015161ffff1686610a259190612e56565b10610a65576040517f08c379a0000000000000000000000000000000000000000000000000000000008152600401610a5c90612c59565b60405180910390fd5b6000600160009054906101000a900473ffffffffffffffffffffffffffffffffffffffff1673ffffffffffffffffffffffffffffffffffffffff16636957a0b26040518163ffffffff1660e01b8152600401610ac090612b79565b60206040518083038186803b158015610ad857600080fd5b505afa158015610aec573d6000803e3d6000fd5b505050506040513d601f19601f82011682018060405250810190610b1091906122ab565b90506000600160009054906101000a900473ffffffffffffffffffffffffffffffffffffffff1673ffffffffffffffffffffffffffffffffffffffff16636957a0b26040518163ffffffff1660e01b8152600401610b6d90612bd9565b60206040518083038186803b158015610b8557600080fd5b505afa158015610b99573d6000803e3d6000fd5b505050506040513d601f19601f82011682018060405250810190610bbd91906122ab565b905060008173ffffffffffffffffffffffffffffffffffffffff166370a08231846040518263ffffffff1660e01b8152600401610bfa9190612997565b60206040518083038186803b158015610c1257600080fd5b505afa158015610c26573d6000803e3d6000fd5b505050506040513d601f19601f82011682018060405250810190610c4a91906123a1565b90506000610c7c6064610c6e886020015161ffff168561203f90919063ffffffff16565b61205590919063ffffffff16565b905060008373ffffffffffffffffffffffffffffffffffffffff166323b872dd8633856040518463ffffffff1660e01b8152600401610cbd939291906129b2565b602060405180830381600087803b158015610cd757600080fd5b505af1158015610ceb573d6000803e3d6000fd5b505050506040513d601f19601f82011682018060405250810190610d0f91906122d4565b905080610d51576040517f08c379a0000000000000000000000000000000000000000000000000000000008152600401610d4890612af9565b60405180910390fd5b8a73ffffffffffffffffffffffffffffffffffffffff1663aa10ce22336040518263ffffffff1660e01b8152600401610d8a9190612997565b600060405180830381600087803b158015610da457600080fd5b505af1158015610db8573d6000803e3d6000fd5b5050505060008d90506000600160009054906101000a900473ffffffffffffffffffffffffffffffffffffffff1673ffffffffffffffffffffffffffffffffffffffff16636957a0b26040518163ffffffff1660e01b8152600401610e1c90612c39565b60206040518083038186803b158015610e3457600080fd5b505afa158015610e48573d6000803e3d6000fd5b505050506040513d601f19601f82011682018060405250810190610e6c91906122ab565b905060005b8b81101561104e5760008b8281518110610eb4577f4e487b7100000000000000000000000000000000000000000000000000000000600052603260045260246000fd5b602002602001015167ffffffffffffffff1611610ed05761103b565b8d73ffffffffffffffffffffffffffffffffffffffff166394637d9533858e8581518110610f27577f4e487b7100000000000000000000000000000000000000000000000000000000600052603260045260246000fd5b60200260200101516040518463ffffffff1660e01b8152600401610f4d93929190612aa7565b600060405180830381600087803b158015610f6757600080fd5b505af1158015610f7b573d6000803e3d6000fd5b505050508173ffffffffffffffffffffffffffffffffffffffff16632c74ee4f84602f8e8581518110610fd7577f4e487b7100000000000000000000000000000000000000000000000000000000600052603260045260246000fd5b602002602001015167ffffffffffffffff16901c6040518363ffffffff1660e01b8152600401611008929190612d8a565b600060405180830381600087803b15801561102257600080fd5b505af1158015611036573d6000803e3d6000fd5b505050505b808061104690612fec565b915050610e71565b507f608df846e407cc9ba823f6935a74fbeeeba9387d9dc7a1d0531f837189a416b98960200151858873ffffffffffffffffffffffffffffffffffffffff166370a082318b6040518263ffffffff1660e01b81526004016110af9190612997565b60206040518083038186803b1580156110c757600080fd5b505afa1580156110db573d6000803e3d6000fd5b505050506040513d601f19601f820116820180604052508101906110ff91906123a1565b60405161110e93929190612d0f565b60405180910390a1505050505050505050505050505050565b6040518060400160405280600881526020017f52454445454d4544000000000000000000000000000000000000000000000000815250600160009054906101000a900473ffffffffffffffffffffffffffffffffffffffff1673ffffffffffffffffffffffffffffffffffffffff1663466f98e860006040518263ffffffff1660e01b81526004016111b99190612a19565b60206040518083038186803b1580156111d157600080fd5b505afa1580156111e5573d6000803e3d6000fd5b505050506040513d601f19601f8201168201806040525081019061120991906122d4565b15611249576040517f08c379a000000000000000000000000000000000000000000000000000000000815260040161124090612b39565b60405180910390fd5b600160009054906101000a900473ffffffffffffffffffffffffffffffffffffffff1673ffffffffffffffffffffffffffffffffffffffff1663466f98e86000836040518363ffffffff1660e01b81526004016112a79291906129e9565b60206040518083038186803b1580156112bf57600080fd5b505afa1580156112d3573d6000803e3d6000fd5b505050506040513d601f19601f820116820180604052508101906112f791906122d4565b15611337576040517f08c379a000000000000000000000000000000000000000000000000000000000815260040161132e90612b99565b60405180910390fd5b600160009054906101000a900473ffffffffffffffffffffffffffffffffffffffff1673ffffffffffffffffffffffffffffffffffffffff1663466f98e8336040518263ffffffff1660e01b81526004016113929190612a19565b60206040518083038186803b1580156113aa57600080fd5b505afa1580156113be573d6000803e3d6000fd5b505050506040513d601f19601f820116820180604052508101906113e291906122d4565b15611422576040517f08c379a000000000000000000000000000000000000000000000000000000000815260040161141990612cb9565b60405180910390fd5b600160009054906101000a900473ffffffffffffffffffffffffffffffffffffffff1673ffffffffffffffffffffffffffffffffffffffff1663466f98e833836040518363ffffffff1660e01b815260040161147f9291906129e9565b60206040518083038186803b15801561149757600080fd5b505afa1580156114ab573d6000803e3d6000fd5b505050506040513d601f19601f820116820180604052508101906114cf91906122d4565b1561150f576040517f08c379a000000000000000000000000000000000000000000000000000000000815260040161150690612cb9565b60405180910390fd5b6000600160009054906101000a900473ffffffffffffffffffffffffffffffffffffffff1673ffffffffffffffffffffffffffffffffffffffff16636957a0b26040518163ffffffff1660e01b815260040161156a90612c99565b60206040518083038186803b15801561158257600080fd5b505afa158015611596573d6000803e3d6000fd5b505050506040513d601f19601f820116820180604052508101906115ba91906122ab565b90508073ffffffffffffffffffffffffffffffffffffffff16636352211e846040518263ffffffff1660e01b81526004016115f59190612cf4565b60206040518083038186803b15801561160d57600080fd5b505afa158015611621573d6000803e3d6000fd5b505050506040513d601f19601f8201168201806040525081019061164591906122ab565b73ffffffffffffffffffffffffffffffffffffffff163373ffffffffffffffffffffffffffffffffffffffff16146116b2576040517f08c379a00000000000000000000000000000000000000000000000000000000081526004016116a990612c19565b60405180910390fd5b6000600160009054906101000a900473ffffffffffffffffffffffffffffffffffffffff1673ffffffffffffffffffffffffffffffffffffffff16636957a0b26040518163ffffffff1660e01b815260040161170d90612b79565b60206040518083038186803b15801561172557600080fd5b505afa158015611739573d6000803e3d6000fd5b505050506040513d601f19601f8201168201806040525081019061175d91906122ab565b90506000600160009054906101000a900473ffffffffffffffffffffffffffffffffffffffff1673ffffffffffffffffffffffffffffffffffffffff16636957a0b26040518163ffffffff1660e01b81526004016117ba90612bd9565b60206040518083038186803b1580156117d257600080fd5b505afa1580156117e6573d6000803e3d6000fd5b505050506040513d601f19601f8201168201806040525081019061180a91906122ab565b9050611814612073565b73__NftLibrary____________________________63d6ebbcfb876040518263ffffffff1660e01b815260040161184b9190612cd9565b60806040518083038186803b15801561186357600080fd5b505af4158015611877573d6000803e3d6000fd5b505050506040513d601f19601f8201168201806040525081019061189b91906122fd565b90506000816060015190506118d460646118c6846040015161ffff168461203f90919063ffffffff16565b61205590919063ffffffff16565b905060008111611919576040517f08c379a000000000000000000000000000000000000000000000000000000000815260040161191090612c79565b60405180910390fd5b60008373ffffffffffffffffffffffffffffffffffffffff166323b872dd8633856040518463ffffffff1660e01b8152600401611958939291906129b2565b602060405180830381600087803b15801561197257600080fd5b505af1158015611986573d6000803e3d6000fd5b505050506040513d601f19601f820116820180604052508101906119aa91906122d4565b9050806119ec576040517f08c379a00000000000000000000000000000000000000000000000000000000081526004016119e390612b59565b60405180910390fd5b6000600160009054906101000a900473ffffffffffffffffffffffffffffffffffffffff1673ffffffffffffffffffffffffffffffffffffffff16636957a0b26040518163ffffffff1660e01b8152600401611a4790612c39565b60206040518083038186803b158015611a5f57600080fd5b505afa158015611a73573d6000803e3d6000fd5b505050506040513d601f19601f82011682018060405250810190611a9791906122ab565b90508073ffffffffffffffffffffffffffffffffffffffff16632c74ee4f856000015186602001516040518363ffffffff1660e01b8152600401611adc929190612d8a565b600060405180830381600087803b158015611af657600080fd5b505af1158015611b0a573d6000803e3d6000fd5b505050508673ffffffffffffffffffffffffffffffffffffffff166394637d953386600001518c6040518463ffffffff1660e01b8152600401611b4f93929190612a70565b600060405180830381600087803b158015611b6957600080fd5b505af1158015611b7d573d6000803e3d6000fd5b505050507f6f73b7b8d37df32ea60a45eadc8fc3d2d716d705ee099bd506817482ce847316838673ffffffffffffffffffffffffffffffffffffffff166370a08231896040518263ffffffff1660e01b8152600401611bdc9190612997565b60206040518083038186803b158015611bf457600080fd5b505afa158015611c08573d6000803e3d6000fd5b505050506040513d601f19601f82011682018060405250810190611c2c91906123a1565b604051611c3a929190612d46565b60405180910390a1505050505050505050565b611c5561206b565b73ffffffffffffffffffffffffffffffffffffffff16611c73611e47565b73ffffffffffffffffffffffffffffffffffffffff1614611cc9576040517f08c379a0000000000000000000000000000000000000000000000000000000008152600401611cc090612bf9565b60405180910390fd5b600073ffffffffffffffffffffffffffffffffffffffff1660008054906101000a900473ffffffffffffffffffffffffffffffffffffffff1673ffffffffffffffffffffffffffffffffffffffff167f8be0079c531659141344cd1fd0a4f28419497f9722a3daafe3b4186f6b6457e060405160405180910390a360008060006101000a81548173ffffffffffffffffffffffffffffffffffffffff021916908373ffffffffffffffffffffffffffffffffffffffff160217905550565b611d8f61206b565b73ffffffffffffffffffffffffffffffffffffffff16611dad611e47565b73ffffffffffffffffffffffffffffffffffffffff1614611e03576040517f08c379a0000000000000000000000000000000000000000000000000000000008152600401611dfa90612bf9565b60405180910390fd5b80600160006101000a81548173ffffffffffffffffffffffffffffffffffffffff021916908373ffffffffffffffffffffffffffffffffffffffff16021790555050565b60008060009054906101000a900473ffffffffffffffffffffffffffffffffffffffff16905090565b600160009054906101000a900473ffffffffffffffffffffffffffffffffffffffff1681565b611e9e61206b565b73ffffffffffffffffffffffffffffffffffffffff16611ebc611e47565b73ffffffffffffffffffffffffffffffffffffffff1614611f12576040517f08c379a0000000000000000000000000000000000000000000000000000000008152600401611f0990612bf9565b60405180910390fd5b600073ffffffffffffffffffffffffffffffffffffffff168173ffffffffffffffffffffffffffffffffffffffff161415611f82576040517f08c379a0000000000000000000000000000000000000000000000000000000008152600401611f7990612b19565b60405180910390fd5b8073ffffffffffffffffffffffffffffffffffffffff1660008054906101000a900473ffffffffffffffffffffffffffffffffffffffff1673ffffffffffffffffffffffffffffffffffffffff167f8be0079c531659141344cd1fd0a4f28419497f9722a3daafe3b4186f6b6457e060405160405180910390a3806000806101000a81548173ffffffffffffffffffffffffffffffffffffffff021916908373ffffffffffffffffffffffffffffffffffffffff16021790555050565b6000818361204d9190612e87565b905092915050565b600081836120639190612e56565b905092915050565b600033905090565b6040518060800160405280600060ff168152602001600061ffff168152602001600061ffff168152602001600081525090565b6000813590506120b5816130d3565b92915050565b6000815190506120ca816130d3565b92915050565b6000815190506120df816130ea565b92915050565b6000608082840312156120f757600080fd5b6121016080612db3565b905060006121118482850161226d565b60008301525060206121258482850161222e565b60208301525060406121398482850161222e565b604083015250606061214d84828501612243565b60608301525092915050565b60006060828403121561216b57600080fd5b6121756060612db3565b905060006121858482850161222e565b60008301525060206121998482850161222e565b60208301525060406121ad8482850161226d565b60408301525092915050565b6000606082840312156121cb57600080fd5b6121d56060612db3565b905060006121e584828501612243565b60008301525060206121f984828501612243565b602083015250604061220d84828501612243565b60408301525092915050565b60008135905061222881613101565b92915050565b60008151905061223d81613118565b92915050565b6000815190506122528161312f565b92915050565b60008135905061226781613146565b92915050565b60008151905061227c81613146565b92915050565b60006020828403121561229457600080fd5b60006122a2848285016120a6565b91505092915050565b6000602082840312156122bd57600080fd5b60006122cb848285016120bb565b91505092915050565b6000602082840312156122e657600080fd5b60006122f4848285016120d0565b91505092915050565b60006080828403121561230f57600080fd5b600061231d848285016120e5565b91505092915050565b60006060828403121561233857600080fd5b600061234684828501612159565b91505092915050565b60006060828403121561236157600080fd5b600061236f848285016121b9565b91505092915050565b60006020828403121561238a57600080fd5b600061239884828501612219565b91505092915050565b6000602082840312156123b357600080fd5b60006123c184828501612243565b91505092915050565b6000602082840312156123dc57600080fd5b60006123ea84828501612258565b91505092915050565b6123fc81612ee1565b82525050565b61240b81612f71565b82525050565b600061241c82612de4565b6124268185612def565b9350612436818560208601612fb9565b61243f816130c2565b840191505092915050565b6000612457602083612def565b91507f45584348414e47453a20526577617264207472616e73666572206669616c642e6000830152602082019050919050565b6000612497602683612def565b91507f4f776e61626c653a206e6577206f776e657220697320746865207a65726f206160008301527f64647265737300000000000000000000000000000000000000000000000000006020830152604082019050919050565b60006124fd602783612def565b91507f4d656d6265723a204d61696e74656e616e6365207570677261646520696e207060008301527f726f6772657373000000000000000000000000000000000000000000000000006020830152604082019050919050565b6000612563601f83612def565b91507f464947485445523a20526577617264207472616e73666572206669616c642e006000830152602082019050919050565b60006125a3600583612def565b91507f464f554e440000000000000000000000000000000000000000000000000000006000830152602082019050919050565b60006125e3602a83612def565b91507f4d656d6265723a20546865206f7065726174696f6e20697320756e646572206d60008301527f61696e74656e616e6365000000000000000000000000000000000000000000006020830152604082019050919050565b6000612649602683612def565b91507f45584348414e47453a20496e73756666696369656e74206e756d626572206f6660008301527f204e4654732e00000000000000000000000000000000000000000000000000006020830152604082019050919050565b60006126af600583612def565b91507f544f4b454e0000000000000000000000000000000000000000000000000000006000830152602082019050919050565b60006126ef602083612def565b91507f4f776e61626c653a2063616c6c6572206973206e6f7420746865206f776e65726000830152602082019050919050565b600061272f601583612def565b91507f45584348414e47453a204f6e6c79206f6e7765722e00000000000000000000006000830152602082019050919050565b600061276f600883612def565b91507f4341524453484f500000000000000000000000000000000000000000000000006000830152602082019050919050565b60006127af600383612def565b91507f414c4c00000000000000000000000000000000000000000000000000000000006000830152602082019050919050565b60006127ef602583612def565b91507f45584348414e47453a2048617665206e6f2072657761726420746f206578636860008301527f616e67652e0000000000000000000000000000000000000000000000000000006020830152604082019050919050565b6000612855601883612def565b91507f464947485445523a20526577617264206973207a65726f2e00000000000000006000830152602082019050919050565b6000612895600783612def565b91507f46494748544552000000000000000000000000000000000000000000000000006000830152602082019050919050565b60006128d5602483612def565b91507f4d656d6265723a20546865206f7065726174696f6e206973206e6f7420616c6c60008301527f6f776564000000000000000000000000000000000000000000000000000000006020830152604082019050919050565b61293781612eff565b82525050565b61294681612eff565b82525050565b61295581612f95565b82525050565b61296481612f18565b82525050565b61297381612f46565b82525050565b61298281612fa7565b82525050565b61299181612f64565b82525050565b60006020820190506129ac60008301846123f3565b92915050565b60006060820190506129c760008301866123f3565b6129d460208301856123f3565b6129e1604083018461296a565b949350505050565b60006040820190506129fe60008301856123f3565b8181036020830152612a108184612411565b90509392505050565b6000604082019050612a2e60008301846123f3565b8181036020830152612a3f816127a2565b905092915050565b6000604082019050612a5c60008301856123f3565b612a69602083018461296a565b9392505050565b6000606082019050612a8560008301866123f3565b612a926020830185612988565b612a9f604083018461292e565b949350505050565b6000606082019050612abc60008301866123f3565b612ac96020830185612988565b612ad66040830184612979565b949350505050565b6000602082019050612af36000830184612402565b92915050565b60006020820190508181036000830152612b128161244a565b9050919050565b60006020820190508181036000830152612b328161248a565b9050919050565b60006020820190508181036000830152612b52816124f0565b9050919050565b60006020820190508181036000830152612b7281612556565b9050919050565b60006020820190508181036000830152612b9281612596565b9050919050565b60006020820190508181036000830152612bb2816125d6565b9050919050565b60006020820190508181036000830152612bd28161263c565b9050919050565b60006020820190508181036000830152612bf2816126a2565b9050919050565b60006020820190508181036000830152612c12816126e2565b9050919050565b60006020820190508181036000830152612c3281612722565b9050919050565b60006020820190508181036000830152612c5281612762565b9050919050565b60006020820190508181036000830152612c72816127e2565b9050919050565b60006020820190508181036000830152612c9281612848565b9050919050565b60006020820190508181036000830152612cb281612888565b9050919050565b60006020820190508181036000830152612cd2816128c8565b9050919050565b6000602082019050612cee600083018461293d565b92915050565b6000602082019050612d09600083018461294c565b92915050565b6000606082019050612d24600083018661295b565b612d31602083018561296a565b612d3e604083018461296a565b949350505050565b6000604082019050612d5b600083018561296a565b612d68602083018461296a565b9392505050565b6000602082019050612d846000830184612988565b92915050565b6000604082019050612d9f6000830185612988565b612dac602083018461295b565b9392505050565b6000604051905081810181811067ffffffffffffffff82111715612dda57612dd9613093565b5b8060405250919050565b600081519050919050565b600082825260208201905092915050565b6000612e0b82612f46565b9150612e1683612f46565b9250827fffffffffffffffffffffffffffffffffffffffffffffffffffffffffffffffff03821115612e4b57612e4a613035565b5b828201905092915050565b6000612e6182612f46565b9150612e6c83612f46565b925082612e7c57612e7b613064565b5b828204905092915050565b6000612e9282612f46565b9150612e9d83612f46565b9250817fffffffffffffffffffffffffffffffffffffffffffffffffffffffffffffffff0483118215151615612ed657612ed5613035565b5b828202905092915050565b6000612eec82612f26565b9050919050565b60008115159050919050565b60006cffffffffffffffffffffffffff82169050919050565b600061ffff82169050919050565b600073ffffffffffffffffffffffffffffffffffffffff82169050919050565b6000819050919050565b600067ffffffffffffffff82169050919050565b600060ff82169050919050565b6000612f7c82612f83565b9050919050565b6000612f8e82612f26565b9050919050565b6000612fa082612eff565b9050919050565b6000612fb282612f50565b9050919050565b60005b83811015612fd7578082015181840152602081019050612fbc565b83811115612fe6576000848401525b50505050565b6000612ff782612f46565b91507fffffffffffffffffffffffffffffffffffffffffffffffffffffffffffffffff82141561302a57613029613035565b5b600182019050919050565b7f4e487b7100000000000000000000000000000000000000000000000000000000600052601160045260246000fd5b7f4e487b7100000000000000000000000000000000000000000000000000000000600052601260045260246000fd5b7f4e487b7100000000000000000000000000000000000000000000000000000000600052604160045260246000fd5b6000601f19601f8301169050919050565b6130dc81612ee1565b81146130e757600080fd5b50565b6130f381612ef3565b81146130fe57600080fd5b50565b61310a81612eff565b811461311557600080fd5b50565b61312181612f18565b811461312c57600080fd5b50565b61313881612f46565b811461314357600080fd5b50565b61314f81612f64565b811461315a57600080fd5b5056fea2646970667358221220a7f348c288d861fa5636f8700df35f330319d3f745cb30b3cf4d4960ccbbbfe264736f6c63430008000033",
  "immutableReferences": {},
  "source": "// SPDX-License-Identifier: SimPL-2.0\n\npragma solidity ^0.8.0;\n\nimport \"../token/Fighter.sol\";\nimport \"../core/CardShop.sol\";\nimport \"../authority/Member.sol\";\n\nimport \"@openzeppelin/contracts/token/ERC20/IERC20.sol\";\nimport \"@openzeppelin/contracts/token/ERC721/IERC721.sol\";\nimport \"@openzeppelin/contracts/utils/math/SafeMath.sol\";\n\n/**\n * @title Fighter Z Token Card Shop\n *\n * @author Bit Lighthouse. Ace\n * AT: 2021-3-28 | VERSION: v1.0.2\n */\n\ncontract Exchange is Member {\n    using SafeMath for uint256;\n\n    event Redeemed(uint256 reward, uint256 surpls);\n    event DoExchange(uint16 rate, uint256 reward, uint256 surpls);\n\n    constructor(address auth_) Member(auth_) {\n\n    }\n\n    function redeemed(uint104 tokenId_) public CheckStatus(\"REDEEMED\") {\n        Fighter figh = Fighter(authority.members(\"FIGHTER\"));\n\n        require(\n            msg.sender == figh.ownerOf(tokenId_),\n            \"EXCHANGE: Only onwer.\"\n        );\n\n        address sender = authority.members(\"FOUND\");\n        IERC20 token = IERC20(authority.members(\"TOKEN\"));\n\n        NftLibrary.DetailStruct memory cs;\n        cs = NftLibrary.tRight(tokenId_);\n\n        uint256 reward = uint256(cs.amount);\n        reward = reward.mul(uint256(cs.rate)).div(100);\n        require(reward > 0, \"FIGHTER: Reward is zero.\");\n        bool success = token.transferFrom(sender, msg.sender, reward);\n        require(success, \"FIGHTER: Reward transfer fiald.\");\n\n        address shop = authority.members(\"CARDSHOP\");\n        CardShop(shop).fresh(cs.quality, cs.heroId);\n        figh.burn(msg.sender, cs.quality, tokenId_);\n        \n        emit Redeemed(reward, token.balanceOf(sender));\n    }\n\n    function exchange(uint8 quality_) public CheckStatus(\"EXCHANGE\") {\n        Fighter figh = Fighter(authority.members(\"FIGHTER\"));\n        uint256 total = 0;\n        \n        uint256 length = figh.balanceOf(msg.sender);\n        uint64[] memory tokens = new uint64[](length);\n\n        for (uint256 i = 0; i < length; i++) {\n            uint256 tokenId = figh.getUserTokens(msg.sender, i);\n            NftLibrary.DetailStruct memory cs;\n            cs = NftLibrary.tRight(uint104(tokenId));\n\n            if (cs.quality != quality_) continue;\n\n            total = total + 1;\n            tokens[i] = uint64(tokenId);\n        }\n\n        Fighter.RateStruct memory rs = figh.getRateStruct(quality_);\n        require(\n            rs.number > 0 && total >= rs.number,\n            \"EXCHANGE: Insufficient number of NFTs.\"\n        );\n\n        NftLibrary.UserStruct memory us = figh.getUserStruct(msg.sender);\n        require(\n            total / rs.number < us.exchange,\n            \"EXCHANGE: Have no reward to exchange.\"\n        );\n\n        address sender = authority.members(\"FOUND\");\n        IERC20 token = IERC20(authority.members(\"TOKEN\"));\n\n        uint256 balance = token.balanceOf(sender);\n        uint256 reward = balance.mul(rs.rate).div(100);\n\n        bool success = token.transferFrom(sender, msg.sender, reward);\n        require(success, \"EXCHANGE: Reward transfer fiald.\");\n        figh.addExchange(msg.sender); uint8 quality = quality_;\n\n        CardShop shop = CardShop(authority.members(\"CARDSHOP\"));\n        \n        for (uint256 i = 0; i < length; i++) {\n            if (tokens[i] <= 0) continue;\n\n            figh.burn(msg.sender, quality, tokens[i]);\n            shop.fresh(quality, uint16(tokens[i] >> 47));\n        }\n\n        emit DoExchange(rs.rate, reward, token.balanceOf(sender));\n    }\n}",
  "sourcePath": "/home/ace/Projects/eth/other/dragon-ball-project/dragon-ball-contract/contracts/core/Exchange.sol",
  "compiler": {
    "name": "solc",
    "version": "0.8.0+commit.c7dfd78e.Emscripten.clang"
  },
  "schemaVersion": "3.4.3",
  "updatedAt": "2021-08-25T13:30:49.960Z",
  "networkType": "ethereum",
  "devdoc": {
    "author": "Bit Lighthouse. Ace AT: 2021-3-28 | VERSION: v1.0.2",
    "kind": "dev",
    "methods": {
      "owner()": {
        "details": "Returns the address of the current owner."
      },
      "renounceOwnership()": {
        "details": "Leaves the contract without owner. It will not be possible to call `onlyOwner` functions anymore. Can only be called by the current owner. NOTE: Renouncing ownership will leave the contract without an owner, thereby removing any functionality that is only available to the owner."
      },
      "setAuthority(address)": {
        "params": {
          "authority_": "address of manager This function is onwer only"
        }
      },
      "transferOwnership(address)": {
        "details": "Transfers ownership of the contract to a new account (`newOwner`). Can only be called by the current owner."
      }
    },
    "title": "Fighter Z Token Card Shop",
    "version": 1
  },
  "userdoc": {
    "kind": "user",
    "methods": {
      "setAuthority(address)": {
        "notice": "Set new manager"
      }
    },
    "version": 1
  }
}