{
  "contractName": "Exchange",
  "abi": [
    {
      "inputs": [
        {
          "internalType": "address",
          "name": "auth_",
          "type": "address"
        }
      ],
      "stateMutability": "nonpayable",
      "type": "constructor"
    },
    {
      "anonymous": false,
      "inputs": [
        {
          "indexed": true,
          "internalType": "address",
          "name": "previousOwner",
          "type": "address"
        },
        {
          "indexed": true,
          "internalType": "address",
          "name": "newOwner",
          "type": "address"
        }
      ],
      "name": "OwnershipTransferred",
      "type": "event"
    },
    {
      "inputs": [],
      "name": "authority",
      "outputs": [
        {
          "internalType": "contract Authority",
          "name": "",
          "type": "address"
        }
      ],
      "stateMutability": "view",
      "type": "function",
      "constant": true
    },
    {
      "inputs": [
        {
          "internalType": "string",
          "name": "",
          "type": "string"
        }
      ],
      "name": "configs",
      "outputs": [
        {
          "internalType": "uint256",
          "name": "",
          "type": "uint256"
        }
      ],
      "stateMutability": "view",
      "type": "function",
      "constant": true
    },
    {
      "inputs": [],
      "name": "owner",
      "outputs": [
        {
          "internalType": "address",
          "name": "",
          "type": "address"
        }
      ],
      "stateMutability": "view",
      "type": "function",
      "constant": true
    },
    {
      "inputs": [],
      "name": "renounceOwnership",
      "outputs": [],
      "stateMutability": "nonpayable",
      "type": "function"
    },
    {
      "inputs": [
        {
          "internalType": "address",
          "name": "authority_",
          "type": "address"
        }
      ],
      "name": "setAuthority",
      "outputs": [],
      "stateMutability": "nonpayable",
      "type": "function"
    },
    {
      "inputs": [
        {
          "internalType": "string",
          "name": "name_",
          "type": "string"
        },
        {
          "internalType": "uint256",
          "name": "config_",
          "type": "uint256"
        }
      ],
      "name": "setConfig",
      "outputs": [],
      "stateMutability": "nonpayable",
      "type": "function"
    },
    {
      "inputs": [
        {
          "internalType": "address",
          "name": "newOwner",
          "type": "address"
        }
      ],
      "name": "transferOwnership",
      "outputs": [],
      "stateMutability": "nonpayable",
      "type": "function"
    },
    {
      "inputs": [],
      "name": "getExchangeList",
      "outputs": [
        {
          "components": [
            {
              "internalType": "uint8",
              "name": "quality",
              "type": "uint8"
            },
            {
              "internalType": "uint16",
              "name": "heroId",
              "type": "uint16"
            },
            {
              "internalType": "uint8",
              "name": "power",
              "type": "uint8"
            },
            {
              "internalType": "uint16",
              "name": "rate",
              "type": "uint16"
            },
            {
              "internalType": "uint256",
              "name": "amount",
              "type": "uint256"
            },
            {
              "internalType": "uint112",
              "name": "tokenId",
              "type": "uint112"
            }
          ],
          "internalType": "struct NftLibrary.DetailStruct[]",
          "name": "list",
          "type": "tuple[]"
        }
      ],
      "stateMutability": "view",
      "type": "function",
      "constant": true
    },
    {
      "inputs": [
        {
          "internalType": "address",
          "name": "account_",
          "type": "address"
        }
      ],
      "name": "getMyExchangeList",
      "outputs": [
        {
          "components": [
            {
              "internalType": "uint8",
              "name": "quality",
              "type": "uint8"
            },
            {
              "internalType": "uint16",
              "name": "heroId",
              "type": "uint16"
            },
            {
              "internalType": "uint8",
              "name": "power",
              "type": "uint8"
            },
            {
              "internalType": "uint16",
              "name": "rate",
              "type": "uint16"
            },
            {
              "internalType": "uint256",
              "name": "amount",
              "type": "uint256"
            },
            {
              "internalType": "uint112",
              "name": "tokenId",
              "type": "uint112"
            }
          ],
          "internalType": "struct NftLibrary.DetailStruct[]",
          "name": "list",
          "type": "tuple[]"
        }
      ],
      "stateMutability": "view",
      "type": "function",
      "constant": true
    },
    {
      "inputs": [
        {
          "internalType": "uint112",
          "name": "tokenId_",
          "type": "uint112"
        },
        {
          "internalType": "uint256",
          "name": "amount",
          "type": "uint256"
        }
      ],
      "name": "put",
      "outputs": [],
      "stateMutability": "nonpayable",
      "type": "function"
    },
    {
      "inputs": [
        {
          "internalType": "uint112",
          "name": "tokenId_",
          "type": "uint112"
        }
      ],
      "name": "pull",
      "outputs": [],
      "stateMutability": "nonpayable",
      "type": "function"
    },
    {
      "inputs": [
        {
          "internalType": "uint112",
          "name": "tokenId_",
          "type": "uint112"
        }
      ],
      "name": "buy",
      "outputs": [],
      "stateMutability": "nonpayable",
      "type": "function"
    },
    {
      "inputs": [],
      "name": "getExchangeListTEST",
      "outputs": [
        {
          "components": [
            {
              "internalType": "uint8",
              "name": "quality",
              "type": "uint8"
            },
            {
              "internalType": "uint16",
              "name": "heroId",
              "type": "uint16"
            },
            {
              "internalType": "uint8",
              "name": "power",
              "type": "uint8"
            },
            {
              "internalType": "uint16",
              "name": "rate",
              "type": "uint16"
            },
            {
              "internalType": "uint256",
              "name": "amount",
              "type": "uint256"
            },
            {
              "internalType": "uint112",
              "name": "tokenId",
              "type": "uint112"
            }
          ],
          "internalType": "struct NftLibrary.DetailStruct[]",
          "name": "list",
          "type": "tuple[]"
        }
      ],
      "stateMutability": "nonpayable",
      "type": "function"
    },
    {
      "inputs": [
        {
          "internalType": "address",
          "name": "account_",
          "type": "address"
        }
      ],
      "name": "getMyExchangeListTEST",
      "outputs": [
        {
          "components": [
            {
              "internalType": "uint8",
              "name": "quality",
              "type": "uint8"
            },
            {
              "internalType": "uint16",
              "name": "heroId",
              "type": "uint16"
            },
            {
              "internalType": "uint8",
              "name": "power",
              "type": "uint8"
            },
            {
              "internalType": "uint16",
              "name": "rate",
              "type": "uint16"
            },
            {
              "internalType": "uint256",
              "name": "amount",
              "type": "uint256"
            },
            {
              "internalType": "uint112",
              "name": "tokenId",
              "type": "uint112"
            }
          ],
          "internalType": "struct NftLibrary.DetailStruct[]",
          "name": "list",
          "type": "tuple[]"
        }
      ],
      "stateMutability": "nonpayable",
      "type": "function"
    }
  ],
  "bytecode": "0x60806040523480156200001157600080fd5b50604051620039c3380380620039c3833981810160405281019062000037919062000150565b8060006200004a6200013160201b60201c565b9050806000806101000a81548173ffffffffffffffffffffffffffffffffffffffff021916908373ffffffffffffffffffffffffffffffffffffffff1602179055508073ffffffffffffffffffffffffffffffffffffffff16600073ffffffffffffffffffffffffffffffffffffffff167f8be0079c531659141344cd1fd0a4f28419497f9722a3daafe3b4186f6b6457e060405160405180910390a35080600160006101000a81548173ffffffffffffffffffffffffffffffffffffffff021916908373ffffffffffffffffffffffffffffffffffffffff1602179055505050620001ca565b600033905090565b6000815190506200014a81620001b0565b92915050565b6000602082840312156200016357600080fd5b6000620001738482850162000139565b91505092915050565b6000620001898262000190565b9050919050565b600073ffffffffffffffffffffffffffffffffffffffff82169050919050565b620001bb816200017c565b8114620001c757600080fd5b50565b6137e980620001da6000396000f3fe608060405234801561001057600080fd5b50600436106100ea5760003560e01c80637a9e5e4b1161008c578063bf7e214f11610066578063bf7e214f14610235578063c782ca4314610253578063ecf6db2a1461026f578063f2fde38b1461028d576100ea565b80637a9e5e4b146101dd5780638da5cb5b146101f95780639130e18214610217576100ea565b80635ef7fbad116100c85780635ef7fbad146101575780636b143dec14610187578063715018a6146101a357806377acde31146101ad576100ea565b80632f10e883146100ef5780633e8f5b901461011f5780634d01d98d1461013b575b600080fd5b61010960048036038101906101049190612ad8565b6102a9565b60405161011691906132a3565b60405180910390f35b61013960048036038101906101349190612b94565b6102dd565b005b61015560048036038101906101509190612c11565b610427565b005b610171600480360381019061016c9190612b53565b610b7b565b60405161017e9190613416565b60405180910390f35b6101a1600480360381019061019c9190612c11565b610ba9565b005b6101ab611452565b005b6101c760048036038101906101c29190612ad8565b61158c565b6040516101d491906132a3565b60405180910390f35b6101f760048036038101906101f29190612ad8565b611884565b005b610201611944565b60405161020e9190613185565b60405180910390f35b61021f61196d565b60405161022c91906132a3565b60405180910390f35b61023d611be9565b60405161024a91906132c5565b60405180910390f35b61026d60048036038101906102689190612c3a565b611c0f565b005b6102776123b6565b60405161028491906132a3565b60405180910390f35b6102a760048036038101906102a29190612ad8565b6123e7565b005b6060600160026040516102bb90613170565b9081526020016040518091039020819055506102d68261158c565b9050919050565b6040518060400160405280600681526020017f434f4e4649470000000000000000000000000000000000000000000000000000815250600160009054906101000a900473ffffffffffffffffffffffffffffffffffffffff1673ffffffffffffffffffffffffffffffffffffffff1663f5e65c7233836040518363ffffffff1660e01b8152600401610370929190613245565b60206040518083038186803b15801561038857600080fd5b505afa15801561039c573d6000803e3d6000fd5b505050506040513d601f19601f820116820180604052508101906103c09190612b2a565b6103ff576040517f08c379a00000000000000000000000000000000000000000000000000000000081526004016103f6906133c0565b60405180910390fd5b816002846040516104109190613159565b908152602001604051809103902081905550505050565b6040518060400160405280600781526020017f4e465450554c4c00000000000000000000000000000000000000000000000000815250600160009054906101000a900473ffffffffffffffffffffffffffffffffffffffff1673ffffffffffffffffffffffffffffffffffffffff1663466f98e860006040518263ffffffff1660e01b81526004016104b99190613275565b60206040518083038186803b1580156104d157600080fd5b505afa1580156104e5573d6000803e3d6000fd5b505050506040513d601f19601f820116820180604052508101906105099190612b2a565b15806105c05750600160009054906101000a900473ffffffffffffffffffffffffffffffffffffffff1673ffffffffffffffffffffffffffffffffffffffff1663466f98e86000836040518363ffffffff1660e01b815260040161056e929190613245565b60206040518083038186803b15801561058657600080fd5b505afa15801561059a573d6000803e3d6000fd5b505050506040513d601f19601f820116820180604052508101906105be9190612b2a565b155b806106735750600160009054906101000a900473ffffffffffffffffffffffffffffffffffffffff1673ffffffffffffffffffffffffffffffffffffffff1663466f98e8336040518263ffffffff1660e01b81526004016106219190613275565b60206040518083038186803b15801561063957600080fd5b505afa15801561064d573d6000803e3d6000fd5b505050506040513d601f19601f820116820180604052508101906106719190612b2a565b155b806107285750600160009054906101000a900473ffffffffffffffffffffffffffffffffffffffff1673ffffffffffffffffffffffffffffffffffffffff1663466f98e833836040518363ffffffff1660e01b81526004016106d6929190613245565b60206040518083038186803b1580156106ee57600080fd5b505afa158015610702573d6000803e3d6000fd5b505050506040513d601f19601f820116820180604052508101906107269190612b2a565b155b610767576040517f08c379a000000000000000000000000000000000000000000000000000000000815260040161075e906133c0565b60405180910390fd5b60066000836dffffffffffffffffffffffffffff166dffffffffffffffffffffffffffff16815260200190815260200160002060009054906101000a900473ffffffffffffffffffffffffffffffffffffffff1673ffffffffffffffffffffffffffffffffffffffff163373ffffffffffffffffffffffffffffffffffffffff1614610828576040517f08c379a000000000000000000000000000000000000000000000000000000000815260040161081f90613360565b60405180910390fd5b61084c826dffffffffffffffffffffffffffff16600361259090919063ffffffff16565b506108ae826dffffffffffffffffffffffffffff16600760003373ffffffffffffffffffffffffffffffffffffffff1673ffffffffffffffffffffffffffffffffffffffff16815260200190815260200160002061259090919063ffffffff16565b506000600160009054906101000a900473ffffffffffffffffffffffffffffffffffffffff1673ffffffffffffffffffffffffffffffffffffffff16636957a0b26040518163ffffffff1660e01b815260040161090a906133a0565b60206040518083038186803b15801561092257600080fd5b505afa158015610936573d6000803e3d6000fd5b505050506040513d601f19601f8201168201806040525081019061095a9190612b01565b90508073ffffffffffffffffffffffffffffffffffffffff166323b872dd3033866040518463ffffffff1660e01b8152600401610999939291906131d7565b600060405180830381600087803b1580156109b357600080fd5b505af11580156109c7573d6000803e3d6000fd5b505050506000600160009054906101000a900473ffffffffffffffffffffffffffffffffffffffff1673ffffffffffffffffffffffffffffffffffffffff16636957a0b26040518163ffffffff1660e01b8152600401610a2690613380565b60206040518083038186803b158015610a3e57600080fd5b505afa158015610a52573d6000803e3d6000fd5b505050506040513d601f19601f82011682018060405250810190610a769190612b01565b90508073ffffffffffffffffffffffffffffffffffffffff1663deea9607600033876040518463ffffffff1660e01b8152600401610ab6939291906131a0565b600060405180830381600087803b158015610ad057600080fd5b505af1158015610ae4573d6000803e3d6000fd5b5050505060056000856dffffffffffffffffffffffffffff166dffffffffffffffffffffffffffff1681526020019081526020016000206000905560066000856dffffffffffffffffffffffffffff166dffffffffffffffffffffffffffff16815260200190815260200160002060006101000a81549073ffffffffffffffffffffffffffffffffffffffff021916905550505050565b6002818051602081018201805184825260208301602085012081835280955050505050506000915090505481565b6040518060400160405280600681526020017f4e46544255590000000000000000000000000000000000000000000000000000815250600160009054906101000a900473ffffffffffffffffffffffffffffffffffffffff1673ffffffffffffffffffffffffffffffffffffffff1663466f98e860006040518263ffffffff1660e01b8152600401610c3b9190613275565b60206040518083038186803b158015610c5357600080fd5b505afa158015610c67573d6000803e3d6000fd5b505050506040513d601f19601f82011682018060405250810190610c8b9190612b2a565b1580610d425750600160009054906101000a900473ffffffffffffffffffffffffffffffffffffffff1673ffffffffffffffffffffffffffffffffffffffff1663466f98e86000836040518363ffffffff1660e01b8152600401610cf0929190613245565b60206040518083038186803b158015610d0857600080fd5b505afa158015610d1c573d6000803e3d6000fd5b505050506040513d601f19601f82011682018060405250810190610d409190612b2a565b155b80610df55750600160009054906101000a900473ffffffffffffffffffffffffffffffffffffffff1673ffffffffffffffffffffffffffffffffffffffff1663466f98e8336040518263ffffffff1660e01b8152600401610da39190613275565b60206040518083038186803b158015610dbb57600080fd5b505afa158015610dcf573d6000803e3d6000fd5b505050506040513d601f19601f82011682018060405250810190610df39190612b2a565b155b80610eaa5750600160009054906101000a900473ffffffffffffffffffffffffffffffffffffffff1673ffffffffffffffffffffffffffffffffffffffff1663466f98e833836040518363ffffffff1660e01b8152600401610e58929190613245565b60206040518083038186803b158015610e7057600080fd5b505afa158015610e84573d6000803e3d6000fd5b505050506040513d601f19601f82011682018060405250810190610ea89190612b2a565b155b610ee9576040517f08c379a0000000000000000000000000000000000000000000000000000000008152600401610ee0906133c0565b60405180910390fd5b6000600160009054906101000a900473ffffffffffffffffffffffffffffffffffffffff1673ffffffffffffffffffffffffffffffffffffffff16636957a0b26040518163ffffffff1660e01b8152600401610f4490613320565b60206040518083038186803b158015610f5c57600080fd5b505afa158015610f70573d6000803e3d6000fd5b505050506040513d601f19601f82011682018060405250810190610f949190612b01565b90508073ffffffffffffffffffffffffffffffffffffffff166323b872dd3360066000876dffffffffffffffffffffffffffff166dffffffffffffffffffffffffffff16815260200190815260200160002060009054906101000a900473ffffffffffffffffffffffffffffffffffffffff1660056000886dffffffffffffffffffffffffffff166dffffffffffffffffffffffffffff168152602001908152602001600020546040518463ffffffff1660e01b81526004016110599392919061320e565b602060405180830381600087803b15801561107357600080fd5b505af1158015611087573d6000803e3d6000fd5b505050506040513d601f19601f820116820180604052508101906110ab9190612b2a565b506110d0836dffffffffffffffffffffffffffff16600361259090919063ffffffff16565b50611132836dffffffffffffffffffffffffffff16600760003373ffffffffffffffffffffffffffffffffffffffff1673ffffffffffffffffffffffffffffffffffffffff16815260200190815260200160002061259090919063ffffffff16565b506000600160009054906101000a900473ffffffffffffffffffffffffffffffffffffffff1673ffffffffffffffffffffffffffffffffffffffff16636957a0b26040518163ffffffff1660e01b815260040161118e906133a0565b60206040518083038186803b1580156111a657600080fd5b505afa1580156111ba573d6000803e3d6000fd5b505050506040513d601f19601f820116820180604052508101906111de9190612b01565b90508073ffffffffffffffffffffffffffffffffffffffff166323b872dd3033876040518463ffffffff1660e01b815260040161121d939291906131d7565b600060405180830381600087803b15801561123757600080fd5b505af115801561124b573d6000803e3d6000fd5b505050506000600160009054906101000a900473ffffffffffffffffffffffffffffffffffffffff1673ffffffffffffffffffffffffffffffffffffffff16636957a0b26040518163ffffffff1660e01b81526004016112aa90613380565b60206040518083038186803b1580156112c257600080fd5b505afa1580156112d6573d6000803e3d6000fd5b505050506040513d601f19601f820116820180604052508101906112fa9190612b01565b90508073ffffffffffffffffffffffffffffffffffffffff1663deea96073060066000896dffffffffffffffffffffffffffff166dffffffffffffffffffffffffffff16815260200190815260200160002060009054906101000a900473ffffffffffffffffffffffffffffffffffffffff16886040518463ffffffff1660e01b815260040161138c939291906131a0565b600060405180830381600087803b1580156113a657600080fd5b505af11580156113ba573d6000803e3d6000fd5b5050505060056000866dffffffffffffffffffffffffffff166dffffffffffffffffffffffffffff1681526020019081526020016000206000905560066000866dffffffffffffffffffffffffffff166dffffffffffffffffffffffffffff16815260200190815260200160002060006101000a81549073ffffffffffffffffffffffffffffffffffffffff02191690555050505050565b61145a6125aa565b73ffffffffffffffffffffffffffffffffffffffff16611478611944565b73ffffffffffffffffffffffffffffffffffffffff16146114ce576040517f08c379a00000000000000000000000000000000000000000000000000000000081526004016114c590613340565b60405180910390fd5b600073ffffffffffffffffffffffffffffffffffffffff1660008054906101000a900473ffffffffffffffffffffffffffffffffffffffff1673ffffffffffffffffffffffffffffffffffffffff167f8be0079c531659141344cd1fd0a4f28419497f9722a3daafe3b4186f6b6457e060405160405180910390a360008060006101000a81548173ffffffffffffffffffffffffffffffffffffffff021916908373ffffffffffffffffffffffffffffffffffffffff160217905550565b606060006115d7600760008573ffffffffffffffffffffffffffffffffffffffff1673ffffffffffffffffffffffffffffffffffffffff1681526020019081526020016000206125b2565b90508067ffffffffffffffff811115611619577f4e487b7100000000000000000000000000000000000000000000000000000000600052604160045260246000fd5b60405190808252806020026020018201604052801561165257816020015b61163f6128c3565b8152602001906001900390816116375790505b50915060005b8181101561187d5760006116b382600760008873ffffffffffffffffffffffffffffffffffffffff1673ffffffffffffffffffffffffffffffffffffffff1681526020019081526020016000206125c790919063ffffffff16565b905073__NftLibrary____________________________6347d9b14d826040518263ffffffff1660e01b81526004016116ec91906133e0565b60c06040518083038186803b15801561170457600080fd5b505af4158015611718573d6000803e3d6000fd5b505050506040513d601f19601f8201168201806040525081019061173c9190612be8565b848381518110611775577f4e487b7100000000000000000000000000000000000000000000000000000000600052603260045260246000fd5b6020026020010181905250808483815181106117ba577f4e487b7100000000000000000000000000000000000000000000000000000000600052603260045260246000fd5b602002602001015160a001906dffffffffffffffffffffffffffff1690816dffffffffffffffffffffffffffff168152505060056000826dffffffffffffffffffffffffffff166dffffffffffffffffffffffffffff16815260200190815260200160002054848381518110611859577f4e487b7100000000000000000000000000000000000000000000000000000000600052603260045260246000fd5b6020026020010151608001818152505050808061187590613671565b915050611658565b5050919050565b61188c6125aa565b73ffffffffffffffffffffffffffffffffffffffff166118aa611944565b73ffffffffffffffffffffffffffffffffffffffff1614611900576040517f08c379a00000000000000000000000000000000000000000000000000000000081526004016118f790613340565b60405180910390fd5b80600160006101000a81548173ffffffffffffffffffffffffffffffffffffffff021916908373ffffffffffffffffffffffffffffffffffffffff16021790555050565b60008060009054906101000a900473ffffffffffffffffffffffffffffffffffffffff16905090565b6060600061197b60036125b2565b90508067ffffffffffffffff8111156119bd577f4e487b7100000000000000000000000000000000000000000000000000000000600052604160045260246000fd5b6040519080825280602002602001820160405280156119f657816020015b6119e36128c3565b8152602001906001900390816119db5790505b50915060005b81811015611be4576000611a1a8260036125c790919063ffffffff16565b905073__NftLibrary____________________________6347d9b14d826040518263ffffffff1660e01b8152600401611a5391906133e0565b60c06040518083038186803b158015611a6b57600080fd5b505af4158015611a7f573d6000803e3d6000fd5b505050506040513d601f19601f82011682018060405250810190611aa39190612be8565b848381518110611adc577f4e487b7100000000000000000000000000000000000000000000000000000000600052603260045260246000fd5b602002602001018190525080848381518110611b21577f4e487b7100000000000000000000000000000000000000000000000000000000600052603260045260246000fd5b602002602001015160a001906dffffffffffffffffffffffffffff1690816dffffffffffffffffffffffffffff168152505060056000826dffffffffffffffffffffffffffff166dffffffffffffffffffffffffffff16815260200190815260200160002054848381518110611bc0577f4e487b7100000000000000000000000000000000000000000000000000000000600052603260045260246000fd5b60200260200101516080018181525050508080611bdc90613671565b9150506119fc565b505090565b600160009054906101000a900473ffffffffffffffffffffffffffffffffffffffff1681565b6040518060400160405280600681526020017f4e46545055540000000000000000000000000000000000000000000000000000815250600160009054906101000a900473ffffffffffffffffffffffffffffffffffffffff1673ffffffffffffffffffffffffffffffffffffffff1663466f98e860006040518263ffffffff1660e01b8152600401611ca19190613275565b60206040518083038186803b158015611cb957600080fd5b505afa158015611ccd573d6000803e3d6000fd5b505050506040513d601f19601f82011682018060405250810190611cf19190612b2a565b1580611da85750600160009054906101000a900473ffffffffffffffffffffffffffffffffffffffff1673ffffffffffffffffffffffffffffffffffffffff1663466f98e86000836040518363ffffffff1660e01b8152600401611d56929190613245565b60206040518083038186803b158015611d6e57600080fd5b505afa158015611d82573d6000803e3d6000fd5b505050506040513d601f19601f82011682018060405250810190611da69190612b2a565b155b80611e5b5750600160009054906101000a900473ffffffffffffffffffffffffffffffffffffffff1673ffffffffffffffffffffffffffffffffffffffff1663466f98e8336040518263ffffffff1660e01b8152600401611e099190613275565b60206040518083038186803b158015611e2157600080fd5b505afa158015611e35573d6000803e3d6000fd5b505050506040513d601f19601f82011682018060405250810190611e599190612b2a565b155b80611f105750600160009054906101000a900473ffffffffffffffffffffffffffffffffffffffff1673ffffffffffffffffffffffffffffffffffffffff1663466f98e833836040518363ffffffff1660e01b8152600401611ebe929190613245565b60206040518083038186803b158015611ed657600080fd5b505afa158015611eea573d6000803e3d6000fd5b505050506040513d601f19601f82011682018060405250810190611f0e9190612b2a565b155b611f4f576040517f08c379a0000000000000000000000000000000000000000000000000000000008152600401611f46906133c0565b60405180910390fd5b6000600160009054906101000a900473ffffffffffffffffffffffffffffffffffffffff1673ffffffffffffffffffffffffffffffffffffffff16636957a0b26040518163ffffffff1660e01b8152600401611faa906133a0565b60206040518083038186803b158015611fc257600080fd5b505afa158015611fd6573d6000803e3d6000fd5b505050506040513d601f19601f82011682018060405250810190611ffa9190612b01565b90508073ffffffffffffffffffffffffffffffffffffffff16636352211e856040518263ffffffff1660e01b815260040161203591906133fb565b60206040518083038186803b15801561204d57600080fd5b505afa158015612061573d6000803e3d6000fd5b505050506040513d601f19601f820116820180604052508101906120859190612b01565b73ffffffffffffffffffffffffffffffffffffffff163373ffffffffffffffffffffffffffffffffffffffff16146120f2576040517f08c379a00000000000000000000000000000000000000000000000000000000081526004016120e990613360565b60405180910390fd5b612116846dffffffffffffffffffffffffffff1660036125e190919063ffffffff16565b508260056000866dffffffffffffffffffffffffffff166dffffffffffffffffffffffffffff168152602001908152602001600020819055506121b0846dffffffffffffffffffffffffffff16600760003373ffffffffffffffffffffffffffffffffffffffff1673ffffffffffffffffffffffffffffffffffffffff1681526020019081526020016000206125e190919063ffffffff16565b503360066000866dffffffffffffffffffffffffffff166dffffffffffffffffffffffffffff16815260200190815260200160002060006101000a81548173ffffffffffffffffffffffffffffffffffffffff021916908373ffffffffffffffffffffffffffffffffffffffff1602179055508073ffffffffffffffffffffffffffffffffffffffff166323b872dd3330876040518463ffffffff1660e01b8152600401612260939291906131d7565b600060405180830381600087803b15801561227a57600080fd5b505af115801561228e573d6000803e3d6000fd5b505050506000600160009054906101000a900473ffffffffffffffffffffffffffffffffffffffff1673ffffffffffffffffffffffffffffffffffffffff16636957a0b26040518163ffffffff1660e01b81526004016122ed90613380565b60206040518083038186803b15801561230557600080fd5b505afa158015612319573d6000803e3d6000fd5b505050506040513d601f19601f8201168201806040525081019061233d9190612b01565b90508073ffffffffffffffffffffffffffffffffffffffff1663deea9607336000886040518463ffffffff1660e01b815260040161237d939291906131a0565b600060405180830381600087803b15801561239757600080fd5b505af11580156123ab573d6000803e3d6000fd5b505050505050505050565b6060600160026040516123c890613170565b9081526020016040518091039020819055506123e261196d565b905090565b6123ef6125aa565b73ffffffffffffffffffffffffffffffffffffffff1661240d611944565b73ffffffffffffffffffffffffffffffffffffffff1614612463576040517f08c379a000000000000000000000000000000000000000000000000000000000815260040161245a90613340565b60405180910390fd5b600073ffffffffffffffffffffffffffffffffffffffff168173ffffffffffffffffffffffffffffffffffffffff1614156124d3576040517f08c379a00000000000000000000000000000000000000000000000000000000081526004016124ca90613300565b60405180910390fd5b8073ffffffffffffffffffffffffffffffffffffffff1660008054906101000a900473ffffffffffffffffffffffffffffffffffffffff1673ffffffffffffffffffffffffffffffffffffffff167f8be0079c531659141344cd1fd0a4f28419497f9722a3daafe3b4186f6b6457e060405160405180910390a3806000806101000a81548173ffffffffffffffffffffffffffffffffffffffff021916908373ffffffffffffffffffffffffffffffffffffffff16021790555050565b60006125a2836000018360001b6125fb565b905092915050565b600033905090565b60006125c082600001612785565b9050919050565b60006125d68360000183612796565b60001c905092915050565b60006125f3836000018360001b612830565b905092915050565b6000808360010160008481526020019081526020016000205490506000811461277957600060018261262d9190613548565b90506000600186600001805490506126459190613548565b90506000866000018281548110612685577f4e487b7100000000000000000000000000000000000000000000000000000000600052603260045260246000fd5b90600052602060002001549050808760000184815481106126cf577f4e487b7100000000000000000000000000000000000000000000000000000000600052603260045260246000fd5b90600052602060002001819055506001836126ea91906134f2565b876001016000838152602001908152602001600020819055508660000180548061273d577f4e487b7100000000000000000000000000000000000000000000000000000000600052603160045260246000fd5b6001900381819060005260206000200160009055905586600101600087815260200190815260200160002060009055600194505050505061277f565b60009150505b92915050565b600081600001805490509050919050565b6000818360000180549050116127e1576040517f08c379a00000000000000000000000000000000000000000000000000000000081526004016127d8906132e0565b60405180910390fd5b82600001828154811061281d577f4e487b7100000000000000000000000000000000000000000000000000000000600052603260045260246000fd5b9060005260206000200154905092915050565b600061283c83836128a0565b61289557826000018290806001815401808255809150506001900390600052602060002001600090919091909150558260000180549050836001016000848152602001908152602001600020819055506001905061289a565b600090505b92915050565b600080836001016000848152602001908152602001600020541415905092915050565b6040518060c00160405280600060ff168152602001600061ffff168152602001600060ff168152602001600061ffff1681526020016000815260200160006dffffffffffffffffffffffffffff1681525090565b600061292a61292584613462565b613431565b90508281526020810184848401111561294257600080fd5b61294d84828561362f565b509392505050565b60008135905061296481613729565b92915050565b60008151905061297981613729565b92915050565b60008151905061298e81613740565b92915050565b600082601f8301126129a557600080fd5b81356129b5848260208601612917565b91505092915050565b600060c082840312156129d057600080fd5b6129da60c0613431565b905060006129ea84828501612ac3565b60008301525060206129fe84828501612a84565b6020830152506040612a1284828501612ac3565b6040830152506060612a2684828501612a84565b6060830152506080612a3a84828501612aae565b60808301525060a0612a4e84828501612a6f565b60a08301525092915050565b600081359050612a6981613757565b92915050565b600081519050612a7e81613757565b92915050565b600081519050612a938161376e565b92915050565b600081359050612aa881613785565b92915050565b600081519050612abd81613785565b92915050565b600081519050612ad28161379c565b92915050565b600060208284031215612aea57600080fd5b6000612af884828501612955565b91505092915050565b600060208284031215612b1357600080fd5b6000612b218482850161296a565b91505092915050565b600060208284031215612b3c57600080fd5b6000612b4a8482850161297f565b91505092915050565b600060208284031215612b6557600080fd5b600082013567ffffffffffffffff811115612b7f57600080fd5b612b8b84828501612994565b91505092915050565b60008060408385031215612ba757600080fd5b600083013567ffffffffffffffff811115612bc157600080fd5b612bcd85828601612994565b9250506020612bde85828601612a99565b9150509250929050565b600060c08284031215612bfa57600080fd5b6000612c08848285016129be565b91505092915050565b600060208284031215612c2357600080fd5b6000612c3184828501612a5a565b91505092915050565b60008060408385031215612c4d57600080fd5b6000612c5b85828601612a5a565b9250506020612c6c85828601612a99565b9150509250929050565b6000612c828383613066565b60c08301905092915050565b612c978161357c565b82525050565b6000612ca8826134a2565b612cb281856134c5565b9350612cbd83613492565b8060005b83811015612cee578151612cd58882612c76565b9750612ce0836134b8565b925050600181019050612cc1565b5085935050505092915050565b612d04816135f9565b82525050565b6000612d15826134ad565b612d1f81856134d6565b9350612d2f81856020860161363e565b612d3881613718565b840191505092915050565b6000612d4e826134ad565b612d5881856134e7565b9350612d6881856020860161363e565b80840191505092915050565b6000612d816022836134d6565b91507f456e756d657261626c655365743a20696e646578206f7574206f6620626f756e60008301527f64730000000000000000000000000000000000000000000000000000000000006020830152604082019050919050565b6000612de76026836134d6565b91507f4f776e61626c653a206e6577206f776e657220697320746865207a65726f206160008301527f64647265737300000000000000000000000000000000000000000000000000006020830152604082019050919050565b6000612e4d6005836134d6565b91507f544f4b454e0000000000000000000000000000000000000000000000000000006000830152602082019050919050565b6000612e8d6020836134d6565b91507f4f776e61626c653a2063616c6c6572206973206e6f7420746865206f776e65726000830152602082019050919050565b6000612ecd6004836134e7565b91507f74657374000000000000000000000000000000000000000000000000000000006000830152600482019050919050565b6000612f0d6015836134d6565b91507f45584348414e47453a204f6e6c79206f6e7765722e00000000000000000000006000830152602082019050919050565b6000612f4d600a836134d6565b91507f43415244524557415244000000000000000000000000000000000000000000006000830152602082019050919050565b6000612f8d6003836134d6565b91507f414c4c00000000000000000000000000000000000000000000000000000000006000830152602082019050919050565b6000612fcd6007836134d6565b91507f46494748544552000000000000000000000000000000000000000000000000006000830152602082019050919050565b600061300d6024836134d6565b91507f4d656d6265723a20546865206f7065726174696f6e206973206e6f7420616c6c60008301527f6f776564000000000000000000000000000000000000000000000000000000006020830152604082019050919050565b60c08201600082015161307c600085018261314a565b50602082015161308f602085018261311d565b5060408201516130a2604085018261314a565b5060608201516130b5606085018261311d565b5060808201516130c8608085018261312c565b5060a08201516130db60a08501826130e1565b50505050565b6130ea8161359a565b82525050565b6130f98161359a565b82525050565b6131088161359a565b82525050565b6131178161361d565b82525050565b613126816135b4565b82525050565b613135816135e2565b82525050565b613144816135e2565b82525050565b613153816135ec565b82525050565b60006131658284612d43565b915081905092915050565b600061317b82612ec0565b9150819050919050565b600060208201905061319a6000830184612c8e565b92915050565b60006060820190506131b56000830186612c8e565b6131c26020830185612c8e565b6131cf60408301846130f0565b949350505050565b60006060820190506131ec6000830186612c8e565b6131f96020830185612c8e565b613206604083018461310e565b949350505050565b60006060820190506132236000830186612c8e565b6132306020830185612c8e565b61323d604083018461313b565b949350505050565b600060408201905061325a6000830185612c8e565b818103602083015261326c8184612d0a565b90509392505050565b600060408201905061328a6000830184612c8e565b818103602083015261329b81612f80565b905092915050565b600060208201905081810360008301526132bd8184612c9d565b905092915050565b60006020820190506132da6000830184612cfb565b92915050565b600060208201905081810360008301526132f981612d74565b9050919050565b6000602082019050818103600083015261331981612dda565b9050919050565b6000602082019050818103600083015261333981612e40565b9050919050565b6000602082019050818103600083015261335981612e80565b9050919050565b6000602082019050818103600083015261337981612f00565b9050919050565b6000602082019050818103600083015261339981612f40565b9050919050565b600060208201905081810360008301526133b981612fc0565b9050919050565b600060208201905081810360008301526133d981613000565b9050919050565b60006020820190506133f560008301846130ff565b92915050565b6000602082019050613410600083018461310e565b92915050565b600060208201905061342b600083018461313b565b92915050565b6000604051905081810181811067ffffffffffffffff82111715613458576134576136e9565b5b8060405250919050565b600067ffffffffffffffff82111561347d5761347c6136e9565b5b601f19601f8301169050602081019050919050565b6000819050602082019050919050565b600081519050919050565b600081519050919050565b6000602082019050919050565b600082825260208201905092915050565b600082825260208201905092915050565b600081905092915050565b60006134fd826135e2565b9150613508836135e2565b9250827fffffffffffffffffffffffffffffffffffffffffffffffffffffffffffffffff0382111561353d5761353c6136ba565b5b828201905092915050565b6000613553826135e2565b915061355e836135e2565b925082821015613571576135706136ba565b5b828203905092915050565b6000613587826135c2565b9050919050565b60008115159050919050565b60006dffffffffffffffffffffffffffff82169050919050565b600061ffff82169050919050565b600073ffffffffffffffffffffffffffffffffffffffff82169050919050565b6000819050919050565b600060ff82169050919050565b60006136048261360b565b9050919050565b6000613616826135c2565b9050919050565b60006136288261359a565b9050919050565b82818337600083830152505050565b60005b8381101561365c578082015181840152602081019050613641565b8381111561366b576000848401525b50505050565b600061367c826135e2565b91507fffffffffffffffffffffffffffffffffffffffffffffffffffffffffffffffff8214156136af576136ae6136ba565b5b600182019050919050565b7f4e487b7100000000000000000000000000000000000000000000000000000000600052601160045260246000fd5b7f4e487b7100000000000000000000000000000000000000000000000000000000600052604160045260246000fd5b6000601f19601f8301169050919050565b6137328161357c565b811461373d57600080fd5b50565b6137498161358e565b811461375457600080fd5b50565b6137608161359a565b811461376b57600080fd5b50565b613777816135b4565b811461378257600080fd5b50565b61378e816135e2565b811461379957600080fd5b50565b6137a5816135ec565b81146137b057600080fd5b5056fea2646970667358221220a7a0773c6d98e4d559e2fe4bb2477f4e73830b86268215aff2f9ef6a0d19450b64736f6c63430008000033",
  "immutableReferences": {},
  "source": "// SPDX-License-Identifier: SimPL-2.0\n\npragma solidity ^0.8.0;\n\nimport \"../core/CardReward.sol\";\nimport \"../libraries/NftLibrary.sol\";\n\nimport \"@openzeppelin/contracts/token/ERC20/IERC20.sol\";\nimport \"@openzeppelin/contracts/token/ERC721/IERC721.sol\";\nimport \"@openzeppelin/contracts/utils/structs/EnumerableSet.sol\";\n\n/**\n * @title U Box Sea - ERC721\n *\n * @author Bit Lighthouse. Ace\n * AT: 2021-3-28 | VERSION: v1.0.2\n */\n\ncontract Exchange is Member {\n    using SafeMath for uint256;\n    using EnumerableSet for EnumerableSet.UintSet;\n\n    EnumerableSet.UintSet private _tokens;\n    mapping (uint112 => uint256) private _amounts;\n    mapping (uint112 => address) private _owners;\n    mapping (address => EnumerableSet.UintSet) private _my;\n\n    constructor(address auth_) Member(auth_) { }\n\n    function getExchangeList() public view \n        returns (NftLibrary.DetailStruct[] memory list) {\n\n        uint256 len = _tokens.length();\n        list = new NftLibrary.DetailStruct[](len);\n\n        for (uint i = 0; i < len; i++) {\n            uint112 tokenId = uint112(_tokens.at(i));\n            list[i] = NftLibrary.analysis(tokenId);\n            list[i].tokenId = tokenId;\n            list[i].amount = _amounts[tokenId];\n        }\n    }\n\n    function getMyExchangeList(address account_) public view \n        returns (NftLibrary.DetailStruct[] memory list) {\n\n        uint256 len = _my[account_].length();\n        list = new NftLibrary.DetailStruct[](len);\n\n        for (uint i = 0; i < len; i++) {\n            uint112 tokenId = uint112(_my[account_].at(i));\n            list[i] = NftLibrary.analysis(tokenId);\n            list[i].tokenId = tokenId;\n            list[i].amount = _amounts[tokenId];\n        }\n    }\n\n    function put(uint112 tokenId_, uint256 amount) public\n        CheckStatus(\"NFTPUT\"){\n\n        IERC721 figh = IERC721(authority.members(\"FIGHTER\"));\n        require(\n            msg.sender == figh.ownerOf(tokenId_),\n            \"EXCHANGE: Only onwer.\"\n        );\n\n        _tokens.add(tokenId_); _amounts[tokenId_] = amount;\n        _my[msg.sender].add(tokenId_); _owners[tokenId_] = msg.sender;\n        figh.transferFrom(msg.sender, address(this), tokenId_);\n        CardReward cr = CardReward(authority.members(\"CARDREWARD\"));\n        cr.doExchange(msg.sender, address(0), tokenId_);\n    }\n\n    function pull(uint112 tokenId_) public CheckStatus(\"NFTPULL\"){\n        require(\n            msg.sender == _owners[tokenId_],\n            \"EXCHANGE: Only onwer.\"\n        );\n\n        _tokens.remove(tokenId_);\n        _my[msg.sender].remove(tokenId_);\n        IERC721 figh = IERC721(authority.members(\"FIGHTER\"));\n        figh.transferFrom(address(this), msg.sender, tokenId_);\n        CardReward cr = CardReward(authority.members(\"CARDREWARD\"));\n        cr.doExchange(address(0), msg.sender, tokenId_);\n\n        delete _amounts[tokenId_]; delete _owners[tokenId_];\n    }\n    \n    function buy(uint112 tokenId_) public CheckStatus(\"NFTBUY\") {\n        IERC20 token = IERC20(authority.members(\"TOKEN\"));\n        token.transferFrom(msg.sender, _owners[tokenId_], _amounts[tokenId_]);\n\n        _tokens.remove(tokenId_);\n        _my[msg.sender].remove(tokenId_);\n        IERC721 figh = IERC721(authority.members(\"FIGHTER\"));\n        figh.transferFrom(address(this), msg.sender, tokenId_);\n        CardReward cr = CardReward(authority.members(\"CARDREWARD\"));\n        cr.doExchange(address(this), _owners[tokenId_], tokenId_);\n\n        delete _amounts[tokenId_]; delete _owners[tokenId_];\n    }\n\n    function getExchangeListTEST() public \n        returns (NftLibrary.DetailStruct[] memory list) {\n\n        configs[\"test\"] = 1;\n        return getExchangeList();\n    }\n\n    function getMyExchangeListTEST(address account_) public \n        returns (NftLibrary.DetailStruct[] memory list) {\n\n        configs[\"test\"] = 1;\n        return getMyExchangeList(account_);\n    }\n}",
  "sourcePath": "/home/ace/Projects/eth/other/dragon-ball-project/dragon-ball-contract/contracts/core/Exchange.sol",
  "compiler": {
    "name": "solc",
    "version": "0.8.0+commit.c7dfd78e.Emscripten.clang"
  },
  "schemaVersion": "3.4.3",
  "updatedAt": "2021-09-07T03:46:34.822Z",
  "networkType": "ethereum",
  "devdoc": {
    "author": "Bit Lighthouse. Ace AT: 2021-3-28 | VERSION: v1.0.2",
    "kind": "dev",
    "methods": {
      "owner()": {
        "details": "Returns the address of the current owner."
      },
      "renounceOwnership()": {
        "details": "Leaves the contract without owner. It will not be possible to call `onlyOwner` functions anymore. Can only be called by the current owner. NOTE: Renouncing ownership will leave the contract without an owner, thereby removing any functionality that is only available to the owner."
      },
      "setAuthority(address)": {
        "params": {
          "authority_": "address of manager This function is onwer only"
        }
      },
      "setConfig(string,uint256)": {
        "params": {
          "config_": "config's value This function is config only",
          "name_": "name of config"
        }
      },
      "transferOwnership(address)": {
        "details": "Transfers ownership of the contract to a new account (`newOwner`). Can only be called by the current owner."
      }
    },
    "title": "U Box Sea - ERC721",
    "version": 1
  },
  "userdoc": {
    "kind": "user",
    "methods": {
      "setAuthority(address)": {
        "notice": "Set new manager"
      },
      "setConfig(string,uint256)": {
        "notice": "Set config of global or contract"
      }
    },
    "version": 1
  }
}