{
  "contractName": "Exchange",
  "abi": [
    {
      "inputs": [
        {
          "internalType": "address",
          "name": "auth_",
          "type": "address"
        }
      ],
      "stateMutability": "nonpayable",
      "type": "constructor"
    },
    {
      "anonymous": false,
      "inputs": [
        {
          "indexed": true,
          "internalType": "address",
          "name": "previousOwner",
          "type": "address"
        },
        {
          "indexed": true,
          "internalType": "address",
          "name": "newOwner",
          "type": "address"
        }
      ],
      "name": "OwnershipTransferred",
      "type": "event"
    },
    {
      "inputs": [],
      "name": "authority",
      "outputs": [
        {
          "internalType": "contract Authority",
          "name": "",
          "type": "address"
        }
      ],
      "stateMutability": "view",
      "type": "function",
      "constant": true
    },
    {
      "inputs": [
        {
          "internalType": "string",
          "name": "",
          "type": "string"
        }
      ],
      "name": "configs",
      "outputs": [
        {
          "internalType": "uint256",
          "name": "",
          "type": "uint256"
        }
      ],
      "stateMutability": "view",
      "type": "function",
      "constant": true
    },
    {
      "inputs": [],
      "name": "owner",
      "outputs": [
        {
          "internalType": "address",
          "name": "",
          "type": "address"
        }
      ],
      "stateMutability": "view",
      "type": "function",
      "constant": true
    },
    {
      "inputs": [],
      "name": "renounceOwnership",
      "outputs": [],
      "stateMutability": "nonpayable",
      "type": "function"
    },
    {
      "inputs": [
        {
          "internalType": "address",
          "name": "authority_",
          "type": "address"
        }
      ],
      "name": "setAuthority",
      "outputs": [],
      "stateMutability": "nonpayable",
      "type": "function"
    },
    {
      "inputs": [
        {
          "internalType": "string",
          "name": "name_",
          "type": "string"
        },
        {
          "internalType": "uint256",
          "name": "config_",
          "type": "uint256"
        }
      ],
      "name": "setConfig",
      "outputs": [],
      "stateMutability": "nonpayable",
      "type": "function"
    },
    {
      "inputs": [
        {
          "internalType": "address",
          "name": "newOwner",
          "type": "address"
        }
      ],
      "name": "transferOwnership",
      "outputs": [],
      "stateMutability": "nonpayable",
      "type": "function"
    },
    {
      "inputs": [
        {
          "internalType": "uint112",
          "name": "tokenId_",
          "type": "uint112"
        },
        {
          "internalType": "uint256",
          "name": "amount",
          "type": "uint256"
        }
      ],
      "name": "put",
      "outputs": [],
      "stateMutability": "nonpayable",
      "type": "function"
    },
    {
      "inputs": [
        {
          "internalType": "uint112",
          "name": "tokenId_",
          "type": "uint112"
        }
      ],
      "name": "pull",
      "outputs": [],
      "stateMutability": "nonpayable",
      "type": "function"
    },
    {
      "inputs": [
        {
          "internalType": "uint112",
          "name": "tokenId_",
          "type": "uint112"
        }
      ],
      "name": "buy",
      "outputs": [],
      "stateMutability": "nonpayable",
      "type": "function"
    }
  ],
  "bytecode": "0x60806040523480156200001157600080fd5b5060405162002d8038038062002d80833981810160405281019062000037919062000150565b8060006200004a6200013160201b60201c565b9050806000806101000a81548173ffffffffffffffffffffffffffffffffffffffff021916908373ffffffffffffffffffffffffffffffffffffffff1602179055508073ffffffffffffffffffffffffffffffffffffffff16600073ffffffffffffffffffffffffffffffffffffffff167f8be0079c531659141344cd1fd0a4f28419497f9722a3daafe3b4186f6b6457e060405160405180910390a35080600160006101000a81548173ffffffffffffffffffffffffffffffffffffffff021916908373ffffffffffffffffffffffffffffffffffffffff1602179055505050620001ca565b600033905090565b6000815190506200014a81620001b0565b92915050565b6000602082840312156200016357600080fd5b6000620001738482850162000139565b91505092915050565b6000620001898262000190565b9050919050565b600073ffffffffffffffffffffffffffffffffffffffff82169050919050565b620001bb816200017c565b8114620001c757600080fd5b50565b612ba680620001da6000396000f3fe608060405234801561001057600080fd5b506004361061009e5760003560e01c80637a9e5e4b116100665780637a9e5e4b146101315780638da5cb5b1461014d578063bf7e214f1461016b578063c782ca4314610189578063f2fde38b146101a55761009e565b80633e8f5b90146100a35780634d01d98d146100bf5780635ef7fbad146100db5780636b143dec1461010b578063715018a614610127575b600080fd5b6100bd60048036038101906100b89190612299565b6101c1565b005b6100d960048036038101906100d491906122ed565b61030b565b005b6100f560048036038101906100f09190612258565b610a3a565b604051610102919061289e565b60405180910390f35b610125600480360381019061012091906122ed565b610a68565b005b61012f61133f565b005b61014b600480360381019061014691906121dd565b611479565b005b610155611539565b604051610162919061266a565b60405180910390f35b610173611562565b6040516101809190612788565b60405180910390f35b6101a3600480360381019061019e9190612316565b611588565b005b6101bf60048036038101906101ba91906121dd565b611d0a565b005b6040518060400160405280600681526020017f434f4e4649470000000000000000000000000000000000000000000000000000815250600160009054906101000a900473ffffffffffffffffffffffffffffffffffffffff1673ffffffffffffffffffffffffffffffffffffffff1663f5e65c7233836040518363ffffffff1660e01b815260040161025492919061272a565b60206040518083038186803b15801561026c57600080fd5b505afa158015610280573d6000803e3d6000fd5b505050506040513d601f19601f820116820180604052508101906102a4919061222f565b6102e3576040517f08c379a00000000000000000000000000000000000000000000000000000000081526004016102da90612863565b60405180910390fd5b816002846040516102f49190612653565b908152602001604051809103902081905550505050565b6040518060400160405280600781526020017f4e465450554c4c00000000000000000000000000000000000000000000000000815250600160009054906101000a900473ffffffffffffffffffffffffffffffffffffffff1673ffffffffffffffffffffffffffffffffffffffff1663466f98e860006040518263ffffffff1660e01b815260040161039d919061275a565b60206040518083038186803b1580156103b557600080fd5b505afa1580156103c9573d6000803e3d6000fd5b505050506040513d601f19601f820116820180604052508101906103ed919061222f565b15806104a45750600160009054906101000a900473ffffffffffffffffffffffffffffffffffffffff1673ffffffffffffffffffffffffffffffffffffffff1663466f98e86000836040518363ffffffff1660e01b815260040161045292919061272a565b60206040518083038186803b15801561046a57600080fd5b505afa15801561047e573d6000803e3d6000fd5b505050506040513d601f19601f820116820180604052508101906104a2919061222f565b155b806105575750600160009054906101000a900473ffffffffffffffffffffffffffffffffffffffff1673ffffffffffffffffffffffffffffffffffffffff1663466f98e8336040518263ffffffff1660e01b8152600401610505919061275a565b60206040518083038186803b15801561051d57600080fd5b505afa158015610531573d6000803e3d6000fd5b505050506040513d601f19601f82011682018060405250810190610555919061222f565b155b8061060c5750600160009054906101000a900473ffffffffffffffffffffffffffffffffffffffff1673ffffffffffffffffffffffffffffffffffffffff1663466f98e833836040518363ffffffff1660e01b81526004016105ba92919061272a565b60206040518083038186803b1580156105d257600080fd5b505afa1580156105e6573d6000803e3d6000fd5b505050506040513d601f19601f8201168201806040525081019061060a919061222f565b155b61064b576040517f08c379a000000000000000000000000000000000000000000000000000000000815260040161064290612863565b60405180910390fd5b60046000836dffffffffffffffffffffffffffff166dffffffffffffffffffffffffffff16815260200190815260200160002060009054906101000a900473ffffffffffffffffffffffffffffffffffffffff1673ffffffffffffffffffffffffffffffffffffffff163373ffffffffffffffffffffffffffffffffffffffff161461070c576040517f08c379a000000000000000000000000000000000000000000000000000000000815260040161070390612823565b60405180910390fd5b61076d826dffffffffffffffffffffffffffff16600560003373ffffffffffffffffffffffffffffffffffffffff1673ffffffffffffffffffffffffffffffffffffffff168152602001908152602001600020611eb390919063ffffffff16565b506000600160009054906101000a900473ffffffffffffffffffffffffffffffffffffffff1673ffffffffffffffffffffffffffffffffffffffff16636957a0b26040518163ffffffff1660e01b81526004016107c990612843565b60206040518083038186803b1580156107e157600080fd5b505afa1580156107f5573d6000803e3d6000fd5b505050506040513d601f19601f820116820180604052508101906108199190612206565b90508073ffffffffffffffffffffffffffffffffffffffff166342842e0e3033866040518463ffffffff1660e01b8152600401610858939291906126bc565b600060405180830381600087803b15801561087257600080fd5b505af1158015610886573d6000803e3d6000fd5b505050506000600160009054906101000a900473ffffffffffffffffffffffffffffffffffffffff1673ffffffffffffffffffffffffffffffffffffffff16636957a0b26040518163ffffffff1660e01b81526004016108e5906127c3565b60206040518083038186803b1580156108fd57600080fd5b505afa158015610911573d6000803e3d6000fd5b505050506040513d601f19601f820116820180604052508101906109359190612206565b90508073ffffffffffffffffffffffffffffffffffffffff1663deea9607600033876040518463ffffffff1660e01b815260040161097593929190612685565b600060405180830381600087803b15801561098f57600080fd5b505af11580156109a3573d6000803e3d6000fd5b5050505060036000856dffffffffffffffffffffffffffff166dffffffffffffffffffffffffffff1681526020019081526020016000206000905560046000856dffffffffffffffffffffffffffff166dffffffffffffffffffffffffffff16815260200190815260200160002060006101000a81549073ffffffffffffffffffffffffffffffffffffffff021916905550505050565b6002818051602081018201805184825260208301602085012081835280955050505050506000915090505481565b6040518060400160405280600681526020017f4e46544255590000000000000000000000000000000000000000000000000000815250600160009054906101000a900473ffffffffffffffffffffffffffffffffffffffff1673ffffffffffffffffffffffffffffffffffffffff1663466f98e860006040518263ffffffff1660e01b8152600401610afa919061275a565b60206040518083038186803b158015610b1257600080fd5b505afa158015610b26573d6000803e3d6000fd5b505050506040513d601f19601f82011682018060405250810190610b4a919061222f565b1580610c015750600160009054906101000a900473ffffffffffffffffffffffffffffffffffffffff1673ffffffffffffffffffffffffffffffffffffffff1663466f98e86000836040518363ffffffff1660e01b8152600401610baf92919061272a565b60206040518083038186803b158015610bc757600080fd5b505afa158015610bdb573d6000803e3d6000fd5b505050506040513d601f19601f82011682018060405250810190610bff919061222f565b155b80610cb45750600160009054906101000a900473ffffffffffffffffffffffffffffffffffffffff1673ffffffffffffffffffffffffffffffffffffffff1663466f98e8336040518263ffffffff1660e01b8152600401610c62919061275a565b60206040518083038186803b158015610c7a57600080fd5b505afa158015610c8e573d6000803e3d6000fd5b505050506040513d601f19601f82011682018060405250810190610cb2919061222f565b155b80610d695750600160009054906101000a900473ffffffffffffffffffffffffffffffffffffffff1673ffffffffffffffffffffffffffffffffffffffff1663466f98e833836040518363ffffffff1660e01b8152600401610d1792919061272a565b60206040518083038186803b158015610d2f57600080fd5b505afa158015610d43573d6000803e3d6000fd5b505050506040513d601f19601f82011682018060405250810190610d67919061222f565b155b610da8576040517f08c379a0000000000000000000000000000000000000000000000000000000008152600401610d9f90612863565b60405180910390fd5b6000600160009054906101000a900473ffffffffffffffffffffffffffffffffffffffff1673ffffffffffffffffffffffffffffffffffffffff16636957a0b26040518163ffffffff1660e01b8152600401610e03906127e3565b60206040518083038186803b158015610e1b57600080fd5b505afa158015610e2f573d6000803e3d6000fd5b505050506040513d601f19601f82011682018060405250810190610e539190612206565b90508073ffffffffffffffffffffffffffffffffffffffff166323b872dd3360046000876dffffffffffffffffffffffffffff166dffffffffffffffffffffffffffff16815260200190815260200160002060009054906101000a900473ffffffffffffffffffffffffffffffffffffffff1660036000886dffffffffffffffffffffffffffff166dffffffffffffffffffffffffffff168152602001908152602001600020546040518463ffffffff1660e01b8152600401610f18939291906126f3565b602060405180830381600087803b158015610f3257600080fd5b505af1158015610f46573d6000803e3d6000fd5b505050506040513d601f19601f82011682018060405250810190610f6a919061222f565b5061101f836dffffffffffffffffffffffffffff166005600060046000886dffffffffffffffffffffffffffff166dffffffffffffffffffffffffffff16815260200190815260200160002060009054906101000a900473ffffffffffffffffffffffffffffffffffffffff1673ffffffffffffffffffffffffffffffffffffffff1673ffffffffffffffffffffffffffffffffffffffff168152602001908152602001600020611eb390919063ffffffff16565b506000600160009054906101000a900473ffffffffffffffffffffffffffffffffffffffff1673ffffffffffffffffffffffffffffffffffffffff16636957a0b26040518163ffffffff1660e01b815260040161107b90612843565b60206040518083038186803b15801561109357600080fd5b505afa1580156110a7573d6000803e3d6000fd5b505050506040513d601f19601f820116820180604052508101906110cb9190612206565b90508073ffffffffffffffffffffffffffffffffffffffff166342842e0e3033876040518463ffffffff1660e01b815260040161110a939291906126bc565b600060405180830381600087803b15801561112457600080fd5b505af1158015611138573d6000803e3d6000fd5b505050506000600160009054906101000a900473ffffffffffffffffffffffffffffffffffffffff1673ffffffffffffffffffffffffffffffffffffffff16636957a0b26040518163ffffffff1660e01b8152600401611197906127c3565b60206040518083038186803b1580156111af57600080fd5b505afa1580156111c3573d6000803e3d6000fd5b505050506040513d601f19601f820116820180604052508101906111e79190612206565b90508073ffffffffffffffffffffffffffffffffffffffff1663deea96073360046000896dffffffffffffffffffffffffffff166dffffffffffffffffffffffffffff16815260200190815260200160002060009054906101000a900473ffffffffffffffffffffffffffffffffffffffff16886040518463ffffffff1660e01b815260040161127993929190612685565b600060405180830381600087803b15801561129357600080fd5b505af11580156112a7573d6000803e3d6000fd5b5050505060036000866dffffffffffffffffffffffffffff166dffffffffffffffffffffffffffff1681526020019081526020016000206000905560046000866dffffffffffffffffffffffffffff166dffffffffffffffffffffffffffff16815260200190815260200160002060006101000a81549073ffffffffffffffffffffffffffffffffffffffff02191690555050505050565b611347611ecd565b73ffffffffffffffffffffffffffffffffffffffff16611365611539565b73ffffffffffffffffffffffffffffffffffffffff16146113bb576040517f08c379a00000000000000000000000000000000000000000000000000000000081526004016113b290612803565b60405180910390fd5b600073ffffffffffffffffffffffffffffffffffffffff1660008054906101000a900473ffffffffffffffffffffffffffffffffffffffff1673ffffffffffffffffffffffffffffffffffffffff167f8be0079c531659141344cd1fd0a4f28419497f9722a3daafe3b4186f6b6457e060405160405180910390a360008060006101000a81548173ffffffffffffffffffffffffffffffffffffffff021916908373ffffffffffffffffffffffffffffffffffffffff160217905550565b611481611ecd565b73ffffffffffffffffffffffffffffffffffffffff1661149f611539565b73ffffffffffffffffffffffffffffffffffffffff16146114f5576040517f08c379a00000000000000000000000000000000000000000000000000000000081526004016114ec90612803565b60405180910390fd5b80600160006101000a81548173ffffffffffffffffffffffffffffffffffffffff021916908373ffffffffffffffffffffffffffffffffffffffff16021790555050565b60008060009054906101000a900473ffffffffffffffffffffffffffffffffffffffff16905090565b600160009054906101000a900473ffffffffffffffffffffffffffffffffffffffff1681565b6040518060400160405280600681526020017f4e46545055540000000000000000000000000000000000000000000000000000815250600160009054906101000a900473ffffffffffffffffffffffffffffffffffffffff1673ffffffffffffffffffffffffffffffffffffffff1663466f98e860006040518263ffffffff1660e01b815260040161161a919061275a565b60206040518083038186803b15801561163257600080fd5b505afa158015611646573d6000803e3d6000fd5b505050506040513d601f19601f8201168201806040525081019061166a919061222f565b15806117215750600160009054906101000a900473ffffffffffffffffffffffffffffffffffffffff1673ffffffffffffffffffffffffffffffffffffffff1663466f98e86000836040518363ffffffff1660e01b81526004016116cf92919061272a565b60206040518083038186803b1580156116e757600080fd5b505afa1580156116fb573d6000803e3d6000fd5b505050506040513d601f19601f8201168201806040525081019061171f919061222f565b155b806117d45750600160009054906101000a900473ffffffffffffffffffffffffffffffffffffffff1673ffffffffffffffffffffffffffffffffffffffff1663466f98e8336040518263ffffffff1660e01b8152600401611782919061275a565b60206040518083038186803b15801561179a57600080fd5b505afa1580156117ae573d6000803e3d6000fd5b505050506040513d601f19601f820116820180604052508101906117d2919061222f565b155b806118895750600160009054906101000a900473ffffffffffffffffffffffffffffffffffffffff1673ffffffffffffffffffffffffffffffffffffffff1663466f98e833836040518363ffffffff1660e01b815260040161183792919061272a565b60206040518083038186803b15801561184f57600080fd5b505afa158015611863573d6000803e3d6000fd5b505050506040513d601f19601f82011682018060405250810190611887919061222f565b155b6118c8576040517f08c379a00000000000000000000000000000000000000000000000000000000081526004016118bf90612863565b60405180910390fd5b6000600160009054906101000a900473ffffffffffffffffffffffffffffffffffffffff1673ffffffffffffffffffffffffffffffffffffffff16636957a0b26040518163ffffffff1660e01b815260040161192390612843565b60206040518083038186803b15801561193b57600080fd5b505afa15801561194f573d6000803e3d6000fd5b505050506040513d601f19601f820116820180604052508101906119739190612206565b90508073ffffffffffffffffffffffffffffffffffffffff16636352211e856040518263ffffffff1660e01b81526004016119ae9190612883565b60206040518083038186803b1580156119c657600080fd5b505afa1580156119da573d6000803e3d6000fd5b505050506040513d601f19601f820116820180604052508101906119fe9190612206565b73ffffffffffffffffffffffffffffffffffffffff163373ffffffffffffffffffffffffffffffffffffffff1614611a6b576040517f08c379a0000000000000000000000000000000000000000000000000000000008152600401611a6290612823565b60405180910390fd5b8260036000866dffffffffffffffffffffffffffff166dffffffffffffffffffffffffffff168152602001908152602001600020819055503360046000866dffffffffffffffffffffffffffff166dffffffffffffffffffffffffffff16815260200190815260200160002060006101000a81548173ffffffffffffffffffffffffffffffffffffffff021916908373ffffffffffffffffffffffffffffffffffffffff160217905550611b76846dffffffffffffffffffffffffffff16600560003373ffffffffffffffffffffffffffffffffffffffff1673ffffffffffffffffffffffffffffffffffffffff168152602001908152602001600020611ed590919063ffffffff16565b508073ffffffffffffffffffffffffffffffffffffffff166342842e0e3330876040518463ffffffff1660e01b8152600401611bb4939291906126bc565b600060405180830381600087803b158015611bce57600080fd5b505af1158015611be2573d6000803e3d6000fd5b505050506000600160009054906101000a900473ffffffffffffffffffffffffffffffffffffffff1673ffffffffffffffffffffffffffffffffffffffff16636957a0b26040518163ffffffff1660e01b8152600401611c41906127c3565b60206040518083038186803b158015611c5957600080fd5b505afa158015611c6d573d6000803e3d6000fd5b505050506040513d601f19601f82011682018060405250810190611c919190612206565b90508073ffffffffffffffffffffffffffffffffffffffff1663deea9607336000886040518463ffffffff1660e01b8152600401611cd193929190612685565b600060405180830381600087803b158015611ceb57600080fd5b505af1158015611cff573d6000803e3d6000fd5b505050505050505050565b611d12611ecd565b73ffffffffffffffffffffffffffffffffffffffff16611d30611539565b73ffffffffffffffffffffffffffffffffffffffff1614611d86576040517f08c379a0000000000000000000000000000000000000000000000000000000008152600401611d7d90612803565b60405180910390fd5b600073ffffffffffffffffffffffffffffffffffffffff168173ffffffffffffffffffffffffffffffffffffffff161415611df6576040517f08c379a0000000000000000000000000000000000000000000000000000000008152600401611ded906127a3565b60405180910390fd5b8073ffffffffffffffffffffffffffffffffffffffff1660008054906101000a900473ffffffffffffffffffffffffffffffffffffffff1673ffffffffffffffffffffffffffffffffffffffff167f8be0079c531659141344cd1fd0a4f28419497f9722a3daafe3b4186f6b6457e060405160405180910390a3806000806101000a81548173ffffffffffffffffffffffffffffffffffffffff021916908373ffffffffffffffffffffffffffffffffffffffff16021790555050565b6000611ec5836000018360001b611eef565b905092915050565b600033905090565b6000611ee7836000018360001b612079565b905092915050565b6000808360010160008481526020019081526020016000205490506000811461206d576000600182611f219190612997565b9050600060018660000180549050611f399190612997565b90506000866000018281548110611f79577f4e487b7100000000000000000000000000000000000000000000000000000000600052603260045260246000fd5b9060005260206000200154905080876000018481548110611fc3577f4e487b7100000000000000000000000000000000000000000000000000000000600052603260045260246000fd5b9060005260206000200181905550600183611fde9190612941565b8760010160008381526020019081526020016000208190555086600001805480612031577f4e487b7100000000000000000000000000000000000000000000000000000000600052603160045260246000fd5b60019003818190600052602060002001600090559055866001016000878152602001908152602001600020600090556001945050505050612073565b60009150505b92915050565b600061208583836120e9565b6120de5782600001829080600181540180825580915050600190039060005260206000200160009091909190915055826000018054905083600101600084815260200190815260200160002081905550600190506120e3565b600090505b92915050565b600080836001016000848152602001908152602001600020541415905092915050565b600061211f61211a846128ea565b6128b9565b90508281526020810184848401111561213757600080fd5b612142848285612a63565b509392505050565b60008135905061215981612b14565b92915050565b60008151905061216e81612b14565b92915050565b60008151905061218381612b2b565b92915050565b600082601f83011261219a57600080fd5b81356121aa84826020860161210c565b91505092915050565b6000813590506121c281612b42565b92915050565b6000813590506121d781612b59565b92915050565b6000602082840312156121ef57600080fd5b60006121fd8482850161214a565b91505092915050565b60006020828403121561221857600080fd5b60006122268482850161215f565b91505092915050565b60006020828403121561224157600080fd5b600061224f84828501612174565b91505092915050565b60006020828403121561226a57600080fd5b600082013567ffffffffffffffff81111561228457600080fd5b61229084828501612189565b91505092915050565b600080604083850312156122ac57600080fd5b600083013567ffffffffffffffff8111156122c657600080fd5b6122d285828601612189565b92505060206122e3858286016121c8565b9150509250929050565b6000602082840312156122ff57600080fd5b600061230d848285016121b3565b91505092915050565b6000806040838503121561232957600080fd5b6000612337858286016121b3565b9250506020612348858286016121c8565b9150509250929050565b61235b816129cb565b82525050565b61236a81612a2d565b82525050565b600061237b8261291a565b6123858185612925565b9350612395818560208601612a72565b61239e81612b03565b840191505092915050565b60006123b48261291a565b6123be8185612936565b93506123ce818560208601612a72565b80840191505092915050565b60006123e7602683612925565b91507f4f776e61626c653a206e6577206f776e657220697320746865207a65726f206160008301527f64647265737300000000000000000000000000000000000000000000000000006020830152604082019050919050565b600061244d600a83612925565b91507f43617264526577617264000000000000000000000000000000000000000000006000830152602082019050919050565b600061248d600583612925565b91507f544f4b454e0000000000000000000000000000000000000000000000000000006000830152602082019050919050565b60006124cd602083612925565b91507f4f776e61626c653a2063616c6c6572206973206e6f7420746865206f776e65726000830152602082019050919050565b600061250d601583612925565b91507f45584348414e47453a204f6e6c79206f6e7765722e00000000000000000000006000830152602082019050919050565b600061254d600383612925565b91507f414c4c00000000000000000000000000000000000000000000000000000000006000830152602082019050919050565b600061258d600783612925565b91507f46494748544552000000000000000000000000000000000000000000000000006000830152602082019050919050565b60006125cd602483612925565b91507f4d656d6265723a20546865206f7065726174696f6e206973206e6f7420616c6c60008301527f6f776564000000000000000000000000000000000000000000000000000000006020830152604082019050919050565b61262f816129e9565b82525050565b61263e81612a51565b82525050565b61264d81612a23565b82525050565b600061265f82846123a9565b915081905092915050565b600060208201905061267f6000830184612352565b92915050565b600060608201905061269a6000830186612352565b6126a76020830185612352565b6126b46040830184612626565b949350505050565b60006060820190506126d16000830186612352565b6126de6020830185612352565b6126eb6040830184612635565b949350505050565b60006060820190506127086000830186612352565b6127156020830185612352565b6127226040830184612644565b949350505050565b600060408201905061273f6000830185612352565b81810360208301526127518184612370565b90509392505050565b600060408201905061276f6000830184612352565b818103602083015261278081612540565b905092915050565b600060208201905061279d6000830184612361565b92915050565b600060208201905081810360008301526127bc816123da565b9050919050565b600060208201905081810360008301526127dc81612440565b9050919050565b600060208201905081810360008301526127fc81612480565b9050919050565b6000602082019050818103600083015261281c816124c0565b9050919050565b6000602082019050818103600083015261283c81612500565b9050919050565b6000602082019050818103600083015261285c81612580565b9050919050565b6000602082019050818103600083015261287c816125c0565b9050919050565b60006020820190506128986000830184612635565b92915050565b60006020820190506128b36000830184612644565b92915050565b6000604051905081810181811067ffffffffffffffff821117156128e0576128df612ad4565b5b8060405250919050565b600067ffffffffffffffff82111561290557612904612ad4565b5b601f19601f8301169050602081019050919050565b600081519050919050565b600082825260208201905092915050565b600081905092915050565b600061294c82612a23565b915061295783612a23565b9250827fffffffffffffffffffffffffffffffffffffffffffffffffffffffffffffffff0382111561298c5761298b612aa5565b5b828201905092915050565b60006129a282612a23565b91506129ad83612a23565b9250828210156129c0576129bf612aa5565b5b828203905092915050565b60006129d682612a03565b9050919050565b60008115159050919050565b60006dffffffffffffffffffffffffffff82169050919050565b600073ffffffffffffffffffffffffffffffffffffffff82169050919050565b6000819050919050565b6000612a3882612a3f565b9050919050565b6000612a4a82612a03565b9050919050565b6000612a5c826129e9565b9050919050565b82818337600083830152505050565b60005b83811015612a90578082015181840152602081019050612a75565b83811115612a9f576000848401525b50505050565b7f4e487b7100000000000000000000000000000000000000000000000000000000600052601160045260246000fd5b7f4e487b7100000000000000000000000000000000000000000000000000000000600052604160045260246000fd5b6000601f19601f8301169050919050565b612b1d816129cb565b8114612b2857600080fd5b50565b612b34816129dd565b8114612b3f57600080fd5b50565b612b4b816129e9565b8114612b5657600080fd5b50565b612b6281612a23565b8114612b6d57600080fd5b5056fea264697066735822122032228a9b9d2bc7f66973f2a622eb8170e437b19d6e8dbd3ff2f1b90d30cc616964736f6c63430008000033",
  "immutableReferences": {},
  "source": "// SPDX-License-Identifier: SimPL-2.0\n\npragma solidity ^0.8.0;\n\nimport \"../core/CardReward.sol\";\n\nimport \"@openzeppelin/contracts/token/ERC20/IERC20.sol\";\nimport \"@openzeppelin/contracts/token/ERC721/IERC721.sol\";\nimport \"@openzeppelin/contracts/utils/structs/EnumerableSet.sol\";\n\n/**\n * @title U Box Sea - ERC721\n *\n * @author Bit Lighthouse. Ace\n * AT: 2021-3-28 | VERSION: v1.0.2\n */\n\ncontract Exchange is Member {\n    using SafeMath for uint256;\n    using EnumerableSet for EnumerableSet.UintSet;\n\n    mapping (uint112 => uint256) private _amounts;\n    mapping (uint112 => address) private _owners;\n    mapping (address => EnumerableSet.UintSet) private _tokens;\n\n    constructor(address auth_) Member(auth_) { }\n\n    function put(uint112 tokenId_, uint256 amount) public\n        CheckStatus(\"NFTPUT\"){\n\n        IERC721 figh = IERC721(authority.members(\"FIGHTER\"));\n        require(\n            msg.sender == figh.ownerOf(tokenId_),\n            \"EXCHANGE: Only onwer.\"\n        );\n\n        _amounts[tokenId_] = amount;\n        _owners[tokenId_] = msg.sender;\n        _tokens[msg.sender].add(tokenId_);\n        figh.safeTransferFrom(msg.sender, address(this), tokenId_);\n        CardReward cr = CardReward(authority.members(\"CardReward\"));\n        cr.doExchange(msg.sender, address(0), tokenId_);\n    }\n\n    function pull(uint112 tokenId_) public CheckStatus(\"NFTPULL\"){\n        require(\n            msg.sender == _owners[tokenId_],\n            \"EXCHANGE: Only onwer.\"\n        );\n        _tokens[msg.sender].remove(tokenId_);\n        IERC721 figh = IERC721(authority.members(\"FIGHTER\"));\n        figh.safeTransferFrom(address(this), msg.sender, tokenId_);\n        CardReward cr = CardReward(authority.members(\"CardReward\"));\n        cr.doExchange(address(0), msg.sender, tokenId_);\n\n        delete _amounts[tokenId_]; delete _owners[tokenId_];\n    }\n    \n    function buy(uint112 tokenId_) public CheckStatus(\"NFTBUY\") {\n        IERC20 token = IERC20(authority.members(\"TOKEN\"));\n        token.transferFrom(msg.sender, _owners[tokenId_], _amounts[tokenId_]);\n\n        _tokens[_owners[tokenId_]].remove(tokenId_);\n        IERC721 figh = IERC721(authority.members(\"FIGHTER\"));\n        figh.safeTransferFrom(address(this), msg.sender, tokenId_);\n        CardReward cr = CardReward(authority.members(\"CardReward\"));\n        cr.doExchange(msg.sender, _owners[tokenId_], tokenId_);\n\n        delete _amounts[tokenId_]; delete _owners[tokenId_];\n    }\n}",
  "sourcePath": "/home/ace/Projects/eth/other/dragon-ball-project/dragon-ball-contract/contracts/core/Exchange.sol",
  "compiler": {
    "name": "solc",
    "version": "0.8.0+commit.c7dfd78e.Emscripten.clang"
  },
  "schemaVersion": "3.4.3",
  "updatedAt": "2021-08-29T15:19:22.441Z",
  "networkType": "ethereum",
  "devdoc": {
    "author": "Bit Lighthouse. Ace AT: 2021-3-28 | VERSION: v1.0.2",
    "kind": "dev",
    "methods": {
      "owner()": {
        "details": "Returns the address of the current owner."
      },
      "renounceOwnership()": {
        "details": "Leaves the contract without owner. It will not be possible to call `onlyOwner` functions anymore. Can only be called by the current owner. NOTE: Renouncing ownership will leave the contract without an owner, thereby removing any functionality that is only available to the owner."
      },
      "setAuthority(address)": {
        "params": {
          "authority_": "address of manager This function is onwer only"
        }
      },
      "setConfig(string,uint256)": {
        "params": {
          "config_": "config's value This function is config only",
          "name_": "name of config"
        }
      },
      "transferOwnership(address)": {
        "details": "Transfers ownership of the contract to a new account (`newOwner`). Can only be called by the current owner."
      }
    },
    "title": "U Box Sea - ERC721",
    "version": 1
  },
  "userdoc": {
    "kind": "user",
    "methods": {
      "setAuthority(address)": {
        "notice": "Set new manager"
      },
      "setConfig(string,uint256)": {
        "notice": "Set config of global or contract"
      }
    },
    "version": 1
  }
}