{
  "contractName": "Exchange",
  "abi": [
    {
      "inputs": [
        {
          "internalType": "address",
          "name": "auth_",
          "type": "address"
        }
      ],
      "stateMutability": "nonpayable",
      "type": "constructor"
    },
    {
      "anonymous": false,
      "inputs": [
        {
          "indexed": true,
          "internalType": "address",
          "name": "previousOwner",
          "type": "address"
        },
        {
          "indexed": true,
          "internalType": "address",
          "name": "newOwner",
          "type": "address"
        }
      ],
      "name": "OwnershipTransferred",
      "type": "event"
    },
    {
      "inputs": [],
      "name": "authority",
      "outputs": [
        {
          "internalType": "contract Authority",
          "name": "",
          "type": "address"
        }
      ],
      "stateMutability": "view",
      "type": "function",
      "constant": true
    },
    {
      "inputs": [
        {
          "internalType": "string",
          "name": "",
          "type": "string"
        }
      ],
      "name": "configs",
      "outputs": [
        {
          "internalType": "uint256",
          "name": "",
          "type": "uint256"
        }
      ],
      "stateMutability": "view",
      "type": "function",
      "constant": true
    },
    {
      "inputs": [],
      "name": "owner",
      "outputs": [
        {
          "internalType": "address",
          "name": "",
          "type": "address"
        }
      ],
      "stateMutability": "view",
      "type": "function",
      "constant": true
    },
    {
      "inputs": [],
      "name": "renounceOwnership",
      "outputs": [],
      "stateMutability": "nonpayable",
      "type": "function"
    },
    {
      "inputs": [
        {
          "internalType": "address",
          "name": "authority_",
          "type": "address"
        }
      ],
      "name": "setAuthority",
      "outputs": [],
      "stateMutability": "nonpayable",
      "type": "function"
    },
    {
      "inputs": [
        {
          "internalType": "string",
          "name": "name_",
          "type": "string"
        },
        {
          "internalType": "uint256",
          "name": "config_",
          "type": "uint256"
        }
      ],
      "name": "setConfig",
      "outputs": [],
      "stateMutability": "nonpayable",
      "type": "function"
    },
    {
      "inputs": [
        {
          "internalType": "address",
          "name": "newOwner",
          "type": "address"
        }
      ],
      "name": "transferOwnership",
      "outputs": [],
      "stateMutability": "nonpayable",
      "type": "function"
    },
    {
      "inputs": [],
      "name": "getExchangeList",
      "outputs": [
        {
          "components": [
            {
              "internalType": "uint8",
              "name": "quality",
              "type": "uint8"
            },
            {
              "internalType": "uint16",
              "name": "heroId",
              "type": "uint16"
            },
            {
              "internalType": "uint8",
              "name": "power",
              "type": "uint8"
            },
            {
              "internalType": "uint16",
              "name": "rate",
              "type": "uint16"
            },
            {
              "internalType": "uint256",
              "name": "amount",
              "type": "uint256"
            },
            {
              "internalType": "uint112",
              "name": "tokenId",
              "type": "uint112"
            }
          ],
          "internalType": "struct NftLibrary.DetailStruct[]",
          "name": "list",
          "type": "tuple[]"
        }
      ],
      "stateMutability": "view",
      "type": "function",
      "constant": true
    },
    {
      "inputs": [
        {
          "internalType": "address",
          "name": "account_",
          "type": "address"
        }
      ],
      "name": "getMyExchangeList",
      "outputs": [
        {
          "components": [
            {
              "internalType": "uint8",
              "name": "quality",
              "type": "uint8"
            },
            {
              "internalType": "uint16",
              "name": "heroId",
              "type": "uint16"
            },
            {
              "internalType": "uint8",
              "name": "power",
              "type": "uint8"
            },
            {
              "internalType": "uint16",
              "name": "rate",
              "type": "uint16"
            },
            {
              "internalType": "uint256",
              "name": "amount",
              "type": "uint256"
            },
            {
              "internalType": "uint112",
              "name": "tokenId",
              "type": "uint112"
            }
          ],
          "internalType": "struct NftLibrary.DetailStruct[]",
          "name": "list",
          "type": "tuple[]"
        }
      ],
      "stateMutability": "view",
      "type": "function",
      "constant": true
    },
    {
      "inputs": [
        {
          "internalType": "uint112",
          "name": "tokenId_",
          "type": "uint112"
        },
        {
          "internalType": "uint256",
          "name": "amount",
          "type": "uint256"
        }
      ],
      "name": "put",
      "outputs": [],
      "stateMutability": "nonpayable",
      "type": "function"
    },
    {
      "inputs": [
        {
          "internalType": "uint112",
          "name": "tokenId_",
          "type": "uint112"
        }
      ],
      "name": "pull",
      "outputs": [],
      "stateMutability": "nonpayable",
      "type": "function"
    },
    {
      "inputs": [
        {
          "internalType": "uint112",
          "name": "tokenId_",
          "type": "uint112"
        }
      ],
      "name": "buy",
      "outputs": [],
      "stateMutability": "nonpayable",
      "type": "function"
    }
  ],
  "bytecode": "0x60806040523480156200001157600080fd5b506040516200383238038062003832833981810160405281019062000037919062000150565b8060006200004a6200013160201b60201c565b9050806000806101000a81548173ffffffffffffffffffffffffffffffffffffffff021916908373ffffffffffffffffffffffffffffffffffffffff1602179055508073ffffffffffffffffffffffffffffffffffffffff16600073ffffffffffffffffffffffffffffffffffffffff167f8be0079c531659141344cd1fd0a4f28419497f9722a3daafe3b4186f6b6457e060405160405180910390a35080600160006101000a81548173ffffffffffffffffffffffffffffffffffffffff021916908373ffffffffffffffffffffffffffffffffffffffff1602179055505050620001ca565b600033905090565b6000815190506200014a81620001b0565b92915050565b6000602082840312156200016357600080fd5b6000620001738482850162000139565b91505092915050565b6000620001898262000190565b9050919050565b600073ffffffffffffffffffffffffffffffffffffffff82169050919050565b620001bb816200017c565b8114620001c757600080fd5b50565b61365880620001da6000396000f3fe608060405234801561001057600080fd5b50600436106100b45760003560e01c80637a9e5e4b116100715780637a9e5e4b146101775780638da5cb5b146101935780639130e182146101b1578063bf7e214f146101cf578063c782ca43146101ed578063f2fde38b14610209576100b4565b80633e8f5b90146100b95780634d01d98d146100d55780635ef7fbad146100f15780636b143dec14610121578063715018a61461013d57806377acde3114610147575b600080fd5b6100d360048036038101906100ce9190612a58565b610225565b005b6100ef60048036038101906100ea9190612ad5565b61036f565b005b61010b60048036038101906101069190612a17565b610ac3565b6040516101189190613285565b60405180910390f35b61013b60048036038101906101369190612ad5565b610af1565b005b610145611347565b005b610161600480360381019061015c919061299c565b611481565b60405161016e9190613112565b60405180910390f35b610191600480360381019061018c919061299c565b611779565b005b61019b611839565b6040516101a89190612ff4565b60405180910390f35b6101b9611862565b6040516101c69190613112565b60405180910390f35b6101d7611ade565b6040516101e49190613134565b60405180910390f35b61020760048036038101906102029190612afe565b611b04565b005b610223600480360381019061021e919061299c565b6122ab565b005b6040518060400160405280600681526020017f434f4e4649470000000000000000000000000000000000000000000000000000815250600160009054906101000a900473ffffffffffffffffffffffffffffffffffffffff1673ffffffffffffffffffffffffffffffffffffffff1663f5e65c7233836040518363ffffffff1660e01b81526004016102b89291906130b4565b60206040518083038186803b1580156102d057600080fd5b505afa1580156102e4573d6000803e3d6000fd5b505050506040513d601f19601f8201168201806040525081019061030891906129ee565b610347576040517f08c379a000000000000000000000000000000000000000000000000000000000815260040161033e9061322f565b60405180910390fd5b816002846040516103589190612fdd565b908152602001604051809103902081905550505050565b6040518060400160405280600781526020017f4e465450554c4c00000000000000000000000000000000000000000000000000815250600160009054906101000a900473ffffffffffffffffffffffffffffffffffffffff1673ffffffffffffffffffffffffffffffffffffffff1663466f98e860006040518263ffffffff1660e01b815260040161040191906130e4565b60206040518083038186803b15801561041957600080fd5b505afa15801561042d573d6000803e3d6000fd5b505050506040513d601f19601f8201168201806040525081019061045191906129ee565b15806105085750600160009054906101000a900473ffffffffffffffffffffffffffffffffffffffff1673ffffffffffffffffffffffffffffffffffffffff1663466f98e86000836040518363ffffffff1660e01b81526004016104b69291906130b4565b60206040518083038186803b1580156104ce57600080fd5b505afa1580156104e2573d6000803e3d6000fd5b505050506040513d601f19601f8201168201806040525081019061050691906129ee565b155b806105bb5750600160009054906101000a900473ffffffffffffffffffffffffffffffffffffffff1673ffffffffffffffffffffffffffffffffffffffff1663466f98e8336040518263ffffffff1660e01b815260040161056991906130e4565b60206040518083038186803b15801561058157600080fd5b505afa158015610595573d6000803e3d6000fd5b505050506040513d601f19601f820116820180604052508101906105b991906129ee565b155b806106705750600160009054906101000a900473ffffffffffffffffffffffffffffffffffffffff1673ffffffffffffffffffffffffffffffffffffffff1663466f98e833836040518363ffffffff1660e01b815260040161061e9291906130b4565b60206040518083038186803b15801561063657600080fd5b505afa15801561064a573d6000803e3d6000fd5b505050506040513d601f19601f8201168201806040525081019061066e91906129ee565b155b6106af576040517f08c379a00000000000000000000000000000000000000000000000000000000081526004016106a69061322f565b60405180910390fd5b60066000836dffffffffffffffffffffffffffff166dffffffffffffffffffffffffffff16815260200190815260200160002060009054906101000a900473ffffffffffffffffffffffffffffffffffffffff1673ffffffffffffffffffffffffffffffffffffffff163373ffffffffffffffffffffffffffffffffffffffff1614610770576040517f08c379a0000000000000000000000000000000000000000000000000000000008152600401610767906131cf565b60405180910390fd5b610794826dffffffffffffffffffffffffffff16600361245490919063ffffffff16565b506107f6826dffffffffffffffffffffffffffff16600760003373ffffffffffffffffffffffffffffffffffffffff1673ffffffffffffffffffffffffffffffffffffffff16815260200190815260200160002061245490919063ffffffff16565b506000600160009054906101000a900473ffffffffffffffffffffffffffffffffffffffff1673ffffffffffffffffffffffffffffffffffffffff16636957a0b26040518163ffffffff1660e01b81526004016108529061320f565b60206040518083038186803b15801561086a57600080fd5b505afa15801561087e573d6000803e3d6000fd5b505050506040513d601f19601f820116820180604052508101906108a291906129c5565b90508073ffffffffffffffffffffffffffffffffffffffff166323b872dd3033866040518463ffffffff1660e01b81526004016108e193929190613046565b600060405180830381600087803b1580156108fb57600080fd5b505af115801561090f573d6000803e3d6000fd5b505050506000600160009054906101000a900473ffffffffffffffffffffffffffffffffffffffff1673ffffffffffffffffffffffffffffffffffffffff16636957a0b26040518163ffffffff1660e01b815260040161096e906131ef565b60206040518083038186803b15801561098657600080fd5b505afa15801561099a573d6000803e3d6000fd5b505050506040513d601f19601f820116820180604052508101906109be91906129c5565b90508073ffffffffffffffffffffffffffffffffffffffff1663deea9607600033876040518463ffffffff1660e01b81526004016109fe9392919061300f565b600060405180830381600087803b158015610a1857600080fd5b505af1158015610a2c573d6000803e3d6000fd5b5050505060056000856dffffffffffffffffffffffffffff166dffffffffffffffffffffffffffff1681526020019081526020016000206000905560066000856dffffffffffffffffffffffffffff166dffffffffffffffffffffffffffff16815260200190815260200160002060006101000a81549073ffffffffffffffffffffffffffffffffffffffff021916905550505050565b6002818051602081018201805184825260208301602085012081835280955050505050506000915090505481565b6040518060400160405280600681526020017f4e46544255590000000000000000000000000000000000000000000000000000815250600160009054906101000a900473ffffffffffffffffffffffffffffffffffffffff1673ffffffffffffffffffffffffffffffffffffffff1663466f98e860006040518263ffffffff1660e01b8152600401610b8391906130e4565b60206040518083038186803b158015610b9b57600080fd5b505afa158015610baf573d6000803e3d6000fd5b505050506040513d601f19601f82011682018060405250810190610bd391906129ee565b1580610c8a5750600160009054906101000a900473ffffffffffffffffffffffffffffffffffffffff1673ffffffffffffffffffffffffffffffffffffffff1663466f98e86000836040518363ffffffff1660e01b8152600401610c389291906130b4565b60206040518083038186803b158015610c5057600080fd5b505afa158015610c64573d6000803e3d6000fd5b505050506040513d601f19601f82011682018060405250810190610c8891906129ee565b155b80610d3d5750600160009054906101000a900473ffffffffffffffffffffffffffffffffffffffff1673ffffffffffffffffffffffffffffffffffffffff1663466f98e8336040518263ffffffff1660e01b8152600401610ceb91906130e4565b60206040518083038186803b158015610d0357600080fd5b505afa158015610d17573d6000803e3d6000fd5b505050506040513d601f19601f82011682018060405250810190610d3b91906129ee565b155b80610df25750600160009054906101000a900473ffffffffffffffffffffffffffffffffffffffff1673ffffffffffffffffffffffffffffffffffffffff1663466f98e833836040518363ffffffff1660e01b8152600401610da09291906130b4565b60206040518083038186803b158015610db857600080fd5b505afa158015610dcc573d6000803e3d6000fd5b505050506040513d601f19601f82011682018060405250810190610df091906129ee565b155b610e31576040517f08c379a0000000000000000000000000000000000000000000000000000000008152600401610e289061322f565b60405180910390fd5b6000600160009054906101000a900473ffffffffffffffffffffffffffffffffffffffff1673ffffffffffffffffffffffffffffffffffffffff16636957a0b26040518163ffffffff1660e01b8152600401610e8c9061318f565b60206040518083038186803b158015610ea457600080fd5b505afa158015610eb8573d6000803e3d6000fd5b505050506040513d601f19601f82011682018060405250810190610edc91906129c5565b90508073ffffffffffffffffffffffffffffffffffffffff166323b872dd3360066000876dffffffffffffffffffffffffffff166dffffffffffffffffffffffffffff16815260200190815260200160002060009054906101000a900473ffffffffffffffffffffffffffffffffffffffff1660056000886dffffffffffffffffffffffffffff166dffffffffffffffffffffffffffff168152602001908152602001600020546040518463ffffffff1660e01b8152600401610fa19392919061307d565b602060405180830381600087803b158015610fbb57600080fd5b505af1158015610fcf573d6000803e3d6000fd5b505050506040513d601f19601f82011682018060405250810190610ff391906129ee565b50611018836dffffffffffffffffffffffffffff16600361245490919063ffffffff16565b5061107a836dffffffffffffffffffffffffffff16600760003373ffffffffffffffffffffffffffffffffffffffff1673ffffffffffffffffffffffffffffffffffffffff16815260200190815260200160002061245490919063ffffffff16565b506000600160009054906101000a900473ffffffffffffffffffffffffffffffffffffffff1673ffffffffffffffffffffffffffffffffffffffff16636957a0b26040518163ffffffff1660e01b81526004016110d69061320f565b60206040518083038186803b1580156110ee57600080fd5b505afa158015611102573d6000803e3d6000fd5b505050506040513d601f19601f8201168201806040525081019061112691906129c5565b90508073ffffffffffffffffffffffffffffffffffffffff166323b872dd3033876040518463ffffffff1660e01b815260040161116593929190613046565b600060405180830381600087803b15801561117f57600080fd5b505af1158015611193573d6000803e3d6000fd5b505050506000600160009054906101000a900473ffffffffffffffffffffffffffffffffffffffff1673ffffffffffffffffffffffffffffffffffffffff16636957a0b26040518163ffffffff1660e01b81526004016111f2906131ef565b60206040518083038186803b15801561120a57600080fd5b505afa15801561121e573d6000803e3d6000fd5b505050506040513d601f19601f8201168201806040525081019061124291906129c5565b90508073ffffffffffffffffffffffffffffffffffffffff1663deea96073033886040518463ffffffff1660e01b81526004016112819392919061300f565b600060405180830381600087803b15801561129b57600080fd5b505af11580156112af573d6000803e3d6000fd5b5050505060056000866dffffffffffffffffffffffffffff166dffffffffffffffffffffffffffff1681526020019081526020016000206000905560066000866dffffffffffffffffffffffffffff166dffffffffffffffffffffffffffff16815260200190815260200160002060006101000a81549073ffffffffffffffffffffffffffffffffffffffff02191690555050505050565b61134f61246e565b73ffffffffffffffffffffffffffffffffffffffff1661136d611839565b73ffffffffffffffffffffffffffffffffffffffff16146113c3576040517f08c379a00000000000000000000000000000000000000000000000000000000081526004016113ba906131af565b60405180910390fd5b600073ffffffffffffffffffffffffffffffffffffffff1660008054906101000a900473ffffffffffffffffffffffffffffffffffffffff1673ffffffffffffffffffffffffffffffffffffffff167f8be0079c531659141344cd1fd0a4f28419497f9722a3daafe3b4186f6b6457e060405160405180910390a360008060006101000a81548173ffffffffffffffffffffffffffffffffffffffff021916908373ffffffffffffffffffffffffffffffffffffffff160217905550565b606060006114cc600760008573ffffffffffffffffffffffffffffffffffffffff1673ffffffffffffffffffffffffffffffffffffffff168152602001908152602001600020612476565b90508067ffffffffffffffff81111561150e577f4e487b7100000000000000000000000000000000000000000000000000000000600052604160045260246000fd5b60405190808252806020026020018201604052801561154757816020015b611534612787565b81526020019060019003908161152c5790505b50915060005b818110156117725760006115a882600760008873ffffffffffffffffffffffffffffffffffffffff1673ffffffffffffffffffffffffffffffffffffffff16815260200190815260200160002061248b90919063ffffffff16565b905073__NftLibrary____________________________6347d9b14d826040518263ffffffff1660e01b81526004016115e1919061324f565b60c06040518083038186803b1580156115f957600080fd5b505af415801561160d573d6000803e3d6000fd5b505050506040513d601f19601f820116820180604052508101906116319190612aac565b84838151811061166a577f4e487b7100000000000000000000000000000000000000000000000000000000600052603260045260246000fd5b6020026020010181905250808483815181106116af577f4e487b7100000000000000000000000000000000000000000000000000000000600052603260045260246000fd5b602002602001015160a001906dffffffffffffffffffffffffffff1690816dffffffffffffffffffffffffffff168152505060056000826dffffffffffffffffffffffffffff166dffffffffffffffffffffffffffff1681526020019081526020016000205484838151811061174e577f4e487b7100000000000000000000000000000000000000000000000000000000600052603260045260246000fd5b6020026020010151608001818152505050808061176a906134e0565b91505061154d565b5050919050565b61178161246e565b73ffffffffffffffffffffffffffffffffffffffff1661179f611839565b73ffffffffffffffffffffffffffffffffffffffff16146117f5576040517f08c379a00000000000000000000000000000000000000000000000000000000081526004016117ec906131af565b60405180910390fd5b80600160006101000a81548173ffffffffffffffffffffffffffffffffffffffff021916908373ffffffffffffffffffffffffffffffffffffffff16021790555050565b60008060009054906101000a900473ffffffffffffffffffffffffffffffffffffffff16905090565b606060006118706003612476565b90508067ffffffffffffffff8111156118b2577f4e487b7100000000000000000000000000000000000000000000000000000000600052604160045260246000fd5b6040519080825280602002602001820160405280156118eb57816020015b6118d8612787565b8152602001906001900390816118d05790505b50915060005b81811015611ad957600061190f82600361248b90919063ffffffff16565b905073__NftLibrary____________________________6347d9b14d826040518263ffffffff1660e01b8152600401611948919061324f565b60c06040518083038186803b15801561196057600080fd5b505af4158015611974573d6000803e3d6000fd5b505050506040513d601f19601f820116820180604052508101906119989190612aac565b8483815181106119d1577f4e487b7100000000000000000000000000000000000000000000000000000000600052603260045260246000fd5b602002602001018190525080848381518110611a16577f4e487b7100000000000000000000000000000000000000000000000000000000600052603260045260246000fd5b602002602001015160a001906dffffffffffffffffffffffffffff1690816dffffffffffffffffffffffffffff168152505060056000826dffffffffffffffffffffffffffff166dffffffffffffffffffffffffffff16815260200190815260200160002054848381518110611ab5577f4e487b7100000000000000000000000000000000000000000000000000000000600052603260045260246000fd5b60200260200101516080018181525050508080611ad1906134e0565b9150506118f1565b505090565b600160009054906101000a900473ffffffffffffffffffffffffffffffffffffffff1681565b6040518060400160405280600681526020017f4e46545055540000000000000000000000000000000000000000000000000000815250600160009054906101000a900473ffffffffffffffffffffffffffffffffffffffff1673ffffffffffffffffffffffffffffffffffffffff1663466f98e860006040518263ffffffff1660e01b8152600401611b9691906130e4565b60206040518083038186803b158015611bae57600080fd5b505afa158015611bc2573d6000803e3d6000fd5b505050506040513d601f19601f82011682018060405250810190611be691906129ee565b1580611c9d5750600160009054906101000a900473ffffffffffffffffffffffffffffffffffffffff1673ffffffffffffffffffffffffffffffffffffffff1663466f98e86000836040518363ffffffff1660e01b8152600401611c4b9291906130b4565b60206040518083038186803b158015611c6357600080fd5b505afa158015611c77573d6000803e3d6000fd5b505050506040513d601f19601f82011682018060405250810190611c9b91906129ee565b155b80611d505750600160009054906101000a900473ffffffffffffffffffffffffffffffffffffffff1673ffffffffffffffffffffffffffffffffffffffff1663466f98e8336040518263ffffffff1660e01b8152600401611cfe91906130e4565b60206040518083038186803b158015611d1657600080fd5b505afa158015611d2a573d6000803e3d6000fd5b505050506040513d601f19601f82011682018060405250810190611d4e91906129ee565b155b80611e055750600160009054906101000a900473ffffffffffffffffffffffffffffffffffffffff1673ffffffffffffffffffffffffffffffffffffffff1663466f98e833836040518363ffffffff1660e01b8152600401611db39291906130b4565b60206040518083038186803b158015611dcb57600080fd5b505afa158015611ddf573d6000803e3d6000fd5b505050506040513d601f19601f82011682018060405250810190611e0391906129ee565b155b611e44576040517f08c379a0000000000000000000000000000000000000000000000000000000008152600401611e3b9061322f565b60405180910390fd5b6000600160009054906101000a900473ffffffffffffffffffffffffffffffffffffffff1673ffffffffffffffffffffffffffffffffffffffff16636957a0b26040518163ffffffff1660e01b8152600401611e9f9061320f565b60206040518083038186803b158015611eb757600080fd5b505afa158015611ecb573d6000803e3d6000fd5b505050506040513d601f19601f82011682018060405250810190611eef91906129c5565b90508073ffffffffffffffffffffffffffffffffffffffff16636352211e856040518263ffffffff1660e01b8152600401611f2a919061326a565b60206040518083038186803b158015611f4257600080fd5b505afa158015611f56573d6000803e3d6000fd5b505050506040513d601f19601f82011682018060405250810190611f7a91906129c5565b73ffffffffffffffffffffffffffffffffffffffff163373ffffffffffffffffffffffffffffffffffffffff1614611fe7576040517f08c379a0000000000000000000000000000000000000000000000000000000008152600401611fde906131cf565b60405180910390fd5b61200b846dffffffffffffffffffffffffffff1660036124a590919063ffffffff16565b508260056000866dffffffffffffffffffffffffffff166dffffffffffffffffffffffffffff168152602001908152602001600020819055506120a5846dffffffffffffffffffffffffffff16600760003373ffffffffffffffffffffffffffffffffffffffff1673ffffffffffffffffffffffffffffffffffffffff1681526020019081526020016000206124a590919063ffffffff16565b503360066000866dffffffffffffffffffffffffffff166dffffffffffffffffffffffffffff16815260200190815260200160002060006101000a81548173ffffffffffffffffffffffffffffffffffffffff021916908373ffffffffffffffffffffffffffffffffffffffff1602179055508073ffffffffffffffffffffffffffffffffffffffff166323b872dd3330876040518463ffffffff1660e01b815260040161215593929190613046565b600060405180830381600087803b15801561216f57600080fd5b505af1158015612183573d6000803e3d6000fd5b505050506000600160009054906101000a900473ffffffffffffffffffffffffffffffffffffffff1673ffffffffffffffffffffffffffffffffffffffff16636957a0b26040518163ffffffff1660e01b81526004016121e2906131ef565b60206040518083038186803b1580156121fa57600080fd5b505afa15801561220e573d6000803e3d6000fd5b505050506040513d601f19601f8201168201806040525081019061223291906129c5565b90508073ffffffffffffffffffffffffffffffffffffffff1663deea9607336000886040518463ffffffff1660e01b81526004016122729392919061300f565b600060405180830381600087803b15801561228c57600080fd5b505af11580156122a0573d6000803e3d6000fd5b505050505050505050565b6122b361246e565b73ffffffffffffffffffffffffffffffffffffffff166122d1611839565b73ffffffffffffffffffffffffffffffffffffffff1614612327576040517f08c379a000000000000000000000000000000000000000000000000000000000815260040161231e906131af565b60405180910390fd5b600073ffffffffffffffffffffffffffffffffffffffff168173ffffffffffffffffffffffffffffffffffffffff161415612397576040517f08c379a000000000000000000000000000000000000000000000000000000000815260040161238e9061316f565b60405180910390fd5b8073ffffffffffffffffffffffffffffffffffffffff1660008054906101000a900473ffffffffffffffffffffffffffffffffffffffff1673ffffffffffffffffffffffffffffffffffffffff167f8be0079c531659141344cd1fd0a4f28419497f9722a3daafe3b4186f6b6457e060405160405180910390a3806000806101000a81548173ffffffffffffffffffffffffffffffffffffffff021916908373ffffffffffffffffffffffffffffffffffffffff16021790555050565b6000612466836000018360001b6124bf565b905092915050565b600033905090565b600061248482600001612649565b9050919050565b600061249a836000018361265a565b60001c905092915050565b60006124b7836000018360001b6126f4565b905092915050565b6000808360010160008481526020019081526020016000205490506000811461263d5760006001826124f191906133b7565b905060006001866000018054905061250991906133b7565b90506000866000018281548110612549577f4e487b7100000000000000000000000000000000000000000000000000000000600052603260045260246000fd5b9060005260206000200154905080876000018481548110612593577f4e487b7100000000000000000000000000000000000000000000000000000000600052603260045260246000fd5b90600052602060002001819055506001836125ae9190613361565b8760010160008381526020019081526020016000208190555086600001805480612601577f4e487b7100000000000000000000000000000000000000000000000000000000600052603160045260246000fd5b60019003818190600052602060002001600090559055866001016000878152602001908152602001600020600090556001945050505050612643565b60009150505b92915050565b600081600001805490509050919050565b6000818360000180549050116126a5576040517f08c379a000000000000000000000000000000000000000000000000000000000815260040161269c9061314f565b60405180910390fd5b8260000182815481106126e1577f4e487b7100000000000000000000000000000000000000000000000000000000600052603260045260246000fd5b9060005260206000200154905092915050565b60006127008383612764565b61275957826000018290806001815401808255809150506001900390600052602060002001600090919091909150558260000180549050836001016000848152602001908152602001600020819055506001905061275e565b600090505b92915050565b600080836001016000848152602001908152602001600020541415905092915050565b6040518060c00160405280600060ff168152602001600061ffff168152602001600060ff168152602001600061ffff1681526020016000815260200160006dffffffffffffffffffffffffffff1681525090565b60006127ee6127e9846132d1565b6132a0565b90508281526020810184848401111561280657600080fd5b61281184828561349e565b509392505050565b60008135905061282881613598565b92915050565b60008151905061283d81613598565b92915050565b600081519050612852816135af565b92915050565b600082601f83011261286957600080fd5b81356128798482602086016127db565b91505092915050565b600060c0828403121561289457600080fd5b61289e60c06132a0565b905060006128ae84828501612987565b60008301525060206128c284828501612948565b60208301525060406128d684828501612987565b60408301525060606128ea84828501612948565b60608301525060806128fe84828501612972565b60808301525060a061291284828501612933565b60a08301525092915050565b60008135905061292d816135c6565b92915050565b600081519050612942816135c6565b92915050565b600081519050612957816135dd565b92915050565b60008135905061296c816135f4565b92915050565b600081519050612981816135f4565b92915050565b6000815190506129968161360b565b92915050565b6000602082840312156129ae57600080fd5b60006129bc84828501612819565b91505092915050565b6000602082840312156129d757600080fd5b60006129e58482850161282e565b91505092915050565b600060208284031215612a0057600080fd5b6000612a0e84828501612843565b91505092915050565b600060208284031215612a2957600080fd5b600082013567ffffffffffffffff811115612a4357600080fd5b612a4f84828501612858565b91505092915050565b60008060408385031215612a6b57600080fd5b600083013567ffffffffffffffff811115612a8557600080fd5b612a9185828601612858565b9250506020612aa28582860161295d565b9150509250929050565b600060c08284031215612abe57600080fd5b6000612acc84828501612882565b91505092915050565b600060208284031215612ae757600080fd5b6000612af58482850161291e565b91505092915050565b60008060408385031215612b1157600080fd5b6000612b1f8582860161291e565b9250506020612b308582860161295d565b9150509250929050565b6000612b468383612eea565b60c08301905092915050565b612b5b816133eb565b82525050565b6000612b6c82613311565b612b768185613334565b9350612b8183613301565b8060005b83811015612bb2578151612b998882612b3a565b9750612ba483613327565b925050600181019050612b85565b5085935050505092915050565b612bc881613468565b82525050565b6000612bd98261331c565b612be38185613345565b9350612bf38185602086016134ad565b612bfc81613587565b840191505092915050565b6000612c128261331c565b612c1c8185613356565b9350612c2c8185602086016134ad565b80840191505092915050565b6000612c45602283613345565b91507f456e756d657261626c655365743a20696e646578206f7574206f6620626f756e60008301527f64730000000000000000000000000000000000000000000000000000000000006020830152604082019050919050565b6000612cab602683613345565b91507f4f776e61626c653a206e6577206f776e657220697320746865207a65726f206160008301527f64647265737300000000000000000000000000000000000000000000000000006020830152604082019050919050565b6000612d11600583613345565b91507f544f4b454e0000000000000000000000000000000000000000000000000000006000830152602082019050919050565b6000612d51602083613345565b91507f4f776e61626c653a2063616c6c6572206973206e6f7420746865206f776e65726000830152602082019050919050565b6000612d91601583613345565b91507f45584348414e47453a204f6e6c79206f6e7765722e00000000000000000000006000830152602082019050919050565b6000612dd1600a83613345565b91507f43415244524557415244000000000000000000000000000000000000000000006000830152602082019050919050565b6000612e11600383613345565b91507f414c4c00000000000000000000000000000000000000000000000000000000006000830152602082019050919050565b6000612e51600783613345565b91507f46494748544552000000000000000000000000000000000000000000000000006000830152602082019050919050565b6000612e91602483613345565b91507f4d656d6265723a20546865206f7065726174696f6e206973206e6f7420616c6c60008301527f6f776564000000000000000000000000000000000000000000000000000000006020830152604082019050919050565b60c082016000820151612f006000850182612fce565b506020820151612f136020850182612fa1565b506040820151612f266040850182612fce565b506060820151612f396060850182612fa1565b506080820151612f4c6080850182612fb0565b5060a0820151612f5f60a0850182612f65565b50505050565b612f6e81613409565b82525050565b612f7d81613409565b82525050565b612f8c81613409565b82525050565b612f9b8161348c565b82525050565b612faa81613423565b82525050565b612fb981613451565b82525050565b612fc881613451565b82525050565b612fd78161345b565b82525050565b6000612fe98284612c07565b915081905092915050565b60006020820190506130096000830184612b52565b92915050565b60006060820190506130246000830186612b52565b6130316020830185612b52565b61303e6040830184612f74565b949350505050565b600060608201905061305b6000830186612b52565b6130686020830185612b52565b6130756040830184612f92565b949350505050565b60006060820190506130926000830186612b52565b61309f6020830185612b52565b6130ac6040830184612fbf565b949350505050565b60006040820190506130c96000830185612b52565b81810360208301526130db8184612bce565b90509392505050565b60006040820190506130f96000830184612b52565b818103602083015261310a81612e04565b905092915050565b6000602082019050818103600083015261312c8184612b61565b905092915050565b60006020820190506131496000830184612bbf565b92915050565b6000602082019050818103600083015261316881612c38565b9050919050565b6000602082019050818103600083015261318881612c9e565b9050919050565b600060208201905081810360008301526131a881612d04565b9050919050565b600060208201905081810360008301526131c881612d44565b9050919050565b600060208201905081810360008301526131e881612d84565b9050919050565b6000602082019050818103600083015261320881612dc4565b9050919050565b6000602082019050818103600083015261322881612e44565b9050919050565b6000602082019050818103600083015261324881612e84565b9050919050565b60006020820190506132646000830184612f83565b92915050565b600060208201905061327f6000830184612f92565b92915050565b600060208201905061329a6000830184612fbf565b92915050565b6000604051905081810181811067ffffffffffffffff821117156132c7576132c6613558565b5b8060405250919050565b600067ffffffffffffffff8211156132ec576132eb613558565b5b601f19601f8301169050602081019050919050565b6000819050602082019050919050565b600081519050919050565b600081519050919050565b6000602082019050919050565b600082825260208201905092915050565b600082825260208201905092915050565b600081905092915050565b600061336c82613451565b915061337783613451565b9250827fffffffffffffffffffffffffffffffffffffffffffffffffffffffffffffffff038211156133ac576133ab613529565b5b828201905092915050565b60006133c282613451565b91506133cd83613451565b9250828210156133e0576133df613529565b5b828203905092915050565b60006133f682613431565b9050919050565b60008115159050919050565b60006dffffffffffffffffffffffffffff82169050919050565b600061ffff82169050919050565b600073ffffffffffffffffffffffffffffffffffffffff82169050919050565b6000819050919050565b600060ff82169050919050565b60006134738261347a565b9050919050565b600061348582613431565b9050919050565b600061349782613409565b9050919050565b82818337600083830152505050565b60005b838110156134cb5780820151818401526020810190506134b0565b838111156134da576000848401525b50505050565b60006134eb82613451565b91507fffffffffffffffffffffffffffffffffffffffffffffffffffffffffffffffff82141561351e5761351d613529565b5b600182019050919050565b7f4e487b7100000000000000000000000000000000000000000000000000000000600052601160045260246000fd5b7f4e487b7100000000000000000000000000000000000000000000000000000000600052604160045260246000fd5b6000601f19601f8301169050919050565b6135a1816133eb565b81146135ac57600080fd5b50565b6135b8816133fd565b81146135c357600080fd5b50565b6135cf81613409565b81146135da57600080fd5b50565b6135e681613423565b81146135f157600080fd5b50565b6135fd81613451565b811461360857600080fd5b50565b6136148161345b565b811461361f57600080fd5b5056fea264697066735822122085d3a2624eae1a32e361b7c02f8acdfffb83c12fe8c2fe0ecfde9624af10322a64736f6c63430008000033",
  "immutableReferences": {},
  "source": "// SPDX-License-Identifier: SimPL-2.0\n\npragma solidity ^0.8.0;\n\nimport \"../core/CardReward.sol\";\nimport \"../libraries/NftLibrary.sol\";\n\nimport \"@openzeppelin/contracts/token/ERC20/IERC20.sol\";\nimport \"@openzeppelin/contracts/token/ERC721/IERC721.sol\";\nimport \"@openzeppelin/contracts/utils/structs/EnumerableSet.sol\";\n\n/**\n * @title U Box Sea - ERC721\n *\n * @author Bit Lighthouse. Ace\n * AT: 2021-3-28 | VERSION: v1.0.2\n */\n\ncontract Exchange is Member {\n    using SafeMath for uint256;\n    using EnumerableSet for EnumerableSet.UintSet;\n\n    EnumerableSet.UintSet private _tokens;\n    mapping (uint112 => uint256) private _amounts;\n    mapping (uint112 => address) private _owners;\n    mapping (address => EnumerableSet.UintSet) private _my;\n\n    constructor(address auth_) Member(auth_) { }\n\n    function getExchangeList() public view \n        returns (NftLibrary.DetailStruct[] memory list) {\n\n        uint256 len = _tokens.length();\n        list = new NftLibrary.DetailStruct[](len);\n\n        for (uint i = 0; i < len; i++) {\n            uint112 tokenId = uint112(_tokens.at(i));\n            list[i] = NftLibrary.analysis(tokenId);\n            list[i].tokenId = tokenId;\n            list[i].amount = _amounts[tokenId];\n        }\n    }\n\n    function getMyExchangeList(address account_) public view \n        returns (NftLibrary.DetailStruct[] memory list) {\n\n        uint256 len = _my[account_].length();\n        list = new NftLibrary.DetailStruct[](len);\n\n        for (uint i = 0; i < len; i++) {\n            uint112 tokenId = uint112(_my[account_].at(i));\n            list[i] = NftLibrary.analysis(tokenId);\n            list[i].tokenId = tokenId;\n            list[i].amount = _amounts[tokenId];\n        }\n    }\n\n    function put(uint112 tokenId_, uint256 amount) public\n        CheckStatus(\"NFTPUT\"){\n\n        IERC721 figh = IERC721(authority.members(\"FIGHTER\"));\n        require(\n            msg.sender == figh.ownerOf(tokenId_),\n            \"EXCHANGE: Only onwer.\"\n        );\n\n        _tokens.add(tokenId_); _amounts[tokenId_] = amount;\n        _my[msg.sender].add(tokenId_); _owners[tokenId_] = msg.sender;\n        figh.transferFrom(msg.sender, address(this), tokenId_);\n        CardReward cr = CardReward(authority.members(\"CARDREWARD\"));\n        cr.doExchange(msg.sender, address(0), tokenId_);\n    }\n\n    function pull(uint112 tokenId_) public CheckStatus(\"NFTPULL\"){\n        require(\n            msg.sender == _owners[tokenId_],\n            \"EXCHANGE: Only onwer.\"\n        );\n\n        _tokens.remove(tokenId_);\n        _my[msg.sender].remove(tokenId_);\n        IERC721 figh = IERC721(authority.members(\"FIGHTER\"));\n        figh.transferFrom(address(this), msg.sender, tokenId_);\n        CardReward cr = CardReward(authority.members(\"CARDREWARD\"));\n        cr.doExchange(address(0), msg.sender, tokenId_);\n\n        delete _amounts[tokenId_]; delete _owners[tokenId_];\n    }\n    \n    function buy(uint112 tokenId_) public CheckStatus(\"NFTBUY\") {\n        IERC20 token = IERC20(authority.members(\"TOKEN\"));\n        token.transferFrom(msg.sender, _owners[tokenId_], _amounts[tokenId_]);\n\n        _tokens.remove(tokenId_);\n        _my[msg.sender].remove(tokenId_);\n        IERC721 figh = IERC721(authority.members(\"FIGHTER\"));\n        figh.transferFrom(address(this), msg.sender, tokenId_);\n        CardReward cr = CardReward(authority.members(\"CARDREWARD\"));\n        cr.doExchange(address(this), msg.sender, tokenId_);\n\n        delete _amounts[tokenId_]; delete _owners[tokenId_];\n    }\n}",
  "sourcePath": "/home/ace/Projects/eth/other/dragon-ball-project/dragon-ball-contract/contracts/core/Exchange.sol",
  "compiler": {
    "name": "solc",
    "version": "0.8.0+commit.c7dfd78e.Emscripten.clang"
  },
  "schemaVersion": "3.4.3",
  "updatedAt": "2021-09-09T09:34:51.488Z",
  "networkType": "ethereum",
  "devdoc": {
    "author": "Bit Lighthouse. Ace AT: 2021-3-28 | VERSION: v1.0.2",
    "kind": "dev",
    "methods": {
      "owner()": {
        "details": "Returns the address of the current owner."
      },
      "renounceOwnership()": {
        "details": "Leaves the contract without owner. It will not be possible to call `onlyOwner` functions anymore. Can only be called by the current owner. NOTE: Renouncing ownership will leave the contract without an owner, thereby removing any functionality that is only available to the owner."
      },
      "setAuthority(address)": {
        "params": {
          "authority_": "address of manager This function is onwer only"
        }
      },
      "setConfig(string,uint256)": {
        "params": {
          "config_": "config's value This function is config only",
          "name_": "name of config"
        }
      },
      "transferOwnership(address)": {
        "details": "Transfers ownership of the contract to a new account (`newOwner`). Can only be called by the current owner."
      }
    },
    "title": "U Box Sea - ERC721",
    "version": 1
  },
  "userdoc": {
    "kind": "user",
    "methods": {
      "setAuthority(address)": {
        "notice": "Set new manager"
      },
      "setConfig(string,uint256)": {
        "notice": "Set config of global or contract"
      }
    },
    "version": 1
  }
}