{
  "contractName": "Exchange",
  "abi": [
    {
      "inputs": [
        {
          "internalType": "address",
          "name": "auth_",
          "type": "address"
        }
      ],
      "stateMutability": "nonpayable",
      "type": "constructor"
    },
    {
      "anonymous": false,
      "inputs": [
        {
          "indexed": true,
          "internalType": "address",
          "name": "previousOwner",
          "type": "address"
        },
        {
          "indexed": true,
          "internalType": "address",
          "name": "newOwner",
          "type": "address"
        }
      ],
      "name": "OwnershipTransferred",
      "type": "event"
    },
    {
      "inputs": [],
      "name": "authority",
      "outputs": [
        {
          "internalType": "contract Authority",
          "name": "",
          "type": "address"
        }
      ],
      "stateMutability": "view",
      "type": "function"
    },
    {
      "inputs": [
        {
          "internalType": "string",
          "name": "",
          "type": "string"
        }
      ],
      "name": "configs",
      "outputs": [
        {
          "internalType": "uint256",
          "name": "",
          "type": "uint256"
        }
      ],
      "stateMutability": "view",
      "type": "function"
    },
    {
      "inputs": [],
      "name": "owner",
      "outputs": [
        {
          "internalType": "address",
          "name": "",
          "type": "address"
        }
      ],
      "stateMutability": "view",
      "type": "function"
    },
    {
      "inputs": [],
      "name": "renounceOwnership",
      "outputs": [],
      "stateMutability": "nonpayable",
      "type": "function"
    },
    {
      "inputs": [
        {
          "internalType": "address",
          "name": "authority_",
          "type": "address"
        }
      ],
      "name": "setAuthority",
      "outputs": [],
      "stateMutability": "nonpayable",
      "type": "function"
    },
    {
      "inputs": [
        {
          "internalType": "string",
          "name": "name_",
          "type": "string"
        },
        {
          "internalType": "uint256",
          "name": "config_",
          "type": "uint256"
        }
      ],
      "name": "setConfig",
      "outputs": [],
      "stateMutability": "nonpayable",
      "type": "function"
    },
    {
      "inputs": [
        {
          "internalType": "address",
          "name": "newOwner",
          "type": "address"
        }
      ],
      "name": "transferOwnership",
      "outputs": [],
      "stateMutability": "nonpayable",
      "type": "function"
    },
    {
      "inputs": [],
      "name": "getExchangeList",
      "outputs": [
        {
          "components": [
            {
              "internalType": "uint8",
              "name": "quality",
              "type": "uint8"
            },
            {
              "internalType": "uint16",
              "name": "heroId",
              "type": "uint16"
            },
            {
              "internalType": "uint16",
              "name": "rate",
              "type": "uint16"
            },
            {
              "internalType": "uint256",
              "name": "amount",
              "type": "uint256"
            },
            {
              "internalType": "uint112",
              "name": "tokenId",
              "type": "uint112"
            }
          ],
          "internalType": "struct NftLibrary.DetailStruct[]",
          "name": "list",
          "type": "tuple[]"
        }
      ],
      "stateMutability": "view",
      "type": "function"
    },
    {
      "inputs": [
        {
          "internalType": "uint112",
          "name": "tokenId_",
          "type": "uint112"
        },
        {
          "internalType": "uint256",
          "name": "amount",
          "type": "uint256"
        }
      ],
      "name": "put",
      "outputs": [],
      "stateMutability": "nonpayable",
      "type": "function"
    },
    {
      "inputs": [
        {
          "internalType": "uint112",
          "name": "tokenId_",
          "type": "uint112"
        }
      ],
      "name": "pull",
      "outputs": [],
      "stateMutability": "nonpayable",
      "type": "function"
    },
    {
      "inputs": [
        {
          "internalType": "uint112",
          "name": "tokenId_",
          "type": "uint112"
        }
      ],
      "name": "buy",
      "outputs": [],
      "stateMutability": "nonpayable",
      "type": "function"
    }
  ],
  "bytecode": "0x60806040523480156200001157600080fd5b506040516200337e3803806200337e833981810160405281019062000037919062000150565b8060006200004a6200013160201b60201c565b9050806000806101000a81548173ffffffffffffffffffffffffffffffffffffffff021916908373ffffffffffffffffffffffffffffffffffffffff1602179055508073ffffffffffffffffffffffffffffffffffffffff16600073ffffffffffffffffffffffffffffffffffffffff167f8be0079c531659141344cd1fd0a4f28419497f9722a3daafe3b4186f6b6457e060405160405180910390a35080600160006101000a81548173ffffffffffffffffffffffffffffffffffffffff021916908373ffffffffffffffffffffffffffffffffffffffff1602179055505050620001ca565b600033905090565b6000815190506200014a81620001b0565b92915050565b6000602082840312156200016357600080fd5b6000620001738482850162000139565b91505092915050565b6000620001898262000190565b9050919050565b600073ffffffffffffffffffffffffffffffffffffffff82169050919050565b620001bb816200017c565b8114620001c757600080fd5b50565b6131a480620001da6000396000f3fe608060405234801561001057600080fd5b50600436106100a95760003560e01c80637a9e5e4b116100715780637a9e5e4b1461013c5780638da5cb5b146101585780639130e18214610176578063bf7e214f14610194578063c782ca43146101b2578063f2fde38b146101ce576100a9565b80633e8f5b90146100ae5780634d01d98d146100ca5780635ef7fbad146100e65780636b143dec14610116578063715018a614610132575b600080fd5b6100c860048036038101906100c391906125b7565b6101ea565b005b6100e460048036038101906100df9190612634565b610334565b005b61010060048036038101906100fb9190612576565b610a26565b60405161010d9190612dd1565b60405180910390f35b610130600480360381019061012b9190612634565b610a54565b005b61013a61129b565b005b610156600480360381019061015191906124fb565b6113d5565b005b610160611495565b60405161016d9190612b40565b60405180910390f35b61017e6114be565b60405161018b9190612c5e565b60405180910390f35b61019c6116bd565b6040516101a99190612c80565b60405180910390f35b6101cc60048036038101906101c7919061265d565b6116e3565b005b6101e860048036038101906101e391906124fb565b611e28565b005b6040518060400160405280600681526020017f434f4e4649470000000000000000000000000000000000000000000000000000815250600160009054906101000a900473ffffffffffffffffffffffffffffffffffffffff1673ffffffffffffffffffffffffffffffffffffffff1663f5e65c7233836040518363ffffffff1660e01b815260040161027d929190612c00565b60206040518083038186803b15801561029557600080fd5b505afa1580156102a9573d6000803e3d6000fd5b505050506040513d601f19601f820116820180604052508101906102cd919061254d565b61030c576040517f08c379a000000000000000000000000000000000000000000000000000000000815260040161030390612d7b565b60405180910390fd5b8160028460405161031d9190612b29565b908152602001604051809103902081905550505050565b6040518060400160405280600781526020017f4e465450554c4c00000000000000000000000000000000000000000000000000815250600160009054906101000a900473ffffffffffffffffffffffffffffffffffffffff1673ffffffffffffffffffffffffffffffffffffffff1663466f98e860006040518263ffffffff1660e01b81526004016103c69190612c30565b60206040518083038186803b1580156103de57600080fd5b505afa1580156103f2573d6000803e3d6000fd5b505050506040513d601f19601f82011682018060405250810190610416919061254d565b15806104cd5750600160009054906101000a900473ffffffffffffffffffffffffffffffffffffffff1673ffffffffffffffffffffffffffffffffffffffff1663466f98e86000836040518363ffffffff1660e01b815260040161047b929190612c00565b60206040518083038186803b15801561049357600080fd5b505afa1580156104a7573d6000803e3d6000fd5b505050506040513d601f19601f820116820180604052508101906104cb919061254d565b155b806105805750600160009054906101000a900473ffffffffffffffffffffffffffffffffffffffff1673ffffffffffffffffffffffffffffffffffffffff1663466f98e8336040518263ffffffff1660e01b815260040161052e9190612c30565b60206040518083038186803b15801561054657600080fd5b505afa15801561055a573d6000803e3d6000fd5b505050506040513d601f19601f8201168201806040525081019061057e919061254d565b155b806106355750600160009054906101000a900473ffffffffffffffffffffffffffffffffffffffff1673ffffffffffffffffffffffffffffffffffffffff1663466f98e833836040518363ffffffff1660e01b81526004016105e3929190612c00565b60206040518083038186803b1580156105fb57600080fd5b505afa15801561060f573d6000803e3d6000fd5b505050506040513d601f19601f82011682018060405250810190610633919061254d565b155b610674576040517f08c379a000000000000000000000000000000000000000000000000000000000815260040161066b90612d7b565b60405180910390fd5b60066000836dffffffffffffffffffffffffffff166dffffffffffffffffffffffffffff16815260200190815260200160002060009054906101000a900473ffffffffffffffffffffffffffffffffffffffff1673ffffffffffffffffffffffffffffffffffffffff163373ffffffffffffffffffffffffffffffffffffffff1614610735576040517f08c379a000000000000000000000000000000000000000000000000000000000815260040161072c90612d1b565b60405180910390fd5b610759826dffffffffffffffffffffffffffff166003611fd190919063ffffffff16565b506000600160009054906101000a900473ffffffffffffffffffffffffffffffffffffffff1673ffffffffffffffffffffffffffffffffffffffff16636957a0b26040518163ffffffff1660e01b81526004016107b590612d5b565b60206040518083038186803b1580156107cd57600080fd5b505afa1580156107e1573d6000803e3d6000fd5b505050506040513d601f19601f820116820180604052508101906108059190612524565b90508073ffffffffffffffffffffffffffffffffffffffff166323b872dd3033866040518463ffffffff1660e01b815260040161084493929190612b92565b600060405180830381600087803b15801561085e57600080fd5b505af1158015610872573d6000803e3d6000fd5b505050506000600160009054906101000a900473ffffffffffffffffffffffffffffffffffffffff1673ffffffffffffffffffffffffffffffffffffffff16636957a0b26040518163ffffffff1660e01b81526004016108d190612d3b565b60206040518083038186803b1580156108e957600080fd5b505afa1580156108fd573d6000803e3d6000fd5b505050506040513d601f19601f820116820180604052508101906109219190612524565b90508073ffffffffffffffffffffffffffffffffffffffff1663deea9607600033876040518463ffffffff1660e01b815260040161096193929190612b5b565b600060405180830381600087803b15801561097b57600080fd5b505af115801561098f573d6000803e3d6000fd5b5050505060056000856dffffffffffffffffffffffffffff166dffffffffffffffffffffffffffff1681526020019081526020016000206000905560066000856dffffffffffffffffffffffffffff166dffffffffffffffffffffffffffff16815260200190815260200160002060006101000a81549073ffffffffffffffffffffffffffffffffffffffff021916905550505050565b6002818051602081018201805184825260208301602085012081835280955050505050506000915090505481565b6040518060400160405280600681526020017f4e46544255590000000000000000000000000000000000000000000000000000815250600160009054906101000a900473ffffffffffffffffffffffffffffffffffffffff1673ffffffffffffffffffffffffffffffffffffffff1663466f98e860006040518263ffffffff1660e01b8152600401610ae69190612c30565b60206040518083038186803b158015610afe57600080fd5b505afa158015610b12573d6000803e3d6000fd5b505050506040513d601f19601f82011682018060405250810190610b36919061254d565b1580610bed5750600160009054906101000a900473ffffffffffffffffffffffffffffffffffffffff1673ffffffffffffffffffffffffffffffffffffffff1663466f98e86000836040518363ffffffff1660e01b8152600401610b9b929190612c00565b60206040518083038186803b158015610bb357600080fd5b505afa158015610bc7573d6000803e3d6000fd5b505050506040513d601f19601f82011682018060405250810190610beb919061254d565b155b80610ca05750600160009054906101000a900473ffffffffffffffffffffffffffffffffffffffff1673ffffffffffffffffffffffffffffffffffffffff1663466f98e8336040518263ffffffff1660e01b8152600401610c4e9190612c30565b60206040518083038186803b158015610c6657600080fd5b505afa158015610c7a573d6000803e3d6000fd5b505050506040513d601f19601f82011682018060405250810190610c9e919061254d565b155b80610d555750600160009054906101000a900473ffffffffffffffffffffffffffffffffffffffff1673ffffffffffffffffffffffffffffffffffffffff1663466f98e833836040518363ffffffff1660e01b8152600401610d03929190612c00565b60206040518083038186803b158015610d1b57600080fd5b505afa158015610d2f573d6000803e3d6000fd5b505050506040513d601f19601f82011682018060405250810190610d53919061254d565b155b610d94576040517f08c379a0000000000000000000000000000000000000000000000000000000008152600401610d8b90612d7b565b60405180910390fd5b6000600160009054906101000a900473ffffffffffffffffffffffffffffffffffffffff1673ffffffffffffffffffffffffffffffffffffffff16636957a0b26040518163ffffffff1660e01b8152600401610def90612cdb565b60206040518083038186803b158015610e0757600080fd5b505afa158015610e1b573d6000803e3d6000fd5b505050506040513d601f19601f82011682018060405250810190610e3f9190612524565b90508073ffffffffffffffffffffffffffffffffffffffff166323b872dd3360066000876dffffffffffffffffffffffffffff166dffffffffffffffffffffffffffff16815260200190815260200160002060009054906101000a900473ffffffffffffffffffffffffffffffffffffffff1660056000886dffffffffffffffffffffffffffff166dffffffffffffffffffffffffffff168152602001908152602001600020546040518463ffffffff1660e01b8152600401610f0493929190612bc9565b602060405180830381600087803b158015610f1e57600080fd5b505af1158015610f32573d6000803e3d6000fd5b505050506040513d601f19601f82011682018060405250810190610f56919061254d565b50610f7b836dffffffffffffffffffffffffffff166003611fd190919063ffffffff16565b506000600160009054906101000a900473ffffffffffffffffffffffffffffffffffffffff1673ffffffffffffffffffffffffffffffffffffffff16636957a0b26040518163ffffffff1660e01b8152600401610fd790612d5b565b60206040518083038186803b158015610fef57600080fd5b505afa158015611003573d6000803e3d6000fd5b505050506040513d601f19601f820116820180604052508101906110279190612524565b90508073ffffffffffffffffffffffffffffffffffffffff166323b872dd3033876040518463ffffffff1660e01b815260040161106693929190612b92565b600060405180830381600087803b15801561108057600080fd5b505af1158015611094573d6000803e3d6000fd5b505050506000600160009054906101000a900473ffffffffffffffffffffffffffffffffffffffff1673ffffffffffffffffffffffffffffffffffffffff16636957a0b26040518163ffffffff1660e01b81526004016110f390612d3b565b60206040518083038186803b15801561110b57600080fd5b505afa15801561111f573d6000803e3d6000fd5b505050506040513d601f19601f820116820180604052508101906111439190612524565b90508073ffffffffffffffffffffffffffffffffffffffff1663deea96073060066000896dffffffffffffffffffffffffffff166dffffffffffffffffffffffffffff16815260200190815260200160002060009054906101000a900473ffffffffffffffffffffffffffffffffffffffff16886040518463ffffffff1660e01b81526004016111d593929190612b5b565b600060405180830381600087803b1580156111ef57600080fd5b505af1158015611203573d6000803e3d6000fd5b5050505060056000866dffffffffffffffffffffffffffff166dffffffffffffffffffffffffffff1681526020019081526020016000206000905560066000866dffffffffffffffffffffffffffff166dffffffffffffffffffffffffffff16815260200190815260200160002060006101000a81549073ffffffffffffffffffffffffffffffffffffffff02191690555050505050565b6112a3611feb565b73ffffffffffffffffffffffffffffffffffffffff166112c1611495565b73ffffffffffffffffffffffffffffffffffffffff1614611317576040517f08c379a000000000000000000000000000000000000000000000000000000000815260040161130e90612cfb565b60405180910390fd5b600073ffffffffffffffffffffffffffffffffffffffff1660008054906101000a900473ffffffffffffffffffffffffffffffffffffffff1673ffffffffffffffffffffffffffffffffffffffff167f8be0079c531659141344cd1fd0a4f28419497f9722a3daafe3b4186f6b6457e060405160405180910390a360008060006101000a81548173ffffffffffffffffffffffffffffffffffffffff021916908373ffffffffffffffffffffffffffffffffffffffff160217905550565b6113dd611feb565b73ffffffffffffffffffffffffffffffffffffffff166113fb611495565b73ffffffffffffffffffffffffffffffffffffffff1614611451576040517f08c379a000000000000000000000000000000000000000000000000000000000815260040161144890612cfb565b60405180910390fd5b80600160006101000a81548173ffffffffffffffffffffffffffffffffffffffff021916908373ffffffffffffffffffffffffffffffffffffffff16021790555050565b60008060009054906101000a900473ffffffffffffffffffffffffffffffffffffffff16905090565b606060006114cc6003611ff3565b90508067ffffffffffffffff81111561150e577f4e487b7100000000000000000000000000000000000000000000000000000000600052604160045260246000fd5b60405190808252806020026020018201604052801561154757816020015b611534612304565b81526020019060019003908161152c5790505b50915060005b818110156116b857600061156b82600361200890919063ffffffff16565b905073__NftLibrary____________________________6347d9b14d826040518263ffffffff1660e01b81526004016115a49190612d9b565b60a06040518083038186803b1580156115bc57600080fd5b505af41580156115d0573d6000803e3d6000fd5b505050506040513d601f19601f820116820180604052508101906115f4919061260b565b84838151811061162d577f4e487b7100000000000000000000000000000000000000000000000000000000600052603260045260246000fd5b602002602001018190525080848381518110611672577f4e487b7100000000000000000000000000000000000000000000000000000000600052603260045260246000fd5b6020026020010151608001906dffffffffffffffffffffffffffff1690816dffffffffffffffffffffffffffff16815250505080806116b09061302c565b91505061154d565b505090565b600160009054906101000a900473ffffffffffffffffffffffffffffffffffffffff1681565b6040518060400160405280600681526020017f4e46545055540000000000000000000000000000000000000000000000000000815250600160009054906101000a900473ffffffffffffffffffffffffffffffffffffffff1673ffffffffffffffffffffffffffffffffffffffff1663466f98e860006040518263ffffffff1660e01b81526004016117759190612c30565b60206040518083038186803b15801561178d57600080fd5b505afa1580156117a1573d6000803e3d6000fd5b505050506040513d601f19601f820116820180604052508101906117c5919061254d565b158061187c5750600160009054906101000a900473ffffffffffffffffffffffffffffffffffffffff1673ffffffffffffffffffffffffffffffffffffffff1663466f98e86000836040518363ffffffff1660e01b815260040161182a929190612c00565b60206040518083038186803b15801561184257600080fd5b505afa158015611856573d6000803e3d6000fd5b505050506040513d601f19601f8201168201806040525081019061187a919061254d565b155b8061192f5750600160009054906101000a900473ffffffffffffffffffffffffffffffffffffffff1673ffffffffffffffffffffffffffffffffffffffff1663466f98e8336040518263ffffffff1660e01b81526004016118dd9190612c30565b60206040518083038186803b1580156118f557600080fd5b505afa158015611909573d6000803e3d6000fd5b505050506040513d601f19601f8201168201806040525081019061192d919061254d565b155b806119e45750600160009054906101000a900473ffffffffffffffffffffffffffffffffffffffff1673ffffffffffffffffffffffffffffffffffffffff1663466f98e833836040518363ffffffff1660e01b8152600401611992929190612c00565b60206040518083038186803b1580156119aa57600080fd5b505afa1580156119be573d6000803e3d6000fd5b505050506040513d601f19601f820116820180604052508101906119e2919061254d565b155b611a23576040517f08c379a0000000000000000000000000000000000000000000000000000000008152600401611a1a90612d7b565b60405180910390fd5b6000600160009054906101000a900473ffffffffffffffffffffffffffffffffffffffff1673ffffffffffffffffffffffffffffffffffffffff16636957a0b26040518163ffffffff1660e01b8152600401611a7e90612d5b565b60206040518083038186803b158015611a9657600080fd5b505afa158015611aaa573d6000803e3d6000fd5b505050506040513d601f19601f82011682018060405250810190611ace9190612524565b90508073ffffffffffffffffffffffffffffffffffffffff16636352211e856040518263ffffffff1660e01b8152600401611b099190612db6565b60206040518083038186803b158015611b2157600080fd5b505afa158015611b35573d6000803e3d6000fd5b505050506040513d601f19601f82011682018060405250810190611b599190612524565b73ffffffffffffffffffffffffffffffffffffffff163373ffffffffffffffffffffffffffffffffffffffff1614611bc6576040517f08c379a0000000000000000000000000000000000000000000000000000000008152600401611bbd90612d1b565b60405180910390fd5b611bea846dffffffffffffffffffffffffffff16600361202290919063ffffffff16565b508260056000866dffffffffffffffffffffffffffff166dffffffffffffffffffffffffffff168152602001908152602001600020819055503360066000866dffffffffffffffffffffffffffff166dffffffffffffffffffffffffffff16815260200190815260200160002060006101000a81548173ffffffffffffffffffffffffffffffffffffffff021916908373ffffffffffffffffffffffffffffffffffffffff1602179055508073ffffffffffffffffffffffffffffffffffffffff166323b872dd3330876040518463ffffffff1660e01b8152600401611cd293929190612b92565b600060405180830381600087803b158015611cec57600080fd5b505af1158015611d00573d6000803e3d6000fd5b505050506000600160009054906101000a900473ffffffffffffffffffffffffffffffffffffffff1673ffffffffffffffffffffffffffffffffffffffff16636957a0b26040518163ffffffff1660e01b8152600401611d5f90612d3b565b60206040518083038186803b158015611d7757600080fd5b505afa158015611d8b573d6000803e3d6000fd5b505050506040513d601f19601f82011682018060405250810190611daf9190612524565b90508073ffffffffffffffffffffffffffffffffffffffff1663deea9607336000886040518463ffffffff1660e01b8152600401611def93929190612b5b565b600060405180830381600087803b158015611e0957600080fd5b505af1158015611e1d573d6000803e3d6000fd5b505050505050505050565b611e30611feb565b73ffffffffffffffffffffffffffffffffffffffff16611e4e611495565b73ffffffffffffffffffffffffffffffffffffffff1614611ea4576040517f08c379a0000000000000000000000000000000000000000000000000000000008152600401611e9b90612cfb565b60405180910390fd5b600073ffffffffffffffffffffffffffffffffffffffff168173ffffffffffffffffffffffffffffffffffffffff161415611f14576040517f08c379a0000000000000000000000000000000000000000000000000000000008152600401611f0b90612cbb565b60405180910390fd5b8073ffffffffffffffffffffffffffffffffffffffff1660008054906101000a900473ffffffffffffffffffffffffffffffffffffffff1673ffffffffffffffffffffffffffffffffffffffff167f8be0079c531659141344cd1fd0a4f28419497f9722a3daafe3b4186f6b6457e060405160405180910390a3806000806101000a81548173ffffffffffffffffffffffffffffffffffffffff021916908373ffffffffffffffffffffffffffffffffffffffff16021790555050565b6000611fe3836000018360001b61203c565b905092915050565b600033905090565b6000612001826000016121c6565b9050919050565b600061201783600001836121d7565b60001c905092915050565b6000612034836000018360001b612271565b905092915050565b600080836001016000848152602001908152602001600020549050600081146121ba57600060018261206e9190612f03565b90506000600186600001805490506120869190612f03565b905060008660000182815481106120c6577f4e487b7100000000000000000000000000000000000000000000000000000000600052603260045260246000fd5b9060005260206000200154905080876000018481548110612110577f4e487b7100000000000000000000000000000000000000000000000000000000600052603260045260246000fd5b906000526020600020018190555060018361212b9190612ead565b876001016000838152602001908152602001600020819055508660000180548061217e577f4e487b7100000000000000000000000000000000000000000000000000000000600052603160045260246000fd5b600190038181906000526020600020016000905590558660010160008781526020019081526020016000206000905560019450505050506121c0565b60009150505b92915050565b600081600001805490509050919050565b600081836000018054905011612222576040517f08c379a000000000000000000000000000000000000000000000000000000000815260040161221990612c9b565b60405180910390fd5b82600001828154811061225e577f4e487b7100000000000000000000000000000000000000000000000000000000600052603260045260246000fd5b9060005260206000200154905092915050565b600061227d83836122e1565b6122d65782600001829080600181540180825580915050600190039060005260206000200160009091909190915055826000018054905083600101600084815260200190815260200160002081905550600190506122db565b600090505b92915050565b600080836001016000848152602001908152602001600020541415905092915050565b6040518060a00160405280600060ff168152602001600061ffff168152602001600061ffff1681526020016000815260200160006dffffffffffffffffffffffffffff1681525090565b600061236161235c84612e1d565b612dec565b90508281526020810184848401111561237957600080fd5b612384848285612fea565b509392505050565b60008135905061239b816130e4565b92915050565b6000815190506123b0816130e4565b92915050565b6000815190506123c5816130fb565b92915050565b600082601f8301126123dc57600080fd5b81356123ec84826020860161234e565b91505092915050565b600060a0828403121561240757600080fd5b61241160a0612dec565b90506000612421848285016124e6565b6000830152506020612435848285016124a7565b6020830152506040612449848285016124a7565b604083015250606061245d848285016124d1565b606083015250608061247184828501612492565b60808301525092915050565b60008135905061248c81613112565b92915050565b6000815190506124a181613112565b92915050565b6000815190506124b681613129565b92915050565b6000813590506124cb81613140565b92915050565b6000815190506124e081613140565b92915050565b6000815190506124f581613157565b92915050565b60006020828403121561250d57600080fd5b600061251b8482850161238c565b91505092915050565b60006020828403121561253657600080fd5b6000612544848285016123a1565b91505092915050565b60006020828403121561255f57600080fd5b600061256d848285016123b6565b91505092915050565b60006020828403121561258857600080fd5b600082013567ffffffffffffffff8111156125a257600080fd5b6125ae848285016123cb565b91505092915050565b600080604083850312156125ca57600080fd5b600083013567ffffffffffffffff8111156125e457600080fd5b6125f0858286016123cb565b9250506020612601858286016124bc565b9150509250929050565b600060a0828403121561261d57600080fd5b600061262b848285016123f5565b91505092915050565b60006020828403121561264657600080fd5b60006126548482850161247d565b91505092915050565b6000806040838503121561267057600080fd5b600061267e8582860161247d565b925050602061268f858286016124bc565b9150509250929050565b60006126a58383612a49565b60a08301905092915050565b6126ba81612f37565b82525050565b60006126cb82612e5d565b6126d58185612e80565b93506126e083612e4d565b8060005b838110156127115781516126f88882612699565b975061270383612e73565b9250506001810190506126e4565b5085935050505092915050565b61272781612fb4565b82525050565b600061273882612e68565b6127428185612e91565b9350612752818560208601612ff9565b61275b816130d3565b840191505092915050565b600061277182612e68565b61277b8185612ea2565b935061278b818560208601612ff9565b80840191505092915050565b60006127a4602283612e91565b91507f456e756d657261626c655365743a20696e646578206f7574206f6620626f756e60008301527f64730000000000000000000000000000000000000000000000000000000000006020830152604082019050919050565b600061280a602683612e91565b91507f4f776e61626c653a206e6577206f776e657220697320746865207a65726f206160008301527f64647265737300000000000000000000000000000000000000000000000000006020830152604082019050919050565b6000612870600583612e91565b91507f544f4b454e0000000000000000000000000000000000000000000000000000006000830152602082019050919050565b60006128b0602083612e91565b91507f4f776e61626c653a2063616c6c6572206973206e6f7420746865206f776e65726000830152602082019050919050565b60006128f0601583612e91565b91507f45584348414e47453a204f6e6c79206f6e7765722e00000000000000000000006000830152602082019050919050565b6000612930600a83612e91565b91507f43415244524557415244000000000000000000000000000000000000000000006000830152602082019050919050565b6000612970600383612e91565b91507f414c4c00000000000000000000000000000000000000000000000000000000006000830152602082019050919050565b60006129b0600783612e91565b91507f46494748544552000000000000000000000000000000000000000000000000006000830152602082019050919050565b60006129f0602483612e91565b91507f4d656d6265723a20546865206f7065726174696f6e206973206e6f7420616c6c60008301527f6f776564000000000000000000000000000000000000000000000000000000006020830152604082019050919050565b60a082016000820151612a5f6000850182612b1a565b506020820151612a726020850182612aed565b506040820151612a856040850182612aed565b506060820151612a986060850182612afc565b506080820151612aab6080850182612ab1565b50505050565b612aba81612f55565b82525050565b612ac981612f55565b82525050565b612ad881612f55565b82525050565b612ae781612fd8565b82525050565b612af681612f6f565b82525050565b612b0581612f9d565b82525050565b612b1481612f9d565b82525050565b612b2381612fa7565b82525050565b6000612b358284612766565b915081905092915050565b6000602082019050612b5560008301846126b1565b92915050565b6000606082019050612b7060008301866126b1565b612b7d60208301856126b1565b612b8a6040830184612ac0565b949350505050565b6000606082019050612ba760008301866126b1565b612bb460208301856126b1565b612bc16040830184612ade565b949350505050565b6000606082019050612bde60008301866126b1565b612beb60208301856126b1565b612bf86040830184612b0b565b949350505050565b6000604082019050612c1560008301856126b1565b8181036020830152612c27818461272d565b90509392505050565b6000604082019050612c4560008301846126b1565b8181036020830152612c5681612963565b905092915050565b60006020820190508181036000830152612c7881846126c0565b905092915050565b6000602082019050612c95600083018461271e565b92915050565b60006020820190508181036000830152612cb481612797565b9050919050565b60006020820190508181036000830152612cd4816127fd565b9050919050565b60006020820190508181036000830152612cf481612863565b9050919050565b60006020820190508181036000830152612d14816128a3565b9050919050565b60006020820190508181036000830152612d34816128e3565b9050919050565b60006020820190508181036000830152612d5481612923565b9050919050565b60006020820190508181036000830152612d74816129a3565b9050919050565b60006020820190508181036000830152612d94816129e3565b9050919050565b6000602082019050612db06000830184612acf565b92915050565b6000602082019050612dcb6000830184612ade565b92915050565b6000602082019050612de66000830184612b0b565b92915050565b6000604051905081810181811067ffffffffffffffff82111715612e1357612e126130a4565b5b8060405250919050565b600067ffffffffffffffff821115612e3857612e376130a4565b5b601f19601f8301169050602081019050919050565b6000819050602082019050919050565b600081519050919050565b600081519050919050565b6000602082019050919050565b600082825260208201905092915050565b600082825260208201905092915050565b600081905092915050565b6000612eb882612f9d565b9150612ec383612f9d565b9250827fffffffffffffffffffffffffffffffffffffffffffffffffffffffffffffffff03821115612ef857612ef7613075565b5b828201905092915050565b6000612f0e82612f9d565b9150612f1983612f9d565b925082821015612f2c57612f2b613075565b5b828203905092915050565b6000612f4282612f7d565b9050919050565b60008115159050919050565b60006dffffffffffffffffffffffffffff82169050919050565b600061ffff82169050919050565b600073ffffffffffffffffffffffffffffffffffffffff82169050919050565b6000819050919050565b600060ff82169050919050565b6000612fbf82612fc6565b9050919050565b6000612fd182612f7d565b9050919050565b6000612fe382612f55565b9050919050565b82818337600083830152505050565b60005b83811015613017578082015181840152602081019050612ffc565b83811115613026576000848401525b50505050565b600061303782612f9d565b91507fffffffffffffffffffffffffffffffffffffffffffffffffffffffffffffffff82141561306a57613069613075565b5b600182019050919050565b7f4e487b7100000000000000000000000000000000000000000000000000000000600052601160045260246000fd5b7f4e487b7100000000000000000000000000000000000000000000000000000000600052604160045260246000fd5b6000601f19601f8301169050919050565b6130ed81612f37565b81146130f857600080fd5b50565b61310481612f49565b811461310f57600080fd5b50565b61311b81612f55565b811461312657600080fd5b50565b61313281612f6f565b811461313d57600080fd5b50565b61314981612f9d565b811461315457600080fd5b50565b61316081612fa7565b811461316b57600080fd5b5056fea2646970667358221220a8d81aa92669ca5bbf4c994e8130a061c0afa6cdbdbbd198cbb00f2fb4025c5d64736f6c63430008000033",
  "immutableReferences": {},
  "source": "// SPDX-License-Identifier: SimPL-2.0\n\npragma solidity ^0.8.0;\n\nimport \"../core/CardReward.sol\";\nimport \"../libraries/NftLibrary.sol\";\n\nimport \"@openzeppelin/contracts/token/ERC20/IERC20.sol\";\nimport \"@openzeppelin/contracts/token/ERC721/IERC721.sol\";\nimport \"@openzeppelin/contracts/utils/structs/EnumerableSet.sol\";\n\n/**\n * @title U Box Sea - ERC721\n *\n * @author Bit Lighthouse. Ace\n * AT: 2021-3-28 | VERSION: v1.0.2\n */\n\ncontract Exchange is Member {\n    using SafeMath for uint256;\n    using EnumerableSet for EnumerableSet.UintSet;\n\n    EnumerableSet.UintSet private _tokens;\n    mapping (uint112 => uint256) private _amounts;\n    mapping (uint112 => address) private _owners;\n\n    constructor(address auth_) Member(auth_) { }\n\n    function getExchangeList() public view \n        returns (NftLibrary.DetailStruct[] memory list) {\n\n        uint256 len = _tokens.length();\n        list = new NftLibrary.DetailStruct[](len);\n\n        for (uint i = 0; i < len; i++) {\n            uint256 tokenId = _tokens.at(i);\n            list[i] = NftLibrary.analysis(uint112(tokenId));\n            list[i].tokenId = uint112(tokenId);\n        }\n    }\n\n    function put(uint112 tokenId_, uint256 amount) public\n        CheckStatus(\"NFTPUT\"){\n\n        IERC721 figh = IERC721(authority.members(\"FIGHTER\"));\n        require(\n            msg.sender == figh.ownerOf(tokenId_),\n            \"EXCHANGE: Only onwer.\"\n        );\n\n        _tokens.add(tokenId_);\n        _amounts[tokenId_] = amount;\n        _owners[tokenId_] = msg.sender;\n        figh.transferFrom(msg.sender, address(this), tokenId_);\n        CardReward cr = CardReward(authority.members(\"CARDREWARD\"));\n        cr.doExchange(msg.sender, address(0), tokenId_);\n    }\n\n    function pull(uint112 tokenId_) public CheckStatus(\"NFTPULL\"){\n        require(\n            msg.sender == _owners[tokenId_],\n            \"EXCHANGE: Only onwer.\"\n        );\n\n        _tokens.remove(tokenId_);\n        IERC721 figh = IERC721(authority.members(\"FIGHTER\"));\n        figh.transferFrom(address(this), msg.sender, tokenId_);\n        CardReward cr = CardReward(authority.members(\"CARDREWARD\"));\n        cr.doExchange(address(0), msg.sender, tokenId_);\n\n        delete _amounts[tokenId_]; delete _owners[tokenId_];\n    }\n    \n    function buy(uint112 tokenId_) public CheckStatus(\"NFTBUY\") {\n        IERC20 token = IERC20(authority.members(\"TOKEN\"));\n        token.transferFrom(msg.sender, _owners[tokenId_], _amounts[tokenId_]);\n\n        _tokens.remove(tokenId_);\n        IERC721 figh = IERC721(authority.members(\"FIGHTER\"));\n        figh.transferFrom(address(this), msg.sender, tokenId_);\n        CardReward cr = CardReward(authority.members(\"CARDREWARD\"));\n        cr.doExchange(address(this), _owners[tokenId_], tokenId_);\n\n        delete _amounts[tokenId_]; delete _owners[tokenId_];\n    }\n}",
  "sourcePath": "/home/ace/Projects/eth/other/dragon-ball-project/dragon-ball-contract/contracts/core/Exchange.sol",
  "compiler": {
    "name": "solc",
    "version": "0.8.0+commit.c7dfd78e.Emscripten.clang"
  },
  "schemaVersion": "3.4.3",
  "updatedAt": "2021-08-30T13:06:35.715Z",
  "devdoc": {
    "author": "Bit Lighthouse. Ace AT: 2021-3-28 | VERSION: v1.0.2",
    "kind": "dev",
    "methods": {
      "owner()": {
        "details": "Returns the address of the current owner."
      },
      "renounceOwnership()": {
        "details": "Leaves the contract without owner. It will not be possible to call `onlyOwner` functions anymore. Can only be called by the current owner. NOTE: Renouncing ownership will leave the contract without an owner, thereby removing any functionality that is only available to the owner."
      },
      "setAuthority(address)": {
        "params": {
          "authority_": "address of manager This function is onwer only"
        }
      },
      "setConfig(string,uint256)": {
        "params": {
          "config_": "config's value This function is config only",
          "name_": "name of config"
        }
      },
      "transferOwnership(address)": {
        "details": "Transfers ownership of the contract to a new account (`newOwner`). Can only be called by the current owner."
      }
    },
    "title": "U Box Sea - ERC721",
    "version": 1
  },
  "userdoc": {
    "kind": "user",
    "methods": {
      "setAuthority(address)": {
        "notice": "Set new manager"
      },
      "setConfig(string,uint256)": {
        "notice": "Set config of global or contract"
      }
    },
    "version": 1
  }
}