{
  "contractName": "Fighter",
  "abi": [
    {
      "inputs": [
        {
          "internalType": "address",
          "name": "auth_",
          "type": "address"
        }
      ],
      "stateMutability": "nonpayable",
      "type": "constructor"
    },
    {
      "anonymous": false,
      "inputs": [
        {
          "indexed": true,
          "internalType": "address",
          "name": "owner",
          "type": "address"
        },
        {
          "indexed": true,
          "internalType": "address",
          "name": "approved",
          "type": "address"
        },
        {
          "indexed": true,
          "internalType": "uint256",
          "name": "tokenId",
          "type": "uint256"
        }
      ],
      "name": "Approval",
      "type": "event"
    },
    {
      "anonymous": false,
      "inputs": [
        {
          "indexed": true,
          "internalType": "address",
          "name": "owner",
          "type": "address"
        },
        {
          "indexed": true,
          "internalType": "address",
          "name": "operator",
          "type": "address"
        },
        {
          "indexed": false,
          "internalType": "bool",
          "name": "approved",
          "type": "bool"
        }
      ],
      "name": "ApprovalForAll",
      "type": "event"
    },
    {
      "anonymous": false,
      "inputs": [
        {
          "indexed": false,
          "internalType": "uint256",
          "name": "reward",
          "type": "uint256"
        },
        {
          "indexed": false,
          "internalType": "uint256",
          "name": "power",
          "type": "uint256"
        },
        {
          "indexed": false,
          "internalType": "uint256",
          "name": "total_power",
          "type": "uint256"
        }
      ],
      "name": "Claim",
      "type": "event"
    },
    {
      "anonymous": false,
      "inputs": [
        {
          "indexed": true,
          "internalType": "address",
          "name": "previousOwner",
          "type": "address"
        },
        {
          "indexed": true,
          "internalType": "address",
          "name": "newOwner",
          "type": "address"
        }
      ],
      "name": "OwnershipTransferred",
      "type": "event"
    },
    {
      "anonymous": false,
      "inputs": [
        {
          "indexed": true,
          "internalType": "address",
          "name": "from",
          "type": "address"
        },
        {
          "indexed": true,
          "internalType": "address",
          "name": "to",
          "type": "address"
        },
        {
          "indexed": true,
          "internalType": "uint256",
          "name": "tokenId",
          "type": "uint256"
        }
      ],
      "name": "Transfer",
      "type": "event"
    },
    {
      "inputs": [
        {
          "internalType": "uint8",
          "name": "",
          "type": "uint8"
        }
      ],
      "name": "_reward_rates",
      "outputs": [
        {
          "internalType": "uint8",
          "name": "number",
          "type": "uint8"
        },
        {
          "internalType": "uint16",
          "name": "rate",
          "type": "uint16"
        },
        {
          "internalType": "uint8",
          "name": "times",
          "type": "uint8"
        }
      ],
      "stateMutability": "view",
      "type": "function",
      "constant": true
    },
    {
      "inputs": [
        {
          "internalType": "address",
          "name": "to",
          "type": "address"
        },
        {
          "internalType": "uint256",
          "name": "tokenId",
          "type": "uint256"
        }
      ],
      "name": "approve",
      "outputs": [],
      "stateMutability": "nonpayable",
      "type": "function"
    },
    {
      "inputs": [],
      "name": "authority",
      "outputs": [
        {
          "internalType": "contract Authority",
          "name": "",
          "type": "address"
        }
      ],
      "stateMutability": "view",
      "type": "function",
      "constant": true
    },
    {
      "inputs": [
        {
          "internalType": "address",
          "name": "owner",
          "type": "address"
        }
      ],
      "name": "balanceOf",
      "outputs": [
        {
          "internalType": "uint256",
          "name": "",
          "type": "uint256"
        }
      ],
      "stateMutability": "view",
      "type": "function",
      "constant": true
    },
    {
      "inputs": [
        {
          "internalType": "uint256",
          "name": "tokenId",
          "type": "uint256"
        }
      ],
      "name": "getApproved",
      "outputs": [
        {
          "internalType": "address",
          "name": "",
          "type": "address"
        }
      ],
      "stateMutability": "view",
      "type": "function",
      "constant": true
    },
    {
      "inputs": [
        {
          "internalType": "address",
          "name": "owner",
          "type": "address"
        },
        {
          "internalType": "address",
          "name": "operator",
          "type": "address"
        }
      ],
      "name": "isApprovedForAll",
      "outputs": [
        {
          "internalType": "bool",
          "name": "",
          "type": "bool"
        }
      ],
      "stateMutability": "view",
      "type": "function",
      "constant": true
    },
    {
      "inputs": [],
      "name": "name",
      "outputs": [
        {
          "internalType": "string",
          "name": "",
          "type": "string"
        }
      ],
      "stateMutability": "view",
      "type": "function",
      "constant": true
    },
    {
      "inputs": [],
      "name": "owner",
      "outputs": [
        {
          "internalType": "address",
          "name": "",
          "type": "address"
        }
      ],
      "stateMutability": "view",
      "type": "function",
      "constant": true
    },
    {
      "inputs": [
        {
          "internalType": "uint256",
          "name": "tokenId",
          "type": "uint256"
        }
      ],
      "name": "ownerOf",
      "outputs": [
        {
          "internalType": "address",
          "name": "",
          "type": "address"
        }
      ],
      "stateMutability": "view",
      "type": "function",
      "constant": true
    },
    {
      "inputs": [],
      "name": "renounceOwnership",
      "outputs": [],
      "stateMutability": "nonpayable",
      "type": "function"
    },
    {
      "inputs": [
        {
          "internalType": "address",
          "name": "from",
          "type": "address"
        },
        {
          "internalType": "address",
          "name": "to",
          "type": "address"
        },
        {
          "internalType": "uint256",
          "name": "tokenId",
          "type": "uint256"
        }
      ],
      "name": "safeTransferFrom",
      "outputs": [],
      "stateMutability": "nonpayable",
      "type": "function"
    },
    {
      "inputs": [
        {
          "internalType": "address",
          "name": "from",
          "type": "address"
        },
        {
          "internalType": "address",
          "name": "to",
          "type": "address"
        },
        {
          "internalType": "uint256",
          "name": "tokenId",
          "type": "uint256"
        },
        {
          "internalType": "bytes",
          "name": "_data",
          "type": "bytes"
        }
      ],
      "name": "safeTransferFrom",
      "outputs": [],
      "stateMutability": "nonpayable",
      "type": "function"
    },
    {
      "inputs": [
        {
          "internalType": "address",
          "name": "operator",
          "type": "address"
        },
        {
          "internalType": "bool",
          "name": "approved",
          "type": "bool"
        }
      ],
      "name": "setApprovalForAll",
      "outputs": [],
      "stateMutability": "nonpayable",
      "type": "function"
    },
    {
      "inputs": [
        {
          "internalType": "address",
          "name": "authority_",
          "type": "address"
        }
      ],
      "name": "setAuthority",
      "outputs": [],
      "stateMutability": "nonpayable",
      "type": "function"
    },
    {
      "inputs": [
        {
          "internalType": "bytes4",
          "name": "interfaceId",
          "type": "bytes4"
        }
      ],
      "name": "supportsInterface",
      "outputs": [
        {
          "internalType": "bool",
          "name": "",
          "type": "bool"
        }
      ],
      "stateMutability": "view",
      "type": "function",
      "constant": true
    },
    {
      "inputs": [],
      "name": "symbol",
      "outputs": [
        {
          "internalType": "string",
          "name": "",
          "type": "string"
        }
      ],
      "stateMutability": "view",
      "type": "function",
      "constant": true
    },
    {
      "inputs": [
        {
          "internalType": "uint256",
          "name": "tokenId",
          "type": "uint256"
        }
      ],
      "name": "tokenURI",
      "outputs": [
        {
          "internalType": "string",
          "name": "",
          "type": "string"
        }
      ],
      "stateMutability": "view",
      "type": "function",
      "constant": true
    },
    {
      "inputs": [
        {
          "internalType": "address",
          "name": "newOwner",
          "type": "address"
        }
      ],
      "name": "transferOwnership",
      "outputs": [],
      "stateMutability": "nonpayable",
      "type": "function"
    },
    {
      "inputs": [
        {
          "internalType": "address",
          "name": "account_",
          "type": "address"
        },
        {
          "internalType": "uint256",
          "name": "i",
          "type": "uint256"
        }
      ],
      "name": "getUserToken",
      "outputs": [
        {
          "internalType": "uint256",
          "name": "tokenId",
          "type": "uint256"
        }
      ],
      "stateMutability": "view",
      "type": "function",
      "constant": true
    },
    {
      "inputs": [
        {
          "internalType": "uint8",
          "name": "quality_",
          "type": "uint8"
        }
      ],
      "name": "getRateStruct",
      "outputs": [
        {
          "components": [
            {
              "internalType": "uint8",
              "name": "number",
              "type": "uint8"
            },
            {
              "internalType": "uint16",
              "name": "rate",
              "type": "uint16"
            },
            {
              "internalType": "uint8",
              "name": "times",
              "type": "uint8"
            }
          ],
          "internalType": "struct Fighter.RateStruct",
          "name": "rs",
          "type": "tuple"
        }
      ],
      "stateMutability": "view",
      "type": "function",
      "constant": true
    },
    {
      "inputs": [
        {
          "internalType": "address",
          "name": "account_",
          "type": "address"
        }
      ],
      "name": "getUserStruct",
      "outputs": [
        {
          "components": [
            {
              "internalType": "uint256",
              "name": "powers",
              "type": "uint256"
            },
            {
              "internalType": "uint256",
              "name": "period",
              "type": "uint256"
            },
            {
              "internalType": "uint256",
              "name": "exchange",
              "type": "uint256"
            }
          ],
          "internalType": "struct Fighter.UserStruct",
          "name": "us",
          "type": "tuple"
        }
      ],
      "stateMutability": "view",
      "type": "function",
      "constant": true
    },
    {
      "inputs": [
        {
          "internalType": "address",
          "name": "account_",
          "type": "address"
        }
      ],
      "name": "getReward",
      "outputs": [
        {
          "internalType": "uint256",
          "name": "reward",
          "type": "uint256"
        }
      ],
      "stateMutability": "view",
      "type": "function",
      "constant": true
    },
    {
      "inputs": [
        {
          "internalType": "uint256",
          "name": "reward_",
          "type": "uint256"
        }
      ],
      "name": "setTotalReward",
      "outputs": [],
      "stateMutability": "nonpayable",
      "type": "function"
    },
    {
      "inputs": [
        {
          "internalType": "uint8",
          "name": "quality_",
          "type": "uint8"
        },
        {
          "internalType": "uint8",
          "name": "number_",
          "type": "uint8"
        },
        {
          "internalType": "uint16",
          "name": "rate_",
          "type": "uint16"
        },
        {
          "internalType": "uint8",
          "name": "times_",
          "type": "uint8"
        }
      ],
      "name": "setRateByQuality",
      "outputs": [],
      "stateMutability": "nonpayable",
      "type": "function"
    },
    {
      "inputs": [
        {
          "internalType": "address",
          "name": "to_",
          "type": "address"
        },
        {
          "internalType": "uint112",
          "name": "tokenId_",
          "type": "uint112"
        }
      ],
      "name": "buy",
      "outputs": [],
      "stateMutability": "nonpayable",
      "type": "function"
    },
    {
      "inputs": [
        {
          "internalType": "address",
          "name": "account_",
          "type": "address"
        },
        {
          "internalType": "uint8",
          "name": "quality_",
          "type": "uint8"
        },
        {
          "internalType": "uint112",
          "name": "tokenId_",
          "type": "uint112"
        }
      ],
      "name": "burn",
      "outputs": [],
      "stateMutability": "nonpayable",
      "type": "function"
    },
    {
      "inputs": [
        {
          "internalType": "address",
          "name": "account_",
          "type": "address"
        }
      ],
      "name": "addExchange",
      "outputs": [],
      "stateMutability": "nonpayable",
      "type": "function"
    },
    {
      "inputs": [
        {
          "internalType": "address",
          "name": "account_",
          "type": "address"
        }
      ],
      "name": "getTokenList",
      "outputs": [
        {
          "components": [
            {
              "internalType": "uint8",
              "name": "quality",
              "type": "uint8"
            },
            {
              "internalType": "uint16",
              "name": "heroId",
              "type": "uint16"
            },
            {
              "internalType": "uint16",
              "name": "rate",
              "type": "uint16"
            },
            {
              "internalType": "uint256",
              "name": "amount",
              "type": "uint256"
            }
          ],
          "internalType": "struct NftLibrary.DetailStruct[]",
          "name": "list",
          "type": "tuple[]"
        }
      ],
      "stateMutability": "view",
      "type": "function",
      "constant": true
    },
    {
      "inputs": [
        {
          "internalType": "address",
          "name": "account_",
          "type": "address"
        }
      ],
      "name": "getRanking",
      "outputs": [
        {
          "internalType": "uint256",
          "name": "ranking",
          "type": "uint256"
        }
      ],
      "stateMutability": "view",
      "type": "function",
      "constant": true
    },
    {
      "inputs": [],
      "name": "claim",
      "outputs": [],
      "stateMutability": "nonpayable",
      "type": "function"
    },
    {
      "inputs": [
        {
          "internalType": "address",
          "name": "from_",
          "type": "address"
        },
        {
          "internalType": "address",
          "name": "to_",
          "type": "address"
        },
        {
          "internalType": "uint256",
          "name": "tokenId_",
          "type": "uint256"
        }
      ],
      "name": "transferFrom",
      "outputs": [],
      "stateMutability": "nonpayable",
      "type": "function"
    }
  ],
  "bytecode": "0x60806040523480156200001157600080fd5b5060405162005f1438038062005f148339818101604052810190620000379190620005f7565b6040518060400160405280600981526020017f46696768746572205a00000000000000000000000000000000000000000000008152506040518060400160405280600581526020017f44424e4654000000000000000000000000000000000000000000000000000000815250826000620000b66200052860201b60201c565b9050806000806101000a81548173ffffffffffffffffffffffffffffffffffffffff021916908373ffffffffffffffffffffffffffffffffffffffff1602179055508073ffffffffffffffffffffffffffffffffffffffff16600073ffffffffffffffffffffffffffffffffffffffff167f8be0079c531659141344cd1fd0a4f28419497f9722a3daafe3b4186f6b6457e060405160405180910390a35080600160006101000a81548173ffffffffffffffffffffffffffffffffffffffff021916908373ffffffffffffffffffffffffffffffffffffffff160217905550508160029080519060200190620001ae92919062000530565b508060039080519060200190620001c792919062000530565b5050506a52b7d2dcc80cd2e40000006009600101819055506040518060600160405280600760ff168152602001602361ffff168152602001600760ff16815250600c60008060ff16815260200190815260200160002060008201518160000160006101000a81548160ff021916908360ff16021790555060208201518160000160016101000a81548161ffff021916908361ffff16021790555060408201518160000160036101000a81548160ff021916908360ff1602179055509050506040518060600160405280600360ff168152602001600a61ffff168152602001600160ff16815250600c6000600160ff16815260200190815260200160002060008201518160000160006101000a81548160ff021916908360ff16021790555060208201518160000160016101000a81548161ffff021916908361ffff16021790555060408201518160000160036101000a81548160ff021916908360ff1602179055509050506040518060600160405280600560ff168152602001600561ffff168152602001600160ff16815250600c6000600260ff16815260200190815260200160002060008201518160000160006101000a81548160ff021916908360ff16021790555060208201518160000160016101000a81548161ffff021916908361ffff16021790555060408201518160000160036101000a81548160ff021916908360ff1602179055509050506040518060600160405280600a60ff168152602001600161ffff168152602001600160ff16815250600c6000600360ff16815260200190815260200160002060008201518160000160006101000a81548160ff021916908360ff16021790555060208201518160000160016101000a81548161ffff021916908361ffff16021790555060408201518160000160036101000a81548160ff021916908360ff1602179055509050506040518060600160405280600060ff168152602001600061ffff168152602001600060ff16815250600c6000600460ff16815260200190815260200160002060008201518160000160006101000a81548160ff021916908360ff16021790555060208201518160000160016101000a81548161ffff021916908361ffff16021790555060408201518160000160036101000a81548160ff021916908360ff16021790555090505050620006d6565b600033905090565b8280546200053e9062000657565b90600052602060002090601f016020900481019282620005625760008555620005ae565b82601f106200057d57805160ff1916838001178555620005ae565b82800160010185558215620005ae579182015b82811115620005ad57825182559160200191906001019062000590565b5b509050620005bd9190620005c1565b5090565b5b80821115620005dc576000816000905550600101620005c2565b5090565b600081519050620005f181620006bc565b92915050565b6000602082840312156200060a57600080fd5b60006200061a84828501620005e0565b91505092915050565b6000620006308262000637565b9050919050565b600073ffffffffffffffffffffffffffffffffffffffff82169050919050565b600060028204905060018216806200067057607f821691505b602082108114156200068757620006866200068d565b5b50919050565b7f4e487b7100000000000000000000000000000000000000000000000000000000600052602260045260246000fd5b620006c78162000623565b8114620006d357600080fd5b50565b61582e80620006e66000396000f3fe608060405234801561001057600080fd5b50600436106101e55760003560e01c80638da5cb5b1161010f578063c87b56dd116100a2578063e2aa1ef311610071578063e2aa1ef3146105a0578063e985e9c5146105d0578063f2fde38b14610600578063ff7d0ec51461061c576101e5565b8063c87b56dd146104f4578063d8a3073214610524578063d9465f4a14610554578063dfcf8b9514610584576101e5565b8063b88d4fde116100de578063b88d4fde1461046e578063bc78f0d51461048a578063bf7e214f146104a6578063c00007b0146104c4576101e5565b80638da5cb5b146103fa57806395d89b4114610418578063a22cb46514610436578063aa10ce2214610452576101e5565b806342842e0e116101875780636352211e116101565780636352211e1461037457806370a08231146103a4578063715018a6146103d45780637a9e5e4b146103de576101e5565b806342842e0e146102ec5780634e71d92d146103085780635acbbcfb14610312578063604e370614610344576101e5565b8063081812fc116101c3578063081812fc14610254578063095ea7b31461028457806323b872dd146102a05780633dbc1d7c146102bc576101e5565b806301ffc9a7146101ea578063047615131461021a57806306fdde0314610236575b600080fd5b61020460048036038101906101ff91906141e9565b610638565b6040516102119190614eb7565b60405180910390f35b610234600480360381019061022f91906142b6565b61071a565b005b61023e6108e9565b60405161024b9190614eed565b60405180910390f35b61026e60048036038101906102699190614264565b61097b565b60405161027b9190614d99565b60405180910390f35b61029e60048036038101906102999190614135565b610a00565b005b6102ba60048036038101906102b59190613ff3565b610b18565b005b6102d660048036038101906102d19190614135565b610e3d565b6040516102e39190615220565b60405180910390f35b61030660048036038101906103019190613ff3565b610e98565b005b610310610eb8565b005b61032c6004803603810190610327919061428d565b611545565b60405161033b93929190615272565b60405180910390f35b61035e60048036038101906103599190613f65565b611597565b60405161036b91906151ea565b60405180910390f35b61038e60048036038101906103899190614264565b61160e565b60405161039b9190614d99565b60405180910390f35b6103be60048036038101906103b99190613f65565b6116c0565b6040516103cb9190615220565b60405180910390f35b6103dc611778565b005b6103f860048036038101906103f39190613f65565b6118b2565b005b610402611972565b60405161040f9190614d99565b60405180910390f35b61042061199b565b60405161042d9190614eed565b60405180910390f35b610450600480360381019061044b91906140bd565b611a2d565b005b61046c60048036038101906104679190613f65565b611bae565b005b61048860048036038101906104839190614042565b611d69565b005b6104a4600480360381019061049f9190614264565b611dcb565b005b6104ae611efb565b6040516104bb9190614ed2565b60405180910390f35b6104de60048036038101906104d99190613f65565b611f21565b6040516104eb9190615220565b60405180910390f35b61050e60048036038101906105099190614264565b61204f565b60405161051b9190614eed565b60405180910390f35b61053e60048036038101906105399190613f65565b6120f6565b60405161054b9190614e95565b60405180910390f35b61056e6004803603810190610569919061428d565b612305565b60405161057b91906151cf565b60405180910390f35b61059e600480360381019061059991906140f9565b61239e565b005b6105ba60048036038101906105b59190613f65565b612849565b6040516105c79190615220565b60405180910390f35b6105ea60048036038101906105e59190613fb7565b6128a9565b6040516105f79190614eb7565b60405180910390f35b61061a60048036038101906106159190613f65565b61293d565b005b61063660048036038101906106319190614171565b612ae6565b005b60007f80ac58cd000000000000000000000000000000000000000000000000000000007bffffffffffffffffffffffffffffffffffffffffffffffffffffffff1916827bffffffffffffffffffffffffffffffffffffffffffffffffffffffff1916148061070357507f5b5e139f000000000000000000000000000000000000000000000000000000007bffffffffffffffffffffffffffffffffffffffffffffffffffffffff1916827bffffffffffffffffffffffffffffffffffffffffffffffffffffffff1916145b80610713575061071282612c19565b5b9050919050565b6040518060400160405280600681526020017f434f4e4649470000000000000000000000000000000000000000000000000000815250600160009054906101000a900473ffffffffffffffffffffffffffffffffffffffff1673ffffffffffffffffffffffffffffffffffffffff1663f5e65c7233836040518363ffffffff1660e01b81526004016107ad929190614e37565b60206040518083038186803b1580156107c557600080fd5b505afa1580156107d9573d6000803e3d6000fd5b505050506040513d601f19601f820116820180604052508101906107fd91906141c0565b61083c576040517f08c379a0000000000000000000000000000000000000000000000000000000008152600401610833906151af565b60405180910390fd5b60405180606001604052808560ff1681526020018461ffff1681526020018360ff16815250600c60008760ff1660ff16815260200190815260200160002060008201518160000160006101000a81548160ff021916908360ff16021790555060208201518160000160016101000a81548161ffff021916908361ffff16021790555060408201518160000160036101000a81548160ff021916908360ff1602179055509050505050505050565b6060600280546108f8906155de565b80601f0160208091040260200160405190810160405280929190818152602001828054610924906155de565b80156109715780601f1061094657610100808354040283529160200191610971565b820191906000526020600020905b81548152906001019060200180831161095457829003601f168201915b5050505050905090565b600061098682612c83565b6109c5576040517f08c379a00000000000000000000000000000000000000000000000000000000081526004016109bc906150cf565b60405180910390fd5b6006600083815260200190815260200160002060009054906101000a900473ffffffffffffffffffffffffffffffffffffffff169050919050565b6000610a0b8261160e565b90508073ffffffffffffffffffffffffffffffffffffffff168373ffffffffffffffffffffffffffffffffffffffff161415610a7c576040517f08c379a0000000000000000000000000000000000000000000000000000000008152600401610a739061516f565b60405180910390fd5b8073ffffffffffffffffffffffffffffffffffffffff16610a9b612cef565b73ffffffffffffffffffffffffffffffffffffffff161480610aca5750610ac981610ac4612cef565b6128a9565b5b610b09576040517f08c379a0000000000000000000000000000000000000000000000000000000008152600401610b009061500f565b60405180910390fd5b610b138383612cf7565b505050565b610b29610b23612cef565b82612db0565b610b68576040517f08c379a0000000000000000000000000000000000000000000000000000000008152600401610b5f9061518f565b60405180910390fd5b610b70613cf9565b73__NftLibrary____________________________6347d9b14d836040518263ffffffff1660e01b8152600401610ba79190615205565b60806040518083038186803b158015610bbf57600080fd5b505af4158015610bd3573d6000803e3d6000fd5b505050506040513d601f19601f82011682018060405250810190610bf7919061423b565b9050610c4a82600e60008673ffffffffffffffffffffffffffffffffffffffff1673ffffffffffffffffffffffffffffffffffffffff168152602001908152602001600020612e8e90919063ffffffff16565b50610c9c82600e60008773ffffffffffffffffffffffffffffffffffffffff1673ffffffffffffffffffffffffffffffffffffffff168152602001908152602001600020612ea890919063ffffffff16565b50806000015160ff16600d60008573ffffffffffffffffffffffffffffffffffffffff1673ffffffffffffffffffffffffffffffffffffffff16815260200190815260200160002060000154610cf29190615386565b600d60008573ffffffffffffffffffffffffffffffffffffffff1673ffffffffffffffffffffffffffffffffffffffff16815260200190815260200160002060000181905550806000015160ff16600d60008673ffffffffffffffffffffffffffffffffffffffff1673ffffffffffffffffffffffffffffffffffffffff16815260200190815260200160002060000154610d8d9190615467565b600d60008673ffffffffffffffffffffffffffffffffffffffff1673ffffffffffffffffffffffffffffffffffffffff168152602001908152602001600020600001819055506000610dde856116c0565b11610e2c576000600d60008673ffffffffffffffffffffffffffffffffffffffff1673ffffffffffffffffffffffffffffffffffffffff168152602001908152602001600020600101819055505b610e37848484612ec2565b50505050565b6000610e9082600e60008673ffffffffffffffffffffffffffffffffffffffff1673ffffffffffffffffffffffffffffffffffffffff16815260200190815260200160002061311e90919063ffffffff16565b905092915050565b610eb383838360405180602001604052806000815250611d69565b505050565b6040518060400160405280600581526020017f434c41494d000000000000000000000000000000000000000000000000000000815250600160009054906101000a900473ffffffffffffffffffffffffffffffffffffffff1673ffffffffffffffffffffffffffffffffffffffff1663466f98e860006040518263ffffffff1660e01b8152600401610f4a9190614e67565b60206040518083038186803b158015610f6257600080fd5b505afa158015610f76573d6000803e3d6000fd5b505050506040513d601f19601f82011682018060405250810190610f9a91906141c0565b15806110515750600160009054906101000a900473ffffffffffffffffffffffffffffffffffffffff1673ffffffffffffffffffffffffffffffffffffffff1663466f98e86000836040518363ffffffff1660e01b8152600401610fff929190614e37565b60206040518083038186803b15801561101757600080fd5b505afa15801561102b573d6000803e3d6000fd5b505050506040513d601f19601f8201168201806040525081019061104f91906141c0565b155b806111045750600160009054906101000a900473ffffffffffffffffffffffffffffffffffffffff1673ffffffffffffffffffffffffffffffffffffffff1663466f98e8336040518263ffffffff1660e01b81526004016110b29190614e67565b60206040518083038186803b1580156110ca57600080fd5b505afa1580156110de573d6000803e3d6000fd5b505050506040513d601f19601f8201168201806040525081019061110291906141c0565b155b806111b95750600160009054906101000a900473ffffffffffffffffffffffffffffffffffffffff1673ffffffffffffffffffffffffffffffffffffffff1663466f98e833836040518363ffffffff1660e01b8152600401611167929190614e37565b60206040518083038186803b15801561117f57600080fd5b505afa158015611193573d6000803e3d6000fd5b505050506040513d601f19601f820116820180604052508101906111b791906141c0565b155b6111f8576040517f08c379a00000000000000000000000000000000000000000000000000000000081526004016111ef906151af565b60405180910390fd5b600061120333611f21565b905060008111611248576040517f08c379a000000000000000000000000000000000000000000000000000000000815260040161123f9061506f565b60405180910390fd5b42600d60003373ffffffffffffffffffffffffffffffffffffffff1673ffffffffffffffffffffffffffffffffffffffff168152602001908152602001600020600101819055506000600160009054906101000a900473ffffffffffffffffffffffffffffffffffffffff1673ffffffffffffffffffffffffffffffffffffffff16636957a0b26040518163ffffffff1660e01b81526004016112ea9061504f565b60206040518083038186803b15801561130257600080fd5b505afa158015611316573d6000803e3d6000fd5b505050506040513d601f19601f8201168201806040525081019061133a9190613f8e565b90506000600160009054906101000a900473ffffffffffffffffffffffffffffffffffffffff1673ffffffffffffffffffffffffffffffffffffffff16636957a0b26040518163ffffffff1660e01b8152600401611397906150ef565b60206040518083038186803b1580156113af57600080fd5b505afa1580156113c3573d6000803e3d6000fd5b505050506040513d601f19601f820116820180604052508101906113e79190613f8e565b905060008173ffffffffffffffffffffffffffffffffffffffff166323b872dd8433876040518463ffffffff1660e01b815260040161142893929190614db4565b602060405180830381600087803b15801561144257600080fd5b505af1158015611456573d6000803e3d6000fd5b505050506040513d601f19601f8201168201806040525081019061147a91906141c0565b9050806114bc576040517f08c379a00000000000000000000000000000000000000000000000000000000081526004016114b390614fef565b60405180910390fd5b7fe630ca519fedafd2bd9bd35ad65e198e08398f47c88ca063c406740992bcd1a484600d60003373ffffffffffffffffffffffffffffffffffffffff1673ffffffffffffffffffffffffffffffffffffffff168152602001908152602001600020600001546009600001546040516115369392919061523b565b60405180910390a15050505050565b600c6020528060005260406000206000915090508060000160009054906101000a900460ff16908060000160019054906101000a900461ffff16908060000160039054906101000a900460ff16905083565b61159f613d2c565b600d60008373ffffffffffffffffffffffffffffffffffffffff1673ffffffffffffffffffffffffffffffffffffffff16815260200190815260200160002060405180606001604052908160008201548152602001600182015481526020016002820154815250509050919050565b6000806004600084815260200190815260200160002060009054906101000a900473ffffffffffffffffffffffffffffffffffffffff169050600073ffffffffffffffffffffffffffffffffffffffff168173ffffffffffffffffffffffffffffffffffffffff1614156116b7576040517f08c379a00000000000000000000000000000000000000000000000000000000081526004016116ae9061508f565b60405180910390fd5b80915050919050565b60008073ffffffffffffffffffffffffffffffffffffffff168273ffffffffffffffffffffffffffffffffffffffff161415611731576040517f08c379a00000000000000000000000000000000000000000000000000000000081526004016117289061502f565b60405180910390fd5b600560008373ffffffffffffffffffffffffffffffffffffffff1673ffffffffffffffffffffffffffffffffffffffff168152602001908152602001600020549050919050565b611780612cef565b73ffffffffffffffffffffffffffffffffffffffff1661179e611972565b73ffffffffffffffffffffffffffffffffffffffff16146117f4576040517f08c379a00000000000000000000000000000000000000000000000000000000081526004016117eb9061510f565b60405180910390fd5b600073ffffffffffffffffffffffffffffffffffffffff1660008054906101000a900473ffffffffffffffffffffffffffffffffffffffff1673ffffffffffffffffffffffffffffffffffffffff167f8be0079c531659141344cd1fd0a4f28419497f9722a3daafe3b4186f6b6457e060405160405180910390a360008060006101000a81548173ffffffffffffffffffffffffffffffffffffffff021916908373ffffffffffffffffffffffffffffffffffffffff160217905550565b6118ba612cef565b73ffffffffffffffffffffffffffffffffffffffff166118d8611972565b73ffffffffffffffffffffffffffffffffffffffff161461192e576040517f08c379a00000000000000000000000000000000000000000000000000000000081526004016119259061510f565b60405180910390fd5b80600160006101000a81548173ffffffffffffffffffffffffffffffffffffffff021916908373ffffffffffffffffffffffffffffffffffffffff16021790555050565b60008060009054906101000a900473ffffffffffffffffffffffffffffffffffffffff16905090565b6060600380546119aa906155de565b80601f01602080910402602001604051908101604052809291908181526020018280546119d6906155de565b8015611a235780601f106119f857610100808354040283529160200191611a23565b820191906000526020600020905b815481529060010190602001808311611a0657829003601f168201915b5050505050905090565b611a35612cef565b73ffffffffffffffffffffffffffffffffffffffff168273ffffffffffffffffffffffffffffffffffffffff161415611aa3576040517f08c379a0000000000000000000000000000000000000000000000000000000008152600401611a9a90614faf565b60405180910390fd5b8060076000611ab0612cef565b73ffffffffffffffffffffffffffffffffffffffff1673ffffffffffffffffffffffffffffffffffffffff16815260200190815260200160002060008473ffffffffffffffffffffffffffffffffffffffff1673ffffffffffffffffffffffffffffffffffffffff16815260200190815260200160002060006101000a81548160ff0219169083151502179055508173ffffffffffffffffffffffffffffffffffffffff16611b5d612cef565b73ffffffffffffffffffffffffffffffffffffffff167f17307eab39ab6107e8899845ad3d59bd9653f200f220920489ca2b5937696c3183604051611ba29190614eb7565b60405180910390a35050565b6040518060400160405280600a81526020017f4341524452455741524400000000000000000000000000000000000000000000815250600160009054906101000a900473ffffffffffffffffffffffffffffffffffffffff1673ffffffffffffffffffffffffffffffffffffffff1663f5e65c7233836040518363ffffffff1660e01b8152600401611c41929190614e37565b60206040518083038186803b158015611c5957600080fd5b505afa158015611c6d573d6000803e3d6000fd5b505050506040513d601f19601f82011682018060405250810190611c9191906141c0565b611cd0576040517f08c379a0000000000000000000000000000000000000000000000000000000008152600401611cc7906151af565b60405180910390fd5b6001600d60008473ffffffffffffffffffffffffffffffffffffffff1673ffffffffffffffffffffffffffffffffffffffff16815260200190815260200160002060020154611d1f9190615386565b600d60008473ffffffffffffffffffffffffffffffffffffffff1673ffffffffffffffffffffffffffffffffffffffff168152602001908152602001600020600201819055505050565b611d7a611d74612cef565b83612db0565b611db9576040517f08c379a0000000000000000000000000000000000000000000000000000000008152600401611db09061518f565b60405180910390fd5b611dc584848484613138565b50505050565b6040518060400160405280600681526020017f434f4e4649470000000000000000000000000000000000000000000000000000815250600160009054906101000a900473ffffffffffffffffffffffffffffffffffffffff1673ffffffffffffffffffffffffffffffffffffffff1663f5e65c7233836040518363ffffffff1660e01b8152600401611e5e929190614e37565b60206040518083038186803b158015611e7657600080fd5b505afa158015611e8a573d6000803e3d6000fd5b505050506040513d601f19601f82011682018060405250810190611eae91906141c0565b611eed576040517f08c379a0000000000000000000000000000000000000000000000000000000008152600401611ee4906151af565b60405180910390fd5b816009600101819055505050565b600160009054906101000a900473ffffffffffffffffffffffffffffffffffffffff1681565b600080611f2c613194565b90506000611f896305f5e100600d60008773ffffffffffffffffffffffffffffffffffffffff1673ffffffffffffffffffffffffffffffffffffffff168152602001908152602001600020600001546131f190919063ffffffff16565b9050611fb96305f5e100611fab6009600001548461320790919063ffffffff16565b61320790919063ffffffff16565b90506000600d60008673ffffffffffffffffffffffffffffffffffffffff1673ffffffffffffffffffffffffffffffffffffffff168152602001908152602001600020600101544261200b9190615467565b905061204560646120378461202985886131f190919063ffffffff16565b6131f190919063ffffffff16565b61320790919063ffffffff16565b9350505050919050565b606061205a82612c83565b612099576040517f08c379a00000000000000000000000000000000000000000000000000000000081526004016120909061514f565b60405180910390fd5b60006120a361321d565b905060008151116120c357604051806020016040528060008152506120ee565b806120cd84613234565b6040516020016120de929190614d75565b6040516020818303038152906040525b915050919050565b60606000612141600e60008573ffffffffffffffffffffffffffffffffffffffff1673ffffffffffffffffffffffffffffffffffffffff1681526020019081526020016000206133e1565b90508067ffffffffffffffff811115612183577f4e487b7100000000000000000000000000000000000000000000000000000000600052604160045260246000fd5b6040519080825280602002602001820160405280156121bc57816020015b6121a9613cf9565b8152602001906001900390816121a15790505b50915060005b818110156122fe57600061221d82600e60008873ffffffffffffffffffffffffffffffffffffffff1673ffffffffffffffffffffffffffffffffffffffff16815260200190815260200160002061311e90919063ffffffff16565b905073__NftLibrary____________________________6347d9b14d826040518263ffffffff1660e01b81526004016122569190615205565b60806040518083038186803b15801561226e57600080fd5b505af4158015612282573d6000803e3d6000fd5b505050506040513d601f19601f820116820180604052508101906122a6919061423b565b8483815181106122df577f4e487b7100000000000000000000000000000000000000000000000000000000600052603260045260246000fd5b60200260200101819052505080806122f690615610565b9150506121c2565b5050919050565b61230d613d4d565b600c600060018461231e919061549b565b60ff1660ff1681526020019081526020016000206040518060600160405290816000820160009054906101000a900460ff1660ff1660ff1681526020016000820160019054906101000a900461ffff1661ffff1661ffff1681526020016000820160039054906101000a900460ff1660ff1660ff16815250509050919050565b6040518060400160405280600881526020017f4341524453484f50000000000000000000000000000000000000000000000000815250600160009054906101000a900473ffffffffffffffffffffffffffffffffffffffff1673ffffffffffffffffffffffffffffffffffffffff1663f5e65c7233836040518363ffffffff1660e01b8152600401612431929190614e37565b60206040518083038186803b15801561244957600080fd5b505afa15801561245d573d6000803e3d6000fd5b505050506040513d601f19601f8201168201806040525081019061248191906141c0565b6124c0576040517f08c379a00000000000000000000000000000000000000000000000000000000081526004016124b7906151af565b60405180910390fd5b6124c8613cf9565b73__NftLibrary____________________________6347d9b14d846040518263ffffffff1660e01b81526004016124ff9190615205565b60806040518083038186803b15801561251757600080fd5b505af415801561252b573d6000803e3d6000fd5b505050506040513d601f19601f8201168201806040525081019061254f919061423b565b9050806000015160ff166009600001546125699190615386565b600960000181905550806000015160ff16600d60008673ffffffffffffffffffffffffffffffffffffffff1673ffffffffffffffffffffffffffffffffffffffff168152602001908152602001600020600001546125c79190615386565b600d60008673ffffffffffffffffffffffffffffffffffffffff1673ffffffffffffffffffffffffffffffffffffffff168152602001908152602001600020600001819055506001816000015160ff161415612683576009600201839080600181540180825580915050600190039060005260206000209060029182820401919006600e029091909190916101000a8154816dffffffffffffffffffffffffffff02191690836dffffffffffffffffffffffffffff1602179055505b6000600d60008673ffffffffffffffffffffffffffffffffffffffff1673ffffffffffffffffffffffffffffffffffffffff16815260200190815260200160002060010154116127155742600d60008673ffffffffffffffffffffffffffffffffffffffff1673ffffffffffffffffffffffffffffffffffffffff168152602001908152602001600020600101819055505b600061275e600e60008773ffffffffffffffffffffffffffffffffffffffff1673ffffffffffffffffffffffffffffffffffffffff1681526020019081526020016000206133e1565b116127c7576008849080600181540180825580915050600190039060005260206000200160009091909190916101000a81548173ffffffffffffffffffffffffffffffffffffffff021916908373ffffffffffffffffffffffffffffffffffffffff1602179055505b6127e184846dffffffffffffffffffffffffffff166133f6565b612842836dffffffffffffffffffffffffffff16600e60008773ffffffffffffffffffffffffffffffffffffffff1673ffffffffffffffffffffffffffffffffffffffff168152602001908152602001600020612e8e90919063ffffffff16565b5050505050565b60006001600d60008473ffffffffffffffffffffffffffffffffffffffff1673ffffffffffffffffffffffffffffffffffffffff168152602001908152602001600020600001541161289c57600061289f565b60015b60ff169050919050565b6000600760008473ffffffffffffffffffffffffffffffffffffffff1673ffffffffffffffffffffffffffffffffffffffff16815260200190815260200160002060008373ffffffffffffffffffffffffffffffffffffffff1673ffffffffffffffffffffffffffffffffffffffff16815260200190815260200160002060009054906101000a900460ff16905092915050565b612945612cef565b73ffffffffffffffffffffffffffffffffffffffff16612963611972565b73ffffffffffffffffffffffffffffffffffffffff16146129b9576040517f08c379a00000000000000000000000000000000000000000000000000000000081526004016129b09061510f565b60405180910390fd5b600073ffffffffffffffffffffffffffffffffffffffff168173ffffffffffffffffffffffffffffffffffffffff161415612a29576040517f08c379a0000000000000000000000000000000000000000000000000000000008152600401612a2090614f4f565b60405180910390fd5b8073ffffffffffffffffffffffffffffffffffffffff1660008054906101000a900473ffffffffffffffffffffffffffffffffffffffff1673ffffffffffffffffffffffffffffffffffffffff167f8be0079c531659141344cd1fd0a4f28419497f9722a3daafe3b4186f6b6457e060405160405180910390a3806000806101000a81548173ffffffffffffffffffffffffffffffffffffffff021916908373ffffffffffffffffffffffffffffffffffffffff16021790555050565b6040518060400160405280600a81526020017f4341524452455741524400000000000000000000000000000000000000000000815250600160009054906101000a900473ffffffffffffffffffffffffffffffffffffffff1673ffffffffffffffffffffffffffffffffffffffff1663f5e65c7233836040518363ffffffff1660e01b8152600401612b79929190614e37565b60206040518083038186803b158015612b9157600080fd5b505afa158015612ba5573d6000803e3d6000fd5b505050506040513d601f19601f82011682018060405250810190612bc991906141c0565b612c08576040517f08c379a0000000000000000000000000000000000000000000000000000000008152600401612bff906151af565b60405180910390fd5b612c13848484613414565b50505050565b60007f01ffc9a7000000000000000000000000000000000000000000000000000000007bffffffffffffffffffffffffffffffffffffffffffffffffffffffff1916827bffffffffffffffffffffffffffffffffffffffffffffffffffffffff1916149050919050565b60008073ffffffffffffffffffffffffffffffffffffffff166004600084815260200190815260200160002060009054906101000a900473ffffffffffffffffffffffffffffffffffffffff1673ffffffffffffffffffffffffffffffffffffffff1614159050919050565b600033905090565b816006600083815260200190815260200160002060006101000a81548173ffffffffffffffffffffffffffffffffffffffff021916908373ffffffffffffffffffffffffffffffffffffffff160217905550808273ffffffffffffffffffffffffffffffffffffffff16612d6a8361160e565b73ffffffffffffffffffffffffffffffffffffffff167f8c5be1e5ebec7d5bd14f71427d1e84f3dd0314c0f7b2291e5b200ac8c7c3b92560405160405180910390a45050565b6000612dbb82612c83565b612dfa576040517f08c379a0000000000000000000000000000000000000000000000000000000008152600401612df190614fcf565b60405180910390fd5b6000612e058361160e565b90508073ffffffffffffffffffffffffffffffffffffffff168473ffffffffffffffffffffffffffffffffffffffff161480612e7457508373ffffffffffffffffffffffffffffffffffffffff16612e5c8461097b565b73ffffffffffffffffffffffffffffffffffffffff16145b80612e855750612e8481856128a9565b5b91505092915050565b6000612ea0836000018360001b613548565b905092915050565b6000612eba836000018360001b6135b8565b905092915050565b8273ffffffffffffffffffffffffffffffffffffffff16612ee28261160e565b73ffffffffffffffffffffffffffffffffffffffff1614612f38576040517f08c379a0000000000000000000000000000000000000000000000000000000008152600401612f2f9061512f565b60405180910390fd5b600073ffffffffffffffffffffffffffffffffffffffff168273ffffffffffffffffffffffffffffffffffffffff161415612fa8576040517f08c379a0000000000000000000000000000000000000000000000000000000008152600401612f9f90614f8f565b60405180910390fd5b612fb3838383613742565b612fbe600082612cf7565b6001600560008573ffffffffffffffffffffffffffffffffffffffff1673ffffffffffffffffffffffffffffffffffffffff168152602001908152602001600020600082825461300e9190615467565b925050819055506001600560008473ffffffffffffffffffffffffffffffffffffffff1673ffffffffffffffffffffffffffffffffffffffff16815260200190815260200160002060008282546130659190615386565b92505081905550816004600083815260200190815260200160002060006101000a81548173ffffffffffffffffffffffffffffffffffffffff021916908373ffffffffffffffffffffffffffffffffffffffff160217905550808273ffffffffffffffffffffffffffffffffffffffff168473ffffffffffffffffffffffffffffffffffffffff167fddf252ad1be2c89b69c2b068fc378daa952ba7f163c4a11628f55a4df523b3ef60405160405180910390a4505050565b600061312d8360000183613747565b60001c905092915050565b613143848484612ec2565b61314f848484846137e1565b61318e576040517f08c379a000000000000000000000000000000000000000000000000000000000815260040161318590614f2f565b60405180910390fd5b50505050565b60006131b061016d60096001015461320790919063ffffffff16565b90506131ec603c6131de603c6131d060188661320790919063ffffffff16565b61320790919063ffffffff16565b61320790919063ffffffff16565b905090565b600081836131ff919061540d565b905092915050565b6000818361321591906153dc565b905092915050565b606060405180602001604052806000815250905090565b6060600082141561327c576040518060400160405280600181526020017f300000000000000000000000000000000000000000000000000000000000000081525090506133dc565b600082905060005b600082146132ae57808061329790615610565b915050600a826132a791906153dc565b9150613284565b60008167ffffffffffffffff8111156132f0577f4e487b7100000000000000000000000000000000000000000000000000000000600052604160045260246000fd5b6040519080825280601f01601f1916602001820160405280156133225781602001600182028036833780820191505090505b5090505b600085146133d55760018261333b9190615467565b9150600a8561334a9190615659565b60306133569190615386565b60f81b818381518110613392577f4e487b7100000000000000000000000000000000000000000000000000000000600052603260045260246000fd5b60200101907effffffffffffffffffffffffffffffffffffffffffffffffffffffffffffff1916908160001a905350600a856133ce91906153dc565b9450613326565b8093505050505b919050565b60006133ef82600001613978565b9050919050565b613410828260405180602001604052806000815250613989565b5050565b8160ff166009600001546134289190615467565b6009600001819055508160ff16600d60008573ffffffffffffffffffffffffffffffffffffffff1673ffffffffffffffffffffffffffffffffffffffff168152602001908152602001600020600001546134829190615467565b600d60008573ffffffffffffffffffffffffffffffffffffffff1673ffffffffffffffffffffffffffffffffffffffff168152602001908152602001600020600001819055506134e1816dffffffffffffffffffffffffffff166139e4565b613542816dffffffffffffffffffffffffffff16600e60008673ffffffffffffffffffffffffffffffffffffffff1673ffffffffffffffffffffffffffffffffffffffff168152602001908152602001600020612ea890919063ffffffff16565b50505050565b60006135548383613af5565b6135ad5782600001829080600181540180825580915050600190039060005260206000200160009091909190915055826000018054905083600101600084815260200190815260200160002081905550600190506135b2565b600090505b92915050565b600080836001016000848152602001908152602001600020549050600081146137365760006001826135ea9190615467565b90506000600186600001805490506136029190615467565b90506000866000018281548110613642577f4e487b7100000000000000000000000000000000000000000000000000000000600052603260045260246000fd5b906000526020600020015490508087600001848154811061368c577f4e487b7100000000000000000000000000000000000000000000000000000000600052603260045260246000fd5b90600052602060002001819055506001836136a79190615386565b87600101600083815260200190815260200160002081905550866000018054806136fa577f4e487b7100000000000000000000000000000000000000000000000000000000600052603160045260246000fd5b6001900381819060005260206000200160009055905586600101600087815260200190815260200160002060009055600194505050505061373c565b60009150505b92915050565b505050565b600081836000018054905011613792576040517f08c379a000000000000000000000000000000000000000000000000000000000815260040161378990614f0f565b60405180910390fd5b8260000182815481106137ce577f4e487b7100000000000000000000000000000000000000000000000000000000600052603260045260246000fd5b9060005260206000200154905092915050565b60006138028473ffffffffffffffffffffffffffffffffffffffff16613b18565b1561396b578373ffffffffffffffffffffffffffffffffffffffff1663150b7a0261382b612cef565b8786866040518563ffffffff1660e01b815260040161384d9493929190614deb565b602060405180830381600087803b15801561386757600080fd5b505af192505050801561389857506040513d601f19601f820116820180604052508101906138959190614212565b60015b61391b573d80600081146138c8576040519150601f19603f3d011682016040523d82523d6000602084013e6138cd565b606091505b50600081511415613913576040517f08c379a000000000000000000000000000000000000000000000000000000000815260040161390a90614f2f565b60405180910390fd5b805181602001fd5b63150b7a0260e01b7bffffffffffffffffffffffffffffffffffffffffffffffffffffffff1916817bffffffffffffffffffffffffffffffffffffffffffffffffffffffff191614915050613970565b600190505b949350505050565b600081600001805490509050919050565b6139938383613b2b565b6139a060008484846137e1565b6139df576040517f08c379a00000000000000000000000000000000000000000000000000000000081526004016139d690614f2f565b60405180910390fd5b505050565b60006139ef8261160e565b90506139fd81600084613742565b613a08600083612cf7565b6001600560008373ffffffffffffffffffffffffffffffffffffffff1673ffffffffffffffffffffffffffffffffffffffff1681526020019081526020016000206000828254613a589190615467565b925050819055506004600083815260200190815260200160002060006101000a81549073ffffffffffffffffffffffffffffffffffffffff021916905581600073ffffffffffffffffffffffffffffffffffffffff168273ffffffffffffffffffffffffffffffffffffffff167fddf252ad1be2c89b69c2b068fc378daa952ba7f163c4a11628f55a4df523b3ef60405160405180910390a45050565b600080836001016000848152602001908152602001600020541415905092915050565b600080823b905060008111915050919050565b600073ffffffffffffffffffffffffffffffffffffffff168273ffffffffffffffffffffffffffffffffffffffff161415613b9b576040517f08c379a0000000000000000000000000000000000000000000000000000000008152600401613b92906150af565b60405180910390fd5b613ba481612c83565b15613be4576040517f08c379a0000000000000000000000000000000000000000000000000000000008152600401613bdb90614f6f565b60405180910390fd5b613bf060008383613742565b6001600560008473ffffffffffffffffffffffffffffffffffffffff1673ffffffffffffffffffffffffffffffffffffffff1681526020019081526020016000206000828254613c409190615386565b92505081905550816004600083815260200190815260200160002060006101000a81548173ffffffffffffffffffffffffffffffffffffffff021916908373ffffffffffffffffffffffffffffffffffffffff160217905550808273ffffffffffffffffffffffffffffffffffffffff16600073ffffffffffffffffffffffffffffffffffffffff167fddf252ad1be2c89b69c2b068fc378daa952ba7f163c4a11628f55a4df523b3ef60405160405180910390a45050565b6040518060800160405280600060ff168152602001600061ffff168152602001600061ffff168152602001600081525090565b60405180606001604052806000815260200160008152602001600081525090565b6040518060600160405280600060ff168152602001600061ffff168152602001600060ff1681525090565b6000613d8b613d86846152da565b6152a9565b905082815260208101848484011115613da357600080fd5b613dae84828561559c565b509392505050565b600081359050613dc581615757565b92915050565b600081519050613dda81615757565b92915050565b600081359050613def8161576e565b92915050565b600081519050613e048161576e565b92915050565b600081359050613e1981615785565b92915050565b600081519050613e2e81615785565b92915050565b600082601f830112613e4557600080fd5b8135613e55848260208601613d78565b91505092915050565b600060808284031215613e7057600080fd5b613e7a60806152a9565b90506000613e8a84828501613f50565b6000830152506020613e9e84828501613efc565b6020830152506040613eb284828501613efc565b6040830152506060613ec684828501613f26565b60608301525092915050565b600081359050613ee18161579c565b92915050565b600081359050613ef6816157b3565b92915050565b600081519050613f0b816157b3565b92915050565b600081359050613f20816157ca565b92915050565b600081519050613f35816157ca565b92915050565b600081359050613f4a816157e1565b92915050565b600081519050613f5f816157e1565b92915050565b600060208284031215613f7757600080fd5b6000613f8584828501613db6565b91505092915050565b600060208284031215613fa057600080fd5b6000613fae84828501613dcb565b91505092915050565b60008060408385031215613fca57600080fd5b6000613fd885828601613db6565b9250506020613fe985828601613db6565b9150509250929050565b60008060006060848603121561400857600080fd5b600061401686828701613db6565b935050602061402786828701613db6565b925050604061403886828701613f11565b9150509250925092565b6000806000806080858703121561405857600080fd5b600061406687828801613db6565b945050602061407787828801613db6565b935050604061408887828801613f11565b925050606085013567ffffffffffffffff8111156140a557600080fd5b6140b187828801613e34565b91505092959194509250565b600080604083850312156140d057600080fd5b60006140de85828601613db6565b92505060206140ef85828601613de0565b9150509250929050565b6000806040838503121561410c57600080fd5b600061411a85828601613db6565b925050602061412b85828601613ed2565b9150509250929050565b6000806040838503121561414857600080fd5b600061415685828601613db6565b925050602061416785828601613f11565b9150509250929050565b60008060006060848603121561418657600080fd5b600061419486828701613db6565b93505060206141a586828701613f3b565b92505060406141b686828701613ed2565b9150509250925092565b6000602082840312156141d257600080fd5b60006141e084828501613df5565b91505092915050565b6000602082840312156141fb57600080fd5b600061420984828501613e0a565b91505092915050565b60006020828403121561422457600080fd5b600061423284828501613e1f565b91505092915050565b60006080828403121561424d57600080fd5b600061425b84828501613e5e565b91505092915050565b60006020828403121561427657600080fd5b600061428484828501613f11565b91505092915050565b60006020828403121561429f57600080fd5b60006142ad84828501613f3b565b91505092915050565b600080600080608085870312156142cc57600080fd5b60006142da87828801613f3b565b94505060206142eb87828801613f3b565b93505060406142fc87828801613ee7565b925050606061430d87828801613f3b565b91505092959194509250565b60006143258383614c33565b60808301905092915050565b61433a816154cf565b82525050565b600061434b8261531a565b6143558185615348565b93506143608361530a565b8060005b838110156143915781516143788882614319565b97506143838361533b565b925050600181019050614364565b5085935050505092915050565b6143a7816154e1565b82525050565b60006143b882615325565b6143c28185615359565b93506143d28185602086016155ab565b6143db81615746565b840191505092915050565b6143ef81615578565b82525050565b600061440082615330565b61440a818561536a565b935061441a8185602086016155ab565b61442381615746565b840191505092915050565b600061443982615330565b614443818561537b565b93506144538185602086016155ab565b80840191505092915050565b600061446c60228361536a565b91507f456e756d657261626c655365743a20696e646578206f7574206f6620626f756e60008301527f64730000000000000000000000000000000000000000000000000000000000006020830152604082019050919050565b60006144d260328361536a565b91507f4552433732313a207472616e7366657220746f206e6f6e20455243373231526560008301527f63656976657220696d706c656d656e74657200000000000000000000000000006020830152604082019050919050565b600061453860268361536a565b91507f4f776e61626c653a206e6577206f776e657220697320746865207a65726f206160008301527f64647265737300000000000000000000000000000000000000000000000000006020830152604082019050919050565b600061459e601c8361536a565b91507f4552433732313a20746f6b656e20616c7265616479206d696e746564000000006000830152602082019050919050565b60006145de60248361536a565b91507f4552433732313a207472616e7366657220746f20746865207a65726f2061646460008301527f72657373000000000000000000000000000000000000000000000000000000006020830152604082019050919050565b600061464460198361536a565b91507f4552433732313a20617070726f766520746f2063616c6c6572000000000000006000830152602082019050919050565b6000614684602c8361536a565b91507f4552433732313a206f70657261746f7220717565727920666f72206e6f6e657860008301527f697374656e7420746f6b656e00000000000000000000000000000000000000006020830152604082019050919050565b60006146ea601f8361536a565b91507f464947485445523a20526577617264207472616e73666572206669616c642e006000830152602082019050919050565b600061472a60388361536a565b91507f4552433732313a20617070726f76652063616c6c6572206973206e6f74206f7760008301527f6e6572206e6f7220617070726f76656420666f7220616c6c00000000000000006020830152604082019050919050565b6000614790602a8361536a565b91507f4552433732313a2062616c616e636520717565727920666f7220746865207a6560008301527f726f2061646472657373000000000000000000000000000000000000000000006020830152604082019050919050565b60006147f660058361536a565b91507f464f554e440000000000000000000000000000000000000000000000000000006000830152602082019050919050565b6000614836601c8361536a565b91507f464947485445523a2054686520726577617264206973207a65726f2e000000006000830152602082019050919050565b600061487660298361536a565b91507f4552433732313a206f776e657220717565727920666f72206e6f6e657869737460008301527f656e7420746f6b656e00000000000000000000000000000000000000000000006020830152604082019050919050565b60006148dc60208361536a565b91507f4552433732313a206d696e7420746f20746865207a65726f20616464726573736000830152602082019050919050565b600061491c602c8361536a565b91507f4552433732313a20617070726f76656420717565727920666f72206e6f6e657860008301527f697374656e7420746f6b656e00000000000000000000000000000000000000006020830152604082019050919050565b600061498260058361536a565b91507f544f4b454e0000000000000000000000000000000000000000000000000000006000830152602082019050919050565b60006149c260208361536a565b91507f4f776e61626c653a2063616c6c6572206973206e6f7420746865206f776e65726000830152602082019050919050565b6000614a0260298361536a565b91507f4552433732313a207472616e73666572206f6620746f6b656e2074686174206960008301527f73206e6f74206f776e00000000000000000000000000000000000000000000006020830152604082019050919050565b6000614a68602f8361536a565b91507f4552433732314d657461646174613a2055524920717565727920666f72206e6f60008301527f6e6578697374656e7420746f6b656e00000000000000000000000000000000006020830152604082019050919050565b6000614ace60218361536a565b91507f4552433732313a20617070726f76616c20746f2063757272656e74206f776e6560008301527f72000000000000000000000000000000000000000000000000000000000000006020830152604082019050919050565b6000614b3460038361536a565b91507f414c4c00000000000000000000000000000000000000000000000000000000006000830152602082019050919050565b6000614b7460318361536a565b91507f4552433732313a207472616e736665722063616c6c6572206973206e6f74206f60008301527f776e6572206e6f7220617070726f7665640000000000000000000000000000006020830152604082019050919050565b6000614bda60248361536a565b91507f4d656d6265723a20546865206f7065726174696f6e206973206e6f7420616c6c60008301527f6f776564000000000000000000000000000000000000000000000000000000006020830152604082019050919050565b608082016000820151614c496000850182614d57565b506020820151614c5c6020850182614d1b565b506040820151614c6f6040850182614d1b565b506060820151614c826060850182614d39565b50505050565b606082016000820151614c9e6000850182614d57565b506020820151614cb16020850182614d1b565b506040820151614cc46040850182614d57565b50505050565b606082016000820151614ce06000850182614d39565b506020820151614cf36020850182614d39565b506040820151614d066040850182614d39565b50505050565b614d1581615519565b82525050565b614d2481615533565b82525050565b614d3381615533565b82525050565b614d4281615561565b82525050565b614d5181615561565b82525050565b614d608161556b565b82525050565b614d6f8161556b565b82525050565b6000614d81828561442e565b9150614d8d828461442e565b91508190509392505050565b6000602082019050614dae6000830184614331565b92915050565b6000606082019050614dc96000830186614331565b614dd66020830185614331565b614de36040830184614d48565b949350505050565b6000608082019050614e006000830187614331565b614e0d6020830186614331565b614e1a6040830185614d48565b8181036060830152614e2c81846143ad565b905095945050505050565b6000604082019050614e4c6000830185614331565b8181036020830152614e5e81846143f5565b90509392505050565b6000604082019050614e7c6000830184614331565b8181036020830152614e8d81614b27565b905092915050565b60006020820190508181036000830152614eaf8184614340565b905092915050565b6000602082019050614ecc600083018461439e565b92915050565b6000602082019050614ee760008301846143e6565b92915050565b60006020820190508181036000830152614f0781846143f5565b905092915050565b60006020820190508181036000830152614f288161445f565b9050919050565b60006020820190508181036000830152614f48816144c5565b9050919050565b60006020820190508181036000830152614f688161452b565b9050919050565b60006020820190508181036000830152614f8881614591565b9050919050565b60006020820190508181036000830152614fa8816145d1565b9050919050565b60006020820190508181036000830152614fc881614637565b9050919050565b60006020820190508181036000830152614fe881614677565b9050919050565b60006020820190508181036000830152615008816146dd565b9050919050565b600060208201905081810360008301526150288161471d565b9050919050565b6000602082019050818103600083015261504881614783565b9050919050565b60006020820190508181036000830152615068816147e9565b9050919050565b6000602082019050818103600083015261508881614829565b9050919050565b600060208201905081810360008301526150a881614869565b9050919050565b600060208201905081810360008301526150c8816148cf565b9050919050565b600060208201905081810360008301526150e88161490f565b9050919050565b6000602082019050818103600083015261510881614975565b9050919050565b60006020820190508181036000830152615128816149b5565b9050919050565b60006020820190508181036000830152615148816149f5565b9050919050565b6000602082019050818103600083015261516881614a5b565b9050919050565b6000602082019050818103600083015261518881614ac1565b9050919050565b600060208201905081810360008301526151a881614b67565b9050919050565b600060208201905081810360008301526151c881614bcd565b9050919050565b60006060820190506151e46000830184614c88565b92915050565b60006060820190506151ff6000830184614cca565b92915050565b600060208201905061521a6000830184614d0c565b92915050565b60006020820190506152356000830184614d48565b92915050565b60006060820190506152506000830186614d48565b61525d6020830185614d48565b61526a6040830184614d48565b949350505050565b60006060820190506152876000830186614d66565b6152946020830185614d2a565b6152a16040830184614d66565b949350505050565b6000604051905081810181811067ffffffffffffffff821117156152d0576152cf615717565b5b8060405250919050565b600067ffffffffffffffff8211156152f5576152f4615717565b5b601f19601f8301169050602081019050919050565b6000819050602082019050919050565b600081519050919050565b600081519050919050565b600081519050919050565b6000602082019050919050565b600082825260208201905092915050565b600082825260208201905092915050565b600082825260208201905092915050565b600081905092915050565b600061539182615561565b915061539c83615561565b9250827fffffffffffffffffffffffffffffffffffffffffffffffffffffffffffffffff038211156153d1576153d061568a565b5b828201905092915050565b60006153e782615561565b91506153f283615561565b925082615402576154016156b9565b5b828204905092915050565b600061541882615561565b915061542383615561565b9250817fffffffffffffffffffffffffffffffffffffffffffffffffffffffffffffffff048311821515161561545c5761545b61568a565b5b828202905092915050565b600061547282615561565b915061547d83615561565b9250828210156154905761548f61568a565b5b828203905092915050565b60006154a68261556b565b91506154b18361556b565b9250828210156154c4576154c361568a565b5b828203905092915050565b60006154da82615541565b9050919050565b60008115159050919050565b60007fffffffff0000000000000000000000000000000000000000000000000000000082169050919050565b60006dffffffffffffffffffffffffffff82169050919050565b600061ffff82169050919050565b600073ffffffffffffffffffffffffffffffffffffffff82169050919050565b6000819050919050565b600060ff82169050919050565b60006155838261558a565b9050919050565b600061559582615541565b9050919050565b82818337600083830152505050565b60005b838110156155c95780820151818401526020810190506155ae565b838111156155d8576000848401525b50505050565b600060028204905060018216806155f657607f821691505b6020821081141561560a576156096156e8565b5b50919050565b600061561b82615561565b91507fffffffffffffffffffffffffffffffffffffffffffffffffffffffffffffffff82141561564e5761564d61568a565b5b600182019050919050565b600061566482615561565b915061566f83615561565b92508261567f5761567e6156b9565b5b828206905092915050565b7f4e487b7100000000000000000000000000000000000000000000000000000000600052601160045260246000fd5b7f4e487b7100000000000000000000000000000000000000000000000000000000600052601260045260246000fd5b7f4e487b7100000000000000000000000000000000000000000000000000000000600052602260045260246000fd5b7f4e487b7100000000000000000000000000000000000000000000000000000000600052604160045260246000fd5b6000601f19601f8301169050919050565b615760816154cf565b811461576b57600080fd5b50565b615777816154e1565b811461578257600080fd5b50565b61578e816154ed565b811461579957600080fd5b50565b6157a581615519565b81146157b057600080fd5b50565b6157bc81615533565b81146157c757600080fd5b50565b6157d381615561565b81146157de57600080fd5b50565b6157ea8161556b565b81146157f557600080fd5b5056fea2646970667358221220cca1d298f74e59fbca6d38cd08c2585ceee14635f8a77425ba6b679f94d372cb64736f6c63430008000033",
  "immutableReferences": {},
  "source": "// SPDX-License-Identifier: SimPL-2.0\n\npragma solidity ^0.8.0;\n\nimport \"../authority/Member.sol\";\nimport \"../libraries/NftLibrary.sol\";\n\nimport \"@openzeppelin/contracts/token/ERC20/IERC20.sol\";\nimport \"@openzeppelin/contracts/token/ERC721/ERC721.sol\";\nimport \"@openzeppelin/contracts/utils/math/SafeMath.sol\";\nimport \"@openzeppelin/contracts/utils/structs/EnumerableSet.sol\";\n\n/**\n * @title Fighter Z Token - ERC721\n *\n * @author Bit Lighthouse. Ace\n * AT: 2021-3-28 | VERSION: v1.0.2\n */\n\ncontract Fighter is Member, ERC721 {\n    using SafeMath for uint256;\n    using EnumerableSet for EnumerableSet.UintSet;\n\n    address[] private _users;\n    RecordStruct private _record;\n\n    mapping (uint8 => RateStruct) public _reward_rates;\n\n    mapping (address => UserStruct) private _usr;\n    mapping (address => EnumerableSet.UintSet) private _tokens;\n\n    struct RateStruct { uint8 number; uint16 rate; uint8 times; }\n    struct UserStruct { uint256 powers; uint256 period; uint256 exchange; }\n    struct RecordStruct { uint256 powers; uint256 reward; uint112[] specials; }\n\n    event Claim(uint256 reward, uint256 power, uint256 total_power);\n\n    constructor(address auth_) Member(auth_)\n        ERC721(\"Fighter Z\", \"DBNFT\") {\n        \n        _record.reward = 1e26;\n\n        _reward_rates[0] = RateStruct({\n            number: 7,  rate: 35, times: 7\n        });\n\n        _reward_rates[1] = RateStruct({\n            number: 3,  rate: 10, times: 1\n        });\n\n        _reward_rates[2] = RateStruct({\n            number: 5,  rate: 5,  times: 1\n        });\n\n        _reward_rates[3] = RateStruct({\n            number: 10, rate: 1,  times: 1\n        });\n\n        _reward_rates[4] = RateStruct({\n            number: 0,  rate: 0,  times: 0\n        });\n    }\n\n    function _getSecondReward() private view\n        returns (uint256 sr) {\n\n        sr = _record.reward.div(365);\n        sr = sr.div(24).div(60).div(60);\n    }\n\n    function _doBurn(\n        address account_, uint8 quality_, uint112 tokenId_\n    ) private {\n        _record.powers = _record.powers - quality_;\n        _usr[account_].powers = _usr[account_].powers - quality_;\n        \n        _burn(tokenId_);\n        _tokens[account_].remove(tokenId_);\n    }\n\n    function getUserToken(address account_, uint256 i)\n        public view returns (uint256 tokenId) {\n\n        tokenId = _tokens[account_].at(i);\n    }\n\n    function getRateStruct(uint8 quality_) public view\n        returns (RateStruct memory rs) {\n\n        rs = _reward_rates[quality_ - 1];\n    }\n\n    function getUserStruct(address account_) public view\n        returns (UserStruct memory us) {\n\n        us = _usr[account_];\n    }\n\n    function getReward(address account_) public view\n        returns (uint256 reward) {\n\n        uint256 second_reward = _getSecondReward();\n\n        uint256 power_rate = _usr[account_].powers.mul(1e8);\n        power_rate = power_rate.div(_record.powers).div(1e8);\n        uint256 period = block.timestamp - _usr[account_].period;\n\n        reward = second_reward.mul(period).mul(power_rate).div(100);\n    }\n\n    function setTotalReward(uint256 reward_) public\n        CheckPermit(\"CONFIG\") {\n\n        _record.reward = reward_;\n    }\n\n    function setRateByQuality(\n        uint8 quality_, uint8 number_, uint16 rate_, uint8 times_\n    ) public CheckPermit(\"CONFIG\") {\n        _reward_rates[quality_] = RateStruct({\n            number: number_,  rate: rate_, times: times_\n        });\n    }\n\n    function buy(address to_, uint112 tokenId_) public\n        CheckPermit(\"CARDSHOP\") {\n\n        NftLibrary.DetailStruct memory cs;\n        cs = NftLibrary.analysis(tokenId_);\n\n        _record.powers = _record.powers + cs.quality;\n        _usr[to_].powers = _usr[to_].powers + cs.quality;\n\n        if (cs.quality == 1) {\n            _record.specials.push(tokenId_);\n        }\n\n        if (_usr[to_].period <= 0) {\n            _usr[to_].period = block.timestamp;\n        }\n\n        if(_tokens[to_].length() <= 0) {\n            _users.push(to_);\n        }\n\n        _safeMint(to_, tokenId_);\n        _tokens[to_].add(tokenId_);\n    }\n\n    function burn(\n        address account_, uint8 quality_, uint112 tokenId_\n    ) public CheckPermit(\"CARDREWARD\") {\n        _doBurn(account_, quality_, tokenId_);\n    }\n\n    function addExchange(address account_) public\n        CheckPermit(\"CARDREWARD\") {\n        _usr[account_].exchange = _usr[account_].exchange + 1;\n    }\n\n    function getTokenList(address account_) public view\n        returns (NftLibrary.DetailStruct[] memory list) {\n\n        uint256 len = _tokens[account_].length();\n        list = new NftLibrary.DetailStruct[](len);\n\n        for (uint i = 0; i < len; i++) {\n            uint256 tokenId = _tokens[account_].at(i);\n            list[i] = NftLibrary.analysis(uint112(tokenId));\n        }\n    }\n\n    function getRanking(address account_) public view\n        returns (uint256 ranking) {\n\n        return _usr[account_].powers > 1 ? 1 : 0;\n    }\n\n    function claim() public CheckStatus(\"CLAIM\") {\n        uint256 reward = getReward(msg.sender);\n        require(reward > 0, \"FIGHTER: The reward is zero.\");\n        \n        _usr[msg.sender].period = block.timestamp;\n        \n        address sender = authority.members(\"FOUND\");\n        IERC20 token = IERC20(authority.members(\"TOKEN\"));\n\n        bool success = token.transferFrom(sender, msg.sender, reward);\n        require(success, \"FIGHTER: Reward transfer fiald.\");\n\n        emit Claim(reward, _usr[msg.sender].powers, _record.powers);\n    }\n\n    function transferFrom(\n        address from_, address to_, uint256 tokenId_\n    ) public virtual override {\n        require(\n            _isApprovedOrOwner(_msgSender(), tokenId_),\n            \"ERC721: transfer caller is not owner nor approved\"\n        );\n\n        NftLibrary.DetailStruct memory cs;\n        cs = NftLibrary.analysis(uint112(tokenId_));\n\n        _tokens[to_].add(tokenId_);\n        _tokens[from_].remove(tokenId_);\n\n        _usr[to_].powers = _usr[to_].powers + cs.quality;\n        _usr[from_].powers = _usr[from_].powers - cs.quality;\n        if (balanceOf(from_) <= 0) _usr[from_].period = 0;\n\n        _transfer(from_, to_, tokenId_);\n    }\n}",
  "sourcePath": "/home/ace/Projects/eth/other/dragon-ball-project/dragon-ball-contract/contracts/token/Fighter.sol",
  "compiler": {
    "name": "solc",
    "version": "0.8.0+commit.c7dfd78e.Emscripten.clang"
  },
  "schemaVersion": "3.4.3",
  "updatedAt": "2021-08-26T17:35:19.923Z",
  "networkType": "ethereum",
  "devdoc": {
    "author": "Bit Lighthouse. Ace AT: 2021-3-28 | VERSION: v1.0.2",
    "kind": "dev",
    "methods": {
      "approve(address,uint256)": {
        "details": "See {IERC721-approve}."
      },
      "balanceOf(address)": {
        "details": "See {IERC721-balanceOf}."
      },
      "getApproved(uint256)": {
        "details": "See {IERC721-getApproved}."
      },
      "isApprovedForAll(address,address)": {
        "details": "See {IERC721-isApprovedForAll}."
      },
      "name()": {
        "details": "See {IERC721Metadata-name}."
      },
      "owner()": {
        "details": "Returns the address of the current owner."
      },
      "ownerOf(uint256)": {
        "details": "See {IERC721-ownerOf}."
      },
      "renounceOwnership()": {
        "details": "Leaves the contract without owner. It will not be possible to call `onlyOwner` functions anymore. Can only be called by the current owner. NOTE: Renouncing ownership will leave the contract without an owner, thereby removing any functionality that is only available to the owner."
      },
      "safeTransferFrom(address,address,uint256)": {
        "details": "See {IERC721-safeTransferFrom}."
      },
      "safeTransferFrom(address,address,uint256,bytes)": {
        "details": "See {IERC721-safeTransferFrom}."
      },
      "setApprovalForAll(address,bool)": {
        "details": "See {IERC721-setApprovalForAll}."
      },
      "setAuthority(address)": {
        "params": {
          "authority_": "address of manager This function is onwer only"
        }
      },
      "supportsInterface(bytes4)": {
        "details": "See {IERC165-supportsInterface}."
      },
      "symbol()": {
        "details": "See {IERC721Metadata-symbol}."
      },
      "tokenURI(uint256)": {
        "details": "See {IERC721Metadata-tokenURI}."
      },
      "transferOwnership(address)": {
        "details": "Transfers ownership of the contract to a new account (`newOwner`). Can only be called by the current owner."
      }
    },
    "title": "Fighter Z Token - ERC721",
    "version": 1
  },
  "userdoc": {
    "kind": "user",
    "methods": {
      "setAuthority(address)": {
        "notice": "Set new manager"
      }
    },
    "version": 1
  }
}