{
  "contractName": "Fighter",
  "abi": [
    {
      "inputs": [
        {
          "internalType": "address",
          "name": "auth_",
          "type": "address"
        }
      ],
      "stateMutability": "nonpayable",
      "type": "constructor"
    },
    {
      "anonymous": false,
      "inputs": [
        {
          "indexed": true,
          "internalType": "address",
          "name": "owner",
          "type": "address"
        },
        {
          "indexed": true,
          "internalType": "address",
          "name": "approved",
          "type": "address"
        },
        {
          "indexed": true,
          "internalType": "uint256",
          "name": "tokenId",
          "type": "uint256"
        }
      ],
      "name": "Approval",
      "type": "event"
    },
    {
      "anonymous": false,
      "inputs": [
        {
          "indexed": true,
          "internalType": "address",
          "name": "owner",
          "type": "address"
        },
        {
          "indexed": true,
          "internalType": "address",
          "name": "operator",
          "type": "address"
        },
        {
          "indexed": false,
          "internalType": "bool",
          "name": "approved",
          "type": "bool"
        }
      ],
      "name": "ApprovalForAll",
      "type": "event"
    },
    {
      "anonymous": false,
      "inputs": [
        {
          "indexed": false,
          "internalType": "uint256",
          "name": "reward",
          "type": "uint256"
        },
        {
          "indexed": false,
          "internalType": "uint256",
          "name": "power",
          "type": "uint256"
        },
        {
          "indexed": false,
          "internalType": "uint256",
          "name": "total_power",
          "type": "uint256"
        }
      ],
      "name": "Claim",
      "type": "event"
    },
    {
      "anonymous": false,
      "inputs": [
        {
          "indexed": true,
          "internalType": "address",
          "name": "previousOwner",
          "type": "address"
        },
        {
          "indexed": true,
          "internalType": "address",
          "name": "newOwner",
          "type": "address"
        }
      ],
      "name": "OwnershipTransferred",
      "type": "event"
    },
    {
      "anonymous": false,
      "inputs": [
        {
          "indexed": true,
          "internalType": "address",
          "name": "from",
          "type": "address"
        },
        {
          "indexed": true,
          "internalType": "address",
          "name": "to",
          "type": "address"
        },
        {
          "indexed": true,
          "internalType": "uint256",
          "name": "tokenId",
          "type": "uint256"
        }
      ],
      "name": "Transfer",
      "type": "event"
    },
    {
      "inputs": [
        {
          "internalType": "address",
          "name": "to",
          "type": "address"
        },
        {
          "internalType": "uint256",
          "name": "tokenId",
          "type": "uint256"
        }
      ],
      "name": "approve",
      "outputs": [],
      "stateMutability": "nonpayable",
      "type": "function"
    },
    {
      "inputs": [],
      "name": "authority",
      "outputs": [
        {
          "internalType": "contract Authority",
          "name": "",
          "type": "address"
        }
      ],
      "stateMutability": "view",
      "type": "function"
    },
    {
      "inputs": [
        {
          "internalType": "address",
          "name": "owner",
          "type": "address"
        }
      ],
      "name": "balanceOf",
      "outputs": [
        {
          "internalType": "uint256",
          "name": "",
          "type": "uint256"
        }
      ],
      "stateMutability": "view",
      "type": "function"
    },
    {
      "inputs": [
        {
          "internalType": "uint256",
          "name": "tokenId",
          "type": "uint256"
        }
      ],
      "name": "getApproved",
      "outputs": [
        {
          "internalType": "address",
          "name": "",
          "type": "address"
        }
      ],
      "stateMutability": "view",
      "type": "function"
    },
    {
      "inputs": [
        {
          "internalType": "address",
          "name": "owner",
          "type": "address"
        },
        {
          "internalType": "address",
          "name": "operator",
          "type": "address"
        }
      ],
      "name": "isApprovedForAll",
      "outputs": [
        {
          "internalType": "bool",
          "name": "",
          "type": "bool"
        }
      ],
      "stateMutability": "view",
      "type": "function"
    },
    {
      "inputs": [],
      "name": "name",
      "outputs": [
        {
          "internalType": "string",
          "name": "",
          "type": "string"
        }
      ],
      "stateMutability": "view",
      "type": "function"
    },
    {
      "inputs": [],
      "name": "owner",
      "outputs": [
        {
          "internalType": "address",
          "name": "",
          "type": "address"
        }
      ],
      "stateMutability": "view",
      "type": "function"
    },
    {
      "inputs": [
        {
          "internalType": "uint256",
          "name": "tokenId",
          "type": "uint256"
        }
      ],
      "name": "ownerOf",
      "outputs": [
        {
          "internalType": "address",
          "name": "",
          "type": "address"
        }
      ],
      "stateMutability": "view",
      "type": "function"
    },
    {
      "inputs": [],
      "name": "renounceOwnership",
      "outputs": [],
      "stateMutability": "nonpayable",
      "type": "function"
    },
    {
      "inputs": [
        {
          "internalType": "address",
          "name": "from",
          "type": "address"
        },
        {
          "internalType": "address",
          "name": "to",
          "type": "address"
        },
        {
          "internalType": "uint256",
          "name": "tokenId",
          "type": "uint256"
        }
      ],
      "name": "safeTransferFrom",
      "outputs": [],
      "stateMutability": "nonpayable",
      "type": "function"
    },
    {
      "inputs": [
        {
          "internalType": "address",
          "name": "from",
          "type": "address"
        },
        {
          "internalType": "address",
          "name": "to",
          "type": "address"
        },
        {
          "internalType": "uint256",
          "name": "tokenId",
          "type": "uint256"
        },
        {
          "internalType": "bytes",
          "name": "_data",
          "type": "bytes"
        }
      ],
      "name": "safeTransferFrom",
      "outputs": [],
      "stateMutability": "nonpayable",
      "type": "function"
    },
    {
      "inputs": [
        {
          "internalType": "address",
          "name": "operator",
          "type": "address"
        },
        {
          "internalType": "bool",
          "name": "approved",
          "type": "bool"
        }
      ],
      "name": "setApprovalForAll",
      "outputs": [],
      "stateMutability": "nonpayable",
      "type": "function"
    },
    {
      "inputs": [
        {
          "internalType": "address",
          "name": "authority_",
          "type": "address"
        }
      ],
      "name": "setAuthority",
      "outputs": [],
      "stateMutability": "nonpayable",
      "type": "function"
    },
    {
      "inputs": [
        {
          "internalType": "bytes4",
          "name": "interfaceId",
          "type": "bytes4"
        }
      ],
      "name": "supportsInterface",
      "outputs": [
        {
          "internalType": "bool",
          "name": "",
          "type": "bool"
        }
      ],
      "stateMutability": "view",
      "type": "function"
    },
    {
      "inputs": [],
      "name": "symbol",
      "outputs": [
        {
          "internalType": "string",
          "name": "",
          "type": "string"
        }
      ],
      "stateMutability": "view",
      "type": "function"
    },
    {
      "inputs": [
        {
          "internalType": "uint256",
          "name": "tokenId",
          "type": "uint256"
        }
      ],
      "name": "tokenURI",
      "outputs": [
        {
          "internalType": "string",
          "name": "",
          "type": "string"
        }
      ],
      "stateMutability": "view",
      "type": "function"
    },
    {
      "inputs": [
        {
          "internalType": "address",
          "name": "newOwner",
          "type": "address"
        }
      ],
      "name": "transferOwnership",
      "outputs": [],
      "stateMutability": "nonpayable",
      "type": "function"
    },
    {
      "inputs": [
        {
          "internalType": "uint8",
          "name": "quality_",
          "type": "uint8"
        }
      ],
      "name": "getRateStruct",
      "outputs": [
        {
          "components": [
            {
              "internalType": "uint16",
              "name": "number",
              "type": "uint16"
            },
            {
              "internalType": "uint16",
              "name": "rate",
              "type": "uint16"
            },
            {
              "internalType": "uint8",
              "name": "times",
              "type": "uint8"
            }
          ],
          "internalType": "struct Fighter.RateStruct",
          "name": "rs",
          "type": "tuple"
        }
      ],
      "stateMutability": "view",
      "type": "function"
    },
    {
      "inputs": [
        {
          "internalType": "address",
          "name": "account_",
          "type": "address"
        }
      ],
      "name": "getUserStruct",
      "outputs": [
        {
          "components": [
            {
              "internalType": "uint256",
              "name": "powers",
              "type": "uint256"
            },
            {
              "internalType": "uint256",
              "name": "period",
              "type": "uint256"
            },
            {
              "internalType": "uint256",
              "name": "exchange",
              "type": "uint256"
            }
          ],
          "internalType": "struct NftLibrary.UserStruct",
          "name": "us",
          "type": "tuple"
        }
      ],
      "stateMutability": "view",
      "type": "function"
    },
    {
      "inputs": [
        {
          "internalType": "address",
          "name": "account_",
          "type": "address"
        },
        {
          "internalType": "uint256",
          "name": "i",
          "type": "uint256"
        }
      ],
      "name": "getUserTokens",
      "outputs": [
        {
          "internalType": "uint256",
          "name": "tokenId",
          "type": "uint256"
        }
      ],
      "stateMutability": "view",
      "type": "function"
    },
    {
      "inputs": [
        {
          "internalType": "uint8",
          "name": "quality_",
          "type": "uint8"
        },
        {
          "internalType": "uint16",
          "name": "number_",
          "type": "uint16"
        },
        {
          "internalType": "uint16",
          "name": "rate_",
          "type": "uint16"
        },
        {
          "internalType": "uint8",
          "name": "times_",
          "type": "uint8"
        }
      ],
      "name": "setExchangeRate",
      "outputs": [],
      "stateMutability": "nonpayable",
      "type": "function"
    },
    {
      "inputs": [
        {
          "internalType": "address",
          "name": "from_",
          "type": "address"
        },
        {
          "internalType": "address",
          "name": "to_",
          "type": "address"
        },
        {
          "internalType": "uint256",
          "name": "tokenId_",
          "type": "uint256"
        }
      ],
      "name": "transferFrom",
      "outputs": [],
      "stateMutability": "nonpayable",
      "type": "function"
    },
    {
      "inputs": [
        {
          "internalType": "address",
          "name": "to_",
          "type": "address"
        },
        {
          "internalType": "uint104",
          "name": "tokenId_",
          "type": "uint104"
        }
      ],
      "name": "buy",
      "outputs": [],
      "stateMutability": "nonpayable",
      "type": "function"
    },
    {
      "inputs": [
        {
          "internalType": "address",
          "name": "account_",
          "type": "address"
        },
        {
          "internalType": "uint8",
          "name": "quality_",
          "type": "uint8"
        },
        {
          "internalType": "uint104",
          "name": "tokenId_",
          "type": "uint104"
        }
      ],
      "name": "burn",
      "outputs": [],
      "stateMutability": "nonpayable",
      "type": "function"
    },
    {
      "inputs": [
        {
          "internalType": "address",
          "name": "account_",
          "type": "address"
        }
      ],
      "name": "addExchange",
      "outputs": [],
      "stateMutability": "nonpayable",
      "type": "function"
    },
    {
      "inputs": [
        {
          "internalType": "address",
          "name": "account_",
          "type": "address"
        }
      ],
      "name": "getReward",
      "outputs": [
        {
          "internalType": "uint256",
          "name": "reward",
          "type": "uint256"
        }
      ],
      "stateMutability": "view",
      "type": "function"
    },
    {
      "inputs": [],
      "name": "claim",
      "outputs": [],
      "stateMutability": "nonpayable",
      "type": "function"
    }
  ],
  "bytecode": "0x60806040523480156200001157600080fd5b5060405162005e2b38038062005e2b833981810160405281019062000037919062000606565b6040518060400160405280600981526020017f46696768746572205a00000000000000000000000000000000000000000000008152506040518060400160405280600581526020017f44424e4654000000000000000000000000000000000000000000000000000000815250826000620000b66200053760201b60201c565b9050806000806101000a81548173ffffffffffffffffffffffffffffffffffffffff021916908373ffffffffffffffffffffffffffffffffffffffff1602179055508073ffffffffffffffffffffffffffffffffffffffff16600073ffffffffffffffffffffffffffffffffffffffff167f8be0079c531659141344cd1fd0a4f28419497f9722a3daafe3b4186f6b6457e060405160405180910390a35080600160006101000a81548173ffffffffffffffffffffffffffffffffffffffff021916908373ffffffffffffffffffffffffffffffffffffffff160217905550508160029080519060200190620001ae9291906200053f565b508060039080519060200190620001c79291906200053f565b5050506a52b7d2dcc80cd2e40000006009600101819055506040518060600160405280600761ffff168152602001602361ffff168152602001600760ff16815250600c60008060ff16815260200190815260200160002060008201518160000160006101000a81548161ffff021916908361ffff16021790555060208201518160000160026101000a81548161ffff021916908361ffff16021790555060408201518160000160046101000a81548160ff021916908360ff1602179055509050506040518060600160405280600361ffff168152602001600a61ffff168152602001600160ff16815250600c6000600160ff16815260200190815260200160002060008201518160000160006101000a81548161ffff021916908361ffff16021790555060208201518160000160026101000a81548161ffff021916908361ffff16021790555060408201518160000160046101000a81548160ff021916908360ff1602179055509050506040518060600160405280600561ffff168152602001600561ffff168152602001600160ff16815250600c6000600260ff16815260200190815260200160002060008201518160000160006101000a81548161ffff021916908361ffff16021790555060208201518160000160026101000a81548161ffff021916908361ffff16021790555060408201518160000160046101000a81548160ff021916908360ff1602179055509050506040518060600160405280600a61ffff168152602001600161ffff168152602001600160ff16815250600c6000600360ff16815260200190815260200160002060008201518160000160006101000a81548161ffff021916908361ffff16021790555060208201518160000160026101000a81548161ffff021916908361ffff16021790555060408201518160000160046101000a81548160ff021916908360ff1602179055509050506040518060600160405280600061ffff168152602001600061ffff168152602001600060ff16815250600c6000600460ff16815260200190815260200160002060008201518160000160006101000a81548161ffff021916908361ffff16021790555060208201518160000160026101000a81548161ffff021916908361ffff16021790555060408201518160000160046101000a81548160ff021916908360ff16021790555090505050620006e5565b600033905090565b8280546200054d9062000666565b90600052602060002090601f016020900481019282620005715760008555620005bd565b82601f106200058c57805160ff1916838001178555620005bd565b82800160010185558215620005bd579182015b82811115620005bc5782518255916020019190600101906200059f565b5b509050620005cc9190620005d0565b5090565b5b80821115620005eb576000816000905550600101620005d1565b5090565b6000815190506200060081620006cb565b92915050565b6000602082840312156200061957600080fd5b60006200062984828501620005ef565b91505092915050565b60006200063f8262000646565b9050919050565b600073ffffffffffffffffffffffffffffffffffffffff82169050919050565b600060028204905060018216806200067f57607f821691505b602082108114156200069657620006956200069c565b5b50919050565b7f4e487b7100000000000000000000000000000000000000000000000000000000600052602260045260246000fd5b620006d68162000632565b8114620006e257600080fd5b50565b61573680620006f56000396000f3fe608060405234801561001057600080fd5b50600436106101a95760003560e01c80637a9e5e4b116100f9578063bf7e214f11610097578063cfdc352211610071578063cfdc3522146104a2578063d9465f4a146104d2578063e985e9c514610502578063f2fde38b14610532576101a9565b8063bf7e214f14610424578063c00007b014610442578063c87b56dd14610472576101a9565b806395d89b41116100d357806395d89b41146103b2578063a22cb465146103d0578063aa10ce22146103ec578063b88d4fde14610408576101a9565b80637a9e5e4b1461035c5780638da5cb5b1461037857806394637d9514610396576101a9565b80632db6e82211610166578063604e370611610140578063604e3706146102c25780636352211e146102f257806370a0823114610322578063715018a614610352576101a9565b80632db6e8221461028057806342842e0e1461029c5780634e71d92d146102b8576101a9565b806301ffc9a7146101ae57806306fdde03146101de578063081812fc146101fc578063095ea7b31461022c578063131d6f9e1461024857806323b872dd14610264575b600080fd5b6101c860048036038101906101c39190614195565b61054e565b6040516101d59190614e24565b60405180910390f35b6101e6610630565b6040516101f39190614e5a565b60405180910390f35b61021660048036038101906102119190614210565b6106c2565b6040516102239190614d28565b60405180910390f35b610246600480360381019061024191906140e1565b610747565b005b610262600480360381019061025d9190614262565b61085f565b005b61027e60048036038101906102799190613f9f565b610a31565b005b61029a600480360381019061029591906140a5565b610d56565b005b6102b660048036038101906102b19190613f9f565b6111fd565b005b6102c061121d565b005b6102dc60048036038101906102d79190613f11565b611952565b6040516102e99190615197565b60405180910390f35b61030c60048036038101906103079190614210565b6119c9565b6040516103199190614d28565b60405180910390f35b61033c60048036038101906103379190613f11565b611a7b565b60405161034991906151cd565b60405180910390f35b61035a611b33565b005b61037660048036038101906103719190613f11565b611c6d565b005b610380611d2d565b60405161038d9190614d28565b60405180910390f35b6103b060048036038101906103ab919061411d565b611d56565b005b6103ba611e89565b6040516103c79190614e5a565b60405180910390f35b6103ea60048036038101906103e59190614069565b611f1b565b005b61040660048036038101906104019190613f11565b61209c565b005b610422600480360381019061041d9190613fee565b612257565b005b61042c6122b9565b6040516104399190614e3f565b60405180910390f35b61045c60048036038101906104579190613f11565b6122df565b60405161046991906151cd565b60405180910390f35b61048c60048036038101906104879190614210565b6127f7565b6040516104999190614e5a565b60405180910390f35b6104bc60048036038101906104b791906140e1565b61289e565b6040516104c991906151cd565b60405180910390f35b6104ec60048036038101906104e79190614239565b6128f9565b6040516104f9919061517c565b60405180910390f35b61051c60048036038101906105179190613f63565b612989565b6040516105299190614e24565b60405180910390f35b61054c60048036038101906105479190613f11565b612a1d565b005b60007f80ac58cd000000000000000000000000000000000000000000000000000000007bffffffffffffffffffffffffffffffffffffffffffffffffffffffff1916827bffffffffffffffffffffffffffffffffffffffffffffffffffffffff1916148061061957507f5b5e139f000000000000000000000000000000000000000000000000000000007bffffffffffffffffffffffffffffffffffffffffffffffffffffffff1916827bffffffffffffffffffffffffffffffffffffffffffffffffffffffff1916145b80610629575061062882612bc6565b5b9050919050565b60606002805461063f906154e6565b80601f016020809104026020016040519081016040528092919081815260200182805461066b906154e6565b80156106b85780601f1061068d576101008083540402835291602001916106b8565b820191906000526020600020905b81548152906001019060200180831161069b57829003601f168201915b5050505050905090565b60006106cd82612c30565b61070c576040517f08c379a00000000000000000000000000000000000000000000000000000000081526004016107039061505c565b60405180910390fd5b6006600083815260200190815260200160002060009054906101000a900473ffffffffffffffffffffffffffffffffffffffff169050919050565b6000610752826119c9565b90508073ffffffffffffffffffffffffffffffffffffffff168373ffffffffffffffffffffffffffffffffffffffff1614156107c3576040517f08c379a00000000000000000000000000000000000000000000000000000000081526004016107ba9061511c565b60405180910390fd5b8073ffffffffffffffffffffffffffffffffffffffff166107e2612c9c565b73ffffffffffffffffffffffffffffffffffffffff16148061081157506108108161080b612c9c565b612989565b5b610850576040517f08c379a000000000000000000000000000000000000000000000000000000000815260040161084790614f9c565b60405180910390fd5b61085a8383612ca4565b505050565b6040518060400160405280600681526020017f434f4e4649470000000000000000000000000000000000000000000000000000815250600160009054906101000a900473ffffffffffffffffffffffffffffffffffffffff1673ffffffffffffffffffffffffffffffffffffffff1663f5e65c7233836040518363ffffffff1660e01b81526004016108f2929190614dc6565b60206040518083038186803b15801561090a57600080fd5b505afa15801561091e573d6000803e3d6000fd5b505050506040513d601f19601f82011682018060405250810190610942919061416c565b610981576040517f08c379a00000000000000000000000000000000000000000000000000000000081526004016109789061515c565b60405180910390fd5b60405180606001604052808561ffff1681526020018461ffff1681526020018360ff16815250600c60008760ff1660ff16815260200190815260200160002060008201518160000160006101000a81548161ffff021916908361ffff16021790555060208201518160000160026101000a81548161ffff021916908361ffff16021790555060408201518160000160046101000a81548160ff021916908360ff1602179055509050505050505050565b610a42610a3c612c9c565b82612d5d565b610a81576040517f08c379a0000000000000000000000000000000000000000000000000000000008152600401610a789061513c565b60405180910390fd5b610a89613ca4565b73__NftLibrary____________________________63d6ebbcfb836040518263ffffffff1660e01b8152600401610ac091906151b2565b60806040518083038186803b158015610ad857600080fd5b505af4158015610aec573d6000803e3d6000fd5b505050506040513d601f19601f82011682018060405250810190610b1091906141e7565b9050610b6382600e60008673ffffffffffffffffffffffffffffffffffffffff1673ffffffffffffffffffffffffffffffffffffffff168152602001908152602001600020612e3b90919063ffffffff16565b50610bb582600e60008773ffffffffffffffffffffffffffffffffffffffff1673ffffffffffffffffffffffffffffffffffffffff168152602001908152602001600020612e5590919063ffffffff16565b50806000015160ff16600d60008573ffffffffffffffffffffffffffffffffffffffff1673ffffffffffffffffffffffffffffffffffffffff16815260200190815260200160002060000154610c0b91906152c3565b600d60008573ffffffffffffffffffffffffffffffffffffffff1673ffffffffffffffffffffffffffffffffffffffff16815260200190815260200160002060000181905550806000015160ff16600d60008673ffffffffffffffffffffffffffffffffffffffff1673ffffffffffffffffffffffffffffffffffffffff16815260200190815260200160002060000154610ca691906153a4565b600d60008673ffffffffffffffffffffffffffffffffffffffff1673ffffffffffffffffffffffffffffffffffffffff168152602001908152602001600020600001819055506000610cf785611a7b565b11610d45576000600d60008673ffffffffffffffffffffffffffffffffffffffff1673ffffffffffffffffffffffffffffffffffffffff168152602001908152602001600020600101819055505b610d50848484612e6f565b50505050565b6040518060400160405280600881526020017f4341524453484f50000000000000000000000000000000000000000000000000815250600160009054906101000a900473ffffffffffffffffffffffffffffffffffffffff1673ffffffffffffffffffffffffffffffffffffffff1663f5e65c7233836040518363ffffffff1660e01b8152600401610de9929190614dc6565b60206040518083038186803b158015610e0157600080fd5b505afa158015610e15573d6000803e3d6000fd5b505050506040513d601f19601f82011682018060405250810190610e39919061416c565b610e78576040517f08c379a0000000000000000000000000000000000000000000000000000000008152600401610e6f9061515c565b60405180910390fd5b610e80613ca4565b73__NftLibrary____________________________63d6ebbcfb846040518263ffffffff1660e01b8152600401610eb791906151b2565b60806040518083038186803b158015610ecf57600080fd5b505af4158015610ee3573d6000803e3d6000fd5b505050506040513d601f19601f82011682018060405250810190610f0791906141e7565b9050806000015160ff16600960000154610f2191906152c3565b600960000181905550806000015160ff16600d60008673ffffffffffffffffffffffffffffffffffffffff1673ffffffffffffffffffffffffffffffffffffffff16815260200190815260200160002060000154610f7f91906152c3565b600d60008673ffffffffffffffffffffffffffffffffffffffff1673ffffffffffffffffffffffffffffffffffffffff168152602001908152602001600020600001819055506000816000015160ff161415611039576009600201839080600181540180825580915050600190039060005260206000209060029182820401919006600d029091909190916101000a8154816cffffffffffffffffffffffffff02191690836cffffffffffffffffffffffffff1602179055505b6000600d60008673ffffffffffffffffffffffffffffffffffffffff1673ffffffffffffffffffffffffffffffffffffffff16815260200190815260200160002060010154116110cb5742600d60008673ffffffffffffffffffffffffffffffffffffffff1673ffffffffffffffffffffffffffffffffffffffff168152602001908152602001600020600101819055505b6000611114600e60008773ffffffffffffffffffffffffffffffffffffffff1673ffffffffffffffffffffffffffffffffffffffff1681526020019081526020016000206130cb565b1161117d576008849080600181540180825580915050600190039060005260206000200160009091909190916101000a81548173ffffffffffffffffffffffffffffffffffffffff021916908373ffffffffffffffffffffffffffffffffffffffff1602179055505b61119684846cffffffffffffffffffffffffff166130e0565b6111f6836cffffffffffffffffffffffffff16600e60008773ffffffffffffffffffffffffffffffffffffffff1673ffffffffffffffffffffffffffffffffffffffff168152602001908152602001600020612e3b90919063ffffffff16565b5050505050565b61121883838360405180602001604052806000815250612257565b505050565b6040518060400160405280600581526020017f434c41494d000000000000000000000000000000000000000000000000000000815250600160009054906101000a900473ffffffffffffffffffffffffffffffffffffffff1673ffffffffffffffffffffffffffffffffffffffff1663466f98e860006040518263ffffffff1660e01b81526004016112af9190614df6565b60206040518083038186803b1580156112c757600080fd5b505afa1580156112db573d6000803e3d6000fd5b505050506040513d601f19601f820116820180604052508101906112ff919061416c565b1561133f576040517f08c379a000000000000000000000000000000000000000000000000000000000815260040161133690614f3c565b60405180910390fd5b600160009054906101000a900473ffffffffffffffffffffffffffffffffffffffff1673ffffffffffffffffffffffffffffffffffffffff1663466f98e86000836040518363ffffffff1660e01b815260040161139d929190614dc6565b60206040518083038186803b1580156113b557600080fd5b505afa1580156113c9573d6000803e3d6000fd5b505050506040513d601f19601f820116820180604052508101906113ed919061416c565b1561142d576040517f08c379a00000000000000000000000000000000000000000000000000000000081526004016114249061507c565b60405180910390fd5b600160009054906101000a900473ffffffffffffffffffffffffffffffffffffffff1673ffffffffffffffffffffffffffffffffffffffff1663466f98e8336040518263ffffffff1660e01b81526004016114889190614df6565b60206040518083038186803b1580156114a057600080fd5b505afa1580156114b4573d6000803e3d6000fd5b505050506040513d601f19601f820116820180604052508101906114d8919061416c565b15611518576040517f08c379a000000000000000000000000000000000000000000000000000000000815260040161150f9061515c565b60405180910390fd5b600160009054906101000a900473ffffffffffffffffffffffffffffffffffffffff1673ffffffffffffffffffffffffffffffffffffffff1663466f98e833836040518363ffffffff1660e01b8152600401611575929190614dc6565b60206040518083038186803b15801561158d57600080fd5b505afa1580156115a1573d6000803e3d6000fd5b505050506040513d601f19601f820116820180604052508101906115c5919061416c565b15611605576040517f08c379a00000000000000000000000000000000000000000000000000000000081526004016115fc9061515c565b60405180910390fd5b6000611610336122df565b905060008111611655576040517f08c379a000000000000000000000000000000000000000000000000000000000815260040161164c90614ffc565b60405180910390fd5b42600d60003373ffffffffffffffffffffffffffffffffffffffff1673ffffffffffffffffffffffffffffffffffffffff168152602001908152602001600020600101819055506000600160009054906101000a900473ffffffffffffffffffffffffffffffffffffffff1673ffffffffffffffffffffffffffffffffffffffff16636957a0b26040518163ffffffff1660e01b81526004016116f790614fdc565b60206040518083038186803b15801561170f57600080fd5b505afa158015611723573d6000803e3d6000fd5b505050506040513d601f19601f820116820180604052508101906117479190613f3a565b90506000600160009054906101000a900473ffffffffffffffffffffffffffffffffffffffff1673ffffffffffffffffffffffffffffffffffffffff16636957a0b26040518163ffffffff1660e01b81526004016117a49061509c565b60206040518083038186803b1580156117bc57600080fd5b505afa1580156117d0573d6000803e3d6000fd5b505050506040513d601f19601f820116820180604052508101906117f49190613f3a565b905060008173ffffffffffffffffffffffffffffffffffffffff166323b872dd8433876040518463ffffffff1660e01b815260040161183593929190614d43565b602060405180830381600087803b15801561184f57600080fd5b505af1158015611863573d6000803e3d6000fd5b505050506040513d601f19601f82011682018060405250810190611887919061416c565b9050806118c9576040517f08c379a00000000000000000000000000000000000000000000000000000000081526004016118c090614f7c565b60405180910390fd5b7fe630ca519fedafd2bd9bd35ad65e198e08398f47c88ca063c406740992bcd1a484600d60003373ffffffffffffffffffffffffffffffffffffffff1673ffffffffffffffffffffffffffffffffffffffff16815260200190815260200160002060000154600960000154604051611943939291906151e8565b60405180910390a15050505050565b61195a613cd7565b600d60008373ffffffffffffffffffffffffffffffffffffffff1673ffffffffffffffffffffffffffffffffffffffff16815260200190815260200160002060405180606001604052908160008201548152602001600182015481526020016002820154815250509050919050565b6000806004600084815260200190815260200160002060009054906101000a900473ffffffffffffffffffffffffffffffffffffffff169050600073ffffffffffffffffffffffffffffffffffffffff168173ffffffffffffffffffffffffffffffffffffffff161415611a72576040517f08c379a0000000000000000000000000000000000000000000000000000000008152600401611a699061501c565b60405180910390fd5b80915050919050565b60008073ffffffffffffffffffffffffffffffffffffffff168273ffffffffffffffffffffffffffffffffffffffff161415611aec576040517f08c379a0000000000000000000000000000000000000000000000000000000008152600401611ae390614fbc565b60405180910390fd5b600560008373ffffffffffffffffffffffffffffffffffffffff1673ffffffffffffffffffffffffffffffffffffffff168152602001908152602001600020549050919050565b611b3b612c9c565b73ffffffffffffffffffffffffffffffffffffffff16611b59611d2d565b73ffffffffffffffffffffffffffffffffffffffff1614611baf576040517f08c379a0000000000000000000000000000000000000000000000000000000008152600401611ba6906150bc565b60405180910390fd5b600073ffffffffffffffffffffffffffffffffffffffff1660008054906101000a900473ffffffffffffffffffffffffffffffffffffffff1673ffffffffffffffffffffffffffffffffffffffff167f8be0079c531659141344cd1fd0a4f28419497f9722a3daafe3b4186f6b6457e060405160405180910390a360008060006101000a81548173ffffffffffffffffffffffffffffffffffffffff021916908373ffffffffffffffffffffffffffffffffffffffff160217905550565b611c75612c9c565b73ffffffffffffffffffffffffffffffffffffffff16611c93611d2d565b73ffffffffffffffffffffffffffffffffffffffff1614611ce9576040517f08c379a0000000000000000000000000000000000000000000000000000000008152600401611ce0906150bc565b60405180910390fd5b80600160006101000a81548173ffffffffffffffffffffffffffffffffffffffff021916908373ffffffffffffffffffffffffffffffffffffffff16021790555050565b60008060009054906101000a900473ffffffffffffffffffffffffffffffffffffffff16905090565b6040518060400160405280600881526020017f45584348414e4745000000000000000000000000000000000000000000000000815250600160009054906101000a900473ffffffffffffffffffffffffffffffffffffffff1673ffffffffffffffffffffffffffffffffffffffff1663f5e65c7233836040518363ffffffff1660e01b8152600401611de9929190614dc6565b60206040518083038186803b158015611e0157600080fd5b505afa158015611e15573d6000803e3d6000fd5b505050506040513d601f19601f82011682018060405250810190611e39919061416c565b611e78576040517f08c379a0000000000000000000000000000000000000000000000000000000008152600401611e6f9061515c565b60405180910390fd5b611e838484846130fe565b50505050565b606060038054611e98906154e6565b80601f0160208091040260200160405190810160405280929190818152602001828054611ec4906154e6565b8015611f115780601f10611ee657610100808354040283529160200191611f11565b820191906000526020600020905b815481529060010190602001808311611ef457829003601f168201915b5050505050905090565b611f23612c9c565b73ffffffffffffffffffffffffffffffffffffffff168273ffffffffffffffffffffffffffffffffffffffff161415611f91576040517f08c379a0000000000000000000000000000000000000000000000000000000008152600401611f8890614f1c565b60405180910390fd5b8060076000611f9e612c9c565b73ffffffffffffffffffffffffffffffffffffffff1673ffffffffffffffffffffffffffffffffffffffff16815260200190815260200160002060008473ffffffffffffffffffffffffffffffffffffffff1673ffffffffffffffffffffffffffffffffffffffff16815260200190815260200160002060006101000a81548160ff0219169083151502179055508173ffffffffffffffffffffffffffffffffffffffff1661204b612c9c565b73ffffffffffffffffffffffffffffffffffffffff167f17307eab39ab6107e8899845ad3d59bd9653f200f220920489ca2b5937696c31836040516120909190614e24565b60405180910390a35050565b6040518060400160405280600881526020017f45584348414e4745000000000000000000000000000000000000000000000000815250600160009054906101000a900473ffffffffffffffffffffffffffffffffffffffff1673ffffffffffffffffffffffffffffffffffffffff1663f5e65c7233836040518363ffffffff1660e01b815260040161212f929190614dc6565b60206040518083038186803b15801561214757600080fd5b505afa15801561215b573d6000803e3d6000fd5b505050506040513d601f19601f8201168201806040525081019061217f919061416c565b6121be576040517f08c379a00000000000000000000000000000000000000000000000000000000081526004016121b59061515c565b60405180910390fd5b6001600d60008473ffffffffffffffffffffffffffffffffffffffff1673ffffffffffffffffffffffffffffffffffffffff1681526020019081526020016000206002015461220d91906152c3565b600d60008473ffffffffffffffffffffffffffffffffffffffff1673ffffffffffffffffffffffffffffffffffffffff168152602001908152602001600020600201819055505050565b612268612262612c9c565b83612d5d565b6122a7576040517f08c379a000000000000000000000000000000000000000000000000000000000815260040161229e9061513c565b60405180910390fd5b6122b384848484613230565b50505050565b600160009054906101000a900473ffffffffffffffffffffffffffffffffffffffff1681565b60006040518060400160405280600981526020017f4745545245574152440000000000000000000000000000000000000000000000815250600160009054906101000a900473ffffffffffffffffffffffffffffffffffffffff1673ffffffffffffffffffffffffffffffffffffffff1663466f98e860006040518263ffffffff1660e01b81526004016123739190614df6565b60206040518083038186803b15801561238b57600080fd5b505afa15801561239f573d6000803e3d6000fd5b505050506040513d601f19601f820116820180604052508101906123c3919061416c565b15612403576040517f08c379a00000000000000000000000000000000000000000000000000000000081526004016123fa90614f3c565b60405180910390fd5b600160009054906101000a900473ffffffffffffffffffffffffffffffffffffffff1673ffffffffffffffffffffffffffffffffffffffff1663466f98e86000836040518363ffffffff1660e01b8152600401612461929190614dc6565b60206040518083038186803b15801561247957600080fd5b505afa15801561248d573d6000803e3d6000fd5b505050506040513d601f19601f820116820180604052508101906124b1919061416c565b156124f1576040517f08c379a00000000000000000000000000000000000000000000000000000000081526004016124e89061507c565b60405180910390fd5b600160009054906101000a900473ffffffffffffffffffffffffffffffffffffffff1673ffffffffffffffffffffffffffffffffffffffff1663466f98e8336040518263ffffffff1660e01b815260040161254c9190614df6565b60206040518083038186803b15801561256457600080fd5b505afa158015612578573d6000803e3d6000fd5b505050506040513d601f19601f8201168201806040525081019061259c919061416c565b156125dc576040517f08c379a00000000000000000000000000000000000000000000000000000000081526004016125d39061515c565b60405180910390fd5b600160009054906101000a900473ffffffffffffffffffffffffffffffffffffffff1673ffffffffffffffffffffffffffffffffffffffff1663466f98e833836040518363ffffffff1660e01b8152600401612639929190614dc6565b60206040518083038186803b15801561265157600080fd5b505afa158015612665573d6000803e3d6000fd5b505050506040513d601f19601f82011682018060405250810190612689919061416c565b156126c9576040517f08c379a00000000000000000000000000000000000000000000000000000000081526004016126c09061515c565b60405180910390fd5b60006126d361328c565b905060006127306305f5e100600d60008873ffffffffffffffffffffffffffffffffffffffff1673ffffffffffffffffffffffffffffffffffffffff168152602001908152602001600020600001546132e990919063ffffffff16565b90506127606305f5e100612752600960000154846132ff90919063ffffffff16565b6132ff90919063ffffffff16565b90506000600d60008773ffffffffffffffffffffffffffffffffffffffff1673ffffffffffffffffffffffffffffffffffffffff16815260200190815260200160002060010154426127b291906153a4565b90506127ec60646127de846127d085886132e990919063ffffffff16565b6132e990919063ffffffff16565b6132ff90919063ffffffff16565b945050505050919050565b606061280282612c30565b612841576040517f08c379a0000000000000000000000000000000000000000000000000000000008152600401612838906150fc565b60405180910390fd5b600061284b613315565b9050600081511161286b5760405180602001604052806000815250612896565b806128758461332c565b604051602001612886929190614d04565b6040516020818303038152906040525b915050919050565b60006128f182600e60008673ffffffffffffffffffffffffffffffffffffffff1673ffffffffffffffffffffffffffffffffffffffff1681526020019081526020016000206134d990919063ffffffff16565b905092915050565b612901613cf8565b600c60008360ff1660ff1681526020019081526020016000206040518060600160405290816000820160009054906101000a900461ffff1661ffff1661ffff1681526020016000820160029054906101000a900461ffff1661ffff1661ffff1681526020016000820160049054906101000a900460ff1660ff1660ff16815250509050919050565b6000600760008473ffffffffffffffffffffffffffffffffffffffff1673ffffffffffffffffffffffffffffffffffffffff16815260200190815260200160002060008373ffffffffffffffffffffffffffffffffffffffff1673ffffffffffffffffffffffffffffffffffffffff16815260200190815260200160002060009054906101000a900460ff16905092915050565b612a25612c9c565b73ffffffffffffffffffffffffffffffffffffffff16612a43611d2d565b73ffffffffffffffffffffffffffffffffffffffff1614612a99576040517f08c379a0000000000000000000000000000000000000000000000000000000008152600401612a90906150bc565b60405180910390fd5b600073ffffffffffffffffffffffffffffffffffffffff168173ffffffffffffffffffffffffffffffffffffffff161415612b09576040517f08c379a0000000000000000000000000000000000000000000000000000000008152600401612b0090614ebc565b60405180910390fd5b8073ffffffffffffffffffffffffffffffffffffffff1660008054906101000a900473ffffffffffffffffffffffffffffffffffffffff1673ffffffffffffffffffffffffffffffffffffffff167f8be0079c531659141344cd1fd0a4f28419497f9722a3daafe3b4186f6b6457e060405160405180910390a3806000806101000a81548173ffffffffffffffffffffffffffffffffffffffff021916908373ffffffffffffffffffffffffffffffffffffffff16021790555050565b60007f01ffc9a7000000000000000000000000000000000000000000000000000000007bffffffffffffffffffffffffffffffffffffffffffffffffffffffff1916827bffffffffffffffffffffffffffffffffffffffffffffffffffffffff1916149050919050565b60008073ffffffffffffffffffffffffffffffffffffffff166004600084815260200190815260200160002060009054906101000a900473ffffffffffffffffffffffffffffffffffffffff1673ffffffffffffffffffffffffffffffffffffffff1614159050919050565b600033905090565b816006600083815260200190815260200160002060006101000a81548173ffffffffffffffffffffffffffffffffffffffff021916908373ffffffffffffffffffffffffffffffffffffffff160217905550808273ffffffffffffffffffffffffffffffffffffffff16612d17836119c9565b73ffffffffffffffffffffffffffffffffffffffff167f8c5be1e5ebec7d5bd14f71427d1e84f3dd0314c0f7b2291e5b200ac8c7c3b92560405160405180910390a45050565b6000612d6882612c30565b612da7576040517f08c379a0000000000000000000000000000000000000000000000000000000008152600401612d9e90614f5c565b60405180910390fd5b6000612db2836119c9565b90508073ffffffffffffffffffffffffffffffffffffffff168473ffffffffffffffffffffffffffffffffffffffff161480612e2157508373ffffffffffffffffffffffffffffffffffffffff16612e09846106c2565b73ffffffffffffffffffffffffffffffffffffffff16145b80612e325750612e318185612989565b5b91505092915050565b6000612e4d836000018360001b6134f3565b905092915050565b6000612e67836000018360001b613563565b905092915050565b8273ffffffffffffffffffffffffffffffffffffffff16612e8f826119c9565b73ffffffffffffffffffffffffffffffffffffffff1614612ee5576040517f08c379a0000000000000000000000000000000000000000000000000000000008152600401612edc906150dc565b60405180910390fd5b600073ffffffffffffffffffffffffffffffffffffffff168273ffffffffffffffffffffffffffffffffffffffff161415612f55576040517f08c379a0000000000000000000000000000000000000000000000000000000008152600401612f4c90614efc565b60405180910390fd5b612f608383836136ed565b612f6b600082612ca4565b6001600560008573ffffffffffffffffffffffffffffffffffffffff1673ffffffffffffffffffffffffffffffffffffffff1681526020019081526020016000206000828254612fbb91906153a4565b925050819055506001600560008473ffffffffffffffffffffffffffffffffffffffff1673ffffffffffffffffffffffffffffffffffffffff168152602001908152602001600020600082825461301291906152c3565b92505081905550816004600083815260200190815260200160002060006101000a81548173ffffffffffffffffffffffffffffffffffffffff021916908373ffffffffffffffffffffffffffffffffffffffff160217905550808273ffffffffffffffffffffffffffffffffffffffff168473ffffffffffffffffffffffffffffffffffffffff167fddf252ad1be2c89b69c2b068fc378daa952ba7f163c4a11628f55a4df523b3ef60405160405180910390a4505050565b60006130d9826000016136f2565b9050919050565b6130fa828260405180602001604052806000815250613703565b5050565b8160ff1660096000015461311291906153a4565b6009600001819055508160ff16600d60008573ffffffffffffffffffffffffffffffffffffffff1673ffffffffffffffffffffffffffffffffffffffff1681526020019081526020016000206000015461316c91906153a4565b600d60008573ffffffffffffffffffffffffffffffffffffffff1673ffffffffffffffffffffffffffffffffffffffff168152602001908152602001600020600001819055506131ca816cffffffffffffffffffffffffff1661375e565b61322a816cffffffffffffffffffffffffff16600e60008673ffffffffffffffffffffffffffffffffffffffff1673ffffffffffffffffffffffffffffffffffffffff168152602001908152602001600020612e5590919063ffffffff16565b50505050565b61323b848484612e6f565b6132478484848461386f565b613286576040517f08c379a000000000000000000000000000000000000000000000000000000000815260040161327d90614e9c565b60405180910390fd5b50505050565b60006132a861016d6009600101546132ff90919063ffffffff16565b90506132e4603c6132d6603c6132c86018866132ff90919063ffffffff16565b6132ff90919063ffffffff16565b6132ff90919063ffffffff16565b905090565b600081836132f7919061534a565b905092915050565b6000818361330d9190615319565b905092915050565b606060405180602001604052806000815250905090565b60606000821415613374576040518060400160405280600181526020017f300000000000000000000000000000000000000000000000000000000000000081525090506134d4565b600082905060005b600082146133a657808061338f90615518565b915050600a8261339f9190615319565b915061337c565b60008167ffffffffffffffff8111156133e8577f4e487b7100000000000000000000000000000000000000000000000000000000600052604160045260246000fd5b6040519080825280601f01601f19166020018201604052801561341a5781602001600182028036833780820191505090505b5090505b600085146134cd5760018261343391906153a4565b9150600a856134429190615561565b603061344e91906152c3565b60f81b81838151811061348a577f4e487b7100000000000000000000000000000000000000000000000000000000600052603260045260246000fd5b60200101907effffffffffffffffffffffffffffffffffffffffffffffffffffffffffffff1916908160001a905350600a856134c69190615319565b945061341e565b8093505050505b919050565b60006134e88360000183613a06565b60001c905092915050565b60006134ff8383613aa0565b61355857826000018290806001815401808255809150506001900390600052602060002001600090919091909150558260000180549050836001016000848152602001908152602001600020819055506001905061355d565b600090505b92915050565b600080836001016000848152602001908152602001600020549050600081146136e157600060018261359591906153a4565b90506000600186600001805490506135ad91906153a4565b905060008660000182815481106135ed577f4e487b7100000000000000000000000000000000000000000000000000000000600052603260045260246000fd5b9060005260206000200154905080876000018481548110613637577f4e487b7100000000000000000000000000000000000000000000000000000000600052603260045260246000fd5b906000526020600020018190555060018361365291906152c3565b87600101600083815260200190815260200160002081905550866000018054806136a5577f4e487b7100000000000000000000000000000000000000000000000000000000600052603160045260246000fd5b600190038181906000526020600020016000905590558660010160008781526020019081526020016000206000905560019450505050506136e7565b60009150505b92915050565b505050565b600081600001805490509050919050565b61370d8383613ac3565b61371a600084848461386f565b613759576040517f08c379a000000000000000000000000000000000000000000000000000000000815260040161375090614e9c565b60405180910390fd5b505050565b6000613769826119c9565b9050613777816000846136ed565b613782600083612ca4565b6001600560008373ffffffffffffffffffffffffffffffffffffffff1673ffffffffffffffffffffffffffffffffffffffff16815260200190815260200160002060008282546137d291906153a4565b925050819055506004600083815260200190815260200160002060006101000a81549073ffffffffffffffffffffffffffffffffffffffff021916905581600073ffffffffffffffffffffffffffffffffffffffff168273ffffffffffffffffffffffffffffffffffffffff167fddf252ad1be2c89b69c2b068fc378daa952ba7f163c4a11628f55a4df523b3ef60405160405180910390a45050565b60006138908473ffffffffffffffffffffffffffffffffffffffff16613c91565b156139f9578373ffffffffffffffffffffffffffffffffffffffff1663150b7a026138b9612c9c565b8786866040518563ffffffff1660e01b81526004016138db9493929190614d7a565b602060405180830381600087803b1580156138f557600080fd5b505af192505050801561392657506040513d601f19601f8201168201806040525081019061392391906141be565b60015b6139a9573d8060008114613956576040519150601f19603f3d011682016040523d82523d6000602084013e61395b565b606091505b506000815114156139a1576040517f08c379a000000000000000000000000000000000000000000000000000000000815260040161399890614e9c565b60405180910390fd5b805181602001fd5b63150b7a0260e01b7bffffffffffffffffffffffffffffffffffffffffffffffffffffffff1916817bffffffffffffffffffffffffffffffffffffffffffffffffffffffff1916149150506139fe565b600190505b949350505050565b600081836000018054905011613a51576040517f08c379a0000000000000000000000000000000000000000000000000000000008152600401613a4890614e7c565b60405180910390fd5b826000018281548110613a8d577f4e487b7100000000000000000000000000000000000000000000000000000000600052603260045260246000fd5b9060005260206000200154905092915050565b600080836001016000848152602001908152602001600020541415905092915050565b600073ffffffffffffffffffffffffffffffffffffffff168273ffffffffffffffffffffffffffffffffffffffff161415613b33576040517f08c379a0000000000000000000000000000000000000000000000000000000008152600401613b2a9061503c565b60405180910390fd5b613b3c81612c30565b15613b7c576040517f08c379a0000000000000000000000000000000000000000000000000000000008152600401613b7390614edc565b60405180910390fd5b613b88600083836136ed565b6001600560008473ffffffffffffffffffffffffffffffffffffffff1673ffffffffffffffffffffffffffffffffffffffff1681526020019081526020016000206000828254613bd891906152c3565b92505081905550816004600083815260200190815260200160002060006101000a81548173ffffffffffffffffffffffffffffffffffffffff021916908373ffffffffffffffffffffffffffffffffffffffff160217905550808273ffffffffffffffffffffffffffffffffffffffff16600073ffffffffffffffffffffffffffffffffffffffff167fddf252ad1be2c89b69c2b068fc378daa952ba7f163c4a11628f55a4df523b3ef60405160405180910390a45050565b600080823b905060008111915050919050565b6040518060800160405280600060ff168152602001600061ffff168152602001600061ffff168152602001600081525090565b60405180606001604052806000815260200160008152602001600081525090565b6040518060600160405280600061ffff168152602001600061ffff168152602001600060ff1681525090565b6000613d37613d3284615250565b61521f565b905082815260208101848484011115613d4f57600080fd5b613d5a8482856154a4565b509392505050565b600081359050613d718161565f565b92915050565b600081519050613d868161565f565b92915050565b600081359050613d9b81615676565b92915050565b600081519050613db081615676565b92915050565b600081359050613dc58161568d565b92915050565b600081519050613dda8161568d565b92915050565b600082601f830112613df157600080fd5b8135613e01848260208601613d24565b91505092915050565b600060808284031215613e1c57600080fd5b613e26608061521f565b90506000613e3684828501613efc565b6000830152506020613e4a84828501613ea8565b6020830152506040613e5e84828501613ea8565b6040830152506060613e7284828501613ed2565b60608301525092915050565b600081359050613e8d816156a4565b92915050565b600081359050613ea2816156bb565b92915050565b600081519050613eb7816156bb565b92915050565b600081359050613ecc816156d2565b92915050565b600081519050613ee1816156d2565b92915050565b600081359050613ef6816156e9565b92915050565b600081519050613f0b816156e9565b92915050565b600060208284031215613f2357600080fd5b6000613f3184828501613d62565b91505092915050565b600060208284031215613f4c57600080fd5b6000613f5a84828501613d77565b91505092915050565b60008060408385031215613f7657600080fd5b6000613f8485828601613d62565b9250506020613f9585828601613d62565b9150509250929050565b600080600060608486031215613fb457600080fd5b6000613fc286828701613d62565b9350506020613fd386828701613d62565b9250506040613fe486828701613ebd565b9150509250925092565b6000806000806080858703121561400457600080fd5b600061401287828801613d62565b945050602061402387828801613d62565b935050604061403487828801613ebd565b925050606085013567ffffffffffffffff81111561405157600080fd5b61405d87828801613de0565b91505092959194509250565b6000806040838503121561407c57600080fd5b600061408a85828601613d62565b925050602061409b85828601613d8c565b9150509250929050565b600080604083850312156140b857600080fd5b60006140c685828601613d62565b92505060206140d785828601613e7e565b9150509250929050565b600080604083850312156140f457600080fd5b600061410285828601613d62565b925050602061411385828601613ebd565b9150509250929050565b60008060006060848603121561413257600080fd5b600061414086828701613d62565b935050602061415186828701613ee7565b925050604061416286828701613e7e565b9150509250925092565b60006020828403121561417e57600080fd5b600061418c84828501613da1565b91505092915050565b6000602082840312156141a757600080fd5b60006141b584828501613db6565b91505092915050565b6000602082840312156141d057600080fd5b60006141de84828501613dcb565b91505092915050565b6000608082840312156141f957600080fd5b600061420784828501613e0a565b91505092915050565b60006020828403121561422257600080fd5b600061423084828501613ebd565b91505092915050565b60006020828403121561424b57600080fd5b600061425984828501613ee7565b91505092915050565b6000806000806080858703121561427857600080fd5b600061428687828801613ee7565b945050602061429787828801613e93565b93505060406142a887828801613e93565b92505060606142b987828801613ee7565b91505092959194509250565b6142ce816153d8565b82525050565b6142dd816153ea565b82525050565b60006142ee82615280565b6142f88185615296565b93506143088185602086016154b3565b6143118161564e565b840191505092915050565b61432581615480565b82525050565b60006143368261528b565b61434081856152a7565b93506143508185602086016154b3565b6143598161564e565b840191505092915050565b600061436f8261528b565b61437981856152b8565b93506143898185602086016154b3565b80840191505092915050565b60006143a26022836152a7565b91507f456e756d657261626c655365743a20696e646578206f7574206f6620626f756e60008301527f64730000000000000000000000000000000000000000000000000000000000006020830152604082019050919050565b60006144086032836152a7565b91507f4552433732313a207472616e7366657220746f206e6f6e20455243373231526560008301527f63656976657220696d706c656d656e74657200000000000000000000000000006020830152604082019050919050565b600061446e6026836152a7565b91507f4f776e61626c653a206e6577206f776e657220697320746865207a65726f206160008301527f64647265737300000000000000000000000000000000000000000000000000006020830152604082019050919050565b60006144d4601c836152a7565b91507f4552433732313a20746f6b656e20616c7265616479206d696e746564000000006000830152602082019050919050565b60006145146024836152a7565b91507f4552433732313a207472616e7366657220746f20746865207a65726f2061646460008301527f72657373000000000000000000000000000000000000000000000000000000006020830152604082019050919050565b600061457a6019836152a7565b91507f4552433732313a20617070726f766520746f2063616c6c6572000000000000006000830152602082019050919050565b60006145ba6027836152a7565b91507f4d656d6265723a204d61696e74656e616e6365207570677261646520696e207060008301527f726f6772657373000000000000000000000000000000000000000000000000006020830152604082019050919050565b6000614620602c836152a7565b91507f4552433732313a206f70657261746f7220717565727920666f72206e6f6e657860008301527f697374656e7420746f6b656e00000000000000000000000000000000000000006020830152604082019050919050565b6000614686601f836152a7565b91507f464947485445523a20526577617264207472616e73666572206669616c642e006000830152602082019050919050565b60006146c66038836152a7565b91507f4552433732313a20617070726f76652063616c6c6572206973206e6f74206f7760008301527f6e6572206e6f7220617070726f76656420666f7220616c6c00000000000000006020830152604082019050919050565b600061472c602a836152a7565b91507f4552433732313a2062616c616e636520717565727920666f7220746865207a6560008301527f726f2061646472657373000000000000000000000000000000000000000000006020830152604082019050919050565b60006147926005836152a7565b91507f464f554e440000000000000000000000000000000000000000000000000000006000830152602082019050919050565b60006147d2601c836152a7565b91507f464947485445523a2054686520726577617264206973207a65726f2e000000006000830152602082019050919050565b60006148126029836152a7565b91507f4552433732313a206f776e657220717565727920666f72206e6f6e657869737460008301527f656e7420746f6b656e00000000000000000000000000000000000000000000006020830152604082019050919050565b60006148786020836152a7565b91507f4552433732313a206d696e7420746f20746865207a65726f20616464726573736000830152602082019050919050565b60006148b8602c836152a7565b91507f4552433732313a20617070726f76656420717565727920666f72206e6f6e657860008301527f697374656e7420746f6b656e00000000000000000000000000000000000000006020830152604082019050919050565b600061491e602a836152a7565b91507f4d656d6265723a20546865206f7065726174696f6e20697320756e646572206d60008301527f61696e74656e616e6365000000000000000000000000000000000000000000006020830152604082019050919050565b60006149846005836152a7565b91507f544f4b454e0000000000000000000000000000000000000000000000000000006000830152602082019050919050565b60006149c46020836152a7565b91507f4f776e61626c653a2063616c6c6572206973206e6f7420746865206f776e65726000830152602082019050919050565b6000614a046029836152a7565b91507f4552433732313a207472616e73666572206f6620746f6b656e2074686174206960008301527f73206e6f74206f776e00000000000000000000000000000000000000000000006020830152604082019050919050565b6000614a6a602f836152a7565b91507f4552433732314d657461646174613a2055524920717565727920666f72206e6f60008301527f6e6578697374656e7420746f6b656e00000000000000000000000000000000006020830152604082019050919050565b6000614ad06021836152a7565b91507f4552433732313a20617070726f76616c20746f2063757272656e74206f776e6560008301527f72000000000000000000000000000000000000000000000000000000000000006020830152604082019050919050565b6000614b366003836152a7565b91507f414c4c00000000000000000000000000000000000000000000000000000000006000830152602082019050919050565b6000614b766031836152a7565b91507f4552433732313a207472616e736665722063616c6c6572206973206e6f74206f60008301527f776e6572206e6f7220617070726f7665640000000000000000000000000000006020830152604082019050919050565b6000614bdc6024836152a7565b91507f4d656d6265723a20546865206f7065726174696f6e206973206e6f7420616c6c60008301527f6f776564000000000000000000000000000000000000000000000000000000006020830152604082019050919050565b606082016000820151614c4b6000850182614cc8565b506020820151614c5e6020850182614cc8565b506040820151614c716040850182614cf5565b50505050565b606082016000820151614c8d6000850182614cd7565b506020820151614ca06020850182614cd7565b506040820151614cb36040850182614cd7565b50505050565b614cc281615422565b82525050565b614cd18161543b565b82525050565b614ce081615469565b82525050565b614cef81615469565b82525050565b614cfe81615473565b82525050565b6000614d108285614364565b9150614d1c8284614364565b91508190509392505050565b6000602082019050614d3d60008301846142c5565b92915050565b6000606082019050614d5860008301866142c5565b614d6560208301856142c5565b614d726040830184614ce6565b949350505050565b6000608082019050614d8f60008301876142c5565b614d9c60208301866142c5565b614da96040830185614ce6565b8181036060830152614dbb81846142e3565b905095945050505050565b6000604082019050614ddb60008301856142c5565b8181036020830152614ded818461432b565b90509392505050565b6000604082019050614e0b60008301846142c5565b8181036020830152614e1c81614b29565b905092915050565b6000602082019050614e3960008301846142d4565b92915050565b6000602082019050614e54600083018461431c565b92915050565b60006020820190508181036000830152614e74818461432b565b905092915050565b60006020820190508181036000830152614e9581614395565b9050919050565b60006020820190508181036000830152614eb5816143fb565b9050919050565b60006020820190508181036000830152614ed581614461565b9050919050565b60006020820190508181036000830152614ef5816144c7565b9050919050565b60006020820190508181036000830152614f1581614507565b9050919050565b60006020820190508181036000830152614f358161456d565b9050919050565b60006020820190508181036000830152614f55816145ad565b9050919050565b60006020820190508181036000830152614f7581614613565b9050919050565b60006020820190508181036000830152614f9581614679565b9050919050565b60006020820190508181036000830152614fb5816146b9565b9050919050565b60006020820190508181036000830152614fd58161471f565b9050919050565b60006020820190508181036000830152614ff581614785565b9050919050565b60006020820190508181036000830152615015816147c5565b9050919050565b6000602082019050818103600083015261503581614805565b9050919050565b600060208201905081810360008301526150558161486b565b9050919050565b60006020820190508181036000830152615075816148ab565b9050919050565b6000602082019050818103600083015261509581614911565b9050919050565b600060208201905081810360008301526150b581614977565b9050919050565b600060208201905081810360008301526150d5816149b7565b9050919050565b600060208201905081810360008301526150f5816149f7565b9050919050565b6000602082019050818103600083015261511581614a5d565b9050919050565b6000602082019050818103600083015261513581614ac3565b9050919050565b6000602082019050818103600083015261515581614b69565b9050919050565b6000602082019050818103600083015261517581614bcf565b9050919050565b60006060820190506151916000830184614c35565b92915050565b60006060820190506151ac6000830184614c77565b92915050565b60006020820190506151c76000830184614cb9565b92915050565b60006020820190506151e26000830184614ce6565b92915050565b60006060820190506151fd6000830186614ce6565b61520a6020830185614ce6565b6152176040830184614ce6565b949350505050565b6000604051905081810181811067ffffffffffffffff821117156152465761524561561f565b5b8060405250919050565b600067ffffffffffffffff82111561526b5761526a61561f565b5b601f19601f8301169050602081019050919050565b600081519050919050565b600081519050919050565b600082825260208201905092915050565b600082825260208201905092915050565b600081905092915050565b60006152ce82615469565b91506152d983615469565b9250827fffffffffffffffffffffffffffffffffffffffffffffffffffffffffffffffff0382111561530e5761530d615592565b5b828201905092915050565b600061532482615469565b915061532f83615469565b92508261533f5761533e6155c1565b5b828204905092915050565b600061535582615469565b915061536083615469565b9250817fffffffffffffffffffffffffffffffffffffffffffffffffffffffffffffffff048311821515161561539957615398615592565b5b828202905092915050565b60006153af82615469565b91506153ba83615469565b9250828210156153cd576153cc615592565b5b828203905092915050565b60006153e382615449565b9050919050565b60008115159050919050565b60007fffffffff0000000000000000000000000000000000000000000000000000000082169050919050565b60006cffffffffffffffffffffffffff82169050919050565b600061ffff82169050919050565b600073ffffffffffffffffffffffffffffffffffffffff82169050919050565b6000819050919050565b600060ff82169050919050565b600061548b82615492565b9050919050565b600061549d82615449565b9050919050565b82818337600083830152505050565b60005b838110156154d15780820151818401526020810190506154b6565b838111156154e0576000848401525b50505050565b600060028204905060018216806154fe57607f821691505b60208210811415615512576155116155f0565b5b50919050565b600061552382615469565b91507fffffffffffffffffffffffffffffffffffffffffffffffffffffffffffffffff82141561555657615555615592565b5b600182019050919050565b600061556c82615469565b915061557783615469565b925082615587576155866155c1565b5b828206905092915050565b7f4e487b7100000000000000000000000000000000000000000000000000000000600052601160045260246000fd5b7f4e487b7100000000000000000000000000000000000000000000000000000000600052601260045260246000fd5b7f4e487b7100000000000000000000000000000000000000000000000000000000600052602260045260246000fd5b7f4e487b7100000000000000000000000000000000000000000000000000000000600052604160045260246000fd5b6000601f19601f8301169050919050565b615668816153d8565b811461567357600080fd5b50565b61567f816153ea565b811461568a57600080fd5b50565b615696816153f6565b81146156a157600080fd5b50565b6156ad81615422565b81146156b857600080fd5b50565b6156c48161543b565b81146156cf57600080fd5b50565b6156db81615469565b81146156e657600080fd5b50565b6156f281615473565b81146156fd57600080fd5b5056fea2646970667358221220c3bc5872e663cab14157fece49e1ea958daa5427ee4deea044a658fc3771a26a64736f6c63430008000033",
  "immutableReferences": {},
  "source": "// SPDX-License-Identifier: SimPL-2.0\n\npragma solidity ^0.8.0;\n\nimport \"../authority/Member.sol\";\nimport \"../libraries/NftLibrary.sol\";\n\nimport \"@openzeppelin/contracts/token/ERC20/IERC20.sol\";\nimport \"@openzeppelin/contracts/token/ERC721/ERC721.sol\";\nimport \"@openzeppelin/contracts/utils/math/SafeMath.sol\";\nimport \"@openzeppelin/contracts/utils/structs/EnumerableSet.sol\";\n\n/**\n * @title Fighter Z Token - ERC721\n *\n * @author Bit Lighthouse. Ace\n * AT: 2021-3-28 | VERSION: v1.0.2\n */\n\ncontract Fighter is Member, ERC721 {\n    using SafeMath for uint256;\n    using EnumerableSet for EnumerableSet.UintSet;\n\n    address[] private _users;\n    NftLibrary.RecordStruct private _record;\n\n    mapping (uint8 => RateStruct) private _reward_rates;\n    mapping (address => NftLibrary.UserStruct) private _usr;\n    mapping (address => EnumerableSet.UintSet) private _tokens;\n\n    struct RateStruct { uint16 number; uint16 rate; uint8 times; }\n    event Claim(uint256 reward, uint256 power, uint256 total_power);\n\n    constructor(address auth_) Member(auth_)\n        ERC721(\"Fighter Z\", \"DBNFT\") {\n        \n        _record.reward = 1e26;\n\n        _reward_rates[0] = RateStruct({number: 7,  rate: 35, times: 7});\n        _reward_rates[1] = RateStruct({number: 3,  rate: 10, times: 1});\n        _reward_rates[2] = RateStruct({number: 5,  rate: 5,  times: 1});\n        _reward_rates[3] = RateStruct({number: 10, rate: 1,  times: 1});\n        _reward_rates[4] = RateStruct({number: 0,  rate: 0,  times: 0});\n    }\n\n    function _doBurn(\n        address account_, uint8 quality_, uint104 tokenId_\n    ) private {\n        _record.powers = _record.powers - quality_;\n        _usr[account_].powers = _usr[account_].powers - quality_;\n        \n        _burn(tokenId_);\n        _tokens[account_].remove(tokenId_);\n    }\n\n    function _getSecondReward() private view returns (uint256 sr) {\n        sr = _record.reward.div(365);\n        sr = sr.div(24).div(60).div(60);\n    }\n\n    function getRateStruct(uint8 quality_) public view\n        returns (RateStruct memory rs) {\n\n        rs = _reward_rates[quality_];\n    }\n\n    function getUserStruct(address account_) public view\n        returns (NftLibrary.UserStruct memory us) {\n\n        us = _usr[account_];\n    }\n\n    function getUserTokens(address account_, uint256 i)\n        public view returns (uint256 tokenId) {\n\n        tokenId = _tokens[account_].at(i);\n    }\n\n    function setExchangeRate(\n        uint8 quality_, uint16 number_, uint16 rate_, uint8 times_\n    ) public CheckPermit(\"CONFIG\") {\n        _reward_rates[quality_] = RateStruct({\n            number: number_, rate: rate_, times: times_\n        });\n    }\n\n    function transferFrom(\n        address from_, address to_, uint256 tokenId_\n    ) public virtual override {\n        require(\n            _isApprovedOrOwner(_msgSender(), tokenId_),\n            \"ERC721: transfer caller is not owner nor approved\"\n        );\n\n        NftLibrary.DetailStruct memory cs;\n        cs = NftLibrary.tRight(uint104(tokenId_));\n\n        _tokens[to_].add(tokenId_);\n        _tokens[from_].remove(tokenId_);\n\n        _usr[to_].powers = _usr[to_].powers + cs.quality;\n        _usr[from_].powers = _usr[from_].powers - cs.quality;\n        if (balanceOf(from_) <= 0) _usr[from_].period = 0;\n\n        _transfer(from_, to_, tokenId_);\n    }\n\n    function buy(address to_, uint104 tokenId_) public\n        CheckPermit(\"CARDSHOP\") {\n\n        NftLibrary.DetailStruct memory cs;\n        cs = NftLibrary.tRight(tokenId_);\n\n        _record.powers = _record.powers + cs.quality;\n        _usr[to_].powers = _usr[to_].powers + cs.quality;\n\n        if (cs.quality == 0) {\n            _record.specials.push(tokenId_);\n        }\n        \n        if (_usr[to_].period <= 0) {\n            _usr[to_].period = block.timestamp;\n        }\n\n        if(_tokens[to_].length() <= 0) {\n            _users.push(to_);\n        }\n\n        _safeMint(to_, tokenId_);\n        _tokens[to_].add(tokenId_);\n    }\n\n    function burn(\n        address account_, uint8 quality_, uint104 tokenId_\n    ) public CheckPermit(\"EXCHANGE\") {\n        _doBurn(account_, quality_, tokenId_);\n    }\n\n    function addExchange(address account_) public\n        CheckPermit(\"EXCHANGE\") {\n        _usr[account_].exchange = _usr[account_].exchange + 1;\n    }\n\n    function getReward(address account_) public view\n        CheckStatus(\"GETREWARD\")\n        returns (uint256 reward) {\n\n        uint256 second_reward = _getSecondReward();\n\n        uint256 power_rate = _usr[account_].powers.mul(1e8);\n        power_rate = power_rate.div(_record.powers).div(1e8);\n        uint256 period = block.timestamp - _usr[account_].period;\n\n        reward = second_reward.mul(period).mul(power_rate).div(100);\n    }\n\n    // function getTokenList(address account_) public view\n    //     CheckStatus(\"GETTOKENLIST\")\n    //     returns (NftLibrary.DetailStruct[] list) {\n\n    //     uint256 len = _tokens[account_].length();\n    //     list = new NftLibrary.DetailStruct[](len);\n\n    //     for (uint i = 0; i < len; i++) {\n    //         uint104 tokenId = _tokens[account_].at(i);\n    //         list[i] = NftLibrary.tRight(tokenId_);\n    //     }\n    // }\n\n    // function getRanking() public view returns\n    //     (NftLibrary.UserStruct[] list) {\n\n        \n    // }\n\n    function claim() public CheckStatus(\"CLAIM\") {\n        uint256 reward = getReward(msg.sender);\n        require(reward > 0, \"FIGHTER: The reward is zero.\");\n        \n        _usr[msg.sender].period = block.timestamp;\n        \n        address sender = authority.members(\"FOUND\");\n        IERC20 token = IERC20(authority.members(\"TOKEN\"));\n\n        bool success = token.transferFrom(sender, msg.sender, reward);\n        require(success, \"FIGHTER: Reward transfer fiald.\");\n\n        emit Claim(reward, _usr[msg.sender].powers, _record.powers);\n    }\n}",
  "sourcePath": "/home/ace/Projects/eth/other/dragon-ball-project/dragon-ball-contract/contracts/token/Fighter.sol",
  "compiler": {
    "name": "solc",
    "version": "0.8.0+commit.c7dfd78e.Emscripten.clang"
  },
  "schemaVersion": "3.4.3",
  "updatedAt": "2021-08-25T13:30:28.651Z",
  "networkType": "ethereum",
  "devdoc": {
    "author": "Bit Lighthouse. Ace AT: 2021-3-28 | VERSION: v1.0.2",
    "kind": "dev",
    "methods": {
      "approve(address,uint256)": {
        "details": "See {IERC721-approve}."
      },
      "balanceOf(address)": {
        "details": "See {IERC721-balanceOf}."
      },
      "getApproved(uint256)": {
        "details": "See {IERC721-getApproved}."
      },
      "isApprovedForAll(address,address)": {
        "details": "See {IERC721-isApprovedForAll}."
      },
      "name()": {
        "details": "See {IERC721Metadata-name}."
      },
      "owner()": {
        "details": "Returns the address of the current owner."
      },
      "ownerOf(uint256)": {
        "details": "See {IERC721-ownerOf}."
      },
      "renounceOwnership()": {
        "details": "Leaves the contract without owner. It will not be possible to call `onlyOwner` functions anymore. Can only be called by the current owner. NOTE: Renouncing ownership will leave the contract without an owner, thereby removing any functionality that is only available to the owner."
      },
      "safeTransferFrom(address,address,uint256)": {
        "details": "See {IERC721-safeTransferFrom}."
      },
      "safeTransferFrom(address,address,uint256,bytes)": {
        "details": "See {IERC721-safeTransferFrom}."
      },
      "setApprovalForAll(address,bool)": {
        "details": "See {IERC721-setApprovalForAll}."
      },
      "setAuthority(address)": {
        "params": {
          "authority_": "address of manager This function is onwer only"
        }
      },
      "supportsInterface(bytes4)": {
        "details": "See {IERC165-supportsInterface}."
      },
      "symbol()": {
        "details": "See {IERC721Metadata-symbol}."
      },
      "tokenURI(uint256)": {
        "details": "See {IERC721Metadata-tokenURI}."
      },
      "transferOwnership(address)": {
        "details": "Transfers ownership of the contract to a new account (`newOwner`). Can only be called by the current owner."
      }
    },
    "title": "Fighter Z Token - ERC721",
    "version": 1
  },
  "userdoc": {
    "kind": "user",
    "methods": {
      "setAuthority(address)": {
        "notice": "Set new manager"
      }
    },
    "version": 1
  }
}