{
  "contractName": "Fighter",
  "abi": [
    {
      "inputs": [
        {
          "internalType": "address",
          "name": "auth_",
          "type": "address"
        }
      ],
      "stateMutability": "nonpayable",
      "type": "constructor"
    },
    {
      "anonymous": false,
      "inputs": [
        {
          "indexed": true,
          "internalType": "address",
          "name": "owner",
          "type": "address"
        },
        {
          "indexed": true,
          "internalType": "address",
          "name": "approved",
          "type": "address"
        },
        {
          "indexed": true,
          "internalType": "uint256",
          "name": "tokenId",
          "type": "uint256"
        }
      ],
      "name": "Approval",
      "type": "event"
    },
    {
      "anonymous": false,
      "inputs": [
        {
          "indexed": true,
          "internalType": "address",
          "name": "owner",
          "type": "address"
        },
        {
          "indexed": true,
          "internalType": "address",
          "name": "operator",
          "type": "address"
        },
        {
          "indexed": false,
          "internalType": "bool",
          "name": "approved",
          "type": "bool"
        }
      ],
      "name": "ApprovalForAll",
      "type": "event"
    },
    {
      "anonymous": false,
      "inputs": [
        {
          "indexed": true,
          "internalType": "address",
          "name": "previousOwner",
          "type": "address"
        },
        {
          "indexed": true,
          "internalType": "address",
          "name": "newOwner",
          "type": "address"
        }
      ],
      "name": "OwnershipTransferred",
      "type": "event"
    },
    {
      "anonymous": false,
      "inputs": [
        {
          "indexed": true,
          "internalType": "address",
          "name": "from",
          "type": "address"
        },
        {
          "indexed": true,
          "internalType": "address",
          "name": "to",
          "type": "address"
        },
        {
          "indexed": true,
          "internalType": "uint256",
          "name": "tokenId",
          "type": "uint256"
        }
      ],
      "name": "Transfer",
      "type": "event"
    },
    {
      "inputs": [
        {
          "internalType": "address",
          "name": "to",
          "type": "address"
        },
        {
          "internalType": "uint256",
          "name": "tokenId",
          "type": "uint256"
        }
      ],
      "name": "approve",
      "outputs": [],
      "stateMutability": "nonpayable",
      "type": "function"
    },
    {
      "inputs": [],
      "name": "authority",
      "outputs": [
        {
          "internalType": "contract Authority",
          "name": "",
          "type": "address"
        }
      ],
      "stateMutability": "view",
      "type": "function",
      "constant": true
    },
    {
      "inputs": [
        {
          "internalType": "address",
          "name": "owner",
          "type": "address"
        }
      ],
      "name": "balanceOf",
      "outputs": [
        {
          "internalType": "uint256",
          "name": "",
          "type": "uint256"
        }
      ],
      "stateMutability": "view",
      "type": "function",
      "constant": true
    },
    {
      "inputs": [
        {
          "internalType": "string",
          "name": "",
          "type": "string"
        }
      ],
      "name": "configs",
      "outputs": [
        {
          "internalType": "uint256",
          "name": "",
          "type": "uint256"
        }
      ],
      "stateMutability": "view",
      "type": "function",
      "constant": true
    },
    {
      "inputs": [
        {
          "internalType": "uint256",
          "name": "tokenId",
          "type": "uint256"
        }
      ],
      "name": "getApproved",
      "outputs": [
        {
          "internalType": "address",
          "name": "",
          "type": "address"
        }
      ],
      "stateMutability": "view",
      "type": "function",
      "constant": true
    },
    {
      "inputs": [
        {
          "internalType": "address",
          "name": "owner",
          "type": "address"
        },
        {
          "internalType": "address",
          "name": "operator",
          "type": "address"
        }
      ],
      "name": "isApprovedForAll",
      "outputs": [
        {
          "internalType": "bool",
          "name": "",
          "type": "bool"
        }
      ],
      "stateMutability": "view",
      "type": "function",
      "constant": true
    },
    {
      "inputs": [],
      "name": "name",
      "outputs": [
        {
          "internalType": "string",
          "name": "",
          "type": "string"
        }
      ],
      "stateMutability": "view",
      "type": "function",
      "constant": true
    },
    {
      "inputs": [],
      "name": "owner",
      "outputs": [
        {
          "internalType": "address",
          "name": "",
          "type": "address"
        }
      ],
      "stateMutability": "view",
      "type": "function",
      "constant": true
    },
    {
      "inputs": [
        {
          "internalType": "uint256",
          "name": "tokenId",
          "type": "uint256"
        }
      ],
      "name": "ownerOf",
      "outputs": [
        {
          "internalType": "address",
          "name": "",
          "type": "address"
        }
      ],
      "stateMutability": "view",
      "type": "function",
      "constant": true
    },
    {
      "inputs": [],
      "name": "renounceOwnership",
      "outputs": [],
      "stateMutability": "nonpayable",
      "type": "function"
    },
    {
      "inputs": [
        {
          "internalType": "address",
          "name": "from",
          "type": "address"
        },
        {
          "internalType": "address",
          "name": "to",
          "type": "address"
        },
        {
          "internalType": "uint256",
          "name": "tokenId",
          "type": "uint256"
        }
      ],
      "name": "safeTransferFrom",
      "outputs": [],
      "stateMutability": "nonpayable",
      "type": "function"
    },
    {
      "inputs": [
        {
          "internalType": "address",
          "name": "from",
          "type": "address"
        },
        {
          "internalType": "address",
          "name": "to",
          "type": "address"
        },
        {
          "internalType": "uint256",
          "name": "tokenId",
          "type": "uint256"
        },
        {
          "internalType": "bytes",
          "name": "_data",
          "type": "bytes"
        }
      ],
      "name": "safeTransferFrom",
      "outputs": [],
      "stateMutability": "nonpayable",
      "type": "function"
    },
    {
      "inputs": [
        {
          "internalType": "address",
          "name": "operator",
          "type": "address"
        },
        {
          "internalType": "bool",
          "name": "approved",
          "type": "bool"
        }
      ],
      "name": "setApprovalForAll",
      "outputs": [],
      "stateMutability": "nonpayable",
      "type": "function"
    },
    {
      "inputs": [
        {
          "internalType": "address",
          "name": "authority_",
          "type": "address"
        }
      ],
      "name": "setAuthority",
      "outputs": [],
      "stateMutability": "nonpayable",
      "type": "function"
    },
    {
      "inputs": [
        {
          "internalType": "string",
          "name": "name_",
          "type": "string"
        },
        {
          "internalType": "uint256",
          "name": "config_",
          "type": "uint256"
        }
      ],
      "name": "setConfig",
      "outputs": [],
      "stateMutability": "nonpayable",
      "type": "function"
    },
    {
      "inputs": [
        {
          "internalType": "bytes4",
          "name": "interfaceId",
          "type": "bytes4"
        }
      ],
      "name": "supportsInterface",
      "outputs": [
        {
          "internalType": "bool",
          "name": "",
          "type": "bool"
        }
      ],
      "stateMutability": "view",
      "type": "function",
      "constant": true
    },
    {
      "inputs": [],
      "name": "symbol",
      "outputs": [
        {
          "internalType": "string",
          "name": "",
          "type": "string"
        }
      ],
      "stateMutability": "view",
      "type": "function",
      "constant": true
    },
    {
      "inputs": [
        {
          "internalType": "uint256",
          "name": "tokenId",
          "type": "uint256"
        }
      ],
      "name": "tokenURI",
      "outputs": [
        {
          "internalType": "string",
          "name": "",
          "type": "string"
        }
      ],
      "stateMutability": "view",
      "type": "function",
      "constant": true
    },
    {
      "inputs": [
        {
          "internalType": "address",
          "name": "from",
          "type": "address"
        },
        {
          "internalType": "address",
          "name": "to",
          "type": "address"
        },
        {
          "internalType": "uint256",
          "name": "tokenId",
          "type": "uint256"
        }
      ],
      "name": "transferFrom",
      "outputs": [],
      "stateMutability": "nonpayable",
      "type": "function"
    },
    {
      "inputs": [
        {
          "internalType": "address",
          "name": "newOwner",
          "type": "address"
        }
      ],
      "name": "transferOwnership",
      "outputs": [],
      "stateMutability": "nonpayable",
      "type": "function"
    },
    {
      "inputs": [
        {
          "internalType": "address",
          "name": "to_",
          "type": "address"
        },
        {
          "internalType": "uint112",
          "name": "tokenId_",
          "type": "uint112"
        }
      ],
      "name": "doBuy",
      "outputs": [],
      "stateMutability": "nonpayable",
      "type": "function"
    },
    {
      "inputs": [
        {
          "internalType": "uint112",
          "name": "tokenId_",
          "type": "uint112"
        }
      ],
      "name": "doBurn",
      "outputs": [],
      "stateMutability": "nonpayable",
      "type": "function"
    }
  ],
  "bytecode": "0x60806040523480156200001157600080fd5b506040516200380c3803806200380c8339818101604052810190620000379190620002a0565b6040518060400160405280600981526020017f46696768746572205a00000000000000000000000000000000000000000000008152506040518060400160405280600581526020017f44424e4654000000000000000000000000000000000000000000000000000000815250826000620000b6620001d160201b60201c565b9050806000806101000a81548173ffffffffffffffffffffffffffffffffffffffff021916908373ffffffffffffffffffffffffffffffffffffffff1602179055508073ffffffffffffffffffffffffffffffffffffffff16600073ffffffffffffffffffffffffffffffffffffffff167f8be0079c531659141344cd1fd0a4f28419497f9722a3daafe3b4186f6b6457e060405160405180910390a35080600160006101000a81548173ffffffffffffffffffffffffffffffffffffffff021916908373ffffffffffffffffffffffffffffffffffffffff160217905550508160039080519060200190620001ae929190620001d9565b508060049080519060200190620001c7929190620001d9565b505050506200037f565b600033905090565b828054620001e79062000300565b90600052602060002090601f0160209004810192826200020b576000855562000257565b82601f106200022657805160ff191683800117855562000257565b8280016001018555821562000257579182015b828111156200025657825182559160200191906001019062000239565b5b5090506200026691906200026a565b5090565b5b80821115620002855760008160009055506001016200026b565b5090565b6000815190506200029a8162000365565b92915050565b600060208284031215620002b357600080fd5b6000620002c38482850162000289565b91505092915050565b6000620002d982620002e0565b9050919050565b600073ffffffffffffffffffffffffffffffffffffffff82169050919050565b600060028204905060018216806200031957607f821691505b6020821081141562000330576200032f62000336565b5b50919050565b7f4e487b7100000000000000000000000000000000000000000000000000000000600052602260045260246000fd5b6200037081620002cc565b81146200037c57600080fd5b50565b61347d806200038f6000396000f3fe608060405234801561001057600080fd5b50600436106101425760003560e01c80637a9e5e4b116100b8578063bf7e214f1161007c578063bf7e214f1461035f578063c87b56dd1461037d578063cae02df5146103ad578063e985e9c5146103c9578063f2fde38b146103f9578063f9d526d31461041557610142565b80637a9e5e4b146102cf5780638da5cb5b146102eb57806395d89b4114610309578063a22cb46514610327578063b88d4fde1461034357610142565b80633e8f5b901161010a5780633e8f5b90146101fd57806342842e0e146102195780635ef7fbad146102355780636352211e1461026557806370a0823114610295578063715018a6146102c557610142565b806301ffc9a71461014757806306fdde0314610177578063081812fc14610195578063095ea7b3146101c557806323b872dd146101e1575b600080fd5b610161600480360381019061015c919061242d565b610431565b60405161016e9190612d45565b60405180910390f35b61017f610513565b60405161018c9190612d7b565b60405180910390f35b6101af60048036038101906101aa919061253d565b6105a5565b6040516101bc9190612cae565b60405180910390f35b6101df60048036038101906101da91906123c8565b61062a565b005b6101fb60048036038101906101f69190612286565b610742565b005b610217600480360381019061021291906124c0565b6107a2565b005b610233600480360381019061022e9190612286565b6108ec565b005b61024f600480360381019061024a919061247f565b61090c565b60405161025c9190612fbd565b60405180910390f35b61027f600480360381019061027a919061253d565b61093a565b60405161028c9190612cae565b60405180910390f35b6102af60048036038101906102aa9190612221565b6109ec565b6040516102bc9190612fbd565b60405180910390f35b6102cd610aa4565b005b6102e960048036038101906102e49190612221565b610bde565b005b6102f3610c9e565b6040516103009190612cae565b60405180910390f35b610311610cc7565b60405161031e9190612d7b565b60405180910390f35b610341600480360381019061033c9190612350565b610d59565b005b61035d600480360381019061035891906122d5565b610eda565b005b610367610f3c565b6040516103749190612d60565b60405180910390f35b6103976004803603810190610392919061253d565b610f62565b6040516103a49190612d7b565b60405180910390f35b6103c760048036038101906103c29190612514565b611009565b005b6103e360048036038101906103de919061224a565b611148565b6040516103f09190612d45565b60405180910390f35b610413600480360381019061040e9190612221565b6111dc565b005b61042f600480360381019061042a919061238c565b611385565b005b60007f80ac58cd000000000000000000000000000000000000000000000000000000007bffffffffffffffffffffffffffffffffffffffffffffffffffffffff1916827bffffffffffffffffffffffffffffffffffffffffffffffffffffffff191614806104fc57507f5b5e139f000000000000000000000000000000000000000000000000000000007bffffffffffffffffffffffffffffffffffffffffffffffffffffffff1916827bffffffffffffffffffffffffffffffffffffffffffffffffffffffff1916145b8061050c575061050b826114c6565b5b9050919050565b6060600380546105229061325b565b80601f016020809104026020016040519081016040528092919081815260200182805461054e9061325b565b801561059b5780601f106105705761010080835404028352916020019161059b565b820191906000526020600020905b81548152906001019060200180831161057e57829003601f168201915b5050505050905090565b60006105b082611530565b6105ef576040517f08c379a00000000000000000000000000000000000000000000000000000000081526004016105e690612edd565b60405180910390fd5b6007600083815260200190815260200160002060009054906101000a900473ffffffffffffffffffffffffffffffffffffffff169050919050565b60006106358261093a565b90508073ffffffffffffffffffffffffffffffffffffffff168373ffffffffffffffffffffffffffffffffffffffff1614156106a6576040517f08c379a000000000000000000000000000000000000000000000000000000000815260040161069d90612f5d565b60405180910390fd5b8073ffffffffffffffffffffffffffffffffffffffff166106c561159c565b73ffffffffffffffffffffffffffffffffffffffff1614806106f457506106f3816106ee61159c565b611148565b5b610733576040517f08c379a000000000000000000000000000000000000000000000000000000000815260040161072a90612e5d565b60405180910390fd5b61073d83836115a4565b505050565b61075361074d61159c565b8261165d565b610792576040517f08c379a000000000000000000000000000000000000000000000000000000000815260040161078990612f7d565b60405180910390fd5b61079d83838361173b565b505050565b6040518060400160405280600681526020017f434f4e4649470000000000000000000000000000000000000000000000000000815250600160009054906101000a900473ffffffffffffffffffffffffffffffffffffffff1673ffffffffffffffffffffffffffffffffffffffff1663f5e65c7233836040518363ffffffff1660e01b8152600401610835929190612d15565b60206040518083038186803b15801561084d57600080fd5b505afa158015610861573d6000803e3d6000fd5b505050506040513d601f19601f820116820180604052508101906108859190612404565b6108c4576040517f08c379a00000000000000000000000000000000000000000000000000000000081526004016108bb90612f9d565b60405180910390fd5b816002846040516108d59190612c73565b908152602001604051809103902081905550505050565b61090783838360405180602001604052806000815250610eda565b505050565b6002818051602081018201805184825260208301602085012081835280955050505050506000915090505481565b6000806005600084815260200190815260200160002060009054906101000a900473ffffffffffffffffffffffffffffffffffffffff169050600073ffffffffffffffffffffffffffffffffffffffff168173ffffffffffffffffffffffffffffffffffffffff1614156109e3576040517f08c379a00000000000000000000000000000000000000000000000000000000081526004016109da90612e9d565b60405180910390fd5b80915050919050565b60008073ffffffffffffffffffffffffffffffffffffffff168273ffffffffffffffffffffffffffffffffffffffff161415610a5d576040517f08c379a0000000000000000000000000000000000000000000000000000000008152600401610a5490612e7d565b60405180910390fd5b600660008373ffffffffffffffffffffffffffffffffffffffff1673ffffffffffffffffffffffffffffffffffffffff168152602001908152602001600020549050919050565b610aac61159c565b73ffffffffffffffffffffffffffffffffffffffff16610aca610c9e565b73ffffffffffffffffffffffffffffffffffffffff1614610b20576040517f08c379a0000000000000000000000000000000000000000000000000000000008152600401610b1790612efd565b60405180910390fd5b600073ffffffffffffffffffffffffffffffffffffffff1660008054906101000a900473ffffffffffffffffffffffffffffffffffffffff1673ffffffffffffffffffffffffffffffffffffffff167f8be0079c531659141344cd1fd0a4f28419497f9722a3daafe3b4186f6b6457e060405160405180910390a360008060006101000a81548173ffffffffffffffffffffffffffffffffffffffff021916908373ffffffffffffffffffffffffffffffffffffffff160217905550565b610be661159c565b73ffffffffffffffffffffffffffffffffffffffff16610c04610c9e565b73ffffffffffffffffffffffffffffffffffffffff1614610c5a576040517f08c379a0000000000000000000000000000000000000000000000000000000008152600401610c5190612efd565b60405180910390fd5b80600160006101000a81548173ffffffffffffffffffffffffffffffffffffffff021916908373ffffffffffffffffffffffffffffffffffffffff16021790555050565b60008060009054906101000a900473ffffffffffffffffffffffffffffffffffffffff16905090565b606060048054610cd69061325b565b80601f0160208091040260200160405190810160405280929190818152602001828054610d029061325b565b8015610d4f5780601f10610d2457610100808354040283529160200191610d4f565b820191906000526020600020905b815481529060010190602001808311610d3257829003601f168201915b5050505050905090565b610d6161159c565b73ffffffffffffffffffffffffffffffffffffffff168273ffffffffffffffffffffffffffffffffffffffff161415610dcf576040517f08c379a0000000000000000000000000000000000000000000000000000000008152600401610dc690612e1d565b60405180910390fd5b8060086000610ddc61159c565b73ffffffffffffffffffffffffffffffffffffffff1673ffffffffffffffffffffffffffffffffffffffff16815260200190815260200160002060008473ffffffffffffffffffffffffffffffffffffffff1673ffffffffffffffffffffffffffffffffffffffff16815260200190815260200160002060006101000a81548160ff0219169083151502179055508173ffffffffffffffffffffffffffffffffffffffff16610e8961159c565b73ffffffffffffffffffffffffffffffffffffffff167f17307eab39ab6107e8899845ad3d59bd9653f200f220920489ca2b5937696c3183604051610ece9190612d45565b60405180910390a35050565b610eeb610ee561159c565b8361165d565b610f2a576040517f08c379a0000000000000000000000000000000000000000000000000000000008152600401610f2190612f7d565b60405180910390fd5b610f3684848484611997565b50505050565b600160009054906101000a900473ffffffffffffffffffffffffffffffffffffffff1681565b6060610f6d82611530565b610fac576040517f08c379a0000000000000000000000000000000000000000000000000000000008152600401610fa390612f3d565b60405180910390fd5b6000610fb66119f3565b90506000815111610fd65760405180602001604052806000815250611001565b80610fe084611a0a565b604051602001610ff1929190612c8a565b6040516020818303038152906040525b915050919050565b6040518060400160405280600a81526020017f4341524452455741524400000000000000000000000000000000000000000000815250600160009054906101000a900473ffffffffffffffffffffffffffffffffffffffff1673ffffffffffffffffffffffffffffffffffffffff1663f5e65c7233836040518363ffffffff1660e01b815260040161109c929190612d15565b60206040518083038186803b1580156110b457600080fd5b505afa1580156110c8573d6000803e3d6000fd5b505050506040513d601f19601f820116820180604052508101906110ec9190612404565b61112b576040517f08c379a000000000000000000000000000000000000000000000000000000000815260040161112290612f9d565b60405180910390fd5b611144826dffffffffffffffffffffffffffff16611bb7565b5050565b6000600860008473ffffffffffffffffffffffffffffffffffffffff1673ffffffffffffffffffffffffffffffffffffffff16815260200190815260200160002060008373ffffffffffffffffffffffffffffffffffffffff1673ffffffffffffffffffffffffffffffffffffffff16815260200190815260200160002060009054906101000a900460ff16905092915050565b6111e461159c565b73ffffffffffffffffffffffffffffffffffffffff16611202610c9e565b73ffffffffffffffffffffffffffffffffffffffff1614611258576040517f08c379a000000000000000000000000000000000000000000000000000000000815260040161124f90612efd565b60405180910390fd5b600073ffffffffffffffffffffffffffffffffffffffff168173ffffffffffffffffffffffffffffffffffffffff1614156112c8576040517f08c379a00000000000000000000000000000000000000000000000000000000081526004016112bf90612dbd565b60405180910390fd5b8073ffffffffffffffffffffffffffffffffffffffff1660008054906101000a900473ffffffffffffffffffffffffffffffffffffffff1673ffffffffffffffffffffffffffffffffffffffff167f8be0079c531659141344cd1fd0a4f28419497f9722a3daafe3b4186f6b6457e060405160405180910390a3806000806101000a81548173ffffffffffffffffffffffffffffffffffffffff021916908373ffffffffffffffffffffffffffffffffffffffff16021790555050565b6040518060400160405280600881526020017f4341524453484f50000000000000000000000000000000000000000000000000815250600160009054906101000a900473ffffffffffffffffffffffffffffffffffffffff1673ffffffffffffffffffffffffffffffffffffffff1663f5e65c7233836040518363ffffffff1660e01b8152600401611418929190612d15565b60206040518083038186803b15801561143057600080fd5b505afa158015611444573d6000803e3d6000fd5b505050506040513d601f19601f820116820180604052508101906114689190612404565b6114a7576040517f08c379a000000000000000000000000000000000000000000000000000000000815260040161149e90612f9d565b60405180910390fd5b6114c183836dffffffffffffffffffffffffffff16611cc8565b505050565b60007f01ffc9a7000000000000000000000000000000000000000000000000000000007bffffffffffffffffffffffffffffffffffffffffffffffffffffffff1916827bffffffffffffffffffffffffffffffffffffffffffffffffffffffff1916149050919050565b60008073ffffffffffffffffffffffffffffffffffffffff166005600084815260200190815260200160002060009054906101000a900473ffffffffffffffffffffffffffffffffffffffff1673ffffffffffffffffffffffffffffffffffffffff1614159050919050565b600033905090565b816007600083815260200190815260200160002060006101000a81548173ffffffffffffffffffffffffffffffffffffffff021916908373ffffffffffffffffffffffffffffffffffffffff160217905550808273ffffffffffffffffffffffffffffffffffffffff166116178361093a565b73ffffffffffffffffffffffffffffffffffffffff167f8c5be1e5ebec7d5bd14f71427d1e84f3dd0314c0f7b2291e5b200ac8c7c3b92560405160405180910390a45050565b600061166882611530565b6116a7576040517f08c379a000000000000000000000000000000000000000000000000000000000815260040161169e90612e3d565b60405180910390fd5b60006116b28361093a565b90508073ffffffffffffffffffffffffffffffffffffffff168473ffffffffffffffffffffffffffffffffffffffff16148061172157508373ffffffffffffffffffffffffffffffffffffffff16611709846105a5565b73ffffffffffffffffffffffffffffffffffffffff16145b8061173257506117318185611148565b5b91505092915050565b8273ffffffffffffffffffffffffffffffffffffffff1661175b8261093a565b73ffffffffffffffffffffffffffffffffffffffff16146117b1576040517f08c379a00000000000000000000000000000000000000000000000000000000081526004016117a890612f1d565b60405180910390fd5b600073ffffffffffffffffffffffffffffffffffffffff168273ffffffffffffffffffffffffffffffffffffffff161415611821576040517f08c379a000000000000000000000000000000000000000000000000000000000815260040161181890612dfd565b60405180910390fd5b61182c838383611ce6565b6118376000826115a4565b6001600660008573ffffffffffffffffffffffffffffffffffffffff1673ffffffffffffffffffffffffffffffffffffffff16815260200190815260200160002060008282546118879190613133565b925050819055506001600660008473ffffffffffffffffffffffffffffffffffffffff1673ffffffffffffffffffffffffffffffffffffffff16815260200190815260200160002060008282546118de91906130ac565b92505081905550816005600083815260200190815260200160002060006101000a81548173ffffffffffffffffffffffffffffffffffffffff021916908373ffffffffffffffffffffffffffffffffffffffff160217905550808273ffffffffffffffffffffffffffffffffffffffff168473ffffffffffffffffffffffffffffffffffffffff167fddf252ad1be2c89b69c2b068fc378daa952ba7f163c4a11628f55a4df523b3ef60405160405180910390a4505050565b6119a284848461173b565b6119ae84848484611ceb565b6119ed576040517f08c379a00000000000000000000000000000000000000000000000000000000081526004016119e490612d9d565b60405180910390fd5b50505050565b606060405180602001604052806000815250905090565b60606000821415611a52576040518060400160405280600181526020017f30000000000000000000000000000000000000000000000000000000000000008152509050611bb2565b600082905060005b60008214611a84578080611a6d9061328d565b915050600a82611a7d9190613102565b9150611a5a565b60008167ffffffffffffffff811115611ac6577f4e487b7100000000000000000000000000000000000000000000000000000000600052604160045260246000fd5b6040519080825280601f01601f191660200182016040528015611af85781602001600182028036833780820191505090505b5090505b60008514611bab57600182611b119190613133565b9150600a85611b2091906132d6565b6030611b2c91906130ac565b60f81b818381518110611b68577f4e487b7100000000000000000000000000000000000000000000000000000000600052603260045260246000fd5b60200101907effffffffffffffffffffffffffffffffffffffffffffffffffffffffffffff1916908160001a905350600a85611ba49190613102565b9450611afc565b8093505050505b919050565b6000611bc28261093a565b9050611bd081600084611ce6565b611bdb6000836115a4565b6001600660008373ffffffffffffffffffffffffffffffffffffffff1673ffffffffffffffffffffffffffffffffffffffff1681526020019081526020016000206000828254611c2b9190613133565b925050819055506005600083815260200190815260200160002060006101000a81549073ffffffffffffffffffffffffffffffffffffffff021916905581600073ffffffffffffffffffffffffffffffffffffffff168273ffffffffffffffffffffffffffffffffffffffff167fddf252ad1be2c89b69c2b068fc378daa952ba7f163c4a11628f55a4df523b3ef60405160405180910390a45050565b611ce2828260405180602001604052806000815250611e82565b5050565b505050565b6000611d0c8473ffffffffffffffffffffffffffffffffffffffff16611edd565b15611e75578373ffffffffffffffffffffffffffffffffffffffff1663150b7a02611d3561159c565b8786866040518563ffffffff1660e01b8152600401611d579493929190612cc9565b602060405180830381600087803b158015611d7157600080fd5b505af1925050508015611da257506040513d601f19601f82011682018060405250810190611d9f9190612456565b60015b611e25573d8060008114611dd2576040519150601f19603f3d011682016040523d82523d6000602084013e611dd7565b606091505b50600081511415611e1d576040517f08c379a0000000000000000000000000000000000000000000000000000000008152600401611e1490612d9d565b60405180910390fd5b805181602001fd5b63150b7a0260e01b7bffffffffffffffffffffffffffffffffffffffffffffffffffffffff1916817bffffffffffffffffffffffffffffffffffffffffffffffffffffffff191614915050611e7a565b600190505b949350505050565b611e8c8383611ef0565b611e996000848484611ceb565b611ed8576040517f08c379a0000000000000000000000000000000000000000000000000000000008152600401611ecf90612d9d565b60405180910390fd5b505050565b600080823b905060008111915050919050565b600073ffffffffffffffffffffffffffffffffffffffff168273ffffffffffffffffffffffffffffffffffffffff161415611f60576040517f08c379a0000000000000000000000000000000000000000000000000000000008152600401611f5790612ebd565b60405180910390fd5b611f6981611530565b15611fa9576040517f08c379a0000000000000000000000000000000000000000000000000000000008152600401611fa090612ddd565b60405180910390fd5b611fb560008383611ce6565b6001600660008473ffffffffffffffffffffffffffffffffffffffff1673ffffffffffffffffffffffffffffffffffffffff168152602001908152602001600020600082825461200591906130ac565b92505081905550816005600083815260200190815260200160002060006101000a81548173ffffffffffffffffffffffffffffffffffffffff021916908373ffffffffffffffffffffffffffffffffffffffff160217905550808273ffffffffffffffffffffffffffffffffffffffff16600073ffffffffffffffffffffffffffffffffffffffff167fddf252ad1be2c89b69c2b068fc378daa952ba7f163c4a11628f55a4df523b3ef60405160405180910390a45050565b60006120d16120cc84613009565b612fd8565b9050828152602081018484840111156120e957600080fd5b6120f4848285613219565b509392505050565b600061210f61210a84613039565b612fd8565b90508281526020810184848401111561212757600080fd5b612132848285613219565b509392505050565b600081359050612149816133d4565b92915050565b60008135905061215e816133eb565b92915050565b600081519050612173816133eb565b92915050565b60008135905061218881613402565b92915050565b60008151905061219d81613402565b92915050565b600082601f8301126121b457600080fd5b81356121c48482602086016120be565b91505092915050565b600082601f8301126121de57600080fd5b81356121ee8482602086016120fc565b91505092915050565b60008135905061220681613419565b92915050565b60008135905061221b81613430565b92915050565b60006020828403121561223357600080fd5b60006122418482850161213a565b91505092915050565b6000806040838503121561225d57600080fd5b600061226b8582860161213a565b925050602061227c8582860161213a565b9150509250929050565b60008060006060848603121561229b57600080fd5b60006122a98682870161213a565b93505060206122ba8682870161213a565b92505060406122cb8682870161220c565b9150509250925092565b600080600080608085870312156122eb57600080fd5b60006122f98782880161213a565b945050602061230a8782880161213a565b935050604061231b8782880161220c565b925050606085013567ffffffffffffffff81111561233857600080fd5b612344878288016121a3565b91505092959194509250565b6000806040838503121561236357600080fd5b60006123718582860161213a565b92505060206123828582860161214f565b9150509250929050565b6000806040838503121561239f57600080fd5b60006123ad8582860161213a565b92505060206123be858286016121f7565b9150509250929050565b600080604083850312156123db57600080fd5b60006123e98582860161213a565b92505060206123fa8582860161220c565b9150509250929050565b60006020828403121561241657600080fd5b600061242484828501612164565b91505092915050565b60006020828403121561243f57600080fd5b600061244d84828501612179565b91505092915050565b60006020828403121561246857600080fd5b60006124768482850161218e565b91505092915050565b60006020828403121561249157600080fd5b600082013567ffffffffffffffff8111156124ab57600080fd5b6124b7848285016121cd565b91505092915050565b600080604083850312156124d357600080fd5b600083013567ffffffffffffffff8111156124ed57600080fd5b6124f9858286016121cd565b925050602061250a8582860161220c565b9150509250929050565b60006020828403121561252657600080fd5b6000612534848285016121f7565b91505092915050565b60006020828403121561254f57600080fd5b600061255d8482850161220c565b91505092915050565b61256f81613167565b82525050565b61257e81613179565b82525050565b600061258f82613069565b612599818561307f565b93506125a9818560208601613228565b6125b2816133c3565b840191505092915050565b6125c6816131f5565b82525050565b60006125d782613074565b6125e18185613090565b93506125f1818560208601613228565b6125fa816133c3565b840191505092915050565b600061261082613074565b61261a81856130a1565b935061262a818560208601613228565b80840191505092915050565b6000612643603283613090565b91507f4552433732313a207472616e7366657220746f206e6f6e20455243373231526560008301527f63656976657220696d706c656d656e74657200000000000000000000000000006020830152604082019050919050565b60006126a9602683613090565b91507f4f776e61626c653a206e6577206f776e657220697320746865207a65726f206160008301527f64647265737300000000000000000000000000000000000000000000000000006020830152604082019050919050565b600061270f601c83613090565b91507f4552433732313a20746f6b656e20616c7265616479206d696e746564000000006000830152602082019050919050565b600061274f602483613090565b91507f4552433732313a207472616e7366657220746f20746865207a65726f2061646460008301527f72657373000000000000000000000000000000000000000000000000000000006020830152604082019050919050565b60006127b5601983613090565b91507f4552433732313a20617070726f766520746f2063616c6c6572000000000000006000830152602082019050919050565b60006127f5602c83613090565b91507f4552433732313a206f70657261746f7220717565727920666f72206e6f6e657860008301527f697374656e7420746f6b656e00000000000000000000000000000000000000006020830152604082019050919050565b600061285b603883613090565b91507f4552433732313a20617070726f76652063616c6c6572206973206e6f74206f7760008301527f6e6572206e6f7220617070726f76656420666f7220616c6c00000000000000006020830152604082019050919050565b60006128c1602a83613090565b91507f4552433732313a2062616c616e636520717565727920666f7220746865207a6560008301527f726f2061646472657373000000000000000000000000000000000000000000006020830152604082019050919050565b6000612927602983613090565b91507f4552433732313a206f776e657220717565727920666f72206e6f6e657869737460008301527f656e7420746f6b656e00000000000000000000000000000000000000000000006020830152604082019050919050565b600061298d602083613090565b91507f4552433732313a206d696e7420746f20746865207a65726f20616464726573736000830152602082019050919050565b60006129cd602c83613090565b91507f4552433732313a20617070726f76656420717565727920666f72206e6f6e657860008301527f697374656e7420746f6b656e00000000000000000000000000000000000000006020830152604082019050919050565b6000612a33602083613090565b91507f4f776e61626c653a2063616c6c6572206973206e6f7420746865206f776e65726000830152602082019050919050565b6000612a73602983613090565b91507f4552433732313a207472616e73666572206f6620746f6b656e2074686174206960008301527f73206e6f74206f776e00000000000000000000000000000000000000000000006020830152604082019050919050565b6000612ad9602f83613090565b91507f4552433732314d657461646174613a2055524920717565727920666f72206e6f60008301527f6e6578697374656e7420746f6b656e00000000000000000000000000000000006020830152604082019050919050565b6000612b3f602183613090565b91507f4552433732313a20617070726f76616c20746f2063757272656e74206f776e6560008301527f72000000000000000000000000000000000000000000000000000000000000006020830152604082019050919050565b6000612ba5603183613090565b91507f4552433732313a207472616e736665722063616c6c6572206973206e6f74206f60008301527f776e6572206e6f7220617070726f7665640000000000000000000000000000006020830152604082019050919050565b6000612c0b602483613090565b91507f4d656d6265723a20546865206f7065726174696f6e206973206e6f7420616c6c60008301527f6f776564000000000000000000000000000000000000000000000000000000006020830152604082019050919050565b612c6d816131eb565b82525050565b6000612c7f8284612605565b915081905092915050565b6000612c968285612605565b9150612ca28284612605565b91508190509392505050565b6000602082019050612cc36000830184612566565b92915050565b6000608082019050612cde6000830187612566565b612ceb6020830186612566565b612cf86040830185612c64565b8181036060830152612d0a8184612584565b905095945050505050565b6000604082019050612d2a6000830185612566565b8181036020830152612d3c81846125cc565b90509392505050565b6000602082019050612d5a6000830184612575565b92915050565b6000602082019050612d7560008301846125bd565b92915050565b60006020820190508181036000830152612d9581846125cc565b905092915050565b60006020820190508181036000830152612db681612636565b9050919050565b60006020820190508181036000830152612dd68161269c565b9050919050565b60006020820190508181036000830152612df681612702565b9050919050565b60006020820190508181036000830152612e1681612742565b9050919050565b60006020820190508181036000830152612e36816127a8565b9050919050565b60006020820190508181036000830152612e56816127e8565b9050919050565b60006020820190508181036000830152612e768161284e565b9050919050565b60006020820190508181036000830152612e96816128b4565b9050919050565b60006020820190508181036000830152612eb68161291a565b9050919050565b60006020820190508181036000830152612ed681612980565b9050919050565b60006020820190508181036000830152612ef6816129c0565b9050919050565b60006020820190508181036000830152612f1681612a26565b9050919050565b60006020820190508181036000830152612f3681612a66565b9050919050565b60006020820190508181036000830152612f5681612acc565b9050919050565b60006020820190508181036000830152612f7681612b32565b9050919050565b60006020820190508181036000830152612f9681612b98565b9050919050565b60006020820190508181036000830152612fb681612bfe565b9050919050565b6000602082019050612fd26000830184612c64565b92915050565b6000604051905081810181811067ffffffffffffffff82111715612fff57612ffe613394565b5b8060405250919050565b600067ffffffffffffffff82111561302457613023613394565b5b601f19601f8301169050602081019050919050565b600067ffffffffffffffff82111561305457613053613394565b5b601f19601f8301169050602081019050919050565b600081519050919050565b600081519050919050565b600082825260208201905092915050565b600082825260208201905092915050565b600081905092915050565b60006130b7826131eb565b91506130c2836131eb565b9250827fffffffffffffffffffffffffffffffffffffffffffffffffffffffffffffffff038211156130f7576130f6613307565b5b828201905092915050565b600061310d826131eb565b9150613118836131eb565b92508261312857613127613336565b5b828204905092915050565b600061313e826131eb565b9150613149836131eb565b92508282101561315c5761315b613307565b5b828203905092915050565b6000613172826131cb565b9050919050565b60008115159050919050565b60007fffffffff0000000000000000000000000000000000000000000000000000000082169050919050565b60006dffffffffffffffffffffffffffff82169050919050565b600073ffffffffffffffffffffffffffffffffffffffff82169050919050565b6000819050919050565b600061320082613207565b9050919050565b6000613212826131cb565b9050919050565b82818337600083830152505050565b60005b8381101561324657808201518184015260208101905061322b565b83811115613255576000848401525b50505050565b6000600282049050600182168061327357607f821691505b6020821081141561328757613286613365565b5b50919050565b6000613298826131eb565b91507fffffffffffffffffffffffffffffffffffffffffffffffffffffffffffffffff8214156132cb576132ca613307565b5b600182019050919050565b60006132e1826131eb565b91506132ec836131eb565b9250826132fc576132fb613336565b5b828206905092915050565b7f4e487b7100000000000000000000000000000000000000000000000000000000600052601160045260246000fd5b7f4e487b7100000000000000000000000000000000000000000000000000000000600052601260045260246000fd5b7f4e487b7100000000000000000000000000000000000000000000000000000000600052602260045260246000fd5b7f4e487b7100000000000000000000000000000000000000000000000000000000600052604160045260246000fd5b6000601f19601f8301169050919050565b6133dd81613167565b81146133e857600080fd5b50565b6133f481613179565b81146133ff57600080fd5b50565b61340b81613185565b811461341657600080fd5b50565b613422816131b1565b811461342d57600080fd5b50565b613439816131eb565b811461344457600080fd5b5056fea2646970667358221220792a98d8953181ba8a690853e382cdc33ec666af970e5024e3725a8a8d3e5b6864736f6c63430008000033",
  "immutableReferences": {},
  "source": "// SPDX-License-Identifier: SimPL-2.0\n\npragma solidity ^0.8.0;\npragma experimental ABIEncoderV2;\n\nimport \"../authority/Member.sol\";\n\nimport \"@openzeppelin/contracts/token/ERC721/ERC721.sol\";\nimport \"@openzeppelin/contracts/utils/math/SafeMath.sol\";\nimport \"@openzeppelin/contracts/utils/structs/EnumerableSet.sol\";\n\n/**\n * @title Fighter Z Token - ERC721\n *\n * @author Bit Lighthouse. Ace\n * AT: 2021-3-28 | VERSION: v1.0.2\n */\n\ncontract Fighter is Member, ERC721 {\n    using SafeMath for uint256;\n    using EnumerableSet for EnumerableSet.UintSet;\n\n    constructor(address auth_) Member(auth_)\n        ERC721(\"Fighter Z\", \"DBNFT\") {\n\n    }\n\n    function doBuy(address to_, uint112 tokenId_) public\n        CheckPermit(\"CARDSHOP\") {\n\n        _safeMint(to_, tokenId_);\n    }\n\n    function doBurn(uint112 tokenId_) public CheckPermit(\"CARDREWARD\") {\n        _burn(tokenId_);\n    }\n}",
  "sourcePath": "/home/ace/Projects/eth/other/dragon-ball-project/dragon-ball-contract/contracts/token/Fighter.sol",
  "compiler": {
    "name": "solc",
    "version": "0.8.0+commit.c7dfd78e.Emscripten.clang"
  },
  "schemaVersion": "3.4.3",
  "updatedAt": "2021-08-31T14:00:57.236Z",
  "networkType": "ethereum",
  "devdoc": {
    "author": "Bit Lighthouse. Ace AT: 2021-3-28 | VERSION: v1.0.2",
    "kind": "dev",
    "methods": {
      "approve(address,uint256)": {
        "details": "See {IERC721-approve}."
      },
      "balanceOf(address)": {
        "details": "See {IERC721-balanceOf}."
      },
      "getApproved(uint256)": {
        "details": "See {IERC721-getApproved}."
      },
      "isApprovedForAll(address,address)": {
        "details": "See {IERC721-isApprovedForAll}."
      },
      "name()": {
        "details": "See {IERC721Metadata-name}."
      },
      "owner()": {
        "details": "Returns the address of the current owner."
      },
      "ownerOf(uint256)": {
        "details": "See {IERC721-ownerOf}."
      },
      "renounceOwnership()": {
        "details": "Leaves the contract without owner. It will not be possible to call `onlyOwner` functions anymore. Can only be called by the current owner. NOTE: Renouncing ownership will leave the contract without an owner, thereby removing any functionality that is only available to the owner."
      },
      "safeTransferFrom(address,address,uint256)": {
        "details": "See {IERC721-safeTransferFrom}."
      },
      "safeTransferFrom(address,address,uint256,bytes)": {
        "details": "See {IERC721-safeTransferFrom}."
      },
      "setApprovalForAll(address,bool)": {
        "details": "See {IERC721-setApprovalForAll}."
      },
      "setAuthority(address)": {
        "params": {
          "authority_": "address of manager This function is onwer only"
        }
      },
      "setConfig(string,uint256)": {
        "params": {
          "config_": "config's value This function is config only",
          "name_": "name of config"
        }
      },
      "supportsInterface(bytes4)": {
        "details": "See {IERC165-supportsInterface}."
      },
      "symbol()": {
        "details": "See {IERC721Metadata-symbol}."
      },
      "tokenURI(uint256)": {
        "details": "See {IERC721Metadata-tokenURI}."
      },
      "transferFrom(address,address,uint256)": {
        "details": "See {IERC721-transferFrom}."
      },
      "transferOwnership(address)": {
        "details": "Transfers ownership of the contract to a new account (`newOwner`). Can only be called by the current owner."
      }
    },
    "title": "Fighter Z Token - ERC721",
    "version": 1
  },
  "userdoc": {
    "kind": "user",
    "methods": {
      "setAuthority(address)": {
        "notice": "Set new manager"
      },
      "setConfig(string,uint256)": {
        "notice": "Set config of global or contract"
      }
    },
    "version": 1
  }
}