{
  "contractName": "Member",
  "abi": [
    {
      "inputs": [
        {
          "internalType": "address",
          "name": "authority_",
          "type": "address"
        }
      ],
      "stateMutability": "nonpayable",
      "type": "constructor"
    },
    {
      "anonymous": false,
      "inputs": [
        {
          "indexed": true,
          "internalType": "address",
          "name": "previousOwner",
          "type": "address"
        },
        {
          "indexed": true,
          "internalType": "address",
          "name": "newOwner",
          "type": "address"
        }
      ],
      "name": "OwnershipTransferred",
      "type": "event"
    },
    {
      "inputs": [],
      "name": "authority",
      "outputs": [
        {
          "internalType": "contract Authority",
          "name": "",
          "type": "address"
        }
      ],
      "stateMutability": "view",
      "type": "function"
    },
    {
      "inputs": [],
      "name": "owner",
      "outputs": [
        {
          "internalType": "address",
          "name": "",
          "type": "address"
        }
      ],
      "stateMutability": "view",
      "type": "function"
    },
    {
      "inputs": [],
      "name": "renounceOwnership",
      "outputs": [],
      "stateMutability": "nonpayable",
      "type": "function"
    },
    {
      "inputs": [
        {
          "internalType": "address",
          "name": "newOwner",
          "type": "address"
        }
      ],
      "name": "transferOwnership",
      "outputs": [],
      "stateMutability": "nonpayable",
      "type": "function"
    },
    {
      "inputs": [
        {
          "internalType": "address",
          "name": "authority_",
          "type": "address"
        }
      ],
      "name": "setAuthority",
      "outputs": [],
      "stateMutability": "nonpayable",
      "type": "function"
    }
  ],
  "bytecode": "0x608060405234801561001057600080fd5b506040516108c53803806108c583398181016040528101906100329190610144565b600061004261012760201b60201c565b9050806000806101000a81548173ffffffffffffffffffffffffffffffffffffffff021916908373ffffffffffffffffffffffffffffffffffffffff1602179055508073ffffffffffffffffffffffffffffffffffffffff16600073ffffffffffffffffffffffffffffffffffffffff167f8be0079c531659141344cd1fd0a4f28419497f9722a3daafe3b4186f6b6457e060405160405180910390a35080600160006101000a81548173ffffffffffffffffffffffffffffffffffffffff021916908373ffffffffffffffffffffffffffffffffffffffff160217905550506101b6565b600033905090565b60008151905061013e8161019f565b92915050565b60006020828403121561015657600080fd5b60006101648482850161012f565b91505092915050565b60006101788261017f565b9050919050565b600073ffffffffffffffffffffffffffffffffffffffff82169050919050565b6101a88161016d565b81146101b357600080fd5b50565b610700806101c56000396000f3fe608060405234801561001057600080fd5b50600436106100575760003560e01c8063715018a61461005c5780637a9e5e4b146100665780638da5cb5b14610082578063bf7e214f146100a0578063f2fde38b146100be575b600080fd5b6100646100da565b005b610080600480360381019061007b91906104e9565b610214565b005b61008a6102d4565b60405161009791906105d6565b60405180910390f35b6100a86102fd565b6040516100b591906105f1565b60405180910390f35b6100d860048036038101906100d391906104e9565b610323565b005b6100e26104cc565b73ffffffffffffffffffffffffffffffffffffffff166101006102d4565b73ffffffffffffffffffffffffffffffffffffffff1614610156576040517f08c379a000000000000000000000000000000000000000000000000000000000815260040161014d9061062c565b60405180910390fd5b600073ffffffffffffffffffffffffffffffffffffffff1660008054906101000a900473ffffffffffffffffffffffffffffffffffffffff1673ffffffffffffffffffffffffffffffffffffffff167f8be0079c531659141344cd1fd0a4f28419497f9722a3daafe3b4186f6b6457e060405160405180910390a360008060006101000a81548173ffffffffffffffffffffffffffffffffffffffff021916908373ffffffffffffffffffffffffffffffffffffffff160217905550565b61021c6104cc565b73ffffffffffffffffffffffffffffffffffffffff1661023a6102d4565b73ffffffffffffffffffffffffffffffffffffffff1614610290576040517f08c379a00000000000000000000000000000000000000000000000000000000081526004016102879061062c565b60405180910390fd5b80600160006101000a81548173ffffffffffffffffffffffffffffffffffffffff021916908373ffffffffffffffffffffffffffffffffffffffff16021790555050565b60008060009054906101000a900473ffffffffffffffffffffffffffffffffffffffff16905090565b600160009054906101000a900473ffffffffffffffffffffffffffffffffffffffff1681565b61032b6104cc565b73ffffffffffffffffffffffffffffffffffffffff166103496102d4565b73ffffffffffffffffffffffffffffffffffffffff161461039f576040517f08c379a00000000000000000000000000000000000000000000000000000000081526004016103969061062c565b60405180910390fd5b600073ffffffffffffffffffffffffffffffffffffffff168173ffffffffffffffffffffffffffffffffffffffff16141561040f576040517f08c379a00000000000000000000000000000000000000000000000000000000081526004016104069061060c565b60405180910390fd5b8073ffffffffffffffffffffffffffffffffffffffff1660008054906101000a900473ffffffffffffffffffffffffffffffffffffffff1673ffffffffffffffffffffffffffffffffffffffff167f8be0079c531659141344cd1fd0a4f28419497f9722a3daafe3b4186f6b6457e060405160405180910390a3806000806101000a81548173ffffffffffffffffffffffffffffffffffffffff021916908373ffffffffffffffffffffffffffffffffffffffff16021790555050565b600033905090565b6000813590506104e3816106b3565b92915050565b6000602082840312156104fb57600080fd5b6000610509848285016104d4565b91505092915050565b61051b8161065d565b82525050565b61052a8161068f565b82525050565b600061053d60268361064c565b91507f4f776e61626c653a206e6577206f776e657220697320746865207a65726f206160008301527f64647265737300000000000000000000000000000000000000000000000000006020830152604082019050919050565b60006105a360208361064c565b91507f4f776e61626c653a2063616c6c6572206973206e6f7420746865206f776e65726000830152602082019050919050565b60006020820190506105eb6000830184610512565b92915050565b60006020820190506106066000830184610521565b92915050565b6000602082019050818103600083015261062581610530565b9050919050565b6000602082019050818103600083015261064581610596565b9050919050565b600082825260208201905092915050565b60006106688261066f565b9050919050565b600073ffffffffffffffffffffffffffffffffffffffff82169050919050565b600061069a826106a1565b9050919050565b60006106ac8261066f565b9050919050565b6106bc8161065d565b81146106c757600080fd5b5056fea26469706673582212204788400146fabf9681154cbfcb27cc5f81e00e4290ac5209e2edf67043d9a6b664736f6c63430008000033",
  "immutableReferences": {},
  "source": "/**\n * @title Authority Of Administrator & Members\n *\n * @author Bit Lighthouse. Henry Mo\n * AT: 2021-07-02 | VERSION: v1.0.2\n */\n\n// SPDX-License-Identifier: SimPL-2.0\n\npragma solidity ^0.8.0;\n\nimport \"./Authority.sol\";\n\nimport \"@openzeppelin/contracts/access/Ownable.sol\";\n\ncontract Member is Ownable {\n    // Authority's manager\n    Authority public authority;\n\n    constructor(address authority_) {\n        authority = Authority(authority_);\n    }\n\n    /**\n     * @notice Check Operator Permit - modifier\n     * @param name_ name of permit\n     */\n    modifier CheckPermit(string memory name_) {\n        require(\n            authority.permits(msg.sender, name_),\n            \"Member: The operation is not allowed\"\n        );\n        _;\n    }\n\n    /**\n     * @notice Check Operation Permit - modifier\n     * @param name_ name of permit\n     */\n    modifier CheckStatus(string memory name_) {\n        require(\n            !authority.authorities(address(0), \"ALL\"),\n            \"Member: Maintenance upgrade in progress\"\n        );\n\n        require(\n            !authority.authorities(address(0), name_),\n            \"Member: The operation is under maintenance\"\n        );\n\n        require(\n            !authority.authorities(msg.sender, \"ALL\"),\n            \"Member: The operation is not allowed\"\n        );\n\n        require(\n            !authority.authorities(msg.sender, name_),\n            \"Member: The operation is not allowed\"\n        );\n        _;\n    }\n    \n    /**\n     * @notice Set new manager\n     * @param authority_ address of manager\n     *\n     * This function is onwer only\n     */\n    function setAuthority(address authority_) external\n        onlyOwner {\n        \n        authority = Authority(authority_);\n    }\n}",
  "sourcePath": "/home/ace/Projects/eth/other/dragon-ball-project/dragon-ball-contract/contracts/authority/Member.sol",
  "compiler": {
    "name": "solc",
    "version": "0.8.0+commit.c7dfd78e.Emscripten.clang"
  },
  "schemaVersion": "3.4.3",
  "updatedAt": "2021-08-24T13:32:58.181Z",
  "devdoc": {
    "kind": "dev",
    "methods": {
      "owner()": {
        "details": "Returns the address of the current owner."
      },
      "renounceOwnership()": {
        "details": "Leaves the contract without owner. It will not be possible to call `onlyOwner` functions anymore. Can only be called by the current owner. NOTE: Renouncing ownership will leave the contract without an owner, thereby removing any functionality that is only available to the owner."
      },
      "setAuthority(address)": {
        "params": {
          "authority_": "address of manager This function is onwer only"
        }
      },
      "transferOwnership(address)": {
        "details": "Transfers ownership of the contract to a new account (`newOwner`). Can only be called by the current owner."
      }
    },
    "version": 1
  },
  "userdoc": {
    "kind": "user",
    "methods": {
      "setAuthority(address)": {
        "notice": "Set new manager"
      }
    },
    "version": 1
  }
}