{
  "contractName": "Member",
  "abi": [
    {
      "inputs": [
        {
          "internalType": "address",
          "name": "authority_",
          "type": "address"
        }
      ],
      "stateMutability": "nonpayable",
      "type": "constructor"
    },
    {
      "anonymous": false,
      "inputs": [
        {
          "indexed": true,
          "internalType": "address",
          "name": "previousOwner",
          "type": "address"
        },
        {
          "indexed": true,
          "internalType": "address",
          "name": "newOwner",
          "type": "address"
        }
      ],
      "name": "OwnershipTransferred",
      "type": "event"
    },
    {
      "inputs": [],
      "name": "authority",
      "outputs": [
        {
          "internalType": "contract Authority",
          "name": "",
          "type": "address"
        }
      ],
      "stateMutability": "view",
      "type": "function"
    },
    {
      "inputs": [
        {
          "internalType": "string",
          "name": "",
          "type": "string"
        }
      ],
      "name": "configs",
      "outputs": [
        {
          "internalType": "uint256",
          "name": "",
          "type": "uint256"
        }
      ],
      "stateMutability": "view",
      "type": "function"
    },
    {
      "inputs": [],
      "name": "owner",
      "outputs": [
        {
          "internalType": "address",
          "name": "",
          "type": "address"
        }
      ],
      "stateMutability": "view",
      "type": "function"
    },
    {
      "inputs": [],
      "name": "renounceOwnership",
      "outputs": [],
      "stateMutability": "nonpayable",
      "type": "function"
    },
    {
      "inputs": [
        {
          "internalType": "address",
          "name": "newOwner",
          "type": "address"
        }
      ],
      "name": "transferOwnership",
      "outputs": [],
      "stateMutability": "nonpayable",
      "type": "function"
    },
    {
      "inputs": [
        {
          "internalType": "address",
          "name": "authority_",
          "type": "address"
        }
      ],
      "name": "setAuthority",
      "outputs": [],
      "stateMutability": "nonpayable",
      "type": "function"
    },
    {
      "inputs": [
        {
          "internalType": "string",
          "name": "name_",
          "type": "string"
        },
        {
          "internalType": "uint256",
          "name": "config_",
          "type": "uint256"
        }
      ],
      "name": "setConfig",
      "outputs": [],
      "stateMutability": "nonpayable",
      "type": "function"
    }
  ],
  "bytecode": "0x608060405234801561001057600080fd5b50604051610e9d380380610e9d83398181016040528101906100329190610144565b600061004261012760201b60201c565b9050806000806101000a81548173ffffffffffffffffffffffffffffffffffffffff021916908373ffffffffffffffffffffffffffffffffffffffff1602179055508073ffffffffffffffffffffffffffffffffffffffff16600073ffffffffffffffffffffffffffffffffffffffff167f8be0079c531659141344cd1fd0a4f28419497f9722a3daafe3b4186f6b6457e060405160405180910390a35080600160006101000a81548173ffffffffffffffffffffffffffffffffffffffff021916908373ffffffffffffffffffffffffffffffffffffffff160217905550506101b6565b600033905090565b60008151905061013e8161019f565b92915050565b60006020828403121561015657600080fd5b60006101648482850161012f565b91505092915050565b60006101788261017f565b9050919050565b600073ffffffffffffffffffffffffffffffffffffffff82169050919050565b6101a88161016d565b81146101b357600080fd5b50565b610cd8806101c56000396000f3fe608060405234801561001057600080fd5b506004361061007d5760003560e01c80637a9e5e4b1161005b5780637a9e5e4b146100d85780638da5cb5b146100f4578063bf7e214f14610112578063f2fde38b146101305761007d565b80633e8f5b90146100825780635ef7fbad1461009e578063715018a6146100ce575b600080fd5b61009c600480360381019061009791906107f8565b61014c565b005b6100b860048036038101906100b391906107b7565b610296565b6040516100c59190610acc565b60405180910390f35b6100d66102c4565b005b6100f260048036038101906100ed9190610765565b6103fe565b005b6100fc6104be565b6040516101099190610a06565b60405180910390f35b61011a6104e7565b6040516101279190610a51565b60405180910390f35b61014a60048036038101906101459190610765565b61050d565b005b6040518060400160405280600681526020017f434f4e4649470000000000000000000000000000000000000000000000000000815250600160009054906101000a900473ffffffffffffffffffffffffffffffffffffffff1673ffffffffffffffffffffffffffffffffffffffff1663f5e65c7233836040518363ffffffff1660e01b81526004016101df929190610a21565b60206040518083038186803b1580156101f757600080fd5b505afa15801561020b573d6000803e3d6000fd5b505050506040513d601f19601f8201168201806040525081019061022f919061078e565b61026e576040517f08c379a000000000000000000000000000000000000000000000000000000000815260040161026590610aac565b60405180910390fd5b8160028460405161027f91906109ef565b908152602001604051809103902081905550505050565b6002818051602081018201805184825260208301602085012081835280955050505050506000915090505481565b6102cc6106b6565b73ffffffffffffffffffffffffffffffffffffffff166102ea6104be565b73ffffffffffffffffffffffffffffffffffffffff1614610340576040517f08c379a000000000000000000000000000000000000000000000000000000000815260040161033790610a8c565b60405180910390fd5b600073ffffffffffffffffffffffffffffffffffffffff1660008054906101000a900473ffffffffffffffffffffffffffffffffffffffff1673ffffffffffffffffffffffffffffffffffffffff167f8be0079c531659141344cd1fd0a4f28419497f9722a3daafe3b4186f6b6457e060405160405180910390a360008060006101000a81548173ffffffffffffffffffffffffffffffffffffffff021916908373ffffffffffffffffffffffffffffffffffffffff160217905550565b6104066106b6565b73ffffffffffffffffffffffffffffffffffffffff166104246104be565b73ffffffffffffffffffffffffffffffffffffffff161461047a576040517f08c379a000000000000000000000000000000000000000000000000000000000815260040161047190610a8c565b60405180910390fd5b80600160006101000a81548173ffffffffffffffffffffffffffffffffffffffff021916908373ffffffffffffffffffffffffffffffffffffffff16021790555050565b60008060009054906101000a900473ffffffffffffffffffffffffffffffffffffffff16905090565b600160009054906101000a900473ffffffffffffffffffffffffffffffffffffffff1681565b6105156106b6565b73ffffffffffffffffffffffffffffffffffffffff166105336104be565b73ffffffffffffffffffffffffffffffffffffffff1614610589576040517f08c379a000000000000000000000000000000000000000000000000000000000815260040161058090610a8c565b60405180910390fd5b600073ffffffffffffffffffffffffffffffffffffffff168173ffffffffffffffffffffffffffffffffffffffff1614156105f9576040517f08c379a00000000000000000000000000000000000000000000000000000000081526004016105f090610a6c565b60405180910390fd5b8073ffffffffffffffffffffffffffffffffffffffff1660008054906101000a900473ffffffffffffffffffffffffffffffffffffffff1673ffffffffffffffffffffffffffffffffffffffff167f8be0079c531659141344cd1fd0a4f28419497f9722a3daafe3b4186f6b6457e060405160405180910390a3806000806101000a81548173ffffffffffffffffffffffffffffffffffffffff021916908373ffffffffffffffffffffffffffffffffffffffff16021790555050565b600033905090565b60006106d16106cc84610b18565b610ae7565b9050828152602081018484840111156106e957600080fd5b6106f4848285610bdb565b509392505050565b60008135905061070b81610c5d565b92915050565b60008151905061072081610c74565b92915050565b600082601f83011261073757600080fd5b81356107478482602086016106be565b91505092915050565b60008135905061075f81610c8b565b92915050565b60006020828403121561077757600080fd5b6000610785848285016106fc565b91505092915050565b6000602082840312156107a057600080fd5b60006107ae84828501610711565b91505092915050565b6000602082840312156107c957600080fd5b600082013567ffffffffffffffff8111156107e357600080fd5b6107ef84828501610726565b91505092915050565b6000806040838503121561080b57600080fd5b600083013567ffffffffffffffff81111561082557600080fd5b61083185828601610726565b925050602061084285828601610750565b9150509250929050565b61085581610b6f565b82525050565b61086481610bb7565b82525050565b600061087582610b48565b61087f8185610b53565b935061088f818560208601610bea565b61089881610c4c565b840191505092915050565b60006108ae82610b48565b6108b88185610b64565b93506108c8818560208601610bea565b80840191505092915050565b60006108e1602683610b53565b91507f4f776e61626c653a206e6577206f776e657220697320746865207a65726f206160008301527f64647265737300000000000000000000000000000000000000000000000000006020830152604082019050919050565b6000610947602083610b53565b91507f4f776e61626c653a2063616c6c6572206973206e6f7420746865206f776e65726000830152602082019050919050565b6000610987602483610b53565b91507f4d656d6265723a20546865206f7065726174696f6e206973206e6f7420616c6c60008301527f6f776564000000000000000000000000000000000000000000000000000000006020830152604082019050919050565b6109e981610bad565b82525050565b60006109fb82846108a3565b915081905092915050565b6000602082019050610a1b600083018461084c565b92915050565b6000604082019050610a36600083018561084c565b8181036020830152610a48818461086a565b90509392505050565b6000602082019050610a66600083018461085b565b92915050565b60006020820190508181036000830152610a85816108d4565b9050919050565b60006020820190508181036000830152610aa58161093a565b9050919050565b60006020820190508181036000830152610ac58161097a565b9050919050565b6000602082019050610ae160008301846109e0565b92915050565b6000604051905081810181811067ffffffffffffffff82111715610b0e57610b0d610c1d565b5b8060405250919050565b600067ffffffffffffffff821115610b3357610b32610c1d565b5b601f19601f8301169050602081019050919050565b600081519050919050565b600082825260208201905092915050565b600081905092915050565b6000610b7a82610b8d565b9050919050565b60008115159050919050565b600073ffffffffffffffffffffffffffffffffffffffff82169050919050565b6000819050919050565b6000610bc282610bc9565b9050919050565b6000610bd482610b8d565b9050919050565b82818337600083830152505050565b60005b83811015610c08578082015181840152602081019050610bed565b83811115610c17576000848401525b50505050565b7f4e487b7100000000000000000000000000000000000000000000000000000000600052604160045260246000fd5b6000601f19601f8301169050919050565b610c6681610b6f565b8114610c7157600080fd5b50565b610c7d81610b81565b8114610c8857600080fd5b50565b610c9481610bad565b8114610c9f57600080fd5b5056fea264697066735822122009682376ab904a5984e3f91ca4b41ab4e5b654674284b7627e7214650252b07464736f6c63430008000033",
  "immutableReferences": {},
  "source": "/**\n * @title Authority Of Administrator & Members\n *\n * @author Bit Lighthouse. Henry Mo\n * AT: 2021-07-02 | VERSION: v1.0.2\n */\n\n// SPDX-License-Identifier: SimPL-2.0\n\npragma solidity ^0.8.0;\n\nimport \"./Authority.sol\";\n\nimport \"@openzeppelin/contracts/access/Ownable.sol\";\n\ncontract Member is Ownable {\n    // Authority's manager\n    Authority public authority;\n\n    // Config of global or contract\n    mapping (string => uint256) public configs;\n\n    constructor(address authority_) {\n        authority = Authority(authority_);\n    }\n\n    /**\n     * @notice Check Operator Permit - modifier\n     * @param name_ name of permit\n     */\n    modifier CheckPermit(string memory name_) {\n        require(\n            authority.permits(msg.sender, name_),\n            \"Member: The operation is not allowed\"\n        );\n        _;\n    }\n\n    /**\n     * @notice Check Operation Permit - modifier\n     * @param name_ name of permit\n     */\n    modifier CheckStatus(string memory name_) {\n        require(\n            !authority.authorities(address(0), \"ALL\") ||\n            !authority.authorities(address(0), name_) ||\n            !authority.authorities(msg.sender, \"ALL\") ||\n            !authority.authorities(msg.sender, name_),\n            \"Member: The operation is not allowed\"\n        );\n        _;\n    }\n    \n    /**\n     * @notice Set new manager\n     * @param authority_ address of manager\n     *\n     * This function is onwer only\n     */\n    function setAuthority(address authority_) external\n        onlyOwner {\n        \n        authority = Authority(authority_);\n    }\n\n    /**\n     * @notice Set config of global or contract\n     *\n     * @param name_   name of config\n     * @param config_ config's value\n     *\n     * This function is config only\n     */\n    function setConfig(string memory name_, uint256 config_)\n        external CheckPermit(\"CONFIG\") {\n        \n        configs[name_] = config_;\n    }\n}",
  "sourcePath": "/home/ace/Projects/eth/other/dragon-ball-project/dragon-ball-contract/contracts/authority/Member.sol",
  "compiler": {
    "name": "solc",
    "version": "0.8.0+commit.c7dfd78e.Emscripten.clang"
  },
  "schemaVersion": "3.4.3",
  "updatedAt": "2021-08-29T15:16:27.961Z",
  "devdoc": {
    "kind": "dev",
    "methods": {
      "owner()": {
        "details": "Returns the address of the current owner."
      },
      "renounceOwnership()": {
        "details": "Leaves the contract without owner. It will not be possible to call `onlyOwner` functions anymore. Can only be called by the current owner. NOTE: Renouncing ownership will leave the contract without an owner, thereby removing any functionality that is only available to the owner."
      },
      "setAuthority(address)": {
        "params": {
          "authority_": "address of manager This function is onwer only"
        }
      },
      "setConfig(string,uint256)": {
        "params": {
          "config_": "config's value This function is config only",
          "name_": "name of config"
        }
      },
      "transferOwnership(address)": {
        "details": "Transfers ownership of the contract to a new account (`newOwner`). Can only be called by the current owner."
      }
    },
    "version": 1
  },
  "userdoc": {
    "kind": "user",
    "methods": {
      "setAuthority(address)": {
        "notice": "Set new manager"
      },
      "setConfig(string,uint256)": {
        "notice": "Set config of global or contract"
      }
    },
    "version": 1
  }
}