{
  "contractName": "NftLibrary",
  "abi": [
    {
      "inputs": [
        {
          "internalType": "uint256",
          "name": "value_",
          "type": "uint256"
        }
      ],
      "name": "random",
      "outputs": [
        {
          "internalType": "uint256",
          "name": "result",
          "type": "uint256"
        }
      ],
      "stateMutability": "view",
      "type": "function",
      "constant": true
    },
    {
      "inputs": [
        {
          "components": [
            {
              "internalType": "uint8",
              "name": "quality",
              "type": "uint8"
            },
            {
              "internalType": "uint16",
              "name": "heroId",
              "type": "uint16"
            },
            {
              "internalType": "uint16",
              "name": "rate",
              "type": "uint16"
            },
            {
              "internalType": "uint256",
              "name": "amount",
              "type": "uint256"
            },
            {
              "internalType": "uint112",
              "name": "tokenId",
              "type": "uint112"
            }
          ],
          "internalType": "struct NftLibrary.DetailStruct",
          "name": "cs_",
          "type": "tuple"
        }
      ],
      "name": "generate",
      "outputs": [
        {
          "internalType": "uint112",
          "name": "tokenId",
          "type": "uint112"
        }
      ],
      "stateMutability": "view",
      "type": "function",
      "constant": true
    },
    {
      "inputs": [
        {
          "internalType": "uint112",
          "name": "tokenId_",
          "type": "uint112"
        }
      ],
      "name": "analysis",
      "outputs": [
        {
          "components": [
            {
              "internalType": "uint8",
              "name": "quality",
              "type": "uint8"
            },
            {
              "internalType": "uint16",
              "name": "heroId",
              "type": "uint16"
            },
            {
              "internalType": "uint16",
              "name": "rate",
              "type": "uint16"
            },
            {
              "internalType": "uint256",
              "name": "amount",
              "type": "uint256"
            },
            {
              "internalType": "uint112",
              "name": "tokenId",
              "type": "uint112"
            }
          ],
          "internalType": "struct NftLibrary.DetailStruct",
          "name": "cs",
          "type": "tuple"
        }
      ],
      "stateMutability": "pure",
      "type": "function",
      "constant": true
    }
  ],
  "bytecode": "0x61080c610053600b82828239805160001a607314610046577f4e487b7100000000000000000000000000000000000000000000000000000000600052600060045260246000fd5b30600052607381538281f3fe730000000000000000000000000000000000000000301460806040526004361061004b5760003560e01c806347d9b14d14610050578063b863bd3714610080578063ff1571d7146100b0575b600080fd5b61006a60048036038101906100659190610452565b6100e0565b60405161007791906105db565b60405180910390f35b61009a6004803603810190610095919061047b565b610196565b6040516100a79190610611565b60405180910390f35b6100ca60048036038101906100c59190610429565b610219565b6040516100d791906105f6565b60405180910390f35b6100e8610303565b606060ff16826dffffffffffffffffffffffffffff16901c816000019060ff16908160ff1681525050605860ff16826dffffffffffffffffffffffffffff16901c60ff16816020019061ffff16908161ffff1681525050604060ff16826dffffffffffffffffffffffffffff16901c816040019061ffff16908161ffff1681525050602060ff16826dffffffffffffffffffffffffffff16901c63ffffffff16816060018181525050919050565b60008042436040516020016101ac9291906105af565b6040516020818303038152906040528051906020012090506000816040516020016101d79190610594565b604051602081830303815290604052905083818051906020012060001c6101fe91906106eb565b92506000831461020e5782610210565b835b92505050919050565b6000804263ffffffff166dffffffffffffffffffffffffffff16901b602060ff16670de0b6b3a76400008460600151610252919061065d565b63ffffffff166dffffffffffffffffffffffffffff16901b604060ff16846040015161ffff166dffffffffffffffffffffffffffff16901b605060ff16856000015160ff166dffffffffffffffffffffffffffff16901b605860ff16866020015160ff166dffffffffffffffffffffffffffff16901b606060ff16876000015160ff166dffffffffffffffffffffffffffff16901b6d80000000000000000000000000001717171717179050919050565b6040518060a00160405280600060ff168152602001600061ffff168152602001600061ffff1681526020016000815260200160006dffffffffffffffffffffffffffff1681525090565b600060a0828403121561035f57600080fd5b61036960a061062c565b9050600061037984828501610414565b600083015250602061038d848285016103ea565b60208301525060406103a1848285016103ea565b60408301525060606103b5848285016103ff565b60608301525060806103c9848285016103d5565b60808301525092915050565b6000813590506103e48161077a565b92915050565b6000813590506103f981610791565b92915050565b60008135905061040e816107a8565b92915050565b600081359050610423816107bf565b92915050565b600060a0828403121561043b57600080fd5b60006104498482850161034d565b91505092915050565b60006020828403121561046457600080fd5b6000610472848285016103d5565b91505092915050565b60006020828403121561048d57600080fd5b600061049b848285016103ff565b91505092915050565b6104b56104b08261068e565b6106d7565b82525050565b60a0820160008201516104d16000850182610585565b5060208201516104e46020850182610541565b5060408201516104f76040850182610541565b50606082015161050a606085018261055f565b50608082015161051d6080850182610532565b50505050565b61052c81610698565b82525050565b61053b81610698565b82525050565b61054a816106b2565b82525050565b610559816106c0565b82525050565b610568816106c0565b82525050565b61057f61057a826106c0565b6106e1565b82525050565b61058e816106ca565b82525050565b60006105a082846104a4565b60208201915081905092915050565b60006105bb828561056e565b6020820191506105cb828461056e565b6020820191508190509392505050565b600060a0820190506105f060008301846104bb565b92915050565b600060208201905061060b6000830184610523565b92915050565b60006020820190506106266000830184610550565b92915050565b6000604051905081810181811067ffffffffffffffff821117156106535761065261074b565b5b8060405250919050565b6000610668826106c0565b9150610673836106c0565b9250826106835761068261071c565b5b828204905092915050565b6000819050919050565b60006dffffffffffffffffffffffffffff82169050919050565b600061ffff82169050919050565b6000819050919050565b600060ff82169050919050565b6000819050919050565b6000819050919050565b60006106f6826106c0565b9150610701836106c0565b9250826107115761071061071c565b5b828206905092915050565b7f4e487b7100000000000000000000000000000000000000000000000000000000600052601260045260246000fd5b7f4e487b7100000000000000000000000000000000000000000000000000000000600052604160045260246000fd5b61078381610698565b811461078e57600080fd5b50565b61079a816106b2565b81146107a557600080fd5b50565b6107b1816106c0565b81146107bc57600080fd5b50565b6107c8816106ca565b81146107d357600080fd5b5056fea2646970667358221220d09fd15b99276948243725d20914c5d99bd175aa80e0c6c6ebd69fb73087798064736f6c63430008000033",
  "immutableReferences": {},
  "source": "// SPDX-License-Identifier: SimPL-2.0\n\npragma solidity ^0.8.0;\npragma experimental ABIEncoderV2;\n\n/**\n * @title For ERC721 Library\n *\n * @author Bit Lighthouse. Ace\n * AT: 2021-8-14 | VERSION: v1.0.2\n */\n\nlibrary NftLibrary {\n    struct DetailStruct {\n        uint8 quality;   // quality for card\n        uint16 heroId;   // hero id for card\n        uint16 rate;     // reward rate for card\n        uint256 amount;  // sale amount for card\n        uint112 tokenId; // tokenId for card\n    }\n\n    struct CardStruct {\n        uint16 start;  // reward rate start for card\n        uint16 plus;   // reward rate plus for card\n        uint32[] role; // number of roles remaining\n    }\n\n    struct RateStruct {\n        uint8 number;  // exchange reward number for card\n        uint16 rate;   // exchange reward rate for card\n        uint8 times;   // exchange reward times for card\n    }\n\n    struct UserStruct {\n        uint256 powers;   // record user's total power\n        uint256 period;   // record first buy timestamp\n        uint256 exchange; // record reward exchange\n    }\n\n    uint8 constant private BIT_QUALITY   = 96; // uint 8\n    uint8 constant private BIT_HEROID    = 88; // uint 8\n    uint8 constant private BIT_POWER     = 80; // uint 8\n    uint8 constant private BIT_CARDRATE  = 64; // uint 16\n    uint8 constant private BIT_AMOUNT    = 32; // uint 32\n\n    function random(uint256 value_) public view\n        returns (uint256 result) {\n\n        bytes32 h = keccak256(abi.encodePacked(\n            block.timestamp, block.number\n        ));\n\n        bytes memory seed = abi.encodePacked(h);\n        result = uint256(keccak256(seed)) % value_;\n        result = result == 0 ? value_ : result;\n    }\n\n    function generate(DetailStruct memory cs_) public\n        view returns (uint112 tokenId) {\n\n        tokenId = 1 << 111 |\n        uint112(uint8(cs_.quality))         << BIT_QUALITY |\n        uint112(uint8(cs_.heroId))          << BIT_HEROID |\n        uint112(uint8(cs_.quality))         << BIT_POWER |\n        uint112(uint16(cs_.rate))           << BIT_CARDRATE |\n        uint112(uint32(cs_.amount / 1e18))  << BIT_AMOUNT |\n        uint112(uint32(block.timestamp)) << 0;\n    }\n\n    function analysis(uint112 tokenId_) public pure\n        returns (DetailStruct memory cs) {\n\n        cs.quality = uint8(tokenId_  >> BIT_QUALITY);\n        cs.heroId  = uint8(tokenId_  >> BIT_HEROID);\n        cs.rate    = uint16(tokenId_ >> BIT_CARDRATE);\n        cs.amount  = uint32(tokenId_ >> BIT_AMOUNT);\n    }\n}",
  "sourcePath": "/home/ace/Projects/eth/other/dragon-ball-project/dragon-ball-contract/contracts/libraries/NftLibrary.sol",
  "compiler": {
    "name": "solc",
    "version": "0.8.0+commit.c7dfd78e.Emscripten.clang"
  },
  "schemaVersion": "3.4.3",
  "updatedAt": "2021-08-31T14:01:57.110Z",
  "networkType": "ethereum",
  "devdoc": {
    "author": "Bit Lighthouse. Ace AT: 2021-8-14 | VERSION: v1.0.2",
    "kind": "dev",
    "methods": {},
    "title": "For ERC721 Library",
    "version": 1
  },
  "userdoc": {
    "kind": "user",
    "methods": {},
    "version": 1
  }
}