{
  "contractName": "NftLibrary",
  "abi": [
    {
      "inputs": [
        {
          "internalType": "uint256",
          "name": "value_",
          "type": "uint256"
        }
      ],
      "name": "random",
      "outputs": [
        {
          "internalType": "uint256",
          "name": "result",
          "type": "uint256"
        }
      ],
      "stateMutability": "view",
      "type": "function",
      "constant": true
    },
    {
      "inputs": [
        {
          "components": [
            {
              "internalType": "uint8",
              "name": "quality",
              "type": "uint8"
            },
            {
              "internalType": "uint16",
              "name": "heroId",
              "type": "uint16"
            },
            {
              "internalType": "uint16",
              "name": "rate",
              "type": "uint16"
            },
            {
              "internalType": "uint256",
              "name": "amount",
              "type": "uint256"
            }
          ],
          "internalType": "struct NftLibrary.DetailStruct",
          "name": "cs_",
          "type": "tuple"
        }
      ],
      "name": "generate",
      "outputs": [
        {
          "internalType": "uint112",
          "name": "tokenId",
          "type": "uint112"
        }
      ],
      "stateMutability": "view",
      "type": "function",
      "constant": true
    },
    {
      "inputs": [
        {
          "internalType": "uint112",
          "name": "tokenId_",
          "type": "uint112"
        }
      ],
      "name": "analysis",
      "outputs": [
        {
          "components": [
            {
              "internalType": "uint8",
              "name": "quality",
              "type": "uint8"
            },
            {
              "internalType": "uint16",
              "name": "heroId",
              "type": "uint16"
            },
            {
              "internalType": "uint16",
              "name": "rate",
              "type": "uint16"
            },
            {
              "internalType": "uint256",
              "name": "amount",
              "type": "uint256"
            }
          ],
          "internalType": "struct NftLibrary.DetailStruct",
          "name": "cs",
          "type": "tuple"
        }
      ],
      "stateMutability": "pure",
      "type": "function",
      "constant": true
    }
  ],
  "bytecode": "0x6107bf610053600b82828239805160001a607314610046577f4e487b7100000000000000000000000000000000000000000000000000000000600052600060045260246000fd5b30600052607381538281f3fe730000000000000000000000000000000000000000301460806040526004361061004b5760003560e01c806347d9b14d14610050578063b863bd3714610080578063ff1571d7146100b0575b600080fd5b61006a60048036038101906100659190610427565b6100e0565b604051610077919061058e565b60405180910390f35b61009a60048036038101906100959190610450565b610196565b6040516100a791906105c4565b60405180910390f35b6100ca60048036038101906100c591906103fe565b610219565b6040516100d791906105a9565b60405180910390f35b6100e8610303565b606060ff16826dffffffffffffffffffffffffffff16901c816000019060ff16908160ff1681525050605860ff16826dffffffffffffffffffffffffffff16901c60ff16816020019061ffff16908161ffff1681525050604060ff16826dffffffffffffffffffffffffffff16901c816040019061ffff16908161ffff1681525050602060ff16826dffffffffffffffffffffffffffff16901c63ffffffff16816060018181525050919050565b60008042436040516020016101ac929190610562565b6040516020818303038152906040528051906020012090506000816040516020016101d79190610547565b604051602081830303815290604052905083818051906020012060001c6101fe919061069e565b92506000831461020e5782610210565b835b92505050919050565b6000804263ffffffff166dffffffffffffffffffffffffffff16901b602060ff16670de0b6b3a764000084606001516102529190610610565b63ffffffff166dffffffffffffffffffffffffffff16901b604060ff16846040015161ffff166dffffffffffffffffffffffffffff16901b605060ff16856000015160ff166dffffffffffffffffffffffffffff16901b605860ff16866020015160ff166dffffffffffffffffffffffffffff16901b606060ff16876000015160ff166dffffffffffffffffffffffffffff16901b6d80000000000000000000000000001717171717179050919050565b6040518060800160405280600060ff168152602001600061ffff168152602001600061ffff168152602001600081525090565b60006080828403121561034857600080fd5b61035260806105df565b90506000610362848285016103e9565b6000830152506020610376848285016103bf565b602083015250604061038a848285016103bf565b604083015250606061039e848285016103d4565b60608301525092915050565b6000813590506103b98161072d565b92915050565b6000813590506103ce81610744565b92915050565b6000813590506103e38161075b565b92915050565b6000813590506103f881610772565b92915050565b60006080828403121561041057600080fd5b600061041e84828501610336565b91505092915050565b60006020828403121561043957600080fd5b6000610447848285016103aa565b91505092915050565b60006020828403121561046257600080fd5b6000610470848285016103d4565b91505092915050565b61048a61048582610641565b61068a565b82525050565b6080820160008201516104a66000850182610538565b5060208201516104b960208501826104f4565b5060408201516104cc60408501826104f4565b5060608201516104df6060850182610512565b50505050565b6104ee8161064b565b82525050565b6104fd81610665565b82525050565b61050c81610673565b82525050565b61051b81610673565b82525050565b61053261052d82610673565b610694565b82525050565b6105418161067d565b82525050565b60006105538284610479565b60208201915081905092915050565b600061056e8285610521565b60208201915061057e8284610521565b6020820191508190509392505050565b60006080820190506105a36000830184610490565b92915050565b60006020820190506105be60008301846104e5565b92915050565b60006020820190506105d96000830184610503565b92915050565b6000604051905081810181811067ffffffffffffffff82111715610606576106056106fe565b5b8060405250919050565b600061061b82610673565b915061062683610673565b925082610636576106356106cf565b5b828204905092915050565b6000819050919050565b60006dffffffffffffffffffffffffffff82169050919050565b600061ffff82169050919050565b6000819050919050565b600060ff82169050919050565b6000819050919050565b6000819050919050565b60006106a982610673565b91506106b483610673565b9250826106c4576106c36106cf565b5b828206905092915050565b7f4e487b7100000000000000000000000000000000000000000000000000000000600052601260045260246000fd5b7f4e487b7100000000000000000000000000000000000000000000000000000000600052604160045260246000fd5b6107368161064b565b811461074157600080fd5b50565b61074d81610665565b811461075857600080fd5b50565b61076481610673565b811461076f57600080fd5b50565b61077b8161067d565b811461078657600080fd5b5056fea2646970667358221220c00225d2443cd1ad212eb6bfc20f2de05ba340da41a9373bb750ca025e47eb6e64736f6c63430008000033",
  "immutableReferences": {},
  "source": "// SPDX-License-Identifier: SimPL-2.0\n\npragma solidity ^0.8.0;\npragma experimental ABIEncoderV2;\n\nimport \"@openzeppelin/contracts/utils/structs/EnumerableSet.sol\";\n\n/**\n * @title For ERC721 Library\n *\n * @author Bit Lighthouse. Ace\n * AT: 2021-8-14 | VERSION: v1.0.2\n */\n\nlibrary NftLibrary {\n    using EnumerableSet for EnumerableSet.UintSet;\n\n    struct DetailStruct {\n        uint8 quality;  // quality for card\n        uint16 heroId;  // hero id for card\n        uint16 rate;    // reward rate for card\n        uint256 amount; // sale amount for card\n    }\n\n    struct CardStruct {\n        uint16 start;  // reward rate start for card\n        uint16 plus;   // reward rate plus for card\n        uint32[] role; // number of roles remaining\n    }\n\n    uint8 constant private BIT_QUALITY   = 96; // uint 8\n    uint8 constant private BIT_HEROID    = 88; // uint 8\n    uint8 constant private BIT_POWER     = 80; // uint 8\n    uint8 constant private BIT_CARDRATE  = 64; // uint 16\n    uint8 constant private BIT_AMOUNT    = 32; // uint 32\n\n    function random(uint256 value_) public view\n        returns (uint256 result) {\n\n        bytes32 h = keccak256(abi.encodePacked(\n            block.timestamp, block.number\n        ));\n\n        bytes memory seed = abi.encodePacked(h);\n        result = uint256(keccak256(seed)) % value_;\n        result = result == 0 ? value_ : result;\n    }\n\n    function generate(DetailStruct memory cs_) public\n        view returns (uint112 tokenId) {\n\n        tokenId = 1 << 111 |\n        uint112(uint8(cs_.quality))         << BIT_QUALITY |\n        uint112(uint8(cs_.heroId))          << BIT_HEROID |\n        uint112(uint8(cs_.quality))         << BIT_POWER |\n        uint112(uint16(cs_.rate))           << BIT_CARDRATE |\n        uint112(uint32(cs_.amount / 1e18))  << BIT_AMOUNT |\n        uint112(uint32(block.timestamp)) << 0;\n    }\n\n    function analysis(uint112 tokenId_) public pure\n        returns (DetailStruct memory cs) {\n\n        cs.quality = uint8(tokenId_  >> BIT_QUALITY);\n        cs.heroId  = uint8(tokenId_  >> BIT_HEROID);\n        cs.rate    = uint16(tokenId_ >> BIT_CARDRATE);\n        cs.amount  = uint32(tokenId_ >> BIT_AMOUNT);\n    }\n}",
  "sourcePath": "/home/ace/Projects/eth/other/dragon-ball-project/dragon-ball-contract/contracts/libraries/NftLibrary.sol",
  "compiler": {
    "name": "solc",
    "version": "0.8.0+commit.c7dfd78e.Emscripten.clang"
  },
  "schemaVersion": "3.4.3",
  "updatedAt": "2021-08-26T17:49:33.329Z",
  "networkType": "ethereum",
  "devdoc": {
    "author": "Bit Lighthouse. Ace AT: 2021-8-14 | VERSION: v1.0.2",
    "kind": "dev",
    "methods": {},
    "title": "For ERC721 Library",
    "version": 1
  },
  "userdoc": {
    "kind": "user",
    "methods": {},
    "version": 1
  }
}