{
  "contractName": "NftLibrary",
  "abi": [
    {
      "inputs": [
        {
          "internalType": "uint8",
          "name": "quality_",
          "type": "uint8"
        },
        {
          "internalType": "uint8",
          "name": "heroId_",
          "type": "uint8"
        },
        {
          "internalType": "uint16",
          "name": "index_",
          "type": "uint16"
        }
      ],
      "name": "cLeft",
      "outputs": [
        {
          "internalType": "uint40",
          "name": "card",
          "type": "uint40"
        }
      ],
      "stateMutability": "pure",
      "type": "function",
      "constant": true
    },
    {
      "inputs": [
        {
          "internalType": "uint256",
          "name": "card",
          "type": "uint256"
        }
      ],
      "name": "cRight",
      "outputs": [
        {
          "internalType": "uint8",
          "name": "quality",
          "type": "uint8"
        },
        {
          "internalType": "uint8",
          "name": "heroId",
          "type": "uint8"
        }
      ],
      "stateMutability": "pure",
      "type": "function",
      "constant": true
    },
    {
      "inputs": [
        {
          "components": [
            {
              "internalType": "uint8",
              "name": "quality",
              "type": "uint8"
            },
            {
              "internalType": "uint16",
              "name": "heroId",
              "type": "uint16"
            },
            {
              "internalType": "uint16",
              "name": "rate",
              "type": "uint16"
            },
            {
              "internalType": "uint256",
              "name": "amount",
              "type": "uint256"
            }
          ],
          "internalType": "struct NftLibrary.DetailStruct",
          "name": "cs_",
          "type": "tuple"
        }
      ],
      "name": "tLeft",
      "outputs": [
        {
          "internalType": "uint104",
          "name": "tokenId",
          "type": "uint104"
        }
      ],
      "stateMutability": "view",
      "type": "function",
      "constant": true
    },
    {
      "inputs": [
        {
          "internalType": "uint104",
          "name": "tokenId_",
          "type": "uint104"
        }
      ],
      "name": "tRight",
      "outputs": [
        {
          "components": [
            {
              "internalType": "uint8",
              "name": "quality",
              "type": "uint8"
            },
            {
              "internalType": "uint16",
              "name": "heroId",
              "type": "uint16"
            },
            {
              "internalType": "uint16",
              "name": "rate",
              "type": "uint16"
            },
            {
              "internalType": "uint256",
              "name": "amount",
              "type": "uint256"
            }
          ],
          "internalType": "struct NftLibrary.DetailStruct",
          "name": "cs",
          "type": "tuple"
        }
      ],
      "stateMutability": "pure",
      "type": "function",
      "constant": true
    }
  ],
  "bytecode": "0x61073e610053600b82828239805160001a607314610046577f4e487b7100000000000000000000000000000000000000000000000000000000600052600060045260246000fd5b30600052607381538281f3fe73000000000000000000000000000000000000000030146080604052600436106100565760003560e01c806378ba5d4a1461005b578063b7db31cb1461008b578063c018fb7f146100bb578063d6ebbcfb146100ec575b600080fd5b6100756004803603810190610070919061040a565b61011c565b604051610082919061059e565b60405180910390f35b6100a560048036038101906100a09190610485565b6101ec565b6040516100b291906105b9565b60405180910390f35b6100d560048036038101906100d0919061045c565b610233565b6040516100e39291906105d4565b60405180910390f35b61010660048036038101906101019190610433565b61025d565b6040516101139190610583565b60405180910390f35b6000804263ffffffff166cffffffffffffffffffffffffff16901b602060ff16836060015163ffffffff166cffffffffffffffffffffffffff16901b604060ff16846040015161ffff166cffffffffffffffffffffffffff16901b605060ff16856000015160ff166cffffffffffffffffffffffffff16901b605060ff16866020015160ff166cffffffffffffffffffffffffff16901b605860ff16876000015160ff166cffffffffffffffffffffffffff16901b6c800000000000000000000000001717171717179050919050565b6000808261ffff1664ffffffffff16901b601060ff168460ff1664ffffffffff16901b601860ff168660ff1664ffffffffff16901b64800000000017171790509392505050565b600080601860ff168364ffffffffff16901c9150601060ff168364ffffffffff16901c9050915091565b61026561030f565b605860ff16826cffffffffffffffffffffffffff16901c816000019060ff16908160ff1681525050605060ff16826cffffffffffffffffffffffffff16901c60ff16816020019061ffff16908161ffff1681525050604060ff16826cffffffffffffffffffffffffff16901c816040019061ffff16908161ffff1681525050602060ff16826cffffffffffffffffffffffffff16901c63ffffffff16816060018181525050919050565b6040518060800160405280600060ff168152602001600061ffff168152602001600061ffff168152602001600081525090565b60006080828403121561035457600080fd5b61035e60806105fd565b9050600061036e848285016103f5565b6000830152506020610382848285016103cb565b6020830152506040610396848285016103cb565b60408301525060606103aa848285016103e0565b60608301525092915050565b6000813590506103c5816106ac565b92915050565b6000813590506103da816106c3565b92915050565b6000813590506103ef816106da565b92915050565b600081359050610404816106f1565b92915050565b60006080828403121561041c57600080fd5b600061042a84828501610342565b91505092915050565b60006020828403121561044557600080fd5b6000610453848285016103b6565b91505092915050565b60006020828403121561046e57600080fd5b600061047c848285016103e0565b91505092915050565b60008060006060848603121561049a57600080fd5b60006104a8868287016103f5565b93505060206104b9868287016103f5565b92505060406104ca868287016103cb565b9150509250925092565b6080820160008201516104ea6000850182610574565b5060208201516104fd6020850182610538565b5060408201516105106040850182610538565b5060608201516105236060850182610547565b50505050565b6105328161062e565b82525050565b61054181610647565b82525050565b61055081610655565b82525050565b61055f8161065f565b82525050565b61056e81610670565b82525050565b61057d81610670565b82525050565b600060808201905061059860008301846104d4565b92915050565b60006020820190506105b36000830184610529565b92915050565b60006020820190506105ce6000830184610556565b92915050565b60006040820190506105e96000830185610565565b6105f66020830184610565565b9392505050565b6000604051905081810181811067ffffffffffffffff821117156106245761062361067d565b5b8060405250919050565b60006cffffffffffffffffffffffffff82169050919050565b600061ffff82169050919050565b6000819050919050565b600064ffffffffff82169050919050565b600060ff82169050919050565b7f4e487b7100000000000000000000000000000000000000000000000000000000600052604160045260246000fd5b6106b58161062e565b81146106c057600080fd5b50565b6106cc81610647565b81146106d757600080fd5b50565b6106e381610655565b81146106ee57600080fd5b50565b6106fa81610670565b811461070557600080fd5b5056fea26469706673582212209a4359131a96a2e74082e0fcaff2a6bcb96e9156b49861dd3dbf602e8624f6e064736f6c63430008000033",
  "immutableReferences": {},
  "source": "// SPDX-License-Identifier: SimPL-2.0\n\npragma solidity ^0.8.0;\npragma experimental ABIEncoderV2;\n\nimport \"@openzeppelin/contracts/utils/structs/EnumerableSet.sol\";\n\n/**\n * @title For ERC721 Library\n *\n * @author Bit Lighthouse. Ace\n * AT: 2021-8-14 | VERSION: v1.0.2\n */\n\nlibrary NftLibrary {\n    using EnumerableSet for EnumerableSet.UintSet;\n\n    uint8 constant private BIT_QUALITY   = 24; // uint 8\n    uint8 constant private BIT_HEROID    = 16; // uint 8\n    uint8 constant private BIT_TQUALITY  = 88; // uint 8\n    uint8 constant private BIT_THEROID   = 80; // uint 8\n    uint8 constant private BIT_POWER     = 80; // uint 8\n    uint8 constant private BIT_CARDRATE  = 64; // uint 32\n    uint8 constant private BIT_AMOUNT    = 32; // uint 32\n\n    function cLeft(\n        uint8 quality_, uint8 heroId_, uint16 index_\n    ) public pure returns (uint40 card) {\n\n        card = 1 << 39 |\n        uint40(uint8(quality_)) << BIT_QUALITY |\n        uint40(uint8(heroId_))  << BIT_HEROID |\n        uint40(uint16(index_))  << 0;\n    }\n\n    function cRight(uint256 card) public pure returns\n        (uint8 quality, uint8 heroId) {\n        \n        quality = uint8(uint40(card) >> BIT_QUALITY);\n        heroId  = uint8(uint40(card) >> BIT_HEROID);\n    }\n\n    function tLeft(DetailStruct memory cs_) public\n        view returns (uint104 tokenId) {\n\n        tokenId = 1 << 103 |\n        uint104(uint8(cs_.quality))  << BIT_TQUALITY |\n        uint104(uint8(cs_.heroId))   << BIT_THEROID |\n        uint104(uint8(cs_.quality))  << BIT_POWER |\n        uint104(uint16(cs_.rate))    << BIT_CARDRATE |\n        uint104(uint32(cs_.amount))  << BIT_AMOUNT |\n        uint104(uint32(block.timestamp)) << 0;\n    }\n\n    function tRight(uint104 tokenId_) public pure\n        returns (DetailStruct memory cs) {\n\n        cs.quality = uint8(tokenId_  >> BIT_TQUALITY);\n        cs.heroId  = uint8(tokenId_  >> BIT_THEROID);\n        cs.rate    = uint16(tokenId_ >> BIT_CARDRATE);\n        cs.amount  = uint32(tokenId_ >> BIT_AMOUNT);\n    }\n\n    struct UserStruct { uint256 powers; uint256 period; uint256 exchange; }\n\n    struct RecordStruct { uint256 powers; uint256 reward; uint104[] specials; }\n\n    struct DetailStruct { uint8 quality; uint16 heroId; uint16 rate; uint256 amount; }\n}",
  "sourcePath": "/home/ace/Projects/eth/other/dragon-ball-project/dragon-ball-contract/contracts/libraries/NftLibrary.sol",
  "compiler": {
    "name": "solc",
    "version": "0.8.0+commit.c7dfd78e.Emscripten.clang"
  },
  "schemaVersion": "3.4.3",
  "updatedAt": "2021-08-25T13:30:49.934Z",
  "networkType": "ethereum",
  "devdoc": {
    "author": "Bit Lighthouse. Ace AT: 2021-8-14 | VERSION: v1.0.2",
    "kind": "dev",
    "methods": {},
    "title": "For ERC721 Library",
    "version": 1
  },
  "userdoc": {
    "kind": "user",
    "methods": {},
    "version": 1
  }
}