{
  "contractName": "Token",
  "abi": [
    {
      "inputs": [
        {
          "internalType": "address",
          "name": "auth_",
          "type": "address"
        }
      ],
      "stateMutability": "nonpayable",
      "type": "constructor"
    },
    {
      "anonymous": false,
      "inputs": [
        {
          "indexed": true,
          "internalType": "address",
          "name": "owner",
          "type": "address"
        },
        {
          "indexed": true,
          "internalType": "address",
          "name": "spender",
          "type": "address"
        },
        {
          "indexed": false,
          "internalType": "uint256",
          "name": "value",
          "type": "uint256"
        }
      ],
      "name": "Approval",
      "type": "event"
    },
    {
      "anonymous": false,
      "inputs": [
        {
          "indexed": true,
          "internalType": "address",
          "name": "previousOwner",
          "type": "address"
        },
        {
          "indexed": true,
          "internalType": "address",
          "name": "newOwner",
          "type": "address"
        }
      ],
      "name": "OwnershipTransferred",
      "type": "event"
    },
    {
      "anonymous": false,
      "inputs": [
        {
          "indexed": true,
          "internalType": "address",
          "name": "from",
          "type": "address"
        },
        {
          "indexed": true,
          "internalType": "address",
          "name": "to",
          "type": "address"
        },
        {
          "indexed": false,
          "internalType": "uint256",
          "name": "value",
          "type": "uint256"
        }
      ],
      "name": "Transfer",
      "type": "event"
    },
    {
      "inputs": [
        {
          "internalType": "address",
          "name": "owner",
          "type": "address"
        },
        {
          "internalType": "address",
          "name": "spender",
          "type": "address"
        }
      ],
      "name": "allowance",
      "outputs": [
        {
          "internalType": "uint256",
          "name": "",
          "type": "uint256"
        }
      ],
      "stateMutability": "view",
      "type": "function",
      "constant": true
    },
    {
      "inputs": [
        {
          "internalType": "address",
          "name": "spender",
          "type": "address"
        },
        {
          "internalType": "uint256",
          "name": "amount",
          "type": "uint256"
        }
      ],
      "name": "approve",
      "outputs": [
        {
          "internalType": "bool",
          "name": "",
          "type": "bool"
        }
      ],
      "stateMutability": "nonpayable",
      "type": "function"
    },
    {
      "inputs": [],
      "name": "authority",
      "outputs": [
        {
          "internalType": "contract Authority",
          "name": "",
          "type": "address"
        }
      ],
      "stateMutability": "view",
      "type": "function",
      "constant": true
    },
    {
      "inputs": [
        {
          "internalType": "address",
          "name": "account",
          "type": "address"
        }
      ],
      "name": "balanceOf",
      "outputs": [
        {
          "internalType": "uint256",
          "name": "",
          "type": "uint256"
        }
      ],
      "stateMutability": "view",
      "type": "function",
      "constant": true
    },
    {
      "inputs": [
        {
          "internalType": "string",
          "name": "",
          "type": "string"
        }
      ],
      "name": "configs",
      "outputs": [
        {
          "internalType": "uint256",
          "name": "",
          "type": "uint256"
        }
      ],
      "stateMutability": "view",
      "type": "function",
      "constant": true
    },
    {
      "inputs": [],
      "name": "decimals",
      "outputs": [
        {
          "internalType": "uint8",
          "name": "",
          "type": "uint8"
        }
      ],
      "stateMutability": "view",
      "type": "function",
      "constant": true
    },
    {
      "inputs": [
        {
          "internalType": "address",
          "name": "spender",
          "type": "address"
        },
        {
          "internalType": "uint256",
          "name": "subtractedValue",
          "type": "uint256"
        }
      ],
      "name": "decreaseAllowance",
      "outputs": [
        {
          "internalType": "bool",
          "name": "",
          "type": "bool"
        }
      ],
      "stateMutability": "nonpayable",
      "type": "function"
    },
    {
      "inputs": [
        {
          "internalType": "address",
          "name": "spender",
          "type": "address"
        },
        {
          "internalType": "uint256",
          "name": "addedValue",
          "type": "uint256"
        }
      ],
      "name": "increaseAllowance",
      "outputs": [
        {
          "internalType": "bool",
          "name": "",
          "type": "bool"
        }
      ],
      "stateMutability": "nonpayable",
      "type": "function"
    },
    {
      "inputs": [],
      "name": "name",
      "outputs": [
        {
          "internalType": "string",
          "name": "",
          "type": "string"
        }
      ],
      "stateMutability": "view",
      "type": "function",
      "constant": true
    },
    {
      "inputs": [],
      "name": "owner",
      "outputs": [
        {
          "internalType": "address",
          "name": "",
          "type": "address"
        }
      ],
      "stateMutability": "view",
      "type": "function",
      "constant": true
    },
    {
      "inputs": [],
      "name": "renounceOwnership",
      "outputs": [],
      "stateMutability": "nonpayable",
      "type": "function"
    },
    {
      "inputs": [
        {
          "internalType": "address",
          "name": "authority_",
          "type": "address"
        }
      ],
      "name": "setAuthority",
      "outputs": [],
      "stateMutability": "nonpayable",
      "type": "function"
    },
    {
      "inputs": [
        {
          "internalType": "string",
          "name": "name_",
          "type": "string"
        },
        {
          "internalType": "uint256",
          "name": "config_",
          "type": "uint256"
        }
      ],
      "name": "setConfig",
      "outputs": [],
      "stateMutability": "nonpayable",
      "type": "function"
    },
    {
      "inputs": [],
      "name": "symbol",
      "outputs": [
        {
          "internalType": "string",
          "name": "",
          "type": "string"
        }
      ],
      "stateMutability": "view",
      "type": "function",
      "constant": true
    },
    {
      "inputs": [],
      "name": "totalSupply",
      "outputs": [
        {
          "internalType": "uint256",
          "name": "",
          "type": "uint256"
        }
      ],
      "stateMutability": "view",
      "type": "function",
      "constant": true
    },
    {
      "inputs": [
        {
          "internalType": "address",
          "name": "newOwner",
          "type": "address"
        }
      ],
      "name": "transferOwnership",
      "outputs": [],
      "stateMutability": "nonpayable",
      "type": "function"
    },
    {
      "inputs": [
        {
          "internalType": "uint256",
          "name": "index",
          "type": "uint256"
        },
        {
          "internalType": "uint256",
          "name": "rate",
          "type": "uint256"
        }
      ],
      "name": "setTransferRate",
      "outputs": [],
      "stateMutability": "nonpayable",
      "type": "function"
    },
    {
      "inputs": [
        {
          "internalType": "address",
          "name": "target",
          "type": "address"
        },
        {
          "internalType": "bool",
          "name": "enable",
          "type": "bool"
        }
      ],
      "name": "setWhiteList",
      "outputs": [],
      "stateMutability": "nonpayable",
      "type": "function"
    },
    {
      "inputs": [
        {
          "internalType": "address",
          "name": "recipient",
          "type": "address"
        },
        {
          "internalType": "uint256",
          "name": "amount",
          "type": "uint256"
        }
      ],
      "name": "transfer",
      "outputs": [
        {
          "internalType": "bool",
          "name": "success",
          "type": "bool"
        }
      ],
      "stateMutability": "nonpayable",
      "type": "function"
    },
    {
      "inputs": [
        {
          "internalType": "address",
          "name": "sender",
          "type": "address"
        },
        {
          "internalType": "address",
          "name": "recipient",
          "type": "address"
        },
        {
          "internalType": "uint256",
          "name": "amount",
          "type": "uint256"
        }
      ],
      "name": "transferFrom",
      "outputs": [
        {
          "internalType": "bool",
          "name": "success",
          "type": "bool"
        }
      ],
      "stateMutability": "nonpayable",
      "type": "function"
    }
  ],
  "bytecode": "0x608060405260405180606001604052806040518060400160405280600581526020017f464f554e4400000000000000000000000000000000000000000000000000000081525081526020016040518060400160405280600981526020017f455854454e53494f4e000000000000000000000000000000000000000000000081525081526020016040518060400160405280600981526020017f424c41434b484f4c4500000000000000000000000000000000000000000000008152508152506008906003620000d0929190620004f5565b506040518060600160405280600560ff168152602001600360ff168152602001600260ff1681525060099060036200010a9291906200055c565b503480156200011857600080fd5b50604051620034d0380380620034d083398181016040528101906200013e9190620006e8565b6040518060400160405280600b81526020017f447261676f6e2042616c6c0000000000000000000000000000000000000000008152506040518060400160405280600481526020017f4442465a00000000000000000000000000000000000000000000000000000000815250826000620001bd6200037960201b60201c565b9050806000806101000a81548173ffffffffffffffffffffffffffffffffffffffff021916908373ffffffffffffffffffffffffffffffffffffffff1602179055508073ffffffffffffffffffffffffffffffffffffffff16600073ffffffffffffffffffffffffffffffffffffffff167f8be0079c531659141344cd1fd0a4f28419497f9722a3daafe3b4186f6b6457e060405160405180910390a35080600160006101000a81548173ffffffffffffffffffffffffffffffffffffffff021916908373ffffffffffffffffffffffffffffffffffffffff160217905550508160069080519060200190620002b5929190620005b3565b508060079080519060200190620002ce929190620005b3565b5050506000620002e36200038160201b60201c565b60ff16600a620002f491906200086f565b9050620003193382633b9aca006200030d9190620009ac565b6200038a60201b60201c565b6001600a60003373ffffffffffffffffffffffffffffffffffffffff1673ffffffffffffffffffffffffffffffffffffffff16815260200190815260200160002060006101000a81548160ff021916908315150217905550505062000b06565b600033905090565b60006012905090565b600073ffffffffffffffffffffffffffffffffffffffff168273ffffffffffffffffffffffffffffffffffffffff161415620003fd576040517f08c379a0000000000000000000000000000000000000000000000000000000008152600401620003f49062000767565b60405180910390fd5b6200041160008383620004f060201b60201c565b8060056000828254620004259190620007b7565b9250508190555080600360008473ffffffffffffffffffffffffffffffffffffffff1673ffffffffffffffffffffffffffffffffffffffff16815260200190815260200160002060008282546200047d9190620007b7565b925050819055508173ffffffffffffffffffffffffffffffffffffffff16600073ffffffffffffffffffffffffffffffffffffffff167fddf252ad1be2c89b69c2b068fc378daa952ba7f163c4a11628f55a4df523b3ef83604051620004e4919062000789565b60405180910390a35050565b505050565b82805482825590600052602060002090810192821562000549579160200282015b828111156200054857825182908051906020019062000537929190620005b3565b509160200191906001019062000516565b5b50905062000558919062000644565b5090565b828054828255906000526020600020908101928215620005a0579160200282015b828111156200059f578251829060ff169055916020019190600101906200057d565b5b509050620005af91906200066c565b5090565b828054620005c19062000a4b565b90600052602060002090601f016020900481019282620005e5576000855562000631565b82601f106200060057805160ff191683800117855562000631565b8280016001018555821562000631579182015b828111156200063057825182559160200191906001019062000613565b5b5090506200064091906200066c565b5090565b5b808211156200066857600081816200065e91906200068b565b5060010162000645565b5090565b5b80821115620006875760008160009055506001016200066d565b5090565b508054620006999062000a4b565b6000825580601f10620006ad5750620006ce565b601f016020900490600052602060002090810190620006cd91906200066c565b5b50565b600081519050620006e28162000aec565b92915050565b600060208284031215620006fb57600080fd5b60006200070b84828501620006d1565b91505092915050565b600062000723601f83620007a6565b91507f45524332303a206d696e7420746f20746865207a65726f2061646472657373006000830152602082019050919050565b620007618162000a41565b82525050565b60006020820190508181036000830152620007828162000714565b9050919050565b6000602082019050620007a0600083018462000756565b92915050565b600082825260208201905092915050565b6000620007c48262000a41565b9150620007d18362000a41565b9250827fffffffffffffffffffffffffffffffffffffffffffffffffffffffffffffffff0382111562000809576200080862000a81565b5b828201905092915050565b6000808291508390505b600185111562000866578086048111156200083e576200083d62000a81565b5b60018516156200084e5780820291505b80810290506200085e8562000adf565b94506200081e565b94509492505050565b60006200087c8262000a41565b9150620008898362000a41565b9250620008b87fffffffffffffffffffffffffffffffffffffffffffffffffffffffffffffffff8484620008c0565b905092915050565b600082620008d25760019050620009a5565b81620008e25760009050620009a5565b8160018114620008fb576002811462000906576200093c565b6001915050620009a5565b60ff8411156200091b576200091a62000a81565b5b8360020a91508482111562000935576200093462000a81565b5b50620009a5565b5060208310610133831016604e8410600b8410161715620009765782820a90508381111562000970576200096f62000a81565b5b620009a5565b62000985848484600162000814565b925090508184048111156200099f576200099e62000a81565b5b81810290505b9392505050565b6000620009b98262000a41565b9150620009c68362000a41565b9250817fffffffffffffffffffffffffffffffffffffffffffffffffffffffffffffffff048311821515161562000a025762000a0162000a81565b5b828202905092915050565b600062000a1a8262000a21565b9050919050565b600073ffffffffffffffffffffffffffffffffffffffff82169050919050565b6000819050919050565b6000600282049050600182168062000a6457607f821691505b6020821081141562000a7b5762000a7a62000ab0565b5b50919050565b7f4e487b7100000000000000000000000000000000000000000000000000000000600052601160045260246000fd5b7f4e487b7100000000000000000000000000000000000000000000000000000000600052602260045260246000fd5b60008160011c9050919050565b62000af78162000a0d565b811462000b0357600080fd5b50565b6129ba8062000b166000396000f3fe608060405234801561001057600080fd5b506004361061012c5760003560e01c8063715018a6116100ad578063a457c2d711610071578063a457c2d714610331578063a9059cbb14610361578063bf7e214f14610391578063dd62ed3e146103af578063f2fde38b146103df5761012c565b8063715018a6146102b35780637a9e5e4b146102bd5780638d14e127146102d95780638da5cb5b146102f557806395d89b41146103135761012c565b806339509351116100f457806339509351146101eb5780633e8f5b901461021b5780635d5696ad146102375780635ef7fbad1461025357806370a08231146102835761012c565b806306fdde0314610131578063095ea7b31461014f57806318160ddd1461017f57806323b872dd1461019d578063313ce567146101cd575b600080fd5b6101396103fb565b60405161014691906123ff565b60405180910390f35b61016960048036038101906101649190611d9e565b61048d565b60405161017691906123c9565b60405180910390f35b6101876104ab565b6040516101949190612541565b60405180910390f35b6101b760048036038101906101b29190611d13565b6104b5565b6040516101c491906123c9565b60405180910390f35b6101d5610523565b6040516101e2919061255c565b60405180910390f35b61020560048036038101906102009190611d9e565b61052c565b60405161021291906123c9565b60405180910390f35b61023560048036038101906102309190611e44565b6105d8565b005b610251600480360381019061024c9190611e98565b610722565b005b61026d60048036038101906102689190611e03565b610892565b60405161027a9190612541565b60405180910390f35b61029d60048036038101906102989190611c85565b6108c0565b6040516102aa9190612541565b60405180910390f35b6102bb610909565b005b6102d760048036038101906102d29190611c85565b610a43565b005b6102f360048036038101906102ee9190611d62565b610b03565b005b6102fd610c81565b60405161030a9190612350565b60405180910390f35b61031b610caa565b60405161032891906123ff565b60405180910390f35b61034b60048036038101906103469190611d9e565b610d3c565b60405161035891906123c9565b60405180910390f35b61037b60048036038101906103769190611d9e565b610e30565b60405161038891906123c9565b60405180910390f35b610399610e4e565b6040516103a691906123e4565b60405180910390f35b6103c960048036038101906103c49190611cd7565b610e74565b6040516103d69190612541565b60405180910390f35b6103f960048036038101906103f49190611c85565b610efb565b005b60606006805461040a906127cf565b80601f0160208091040260200160405190810160405280929190818152602001828054610436906127cf565b80156104835780601f1061045857610100808354040283529160200191610483565b820191906000526020600020905b81548152906001019060200180831161046657829003601f168201915b5050505050905090565b60006104a161049a6110a4565b84846110ac565b6001905092915050565b6000600554905090565b6000806104c9856104c46110a4565b610e74565b90506104f88360405180606001604052806028815260200161295d60289139836112779092919063ffffffff16565b905061050c856105066110a4565b836110ac565b6105178585856112cc565b60019150509392505050565b60006012905090565b60006105ce6105396110a4565b8484600460006105476110a4565b73ffffffffffffffffffffffffffffffffffffffff1673ffffffffffffffffffffffffffffffffffffffff16815260200190815260200160002060008873ffffffffffffffffffffffffffffffffffffffff1673ffffffffffffffffffffffffffffffffffffffff168152602001908152602001600020546105c991906125ff565b6110ac565b6001905092915050565b6040518060400160405280600681526020017f434f4e4649470000000000000000000000000000000000000000000000000000815250600160009054906101000a900473ffffffffffffffffffffffffffffffffffffffff1673ffffffffffffffffffffffffffffffffffffffff1663f5e65c7233836040518363ffffffff1660e01b815260040161066b92919061236b565b60206040518083038186803b15801561068357600080fd5b505afa158015610697573d6000803e3d6000fd5b505050506040513d601f19601f820116820180604052508101906106bb9190611dda565b6106fa576040517f08c379a00000000000000000000000000000000000000000000000000000000081526004016106f190612501565b60405180910390fd5b8160028460405161070b9190612339565b908152602001604051809103902081905550505050565b6040518060400160405280600681526020017f434f4e4649470000000000000000000000000000000000000000000000000000815250600160009054906101000a900473ffffffffffffffffffffffffffffffffffffffff1673ffffffffffffffffffffffffffffffffffffffff1663f5e65c7233836040518363ffffffff1660e01b81526004016107b592919061236b565b60206040518083038186803b1580156107cd57600080fd5b505afa1580156107e1573d6000803e3d6000fd5b505050506040513d601f19601f820116820180604052508101906108059190611dda565b610844576040517f08c379a000000000000000000000000000000000000000000000000000000000815260040161083b90612501565b60405180910390fd5b816009848154811061087f577f4e487b7100000000000000000000000000000000000000000000000000000000600052603260045260246000fd5b9060005260206000200181905550505050565b6002818051602081018201805184825260208301602085012081835280955050505050506000915090505481565b6000600360008373ffffffffffffffffffffffffffffffffffffffff1673ffffffffffffffffffffffffffffffffffffffff168152602001908152602001600020549050919050565b6109116110a4565b73ffffffffffffffffffffffffffffffffffffffff1661092f610c81565b73ffffffffffffffffffffffffffffffffffffffff1614610985576040517f08c379a000000000000000000000000000000000000000000000000000000000815260040161097c906124a1565b60405180910390fd5b600073ffffffffffffffffffffffffffffffffffffffff1660008054906101000a900473ffffffffffffffffffffffffffffffffffffffff1673ffffffffffffffffffffffffffffffffffffffff167f8be0079c531659141344cd1fd0a4f28419497f9722a3daafe3b4186f6b6457e060405160405180910390a360008060006101000a81548173ffffffffffffffffffffffffffffffffffffffff021916908373ffffffffffffffffffffffffffffffffffffffff160217905550565b610a4b6110a4565b73ffffffffffffffffffffffffffffffffffffffff16610a69610c81565b73ffffffffffffffffffffffffffffffffffffffff1614610abf576040517f08c379a0000000000000000000000000000000000000000000000000000000008152600401610ab6906124a1565b60405180910390fd5b80600160006101000a81548173ffffffffffffffffffffffffffffffffffffffff021916908373ffffffffffffffffffffffffffffffffffffffff16021790555050565b6040518060400160405280600681526020017f434f4e4649470000000000000000000000000000000000000000000000000000815250600160009054906101000a900473ffffffffffffffffffffffffffffffffffffffff1673ffffffffffffffffffffffffffffffffffffffff1663f5e65c7233836040518363ffffffff1660e01b8152600401610b9692919061236b565b60206040518083038186803b158015610bae57600080fd5b505afa158015610bc2573d6000803e3d6000fd5b505050506040513d601f19601f82011682018060405250810190610be69190611dda565b610c25576040517f08c379a0000000000000000000000000000000000000000000000000000000008152600401610c1c90612501565b60405180910390fd5b81600a60008573ffffffffffffffffffffffffffffffffffffffff1673ffffffffffffffffffffffffffffffffffffffff16815260200190815260200160002060006101000a81548160ff021916908315150217905550505050565b60008060009054906101000a900473ffffffffffffffffffffffffffffffffffffffff16905090565b606060078054610cb9906127cf565b80601f0160208091040260200160405190810160405280929190818152602001828054610ce5906127cf565b8015610d325780601f10610d0757610100808354040283529160200191610d32565b820191906000526020600020905b815481529060010190602001808311610d1557829003601f168201915b5050505050905090565b60008060046000610d4b6110a4565b73ffffffffffffffffffffffffffffffffffffffff1673ffffffffffffffffffffffffffffffffffffffff16815260200190815260200160002060008573ffffffffffffffffffffffffffffffffffffffff1673ffffffffffffffffffffffffffffffffffffffff16815260200190815260200160002054905082811015610e08576040517f08c379a0000000000000000000000000000000000000000000000000000000008152600401610dff90612521565b60405180910390fd5b610e25610e136110a4565b858584610e2091906126e0565b6110ac565b600191505092915050565b6000610e44610e3d6110a4565b84846112cc565b6001905092915050565b600160009054906101000a900473ffffffffffffffffffffffffffffffffffffffff1681565b6000600460008473ffffffffffffffffffffffffffffffffffffffff1673ffffffffffffffffffffffffffffffffffffffff16815260200190815260200160002060008373ffffffffffffffffffffffffffffffffffffffff1673ffffffffffffffffffffffffffffffffffffffff16815260200190815260200160002054905092915050565b610f036110a4565b73ffffffffffffffffffffffffffffffffffffffff16610f21610c81565b73ffffffffffffffffffffffffffffffffffffffff1614610f77576040517f08c379a0000000000000000000000000000000000000000000000000000000008152600401610f6e906124a1565b60405180910390fd5b600073ffffffffffffffffffffffffffffffffffffffff168173ffffffffffffffffffffffffffffffffffffffff161415610fe7576040517f08c379a0000000000000000000000000000000000000000000000000000000008152600401610fde90612441565b60405180910390fd5b8073ffffffffffffffffffffffffffffffffffffffff1660008054906101000a900473ffffffffffffffffffffffffffffffffffffffff1673ffffffffffffffffffffffffffffffffffffffff167f8be0079c531659141344cd1fd0a4f28419497f9722a3daafe3b4186f6b6457e060405160405180910390a3806000806101000a81548173ffffffffffffffffffffffffffffffffffffffff021916908373ffffffffffffffffffffffffffffffffffffffff16021790555050565b600033905090565b600073ffffffffffffffffffffffffffffffffffffffff168373ffffffffffffffffffffffffffffffffffffffff16141561111c576040517f08c379a0000000000000000000000000000000000000000000000000000000008152600401611113906124e1565b60405180910390fd5b600073ffffffffffffffffffffffffffffffffffffffff168273ffffffffffffffffffffffffffffffffffffffff16141561118c576040517f08c379a000000000000000000000000000000000000000000000000000000000815260040161118390612461565b60405180910390fd5b80600460008573ffffffffffffffffffffffffffffffffffffffff1673ffffffffffffffffffffffffffffffffffffffff16815260200190815260200160002060008473ffffffffffffffffffffffffffffffffffffffff1673ffffffffffffffffffffffffffffffffffffffff168152602001908152602001600020819055508173ffffffffffffffffffffffffffffffffffffffff168373ffffffffffffffffffffffffffffffffffffffff167f8c5be1e5ebec7d5bd14f71427d1e84f3dd0314c0f7b2291e5b200ac8c7c3b9258360405161126a9190612541565b60405180910390a3505050565b60008383111582906112bf576040517f08c379a00000000000000000000000000000000000000000000000000000000081526004016112b691906123ff565b60405180910390fd5b5082840390509392505050565b6040518060400160405280600881526020017f5452414e53464552000000000000000000000000000000000000000000000000815250600160009054906101000a900473ffffffffffffffffffffffffffffffffffffffff1673ffffffffffffffffffffffffffffffffffffffff1663466f98e860006040518263ffffffff1660e01b815260040161135e919061239b565b60206040518083038186803b15801561137657600080fd5b505afa15801561138a573d6000803e3d6000fd5b505050506040513d601f19601f820116820180604052508101906113ae9190611dda565b15806114655750600160009054906101000a900473ffffffffffffffffffffffffffffffffffffffff1673ffffffffffffffffffffffffffffffffffffffff1663466f98e86000836040518363ffffffff1660e01b815260040161141392919061236b565b60206040518083038186803b15801561142b57600080fd5b505afa15801561143f573d6000803e3d6000fd5b505050506040513d601f19601f820116820180604052508101906114639190611dda565b155b806115185750600160009054906101000a900473ffffffffffffffffffffffffffffffffffffffff1673ffffffffffffffffffffffffffffffffffffffff1663466f98e8336040518263ffffffff1660e01b81526004016114c6919061239b565b60206040518083038186803b1580156114de57600080fd5b505afa1580156114f2573d6000803e3d6000fd5b505050506040513d601f19601f820116820180604052508101906115169190611dda565b155b806115cd5750600160009054906101000a900473ffffffffffffffffffffffffffffffffffffffff1673ffffffffffffffffffffffffffffffffffffffff1663466f98e833836040518363ffffffff1660e01b815260040161157b92919061236b565b60206040518083038186803b15801561159357600080fd5b505afa1580156115a7573d6000803e3d6000fd5b505050506040513d601f19601f820116820180604052508101906115cb9190611dda565b155b61160c576040517f08c379a000000000000000000000000000000000000000000000000000000000815260040161160390612501565b60405180910390fd5b60001515600a60008673ffffffffffffffffffffffffffffffffffffffff1673ffffffffffffffffffffffffffffffffffffffff16815260200190815260200160002060009054906101000a900460ff16151514156118d957600061168e6064611680600a866118eb90919063ffffffff16565b61190190919063ffffffff16565b905060005b6009805490508110156118af576000600882815481106116dc577f4e487b7100000000000000000000000000000000000000000000000000000000600052603260045260246000fd5b9060005260206000200180546116f1906127cf565b80601f016020809104026020016040519081016040528092919081815260200182805461171d906127cf565b801561176a5780601f1061173f5761010080835404028352916020019161176a565b820191906000526020600020905b81548152906001019060200180831161174d57829003601f168201915b505050505090506000600160009054906101000a900473ffffffffffffffffffffffffffffffffffffffff1673ffffffffffffffffffffffffffffffffffffffff16636957a0b2836040518263ffffffff1660e01b81526004016117ce91906123ff565b60206040518083038186803b1580156117e657600080fd5b505afa1580156117fa573d6000803e3d6000fd5b505050506040513d601f19601f8201168201806040525081019061181e9190611cae565b905060006118796009858154811061185f577f4e487b7100000000000000000000000000000000000000000000000000000000600052603260045260246000fd5b9060005260206000200154866118eb90919063ffffffff16565b9050611899898361189460648561190190919063ffffffff16565b611917565b50505080806118a790612801565b915050611693565b5060006118c58285611b9990919063ffffffff16565b90506118d2868683611917565b50506118e5565b6118e4848484611917565b5b50505050565b600081836118f99190612686565b905092915050565b6000818361190f9190612655565b905092915050565b600073ffffffffffffffffffffffffffffffffffffffff168373ffffffffffffffffffffffffffffffffffffffff161415611987576040517f08c379a000000000000000000000000000000000000000000000000000000000815260040161197e906124c1565b60405180910390fd5b600073ffffffffffffffffffffffffffffffffffffffff168273ffffffffffffffffffffffffffffffffffffffff1614156119f7576040517f08c379a00000000000000000000000000000000000000000000000000000000081526004016119ee90612421565b60405180910390fd5b611a02838383611baf565b6000600360008573ffffffffffffffffffffffffffffffffffffffff1673ffffffffffffffffffffffffffffffffffffffff16815260200190815260200160002054905081811015611a89576040517f08c379a0000000000000000000000000000000000000000000000000000000008152600401611a8090612481565b60405180910390fd5b8181611a9591906126e0565b600360008673ffffffffffffffffffffffffffffffffffffffff1673ffffffffffffffffffffffffffffffffffffffff1681526020019081526020016000208190555081600360008573ffffffffffffffffffffffffffffffffffffffff1673ffffffffffffffffffffffffffffffffffffffff1681526020019081526020016000206000828254611b2791906125ff565b925050819055508273ffffffffffffffffffffffffffffffffffffffff168473ffffffffffffffffffffffffffffffffffffffff167fddf252ad1be2c89b69c2b068fc378daa952ba7f163c4a11628f55a4df523b3ef84604051611b8b9190612541565b60405180910390a350505050565b60008183611ba791906126e0565b905092915050565b505050565b6000611bc7611bc2846125a8565b612577565b905082815260208101848484011115611bdf57600080fd5b611bea84828561278d565b509392505050565b600081359050611c0181612917565b92915050565b600081519050611c1681612917565b92915050565b600081359050611c2b8161292e565b92915050565b600081519050611c408161292e565b92915050565b600082601f830112611c5757600080fd5b8135611c67848260208601611bb4565b91505092915050565b600081359050611c7f81612945565b92915050565b600060208284031215611c9757600080fd5b6000611ca584828501611bf2565b91505092915050565b600060208284031215611cc057600080fd5b6000611cce84828501611c07565b91505092915050565b60008060408385031215611cea57600080fd5b6000611cf885828601611bf2565b9250506020611d0985828601611bf2565b9150509250929050565b600080600060608486031215611d2857600080fd5b6000611d3686828701611bf2565b9350506020611d4786828701611bf2565b9250506040611d5886828701611c70565b9150509250925092565b60008060408385031215611d7557600080fd5b6000611d8385828601611bf2565b9250506020611d9485828601611c1c565b9150509250929050565b60008060408385031215611db157600080fd5b6000611dbf85828601611bf2565b9250506020611dd085828601611c70565b9150509250929050565b600060208284031215611dec57600080fd5b6000611dfa84828501611c31565b91505092915050565b600060208284031215611e1557600080fd5b600082013567ffffffffffffffff811115611e2f57600080fd5b611e3b84828501611c46565b91505092915050565b60008060408385031215611e5757600080fd5b600083013567ffffffffffffffff811115611e7157600080fd5b611e7d85828601611c46565b9250506020611e8e85828601611c70565b9150509250929050565b60008060408385031215611eab57600080fd5b6000611eb985828601611c70565b9250506020611eca85828601611c70565b9150509250929050565b611edd81612714565b82525050565b611eec81612726565b82525050565b611efb81612769565b82525050565b6000611f0c826125d8565b611f1681856125e3565b9350611f2681856020860161279c565b611f2f81612906565b840191505092915050565b6000611f45826125d8565b611f4f81856125f4565b9350611f5f81856020860161279c565b80840191505092915050565b6000611f786023836125e3565b91507f45524332303a207472616e7366657220746f20746865207a65726f206164647260008301527f65737300000000000000000000000000000000000000000000000000000000006020830152604082019050919050565b6000611fde6026836125e3565b91507f4f776e61626c653a206e6577206f776e657220697320746865207a65726f206160008301527f64647265737300000000000000000000000000000000000000000000000000006020830152604082019050919050565b60006120446022836125e3565b91507f45524332303a20617070726f766520746f20746865207a65726f20616464726560008301527f73730000000000000000000000000000000000000000000000000000000000006020830152604082019050919050565b60006120aa6026836125e3565b91507f45524332303a207472616e7366657220616d6f756e742065786365656473206260008301527f616c616e636500000000000000000000000000000000000000000000000000006020830152604082019050919050565b60006121106020836125e3565b91507f4f776e61626c653a2063616c6c6572206973206e6f7420746865206f776e65726000830152602082019050919050565b60006121506003836125e3565b91507f414c4c00000000000000000000000000000000000000000000000000000000006000830152602082019050919050565b60006121906025836125e3565b91507f45524332303a207472616e736665722066726f6d20746865207a65726f20616460008301527f64726573730000000000000000000000000000000000000000000000000000006020830152604082019050919050565b60006121f66024836125e3565b91507f45524332303a20617070726f76652066726f6d20746865207a65726f2061646460008301527f72657373000000000000000000000000000000000000000000000000000000006020830152604082019050919050565b600061225c6024836125e3565b91507f4d656d6265723a20546865206f7065726174696f6e206973206e6f7420616c6c60008301527f6f776564000000000000000000000000000000000000000000000000000000006020830152604082019050919050565b60006122c26025836125e3565b91507f45524332303a2064656372656173656420616c6c6f77616e63652062656c6f7760008301527f207a65726f0000000000000000000000000000000000000000000000000000006020830152604082019050919050565b61232481612752565b82525050565b6123338161275c565b82525050565b60006123458284611f3a565b915081905092915050565b60006020820190506123656000830184611ed4565b92915050565b60006040820190506123806000830185611ed4565b81810360208301526123928184611f01565b90509392505050565b60006040820190506123b06000830184611ed4565b81810360208301526123c181612143565b905092915050565b60006020820190506123de6000830184611ee3565b92915050565b60006020820190506123f96000830184611ef2565b92915050565b600060208201905081810360008301526124198184611f01565b905092915050565b6000602082019050818103600083015261243a81611f6b565b9050919050565b6000602082019050818103600083015261245a81611fd1565b9050919050565b6000602082019050818103600083015261247a81612037565b9050919050565b6000602082019050818103600083015261249a8161209d565b9050919050565b600060208201905081810360008301526124ba81612103565b9050919050565b600060208201905081810360008301526124da81612183565b9050919050565b600060208201905081810360008301526124fa816121e9565b9050919050565b6000602082019050818103600083015261251a8161224f565b9050919050565b6000602082019050818103600083015261253a816122b5565b9050919050565b6000602082019050612556600083018461231b565b92915050565b6000602082019050612571600083018461232a565b92915050565b6000604051905081810181811067ffffffffffffffff8211171561259e5761259d6128d7565b5b8060405250919050565b600067ffffffffffffffff8211156125c3576125c26128d7565b5b601f19601f8301169050602081019050919050565b600081519050919050565b600082825260208201905092915050565b600081905092915050565b600061260a82612752565b915061261583612752565b9250827fffffffffffffffffffffffffffffffffffffffffffffffffffffffffffffffff0382111561264a5761264961284a565b5b828201905092915050565b600061266082612752565b915061266b83612752565b92508261267b5761267a612879565b5b828204905092915050565b600061269182612752565b915061269c83612752565b9250817fffffffffffffffffffffffffffffffffffffffffffffffffffffffffffffffff04831182151516156126d5576126d461284a565b5b828202905092915050565b60006126eb82612752565b91506126f683612752565b9250828210156127095761270861284a565b5b828203905092915050565b600061271f82612732565b9050919050565b60008115159050919050565b600073ffffffffffffffffffffffffffffffffffffffff82169050919050565b6000819050919050565b600060ff82169050919050565b60006127748261277b565b9050919050565b600061278682612732565b9050919050565b82818337600083830152505050565b60005b838110156127ba57808201518184015260208101905061279f565b838111156127c9576000848401525b50505050565b600060028204905060018216806127e757607f821691505b602082108114156127fb576127fa6128a8565b5b50919050565b600061280c82612752565b91507fffffffffffffffffffffffffffffffffffffffffffffffffffffffffffffffff82141561283f5761283e61284a565b5b600182019050919050565b7f4e487b7100000000000000000000000000000000000000000000000000000000600052601160045260246000fd5b7f4e487b7100000000000000000000000000000000000000000000000000000000600052601260045260246000fd5b7f4e487b7100000000000000000000000000000000000000000000000000000000600052602260045260246000fd5b7f4e487b7100000000000000000000000000000000000000000000000000000000600052604160045260246000fd5b6000601f19601f8301169050919050565b61292081612714565b811461292b57600080fd5b50565b61293781612726565b811461294257600080fd5b50565b61294e81612752565b811461295957600080fd5b5056fe45524332303a207472616e7366657220616d6f756e74206578636565647320616c6c6f77616e6365a26469706673582212207a8e52f693617111a29ce5265d0d5a090f42f701efa6556b522ee44c7751cef364736f6c63430008000033",
  "immutableReferences": {},
  "source": "// SPDX-License-Identifier: SimPL-2.0\n\npragma solidity ^0.8.0;\n\nimport \"../authority/Member.sol\";\n\nimport \"@openzeppelin/contracts/token/ERC20/ERC20.sol\";\nimport \"@openzeppelin/contracts/utils/math/SafeMath.sol\";\n\n/**\n * @title Dragon Ball Fighter Z Token - ERC20\n *\n * @author Bit Lighthouse. Ace\n * AT: 2021-3-28 | VERSION: v1.0.2\n */\ncontract Token is Member, ERC20 {\n    using SafeMath for uint256;\n\n    string[]  private _transfer_recipients = [\n        \"FOUND\", \"EXTENSION\", \"BLACKHOLE\"\n    ];\n\n    uint256[] private _transfer_rate = [5, 3, 2];\n    mapping (address => bool) private _white_list;\n    \n    constructor(address auth_) Member(auth_)\n        ERC20(\"Dragon Ball\", \"DBFZ\") {\n        \n        uint256 decimal = (10 ** uint256(decimals()));\n        _mint(msg.sender, 10e8 * decimal);\n\n        _white_list[msg.sender] = true;\n    }\n\n    function setTransferRate(uint index, uint rate) public\n        CheckPermit(\"CONFIG\") {\n\n        _transfer_rate[index] = rate;\n    }\n\n    function setWhiteList(address target, bool enable) public\n        CheckPermit(\"CONFIG\") {\n        \n        _white_list[target] = enable;\n    }\n\n    function _do_transfer(\n        address sender_, address recipient_, uint256 amount_\n    ) private CheckStatus(\"TRANSFER\") {\n        if (_white_list[sender_] == false) {\n            uint256 other_amount = amount_.mul(10).div(100);\n\n            for (uint i = 0; i < _transfer_rate.length; i++) {\n                string memory name = _transfer_recipients[i];\n                address recipient = authority.members(name);\n                uint256 item = other_amount.mul(_transfer_rate[i]);\n\n                _transfer(sender_, recipient, item.div(100));\n            }\n\n            uint256 real_amount = amount_.sub(other_amount);\n            _transfer(sender_, recipient_, real_amount);\n        } else {\n            _transfer(sender_, recipient_, amount_);\n        }\n    }\n\n    function transfer(address recipient, uint256 amount) public\n        virtual override returns (bool success) {\n\n        _do_transfer(_msgSender(), recipient, amount);\n        success = true;\n    }\n\n    function transferFrom(\n        address sender, address recipient, uint256 amount\n    ) public virtual override returns (bool success) {\n        uint256 tAllowance = allowance(sender, _msgSender());\n        tAllowance = tAllowance.sub(\n            amount, \"ERC20: transfer amount exceeds allowance\"\n        );\n\n        _approve(sender, _msgSender(), tAllowance);\n        _do_transfer(sender, recipient, amount);\n\n        success = true;\n    }\n}",
  "sourcePath": "/home/ace/Projects/eth/other/dragon-ball-project/dragon-ball-contract/contracts/token/Token.sol",
  "compiler": {
    "name": "solc",
    "version": "0.8.0+commit.c7dfd78e.Emscripten.clang"
  },
  "schemaVersion": "3.4.3",
  "updatedAt": "2021-09-07T03:46:34.839Z",
  "networkType": "ethereum",
  "devdoc": {
    "author": "Bit Lighthouse. Ace AT: 2021-3-28 | VERSION: v1.0.2",
    "kind": "dev",
    "methods": {
      "allowance(address,address)": {
        "details": "See {IERC20-allowance}."
      },
      "approve(address,uint256)": {
        "details": "See {IERC20-approve}. Requirements: - `spender` cannot be the zero address."
      },
      "balanceOf(address)": {
        "details": "See {IERC20-balanceOf}."
      },
      "decimals()": {
        "details": "Returns the number of decimals used to get its user representation. For example, if `decimals` equals `2`, a balance of `505` tokens should be displayed to a user as `5,05` (`505 / 10 ** 2`). Tokens usually opt for a value of 18, imitating the relationship between Ether and Wei. This is the value {ERC20} uses, unless this function is overloaded; NOTE: This information is only used for _display_ purposes: it in no way affects any of the arithmetic of the contract, including {IERC20-balanceOf} and {IERC20-transfer}."
      },
      "decreaseAllowance(address,uint256)": {
        "details": "Atomically decreases the allowance granted to `spender` by the caller. This is an alternative to {approve} that can be used as a mitigation for problems described in {IERC20-approve}. Emits an {Approval} event indicating the updated allowance. Requirements: - `spender` cannot be the zero address. - `spender` must have allowance for the caller of at least `subtractedValue`."
      },
      "increaseAllowance(address,uint256)": {
        "details": "Atomically increases the allowance granted to `spender` by the caller. This is an alternative to {approve} that can be used as a mitigation for problems described in {IERC20-approve}. Emits an {Approval} event indicating the updated allowance. Requirements: - `spender` cannot be the zero address."
      },
      "name()": {
        "details": "Returns the name of the token."
      },
      "owner()": {
        "details": "Returns the address of the current owner."
      },
      "renounceOwnership()": {
        "details": "Leaves the contract without owner. It will not be possible to call `onlyOwner` functions anymore. Can only be called by the current owner. NOTE: Renouncing ownership will leave the contract without an owner, thereby removing any functionality that is only available to the owner."
      },
      "setAuthority(address)": {
        "params": {
          "authority_": "address of manager This function is onwer only"
        }
      },
      "setConfig(string,uint256)": {
        "params": {
          "config_": "config's value This function is config only",
          "name_": "name of config"
        }
      },
      "symbol()": {
        "details": "Returns the symbol of the token, usually a shorter version of the name."
      },
      "totalSupply()": {
        "details": "See {IERC20-totalSupply}."
      },
      "transfer(address,uint256)": {
        "details": "See {IERC20-transfer}. Requirements: - `recipient` cannot be the zero address. - the caller must have a balance of at least `amount`."
      },
      "transferFrom(address,address,uint256)": {
        "details": "See {IERC20-transferFrom}. Emits an {Approval} event indicating the updated allowance. This is not required by the EIP. See the note at the beginning of {ERC20}. Requirements: - `sender` and `recipient` cannot be the zero address. - `sender` must have a balance of at least `amount`. - the caller must have allowance for ``sender``'s tokens of at least `amount`."
      },
      "transferOwnership(address)": {
        "details": "Transfers ownership of the contract to a new account (`newOwner`). Can only be called by the current owner."
      }
    },
    "title": "Dragon Ball Fighter Z Token - ERC20",
    "version": 1
  },
  "userdoc": {
    "kind": "user",
    "methods": {
      "setAuthority(address)": {
        "notice": "Set new manager"
      },
      "setConfig(string,uint256)": {
        "notice": "Set config of global or contract"
      }
    },
    "version": 1
  }
}