{
  "contractName": "Token",
  "abi": [
    {
      "inputs": [
        {
          "internalType": "address",
          "name": "auth_",
          "type": "address"
        }
      ],
      "stateMutability": "nonpayable",
      "type": "constructor"
    },
    {
      "anonymous": false,
      "inputs": [
        {
          "indexed": true,
          "internalType": "address",
          "name": "owner",
          "type": "address"
        },
        {
          "indexed": true,
          "internalType": "address",
          "name": "spender",
          "type": "address"
        },
        {
          "indexed": false,
          "internalType": "uint256",
          "name": "value",
          "type": "uint256"
        }
      ],
      "name": "Approval",
      "type": "event"
    },
    {
      "anonymous": false,
      "inputs": [
        {
          "indexed": true,
          "internalType": "address",
          "name": "previousOwner",
          "type": "address"
        },
        {
          "indexed": true,
          "internalType": "address",
          "name": "newOwner",
          "type": "address"
        }
      ],
      "name": "OwnershipTransferred",
      "type": "event"
    },
    {
      "anonymous": false,
      "inputs": [
        {
          "indexed": true,
          "internalType": "address",
          "name": "from",
          "type": "address"
        },
        {
          "indexed": true,
          "internalType": "address",
          "name": "to",
          "type": "address"
        },
        {
          "indexed": false,
          "internalType": "uint256",
          "name": "value",
          "type": "uint256"
        }
      ],
      "name": "Transfer",
      "type": "event"
    },
    {
      "inputs": [
        {
          "internalType": "address",
          "name": "owner",
          "type": "address"
        },
        {
          "internalType": "address",
          "name": "spender",
          "type": "address"
        }
      ],
      "name": "allowance",
      "outputs": [
        {
          "internalType": "uint256",
          "name": "",
          "type": "uint256"
        }
      ],
      "stateMutability": "view",
      "type": "function",
      "constant": true
    },
    {
      "inputs": [
        {
          "internalType": "address",
          "name": "spender",
          "type": "address"
        },
        {
          "internalType": "uint256",
          "name": "amount",
          "type": "uint256"
        }
      ],
      "name": "approve",
      "outputs": [
        {
          "internalType": "bool",
          "name": "",
          "type": "bool"
        }
      ],
      "stateMutability": "nonpayable",
      "type": "function"
    },
    {
      "inputs": [],
      "name": "authority",
      "outputs": [
        {
          "internalType": "contract Authority",
          "name": "",
          "type": "address"
        }
      ],
      "stateMutability": "view",
      "type": "function",
      "constant": true
    },
    {
      "inputs": [
        {
          "internalType": "address",
          "name": "account",
          "type": "address"
        }
      ],
      "name": "balanceOf",
      "outputs": [
        {
          "internalType": "uint256",
          "name": "",
          "type": "uint256"
        }
      ],
      "stateMutability": "view",
      "type": "function",
      "constant": true
    },
    {
      "inputs": [
        {
          "internalType": "string",
          "name": "",
          "type": "string"
        }
      ],
      "name": "configs",
      "outputs": [
        {
          "internalType": "uint256",
          "name": "",
          "type": "uint256"
        }
      ],
      "stateMutability": "view",
      "type": "function",
      "constant": true
    },
    {
      "inputs": [],
      "name": "decimals",
      "outputs": [
        {
          "internalType": "uint8",
          "name": "",
          "type": "uint8"
        }
      ],
      "stateMutability": "view",
      "type": "function",
      "constant": true
    },
    {
      "inputs": [
        {
          "internalType": "address",
          "name": "spender",
          "type": "address"
        },
        {
          "internalType": "uint256",
          "name": "subtractedValue",
          "type": "uint256"
        }
      ],
      "name": "decreaseAllowance",
      "outputs": [
        {
          "internalType": "bool",
          "name": "",
          "type": "bool"
        }
      ],
      "stateMutability": "nonpayable",
      "type": "function"
    },
    {
      "inputs": [
        {
          "internalType": "address",
          "name": "spender",
          "type": "address"
        },
        {
          "internalType": "uint256",
          "name": "addedValue",
          "type": "uint256"
        }
      ],
      "name": "increaseAllowance",
      "outputs": [
        {
          "internalType": "bool",
          "name": "",
          "type": "bool"
        }
      ],
      "stateMutability": "nonpayable",
      "type": "function"
    },
    {
      "inputs": [],
      "name": "name",
      "outputs": [
        {
          "internalType": "string",
          "name": "",
          "type": "string"
        }
      ],
      "stateMutability": "view",
      "type": "function",
      "constant": true
    },
    {
      "inputs": [],
      "name": "owner",
      "outputs": [
        {
          "internalType": "address",
          "name": "",
          "type": "address"
        }
      ],
      "stateMutability": "view",
      "type": "function",
      "constant": true
    },
    {
      "inputs": [],
      "name": "renounceOwnership",
      "outputs": [],
      "stateMutability": "nonpayable",
      "type": "function"
    },
    {
      "inputs": [
        {
          "internalType": "address",
          "name": "authority_",
          "type": "address"
        }
      ],
      "name": "setAuthority",
      "outputs": [],
      "stateMutability": "nonpayable",
      "type": "function"
    },
    {
      "inputs": [
        {
          "internalType": "string",
          "name": "name_",
          "type": "string"
        },
        {
          "internalType": "uint256",
          "name": "config_",
          "type": "uint256"
        }
      ],
      "name": "setConfig",
      "outputs": [],
      "stateMutability": "nonpayable",
      "type": "function"
    },
    {
      "inputs": [],
      "name": "symbol",
      "outputs": [
        {
          "internalType": "string",
          "name": "",
          "type": "string"
        }
      ],
      "stateMutability": "view",
      "type": "function",
      "constant": true
    },
    {
      "inputs": [],
      "name": "totalSupply",
      "outputs": [
        {
          "internalType": "uint256",
          "name": "",
          "type": "uint256"
        }
      ],
      "stateMutability": "view",
      "type": "function",
      "constant": true
    },
    {
      "inputs": [
        {
          "internalType": "address",
          "name": "newOwner",
          "type": "address"
        }
      ],
      "name": "transferOwnership",
      "outputs": [],
      "stateMutability": "nonpayable",
      "type": "function"
    },
    {
      "inputs": [
        {
          "internalType": "uint256",
          "name": "index",
          "type": "uint256"
        },
        {
          "internalType": "uint256",
          "name": "rate",
          "type": "uint256"
        }
      ],
      "name": "setTransferRate",
      "outputs": [],
      "stateMutability": "nonpayable",
      "type": "function"
    },
    {
      "inputs": [
        {
          "internalType": "address",
          "name": "target",
          "type": "address"
        },
        {
          "internalType": "bool",
          "name": "enable",
          "type": "bool"
        }
      ],
      "name": "setWhiteList",
      "outputs": [],
      "stateMutability": "nonpayable",
      "type": "function"
    },
    {
      "inputs": [],
      "name": "setLimitTime",
      "outputs": [],
      "stateMutability": "nonpayable",
      "type": "function"
    },
    {
      "inputs": [
        {
          "internalType": "address",
          "name": "recipient",
          "type": "address"
        },
        {
          "internalType": "uint256",
          "name": "amount",
          "type": "uint256"
        }
      ],
      "name": "transfer",
      "outputs": [
        {
          "internalType": "bool",
          "name": "success",
          "type": "bool"
        }
      ],
      "stateMutability": "nonpayable",
      "type": "function"
    },
    {
      "inputs": [
        {
          "internalType": "address",
          "name": "sender",
          "type": "address"
        },
        {
          "internalType": "address",
          "name": "recipient",
          "type": "address"
        },
        {
          "internalType": "uint256",
          "name": "amount",
          "type": "uint256"
        }
      ],
      "name": "transferFrom",
      "outputs": [
        {
          "internalType": "bool",
          "name": "success",
          "type": "bool"
        }
      ],
      "stateMutability": "nonpayable",
      "type": "function"
    }
  ],
  "bytecode": "0x608060405260405180606001604052806040518060400160405280600581526020017f464f554e4400000000000000000000000000000000000000000000000000000081525081526020016040518060400160405280600981526020017f455854454e53494f4e000000000000000000000000000000000000000000000081525081526020016040518060400160405280600981526020017f424c41434b484f4c4500000000000000000000000000000000000000000000008152508152506008906003620000d0929190620004e5565b506040518060600160405280600560ff168152602001600360ff168152602001600260ff1681525060099060036200010a9291906200054c565b503480156200011857600080fd5b506040516200372a3803806200372a83398181016040528101906200013e9190620006d8565b6040518060400160405280600b81526020017f447261676f6e2042616c6c0000000000000000000000000000000000000000008152506040518060400160405280600481526020017f4442465a00000000000000000000000000000000000000000000000000000000815250826000620001bd6200037260201b60201c565b9050806000806101000a81548173ffffffffffffffffffffffffffffffffffffffff021916908373ffffffffffffffffffffffffffffffffffffffff1602179055508073ffffffffffffffffffffffffffffffffffffffff16600073ffffffffffffffffffffffffffffffffffffffff167f8be0079c531659141344cd1fd0a4f28419497f9722a3daafe3b4186f6b6457e060405160405180910390a35080600160006101000a81548173ffffffffffffffffffffffffffffffffffffffff021916908373ffffffffffffffffffffffffffffffffffffffff160217905550508160069080519060200190620002b5929190620005a3565b508060079080519060200190620002ce929190620005a3565b505050620002ef336b033b2e3c9fd0803ce80000006200037a60201b60201c565b6001600a60003373ffffffffffffffffffffffffffffffffffffffff1673ffffffffffffffffffffffffffffffffffffffff16815260200190815260200160002060006101000a81548160ff02191690831515021790555060016002604051620003599062000799565b9081526020016040518091039020819055505062000954565b600033905090565b600073ffffffffffffffffffffffffffffffffffffffff168273ffffffffffffffffffffffffffffffffffffffff161415620003ed576040517f08c379a0000000000000000000000000000000000000000000000000000000008152600401620003e490620007b0565b60405180910390fd5b6200040160008383620004e060201b60201c565b80600560008282546200041591906200080b565b9250508190555080600360008473ffffffffffffffffffffffffffffffffffffffff1673ffffffffffffffffffffffffffffffffffffffff16815260200190815260200160002060008282546200046d91906200080b565b925050819055508173ffffffffffffffffffffffffffffffffffffffff16600073ffffffffffffffffffffffffffffffffffffffff167fddf252ad1be2c89b69c2b068fc378daa952ba7f163c4a11628f55a4df523b3ef83604051620004d49190620007d2565b60405180910390a35050565b505050565b82805482825590600052602060002090810192821562000539579160200282015b828111156200053857825182908051906020019062000527929190620005a3565b509160200191906001019062000506565b5b50905062000548919062000634565b5090565b82805482825590600052602060002090810192821562000590579160200282015b828111156200058f578251829060ff169055916020019190600101906200056d565b5b5090506200059f91906200065c565b5090565b828054620005b190620008a6565b90600052602060002090601f016020900481019282620005d5576000855562000621565b82601f10620005f057805160ff191683800117855562000621565b8280016001018555821562000621579182015b828111156200062057825182559160200191906001019062000603565b5b5090506200063091906200065c565b5090565b5b808211156200065857600081816200064e91906200067b565b5060010162000635565b5090565b5b80821115620006775760008160009055506001016200065d565b5090565b5080546200068990620008a6565b6000825580601f106200069d5750620006be565b601f016020900490600052602060002090810190620006bd91906200065c565b5b50565b600081519050620006d2816200093a565b92915050565b600060208284031215620006eb57600080fd5b6000620006fb84828501620006c1565b91505092915050565b600062000713600f8362000800565b91507f53414c455f4c494d49545f5241544500000000000000000000000000000000006000830152600f82019050919050565b600062000755601f83620007ef565b91507f45524332303a206d696e7420746f20746865207a65726f2061646472657373006000830152602082019050919050565b62000793816200089c565b82525050565b6000620007a68262000704565b9150819050919050565b60006020820190508181036000830152620007cb8162000746565b9050919050565b6000602082019050620007e9600083018462000788565b92915050565b600082825260208201905092915050565b600081905092915050565b600062000818826200089c565b915062000825836200089c565b9250827fffffffffffffffffffffffffffffffffffffffffffffffffffffffffffffffff038211156200085d576200085c620008dc565b5b828201905092915050565b600062000875826200087c565b9050919050565b600073ffffffffffffffffffffffffffffffffffffffff82169050919050565b6000819050919050565b60006002820490506001821680620008bf57607f821691505b60208210811415620008d657620008d56200090b565b5b50919050565b7f4e487b7100000000000000000000000000000000000000000000000000000000600052601160045260246000fd5b7f4e487b7100000000000000000000000000000000000000000000000000000000600052602260045260246000fd5b620009458162000868565b81146200095157600080fd5b50565b612dc680620009646000396000f3fe608060405234801561001057600080fd5b50600436106101375760003560e01c806370a08231116100b857806395d89b411161007c57806395d89b4114610328578063a457c2d714610346578063a9059cbb14610376578063bf7e214f146103a6578063dd62ed3e146103c4578063f2fde38b146103f457610137565b806370a0823114610298578063715018a6146102c85780637a9e5e4b146102d25780638d14e127146102ee5780638da5cb5b1461030a57610137565b8063313ce567116100ff578063313ce567146101e257806339509351146102005780633e8f5b90146102305780635d5696ad1461024c5780635ef7fbad1461026857610137565b806306fdde031461013c578063095ea7b31461015a57806318160ddd1461018a57806323b872dd146101a857806327ea9bb8146101d8575b600080fd5b610144610410565b60405161015191906127cb565b60405180910390f35b610174600480360381019061016f919061206f565b6104a2565b6040516101819190612795565b60405180910390f35b6101926104c0565b60405161019f919061294d565b60405180910390f35b6101c260048036038101906101bd9190611fe4565b6104ca565b6040516101cf9190612795565b60405180910390f35b6101e0610538565b005b6101ea61068b565b6040516101f79190612968565b60405180910390f35b61021a6004803603810190610215919061206f565b610694565b6040516102279190612795565b60405180910390f35b61024a60048036038101906102459190612115565b610740565b005b61026660048036038101906102619190612169565b61088a565b005b610282600480360381019061027d91906120d4565b6109fa565b60405161028f919061294d565b60405180910390f35b6102b260048036038101906102ad9190611f56565b610a28565b6040516102bf919061294d565b60405180910390f35b6102d0610a71565b005b6102ec60048036038101906102e79190611f56565b610bab565b005b61030860048036038101906103039190612033565b610c6b565b005b610312610de9565b60405161031f919061271c565b60405180910390f35b610330610e12565b60405161033d91906127cb565b60405180910390f35b610360600480360381019061035b919061206f565b610ea4565b60405161036d9190612795565b60405180910390f35b610390600480360381019061038b919061206f565b610f98565b60405161039d9190612795565b60405180910390f35b6103ae610fb6565b6040516103bb91906127b0565b60405180910390f35b6103de60048036038101906103d99190611fa8565b610fdc565b6040516103eb919061294d565b60405180910390f35b61040e60048036038101906104099190611f56565b611063565b005b60606006805461041f90612bdb565b80601f016020809104026020016040519081016040528092919081815260200182805461044b90612bdb565b80156104985780601f1061046d57610100808354040283529160200191610498565b820191906000526020600020905b81548152906001019060200180831161047b57829003601f168201915b5050505050905090565b60006104b66104af61120c565b8484611214565b6001905092915050565b6000600554905090565b6000806104de856104d961120c565b610fdc565b905061050d83604051806060016040528060288152602001612d6960289139836113df9092919063ffffffff16565b90506105218561051b61120c565b83611214565b61052c858585611434565b60019150509392505050565b6040518060400160405280600681526020017f434f4e4649470000000000000000000000000000000000000000000000000000815250600160009054906101000a900473ffffffffffffffffffffffffffffffffffffffff1673ffffffffffffffffffffffffffffffffffffffff1663f5e65c7233836040518363ffffffff1660e01b81526004016105cb929190612737565b60206040518083038186803b1580156105e357600080fd5b505afa1580156105f7573d6000803e3d6000fd5b505050506040513d601f19601f8201168201806040525081019061061b91906120ab565b61065a576040517f08c379a0000000000000000000000000000000000000000000000000000000008152600401610651906128ed565b60405180910390fd5b61012c426106689190612a0b565b600260405161067690612707565b90815260200160405180910390208190555050565b60006012905090565b60006107366106a161120c565b8484600460006106af61120c565b73ffffffffffffffffffffffffffffffffffffffff1673ffffffffffffffffffffffffffffffffffffffff16815260200190815260200160002060008873ffffffffffffffffffffffffffffffffffffffff1673ffffffffffffffffffffffffffffffffffffffff168152602001908152602001600020546107319190612a0b565b611214565b6001905092915050565b6040518060400160405280600681526020017f434f4e4649470000000000000000000000000000000000000000000000000000815250600160009054906101000a900473ffffffffffffffffffffffffffffffffffffffff1673ffffffffffffffffffffffffffffffffffffffff1663f5e65c7233836040518363ffffffff1660e01b81526004016107d3929190612737565b60206040518083038186803b1580156107eb57600080fd5b505afa1580156107ff573d6000803e3d6000fd5b505050506040513d601f19601f8201168201806040525081019061082391906120ab565b610862576040517f08c379a0000000000000000000000000000000000000000000000000000000008152600401610859906128ed565b60405180910390fd5b8160028460405161087391906126f0565b908152602001604051809103902081905550505050565b6040518060400160405280600681526020017f434f4e4649470000000000000000000000000000000000000000000000000000815250600160009054906101000a900473ffffffffffffffffffffffffffffffffffffffff1673ffffffffffffffffffffffffffffffffffffffff1663f5e65c7233836040518363ffffffff1660e01b815260040161091d929190612737565b60206040518083038186803b15801561093557600080fd5b505afa158015610949573d6000803e3d6000fd5b505050506040513d601f19601f8201168201806040525081019061096d91906120ab565b6109ac576040517f08c379a00000000000000000000000000000000000000000000000000000000081526004016109a3906128ed565b60405180910390fd5b81600984815481106109e7577f4e487b7100000000000000000000000000000000000000000000000000000000600052603260045260246000fd5b9060005260206000200181905550505050565b6002818051602081018201805184825260208301602085012081835280955050505050506000915090505481565b6000600360008373ffffffffffffffffffffffffffffffffffffffff1673ffffffffffffffffffffffffffffffffffffffff168152602001908152602001600020549050919050565b610a7961120c565b73ffffffffffffffffffffffffffffffffffffffff16610a97610de9565b73ffffffffffffffffffffffffffffffffffffffff1614610aed576040517f08c379a0000000000000000000000000000000000000000000000000000000008152600401610ae49061288d565b60405180910390fd5b600073ffffffffffffffffffffffffffffffffffffffff1660008054906101000a900473ffffffffffffffffffffffffffffffffffffffff1673ffffffffffffffffffffffffffffffffffffffff167f8be0079c531659141344cd1fd0a4f28419497f9722a3daafe3b4186f6b6457e060405160405180910390a360008060006101000a81548173ffffffffffffffffffffffffffffffffffffffff021916908373ffffffffffffffffffffffffffffffffffffffff160217905550565b610bb361120c565b73ffffffffffffffffffffffffffffffffffffffff16610bd1610de9565b73ffffffffffffffffffffffffffffffffffffffff1614610c27576040517f08c379a0000000000000000000000000000000000000000000000000000000008152600401610c1e9061288d565b60405180910390fd5b80600160006101000a81548173ffffffffffffffffffffffffffffffffffffffff021916908373ffffffffffffffffffffffffffffffffffffffff16021790555050565b6040518060400160405280600681526020017f434f4e4649470000000000000000000000000000000000000000000000000000815250600160009054906101000a900473ffffffffffffffffffffffffffffffffffffffff1673ffffffffffffffffffffffffffffffffffffffff1663f5e65c7233836040518363ffffffff1660e01b8152600401610cfe929190612737565b60206040518083038186803b158015610d1657600080fd5b505afa158015610d2a573d6000803e3d6000fd5b505050506040513d601f19601f82011682018060405250810190610d4e91906120ab565b610d8d576040517f08c379a0000000000000000000000000000000000000000000000000000000008152600401610d84906128ed565b60405180910390fd5b81600a60008573ffffffffffffffffffffffffffffffffffffffff1673ffffffffffffffffffffffffffffffffffffffff16815260200190815260200160002060006101000a81548160ff021916908315150217905550505050565b60008060009054906101000a900473ffffffffffffffffffffffffffffffffffffffff16905090565b606060078054610e2190612bdb565b80601f0160208091040260200160405190810160405280929190818152602001828054610e4d90612bdb565b8015610e9a5780601f10610e6f57610100808354040283529160200191610e9a565b820191906000526020600020905b815481529060010190602001808311610e7d57829003601f168201915b5050505050905090565b60008060046000610eb361120c565b73ffffffffffffffffffffffffffffffffffffffff1673ffffffffffffffffffffffffffffffffffffffff16815260200190815260200160002060008573ffffffffffffffffffffffffffffffffffffffff1673ffffffffffffffffffffffffffffffffffffffff16815260200190815260200160002054905082811015610f70576040517f08c379a0000000000000000000000000000000000000000000000000000000008152600401610f679061292d565b60405180910390fd5b610f8d610f7b61120c565b858584610f889190612aec565b611214565b600191505092915050565b6000610fac610fa561120c565b8484611434565b6001905092915050565b600160009054906101000a900473ffffffffffffffffffffffffffffffffffffffff1681565b6000600460008473ffffffffffffffffffffffffffffffffffffffff1673ffffffffffffffffffffffffffffffffffffffff16815260200190815260200160002060008373ffffffffffffffffffffffffffffffffffffffff1673ffffffffffffffffffffffffffffffffffffffff16815260200190815260200160002054905092915050565b61106b61120c565b73ffffffffffffffffffffffffffffffffffffffff16611089610de9565b73ffffffffffffffffffffffffffffffffffffffff16146110df576040517f08c379a00000000000000000000000000000000000000000000000000000000081526004016110d69061288d565b60405180910390fd5b600073ffffffffffffffffffffffffffffffffffffffff168173ffffffffffffffffffffffffffffffffffffffff16141561114f576040517f08c379a00000000000000000000000000000000000000000000000000000000081526004016111469061280d565b60405180910390fd5b8073ffffffffffffffffffffffffffffffffffffffff1660008054906101000a900473ffffffffffffffffffffffffffffffffffffffff1673ffffffffffffffffffffffffffffffffffffffff167f8be0079c531659141344cd1fd0a4f28419497f9722a3daafe3b4186f6b6457e060405160405180910390a3806000806101000a81548173ffffffffffffffffffffffffffffffffffffffff021916908373ffffffffffffffffffffffffffffffffffffffff16021790555050565b600033905090565b600073ffffffffffffffffffffffffffffffffffffffff168373ffffffffffffffffffffffffffffffffffffffff161415611284576040517f08c379a000000000000000000000000000000000000000000000000000000000815260040161127b906128cd565b60405180910390fd5b600073ffffffffffffffffffffffffffffffffffffffff168273ffffffffffffffffffffffffffffffffffffffff1614156112f4576040517f08c379a00000000000000000000000000000000000000000000000000000000081526004016112eb9061282d565b60405180910390fd5b80600460008573ffffffffffffffffffffffffffffffffffffffff1673ffffffffffffffffffffffffffffffffffffffff16815260200190815260200160002060008473ffffffffffffffffffffffffffffffffffffffff1673ffffffffffffffffffffffffffffffffffffffff168152602001908152602001600020819055508173ffffffffffffffffffffffffffffffffffffffff168373ffffffffffffffffffffffffffffffffffffffff167f8c5be1e5ebec7d5bd14f71427d1e84f3dd0314c0f7b2291e5b200ac8c7c3b925836040516113d2919061294d565b60405180910390a3505050565b6000838311158290611427576040517f08c379a000000000000000000000000000000000000000000000000000000000815260040161141e91906127cb565b60405180910390fd5b5082840390509392505050565b6040518060400160405280600881526020017f5452414e53464552000000000000000000000000000000000000000000000000815250600160009054906101000a900473ffffffffffffffffffffffffffffffffffffffff1673ffffffffffffffffffffffffffffffffffffffff1663466f98e860006040518263ffffffff1660e01b81526004016114c69190612767565b60206040518083038186803b1580156114de57600080fd5b505afa1580156114f2573d6000803e3d6000fd5b505050506040513d601f19601f8201168201806040525081019061151691906120ab565b15806115cd5750600160009054906101000a900473ffffffffffffffffffffffffffffffffffffffff1673ffffffffffffffffffffffffffffffffffffffff1663466f98e86000836040518363ffffffff1660e01b815260040161157b929190612737565b60206040518083038186803b15801561159357600080fd5b505afa1580156115a7573d6000803e3d6000fd5b505050506040513d601f19601f820116820180604052508101906115cb91906120ab565b155b806116805750600160009054906101000a900473ffffffffffffffffffffffffffffffffffffffff1673ffffffffffffffffffffffffffffffffffffffff1663466f98e8336040518263ffffffff1660e01b815260040161162e9190612767565b60206040518083038186803b15801561164657600080fd5b505afa15801561165a573d6000803e3d6000fd5b505050506040513d601f19601f8201168201806040525081019061167e91906120ab565b155b806117355750600160009054906101000a900473ffffffffffffffffffffffffffffffffffffffff1673ffffffffffffffffffffffffffffffffffffffff1663466f98e833836040518363ffffffff1660e01b81526004016116e3929190612737565b60206040518083038186803b1580156116fb57600080fd5b505afa15801561170f573d6000803e3d6000fd5b505050506040513d601f19601f8201168201806040525081019061173391906120ab565b155b611774576040517f08c379a000000000000000000000000000000000000000000000000000000000815260040161176b906128ed565b60405180910390fd5b60001515600a60008673ffffffffffffffffffffffffffffffffffffffff1673ffffffffffffffffffffffffffffffffffffffff16815260200190815260200160002060009054906101000a900460ff1615151415611baa574260026040516117dc90612707565b9081526020016040518091039020541115611936576000600160009054906101000a900473ffffffffffffffffffffffffffffffffffffffff1673ffffffffffffffffffffffffffffffffffffffff16636957a0b26040518163ffffffff1660e01b815260040161184c9061284d565b60206040518083038186803b15801561186457600080fd5b505afa158015611878573d6000803e3d6000fd5b505050506040513d601f19601f8201168201806040525081019061189c9190611f7f565b905060006118a86104c0565b905060006118d360646118c5600185611bbc90919063ffffffff16565b611bd290919063ffffffff16565b90506118e88183611be890919063ffffffff16565b6118f184610a28565b1015611932576040517f08c379a00000000000000000000000000000000000000000000000000000000081526004016119299061290d565b60405180910390fd5b5050505b600061195f6064611951600a86611bbc90919063ffffffff16565b611bd290919063ffffffff16565b905060005b600980549050811015611b80576000600882815481106119ad577f4e487b7100000000000000000000000000000000000000000000000000000000600052603260045260246000fd5b9060005260206000200180546119c290612bdb565b80601f01602080910402602001604051908101604052809291908181526020018280546119ee90612bdb565b8015611a3b5780601f10611a1057610100808354040283529160200191611a3b565b820191906000526020600020905b815481529060010190602001808311611a1e57829003601f168201915b505050505090506000600160009054906101000a900473ffffffffffffffffffffffffffffffffffffffff1673ffffffffffffffffffffffffffffffffffffffff16636957a0b2836040518263ffffffff1660e01b8152600401611a9f91906127cb565b60206040518083038186803b158015611ab757600080fd5b505afa158015611acb573d6000803e3d6000fd5b505050506040513d601f19601f82011682018060405250810190611aef9190611f7f565b90506000611b4a60098581548110611b30577f4e487b7100000000000000000000000000000000000000000000000000000000600052603260045260246000fd5b906000526020600020015486611bbc90919063ffffffff16565b9050611b6a8983611b65606485611bd290919063ffffffff16565b611bfe565b5050508080611b7890612c0d565b915050611964565b506000611b968285611be890919063ffffffff16565b9050611ba3868683611bfe565b5050611bb6565b611bb5848484611bfe565b5b50505050565b60008183611bca9190612a92565b905092915050565b60008183611be09190612a61565b905092915050565b60008183611bf69190612aec565b905092915050565b600073ffffffffffffffffffffffffffffffffffffffff168373ffffffffffffffffffffffffffffffffffffffff161415611c6e576040517f08c379a0000000000000000000000000000000000000000000000000000000008152600401611c65906128ad565b60405180910390fd5b600073ffffffffffffffffffffffffffffffffffffffff168273ffffffffffffffffffffffffffffffffffffffff161415611cde576040517f08c379a0000000000000000000000000000000000000000000000000000000008152600401611cd5906127ed565b60405180910390fd5b611ce9838383611e80565b6000600360008573ffffffffffffffffffffffffffffffffffffffff1673ffffffffffffffffffffffffffffffffffffffff16815260200190815260200160002054905081811015611d70576040517f08c379a0000000000000000000000000000000000000000000000000000000008152600401611d679061286d565b60405180910390fd5b8181611d7c9190612aec565b600360008673ffffffffffffffffffffffffffffffffffffffff1673ffffffffffffffffffffffffffffffffffffffff1681526020019081526020016000208190555081600360008573ffffffffffffffffffffffffffffffffffffffff1673ffffffffffffffffffffffffffffffffffffffff1681526020019081526020016000206000828254611e0e9190612a0b565b925050819055508273ffffffffffffffffffffffffffffffffffffffff168473ffffffffffffffffffffffffffffffffffffffff167fddf252ad1be2c89b69c2b068fc378daa952ba7f163c4a11628f55a4df523b3ef84604051611e72919061294d565b60405180910390a350505050565b505050565b6000611e98611e93846129b4565b612983565b905082815260208101848484011115611eb057600080fd5b611ebb848285612b99565b509392505050565b600081359050611ed281612d23565b92915050565b600081519050611ee781612d23565b92915050565b600081359050611efc81612d3a565b92915050565b600081519050611f1181612d3a565b92915050565b600082601f830112611f2857600080fd5b8135611f38848260208601611e85565b91505092915050565b600081359050611f5081612d51565b92915050565b600060208284031215611f6857600080fd5b6000611f7684828501611ec3565b91505092915050565b600060208284031215611f9157600080fd5b6000611f9f84828501611ed8565b91505092915050565b60008060408385031215611fbb57600080fd5b6000611fc985828601611ec3565b9250506020611fda85828601611ec3565b9150509250929050565b600080600060608486031215611ff957600080fd5b600061200786828701611ec3565b935050602061201886828701611ec3565b925050604061202986828701611f41565b9150509250925092565b6000806040838503121561204657600080fd5b600061205485828601611ec3565b925050602061206585828601611eed565b9150509250929050565b6000806040838503121561208257600080fd5b600061209085828601611ec3565b92505060206120a185828601611f41565b9150509250929050565b6000602082840312156120bd57600080fd5b60006120cb84828501611f02565b91505092915050565b6000602082840312156120e657600080fd5b600082013567ffffffffffffffff81111561210057600080fd5b61210c84828501611f17565b91505092915050565b6000806040838503121561212857600080fd5b600083013567ffffffffffffffff81111561214257600080fd5b61214e85828601611f17565b925050602061215f85828601611f41565b9150509250929050565b6000806040838503121561217c57600080fd5b600061218a85828601611f41565b925050602061219b85828601611f41565b9150509250929050565b6121ae81612b20565b82525050565b6121bd81612b32565b82525050565b6121cc81612b75565b82525050565b60006121dd826129e4565b6121e781856129ef565b93506121f7818560208601612ba8565b61220081612d12565b840191505092915050565b6000612216826129e4565b6122208185612a00565b9350612230818560208601612ba8565b80840191505092915050565b60006122496023836129ef565b91507f45524332303a207472616e7366657220746f20746865207a65726f206164647260008301527f65737300000000000000000000000000000000000000000000000000000000006020830152604082019050919050565b60006122af6026836129ef565b91507f4f776e61626c653a206e6577206f776e657220697320746865207a65726f206160008301527f64647265737300000000000000000000000000000000000000000000000000006020830152604082019050919050565b60006123156022836129ef565b91507f45524332303a20617070726f766520746f20746865207a65726f20616464726560008301527f73730000000000000000000000000000000000000000000000000000000000006020830152604082019050919050565b600061237b600c836129ef565b91507f504149525f4144445245535300000000000000000000000000000000000000006000830152602082019050919050565b60006123bb600f83612a00565b91507f53414c455f4c494d49545f54494d4500000000000000000000000000000000006000830152600f82019050919050565b60006123fb6026836129ef565b91507f45524332303a207472616e7366657220616d6f756e742065786365656473206260008301527f616c616e636500000000000000000000000000000000000000000000000000006020830152604082019050919050565b60006124616020836129ef565b91507f4f776e61626c653a2063616c6c6572206973206e6f7420746865206f776e65726000830152602082019050919050565b60006124a16003836129ef565b91507f414c4c00000000000000000000000000000000000000000000000000000000006000830152602082019050919050565b60006124e16025836129ef565b91507f45524332303a207472616e736665722066726f6d20746865207a65726f20616460008301527f64726573730000000000000000000000000000000000000000000000000000006020830152604082019050919050565b60006125476024836129ef565b91507f45524332303a20617070726f76652066726f6d20746865207a65726f2061646460008301527f72657373000000000000000000000000000000000000000000000000000000006020830152604082019050919050565b60006125ad6024836129ef565b91507f4d656d6265723a20546865206f7065726174696f6e206973206e6f7420616c6c60008301527f6f776564000000000000000000000000000000000000000000000000000000006020830152604082019050919050565b60006126136021836129ef565b91507f544f4b454e3a2043616e6e6f742073776170204442465a207269676874206e6f60008301527f77000000000000000000000000000000000000000000000000000000000000006020830152604082019050919050565b60006126796025836129ef565b91507f45524332303a2064656372656173656420616c6c6f77616e63652062656c6f7760008301527f207a65726f0000000000000000000000000000000000000000000000000000006020830152604082019050919050565b6126db81612b5e565b82525050565b6126ea81612b68565b82525050565b60006126fc828461220b565b915081905092915050565b6000612712826123ae565b9150819050919050565b600060208201905061273160008301846121a5565b92915050565b600060408201905061274c60008301856121a5565b818103602083015261275e81846121d2565b90509392505050565b600060408201905061277c60008301846121a5565b818103602083015261278d81612494565b905092915050565b60006020820190506127aa60008301846121b4565b92915050565b60006020820190506127c560008301846121c3565b92915050565b600060208201905081810360008301526127e581846121d2565b905092915050565b600060208201905081810360008301526128068161223c565b9050919050565b60006020820190508181036000830152612826816122a2565b9050919050565b6000602082019050818103600083015261284681612308565b9050919050565b600060208201905081810360008301526128668161236e565b9050919050565b60006020820190508181036000830152612886816123ee565b9050919050565b600060208201905081810360008301526128a681612454565b9050919050565b600060208201905081810360008301526128c6816124d4565b9050919050565b600060208201905081810360008301526128e68161253a565b9050919050565b60006020820190508181036000830152612906816125a0565b9050919050565b6000602082019050818103600083015261292681612606565b9050919050565b600060208201905081810360008301526129468161266c565b9050919050565b600060208201905061296260008301846126d2565b92915050565b600060208201905061297d60008301846126e1565b92915050565b6000604051905081810181811067ffffffffffffffff821117156129aa576129a9612ce3565b5b8060405250919050565b600067ffffffffffffffff8211156129cf576129ce612ce3565b5b601f19601f8301169050602081019050919050565b600081519050919050565b600082825260208201905092915050565b600081905092915050565b6000612a1682612b5e565b9150612a2183612b5e565b9250827fffffffffffffffffffffffffffffffffffffffffffffffffffffffffffffffff03821115612a5657612a55612c56565b5b828201905092915050565b6000612a6c82612b5e565b9150612a7783612b5e565b925082612a8757612a86612c85565b5b828204905092915050565b6000612a9d82612b5e565b9150612aa883612b5e565b9250817fffffffffffffffffffffffffffffffffffffffffffffffffffffffffffffffff0483118215151615612ae157612ae0612c56565b5b828202905092915050565b6000612af782612b5e565b9150612b0283612b5e565b925082821015612b1557612b14612c56565b5b828203905092915050565b6000612b2b82612b3e565b9050919050565b60008115159050919050565b600073ffffffffffffffffffffffffffffffffffffffff82169050919050565b6000819050919050565b600060ff82169050919050565b6000612b8082612b87565b9050919050565b6000612b9282612b3e565b9050919050565b82818337600083830152505050565b60005b83811015612bc6578082015181840152602081019050612bab565b83811115612bd5576000848401525b50505050565b60006002820490506001821680612bf357607f821691505b60208210811415612c0757612c06612cb4565b5b50919050565b6000612c1882612b5e565b91507fffffffffffffffffffffffffffffffffffffffffffffffffffffffffffffffff821415612c4b57612c4a612c56565b5b600182019050919050565b7f4e487b7100000000000000000000000000000000000000000000000000000000600052601160045260246000fd5b7f4e487b7100000000000000000000000000000000000000000000000000000000600052601260045260246000fd5b7f4e487b7100000000000000000000000000000000000000000000000000000000600052602260045260246000fd5b7f4e487b7100000000000000000000000000000000000000000000000000000000600052604160045260246000fd5b6000601f19601f8301169050919050565b612d2c81612b20565b8114612d3757600080fd5b50565b612d4381612b32565b8114612d4e57600080fd5b50565b612d5a81612b5e565b8114612d6557600080fd5b5056fe45524332303a207472616e7366657220616d6f756e74206578636565647320616c6c6f77616e6365a26469706673582212202080f67e35bf62499bf7e72f291c193635a6f742dd9c32853dab27e72a2d804664736f6c63430008000033",
  "immutableReferences": {},
  "source": "// SPDX-License-Identifier: SimPL-2.0\n\npragma solidity ^0.8.0;\n\nimport \"../authority/Member.sol\";\n\nimport \"@openzeppelin/contracts/token/ERC20/ERC20.sol\";\nimport \"@openzeppelin/contracts/utils/math/SafeMath.sol\";\n\n/**\n * @title Dragon Ball Fighter Z Token - ERC20\n *\n * @author Bit Lighthouse. Ace\n * AT: 2021-3-28 | VERSION: v1.0.2\n */\ncontract Token is Member, ERC20 {\n    using SafeMath for uint256;\n\n    string[]  private _transfer_recipients = [\n        \"FOUND\", \"EXTENSION\", \"BLACKHOLE\"\n    ];\n\n    uint256[] private _transfer_rate = [5, 3, 2];\n    mapping (address => bool) private _white_list;\n    \n    constructor(address auth_) Member(auth_)\n        ERC20(\"Dragon Ball\", \"DBFZ\") {\n        \n        _mint(msg.sender, 10e26);\n        _white_list[msg.sender] = true;\n        configs[\"SALE_LIMIT_RATE\"] = 1;\n    }\n\n    function setTransferRate(uint index, uint rate) public\n        CheckPermit(\"CONFIG\") {\n\n        _transfer_rate[index] = rate;\n    }\n\n    function setWhiteList(address target, bool enable) public\n        CheckPermit(\"CONFIG\") {\n        \n        _white_list[target] = enable;\n    }\n\n    function setLimitTime() public CheckPermit(\"CONFIG\") {\n        configs[\"SALE_LIMIT_TIME\"] = block.timestamp + 5 minutes;\n    }\n\n    function _do_transfer(\n        address sender_, address recipient_, uint256 amount_\n    ) private CheckStatus(\"TRANSFER\") {\n        if (_white_list[sender_] == false) {\n            if (configs[\"SALE_LIMIT_TIME\"] > block.timestamp) {\n                address pair = authority.members(\"PAIR_ADDRESS\");\n                uint256 totalsupply_ = totalSupply();\n                uint256 percent = totalsupply_.mul(1).div(100);\n\n                require(\n                    balanceOf(pair) >= totalsupply_.sub(percent),\n                    \"TOKEN: Cannot swap DBFZ right now\"\n                );\n            }\n            \n            uint256 other_amount = amount_.mul(10).div(100);\n\n            for (uint i = 0; i < _transfer_rate.length; i++) {\n                string memory name = _transfer_recipients[i];\n                address recipient = authority.members(name);\n                uint256 item = other_amount.mul(_transfer_rate[i]);\n\n                _transfer(sender_, recipient, item.div(100));\n            }\n\n            uint256 real_amount = amount_.sub(other_amount);\n            _transfer(sender_, recipient_, real_amount);\n        } else {\n            _transfer(sender_, recipient_, amount_);\n        }\n    }\n\n    function transfer(address recipient, uint256 amount) public\n        virtual override returns (bool success) {\n\n        _do_transfer(_msgSender(), recipient, amount);\n        success = true;\n    }\n\n    function transferFrom(\n        address sender, address recipient, uint256 amount\n    ) public virtual override returns (bool success) {\n        uint256 tAllowance = allowance(sender, _msgSender());\n        tAllowance = tAllowance.sub(\n            amount, \"ERC20: transfer amount exceeds allowance\"\n        );\n\n        _approve(sender, _msgSender(), tAllowance);\n        _do_transfer(sender, recipient, amount);\n\n        success = true;\n    }\n}",
  "sourcePath": "/home/ace/Projects/eth/other/dragon-ball-project/dragon-ball-contract/contracts/token/Token.sol",
  "compiler": {
    "name": "solc",
    "version": "0.8.0+commit.c7dfd78e.Emscripten.clang"
  },
  "schemaVersion": "3.4.3",
  "updatedAt": "2021-09-14T02:50:02.002Z",
  "networkType": "ethereum",
  "devdoc": {
    "author": "Bit Lighthouse. Ace AT: 2021-3-28 | VERSION: v1.0.2",
    "kind": "dev",
    "methods": {
      "allowance(address,address)": {
        "details": "See {IERC20-allowance}."
      },
      "approve(address,uint256)": {
        "details": "See {IERC20-approve}. Requirements: - `spender` cannot be the zero address."
      },
      "balanceOf(address)": {
        "details": "See {IERC20-balanceOf}."
      },
      "decimals()": {
        "details": "Returns the number of decimals used to get its user representation. For example, if `decimals` equals `2`, a balance of `505` tokens should be displayed to a user as `5,05` (`505 / 10 ** 2`). Tokens usually opt for a value of 18, imitating the relationship between Ether and Wei. This is the value {ERC20} uses, unless this function is overloaded; NOTE: This information is only used for _display_ purposes: it in no way affects any of the arithmetic of the contract, including {IERC20-balanceOf} and {IERC20-transfer}."
      },
      "decreaseAllowance(address,uint256)": {
        "details": "Atomically decreases the allowance granted to `spender` by the caller. This is an alternative to {approve} that can be used as a mitigation for problems described in {IERC20-approve}. Emits an {Approval} event indicating the updated allowance. Requirements: - `spender` cannot be the zero address. - `spender` must have allowance for the caller of at least `subtractedValue`."
      },
      "increaseAllowance(address,uint256)": {
        "details": "Atomically increases the allowance granted to `spender` by the caller. This is an alternative to {approve} that can be used as a mitigation for problems described in {IERC20-approve}. Emits an {Approval} event indicating the updated allowance. Requirements: - `spender` cannot be the zero address."
      },
      "name()": {
        "details": "Returns the name of the token."
      },
      "owner()": {
        "details": "Returns the address of the current owner."
      },
      "renounceOwnership()": {
        "details": "Leaves the contract without owner. It will not be possible to call `onlyOwner` functions anymore. Can only be called by the current owner. NOTE: Renouncing ownership will leave the contract without an owner, thereby removing any functionality that is only available to the owner."
      },
      "setAuthority(address)": {
        "params": {
          "authority_": "address of manager This function is onwer only"
        }
      },
      "setConfig(string,uint256)": {
        "params": {
          "config_": "config's value This function is config only",
          "name_": "name of config"
        }
      },
      "symbol()": {
        "details": "Returns the symbol of the token, usually a shorter version of the name."
      },
      "totalSupply()": {
        "details": "See {IERC20-totalSupply}."
      },
      "transfer(address,uint256)": {
        "details": "See {IERC20-transfer}. Requirements: - `recipient` cannot be the zero address. - the caller must have a balance of at least `amount`."
      },
      "transferFrom(address,address,uint256)": {
        "details": "See {IERC20-transferFrom}. Emits an {Approval} event indicating the updated allowance. This is not required by the EIP. See the note at the beginning of {ERC20}. Requirements: - `sender` and `recipient` cannot be the zero address. - `sender` must have a balance of at least `amount`. - the caller must have allowance for ``sender``'s tokens of at least `amount`."
      },
      "transferOwnership(address)": {
        "details": "Transfers ownership of the contract to a new account (`newOwner`). Can only be called by the current owner."
      }
    },
    "title": "Dragon Ball Fighter Z Token - ERC20",
    "version": 1
  },
  "userdoc": {
    "kind": "user",
    "methods": {
      "setAuthority(address)": {
        "notice": "Set new manager"
      },
      "setConfig(string,uint256)": {
        "notice": "Set config of global or contract"
      }
    },
    "version": 1
  }
}